:100000000C944D34189518951895189518951895C1
:100010001895189518951895189518951895189578
:100020001895189518951895189518951895189568
:100030000C94A61A18951895189518951895189552
:100040001895189518951895189518951895189548
:100050001895189518951895189518951895189538
:100060001895189518951895189518951895189528
:1000700018951895189518950C94381A1895189580
:100080001895189518951895189518958A05DB06F2
:10009000DB06DB069305DB06DB06DB06DB06DB06A1
:1000A000DB06DB06DB06DB069E05DB06DB06DB0686
:1000B000DB06DB068A05B705E505C005C905D305DE
:1000C000DC05EE05F905310604060F061B062606BB
:1000D0003C065B0645066606500671067C068706EA
:1000E000DB06DB0690069B06B106A506DB06DB06F3
:1000F000C906BD0644094B094D095409570957095A
:10010000950A950A950A4109950A950A950A950A4C
:10011000950A950A950A950A950A5C096A0976096D
:100120007F098D09A609B009BC09950AC609C90944
:10013000950AA609CC09DC090C0A000AF409E809A9
:10014000950A380A430A950AD109170A2D0A4D0A59
:10015000950A570A5D0A630A690A6F0A750A7B0ADB
:10016000810A870A8D0A98099F09AF0AEC0BEC0BEC
:10017000EC0BEC0BEC0BEC0BEC0BEC0BEC0BB50AFF
:10018000EC0BC30AEC0BCC0A070B110B1D0BEC0B91
:10019000270B2A0BEC0B070B2D0B3C0B700B630B87
:1001A000560B490BEC0BEC0BEC0BEC0B300B7C0BFC
:1001B000910BA50BEC0BB10BB70BBD0BC30BC90B14
:1001C000CF0BD50BDB0BE10BE70BF90A000BBE0CD9
:1001D000DF0C020D240D9D0C630D840DA50DC60DC5
:1001E000E60D0D0E2B0E4A0E630E7B0E940EAB0E1B
:1001F000C40EDB0EFB0E1B0F3C0FBA93AA93A3E5B4
:10020000B6E00AEA15E50D931C931197FD010281F2
:100210001381007E20918508022B0F71107CE8EC81
:10022000F5E022813381207C3F73022B132BFD01EB
:100230000283138304E0018764E070E0AD01465F50
:100240005F4F07E61EED21E030E00E94BB1A67E039
:1002500070E0AD01425F5F4F0FE61EED21E030E040
:100260000E94BB1A64E070E0AD014A5E5F4F07E692
:100270001FED21E030E00E94BB1A67E070E0AD01A5
:10028000465E5F4F0FE61FED21E030E00E94BB1A93
:100290008D01095D1F4FE9EBF5E0008311830091AB
:1002A0003408FD0100AB9D01275D3F4FEEE1F8E012
:1002B000890147E050E00E94153700912508FD01B3
:1002C00000A70091D70701ABE0EAF7E007A510A966
:1002D000FD0102AB13ABE0EAF7E004851585FD01F3
:1002E00004AB15AB0091C80712E0019FF001E05686
:1002F000F84F06851785FD0106AB17AB0FE207C265
:10030000BA93AA93A3E5B6E00AEA15E50D931C9308
:100310001197FD0102811381007E20918508022B37
:100320000F71107CE8ECF5E022813381207C3F7373
:10033000022B132BFD010283138308E2048348E29E
:1003400050E020EA37E042C1BA93AA93602FA3E5B8
:10035000B6E00AEA15E50D931C931197FD010281A1
:100360001381007E20918508022B0F71107CE8EC30
:10037000F5E022813381207C3F73022B132BFD019A
:100380000283138305E20483623045E250E058F4AF
:1003900028EC37E0069F200D311D8D01075F1F4FB0
:1003A0000E942A3707C020E030E08D01075F1F4F11
:1003B0000E943837ADC1BA93AA93A3E5B6E00AEA22
:1003C00015E50D931C931197FD0102811381007EA9
:1003D00020918508022B0F71107CE8ECF5E022815A
:1003E0003381207C3F73022B132BFD010283138387
:1003F0000DE204834DE250E021E438E0E7C0BA9317
:10040000AA9329ED35E0E9EBF5E020833183E8ECB0
:10041000F5E0228D20933408228920932508238D2E
:100420002093D707248D358DE0EAF7E027A730AB7E
:10043000E8ECF5E0268D378DE0EAF7E02487358794
:1004400023E02093B605A3E5B6E02AEA35E52D932F
:100450003C931197FD0122813381207E40918508D4
:10046000242B2F71307CE8ECF5E002811381007CB5
:100470001F73202B312BFD012283338301E147C100
:10048000BA93AA9321ED35E0E7EBF5E020833183C1
:10049000E0EAF7E0A9EDB5E04D915D916D917C91B9
:1004A000408751876287738720E010C032E0239F26
:1004B000A8ECB5E0A00DB11D55964D915C91DF0102
:1004C000A00DB11D1C964D935C932395338123178A
:1004D00068F3A3E5B6E02AEA35E52D933C9311973E
:1004E000FD0122813381207E40918508242B2F71CC
:1004F000307CE8ECF5E002811381007C1F73202B37
:10050000312BFD01228333833FC0BA93AA9302307B
:1005100078F445E250E021ED35E068EC77E0202EFC
:1005200005E2029D112D600D171F062F0E942A372C
:100530000DC0BA93AA934DE250E020E030E001E410
:1005400018E00E94383702C00E942A3703E0009367
:10055000B605A3E5B6E00AEA15E50D931C931197DD
:10056000FD0102811381007E20918508022B0F710D
:10057000107CE8ECF5E022813381207C3F73022B74
:10058000132BFD010283138300E0C1C0BA93AA9329
:10059000A3E5B6E00AEA15E50D931C931197E8EC84
:1005A000F5E002811381FD0102831383007E209117
:1005B0008508022B0F712091CA05207C022B028333
:1005C00007E0048347E050E02EE138E08D01075F4B
:1005D0001F4F0E942A379CC0BA93AA93A3E5B6E0A6
:1005E0000AEA15E50D931C931197FD010281138111
:1005F000007E20918508022B0F71107CE8ECF5E05D
:1006000022813381207C3F73022B132BFD01028357
:10061000138307E0048342E050E029E238E0D6CFBC
:10062000BA93AA93A3E5B6E00AEA15E50D931C93E5
:100630001197FD0102811381007E20918508022B14
:100640000F71107CE8ECF5E022813381207C3F7350
:10065000022B132BFD010283138307E0048342E086
:1006600050E02BE238E0B2CFBA93AA9347E050E0D3
:1006700021ED35E00EE118E00E942A3720E01091CC
:100680001F08009120080E94231830912108209112
:10069000220810912308009124080E94681859CF5D
:1006A000BA93AA9342E050E021ED35E009E218E068
:1006B0004BCFBA93AA9342E050E021ED35E00BE234
:1006C00018E042CFA3E5B6E04FE050E025E238E085
:1006D0008D01075F1F4F0E942A370AEA15E50D9327
:1006E0001C931197FD0102811381007E20918508E2
:1006F000022B0F71107CE8ECF5E022813381207C25
:100700003F73022B132BFD01028313830FE004833D
:100710008D010E941307FD01058316838D010E9440
:100720003607FD0107831087EBEBF5E001E000835E
:1007300000E00383068303E010E0E4EBF5E00083D0
:100740001183A991B9910895E8ECF5E061850285DE
:10075000643170F412E0019FA0019F01255F3F4FBB
:100760000EEE18E072E0679F000D111D0E942A37FF
:100770000AEA15E5E3E5F6E00083118302811381BF
:10078000007E20918508022B0F71107CE8ECF5E0CB
:1007900022813381207C3F73022B132BE3E5F6E0AB
:1007A0000283138300E004838F010E941307E3E5B3
:1007B000F6E0058316838F010E943607E3E5F6E035
:1007C00007831087EBEBF5E001E0008300E0038393
:1007D000068303E010E0E4EBF5E000831183089565
:1007E000BA93AA93E8ECF5E061857285A3E5B6E0DB
:1007F0002AEA35E52D933C931197FD01228133813F
:10080000207E40918508242B2F71307CE8ECF5E0A8
:1008100002811381007C1F73202B312BFD01228369
:100820003383072F000F0483643168F402E0709F64
:10083000A00126E139E0609F200D311D8D01075F89
:100840001F4F0E942A3764CFBA93AA937FCEBA93E0
:10085000AA93E8ECF5E0218520933408A3E5B6E0FF
:10086000FD0121872AEA35E52D933C9311972281DA
:100870003381207E40918508242B2F71307CE8EC59
:10088000F5E002811381007C1F73202B312BFD01C9
:100890002283338301E03BCFBA93AA9313CFBA9359
:1008A000AA934FE050E021ED35E005E218E00E9408
:1008B0002A3708CFBA93AA93229742E050E021ED5D
:1008C00035E08E010E942A37E8ECF5E0438550E0E0
:1008D0009F01245F3F4F6881798100EA17E0060F8E
:1008E000171F0E942A37A3E5B6E00AEA15E50D9323
:1008F0001C931197FD0102811381007E20918508D0
:10090000022B0F71107CE8ECF5E022813381207C12
:100910003F73022B132BFD010283138300E004833A
:100920008D010E941307FD01058316838D010E942E
:100930003607FD0107831087EBEBF5E001E000834C
:1009400000E00383068303E010E0E4EBF5E00083BE
:1009500011832296A991B99108958A93229742E032
:1009600050E021ED35E08E010E942A37E8ECF5E0F9
:100970008385482F50E00881198120EA37E0200F55
:10098000311F0FE516E00E942A3742E050E09E0139
:100990000CE516E00E942A37E3E5F6E083870AEAD1
:1009A00015E50083118302811381007E2091850863
:1009B000022B0F71107CE8ECF5E022813381207C62
:1009C0003F73022B132BE3E5F6E0028313838D5F65
:1009D00084838F010E941307E3E5F6E00583168305
:1009E0008F010E943607E3E5F6E007831087EBEB03
:1009F000F5E001E0008300E00383068303E010E0FC
:100A0000E4EBF5E00083118322968991089500E0DC
:100A100016E920E030E00E94E7194BE850E020E0C2
:100A200030E008EC15E00E9438374BE850E020E059
:100A300030E003E516E00E94383748E050E020E05F
:100A400030E00BEB15E00E9438370C94E5190E945A
:100A5000621AEBEBF5E004870281102F002319F0F6
:100A60001A9549F00BC014851A3A41F000E0EBEBFF
:100A7000F5E00283089514851535C1F7248510E04B
:100A8000E8ECF5E0E00FF11F2083EBEBF5E00281ED
:100A900003950283093051F408EC15E0E7D1E8EC46
:100AA000F5E0278130850217130701F7E8ECF5E040
:100AB000048110E0085F1F4FEBEBF5E0228130E08E
:100AC000021710400CF077C1328308EC15E0ABD16F
:100AD000E8ECF5E0258136810217130709F065C1BE
:100AE00001E0EBEBF5E00183E8ECF5E02281138116
:100AF00046E0022F0E947334043308F05CC1F0E03A
:100B0000FBBFF2E00F9FF001E457FF4F07901690F4
:100B1000F0010994022F0F7110918508011709F057
:100B20004AC10C94FD00022F0F7110918508011726
:100B300019F0002309F03FC10C94511BE8ECF5E0DB
:100B40000185128523853485EBEBF5E0008711875D
:100B500022873387E6E8F8E0408151816281738122
:100B6000401751076207730709F025C1E5CF022F2F
:100B70000F7110918508011709F01DC10C948001B7
:100B8000022F0F7110918508011709F014C100E0C0
:100B900008C0022F0F7110918508011709F00BC1D1
:100BA00001E00C94A401022F0F7110918508011728
:100BB00009F001C102E0F5CF022F0F7110918508F5
:100BC000011709F0F8C003E0ECCF022F0F7110916C
:100BD0008508011709F0EFC00C94DB01022F0F719B
:100BE00010918508011719F0002309F0E4C00C9456
:100BF000FF01022F0F7110918508011719F00023D2
:100C000009F0D9C00C944002022F0F711091850891
:100C1000011719F0002309F0CEC000E00AC0022F2E
:100C20000F7110918508011719F0002309F0C3C056
:100C300001E00C948502022F0F71109185080117B5
:100C400019F0002309F0B7C002E0F3CF022F0F71B3
:100C500010918508011719F0002309F0ACC003E0DA
:100C6000E8CF022F0F7110918508011719F00023AA
:100C700009F0A1C00C949902022F0F711091850800
:100C8000011709F098C00C94C602022F0F71109141
:100C90008508011719F0002309F08DC00C94EC02AF
:100CA000022F0F7110918508011719F0002309F028
:100CB00082C00C941003022F0F7110918508011748
:100CC00019F0002309F077C00C943403022F0F7140
:100CD00010918508011719F0002309F06CC00C94DD
:100CE0005003022F0F7110918508011719F000238E
:100CF00009F061C00C945903022F0F7110918508FF
:100D0000011719F0002309F056C00C94A403022F18
:100D10000F7110918508011709F04DC00C94F00374
:100D2000022F0F7110918508011719F0002309F0A7
:100D300042C00C942404022F0F71109185080117F2
:100D400011F0002311F40E942704E8ECF5E0028181
:100D50000F7110918508011711F0002311F40E9402
:100D60004F04E8ECF5E002810F711091850801173E
:100D700011F0002311F40E944C04E8ECF5E002812C
:100D80000F7110918508011711F0002311F40E94D2
:100D90005A04E8ECF5E002810F7110918508011703
:100DA00011F0002341F40C94AD0426EC31E00AE587
:100DB0001AE00E94E32D0895BA93AA939A938A9316
:100DC000E4EBF5E000811181012B41F5ABEBB5E0DF
:100DD000FD0106810023F1F40E94651A0023F1F061
:100DE0000E94E3190E946D1AFD01E381F0E0ED5AC3
:100DF000F94F00810E945F1AFD010381039503836F
:100E00008091570690E00896801790403CF401E0EE
:100E1000068304C000E00C930E94E5198991999122
:100E2000A991B9910895AA939A938A932297C80198
:100E30008E010E949B13A0E00BC0AE0121E030E0C8
:100E40008C010A0F131F075F1F4F0E94A813A39561
:100E5000FC010481A01788F38E010E94A013088171
:100E60001981229689919991A9910895BA93AA938B
:100E70009A938A932297C8018E010E949B13DC01EA
:100E800087E0AE0121E030E08D010E94A8131196A9
:100E90008A95B9F78E010E94A013088119812296C4
:100EA000BDCF0E94641B00E00093F8060E94771BF0
:100EB00040E150E020E030E009EF16E00C943837D4
:100EC0009A928A927A926A925A924A921D01BC012F
:100ED00048018091F80690E0682E7724660C771C14
:100EE000660C771C660C771CADE0B7E0A60DB71D4D
:100EF000FD01048115810683178302811381048318
:100F000015830D911C911197FB2F028313838D92F2
:100F10009C9211970D911C911197FB2F2281338187
:100F2000020F131F24813581020F131F2681378181
:100F3000020F131F44E050E00E949134880F991F64
:100F40002DE037E0280F391F2901F90100AB11AB63
:100F5000C401801B910B1AF4919581959040EDE0AE
:100F6000F7E0E60DF71D048D158D068F178F028DA6
:100F7000138D048F158F008D118D028F138F808F2D
:100F8000918F008D118D228D338D020F131F248DB3
:100F9000358D020F131F268D378D020F131F44E06E
:100FA00050E00E949134F20106AB17AB23E0219F81
:100FB000302D209F310D8015930714F4840103C058
:100FC000FD0102811381CB01D101499059906990B3
:100FD00079908990999008957A926A925A924A9259
:100FE000BA93AA939A938A930E94921B212F220F5D
:100FF000220B322F0E944235A801B9010091F80658
:1010000010E0C801880F991FA0EAB7E0A80FB91F28
:10101000000F111F000F111FF801E056F84F06894D
:101020001789208D318D0E94023628013901FD017A
:1010300002A113A1212F220F220B322F0E94423531
:10104000A201B3010E94A1350E944F35FC01EE5070
:10105000F94F0083118334DFFD0106871787E2EF24
:10106000F6E0068103950683033020F000E0068356
:101070000E946F210091F8060E94771B8991999137
:10108000A991B991499059906990799008954EE845
:1010900051E020E030E00AE818E00E94383700E232
:1010A00013E021E030E0E3E0FAE0008311832283E3
:1010B00033833483089500914907002399F04EE863
:1010C00051E020E030E00AE818E00E94383700E202
:1010D00013E021E030E0E3E0FAE0008311832283B3
:1010E00033832483089500E00093070A0895009154
:1010F0003408013021F10091070A013001F567E160
:1011000070E04AE457E0E3E0FAE0008111812281D7
:1011100033810E94BB1AE3E0FAE000811181228151
:101120003381095E1F4F2F4F3F4F0083118322836E
:1011300033830E94561B0E94F40B0E94820C089578
:101140001D0118E0019FA2EDB1E0ED91FD913C91F0
:10115000E00DF11D34963BBF069134970A9559F086
:101160000A95B1F00A95F9F00A9551F10A9589F1BD
:101170000A9579F138C036960791F691E02FE65737
:10118000F74F4081542F550F550B652F752F2BC0EE
:1011900036960791F691E02FE657F74F408150E0E1
:1011A00060E070E020C036960791F691E02FE65798
:1011B000F74F40815181652F660F660B762F13C064
:1011C00036960791F691E02FE657F74F408151810F
:1011D000E7CF36960791F691E02FE657F74F40811B
:1011E0005181628173818A019B01D10108953B2E57
:1011F0002A2F18E0019FA2EDB1E0ED91FD913C9105
:10120000E00DF11D34963BBF069134970A9559F0D5
:101210000A9549F00A9579F00A9569F00A95A1F0C6
:101220000A9591F01BC036960791F691E02FE6578C
:10123000F74F408313C036960791F691E02FE6579B
:10124000F74F408351830AC036960791F691E02FFD
:10125000E657F74F4083518362837383A22FB32DE8
:10126000089548814A954B3308F05FC1F0E0FBBF19
:10127000F2E04F9FF001EC50FF4F07901690F00105
:1012800009940A815DDF51C10A81102F110F110BE2
:10129000212F312F4AC10A8145C10A811B81212F8B
:1012A000220F220B322F41C10A811B813CC10A81CE
:1012B0001B812C813D8139C14981443108F035C100
:1012C00004E0409FF001E25CF64F00811181228131
:1012D00033812BC14981443008F027C102E0409F8F
:1012E000F001E056F84F06851785D9CF4981442390
:1012F00009F01BC1E0EAF7E00485158514C14981B6
:10130000463008F012C1E0EAF7E004811581268139
:1013100037810E94AD34017005C14981483008F021
:1013200004C1E0EAF7E00085118522853385F1CF1D
:10133000E0EAF7E00481158126813781F6C0E0EA12
:10134000F7E00085118522853385EFC0498148305B
:1013500008F0EBC004E0409FF001EE56F64FB5CF29
:101360004981443108F0E1C002E0409FF001E251C0
:10137000F74F0081118193CF4981443108F0D5C0E6
:1013800002E0409FF001EA5EF64FF3CFEEE8F9E0AD
:101390009CCF00912508C6C0E4EAF5E000811181E8
:1013A000C2C04A81423008F0C0C005E2049FF0018B
:1013B000E056F84F00A5B6C04A81423008F0B5C0EB
:1013C00005E2049FF001E056F84F07A510A967CF8A
:1013D0004A81423008F0A9C005E2049FF001E056BE
:1013E000F84F05A916A95BCF4A81423008F09DC08D
:1013F00005E2049FF001E056F84F03A914A94FCF6E
:101400004A81423008F091C005E2049FF001E056A5
:10141000F84F01A912A943CF4A81423008F085C094
:1014200005E2049FF001E056F84F07A97BC04A810E
:10143000423008F07AC050E005E2049FF001E0522B
:10144000F84F008111812281338140E06AE774E422
:101450000E9402360E944F3568C04A81423008F02F
:1014600064C050E005E2049FF001EC51F84FE9CF71
:101470004A81423008F059C005E2049FF001E2526F
:10148000F84F00814FC04A81423008F04EC005E25B
:10149000049FF001E152F84FF4CF4A81423008F046
:1014A00044C005E2049FF001E451F84FEACF4A81BD
:1014B0004423D9F50091840835C04A814423A9F515
:1014C000EEE6F8E056CF4A81442379F500917008A2
:1014D00029C04A81442349F50091710823C04A81FB
:1014E000442319F5E3E7F8E044CF4A814423E9F4C3
:1014F000E5E7F8E03ECF4A814423B9F4E7E7F8E0B6
:1015000038CF4A81442389F4E9E7F8E032CF4A81B1
:10151000442359F4EBE7F8E041CF4A81442329F40E
:101520000091830810E020E030E0269608955A925A
:101530004A92BA93AA939A938A93C801A22F0E81D2
:101540000A50023308F048C1F0E0FBBFF2E00F9F01
:10155000F001E659FE4F07901690F0010994482FCC
:10156000512FB901088543DE37C14F81443108F05E
:1015700033C104E0409FF001E25CF64F80831183A9
:101580002283338329C10F81002309F025C1E0EABA
:10159000F7E08487158720C14F81483008F01CC1CF
:1015A00001E010E00E946D34212F220F220B482F02
:1015B000492B4A2B432B79F0E0EAF7E0408551852F
:1015C00062857385402B512B622B722B408751878C
:1015D0006287738701C1009510952095E0EAF7E0D6
:1015E0004085518562857385402351236223722390
:1015F000EDCFE0EAF7E08483158326833783ECC0E0
:10160000E0EAF7E08087118722873387E5C04F81C2
:10161000483008F0E1C004E0409FF001EE56F64F7C
:10162000ADCF4F81443108F0D7C002E0409FF001B8
:10163000E251F74F80831183CFC04F81443108F0CE
:10164000CBC002E0409FF001EA5EF64FF3CFEEE838
:10165000F9E094CF80932508BFC0E4EAF5E0EACF33
:10166000488402E0401608F0B7C005E2049DF0018E
:10167000E056F84F80A7B0C0488402E0401608F05A
:10168000ABC005E2049DF001E056F84F87A710AB10
:10169000A3C0488402E0401608F09EC005E2049D05
:1016A000F001E056F84F85AB16AB96C0488402E0D7
:1016B000401608F091C005E2049DF001E056F84F95
:1016C00083AB14AB89C0488402E0401608F084C0A4
:1016D00005E2049DF001E056F84F81AB12AB7CC0EF
:1016E000488402E0401608F077C005E2049DF0014E
:1016F000E056F84F87AB70C0488402E0401608F00F
:101700006BC0082F0E94423540E050E06AE774E465
:101710000E947B3645E2449DF001E052F84F008381
:101720002ECF488402E0401608F056C0082F0E94D1
:10173000423540E050E06AE774E40E947B3645E2BF
:10174000449DF001EC51F84FEACF488402E0401686
:1017500008F042C005E2049DF001E451F84F808397
:101760003BC008850023C1F58093840835C00885F7
:10177000002391F5EEE6F8E05DCF0885002361F5E2
:101780008093700829C00885002331F58093710883
:1017900023C00885002301F5E3E7F8E04BCF088577
:1017A0000023D1F4E5E7F8E045CF08850023A1F454
:1017B000E7E7F8E03FCF0885002371F4E9E7F8E0B8
:1017C00039CF0885002341F4EBE7F8E033CF0885F3
:1017D000002311F48093830889919991A991B9917B
:1017E0004990599026960895BA93AA93EAE4F7E0AF
:1017F0000481065609F46AC0075009F44CC00A95E2
:1018000019F00A95A9F17BC00091020A043108F091
:1018100076C0A3E0BAE04D915D916D917C9114E0AA
:10182000019FD001AE54B64F4D935D936D937C9361
:10183000A2E0BAE00C9103950C9347815085618535
:10184000728507E12224079F302D069F202D310D40
:10185000059F102D210D321D049F002D110D221DFD
:10186000321D005E1C4F2E4F3F4FE3E0FAE043C0B5
:101870000091020A002309F442C0E2E0FAE00A956E
:10188000008314E0019FF001EE54F64F00811181B6
:1018900022813381EACF478150856185728507E1D6
:1018A0002224079F302D069F202D310D059F102DDE
:1018B000210D321D049F002D110D221D321D005ED1
:1018C0001C4F2E4F3F4FE3E0FAE015C0359606E07F
:1018D00010E00E9420370E943109012B022B032BBC
:1018E00071F4E3E0FAE00081118122813381095E25
:1018F0001F4F2F4F3F4F0083118322833383A991C2
:10190000B99108955A924A92BA93AA939A938A9354
:101910000AE4402E07E0502EEAE4F7E004810631A5
:1019200008F0CCC2F0E0FBBFF2E00F9FF001E25301
:10193000FE4F07901690F0010994F20101890C31D5
:1019400051F405810A95085008F0B8C20781108546
:101950000E943C14B3C2359606E010E00E94203786
:101960000E943109C80101E1400E00E0501EF20161
:1019700006E010E00E9420378C019EC2F2013596ED
:1019800006E010E00E9420370E943109C801D90109
:10199000F2013B9606E010E00E9420370E943109D8
:1019A000A80101E1400E00E0501EF20106E010E047
:1019B0000E942037840F951F2A1F3B1FDDCFF201A5
:1019C000359606E010E00E9420370E943109C801D8
:1019D000D901F2013B9606E010E00E9420370E94F8
:1019E0003109A80101E1400E00E0501EF20106E0BD
:1019F00010E00E942037841B950BA20BB30B8C01C7
:101A00009D015AC2F201359606E010E00E9420378F
:101A10000E943109C801D901F2013B9606E010E0AD
:101A20000E9420370E943109A801B90101E1400E4E
:101A300000E0501EF20106E010E00E9420378C0109
:101A40009D010E94E03438C2F201359606E010E0B4
:101A50000E9420370E943109C801D901F2013B964A
:101A600006E010E00E9420370E943109A801B90168
:101A700001E1400E00E0501EF20106E010E00E947D
:101A8000203700E0789F702D699F700D5A9F700D70
:101A90004B9F700D689F602D710D599F600D711DDA
:101AA0004A9F600D711D589F502D610D701F499FF9
:101AB000500D611D701F489F510D601F701F002D3C
:101AC000152F9B01F9C1F201359606E010E00E9446
:101AD00020370E943109C801D901F2013B9606E086
:101AE00010E00E9420370E943109A80101E1400E58
:101AF00000E0501EF20106E010E00E94203784272B
:101B000095272A273B2738CFF201359606E010E0CB
:101B10000E9420370E943109C801D901F2013B9689
:101B200006E010E00E9420370E943109A80101E17F
:101B3000400E00E0501EF20106E010E00E94203747
:101B4000842395232A233B2317CFF201359606E001
:101B500010E00E9420370E943109C801D901F2012A
:101B60003B9606E010E00E9420370E943109A80150
:101B700001E1400E00E0501EF20106E010E00E947C
:101B80002037842B952B2A2B3B2BF6CEF201359652
:101B900006E010E00E9420370E943109C801D901F7
:101BA000F2013B9606E010E00E9420370E943109C6
:101BB00001E1400E00E0501EF20106E010E00E943C
:101BC000203780959095A095B09519CFF201359664
:101BD00006E010E00E9420370E943109C801D901B7
:101BE000F2013B9606E010E00E9420370E94310986
:101BF000082F092B0A2B0B2B11F441E001C040E008
:101C000020E030E001E1400E521EF20106E010E05B
:101C10000E942037042F10E04FC1F201359606E0F4
:101C200010E00E9420370E943109C801D901F20159
:101C30003B9606E010E00E9420370E943109402FB9
:101C4000082F092B0A2B0B2BC1F6042F012B022B7B
:101C5000032BA9F2D2CFF201359606E010E00E94E4
:101C600020370E943109C801D901F2013B9606E0F4
:101C700010E00E9420370E943109402F082F092BC5
:101C80000A2B0B2B31F0042F012B022B032B09F015
:101C9000B4CFB5CFF201359606E010E00E942037B0
:101CA0000E943109C801D901F2013B9606E010E01B
:101CB0000E9420370E94310980179107A207B307BD
:101CC00009F49BCF9CCFF201359606E010E00E940C
:101CD00020370E943109C801D901F2013B9606E084
:101CE00010E00E9420370E94310980179107A20757
:101CF000B30779F282CFF201359606E010E00E9438
:101D000020370E943109C801D901F2013B9606E053
:101D100010E00E9420370E943109081719072A078E
:101D20003B070CF46ACF6BCFF201359606E010E06A
:101D30000E9420370E943109C801D901F2013B9667
:101D400006E010E00E9420370E94310980179107B9
:101D5000A207B307E6CFF201359606E010E00E9435
:101D600020370E943109C801D901F2013B9606E0F3
:101D700010E00E9420370E94310980179107A207C6
:101D8000B3070CF03ACF3BCFF201359606E010E0F6
:101D90000E9420370E943109C801D901F2013B9607
:101DA00006E010E00E9420370E9431090817190749
:101DB0002A073B07E6CFF201359606E010E00E94C5
:101DC00020370E943109C801D901F2013B9606E093
:101DD00010E00E9420370E94310901E1400E00E02E
:101DE000501EF20106E010E00E9420378F5F9F4FE7
:101DF000AF4FBF4F04CEF201359606E010E00E94CF
:101E000020370E943109C801D901F2013B9606E052
:101E100010E00E9420370E94310901E1400E00E0ED
:101E2000501EF20106E010E00E94203781509040E1
:101E3000A040B040E4CDF201359606E010E00E94EB
:101E400020370E943109C801D901F2013B9606E012
:101E500010E00E9420370E943109402F01E1400E1E
:101E600000E0501EF20106E010E00E9420378C01D5
:101E70009D010E94B53420C0F201359606E010E0C5
:101E80000E9420370E943109C801D901F2013B9616
:101E900006E010E00E9420370E943109402F01E146
:101EA000400E00E0501EF20106E010E00E942037D4
:101EB0008C019D010E94A5340E94970A89919991F5
:101EC000A991B99149905990089500E016E920E050
:101ED00030E00E94E11A0AE51AE0E6E7FBE0008341
:101EE000118300E000935A0A0093220B02E21BE0E8
:101EF000EAE4FBE0008311830CE41BE0E4E7FBE091
:101F00000083118300E000934C0BE9E8F7E00083C5
:101F100001830895BA93AA930E94331B002311F101
:101F2000A6E7BBE0ED91FC910081002391F00E94B7
:101F3000391BA6E7BBE0ED91FC9100810E943B1BA1
:101F4000E6E7FBE0008111810F5F1F4F00831183E3
:101F500009C00AE51AE0E6E7FBE00083118300E030
:101F600000935A0A0E942D1B002309F4FAC00E9414
:101F70003D1BE1E3F2E002AB00915A0A002309F0B5
:101F8000F0C002A9102F185009F483C01A9509F463
:101F9000C2C01A9509F4E5C0135009F497C01E5049
:101FA00021F0145209F492C0B8C00E942D1B0023E6
:101FB000E1F30E943D1BE1E3F2E002AB0E942D1B26
:101FC0000023E1F30E943D1BE1E3F2E002AB01A537
:101FD0000023A9F4C6C008E00E943F1B00E20E9453
:101FE0003F1B08E00E943F1BE4E7FBE000811181FA
:101FF000015010400083118320E0F8012083E4E7C2
:10200000FBE0208131811BE02C343B4021F7E1E3F0
:10201000F2E002A9015419F00A95B1F117C000A924
:10202000002329F001A9043010F4039501AB21A984
:1020300000E5029F9F01200D311D20593F4F0CE408
:102040000E94233201E0E1E3F2E000AB0CE41BE08C
:10205000E4E7FBE00083118300914C0B002309F4BB
:1020600080C0A4E7BBE0ED91FC910081002309F45E
:1020700078C00E943F1BE4E7FBE0008111810F5F05
:102080001F4F00831183EDCF01A9002381F20A9530
:10209000CDCFE4E7FBE0208131812C343B4009F4D3
:1020A00060C0E1E3F2E001A5002349F008E00E94EE
:1020B0003F1B00E20E943F1B08E00E943F1BE4E739
:1020C000FBE0008111810150104044C011A5112393
:1020D00011F00E943F1BE1E3F2E002A9A4E7BBE09C
:1020E000ED91FC910083E4E7FBE0008111810F5F3B
:1020F0001F4F0083118300E0E091740BF12F0083E8
:1021000033D00CE41BE0E4E7FBE00083118300E044
:1021100000934C0B26C000E202ABE4E7FBE0208119
:10212000318123373B40E8F4E1E3F2E001A50023ED
:1021300019F002A90E943F1BE1E3F2E002A9A4E723
:10214000BBE0ED91FC910083E4E7FBE000811181AD
:102150000F5F1F4F0083118300E0E091740BF12F9C
:102160000083A991B99108954A92BA93AA939A9338
:102170008A9380E090E0A1E3B2E0EEE2FAE730E09B
:102180003BBF079117912691FD01048B158B268B80
:1021900000914C0B02AB83AB048967A543E0469FDB
:1021A000E00DF11D028F138F248F01E0FD0107A7C1
:1021B00018C0EAE4FBE00081F181E02F2083EAE42B
:1021C000FBE0008111810F5F1F4F0083118320E02E
:1021D000F80120830196FC01E45BF44F0081FD01CE
:1021E00002AB22A9222369F0022F0D5041F00351C6
:1021F00031F00E5021F00C5011F00550D1F641D0C5
:10220000E9CF00E001AB00ABECE4FBE007C00A3033
:1022100011F00D3011F400E00083319600810023AD
:10222000B1F725ED31E00CE41BE00E94E33100231F
:10223000F9F02CE43BE08D0100591F4F0E94E3317F
:102240000023B1F0CD0180559E4F04E0402E9C014B
:10225000205530408C010E942332805590404A9492
:10226000B1F72CE43BE0A059BF4F8D010E9423320F
:1022700000E00093610789919991A991B9914990E2
:102280000895BA93AA9302E21BE00E94D53102E2BC
:102290001BE0C3D1A1E3B2E0FD0102A90D5009F496
:1022A000B3C0035141F00E5031F00C5021F00550F5
:1022B00009F482C104C00091220B0023F1F400E074
:1022C0000093220B02E21BE0EAE4FBE000831183AF
:1022D000A991B991089500E0FD01048B058B068B4F
:1022E00026EE31E00AE51AE00E94E32D9D01265D0D
:1022F0003F4F0AE51AE00E94E32DFD01448955890C
:102300006689042F052B062BD1F2FA0176966BBF56
:102310000691002309F053C022E23BE08A010E94AB
:10232000F631002389F5FD012489358901E617E09E
:102330000E940B325496ED91FD913C9156977C96FC
:102340003BBF0791179126913797402F412B422B86
:1023500029F0FD01048B158B268BB1CF3BBF079174
:10236000169120E00030120749F0F80109959D010F
:10237000265D3F4F0AE51AE00E94E32D00E0FD01D3
:10238000048B058B068B9BCF5496ED91FD913C9170
:1023900056977F963BBF079117912691302F312B8F
:1023A000322B29F0FD01048B158B268BA6CF00E084
:1023B000FD01048B058B068B26ED31E093CF40E0C9
:1023C00020E030E002E21BE00E94592EFD0143A90B
:1023D00054E0459FE00DF11D008311832283338378
:1023E000FD0103A9039503AB5496ED91FD913C913A
:1023F00056977C963BBF079117912691302F312B32
:10240000322B09F468CFA5CF25ED31E002E21BE0C5
:102410000E948137012B59F49A969D010AE51AE032
:102420000E94E32D4CCFFD01048B158B268BFD0103
:10243000448955896689042F052B062B09F43FCF63
:10244000FA0176966BBF0691002309F08DC022E257
:102450003BE08A010E94F631002309F06AC0FD01C9
:102460002489358901E617E00E940B325496ED91DC
:10247000FD913C9156977C963BBF07911791269111
:102480003797012B022B09F442C025EF31E00AE512
:102490001AE00E94E32D21E637E00AE51AE00E94E7
:1024A000E32D29EF31E00AE51AE00E94E32D54966E
:1024B000ED91FD913C9156977C963BBF079117910A
:1024C0002691FD01078B108F218F012B022BF1F03C
:1024D00022E132E00AE51AE00E94E32DFD0127899E
:1024E000308D0AE51AE00E94D11A5796ED91FD91C0
:1024F0003C9159977C963BBF079117912691FD011E
:10250000078B108F218F012B022B11F730CF3BBF90
:102510000791F691E02F099500E0FD01048B058BF2
:10252000068B9D01265D3F4F0AE51AE00E94E32DD0
:102530007ECF5496ED91FD913C9156977F963BBF8F
:10254000079117912691302F312B322B09F06BCF49
:1025500000E0FD01048B058B068B26EE31E00AE5D9
:102560001AE00E94E32D58CF40E020E030E002E284
:102570001BE00E94592EFD0143A954E0459FE00D48
:10258000F11D00831183228333835496ED91FD91D5
:102590003C91569777963BBF0791169120E000300B
:1025A000120749F0F80109959D01265D3F4F0AE5A4
:1025B0001AE00E94E32DE2CE28E132E00AE51AE0BB
:1025C0000E94E32DFD01048915892689078B108F50
:1025D000218F202B212B09F41FCF22E132E00AE5C5
:1025E0001AE00E94E32DFD012789308D0AE51AE0EB
:1025F0000E94D11A5796ED91FD913C9159977F9683
:102600003BBF079117912691FD01078B108F218FFA
:10261000012B022B09F400CFE0CF5A924A92BA93D1
:10262000AA939A938A93C8015524A1E3B2E0FD01CD
:10263000048915892689078B108F218F25ED31E0BC
:102640008C010E94E331002309F457C08C010E94E1
:102650003132402EFD010789108D218D012B022B77
:1026600009F44BC034E120E08D010C5C1F4F0E9447
:10267000403234E120E08D01045A1F4F0E94403265
:10268000FD012789308D8D01045A1F4F0E94D11AF8
:10269000442D9D01245A3F4F8D010C5C1F4F0E9419
:1026A00048329C018D010C5C1F4F0E94E3310023D6
:1026B00049F45394FD012789308D8D01085B1F4F2C
:1026C0000E94D11AFD010789108D318DF8017F9686
:1026D0003BBF079117912691FD01078B108F218F2A
:1026E000012B022B09F0BECF01E0501631F4A85B9C
:1026F000BF4F9D018C010E94233289919991A9912C
:10270000B99149905990089500915A0A002329F0EF
:1027100001DC00915A0A0023D9F70895E1E3F2E0C1
:1027200001E001A70DE002A70895E1E3F2E000E077
:1027300001A702A708952FEFF801208321830895B0
:10274000F80100811181009510950083118308958F
:102750000D01BC01FA01422F432BD1F0D801C90170
:102760000D912081318120272083318328E0408111
:10277000518156954795008100FF04C008E014E898
:1027800040275127408351832A9589F7019741F7C4
:10279000CB01D0010895AD0100912608002309F076
:1027A00060C000912708002391F1E1E3F4E0ADE27D
:1027B000B8E00D911C9120912F0832E0239FD001A9
:1027C000A255B84F2D913C9102171307008174F464
:1027D0000023E9F401810395018305E00083018171
:1027E0000530A8F005E0018300E00FC0002379F474
:1027F0000181002311F00A95018305E00083018126
:10280000002329F405E0018301E0009325080091ED
:102810002808002331F101E00093250810912308D6
:1028200000912A08011728F400912C08101760F471
:1028300008C0101749F400912208209129080217B6
:1028400018F000E00093250800912C08101749F4B7
:102850000091220810912B08011718F400E0009352
:102860002508DA01089597CF4DE250E020E030E0EE
:1028700001E418E00C943837192E782F18018CE5F4
:1028800098E064E09C01275F3F4F8901FC0149E02B
:1028900050E00E94153709976A95A1F7E1E4F8E046
:1028A0002082318203E418E0E3E9F7E047E00E9488
:1028B000153703E00093B605872F912D0895E1E3C6
:1028C000F2E00081118122813381012B022B032B45
:1028D00031F404811581EEE6F8E000831183089558
:1028E000BA93AA932297E1E3F2E000811181228159
:1028F0003381012B022B032B09F024C244E15CE756
:1029000060E00AE51AE00E941C2E44E45EE760E005
:102910000AE51AE00E941C2EE1E3F2E020813181F9
:1029200007E1039F102D029F110DE02DF12FED57B0
:10293000F74F0081002321F44CE65EE760E003C01E
:1029400044E95EE760E00AE51AE00E941C2E44EAD2
:102950005DE760E00AE51AE00E941C2E2EE638E0F2
:10296000E1E3F2E04081518107E1059F102D049FD2
:10297000110D200D311F0AE51AE00E94E8304CE0ED
:102980005FE760E00AE51AE00E941C2E41E024E8BF
:1029900038E0E1E3F2E06081718107E1079F102DEB
:1029A000069F110D200D311F0AE51AE00E947F2FAE
:1029B00023E334E00AE51AE00E94E32D2EEA37E033
:1029C000E1E3F2E04081518107E1059F102D049F72
:1029D000110DE02DF12FEC57F74F008112E0019F10
:1029E000200D311D0AE51AE00E94E830EEE6F8E01D
:1029F000A1E3B2E00D911D91202F07E1019F102D61
:102A0000029F110DE00DF11F068912E0019FD00118
:102A1000A255B84F0D911C9120813181021B130BDF
:102A20000883198332F408811195019510400883B9
:102A3000198344E35FE760E00AE51AE00E941C2E78
:102A40009E010AE51AE00E94E8304CE35CE760E092
:102A50000AE51AE00E941C2EE1E3F2E020813181B8
:102A600007E1039F102D029F110DE02DF12FE0597A
:102A7000F74F0081002321F44CE25DE760E003C0E2
:102A800044E55DE760E00AE51AE00E941C2E44E69A
:102A90005CE760E00AE51AE00E941C2E40E021E7B6
:102AA00038E0E1E3F2E06081718107E1079F102DDA
:102AB000069F110D200D311F0AE51AE00E947F2F9D
:102AC0004CE85CE760E00AE51AE00E941C2EE1E3B6
:102AD000F2E02081318107E1039F102D029F110D4B
:102AE000E02DF12FEE58F74F0081002339F444E038
:102AF0005DE760E00AE51AE00E941C2EE1E3F2E0E7
:102B00002081318107E1039F102D029F110DE02DDF
:102B1000F12FEE58F74F0081013039F444EB5CE7B8
:102B200060E00AE51AE00E941C2EE1E3F2E0208159
:102B3000318107E1039F102D029F110DE02DF12F30
:102B4000EE58F74F0081023039F44CED5CE760E05D
:102B50000AE51AE00E941C2E44E35AE760E00AE509
:102B60001AE00E941C2E4CEA5AE760E00AE51AE0DF
:102B70000E941C2E23E738E0E1E3F2E0408151811E
:102B800007E1059F102D049F110D200D311F0AE54F
:102B90001AE00E94E83044ED5AE760E00AE51AE0E6
:102BA0000E941C2E25E738E0E1E3F2E040815181EC
:102BB00007E1059F102D049F110D200D311F0AE51F
:102BC0001AE00E94E8304CEF5AE760E00AE51AE0AC
:102BD0000E941C2E27E738E0E1E3F2E040815181BA
:102BE00007E1059F102D049F110D200D311F0AE5EF
:102BF0001AE00E94E83044E25BE760E00AE51AE090
:102C00000E941C2E29E738E0E1E3F2E04081518187
:102C100007E1059F102D049F110D200D311F0AE5BE
:102C20001AE00E94E83044E75BE760E00AE51AE05A
:102C30000E941C2E40E02BE738E0E1E3F2E06081E7
:102C4000718107E1079F102D069F110D200D311F87
:102C50000AE51AE00E94DB2E4CE95BE760E00AE53A
:102C60001AE00E941C2E40E02DE738E0E1E3F2E09C
:102C70006081718107E1079F102D069F110D200DC6
:102C8000311F0AE51AE00E94DB2E44EF5DE760E0A9
:102C90000AE51AE00E941C2E40E02FE738E0E1E34D
:102CA000F2E06081718107E1079F102D069F110DF1
:102CB000200D311F0AE51AE00E94DB2E4CE15EE791
:102CC00060E00AE51AE00E941C2E21E838E0E1E30A
:102CD000F2E04081518107E1059F102D049F110D05
:102CE000200D311F0AE51AE00E94E8304CEB5EE748
:102CF00060E00AE51AE00E941C2E40E021E937E07E
:102D0000E1E3F2E000801180000C111C200D311D68
:102D10000AE51AE00E947F2F44EE5EE760E00AE5D4
:102D20001AE00E941C2E40E022E937E0E1E3F2E0E5
:102D300000801180000C111C200D311D0AE51AE0E5
:102D40000E947F2F2296A991B99108951D0140E01C
:102D5000602F70E001E718E027E1269F000D111DAC
:102D600020917108222339F4F8012285E62FF0E042
:102D7000E557F84F2383F80120812A9529F02A95F9
:102D800029F02A9529F005C041E003C042E001C0C6
:102D900044E09B01220F331FEBE8F7E0E20FF31F43
:102DA00056815417A1F02BE837E0260F371F552323
:102DB00039F4D90113965C91552349F4468301C037
:102DC0007683D8011A960D91D90113960C9306813A
:102DD000ECE3F9E000837183D10108959A938A931B
:102DE000E8EAF5E040815181452B61F000917B08D4
:102DF000EBE8F7E0038300917D08048300917F08EE
:102E000005839CC04091840852E0459FF001E05644
:102E1000F84F46855785EEE6F8E060817181461BE4
:102E2000570B413060E056072CF0EBE8F7E071817A
:102E300077234AF055234AF4EBE8F7E0808191814B
:102E40008130904014F061E002C0EBE8F7E062836B
:102E500040835183BA01E091250855234AF45195E6
:102E600041955040BA01EE2329F460E070E002C0C1
:102E7000E130D9F340918308442309F05FC04091C9
:102E80007008442309F058C040917108442339F078
:102E90004A9591F04A95D9F04A9551F13FC0E3E740
:102EA000F8E000811181E5E7F8E020813181E7E772
:102EB000F8E02080318032C0E3E7F8E00081118142
:102EC000E9E7F8E020813181021B130BECCFE9E741
:102ED000F8E040815181E3E7F8E000811181041BB3
:102EE000150BE5E7F8E020813181241B350BDFCF9E
:102EF000E9E7F8E040815181E3E7F8E000811181E2
:102F0000041B150BE5E7F8E020813181241B350B0C
:102F1000E7E7F8E020803180241A350A40E06017A6
:102F200071077CF06217730764F441E06215730562
:102F30000CF043E04093710800E008DF899199911B
:102F400008956217730794F3621573057CF742E0E6
:102F5000F1CF219700E008832AE334E00AE51AE084
:102F60000E94E32D0EE8088341E050E09E010AE054
:102F70004ED00AE0088341E050E09E0109E047D0CE
:102F80000AE1088341E050E09E010BE040D041E0BF
:102F900050E09E0101E049D008810F73088341E0B1
:102FA00050E09E0101E00DC0219741E050E09E01FC
:102FB0000BE03BD00881077E088341E050E09E0192
:102FC0000BE025D021960895219741E050E09E0125
:102FD0000BE02BD008810861EFCFB80189012AE905
:102FE00037E0F90170836183642FA80112E002EADF
:102FF0000C94F31BB80189012AE937E0F9017083C9
:103000006183642FA80112E002EA0C94631C602F14
:1030100089012AE937E0F901608360E06183642F68
:10302000A80111E002ED0C94F31B602F89012AE93D
:1030300037E0F901608360E06183642FA80111E04B
:1030400002ED0C94631CAA939A938A932497902F71
:10305000A12F822F4AE00E945F34102F1295107F1B
:103060002AE0029F092F0019912F902B4AE00A2F86
:103070000E945F34102F1295107F029F0A2F0019B3
:10308000A12FA02B4AE0082F0E945F34102F129529
:10309000107F029F8019182B1983AA839B8302E05B
:1030A000088341E050E09E0100E0B1DF43E050E0E2
:1030B0009E012F5F3F4F02E0AADF00E0088341E05E
:1030C00050E09E01A4DF249689919991A9910895D9
:1030D000BA93AA939A938A932597802FB12F922F10
:1030E000A32F043608F080E01D3008F0B0E0203255
:1030F00008F090E0383008F0A0E04AE0082F0E9485
:103100005F34102F1295107F2AE0029F082F0019BC
:10311000812F802B4AE00B2F0E945F34102F1295D5
:10312000107F029F0B2F0019B12FB02B4AE0092FFF
:103130000E945F34A983102F1295107F029F90196F
:10314000192B1A83BB838C8302E0088341E050E093
:103150009E0100E05CDF44E050E09E012F5F3F4FA6
:1031600005E055DF00E0088341E050E09E014FDFBD
:10317000259689919991A991B9910895BA93AA93A5
:10318000219701E0088341E050E09E0100E03FDF2D
:10319000A3E9B7E047E050E09D0102E046DF00E030
:1031A000088341E050E09E0132DF1C9112951F70B0
:1031B0000AE0109F0C910F70000E0D920C91202FC1
:1031C00022952F701AE0219F0F70000E0D920C9126
:1031D000202F22952F70219F0F70000E0D920C91C1
:1031E000202F22952F70219F0F70000E0D920C91B1
:1031F000202F22952F70219F0F70000E0D920C91A1
:10320000202F22952F70219F0F70000E0D920C9190
:10321000202F22952F70219F0F70000E0C92169771
:103220000EE118E0FD0147E050E00E9415372196BD
:10323000A991B99108952197ECE9F5E000811181F8
:10324000012B59F408EE13E0008311830AE0088390
:1032500041E050E09E0109E0DADE219608955A929D
:103260004A92BA93AA939A938A932797002339F0A4
:103270000A9509F442C00A9509F46FC032C02901C9
:1032800005EE10E00B831C831D831E838E010F5FF0
:103290001F4F0E949B1380E090E0A0E0B0E013C0BD
:1032A00041E050E09E018201080F191FA3DEAE012C
:1032B0004F5F5F4F21E030E08E010E94A8138F5FC7
:1032C0009F4FAF4FBF4F0B811C812D813E818017D7
:1032D0009107A207B30720F38E010F5F1F4F0E94D3
:1032E000A01309811A8120E030E0279689919991F5
:1032F000A991B9914990599008950EE710E00B8378
:103300001C831D831E838E010F5F1F4F0E949B1322
:1033100080E090E0A0E0B0E00B811C812D813E8137
:1033200080179107A207B307B8F661E070E0AE011D
:103330008C019D01005011422E4F3F4F0E94BB1A3D
:10334000AE014F5F5F4F21E030E08E010E94A81375
:103350008F5F9F4FAF4FBF4FDFCF64E070E0AE0194
:103360004D5F5F4F08E71FED21E030E00E94BB1A80
:103370008E010F5F1F4F0E949B1380E090E0A0E042
:10338000B0E00B811C812D813E8180179107A2073F
:10339000B30708F0A1CF61E070E0AE018C019D01A0
:1033A000005010402F4F3F4F0E94BB1AAE014F5F9D
:1033B0005F4F21E030E08E010E94A8138F5F9F4F86
:1033C000AF4FBF4FDECF949A08959498089540E090
:1033D00050E00056194020403040C1F100561940DD
:1033E0002040304089F1005C12412040304051F1D2
:1033F000005C12412040304019F1005C1241204035
:103400003040E1F00058154220403040A9F000580B
:1034100015422040304071F000501B4420403040A5
:1034200039F00050114E2040304091F445E010C07A
:103430004BE00EC041E10CC047E10AC043E208C0C6
:103440004FE206C047E404C04FE802C04FE151E03C
:103450008C9A9498509398004093990008E90093AF
:103460009A000EE000939D0000E200939C000895F6
:103470009A938A93FA93EA933A922A921A920A9228
:103480007A936A935A934A933A932A931A930A9394
:103490008FB79BB70E9427059BBF8FBF09911991DA
:1034A000299139914991599169917991099019908E
:1034B00029903990E991F991899199911895009302
:1034C0009C00089500919C00089500919B0006FFC8
:1034D00002C001E0089500E0089500919B0000649F
:1034E00000939B0008950BB30F600BBB0AB3007FE2
:1034F0000ABB1F98179A0895C99B02C001E008955E
:1035000000E00895C89B02C001E0089500E008951E
:10351000CB9B02C001E0089500E00895CA9B02C061
:1035200001E0089500E0089500E00FBD09E00EBD40
:1035300000E000937A0003E31BE21BBD0ABD00E03C
:103540000DBD0CBD07B7006107BF08959A938A931C
:10355000FA93EA933A922A921A920A927A936A9387
:103560005A934A933A932A931A930A938FB79BB725
:103570000E94533291CF192E282E80E0062E072A62
:1035800069F090E0F801E80FF91F2BBF0690FA01EF
:103590000192AF0183958617970798F3822D912D9D
:1035A0000895AC01C90103C021938F010196FC016C
:1035B00030E03BBF26912223F801B1F73083CA01E6
:1035C000089540E050E00056194020403040C1F1DD
:1035D000005619402040304089F1005C12412040E3
:1035E000304051F1005C12412040304019F1005C44
:1035F000124120403040E1F0005815422040304058
:10360000A9F0005815422040304071F000501B4492
:103610002040304039F00050114E2040304091F4AD
:1036200045E010C04BE00EC041E10CC047E10AC0CC
:1036300043E208C04FE206C047E404C04FE802C0BE
:103640004FE151E05093900049B908E10AB90EE00A
:103650000093950000E20CB908955F9B02C001E061
:10366000089500E008955E9B02C001E0089500E027
:1036700008955E9A08950CB908950CB10895EAE58D
:10368000FAE0008300E001830C94841301E005BF9D
:1036900000E005BF08E101BD00E001BD009374003A
:1036A000089508E101BD08E001BDFFCF0E941B198C
:1036B000A8950895AF980895AF9A08951F9A089510
:1036C0001F98089578940895DF9AD79A07B30760F2
:1036D00007BBBB9808B3017F08BBC09A0BB30F7838
:1036E0000BBB0AB300670ABB02E50DB9089510E0F1
:1036F000202F235020F029F02A9541F003C0102FED
:1037000001C015E010FB16F4DE9A01C0DE9801FB43
:1037100016F4DD9A01C0DD9802FB16F4DC9A0895D8
:10372000DC980895AA93F8940FB10FB1DF9800E0E8
:103730000FB9779BFECF0FB1A02F00E00FB9779B99
:10374000FECF0FB140E020E030E0E9E0F7E0008399
:10375000A183228323831A2F16950795DF9A7894E5
:103760001F70E0EEF6E0008311830E944D3550EFAC
:103770006FE775E40E947B3640E050E46CE176E44C
:103780000E9402360E944F35EEEDF6E00083118371
:10379000A9910895209171002E7F209371002091AE
:1037A00071002D7F20937100A80103E31BE20E94AA
:1037B0007934003138F010E00051104042E050E020
:1037C0000E94913400937000089501C0A895009163
:1037D000740007FFFBCF089500E911E0DBDF04E090
:1037E0000093740008958A927A926A925A924A9249
:1037F000BA93AA939A938A93602E2901712EDA01C3
:10380000862E81E090E0009174000E7F009374009A
:10381000009174000F70006A00937400D6DF0EEF01
:10382000602260927300009174000F700068009332
:103830007400CBDF00917100087F083111F08EE336
:103840002CC0072D7A94002391F0F20101912F01F1
:1038500000937300009174000F700068009374006F
:10386000B4DF00917100087F083259F315C0082DAC
:103870008A94002399F0FD010191DF010093730008
:10388000009174000F700068009374009EDF009137
:103890007100087F083259F38DE39EEF00917400A8
:1038A0000F70006D009374000091740004FDFCCF54
:1038B0008C0189919991A991B991499059906990F8
:1038C0007990899008958A927A926A925A924A924D
:1038D000BA93AA939A938A93602E2901812EDA01D2
:1038E000762E81E090E0009174000E7F00937400CA
:1038F000009174000F70006A0093740066DF8820E6
:10390000D9F1062D0E7F00937300009174000F70A3
:1039100000680093740059DF00917100087F08313E
:1039200069F08EE39EEF009174000F70006D0093BC
:1039300074000091740004FDFCCFBACF082D8A9466
:10394000002399F0F20101912F010093730000917F
:1039500074000F7000680093740037DF00917100ED
:10396000087F083259F38CE3DDCF009174000F70AB
:10397000006A0093740029DF682A60927300009146
:1039800074000F700068009374001FDF00917100D5
:10399000087F003479F08EE39EEF0CC000E02F70BA
:1039A000022B00680093740010DF00917300FD018A
:1039B0000193DF01772009F4B6CF7A942091740047
:1039C00069F300E4ECCFBA93AA93A0EAB7E048E227
:1039D00050E020E030E08D010E94383706E00D9382
:1039E00008E00D9304E00D9301E00C93199605B3E4
:1039F000007C05BB04B3007C04BB08B30F7008BB9C
:103A000007B3006F07BB00916500077E0093650058
:103A10000091640008610093640003B1077E03B95C
:103A200002B1086102B9AF98A79A00E00D930C9318
:103A3000A991B9910895E0EAF7E0008500FF02C07E
:103A4000C49A01C0C498008501FF04C000916500BC
:103A5000006103C0009165000F7E00936500008542
:103A600002FF02C0C59A01C0C598008503FF02C0CD
:103A7000C69A01C0C698008504FF02C0C79A01C05B
:103A8000C798008505FF04C000916500086003C069
:103A900000916500077F00936500008506FF02C066
:103AA0001B9A01C01B98008507FF02C01C9A01C029
:103AB0001C9804819D9B02C00E7F01C0016004839D
:103AC00004819C9B02C00D7F01C0026004830481BD
:103AD0009B9B02C00B7F01C00460048304819A9BFE
:103AE00002C0077F01C0086004830481999B02C063
:103AF0000F7E01C0006104830481989B02C00F7D8A
:103B000001C00062048308950895089500E030E044
:103B1000E0EAF7E0008701870287038704870587CB
:103B2000E1EDF7E022E00083018305870687038744
:103B30000487B5962A95B9F7EDE2F8E00081118186
:103B40000D3221E012071CF4043D1E4F14F43083A3
:103B5000318337830895BA93AA939A938A93A0EAFC
:103B6000B7E04AE450E020E030E08D01085D1F4FEF
:103B70000E9438374FE250E020E030E08D010E58CF
:103B80001F4F0E9438374DE250E020E030E08D01B9
:103B90000F551F4F0E94383706E00C9308E0FD01D7
:103BA000018304E0028301E00383729622E008E8C7
:103BB00013E1019311932A95D1F7CD01899602E083
:103BC00010E0FC01129324E6FC012083118324EF12
:103BD00031E02483358322E32283138328EC268378
:103BE0001783128713871087118728EE33E0248705
:103BF000358711E016872EE130E02787308B2BE9DF
:103C0000218B328B10E0358B368B338B348B4AE033
:103C100057ED63E27CE3478B508F618F728F63EACD
:103C20007DE3438F548F658F768F23E2278F30A3F8
:103C30002EE531E021A332A313A385960A9501F660
:103C4000FD01E958FF4F358342E050E020E030E0CD
:103C50008D010E581F4F0E94383709E0FD01E958C9
:103C6000FF4F008308E0FD01E958FF4F018301E0A9
:103C7000FD01E958FF4F028302E0FD01E958FF4FC3
:103C8000038305E0FD01E958FF4F048301E0FD01D6
:103C9000E958FF4F068300E0FD01E958FF4F058F0B
:103CA00041E050E020E030E08D0109561F4F0E94B6
:103CB000383744E050E020E030E08D0108561F4FD7
:103CC0000E94383741E050E020E030E08D0104569A
:103CD0001F4F0E94383744E050E020E030E08D0173
:103CE00003561F4F0E9438370CED10E0FD01E253E0
:103CF000FF4F00831183FD01E253FF4F128301E068
:103D0000FD01E253FF4F0383FD01E253FF4F148394
:103D100005E0FD01E253FF4F058316830AE0FD0134
:103D2000E253FF4F0783108704E1FD01E253FF4F89
:103D30000187128702E0FD01E253FF4F03871487DA
:103D400001E0FD01E253FF4F0587168706E9FD01FB
:103D5000E253FF4F0787108BFD01E253FF4F018BAA
:103D6000128B05E0FD01E253FF4F038B148BFD0125
:103D7000E253FF4F158B01E0068B89919991A99130
:103D8000B99108959A938A93C8010E94D41745EE79
:103D900050E020EA37E08C010E94ED179C0100E022
:103DA0000E942F19ECE9F7E00083118342E050E014
:103DB0009F018B519F4F8C010E94ED170E94E417C9
:103DC0008991999108959A938A93ECE5FFE730E001
:103DD0003BBF8791969122E030E000E00E942F19CE
:103DE000E8E7FBE00083118342E050E02CE937E094
:103DF00007EE10E00E94FA17ECE9F7E0008111816C
:103E0000E8E7FBE0208131810217130709F481E024
:103E100020E031E000E00E942F19E8E7FBE000839A
:103E2000118342E050E02CE937E005EE11E00E94FA
:103E3000FA17ECE9F7E000811181E8E7FBE0208167
:103E400031810217130709F491E08130E9F44EE55E
:103E50005FE760E00AE51AE00E941C2E45EE50E0A4
:103E600020EA37E002E010E00E94FA17992309F0F7
:103E700047C000E011E086DF4EEF5FE760E00AE553
:103E80001AE00E941C2E3CC09130D1F44EE55FE751
:103E900060E00AE51AE00E941C2E45EE50E020EAA0
:103EA00037E000E011E00E94FA174EEA5FE760E0B9
:103EB0000AE51AE00E941C2E02E010E063DF20C039
:103EC00045EE50E020EA37E000E011E00E94FA17EA
:103ED0004EE950E860E00AE51AE00E941C2E4EEE22
:103EE00050E860E00AE51AE00E941C2E45EE50E022
:103EF00020EA37E002E010E00E94FA172CDE04D03E
:103F000005DE89919991089502E010E03BDF00E021
:103F100011E038CF64E070E046E858E007E61EEDB7
:103F200021E030E00E94BB1A41E050E025E838E093
:103F300001E10E94151825E534E00AE51AE00E9427
:103F4000E32D40E025E838E00AE51AE00E947F2FE3
:103F500000918508003218F000E00093850808956C
:103F600041E050E025E838E001E10C9407180E9498
:103F7000461B0E94941A0E94650F0E9407050E942A
:103F800051070E94E31C0E9446200E94841D0E944B
:103F9000EC1B0E94561B0E9447080E9422210E948F
:103FA00034140C94621BBA93AA93E1DF4EE450E8F8
:103FB00060E00AE51AE00E941C2E4EE351E860E042
:103FC0000AE51AE00E941C2E67E670E04AE55AE016
:103FD00000E01EED21E030E00E94BB1AF4DE9ADF23
:103FE0000E94851D0E94DE2C0E945B08AEE9B7E0AE
:103FF00001E0FD0101832CE534E00AE51AE00E94AE
:10400000E32D00ED17E0E8EAF5E0008311830E945C
:10401000561BE2EAF5E000811181012BA1F408EEC4
:1040200013E0008311830AEF10E0E0EBF5E000837A
:1040300011830E94BE180EE118E0E3E9F7E047E0C3
:1040400050E00E9415370E9477080E943314EAEA74
:10405000F5E000811181012B31F404E610E00083CA
:1040600011830E94EC070E941B1D0E948A0F0E9470
:1040700021210E94EE160C91002349F20091B60511
:10408000002329F641DF00E00C93C1CF0E94731A90
:10409000E0E6F4E000E007A703A705A70895BA93B8
:1040A000AA93A0E6B4E00E947C1A002331F008E253
:1040B000FD0102A300E006A329C0FD0106A1002323
:1040C00081F402A1002369F401E006A305E010E0F9
:1040D000E4EAF5E00083118300E213E00D931C9302
:1040E0001197FD0106A1023089F40D911C911197E1
:1040F000012B61F401E006A305E010E0E4EAF5E03D
:104100000083118308EC0D931C9311970E94821A6F
:10411000002331F008E2FD0103A300E007A329C05A
:10412000FD0107A1002381F403A1002369F401E04C
:1041300007A305E010E0E4EAF5E00083118300E264
:1041400013E00D931C931197FD0107A1023089F430
:104150000D911C911197012B61F401E007A305E07B
:1041600010E0E4EAF5E00083118308EC0D931C9362
:1041700011970E94881A002331F008E2FD0104A380
:1041800000E000A729C0FD0100A5002381F404A1DF
:10419000002369F401E000A705E010E0E4EAF5E09F
:1041A0000083118300E213E00D931C931197FD012E
:1041B00000A5023089F40D911C911197012B61F437
:1041C00001E000A705E010E0E4EAF5E000831183D8
:1041D00008EC0D931C9311970E948E1A002331F066
:1041E00008E2FD0105A300E001A728C0FD0101A52B
:1041F000002381F405A1002369F401E001A705E093
:1042000010E0E4EAF5E00083118300E213E00D938F
:104210001C931197FD0101A5023081F40D911C91B1
:104220001197012B59F401E001A705E010E0E4EA41
:10423000F5E00083118308EC0D931C93A991B991CB
:1042400008950895BA93AA931C0160E042E55AE0EC
:104250002AE23AE002E31AE0AEE3BAE089EC97E042
:10426000FC0162937CED1124FC01768317827CE3D0
:104270007787108A77EE072E73E00486758712869B
:10428000138676E9718B128A138A148A158A168A24
:1042900074E6708311827283138274EF072E71E0CB
:1042A000048275831686F90111921192119211926E
:1042B0009F01F80111921192119211928F01FA014E
:1042C00011921192AF011D921D921D921D92639544
:1042D0008596623028F2C101A991B9910895FA92A8
:1042E000EA92DA92CA92BA92AA929A928A927A92AE
:1042F0006A925A924A92BA93AA939A938A932D9762
:1043000000913408013009F41BC208E1C02E0AE014
:10431000D02E8601065C1F4F09831A8386010E5C2E
:104320001F4F0D831E838601025D1F4F0F83188769
:1043300086010A5C1F4F09871A8786010E5D1F4F91
:104340000B871C8786010A5D1F4F0B831C83760138
:1043500002E1E00E00E0F01EA9ECB7E002E0088305
:10436000FD010685013019F0033009F09BC18681FB
:104370009781029112E0019FF001E056F84F068507
:104380001785801B910BFD0103A1013019F4919554
:10439000819590408C01292F220F220B322F0E94F1
:1043A0004235280139010D911C911197212F220FBF
:1043B000220B322F0E944235A201B3010E94023625
:1043C00040E050E068EC72E40E947B36F601048322
:1043D000158326833783E981FA81208131818C011D
:1043E000021B130B212F220F220B322F0E9442356A
:1043F00028013901F6010487158726873787E98167
:10440000FA818083918340E050E06CE772E4EB81B5
:10441000FC8100811181228133810E940236480192
:104420005901FD0104811581212F220F220B322F0A
:104430000E944235A201B3010E940236A401B501D7
:104440000E94A13540E050E060E872E40E947B36B3
:10445000EB81FC810083118322833383F60104877F
:1044600015872687378741E050E06AEF76E40E949F
:104470000D3728F040E076EC0E94F53628F4F6017E
:104480005487558766877787F60184849584A68448
:10449000B784840195010E944F35E8E1008B118BB0
:1044A00020E030E02083218322832383FD010785E0
:1044B00010890E944D35A801B90100E010E020E00C
:1044C00030E00E947B3628013901FD010281138111
:1044D000212F220F220B322F0E944235A201B3015D
:1044E0000E94023640E050E068EC72E40E947B36A5
:1044F00028013901F601008711872287338740E0C0
:1045000050E060E271E404811581268137810E94C8
:1045100002360E944F35C801ED81FE810083118370
:1045200040E050E060E271E4820193010E940236B3
:104530000E944F352801EF81F8850083118340E008
:1045400050E060E271E4840195010E9402360E940D
:104550004F35E985FA8500831183840D951D080F79
:10456000191F212F220F220B322F0E9442354801A2
:10457000590140E050E060E070E00E94F53628010B
:10458000390110F400E87026FD01078D10A120E02C
:1045900030E00E944D35A801B901820193010E94CB
:1045A000F53628F488249924AA24BB2437C0FD01B9
:1045B00001A112A120E030E00E944D35A801B9010F
:1045C000820193010E94F536FD0128F40788108CC2
:1045D000218C328C04C0038C148C258C368CF70112
:1045E000408051806280738041E050E060E070E084
:1045F0003B2D0E940D3738F4A201B30180019101D7
:104600000E94A13506C0A001B101820193010E9460
:10461000E535F701008311832283338384019501FB
:104620000E944F35EB85FC8500831183F7014080A4
:10463000518062807380820193010E944F35C801CE
:10464000212F220F220B322F0E944235A801B901DF
:10465000820193010E94E535F701008311832283D3
:104660003383FD0100851185080F191F008711870D
:104670000085083E23E013401CF007EE00872187E9
:1046800002851385208531852017310714F40087B2
:10469000118704851585208531850217130714F4C9
:1046A00000871187FB2F0085118523893489021B20
:1046B000130B98011AF4319521953040223040E0D7
:1046C00030407CF0202F212B61F0013014071CF0CA
:1046D00021E0258B01C0458B112322F401E0068BDC
:1046E00002C0458B468B959604E0E00EF41E0B81CC
:1046F0001C810C5F1F4F0B831C830B851C850E5F79
:104700001F4F0B871C8709851A850E5F1F4F09876E
:104710001A870F8118850E5F1F4F0F8318870D8131
:104720001E810E5F1F4F0D831E8309811A810E5F4C
:104730001F4F09831A8308810A95088309F010CE58
:104740002D9689919991A991B99149905990699023
:10475000799089909990A990B990C990D990E99051
:10476000F9900895E1E3F2E0008111812281338123
:10477000023010402040304078F40481158140819F
:10478000518125E2259F302D249F310DE02DF32FFF
:10479000E056F84F07A710AB0895E1E3F2E000817F
:1047A000118122813381023040E0140720403040E3
:1047B00060F44481202F05E2019F102D029F110D0E
:1047C000E02DF12FE056F84F47AB0895E1E3F2E01A
:1047D000008111812281338102301040204030401D
:1047E00078F4048115814081518125E2259F302D87
:1047F000249F310DE02DF32FE056F84F03AB14AB9F
:104800000895E1E3F2E000811181228133810230D9
:1048100010402040304078F404811581408151815E
:1048200025E2259F302D249F310DE02DF32FE056FA
:10483000F84F05AB16AB0895E1E3F2E0008111817A
:1048400022813381023010402040304078F40481CE
:1048500015814081518125E2259F302D249F310D06
:10486000E02DF32FE056F84F01AB12AB0895E1E3D2
:10487000F2E000811181228133810230104020401A
:10488000304078F4048115814081518125E2259FD3
:10489000302D249F310DE02DF32FE056F84F05A762
:1048A00016A70895E1E3F2E00081118122813381AE
:1048B000023010402040304078F40481158140815E
:1048C000518125E2259F302D249F310DE02DF32FBE
:1048D000E056F84F03A714A70895E1E3F2E0008142
:1048E000118122813381023010402040304078F421
:1048F000048115814081518125E2259F302D249F1F
:10490000310DE02DF32FE056F84F01A712A70895BF
:10491000E1E3F2E00081118122813381023040E045
:1049200014072040304060F44481202F05E2019FAD
:10493000102D029F110DE02DF12FE056F84F40A7EA
:104940000895BA93AA93A1E3B2E00D911D912D9120
:104950003C911397023040E0104020403040E0F49A
:10496000FD0104811581268137810E944D3550E07B
:104970006AE774E40E947B364D915D91642F45E2B5
:10498000459F502D469F510DE02DF52FE052F84FD9
:104990000083118322833383A991B9910895BA9337
:1049A000AA93A1E3B2E00D911D912D913C91139733
:1049B000023040E0104020403040E0F4FD0104812E
:1049C0001581268137810E944D3550E06AE774E4F5
:1049D0000E947B364D915D91642F45E2459F502D9D
:1049E000469F510DE02DF52FEC51F84F00831183B8
:1049F00022833383A991B9910895E1E3F2E0008124
:104A0000118122813381023010402040304078F4FF
:104A1000048115814081518125E2259F302D249FFD
:104A2000310DE02DF32FE851F84F008311830895E5
:104A3000E1E3F2E0008111812281338102301040F4
:104A40002040304078F4048115814081518125E275
:104A5000259F302D249F310DE02DF32FE651F84F87
:104A6000008311830895E1E3F2E000811181228146
:104A70003381023040E014072040304060F444812C
:104A8000202F05E2019F102D029F110DE02DF12F27
:104A9000E451F84F408308950E94841F48ED52E886
:104AA00060E00AE51AE00C941C2E04E610E0E4EA4B
:104AB000F5E00083118308959A928A927A926A921D
:104AC0005A924A92BA93AA93D80100E010E020E0EB
:104AD00030E0FD016681762F737041E050E0458043
:104AE000552416C0FA01E557FA4F0080000D151D38
:104AF000251D351D772339F44130550521F40F5F0D
:104B00001F4F2F4F3F4F4F5F5F4F4D30550548F4BC
:104B10004416550639F7FD010480000D151D251DAD
:104B2000351D48E050E0693038F170E0862E992458
:104B3000E8EF8E0EEFEF9E1EEDE64E2EE1E05E2ECC
:104B40007724692C589C502C499C500C611C751E74
:104B5000489C510C651E751E000D151D261D371D28
:104B6000E42FE37021F40F5F1F4F2F4F3F4F4F5F34
:104B70005F4F46175707A0F32801390147E050E07F
:104B800060E070E00E94BD3447E02224439F702D16
:104B9000429F602D710D419F502D610D721D409FF0
:104BA000510D621D721D820193010019150B260B18
:104BB000370B0F5F1F4F2F4F3F4F083010402040E3
:104BC000304008F00750FD010383A991B991499045
:104BD0005990699079908990999008952797B80194
:104BE0008E01FB0147E050E00E94153721E934E0D7
:104BF0000AE51AE00E94E32D60E352E040E09E01E6
:104C00002C5F3F4F0AE51AE00E94DA2F25E934E0D5
:104C10000AE51AE00E94E32D44E851E860E02D81A6
:104C20000AE0029F400D511D0AE51AE00E941C2E69
:104C300027E934E00AE51AE00E94E32D60E352E040
:104C400040E09E012A5F3F4F0AE51AE00E94DA2FFA
:104C50002BE934E00AE51AE00E94E32D8E012CDFF7
:104C60004CEF51E860E0202F0AE0029F400D511DFB
:104C70000AE51AE00E941C2E2EE934E00AE51AE04B
:104C80000E94E32D60E352E040E09E012E5F3F4F23
:104C90000AE51AE00E94DA2F25EA34E00AE51AE074
:104CA0000E94E32D60E352E040E09E012F5F3F4F02
:104CB0000AE51AE00E94DA2F25EA34E00AE51AE054
:104CC0000E94E32D60E352E040E09E010AE51AE015
:104CD0000E94DA2F27960895BA93AA938A9322976F
:104CE0000EE118E07BDF48E950E960E00AE51AE0F0
:104CF0000E941C2E40E025E838E00AE51AE00E94F8
:104D00007F2F48EA5FE860E00AE51AE00E941C2E67
:104D100000912508002321F448EF5FE860E003C01C
:104D200048E450E960E00AE51AE00E941C2E48E7DA
:104D300053E860E00AE51AE00E941C2E48EC53E8B4
:104D400060E00AE51AE00E941C2E48E154E860E0A9
:104D50000AE51AE00E941C2E80E0E0EAF7E02481D8
:104D60003581482F01E010E00E946D34202331236B
:104D7000232B19F027EA34E002C02AEA34E00AE5DE
:104D80001AE00E94E32D8395863038F348E654E814
:104D900060E00AE51AE00E941C2E80E0E0EAF7E0FD
:104DA00020853185482F01E010E00E946D342023DA
:104DB0003123232B19F027EA34E002C02AEA34E039
:104DC0000AE51AE00E94E32D8395883038F348EB1A
:104DD00054E860E00AE51AE00E941C2EAEEAB7E053
:104DE00084E00D911D91088319839E010AE51AE064
:104DF0000E94E83025E934E00AE51AE00E94E32D3C
:104E00008A9579F748E055E860E00AE51AE00E94E3
:104E10001C2E2CEA37E00AE51AE00E94803125E9D1
:104E200034E00AE51AE00E94E32D22968991A991C7
:104E3000B9910895BA93AA938A9348E456E860E03A
:104E40000AE51AE00E941C2E0091070A013039F48D
:104E500048E956E860E00AE51AE00E941C2E00913D
:104E6000070A002339F448EE56E860E00AE51AE044
:104E70000E941C2E48E851E960E00AE51AE00E9411
:104E80001C2E80E0AEEEB8E0082F077039F448ED34
:104E900051E960E00AE51AE00E941C2E71E065E02D
:104EA00055E040E09D010AE51AE00E94413025E905
:104EB00034E00AE51AE00E94E32D839512968431CE
:104EC00018F348EC52E960E00AE51AE00E941C2E53
:104ED00080E0A6E1B9E0082F077039F448ED51E908
:104EE00060E00AE51AE00E941C2E71E065E055E0E2
:104EF00040E09D010AE51AE00E94413025E934E0D6
:104F00000AE51AE00E94E32D83951296843118F386
:104F100048E252E960E00AE51AE00E941C2E80E0B7
:104F2000AEE3B9E0082F077039F448ED51E960E0CD
:104F30000AE51AE00E941C2E70E063E058E041E0B0
:104F40009D010AE51AE00E94413025E934E00AE5B6
:104F50001AE00E94E32D83951496843118F348E7F4
:104F600052E960E00AE51AE00E941C2E80E0A2E906
:104F7000B9E0082F077039F448ED51E960E00AE51F
:104F80001AE00E941C2E70E063E058E041E09D01B1
:104F90000AE51AE00E94413025E934E00AE51AE00A
:104FA0000E94E32D83951496883018F38991A99176
:104FB000B991089522972DEA34E00AE51AE00E949B
:104FC000E32D00E00883288109E0029FF001EF5BF8
:104FD000F74F00811181012B09F4B8C028EB34E0B0
:104FE0000AE51AE00E94E32D40E09E010AE51AE07E
:104FF0000E947F2F2FEB34E00AE51AE00E94E32D98
:1050000022EC34E00AE51AE00E94E32D288109E051
:10501000029FF001EF5BF74F0181098360E352E0EB
:1050200041E09E012F5F3F4F0AE51AE00E94DA2F10
:10503000288109E0029FF001EF5BF74F00810983AF
:1050400060E352E041E09E012F5F3F4F0AE51AE026
:105050000E94DA2F25E934E00AE51AE00E94E32DE8
:1050600060E352E040E027E438E0288009E0029D58
:10507000200D311D0AE51AE00E94DA2F28EC34E0F9
:105080000AE51AE00E94E32D47E452E860E0288137
:1050900009E0029FF001E85BF74F208105E0029FE5
:1050A000400D511D0AE51AE00E941C2E27E934E04C
:1050B0000AE51AE00E94E32D60E352E040E029E4B3
:1050C00038E0288009E0029D200D311D0AE51AE034
:1050D0000E94DA2F25E934E00AE51AE00E94E32D68
:1050E00060E352E040E025E438E0288009E0029DDA
:1050F000200D311D0AE51AE00E94DA2F2CEC34E075
:105100000AE51AE00E94E32D60E352E040E024E467
:1051100038E0288009E0029D200D311D0AE51AE0E3
:105120000E94DA2F2CEC34E00AE51AE00E94E32D0D
:1051300060E352E040E023E438E0288009E0029D8B
:10514000200D311D0AE51AE00E94DA2F088103952F
:105150000883053008F437CF229608955A924A9270
:10516000BA93AA939A938A932297402E48E357E8DA
:1051700060E00AE51AE00E941C2E48E15EE860E06B
:105180000AE51AE00E941C2E552405E2049D80EADF
:1051900097E0800D911DDC0198962EEA37E00C9186
:1051A00012E0019F200D311D0AE51AE00E94E8304F
:1051B00048E857E860E00AE51AE00E941C2E9C01CE
:1051C000215D3F4F0AE51AE00E94E83048ED57E8BC
:1051D00060E00AE51AE00E941C2EFD01078500230D
:1051E00039F00A9541F00A9561F00A9539F00FC03F
:1051F0002EEC34E008C027ED34E005C02FED34E09C
:1052000002C027EE34E00AE51AE00E94E32D48E2EE
:1052100058E860E00AE51AE00E941C2E41E09D017A
:105220000AE51AE00E947F2F21EF34E00AE51AE038
:105230000E94E32D48E758E860E00AE51AE00E9482
:105240001C2E9C01275D3F4F0AE51AE00E94382F73
:1052500048E159E860E00AE51AE00E941C2E9C0132
:10526000255D3F4F0AE51AE00E94382F48EC58E8C8
:1052700060E00AE51AE00E941C2E9C01235D3F4F6E
:105280000AE51AE00E94382F48E659E860E00AE58E
:105290001AE00E941C2E40E09C01285C3F4F0AE56A
:1052A0001AE00E94DB2E48E95BE860E00AE51AE0BC
:1052B0000E941C2E9C012D5C3F4F0AE51AE00E94C3
:1052C000803148EE5BE860E00AE51AE00E941C2E9F
:1052D0009C012B5C3F4F0AE51AE00E94803148E3B5
:1052E0005CE860E00AE51AE00E941C2E9C012F5C3D
:1052F0003F4F0AE51AE00E94803148ED5CE860E02B
:105300000AE51AE00E941C2E40E09C01265C3F4FFB
:105310000AE51AE00E94DB2E48E25DE860E00AE55B
:105320001AE00E941C2E9C01245C3F4F0AE51AE003
:105330000E94803148E75DE860E00AE51AE00E94DB
:105340001C2E40E09C01225C3F4F0AE51AE00E94BF
:105350007F2F48EC5DE860E00AE51AE00E941C2E11
:1053600040E0CF969C010AE51AE00E947F2FFD01E4
:10537000008D118D228D338D40E050E06AE774E49A
:105380000E9402360E944F350883198348EB5EE87D
:1053900060E00AE51AE00E941C2E40E09E010AE54A
:1053A0001AE00E94DB2EFD01048D158D268D378DB0
:1053B00040E050E06AE774E40E9402360E944F35F4
:1053C0000883198348E05FE860E00AE51AE00E947C
:1053D0001C2E40E09E010AE51AE00E94DB2EFD0132
:1053E00000A111A10883198348EE50E960E00AE5A5
:1053F0001AE00E941C2E40E09E010AE51AE00E947D
:10540000DB2EFD0102A113A10883198348E351E9B2
:1054100060E00AE51AE00E941C2E40E09E010AE5C9
:105420001AE00E94DB2E48E153E960E00AE51AE049
:105430000E941C2EFD0104A1002321F448E653E93B
:1054400060E003C048EB53E960E00AE51AE00E941F
:105450001C2E23EF34E00AE51AE00E94E32D26EF2C
:1054600034E00AE51AE00E94E32D440C551C2AE4BE
:105470003AE0240D351D0AE51AE00E94382F21E09C
:1054800035E00AE51AE00E94E32D26E43AE0240D17
:10549000351D0AE51AE00E94382F2CE035E00AE5B8
:1054A0001AE00E94E32D2EE43AE0240D351D0AE5B2
:1054B0001AE00E94382F27E135E00AE51AE00E9441
:1054C000E32D2AE33AE0240D351D0AE51AE00E9497
:1054D000382F229689919991A991B9914990599023
:1054E0000895FACBE1E3F2E000811181228133815A
:1054F000023010402040304008F430CE23E235E046
:105500000AE51AE00C94E32D0895AA929A928A92E1
:105510007A926A925A924A92BA93AA939A938A93E7
:10552000A1E3B2E00D911D912D913C911397012BB8
:10553000022B032B49F00D91129613970130104066
:105540002040304009F06AC082EE96E0FD010481FF
:1055500015814D911296139722E0429FFC01E00DB8
:10556000F11D0083118326E335E00AE51AE00E946D
:10557000E32D0D911296139712E0019F800D911D5E
:105580009C010AE51AE00E94E8302FE435E00AE5C4
:105590001AE00E94E32D24E635E00AE51AE00E94B5
:1055A000E32D00E00E94771B442480E090E004E6B5
:1055B00010E00E9441340E94921BEEEDF6E0408123
:1055C00051810D9112961397202F06E0029FE6EE6F
:1055D000F6E0E00DF11DE80FF91F40835183042D23
:1055E00003950E94771B0D9112961397202F06E0CA
:1055F000029F26EE36E0200D311D280F391F0AE5E7
:105600001AE00E94E8302AE635E00AE51AE00E9436
:10561000E32D4394029603E0401648F20D911D914C
:105620002D913C911397013040E010402040340709
:1056300009F04FC0E2EEF6E0028113812081318152
:10564000021B130B212F220F220B322F0E944235F7
:10565000C801D9010CEE602E06E0702E06EE402E39
:1056600006E0502E06EB802E07E0902E03E0A02EE1
:10567000F30100811181F20120813181021B130BA2
:10568000212F220F220B322F0E94423540E050E0A2
:1056900060E87FE30E94F53620F400E010E020E8A7
:1056A0003FE3A801B9018C019D010E947B36F40102
:1056B00001931193219331934F0102E0400E00E0DA
:1056C000501E02E0600E00E0701EAA9409F495C01E
:1056D000CFCF11961D912D9113970230104020408D
:1056E000304009F08AC0FD0104811581E2EEF6E048
:1056F0000083118326E335E00AE51AE00E94E32DDA
:1057000022EE36E00AE51AE00E94E8302FE435E0A8
:105710000AE51AE00E94E32D24E635E00AE51AE0E6
:105720000E94E32D00E00E94771B4424A6EEB6E021
:1057300006EB602E07E0702E04E610E00E94413474
:105740000E94921BEEEDF6E000811181212F220FC5
:10575000220B322F0E944235F30141915191619108
:1057600071913F010E9402360E944F350D931C93A8
:105770001197042D03950E94771B9D010AE51AE0FD
:105780000E94E8302AE635E00AE51AE00E94E32D9F
:105790004394129603E0401678F202EC17E0A6EE6E
:1057A000B6E023E0E2EEF6E0408151816D917D911B
:1057B000461B570BF801419351938F012A9591F79E
:1057C0002DE635E00AE51AE00E94E32D24E635E0F7
:1057D0000AE51AE00E94E32D82EC97E0A3E09C0129
:1057E0000AE51AE00E94E8302AE635E00AE51AE008
:1057F0000E94E32D0296AA9591F789919991A9911A
:10580000B991499059906990799089909990A9900F
:105810000895E1E3F2E000811181228133810330B8
:1058200000E010402040304038F048E65EE860E09C
:105830000AE51AE00C941C2E20E83FE340815181D8
:10584000440F551F440F551FFA01E056F84F068BC1
:10585000078B208F318FE1E3F2E040815181440FCB
:10586000551FFA01E056F84F02A303A30895E1E3A0
:10587000F2E031E02081148100850C946818E1E3A6
:10588000F2E02085148100810C94231801E000933C
:105890001C0803E00093B605089500E0F8CF4A9293
:1058A0008A93E1E3F2E08081118122813381082F24
:1058B00044244AE050E060E070E00E94BD34402F94
:1058C0000AE02224039F302D029F202D310D019FDD
:1058D000102D210D321D049F002D110D221D321D92
:1058E0008019442D50E041955040FA01EA5EF74F8F
:1058F00080834AE050E060E070E00E94BD34802F79
:10590000439445E04416A8F203E00093B60589915C
:10591000499008954A928A93E1E3F2E080811181EF
:1059200022813381082F44244AE050E060E070E097
:105930000E94BD34402F0AE02224039F302D029F95
:10594000202D310D019F102D210D321D049F002DA2
:10595000110D221D321D8019442D50E041955040FB
:10596000FA01E55EF74F80834AE050E060E070E0C6
:105970000E94BD34802F439445E04416A8F2C4CF62
:1059800000E0009330020895E1E3F2E0008111812C
:1059900022813381012B022B032B51F00081003136
:1059A00010402040304020F4009385080C94B01F34
:1059B00028E735E00AE51AE00C94E32D229700E091
:1059C0000093490720E030E001E00E942F19E8E74A
:1059D000FBE00083118362E070E0AE010EE71FED93
:1059E00021E030E00E94BB1A08811981E8E7FBE062
:1059F000208131810217130741F048EA5AE860E03C
:105A00000AE51AE00E941C2E33C020E030E002E0DC
:105A10000E942F19E8E7FBE00083118362E070E049
:105A2000AE010CE71FED21E030E00E94BB1A0881B7
:105A30001981E8E7FBE0208131810217130721F08B
:105A400048EF5AE860E0DCCF48E45BE860E00AE554
:105A50001AE00E941C2E67E670E04AE55AE000E07A
:105A60001FED21E030E00E94BB1A01E000934907DE
:105A70002296089548E054E960E00AE51AE00E94A1
:105A80001C2E40E354E960E00AE51AE00E941C2E57
:105A900000912508002321F448EF5FE860E003C08F
:105AA00048E450E960E00AE51AE00E941C2E48E54F
:105AB00054E960E00AE51AE00E941C2E00912608D5
:105AC000002321F440E255E960E003C048E455E9D1
:105AD00060E00AE51AE00E941C2E40E854E960E00C
