:100000000C942F33189518951895189518951895E0
:100010001895189518951895189518951895189578
:100020001895189518951895189518951895189568
:100030000C94751A18951895189518951895189583
:100040001895189518951895189518951895189548
:100050001895189518951895189518951895189538
:100060001895189518951895189518951895189528
:1000700018951895189518950C94091A18951895AF
:100080001895189518951895189518959A05B90604
:10009000B906B906A405B906B906B906B906B9067E
:1000A000B906B906B906B906B005B906B906B90662
:1000B000B906B9069A05C8050206D205DE05EA05A5
:1000C000F6050C061806B906240630063C06480656
:1000D00054065E06B906B906B906B9066A06B90637
:1000E000B90676067F068A06B906B906B906B906C4
:1000F0009F069506AB062D09340936093D094009CE
:100100004009670A670A670A2A09670A670A670ACD
:10011000670A670A670A670A670A670A450953098F
:100120005F0968097609AB098F099B09670AA50968
:10013000A809670AAB09B509C109E509DC09D309B2
:10014000CA09670A060A0D0A670ABA09EC09FF0913
:10015000140A670A1B0A220A2B0A310A370A3F0AC5
:10016000470A4F0A570A5F0A810988097F0AA80BC4
:10017000A80BA80BA80BA80BA80BA80BA80BA80BE7
:10018000850AA80B930AA80B9C0AF70AD70AE30A68
:10019000ED0AF10AF40AA80BF70A010B0D0B310B5B
:1001A000280B1F0B160BA80BA80BA80BA80B060BF4
:1001B000380B490B590BA80B600B670B6F0B750BBA
:1001C0007B0B830B8B0B930B9B0BA30BC90AD00AE6
:1001D000790C9A0CBD0CDF0C550C1E0D3F0D600DFB
:1001E000810DA10DC90DE70D060E1F0E370E500E25
:1001F000670E800E970EB70ED70EF80EBA93AA931D
:10020000A3E5B6E00AEA15E50D931C931197FD01ED
:1002100002811381007E20915308022B0F71107C04
:100220002091CA053091CB05207C3F73022B132B04
:100230000283138304E0018764E070E04DE556E03B
:1002400007E61EED21E030E00E948A1A67E070E0C8
:1002500041E656E00FE61EED21E030E00E948A1AEA
:1002600064E070E049E656E007E61FED21E030E08B
:100270000E948A1A67E070E04DE656E00FE61FED37
:1002800021E030E00E948A1A0AE716E00093B905DF
:100290001093BA050091E80700938306E2EDF7E0BA
:1002A0000CE716E047E050E00E94F7350091D907CF
:1002B00000937B06009126080093840600911E0897
:1002C00010911F08FD0102AB13AB0091AC07109118
:1002D000AD0704AB15AB0091170812E0019FF001C8
:1002E000E056F84F06851785FD0106AB17AB0FE208
:1002F000C0C1BA93AA93A3E5B6E00AEA15E50D9347
:100300001D930D911C911197007E20915308022B93
:100310000F71107C2091CA053091CB05207C3F7372
:10032000022B132B0D931C93139706E20093570691
:1003300046E250E020EA37E00CE516E00E940C3679
:100340008EC0BA93AA93402FA3E5B6E00AEA15E55A
:100350000D931D930D911C911197007E20915308D0
:10036000022B0F71107C2091CA053091CB05207CA7
:100370003F73022B132B0D931C93139705E20093ED
:100380005706442345E250E039F427E138E00CE514
:1003900016E00E940C3606C020E030E00CE516E0C6
:1003A0000E941A365CC0BA93AA93402FA3E5B6E028
:1003B0000AEA15E50D931D930D911C911197007E8E
:1003C00020915308022B0F71107C2091CA053091A7
:1003D000CB05207C3F73022B132B0D931C9313979B
:1003E00005E200935706442347E150E039F42CE33B
:1003F00038E00CE516E00E940C3606C020E030E044
:100400000CE516E00E941A362AC0BA93AA93A3E517
:10041000B6E00AEA15E50D931D930D911C91119715
:10042000007E20915308022B0F71107C2091CA0589
:100430003091CB05207C3F73022B132B0D931C9323
:10044000139703E10093570643E150E020E030E0CA
:100450000CE516E00E941A3602C0009357068D0183
:100460000E94F00615960D931C9316978D010E941D
:10047000160717960D931C93EBEBF5E001E0008354
:1004800000E00383068303E010E00093B4051093BB
:10049000B505A991B9910895BA93AA93A3E5B6E0D9
:1004A0000AEA15E50D931D930D911C911197007E9D
:1004B00020915308022B0F71107C2091CA053091B6
:1004C000CB05207C3F73022B132B0D931C931397AA
:1004D0000FE0009357064FE0B8CFBA93AA93A3E575
:1004E000B6E00AEA15E50D931D930D911C91119745
:1004F000007E20915308022B0F71107C2091CA05B9
:100500003091CB05207C3F73022B132B0D931C9352
:10051000139704E20093570644E250E023EF37E0DC
:100520000BCFBA93AA9329ED35E02093B905309308
:10053000BA052091E2052093E8072091DA0520937F
:10054000D9072091E30520932608E8ECF5E0248DF7
:10055000358D20931E0830931F08268D378D2093EC
:10056000AC073093AD0723E02093B605A3E5B6E0D2
:100570002AEA35E52D933C931197FD0122813381C1
:10058000207E40915308242B2F71307CE8ECF5E05D
:1005900002811381007C1F73202B312BFD012283EC
:1005A000338301E166C0BA93AA9308EC15E021ED0C
:1005B00035E02093B7053093B805E0EAF7E0D801BD
:1005C00051964D915D916D917C91408751876287E5
:1005D000738720E03381332391F032E0239FD801E9
:1005E000A00DB11D55964D915C91DF01A00DB11D7F
:1005F0001C964D935C9323953381231770F3A3E5E9
:10060000B6E02AEA35E52D933C931197FD0122814E
:100610003381207E40915308242B2F71307CF801C8
:1006200002811381007C1F73202B312BFD0122835B
:1006300033831EC003E00093B605A3E5B6E00AEAE3
:1006400015E50D931C931197FD0102811381007E26
:1006500020915308022B0F71107CE8ECF5E0228109
:100660003381207C3F73022B132BFD010283138304
:1006700000E004838D010E94F006FD0105831683CE
:100680008D010E941607FD0107831087F5CEBA93EE
:10069000AA930091D105002359F4E091CC05F0E034
:1006A0003197AF0122ED35E007E118E00E940C36EA
:1006B000C1CFBA93AA930091D105002359F4E091D8
:1006C000CC05F0E03197AF0122ED35E00CE318E006
:1006D0000E940C36AFCF3FC03EC0BA93AA93A3E5A9
:1006E000B6E00AEA15E50D931D930091CA05109135
:1006F000CB050D931C931197007E20915308022B7C
:100700000F712091CA05207C022B0D93139707E0EF
:100710000093570647E050E022ED37E00DCEBA9344
:10072000AA9347E050E021ED35E002ED17E00E948A
:100730000C3620E01091D3070091D4070E94CF1708
:100740003091D5072091D6071091D7070091D8078F
:100750000E94141802C0BA93AA93A3E5B6E00AEA6D
:1007600015E50D931D930D911C911197007E20911D
:100770005308022B0F71107C2091CA053091CB05D4
:10078000207C3F73022B132B0D931C93139700E0D7
:1007900064CEBA93AA936091D105643178F4009144
:1007A000D20512E0019FA00123ED35E00CEB18E02B
:1007B00072E0679F000D111D0E940C363ECFBA9368
:1007C000AA936091D1054091D205A3E5B6E00AEA6B
:1007D00015E50D931C931197FD0102811381007E95
:1007E00020915308022B0F71107C2091CA05309183
:1007F000CB05207C3F73022B132B02831383042F22
:10080000000F0483643160F402E0409FA00124EEF5
:1008100038E0609F200D311D0CE516E00E940C367B
:1008200029CFBA93AA9303E00093B60596CFBA9363
:10083000AA930091D1050093E807A3E5B6E00093E1
:100840005C060AEA15E50D931D930D911C91119715
:10085000007E20915308022B0F71107C00641B60F6
:100860000D931C93139701E0F8CDBA93AA932297A6
:1008700042E050E021ED35E08E010E940C364091BF
:10088000D30550E024ED35E06881798100EA17E076
:10089000060F171F0E940C36A3E5B6E00AEA15E51D
:1008A0000D931C931197FD0102811381007E20910D
:1008B0005308022B0F71107CE8ECF5E022813381A4
:1008C000207C3F73022B132BFD010283138300E076
:1008D00004838D010E94F006FD01058316838D01BE
:1008E0000E941607FD0107831087EBEBF5E001E09E
:1008F000008300E00383068303E010E00093B40567
:100900001093B5052296A991B9910895BA93AA9327
:100910008A93229742E050E021ED35E08E010E945B
:100920000C368091D305A3E5B6E0482F50E008814E
:10093000198120EA37E0200F311F0FE516E00E94F1
:100940000C3642E050E09E010CE516E00E940C36A9
:1009500080935E060AEA15E50D931C931197FD013D
:1009600002811381007E20915308022B0F71107CAD
:10097000E8ECF5E022813381207C3F73022B132BBE
:10098000FD01028313838D5F84838D010E94F00635
:10099000FD01058316838D010E941607FD01078363
:1009A0001087EBEBF5E001E0008300E003830683B2
:1009B00003E010E00093B4051093B50522968991E9
:1009C000A991B9910895BA93AA93A5E5B6E00D91BE
:1009D0001C911197007E20915308022B0F71107CFF
:1009E0002091CA053091CB05207C3F73022B132B3D
:1009F0000D931C93139700E0009357068D010E94FE
:100A0000F00615960D931C9316978D010E941607FC
:100A100017960D931C93EBEBF5E001E0008300E0EB
:100A20000383068303E010E00093B4051093B5053B
:100A30000091D105009353080E94701FA991B991AC
:100A4000089500E016E920E030E00E94B8194BE874
:100A500050E020E030E008EC15E00E941A364BE848
:100A600050E020E030E003E516E00E941A3648E04E
:100A700050E020E030E00BEB15E00E941A360C94B9
:100A8000B619BA93AA930E94331A0093C70520910E
:100A9000BD05122F222319F01A9539F008C00A3A21
:100AA00031F000E00093BD0564C10535D1F7A8EC35
:100AB000B5E0F0E0E22FE853FA4F0083EBEBF5E00E
:100AC000028103950283093041F48D01AFD1FD010C
:100AD000278130850217130721F7E091CC05F0E05C
:100AE00038960091BD0510E0E017F0400CF041C1D0
:100AF0001093BD058D0174D1FD012581368102174A
:100B0000130709F030C101E00093BC052281138175
:100B100046E0022F0E945533053308F02AC1F0E069
:100B2000FBBFF2E00F9FF001E457FF4F07901690D4
:100B3000F0010994022F0F7110915308011709F069
:100B400018C10E94FE0015C1022F0F7110915308A9
:100B5000011719F0002309F00CC10E941F1B09C1E5
:100B6000FD010185128523853485EBEBF5E00087D7
:100B7000118722873387E4E5F8E040815181628163
:100B80007381401751076207730709F0F2C0E5CF80
:100B9000022F0F7110915308011709F0EAC00E944B
:100BA0007901E7C0022F0F7110915308011709F066
:100BB000E0C00091D1050E94A101DBC0022F0F719E
:100BC00010915308011709F0D4C00091D1050E947B
:100BD000D301CFC0022F0F7110915308011709F0F4
:100BE000C8C00091D1050E940502C3C0022F0F7139
:100BF00010915308011709F0BCC00091D1050E9463
:100C00004C02B7C0022F0F7110915308011709F061
:100C1000B0C00E946D02ADC0022F0F711091530839
:100C2000011719F0002309F0A4C00E949102A1C08D
:100C3000022F0F7110915308011719F0002309F0CA
:100C400098C00E94D30295C0022F0F7110915308D3
:100C5000011719F0002309F08CC00E94470389C0D6
:100C6000022F0F7110915308011719F0002309F09A
:100C700080C00E9459037DC0022F0F71109153084C
:100C8000011719F0002309F074C00E946B0371C0B2
:100C9000022F0F7110915308011719F0002309F06A
:100CA00068C00E946C0365C0022F0F711091530839
:100CB000011709F05EC00E946D035BC0022F0F7127
:100CC00010915308011719F0002309F052C00E9437
:100CD0008F034FC0022F0F7110915308011719F0A5
:100CE000002309F046C00E94C90343C0022F0F71C0
:100CF000109153080117E9F50E94DF033AC0022F53
:100D00000F7110915308011711F0002391F50E9403
:100D100011042FC0022F0F7110915308011711F009
:100D2000002339F50E94170424C0022F0F7110917F
:100D30005308011711F0002311F40E943504FD013E
:100D400002810F7110915308011711F0002389F4EB
:100D50000E9486040EC02F7100915308201749F499
:100D60000E94E30406C026EC31E000E11AE00E9494
:100D7000D42CA991B99108959A938A930091B405BE
:100D80001091B505012B49F50091C105002301F52E
:100D90000E94361A002309F10E94B4190E943E1ADB
:100DA000E091BE05F0E0ED5AF94F00810E94301A43
:100DB0000091BE0503950093BE058091570690E013
:100DC0000896801790404CF401E00093C10505C0DF
:100DD00000E00093BB050E94B6198991999108958E
:100DE000AA939A938A932297C8018E010E9447136F
:100DF000A0E0FC010481002379F0AE0121E030E0A5
:100E00008C010A0F131F075F1F4F0E945413A395F5
:100E1000FC010481A01788F38E010E944C13088105
:100E20001981229689919991A9910895BA93AA93CB
:100E30009A938A932297C8018E010E944713DC017E
:100E400087E0AE0121E030E08D010E94541311963D
:100E50008A95B9F78E010E944C1308811981229658
:100E600089919991A991B99108950E94321B00E04E
:100E70000093F8060E94451B40E150E020E030E07E
:100E800009EF16E00C941A369A928A927A926A9234
:100E90005A924A921D01BC0148018091F80690E0E7
:100EA000682E7724660C771C660C771C660C771C02
:100EB000ADE0B7E0A60DB71DFD01048115810683E5
:100EC000178302811381048315830D911C9111975F
:100ED000FB2F028313838D929C9211970D911C918D
:100EE0001197FB2F22813381020F131F248135813B
:100EF000020F131F26813781020F131F44E050E0B9
:100F00000E947333880F991F2DE037E0280F391F97
:100F10002901F90100AB11ABC401801B910B1AF43C
:100F2000919581959040EDE0F7E0E60DF71D048D79
:100F3000158D068F178F028D138D048F158F008DE1
:100F4000118D028F138F808F918F008D118D228DC7
:100F5000338D020F131F248D358D020F131F268D25
:100F6000378D020F131F44E050E00E947333F201EB
:100F700006AB17AB23E0219F302D209F310D80154C
:100F8000930714F4840103C0FD0102811381CB0196
:100F9000D1014990599069907990899099900895DC
:100FA0007A926A925A924A92BA93AA939A938A939D
:100FB0000E94651B2091F8062330C8F5222E3324A9
:100FC000822F90E0880F991FA0EAB7E0A80FB91F01
:100FD000212F220F220B322F0E942434A801B901A5
:100FE000220C331C220C331CF101E056F84F04890B
:100FF0001589268937890E94E43428013901FD01C9
:1010000000A111A1212F220F220B322F0E94243484
:10101000A201B3010E9483340E943134FC01EE50DE
:10102000F94F0083118330DFFD0106871787009198
:10103000F80603950093F806033028F000E00093CB
:10104000F8060E943E210091F8060E94451B8991F6
:101050009991A991B9914990599069907990089581
:101060004EE851E020E030E008E518E00E941A3632
:1010700000E213E021E030E0E1EDF9E000831183CC
:10108000228333833483089500914907002399F024
:101090004EE851E020E030E008E518E00E941A3602
:1010A00000E213E021E030E0E1EDF9E0008311839C
:1010B000228333832483089500E00093D5090895A3
:1010C0000091E807013021F10091D509013001F5C7
:1010D00067E170E04AE457E0E1EDF9E00081118159
:1010E000228133810E948A1AE1EDF9E000811181A9
:1010F00022813381095E1F4F2F4F3F4F00831183A1
:10110000228333830E94241B0E94AE0B0E943B0C5F
:1011100008951D0118E0019FA2EDB1E0ED91FD9150
:101120003C91E00DF11D34963BBF069134970A9532
:1011300059F00A95B1F00A95F9F00A9551F10A951E
:1011400089F10A9579F138C036960791F691E02F2A
:10115000E85AF74F4081542F550F550B652F752FC7
:101160002BC036960791F691E02FE85AF74F408151
:1011700050E060E070E020C036960791F691E02FD5
:10118000E85AF74F40815181652F660F660B762F25
:1011900013C036960791F691E02FE85AF74F408139
:1011A0005181E7CF36960791F691E02FE85AF74F35
:1011B00040815181628173818A019B01D10108952F
:1011C0003B2E2A2F18E0019FA2EDB1E0ED91FD9199
:1011D0003C91E00DF11D34963BBF069134970A9582
:1011E00059F00A9549F00A9579F00A9569F00A953F
:1011F000A1F00A9591F01BC036960791F691E02F69
:10120000E85AF74F408313C036960791F691E02FC6
:10121000E85AF74F408351830AC036960791F691FA
:10122000E02FE85AF74F4083518362837383A22FE4
:10123000B32D089548814A954B3308F048C1F0E03A
:10124000FBBFF2E04F9FF001EA50FF4F079016906E
:10125000F00109940A815DDF3AC10A81102F110F54
:10126000110B212F312F33C10A812EC10A811B811D
:10127000212F220F220B322F2AC10A811B8125C167
:101280000A811B812C813D8122C14981443108F0B2
:101290001EC104E0409FF001E45FF64F0081118120
:1012A0002281338114C14981433008F010C102E02A
:1012B000409FF001E056F84F06851785D9CF498148
:1012C000442309F004C10091AC071091AD07FDC0A3
:1012D0004981463008F0FBC0E0EAF7E0048115815F
:1012E000268137810E948F330170EEC049814730DB
:1012F00008F0EDC0E0EAF7E000851185228533852E
:10130000F1CFE0EAF7E00481158126813781DFC063
:10131000E0EAF7E00085118522853385D8C0498150
:10132000443108F0D4C002E0409FF001E454F74F8C
:10133000008111819DCF4981443108F0C8C002E08D
:10134000409FF001EC51F74FF3CFECE5F9E0A6CF69
:101350000091D907B9C04981483008F0B8C004E00D
:10136000409FF001E05AF64F99CF0091A4051091EB
:10137000A505ABC04A81442309F0A9C00091170814
:10138000A3C04A81442309F0A2C000911E08109115
:101390001F086ECF4A81442309F099C000912408A8
:1013A0001091250865CF4A81442309F090C000912F
:1013B0002208109123085CCF4A81442309F087C09A
:1013C000009120081091210853CF4A81442309F04D
:1013D0007EC00091260878C04A81442309F077C076
:1013E000EFE2F8E0008111812281338140E050E09A
:1013F0006AE774E40E94E4340E94313468C04A8190
:10140000442309F064C0E3E3F8E0ECCF4A814423CD
:1014100009F05DC000912D0857C04A81442309F0AE
:1014200056C000912E0850C04A81442309F04FC095
:1014300000913B0849C04A81442309F048C000910B
:10144000520842C04A81442309F041C000913C083F
:1014500010913D080DCF4A814423C9F500913E0803
:1014600033C04A81442399F500913F082DC04A8139
:10147000442369F50091410810914208F9CE4A8150
:10148000442329F50091430810914408F1CE4A8184
:101490004423E9F40091450810914608E9CE4A81B9
:1014A0004423A9F40091470810914808E1CE4A81ED
:1014B000442369F40091490810914A0806C04A8102
:1014C000442329F40091510810E020E030E02696F2
:1014D0000895BA93AA939A938A93C801A22F0C8174
:1014E0000A50023308F034C1F0E0FBBFF2E00F9F76
:1014F000F001E459FE4F07901690F0010994482F2F
:10150000512FB9010E815CDE23C14D81443108F0B9
:101510001FC104E0409FF001E45FF64F8083118318
:101520002283338315C10D81002309F011C18093FB
:10153000AC071093AD070CC14D81473008F008C1CE
:1015400001E010E00E944F33212F220F220B482F81
:10155000492B4A2B432B79F0E0EAF7E0408551858F
:1015600062857385402B512B622B722B40875187EC
:1015700062877387EDC0009510952095E0EAF7E04B
:1015800040855185628573854023512362237223F0
:10159000EDCFE0EAF7E08483158326833783D8C054
:1015A000E0EAF7E08087118722873387D1C04D8139
:1015B000443108F0CDC002E0409FF001E454F74F01
:1015C00080831183C5C04D81443108F0C1C002E061
:1015D000409FF001EC51F74FF3CF082F0E94E81322
:1015E000B7C0ECE5F9E09ACF8093D907B1C04D813F
:1015F000483008F0ADC004E0409FF001E05AF64FDB
:101600008DCF8093A4051093A505A2C00E81002361
:1016100009F09EC0809317089BC00E81002309F03B
:1016200097C080931E0810931F0892C00E8100235C
:1016300009F08EC0809324081093250889C00E817C
:10164000002309F085C0809322081093230880C0EE
:101650000E81002309F07CC080932008109321089C
:1016600077C00E81002309F073C08093260870C0F4
:101670000E81002309F06CC0082F0E94243440E042
:1016800050E06AE774E40E945D35EFE2F8E0008321
:1016900046CF0E81002309F05BC0082F0E9424343E
:1016A00040E050E06AE774E40E945D35E3E3F8E06F
:1016B000EECF0E81002309F04BC080933B0848C059
:1016C0000E81002309F044C08093520841C00E816E
:1016D0000023F1F580933C0810933D0839C00E813A
:1016E0000023B1F580933E0833C00E81002381F5BD
:1016F00080933F082DC00E81002351F5809341084F
:101700001093420825C00E81002311F580934308F1
:10171000109344081DC00E810023D1F48093450826
:101720001093460815C00E81002391F4809347085A
:10173000109348080DC00E81002351F4809349088E
:1017400010934A0805C00E81002311F480935108BC
:1017500089919991A991B99126960895BA93AA93DE
:10176000EAE4F7E00481065609F469C0075009F479
:101770004BC00A9519F00A95A9F17AC00091D009D9
:10178000043108F075C0A1EDB9E04D915D916D9106
:101790007C9114E0019FD001A058B64F4D935D930A
:1017A0006D937C930091D00903950093D0094781F4
:1017B00050856185728507E12224079F302D069FA1
:1017C000202D310D059F102D210D321D049F002D60
:1017D000110D221D321D005E1C4F2E4F3F4FE1EDBB
:1017E000F9E042C00091D009002309F441C00A95F4
:1017F0000093D00914E0019FF001E058F64F0081FA
:10180000118122813381EBCF4781508561857285BB
:1018100007E12224079F302D069F202D310D059FC3
:10182000102D210D321D049F002D110D221D321D82
:10183000005E1C4F2E4F3F4FE1EDF9E015C035968D
:1018400006E010E00E9402360E941A09012B022BCA
:10185000032B71F4E1EDF9E00081118122813381E4
:10186000095E1F4F2F4F3F4F008311832283338325
:10187000A991B99108955A924A92BA93AA939A93C8
:101880008A930AE4402E07E0502E00914E0706315D
:1018900008F0D0C2F0E0FBBFF2E00F9FF001E05390
:1018A000FE4F07901690F001099400915B070C31F0
:1018B00061F400914F070A95085030F4EAE4F7E02C
:1018C000078110850E94E813B5C2F201359606E043
:1018D00010E00E9402360E941A09C80101E1400E80
:1018E00000E0501EF20106E010E00E9402368C017A
:1018F0009FC2F201359606E010E00E9402360E9477
:101900001A09C801D901F2013B9606E010E00E94D5
:1019100002360E941A09A80101E1400E00E0501EA3
:10192000F20106E010E00E940236840F951F2A1F84
:101930003B1FDDCFF201359606E010E00E94023633
:101940000E941A09C801D901F2013B9606E010E095
:101950000E9402360E941A09A80101E1400E00E02F
:10196000501EF20106E010E00E940236841B950B27
:10197000A20BB30B8C019D015BC2F201359606E010
:1019800010E00E9402360E941A09C801D901F20132
:101990003B9606E010E00E9402360E941A09A80158
:1019A000B90101E1400E00E0501EF20106E010E036
:1019B0000E9402368C019D010E94C23339C2F2019D
:1019C000359606E010E00E9402360E941A09C8010E
:1019D000D901F2013B9606E010E00E9402360E9417
:1019E0001A09A801B90101E1400E00E0501EF20100
:1019F00006E010E00E94023600E0789F702D699F9B
:101A0000700D5A9F700D4B9F700D689F602D710D6A
:101A1000599F600D711D4A9F600D711D589F502D7B
:101A2000610D701F499F500D611D701F489F510D22
:101A3000601F701F002D152F9B01FAC1F201359612
:101A400006E010E00E9402360E941A09C801D9017E
:101A5000F2013B9606E010E00E9402360E941A094D
:101A6000A80101E1400E00E0501EF20106E010E086
:101A70000E940236842795272A273B2738CFF20178
:101A8000359606E010E00E9402360E941A09C8014D
:101A9000D901F2013B9606E010E00E9402360E9456
:101AA0001A09A80101E1400E00E0501EF20106E013
:101AB00010E00E940236842395232A233B2317CF6C
:101AC000F201359606E010E00E9402360E941A09E3
:101AD000C801D901F2013B9606E010E00E940236EF
:101AE0000E941A09A80101E1400E00E0501EF20117
:101AF00006E010E00E940236842B952B2A2B3B2B0C
:101B0000F6CEF201359606E010E00E9402360E9401
:101B10001A09C801D901F2013B9606E010E00E94C3
:101B200002360E941A0901E1400E00E0501EF20147
:101B300006E010E00E94023680959095A095B09541
:101B400019CFF201359606E010E00E9402360E949D
:101B50001A09C801D901F2013B9606E010E00E9483
:101B600002360E941A09082F092B0A2B0B2B11F49D
:101B700021E001C020E001E1400E00E0501EF20132
:101B800006E010E00E940236022F10E020E030E074
:101B90004FC1F201359606E010E00E9402360E9425
:101BA0001A09C801D901F2013B9606E010E00E9433
:101BB00002360E941A09402F082F092B0A2B0B2BE3
:101BC000B9F6042F012B022B032BA1F2D1CFF20186
:101BD000359606E010E00E9402360E941A09C801FC
:101BE000D901F2013B9606E010E00E9402360E9405
:101BF0001A09402F082F092B0A2B0B2B31F0042F29
:101C0000012B022B032B09F0B3CFB4CFF201359691
:101C100006E010E00E9402360E941A09C801D901AC
:101C2000F2013B9606E010E00E9402360E941A097B
:101C300080179107A207B30709F49ACF9BCFF2014F
:101C4000359606E010E00E9402360E941A09C8018B
:101C5000D901F2013B9606E010E00E9402360E9494
:101C60001A0980179107A207B30779F281CFF20111
:101C7000359606E010E00E9402360E941A09C8015B
:101C8000D901F2013B9606E010E00E9402360E9464
:101C90001A09081719072A073B070CF469CF6ACFFE
:101CA000F201359606E010E00E9402360E941A0901
:101CB000C801D901F2013B9606E010E00E9402360D
:101CC0000E941A0980179107A207B307E6CFF20115
:101CD000359606E010E00E9402360E941A09C801FB
:101CE000D901F2013B9606E010E00E9402360E9404
:101CF0001A0980179107A207B3070CF039CF3ACF22
:101D0000F201359606E010E00E9402360E941A09A0
:101D1000C801D901F2013B9606E010E00E940236AC
:101D20000E941A09081719072A073B07E6CFF20194
:101D3000359606E010E00E9402360E941A09C8019A
:101D4000D901F2013B9606E010E00E9402360E94A3
:101D50001A0901E1400E00E0501EF20106E010E019
:101D60000E9402368F5F9F4FAF4FBF4F03CEF201ED
:101D7000359606E010E00E9402360E941A09C8015A
:101D8000D901F2013B9606E010E00E9402360E9463
:101D90001A0901E1400E00E0501EF20106E010E0D9
:101DA0000E94023681509040A040B040E3CDF20145
:101DB000359606E010E00E9402360E941A09C8011A
:101DC000D901F2013B9606E010E00E9402360E9423
:101DD0001A09402F01E1400E00E0501EF20106E01A
:101DE00010E00E9402368C019D010E94973320C0B2
:101DF000F201359606E010E00E9402360E941A09B0
:101E0000C801D901F2013B9606E010E00E940236BB
:101E10000E941A09402F01E1400E00E0501EF2011D
:101E200006E010E00E9402368C019D010E9487337B
:101E30000E94690A89919991A991B9914990599003
:101E4000089500E016E920E030E00E94AD1A00E1BC
:101E50001AE000932C0B10932D0B00E00093100A56
:101E60000093D80A08ED1AE00093000B1093010BC1
:101E700002E01BE000932A0B10932B0B00E0009371
:101E8000020B0093890700938A070895BA93AA93D7
:101E90000E94FF1A002311F1E0912C0BF0912D0B01
:101EA0000081002391F00E94051BE0912C0BF09122
:101EB0002D0B00810E94071BECE2FBE000811181E9
:101EC0000F5F1F4F0083118309C000E11AE00093E8
:101ED0002C0B10932D0B00E00093100A0E94F91AAE
:101EE000002309F404C10E94091BA1E3B2E000939E
:101EF00063021091100A112309F0F9C0102F185035
:101F000009F48CC01A9509F4CBC01A9509F4EFC0F6
:101F1000135009F49FC01E5021F0145209F49AC0C6
:101F2000C2C00E94F91A0023E1F30E94091B00932A
:101F300063020E94F91A0023E1F30E94091B009337
:101F4000630200915A02002309F4D1C020912A0BA8
:101F500030912B0B1BE022303B40F9F008E00E944F
:101F60000B1B00E20E940B1B08E00E940B1BEAE225
:101F7000FBE000811181015010400083118300E0DB
:101F8000E0912A0BF0912B0B008320912A0B3091CA
:101F90002B0B1BE022303B4009F7009163020154F8
:101FA00019F00A95A1F11AC000916102002339F0DD
:101FB00000916202043018F4FD01039501AB2091F9
:101FC000620200E5029FA00DB11DA059BF4F9D0107
:101FD00002E00E94073101E00093610202E01BE091
:101FE00000932A0B10932B0BE0912A0BF0912B0BF3
:101FF0000081002309F47BC00E940B1BEAE2FBE096
:10200000008111810F5F1F4F00831183EDCF00917D
:1020100062020023A1F2FD010A95D0CF20912A0B84
:1020200030912B0B22303B4009F461C000915A02E1
:10203000002349F008E00E940B1B00E20E940B1BEA
:1020400008E00E940B1BEAE2FBE0008111810150D5
:10205000104045C010915A02112311F00E940B1B31
:1020600000916302E0912A0BF0912B0B0083EAE2CE
:10207000FBE0008111810F5F1F4F0083118300E09F
:10208000E0912A0BF0912B0B008334D002E01BE08F
:1020900000932A0B10932B0B00E00093020B27C038
:1020A00000E20093630220912A0B30912B0B29321E
:1020B0003B40E8F400915A02002321F000916302B2
:1020C0000E940B1B00916302E0912A0BF0912B0BF5
:1020D0000083EAE2FBE0008111810F5F1F4F008364
:1020E000118300E0E0912A0BF0912B0B0083A99162
:1020F000B99108954A929A938A93E2EFF7E730E014
:102100003BBF079117912691E1E3F2E0048B158B19
:10211000268B0091020B02AB00E003AB4489512FE8
:1021200017A503E0109FE00DF11D428F538F248F00
:1021300001E00093600283E09BE0009163020023D2
:1021400049F100916302102F1D5041F0135131F0FD
:102150001E5021F01C5011F0155011F458D013C02E
:10216000E091000BF091010B0083E0E0FBE00081C7
:1021700011810F5F1F4F0083118300E0E091000B7E
:10218000F091010B0083FC010191CF0100936302E8
:102190000023B9F600E00093620200936102E2E0DE
:1021A000FBE007C00A3011F00D3011F400E00083AD
:1021B000319600810023B1F725ED31E002E01BE00C
:1021C0000E94C5300023E1F022E03BE001EA12E08A
:1021D0000E94C5300023A1F081EE93E004E0402E80
:1021E0009C01205530408C010E9407318055904061
:1021F0004A94B1F722E03BE001EA12E00E94073185
:1022000000E0009361078991999149900895BA93EC
:10221000AA9308ED1AE00E94B73008ED1AE0B2D197
:10222000A1E3B2E0009163020D5009F4B2C0035182
:1022300041F00E5031F00C5021F0055009F471C1FD
:1022400046C00091D80A002391F441C000E0FD018E
:10225000048B058B068B26EE31E000E11AE00E942C
:10226000D42C2BE532E000E11AE00E94D42CFD01D1
:10227000448955896689042F052B062B41F1FA0103
:1022800076966BBF0691002309F05DC028ED3AE019
:102290008A010E94D8300023D9F5FD0124893589AF
:1022A00001E617E00E94ED305496ED91FD913C91CE
:1022B00056977C963BBF0791179126913797402FF1
:1022C000412B422B81F0FD01048B158B268B00E006
:1022D0000093D80A08ED1AE00093000B1093010B4D
:1022E000A991B99108953BBF0791169120E0003064
:1022F000120741F0F80109952BE532E000E11AE000
:102300000E94D42C00E0FD01048B058B068BDFCFEF
:102310005496ED91FD913C9156977F963BBF079166
:1023200017912691302F312B322B29F0FD01048B90
:10233000158B268B9CCF00E0FD01048B058B068B53
:1023400026ED31E08ACF40E020E030E008ED1AE0F1
:102350000E944F2D4091640254E0459FFD01E00D25
:10236000F11D0083118322833383FD0103A90395AB
:1023700003AB5496ED91FD913C9156977C963BBFF3
:10238000079117912691302F312B322B09F45ECF14
:102390009ACF25ED31E008ED1AE00E946336012B5B
:1023A00059F49A969D0100E11AE00E94D42C8FCF37
:1023B000FD01048B158B268BFD01448955896689A7
:1023C000042F052B062B09F482CFFA0176966BBFFA
:1023D0000691002309F08CC028ED3AE08A010E94A2
:1023E000D830002309F069C0FD012489358901E650
:1023F00017E00E94ED305496ED91FD913C91569777
:102400007C963BBF0791179126913797012B022BA2
:1024100009F442C025EF31E000E11AE00E94D42C1B
:1024200021E637E000E11AE00E94D42C29EF31E0E8
:1024300000E11AE00E94D42C5496ED91FD913C915C
:1024400056977C963BBF079117912691FD01078B0C
:10245000108F218F012B022BF1F022E132E000E1FD
:102460001AE00E94D42CFD012789308D00E11AE08A
:102470000E949A1A5796ED91FD913C9159977C963E
:102480003BBF079117912691FD01078B108F218F7C
:10249000012B022B11F730CF3BBF0791F691E02FB4
:1024A000099500E0FD01048B058B068B2BE532E0DE
:1024B00000E11AE00E94D42C7FCF5496ED91FD915B
:1024C0003C9156977F963BBF079117912691302FED
:1024D000312B322B09F06CCF00E0FD01048B058B12
:1024E000068B26EE31E000E11AE00E94D42C59CF91
:1024F00040E020E030E008ED1AE00E944F2D4091CE
:10250000640254E0459FFD01E00DF11D008311833D
:10251000228333835496ED91FD913C9156977796A3
:10252000E2CE28E132E000E11AE00E94D42CFD0165
:10253000048915892689078B108F218F202B212B49
:1025400009F42FCF22E132E000E11AE00E94D42CFE
:10255000FD012789308D00E11AE00E949A1A5796F2
:10256000ED91FD913C9159977F963BBF0791179153
:102570002691FD01078B108F218F012B022B09F46F
:1025800010CFE0CF5A924A92BA93AA939A938A9321
:10259000C8015524A1E3B2E0FD010489158926890B
:1025A000078B108F218F25ED31E08C010E94C53003
:1025B000002309F44EC08C010E941431402EFD010D
:1025C0000789108D218D012B022B09F442C034E1C3
:1025D00020E005E612E00E94273134E120E00DE81A
:1025E00012E00E942731FD012789308D0DE812E0AD
:1025F0000E949A1A442D2DE832E005E612E00E946E
:102600002F319C0105E612E00E94C530002341F401
:102610005394FD012789308D09E712E00E949A1A30
:10262000FD010789108D318DF8017F963BBF079121
:1026300017912691FD01078B108F218F012B022B03
:1026400031F601E0501629F429E732E08C010E94AE
:10265000073189919991A991B9914990599008951B
:102660000091100A002329F011DC0091100A0023C8
:10267000D9F7089501E000935A020DE000935B0240
:10268000089500E000935A0200935B0208952FEF33
:10269000F801208321830895F801008111810095BC
:1026A00010950083118308950D01BC01FA01422F9A
:1026B000432BD1F0D801C9010D9120813181202710
:1026C0002083318328E040815181569547950081D0
:1026D00000FF04C008E014E84027512740835183DD
:1026E0002A9589F7019741F7CB01D0010895AD01F3
:1026F0000091DA07002309F060C00091DB07002396
:1027000091F1E1E3F4E00091E1071091E2072091FB
:10271000E30732E0239FD001A255B84F2D913C91A1
:1027200002171307008174F40023E9F40181039573
:10273000018305E0008301810530A8F005E00183F5
:1027400000E00FC0002379F40181002311F00A9505
:10275000018305E000830181002329F405E0018362
:1027600001E00093D9070091DC07002331F101E07B
:102770000093D9071091D7070091DE07011740F4A5
:102780000091E007101760F400E00093D90708C03B
:10279000101731F40091D6072091DD070217A0F73A
:1027A0000091E007101749F40091D6071091DF0758
:1027B000011718F400E00093D907DA01089597CFC4
:1027C00044E250E020E030E003EF17E00C941A36CA
:1027D000AA939A93182E18018BEB97E0A3E09C0123
:1027E0002D5A3F4FBC01665B7F4F8901FB0149E0D9
:1027F00050E00E94F7350997AA9589F72092F307D0
:102800003092F40705EF17E0E3E9F7E047E00E94B4
:10281000F73503E00093B605812D9991A9910895AC
:10282000E1E3F2E00081118122813381012B022B4F
:10283000032B31F40481158100933C0810933D086B
:102840000895BA93AA932297E1E3F2E000811181FF
:1028500022813381012B022B032B09F024C248ED86
:1028600059E760E000E11AE00E94102D48E05CE7C3
:1028700060E000E11AE00E94102DE1E3F2E0208127
:10288000318107E1039F102D029F110DE02DF12FE3
:10289000EF5AF74F0081002321F440E35CE760E04A
:1028A00003C048E55CE760E000E11AE00E94102DFB
:1028B00048E65BE760E000E11AE00E94102D2CE39F
:1028C00038E0E1E3F2E04081518107E1059F102DFE
:1028D000049F110D200D311F00E11AE00E941330FA
:1028E00040ED5CE760E000E11AE00E94102D41E05D
:1028F00022E538E0E1E3F2E06081718107E1079FC2
:10290000102D069F110D200D311F00E11AE00E94CD
:102910009F2E23E334E000E11AE00E94D42C2EEA3B
:1029200037E0E1E3F2E04081518107E1059F102D9E
:10293000049F110DE02DF12FEE5AF74F008112E0A8
:10294000019F200D311D00E11AE00E941330ECE3DD
:10295000F8E0A1E3B2E00D911D91202F07E1019F66
:10296000102D029F110DE00DF11F068912E0019F4D
:10297000D001A255B84F0D911C9120813181021BCD
:10298000130B0883198332F40881119501951040C7
:102990000883198348EF5CE760E000E11AE00E94D9
:1029A000102D9E0100E11AE00E94133040E05AE72A
:1029B00060E000E11AE00E94102DE1E3F2E02081E6
:1029C000318107E1039F102D029F110DE02DF12FA2
:1029D000E25CF74F0081002321F440EF5AE760E00A
:1029E00003C048E15BE760E000E11AE00E94102DBF
:1029F00048E25AE760E000E11AE00E94102D40E052
:102A00002FE338E0E1E3F2E06081718107E1079FA5
:102A1000102D069F110D200D311F00E11AE00E94BC
:102A20009F2E40E55AE760E000E11AE00E94102D79
:102A3000E1E3F2E02081318107E1039F102D029F45
:102A4000110DE02DF12FE05CF74F0081002339F4E8
:102A500048EC5AE760E000E11AE00E94102DE1E343
:102A6000F2E02081318107E1039F102D029F110DBB
:102A7000E02DF12FE05CF74F0081013039F448E799
:102A80005AE760E000E11AE00E94102DE1E3F2E075
:102A90002081318107E1039F102D029F110DE02D50
:102AA000F12FE05CF74F0081023039F440EA5AE739
:102AB00060E000E11AE00E94102D48EF57E760E067
:102AC00000E11AE00E94102D40E758E760E000E1C5
:102AD0001AE00E94102D21E438E0E1E3F2E04081A9
:102AE000518107E1059F102D049F110D200D311F0D
:102AF00000E11AE00E94133048E958E760E000E185
:102B00001AE00E94102D23E438E0E1E3F2E0408176
:102B1000518107E1059F102D049F110D200D311FDC
:102B200000E11AE00E94133040EC58E760E000E159
:102B30001AE00E94102D25E438E0E1E3F2E0408144
:102B4000518107E1059F102D049F110D200D311FAC
:102B500000E11AE00E94133048EE58E760E000E11F
:102B60001AE00E94102D27E438E0E1E3F2E0408112
:102B7000518107E1059F102D049F110D200D311F7C
:102B800000E11AE00E94133048E359E760E000E1F9
:102B90001AE00E94102D40E029E438E0E1E3F2E081
:102BA0006081718107E1079F102D069F110D200D97
:102BB000311F00E11AE00E94EC2D40E659E760E089
:102BC00000E11AE00E94102D40E02BE438E0E1E340
:102BD000F2E06081718107E1079F102D069F110DC2
:102BE000200D311F00E11AE00E94EC2D48EB5BE75D
:102BF00060E000E11AE00E94102D40E02DE438E092
:102C0000E1E3F2E06081718107E1079F102D069FEB
:102C1000110D200D311F00E11AE00E94EC2D40EE55
:102C20005BE760E000E11AE00E94102D2FE438E03D
:102C3000E1E3F2E04081518107E1059F102D049FFF
:102C4000110D200D311F00E11AE00E94133040E801
:102C50005CE760E000E11AE00E94102D40E021E90D
:102C600037E0E1E3F2E000801180000C111C200D40
:102C7000311D00E11AE00E949F2E48EA5CE760E007
:102C800000E11AE00E94102D40E022E937E0E1E384
:102C9000F2E000801180000C111C200D311D00E1BC
:102CA0001AE00E949F2E2296A991B99108951D01C4
:102CB00040E0602F70E00FE318E027E1269F000D51
:102CC000111D20913F08222339F4F8012285E62FB7
:102CD000F0E0E557F84F2383F8012081222361F0CB
:102CE0002A9529F02A9529F02A9529F005C041E076
:102CF00003C042E001C044E09B01220F331FEBE818
:102D0000F7E0E20FF31F56815417A1F02BE837E0EC
:102D1000260F371F552339F4D90113965C9155239B
:102D200049F4468301C07683D8011A960D91D901E2
:102D300013960C93068100930A0970930B09D10135
:102D40000895BA93AA939A938A93EBE8F7E00091D7
:102D5000A8051091A905012B51F0009149080383A2
:102D600000914B08048300914D08058395C00091A4
:102D7000520812E0019FD001A255B84F0D911C914D
:102D800020913C0830913D08021B130B013020E0DC
:102D900012071CF0318133233AF0112332F4808181
:102DA0009181813090400CF021E0228300831183D7
:102DB0009801E091D90711234AF41195019510402B
:102DC0009801EE2329F420E030E002C0E130D9F38D
:102DD00000915108002309F05FC000913E080023D4
:102DE00009F058C000913F08002339F00A9591F08E
:102DF0000A95D9F00A9551F13FC040914108509190
:102E00004208609143087091440820904508309032
:102E1000460832C04091410850914208009147084D
:102E200010914808401B510BECCF009147081091BE
:102E300048084091410850914208401B510B609155
:102E4000430870914408601B710BDFCF0091470865
:102E5000109148084091410850914208401B510B85
:102E60006091430870914408601B710B20904508E5
:102E700030904608201A310A00E0241735078CF0FC
:102E80002617370774F401E0221533050CF003E030
:102E900000933F0800E00BDF89919991A991B991C6
:102EA00008952617370784F3221533056CF702E0DF
:102EB000EFCF219700E008832AE334E000E11AE035
:102EC0000E94D42C0EE8088341E050E09E010AE005
:102ED0004CD00AE0088341E050E09E0109E045D073
:102EE0000AE1088341E050E09E010BE03ED041E062
:102EF00050E09E0101E046D008810F73088341E055
:102F000050E09E0101E00DC0219741E050E09E019C
:102F10000BE038D00881077E088341E050E09E0135
:102F20000BE023D021960895219741E050E09E01C7
:102F30000BE028D008810861EFCF10939A07009327
:102F40009B07642FA90112E02AE937E002EA0C94FA
:102F5000C81B10939A0700939B07642FA90112E0E6
:102F60002AE937E002EA0C94381C00939A0700E043
:102F700000939B07642FA90111E02AE937E002EDD5
:102F80000C94C81B00939A0700E000939B07642FE2
:102F9000A90111E02AE937E002ED0C94381CAA934C
:102FA0009A938A932497902FA12F822F4AE00E9410
:102FB0004133102F1295107F2AE0029F092F00192C
:102FC000912F902B4AE00A2F0E944133102F129527
:102FD000107F029F0A2F0019A12FA02B4AE0082F73
:102FE0000E944133102F1295107F029F8019182BD9
:102FF0001983AA839B8302E0088341E050E09E018D
:1030000000E0B3DF43E050E09E012F5F3F4F02E05E
:10301000ACDF00E0088341E050E09E01A6DF24968B
:1030200089919991A9910895BA93AA939A938A93B1
:103030002597802FB12F922FA32F043608F080E020
:103040001D3008F0B0E0203208F090E0383008F091
:10305000A0E04AE0082F0E944133102F1295107F04
:103060002AE0029F082F0019812F802B4AE00B2FA6
:103070000E944133102F1295107F029F0B2F0019D1
:10308000B12FB02B4AE0092F0E944133A983102FA2
:103090001295107F029F9019192B1A83BB838C8382
:1030A00002E0088341E050E09E0100E05EDF44E082
:1030B00050E09E012F5F3F4F05E057DF00E008839F
:1030C00041E050E09E0151DF259689919991A991A7
:1030D000B9910895219701E0088341E050E09E01F5
:1030E00000E043DF47E050E023E937E002E04ADF59
:1030F00000E0088341E050E09E0137DF1091930724
:1031000012951F700AE0109F009193070F70000E38
:103110000092930700919407202F22952F701AE0B8
:10312000219F0F70000E0092940700919507202FA9
:1031300022952F70219F0F70000E0092950700912D
:103140009607202F22952F70219F0F70000E00925E
:10315000960700919707202F22952F70219F0F70BF
:10316000000E0092970700919807202F22952F704C
:10317000219F0F70000E0092980700919907202F51
:1031800022952F70219F0F70000E0092990702ED7B
:1031900017E0E3E9F7E047E050E00E94F7352196B9
:1031A0000895219700919C0510919D05012B69F4CC
:1031B00008EE13E000939C0510939D050AE0088338
:1031C00041E050E09E0109E0D0DE219608955A9238
:1031D0004A92BA93AA939A938A932797002339F035
:1031E0000A9509F449C00A9509F47FC039C029013C
:1031F00003EB10E00B831C831D831E838E010F5F86
:103200001F4F0E94471380E090E0A0E0B0E00B81E8
:103210001C812D813E81012B022B032BE1F041E02B
:1032200050E09E018201080F191F93DEAE014F5F2F
:103230005F4F21E030E08E010E9454138F5F9F4F5B
:10324000AF4FBF4F0B811C812D813E8180179107AD
:10325000A207B30720F38E010F5F1F4F0E944C138C
:1032600009811A8120E030E0279689919991A991EE
:10327000B9914990599008950EE710E00B831C8393
:103280001D831E838E010F5F1F4F0E94471380E036
:1032900090E0A0E0B0E00B811C812D813E81012BEC
:1032A000022B032BC1F261E070E0AE018C019D01A5
:1032B000005011422E4F3F4F0E948A1AAE014F5FBD
:1032C0005F4F21E030E08E010E9454138F5F9F4FCB
:1032D000AF4FBF4F0B811C812D813E81801791071D
:1032E000A207B30708F0B7CFDECF64E070E0AE010D
:1032F0004D5F5F4F08E71FED21E030E00E948A1A22
:103300008E010F5F1F4F0E94471380E090E0A0E006
:10331000B0E00B811C812D813E81012B022B032B00
:1033200009F499CF61E070E0AE018C019D0100507D
:1033300010402F4F3F4F0E948A1AAE014F5F5F4FE0
:1033400021E030E08E010E9454138F5F9F4FAF4FFA
:10335000BF4F0B811C812D813E8180179107A207F1
:10336000B30708F078CFDECF94980895949A089523
:1033700040E050E00056194020403040C1F1005676
:1033800019402040304089F1005C1241204030401B
:1033900051F1005C12412040304019F1005C1241B3
:1033A00020403040E1F00058154220403040A9F064
:1033B000005815422040304071F000501B4420401E
:1033C000304039F00050114E2040304091F445E03B
:1033D00010C04BE00EC041E10CC047E10AC043E21F
:1033E00008C04FE206C047E404C04FE802C04FE106
:1033F00051E08C9A9498509398004093990008E972
:1034000000939A000EE000939D0000E200939C0060
:1034100008959A938A93FA93EA933A922A921A9287
:103420000A927A936A935A934A933A932A931A93F5
:103430000A938FB79BB70E9441059BBF8FBF09912D
:1034400019912991399149915991699179910990ED
:10345000199029903990E991F9918991999118954C
:1034600000939C00089500919C00089500919B009A
:1034700006FF02C001E0089500E0089500919B005E
:10348000006400939B0008950BB30F600BBB0AB35D
:10349000007F0ABB0895C99B02C001E0089500E0C7
:1034A0000895C89B02C001E0089500E00895CB9BF9
:1034B00002C001E0089500E00895CA9B02C001E047
:1034C000089500E0089500E00FBD09E00EBD00E0A2
:1034D00000937A0003E31BE21BBD0ABD00E00DBDB3
:1034E0000CBD07B7006107BF08959A938A93FA93BA
:1034F000EA933A922A921A920A927A936A935A9388
:103500004A933A932A931A930A938FB79BB70E94D0
:103510003A3193CF1D010C01DA01462F472B39F0C8
:10352000F801CB012BBF07910D930197D9F7C0018B
:10353000D1010895AD01F90130E03BBF269122236E
:1035400041F02691D8012D938D01319626912223A9
:10355000C1F7F8013083DA01089540E050E00056E9
:10356000194020403040C1F1005619402040304001
:1035700089F1005C12412040304051F1005C124161
:103580002040304019F1005C124120403040E1F011
:103590000058154220403040A9F000581542204004
:1035A000304071F000501B442040304039F0005052
:1035B000114E2040304091F445E010C04BE00EC069
:1035C00041E10CC047E10AC043E208C04FE206C037
:1035D00047E404C04FE802C04FE151E0509390002F
:1035E00049B908E10AB90EE00093950000E20CB970
:1035F00008955F9B02C001E0089500E008955E9B7E
:1036000002C001E0089500E008955E9A08950CB9A3
:1036100008950CB108950093100A00E00093110A78
:103620000C94301301E005BF00E005BF08E101BDC7
:1036300000E001BD009374001F98179A089508E1F7
:1036400001BD08E001BDFFCF0E94D118A8950895E3
:10365000AF980895AF9A08951F9A08951F980895F6
:1036600078940895DF9AD79A07B3076007BBBB9891
:1036700008B3017F08BBC09A0BB30F780BBB0AB32A
:1036800000670ABB02E50DB9089510E0202F002362
:1036900049F02A9539F02A9529F02A9541F02A9582
:1036A00041F001C0102F10FB26F4DE9A03C015E094
:1036B000FACFDE9801FB16F4DD9A01C0DD9802FB1B
:1036C00016F4DC9A0895DC9808952397F8940FB1C6
:1036D0000FB1DF9800E00FB9779BFECF0FB10883E1
:1036E00000E00FB9779BFECF0FB10983588140E00E
:1036F00020E030E0E9E0F7E0008351832283238378
:10370000152F16950795DF9A78941F700093E006A1
:103710001093E1060E942F3450EF6FE775E40E948A
:103720005D3540E050E46CE176E40E94E4340E94B0
:1037300031340093DE061093DF062396089520911E
:1037400071002E7F20937100209171002D7F2093B6
:103750007100A80103E31BE20E945B33003138F0E3
:1037600010E00051104042E050E00E94733300939B
:103770007000089501C0A8950091740007FFFBCF69
:10378000089500E911E0DBDF04E000937400089580
:103790008A927A926A925A924A92BA93AA939A9386
:1037A0008A93602E2901712EDA01862E81E090E045
:1037B000009174000E7F00937400009174000F70EC
:1037C000006A00937400D6DF0EEF602260927300EF
:1037D000009174000F70006800937400CBDF0091BB
:1037E0007100087F083119F08EE39EEF2CC0072D81
:1037F0007A94002321F1F20101912F0100937300CB
:10380000009174000F70006800937400B3DF0091A2
:103810007100087F083259F38DE3E7CFFD01019174
:10382000DF0100937300009174000F700068009333
:103830007400A0DF00917100087F083269F7082D3D
:103840008A94002359F7009174000F70006D009363
:1038500074000091740004FDFCCF8C018991999152
:10386000A991B9914990599069907990899008955A
:103870008A927A926A925A924A92BA93AA939A93A5
:103880008A93602E2901812EDA01762E81E090E064
:10389000009174000E7F00937400009174000F700B
:1038A000006A0093740066DF882089F1062D0E7F80
:1038B00000937300009174000F700068009374000F
:1038C00059DF00917100087F083119F08EE39EEFF7
:1038D00045C0082D8A94002399F0F20101912F012F
:1038E00000937300009174000F70006800937400DF
:1038F00041DF00917100087F083259F38CE3E7CF74
:10390000009174000F70006A0093740033DF682A1E
:1039100060927300009174000F700068009374004F
:1039200029DF00917100087F003411F08EE39EEFD3
:103930007720A1F07A942091740011F000E401C086
:1039400000E02F70022B00680093740013DF0091D9
:103950007300FD010193DF01772061F7009174008E
:103960000F70006D009374000091740004FDFCCF93
:1039700074CFBA93AA93A0EAB7E046E250E020E001
:1039800030E08D010E941A3606E00093A00707E0A0
:103990000093A10703E00093A20701E00093A307AF
:1039A00005B3007C05BB04B3007C04BB08B30770FF
:1039B00008BB07B3086F07BB00916500077F009342
:1039C00065000091640008600093640003B1077E05
:1039D00003B902B1086102B9AF98A79A00E01C963A
:1039E0000D930C93A991B9910895E0EAF7E0008551
:1039F00000FF02C0C49A01C0C498008501FF02C044
:103A0000C59A01C0C598008502FF02C0C69A01C0D0
:103A1000C698008503FF02C0C79A01C0C7980085F9
:103A200004FF04C000916500086003C000916500B8
:103A3000077F00936500008505FF02C01B9A01C047
:103A40001B98008506FF02C01C9A01C01C980481C7
:103A50009D9B02C00E7F01C00160048304819C9B7A
:103A600002C00D7F01C00260048304819B9B02C0E1
:103A70000B7F01C00460048304819A9B02C0077F0E
:103A800001C0086004830481999B02C00F7E01C0BD
:103A9000006104830481989B02C00F7D01C0006215
:103AA000048308950895089500E030E0E0EAF7E027
:103AB0000087018702870387048705870093200812
:103AC0000093210800932D0800932E0800932B08E3
:103AD00000932C080091E1071091E207045D1E4F4E
:103AE0000935124020F03093E1073093E20730931C
:103AF000E8070895BA93AA934DE250E020E030E041
:103B000006EC17E00E941A3644E250E020E030E074
:103B100003EF17E00E941A3606E00093A00707E0C3
:103B20000093A10703E00093A20701E00093A3071D
:103B3000E4EAF7E021E008E813E106871787329608
:103B40002A95C9F745E250E020E030E007E118E0AF
:103B50000E941A3600E00093170804E610E0E8E13E
:103B6000F8E00083118304EF11E0ECE1F8E000835A
:103B7000118302E310E0EAE1F8E00083118308EC2E
:103B8000EEE1F8E000831183E2E2F8E010831183B4
:103B9000E0E2F8E01083118308EE13E0E4E2F8E0DD
:103BA0000083118301E002830EE110E0E7E2F8E018
:103BB000008311830BE9E9E2F8E0008311831483A9
:103BC0001583EBE2F8E0108311830AE017ED23E29E
:103BD0003CE3EFE2F8E0008311832283338323EA9E
:103BE0003DE3E3E3F8E0008311832283338303E2C0
:103BF00010E0E7E3F8E0008311830EE511E0E9E36C
:103C0000F8E00083118300E002831093D00742E0C4
:103C100050E020E030E006EC17E00E941A3609E0A0
:103C20000093CB0708E00093CC0701E00093CD0799
:103C300002E00093CE0705E00093CF0701E0009378
:103C4000D10700E00093E80741E050E020E030E0D9
:103C500009EE17E00E941A3644E050E020E030E020
:103C60000AEE17E00E941A3641E050E020E030E012
:103C70000EEE17E00E941A3644E050E020E030E0FB
:103C80000FEE17E00E941A360CED10E0ECE3F8E0BE
:103C900000831183128301E00383148305E0E1E4D0
:103CA000F8E0008311830AE0E3E4F8E00083118385
:103CB00004E1E5E4F8E00083118302E0E7E4F8E0E2
:103CC0000083118301E0E9E4F8E00083118306E951
:103CD000EBE4F8E000831183EDE4F8E00083118366
:103CE00005E0AFE4B8E00D931C93148301E0058375
:103CF000A991B99108959A938A93C8010E94841753
:103D000043EB50E020EA37E08C010E949D179C01B4
:103D100000E00E94E71800939C0710939D0742E083
:103D200050E02CE937E08D549F4F8C010E949D1785
:103D30000E9494178991999108958A932297E8E4B3
:103D4000FDE730E03BBF079116910883198322E01D
:103D500030E000E00E94E71800932E0B10932F0B29
:103D600042E050E02CE937E005EB10E00E94A91793
:103D700000919C0710919D0720912E0B30912F0BE5
:103D80000217130711F401E0088320E031E000E09E
:103D90000E94E71800932E0B10932F0B42E050E087
:103DA0002CE937E003EB11E00E94A91700919C0772
:103DB00010919D0720912E0B30912F0B02171307A6
:103DC00011F401E00983898108810130E9F44AE4B2
:103DD0005DE760E000E11AE00E94102D43EB50E047
:103DE00020EA37E002E010E00E94A917882309F0DA
:103DF00047C000E011E07FDF4AEE5DE760E000E1F0
:103E00001AE00E94102D3CC08130D1F44AE45DE7F5
:103E100060E000E11AE00E94102D43EB50E020EA40
:103E200037E000E011E00E94A9174AE95DE760E091
:103E300000E11AE00E94102D02E010E05CDF20C0DB
:103E400043EB50E020EA37E000E011E00E94A917C0
:103E50004AE85EE760E000E11AE00E94102D4AEDBA
:103E60005EE760E000E11AE00E94102D43EB50E0B5
:103E700020EA37E002E010E00E94A9173BDE04D000
:103E800013DE22968991089502E010E034DF00E00D
:103E900011E031CF64E070E044E558E007E61EED44
:103EA00021E030E00E948A1A41E050E023E538E04A
:103EB00001E10E94C21725E534E000E11AE00E940A
:103EC000D42C40E023E538E000E11AE00E949F2E68
:103ED00000915308003218F000E000935308089551
:103EE00041E050E023E538E001E10C94B5170E9471
:103EF000121B0E94631A0E94210F0E9421050E943A
:103F000035070E9408200E94B91C0E94521D0E9481
:103F1000C11B0E94241B0E9430080E94F4200E94B2
:103F2000E0130C94301BE3DF4AE35EE760E000E15E
:103F30001AE00E94102D4AE25FE760E000E11AE01B
:103F40000E94102D67E670E040E15AE000E01EEDAF
:103F500021E030E00E948A1AF0DE9CDF0E94531DAF
:103F60000E94CF2B0E94440801E000939F072CE59C
:103F700034E000E11AE00E94D42C00ED17E0009339
:103F8000A8051093A9050E94241B0091A205109179
:103F9000A305012BB1F408EE13E00093A2051093E2
:103FA000A3050AEF10E00093B0051093B1050E943D
:103FB0006A1802ED17E0E3E9F7E047E050E00E94FD
:103FC000F7350E9460080E94DF130091AA05109146
:103FD000AB05012B41F404E610E00093AA05109311
:103FE000AB050E94D0070E94F51C0E94460F0E945C
:103FF000F3200E94A11600919E07002321F2009158
:10400000B605002301F640DF00E000939E07BBCF1A
:104010000E94441AE0E6F4E000E007870387058782
:104020000895BA93AA93A0E6B4E00E944B1A002325
:1040300039F008E20093620400E0009366042CC0AB
:1040400000916604002391F400916204002371F44E
:1040500001E00093660405E010E00093A4051093CE
:10406000A50500E213E00D931C93119700916604DF
:10407000023091F40D911C911197012B69F401E02C
:104080000093660405E010E00093A4051093A505D5
:1040900008EC0D931C9311970E94511A002339F0DC
:1040A00008E20093630400E0009367042CC00091D1
:1040B0006704002391F400916304002371F401E08C
:1040C0000093670405E010E00093A4051093A50594
:1040D00000E213E00D931C931197009167040230E6
:1040E00091F40D911C911197012B69F401E000935B
:1040F000670405E010E00093A4051093A50508EC03
:104100000D931C9311970E94571A002339F008E26F
:104110000093640400E0009368042CC000916804DC
:10412000002391F400916404002371F401E00093F2
:10413000680405E010E00093A4051093A50500E2D3
:1041400013E00D931C93119700916804023091F4D1
:104150000D911C911197012B69F401E00093680403
:1041600005E010E00093A4051093A50508EC0D935D
:104170001C9311970E945D1A002339F008E2009306
:10418000650400E0009369042BC0009169040023DA
:1041900091F400916504002371F401E00093690437
:1041A00005E010E00093A4051093A50500E213E0DC
:1041B0000D931C93119700916904023089F40D91BD
:1041C0001C911197012B61F401E00093690405E053
:1041D00010E00093A4051093A50508EC0D931C9323
:1041E000A991B9910895089500E0009317080CED86
:1041F00010E000931E0810931F080CE3009327089B
:104200001093280807EE13E0009324081093250864
:1042100000E010E0009322080093230806E90093D1
:10422000290810932A0810932B0810932C08109338
:104230002D0810932E0804E600931808109319080F
:1042400000931A0810931B0804EF11E000931C0858
:1042500010931D0800E000932608E6EEF9E00483C1
:10426000058306830783008701870287038706A3E8
:1042700007A304870587068707870895FA92EA92BD
:10428000DA92CA929A928A927A926A925A924A924E
:10429000BA93AA939A938A930091E807013009F49C
:1042A000D4C106EE802E09E0902E00912608013040
:1042B00019F0033009F0A0C180911E0890911F08E9
:1042C0000091170812E0019FF001E056F84F0685B3
:1042D0001785801B910B00913B08013019F49195D3
:1042E000819590408C01292F220F220B322F0E94A2
:1042F0002434280139010091180810911908212F40
:10430000220F220B322F0E942434A201B3010E94FB
:10431000E43440E050E068EC72E40E945D35F40162
:10432000008B118B228B338B26A137A18C01021BB2
:10433000130B212F220F220B322F0E94243428012D
:104340003901E6EE008F118F228F338F86A397A35A
:10435000048515852685378540E050E06CE772E4DA
:104360000E94E434C801D90100911C0810911D0875
:10437000212F220F220B322F0E942434A201B301DD
:104380000E94E434AC01BD010E94833440E050E05F
:1043900060E87CE30E94E434F401048715872687F3
:1043A0003787008F118F228F338F41E050E06AEF03
:1043B00076E40E94EF3528F040E076EC0E94D73595
:1043C00030F4E6EEF9E0508F518F628F738FE6EE96
:1043D000F9E0C08CD18CE28CF38C860197010E94AD
:1043E0003134E6EE048F158F20E030E02083218306
:1043F0002283238300912708109128080E942F34DC
:10440000A801B90100E010E020E030E00E945D3535
:10441000C801D90100911A0810911B08212F220F01
:10442000220B322F0E942434AC01BD010E94E434DF
:1044300040E050E068EC72E40E945D3528013901EB
:10444000E6EEF9E0048B158B268B378B40E050E0CD
:1044500060E271E400891189228933890E94E43481
:104460000E943134C801E6EEF9E002A313A340E054
:1044700050E060E271E4820193010E94E4340E9402
:104480003134D801E6EEF9E000A311A340E050E09A
:1044900060E271E4860197010E94E4340E943134A5
:1044A000E6EEF9E004A315A38A0F9B1F080F191F5E
:1044B000212F220F220B322F0E942434C801D90150
:1044C00040E050E060E070E00E94D73528013901FB
:1044D00010F400E87026009137081091380820E0A9
:1044E00030E00E942F34A801B901820193010E949B
:1044F000D73528F480E090E0A0E0B0E039C000912A
:10450000390810913A0820E030E00E942F34A801C9
:10451000B901820193010E94D73518F4EFE2F8E067
:1045200002C0E3E3F8E00080118022803380E6EEF1
:10453000F9E0448055806680778041E050E060E09B
:1045400070E03B2F0E94EF3538F4A201B3018001E7
:1045500091010E94833406C0A001B1018201930140
:104560000E94C734E6EEF9E004831583268337837F
:104570008C019D010E943134E6EEF9E0068F178F21
:1045800084819581A681B7818C019D010E9431347F
:104590002801212F220F220B322F0E942434A80140
:1045A000B9018C019D010E94C734E6EEF9E0048355
:1045B000158326833783E0E2F8E000811181040D42
:1045C000151D00831183083E23E013401CF007EE05
:1045D00000832183028113812081318120173107DB
:1045E00014F4008311830481158120813181021725
:1045F000130714F4008311832091200830912108BF
:1046000000912B0810912C08201B310B89011AF402
:10461000119501951040023040E0104094F0022FB7
:10462000032B79F02130340724F001E000932D08AA
:1046300002C040932D08332332F401E000932E088A
:1046400004C040932D0840932E0889919991A99117
:10465000B991499059906990799089909990C990B1
:10466000D990E990F9900895E1E3F2E00081118199
:1046700022813381012B022B032B31F4048115811C
:1046800000931E0810931F080895E1E3F2E00081F3
:10469000118122813381012B022B032B19F4048118
:1046A000009326080895E1E3F2E000811181228160
:1046B0003381012B022B032B31F4048115810093EC
:1046C0002208109323080895E1E3F2E000811181AC
:1046D00022813381012B022B032B31F404811581BC
:1046E00000932408109325080895E1E3F2E0008187
:1046F000118122813381012B022B032B31F40481A0
:10470000158100932008109321080895E1E3F2E059
:104710000081118122813381012B022B032B31F483
:104720000481158100931C0810931D080895E1E38E
:10473000F2E00081118122813381012B022B032BB6
:1047400031F40481158100931A0810931B08089511
:10475000E1E3F2E00081118122813381012B022B00
:10476000032B31F404811581009318081093190864
:104770000895E1E3F2E00081118122813381012B70
:10478000022B032B19F40481009317080895E1E329
:10479000F2E00081118122813381012B022B032B56
:1047A00091F404811581268137810E942F3440E0E5
:1047B00050E06AE774E40E945D35EFE2F8E00083C0
:1047C0001183228333830895E1E3F2E000811181B4
:1047D00022813381012B022B032B91F4048115815B
:1047E000268137810E942F3440E050E06AE774E46C
:1047F0000E945D35E3E3F8E0008311832283338375
:104800000895E1E3F2E00081118122813381012BDF
:10481000022B032B31F40481158100933708109388
:1048200038080895E1E3F2E00081118122813381AB
:10483000012B022B032B31F40481158100933908DD
:1048400010933A080895E1E3F2E00081118122819A
:104850003381012B022B032B19F4048100933B08B5
:1048600008955A924A92BA93AA939A938A93229756
:10487000402E44E255E860E000E11AE00E94102D6D
:1048800044E05CE860E000E11AE00E94102D55244D
:1048900005E2049D80EA97E0800D911DDC01A95896
:1048A000BF4F2EEA37E00C9112E0019F200D311D21
:1048B00000E11AE00E94133044E755E860E000E1AF
:1048C0001AE00E94102D9C0122583F4F00E11AE08F
:1048D0000E94133044EC55E860E000E11AE00E94C9
:1048E000102DFD010785002339F00A9541F00A9546
:1048F00061F00A9539F00FC021E934E008C02AE9D7
:1049000034E005C022EA34E002C02AEA34E000E1E3
:104910001AE00E94D42C44E156E860E000E11AE07D
:104920000E94102D41E09D0100E11AE00E949F2E9F
:1049300024EB34E000E11AE00E94D42C44E656E86F
:1049400060E000E11AE00E94102D9C0128583F4FC2
:1049500000E11AE00E94562E44E057E860E000E1D2
:104960001AE00E94102D9C0126583F4F00E11AE0EA
:104970000E94562E44EB56E860E000E11AE00E94E7
:10498000102D9C0124583F4F00E11AE00E94562E42
:1049900044E557E860E000E11AE00E94102D40E095
:1049A0009C0129573F4F00E11AE00E94EC2D44E89A
:1049B00059E860E000E11AE00E94102D9C012E579A
:1049C0003F4F00E11AE00E94653044ED59E860E095
:1049D00000E11AE00E94102D9C012C573F4F00E18E
:1049E0001AE00E94653044E25AE860E000E11AE013
:1049F0000E94102D9C0120583F4F00E11AE00E94B8
:104A0000653044EC5AE860E000E11AE00E94102DA5
:104A100040E09C0127573F4F00E11AE00E94EC2D37
:104A200044E15BE860E000E11AE00E94102D9C0187
:104A300025573F4F00E11AE00E94653044E65BE8ED
:104A400060E000E11AE00E94102D40E09C01235735
:104A50003F4F00E11AE00E949F2E44EB5BE860E0CC
:104A600000E11AE00E94102D40E082579F4F9C0108
:104A700000E11AE00E949F2EFD01008D118D228D14
:104A8000338D40E050E06AE774E40E94E4340E9411
:104A900031340883198344EA5CE860E000E11AE0FD
:104AA0000E94102D40E09E0100E11AE00E94EC2DD2
:104AB000FD01048D158D268D378D40E050E06AE7AD
:104AC00074E40E94E4340E9431340883198344EF73
:104AD0005CE860E000E11AE00E94102D40E09E01D9
:104AE00000E11AE00E94EC2DFD0100A111A1088354
:104AF000198344ED5EE860E000E11AE00E94102DA9
:104B000040E09E0100E11AE00E94EC2DFD0102A1AF
:104B100013A10883198344E25FE860E000E11AE032
:104B20000E94102D40E09E0100E11AE00E94EC2D51
:104B300044E051E960E000E11AE00E94102DFD011F
:104B400004A1002321F444E551E960E003C044EAF4
:104B500051E960E000E11AE00E94102D26EB34E0FC
:104B600000E11AE00E94D42C29EB34E000E11AE0C5
:104B70000E94D42C440C551C86EE99E0840D951DA2
:104B80009C012E5D3F4F00E11AE00E94562E24EC5E
:104B900034E000E11AE00E94D42C9C01205E3F4FDB
:104BA00000E11AE00E94562E2FEC34E000E11AE0FA
:104BB0000E94D42C9C012C5D3F4F00E11AE00E9422
:104BC000562E2AED34E000E11AE00E94D42C4E96D5
:104BD0009C0100E11AE00E94562E2296899199913B
:104BE000A991B991499059900895E1E3F2E00081CB
:104BF000118122813381012B022B032B11F400E060
:104C000030CE26EE34E000E11AE00C94D42C0E9461
:104C1000441F44EC50E860E000E11AE00C94102DD1
:104C200004E610E00093A4051093A50508959A9258
:104C30008A927A926A925A924A92BA93AA939A93D1
:104C40008A93D80100E010E020E030E0FD016681A9
:104C5000262E43E0242241E050E08CE895E00580D8
:104C6000112415C0FC014080040D111D211D311DB2
:104C7000222039F44130510521F40F5F1F4F2F4F8F
:104C80003F4F4F5F5F4F01964D30510548F404167A
:104C9000150641F7FD010480000D111D211D311D78
:104CA00048E050E0693038F170E0862E9924E8EF52
:104CB0008E0EEFEF9E1EEDE64E2EE1E05E2E772487
:104CC000692C589C502C499C500C611C751E489CAA
:104CD000510C651E751E000D151D261D371DE42F78
:104CE000E37021F40F5F1F4F2F4F3F4F4F5F5F4F18
:104CF00046175707A0F32801390147E050E060E06C
:104D000070E00E949F3347E02224439F702D429F12
:104D1000602D710D419F502D610D721D409F510DF1
:104D2000621D721D820193010019150B260B370BB2
:104D30000F5F1F4F2F4F3F4F083010402040304033
:104D400008F00750FD01038389919991A991B991C8
:104D500049905990699079908990999008952797F2
:104D6000B8018E01FB0147E050E00E94F73529EFC2
:104D700034E000E11AE00E94D42C60E352E040E00D
:104D80009E012C5F3F4F00E11AE00E94FC2E2DEFA8
:104D900034E000E11AE00E94D42C40E75FE760E0D5
:104DA0001D810AE0109F400D511D00E11AE00E9494
:104DB000102D2FEF34E000E11AE00E94D42C60E3C4
:104DC00052E040E09E012A5F3F4F00E11AE00E945E
:104DD000FC2E23E035E000E11AE00E94D42C8E0185
:104DE00026DF48EE5FE760E01AE0019F400D511DAD
:104DF00000E11AE00E94102D26E035E000E11AE003
:104E00000E94D42C60E352E040E09E012E5F3F4FB1
:104E100000E11AE00E94FC2E2DE035E000E11AE0EE
:104E20000E94D42C60E352E040E09E012F5F3F4F90
:104E300000E11AE00E94FC2E2DE035E000E11AE0CE
:104E40000E94D42C60E352E040E09E0100E11AE0B1
:104E50000E94FC2E279608954A92BA93AA939A9399
:104E60008A932297A0EAB7E002ED17E078DF44E8E2
:104E70005EE860E000E11AE00E94102D40E023E5CA
:104E800038E000E11AE00E949F2E44E95DE860E00E
:104E900000E11AE00E94102D0091D907002321F4AF
:104EA00044EE5DE860E003C044E35EE860E000E1FA
:104EB0001AE00E94102D44E651E860E000E11AE09B
:104EC0000E94102D44EB51E860E000E11AE00E94DE
:104ED000102D44E052E860E000E11AE00E94102D3D
:104EE00080E0FD0124813581482F01E010E00E941F
:104EF0004F3320233123232B19F02FE035E002C05C
:104F000022E135E000E11AE00E94D42C839586303E
:104F100040F344E552E860E000E11AE00E94102D01
:104F200080E0FD0120853185482F01E010E00E94DE
:104F30004F3320233123232B19F02FE035E002C01B
:104F400022E135E000E11AE00E94D42C83958730FD
:104F500040F344EA52E860E000E11AE00E94102DBC
:104F6000CD0103E0402EFC010685178508831983D7
:104F70009E0100E11AE00E9413302DEF34E000E1C1
:104F80001AE00E94D42C02964A9469F744EF52E842
:104F900060E000E11AE00E94102D1C969D0100E1E6
:104FA0001AE00E9465302DEF34E000E11AE00E9423
:104FB000D42C229689919991A991B99149900895FB
:104FC000BA93AA938A9344E354E860E000E11AE0BC
:104FD0000E94102D0091D509013039F444E854E8BD
:104FE00060E000E11AE00E94102D0091D509002335
:104FF00039F444ED54E860E000E11AE00E94102D1D
:1050000044E75FE860E000E11AE00E94102D80E0D4
:10501000A8E5B8E0082F077039F444EC5FE860E0D9
:1050200000E11AE00E94102D71E065E055E040E0DB
:105030009D012C593F4F00E11AE00E94662F2DEF91
:1050400034E000E11AE00E94D42C8395129684315A
:1050500008F344EB50E960E000E11AE00E94102DF3
:1050600080E0A8E5B8E0082F077039F444EC5FE869
:1050700060E000E11AE00E94102D71E065E055E06B
:1050800040E09D0124573F4F00E11AE00E94662F47
:105090002DEF34E000E11AE00E94D42C83951296A3
:1050A000843108F344E150E960E000E11AE00E9435
:1050B000102D80E0A8E5B8E0082F077039F444EC23
:1050C0005FE860E000E11AE00E94102D70E063E00C
:1050D00058E041E09D012C543F4F00E11AE00E944E
:1050E000662F2DEF34E000E11AE00E94D42C839566
:1050F0001496843108F344E650E960E000E11AE0D8
:105100000E94102D80E0A8E5B8E0082F077039F460
:1051100044EC5FE860E000E11AE00E94102D70E0CE
:1051200063E058E041E09D01285F3E4F00E11AE056
:105130000E94662F2DEF34E000E11AE00E94D42C8B
:1051400083951496883008F38991A991B9910895AF
:10515000229725E135E000E11AE00E94D42C00E01E
:105160000883188109E0109FF001ED50F84F00818D
:105170001181012B09F4B8C020E235E000E11AE00A
:105180000E94D42C40E09E0100E11AE00E949F2E74
:1051900027E235E000E11AE00E94D42C2AE235E053
:1051A00000E11AE00E94D42C188109E0109FF00160
:1051B000ED50F84F0181098360E352E041E09E0128
:1051C0002F5F3F4F00E11AE00E94FC2E188109E09A
:1051D000109FF001ED50F84F0081098360E352E029
:1051E00041E09E012F5F3F4F00E11AE00E94FC2E3C
:1051F0002DEF34E000E11AE00E94D42C60E352E08D
:1052000040E029EF37E0188109E0109F200D311DA3
:1052100000E11AE00E94FC2E20E335E000E11AE0F4
:105220000E94D42C43E350E860E0188109E0109F0D
:10523000F001E650F84F108105E0109F400D511D20
:1052400000E11AE00E94102D2FEF34E000E11AE097
:105250000E94D42C60E352E040E02BEF37E018814D
:1052600009E0109F200D311D00E11AE00E94FC2E84
:105270002DEF34E000E11AE00E94D42C60E352E00C
:1052800040E027EF37E0188109E0109F200D311D25
:1052900000E11AE00E94FC2E24E335E000E11AE070
:1052A0000E94D42C60E352E040E026EF37E0188102
:1052B00009E0109F200D311D00E11AE00E94FC2E34
:1052C00024E335E000E11AE00E94D42C60E352E0D0
:1052D00040E025EF37E0188109E0109F200D311DD7
:1052E00000E11AE00E94FC2E088103950883043037
:1052F00008F437CF22960895AFCD0895AA929A92D6
:105300008A927A926A925A924A92BA93AA939A93FA
:105310008A9381E392E0FC01008111812281338133
:10532000012B022B032B39F000810130104020406B
:10533000304009F062C0A2EEB6E0048115814081E0
:1053400022E0429FFD01E00DF11D0083118326E361
:1053500035E000E11AE00E94D42CFC01008112E04B
:10536000019FA00DB11D9D0100E11AE00E941330C4
:105370002FE435E000E11AE00E94D42C24E635E069
:1053800000E11AE00E94D42C00E00E94451B662434
:10539000A0E0B0E004E610E00E9421330E94651B0B
:1053A0004091DE065091DF06FC01108106E0109F5F
:1053B000E6EEF6E0E00DF11DEA0FFB1F408351839E
:1053C000062D03950E94451BFC01108106E0109FED
:1053D00026EE36E0200D311D2A0F3B1F00E11AE0BA
:1053E0000E9413302AE635E000E11AE00E94D42C36
:1053F0006394129603E0601668F2FC01008111814B
:1054000022813381013040E014072407340709F07A
:1054100050C0E2EEF6E00281138120813181021B4F
:10542000130B212F220F220B322F0E942434C8018C
:10543000D90106EE802E06E0902E682C702E00EA30
:10544000402E07E0502E03E0A02EF40106811781C4
:10545000F30120813181021B130B212F220F220B1C
:10546000322F0E94243440E050E060E87FE30E9445
:10547000D73520F400E010E020E83FE3A801B901AF
:105480008C019D010E945D35F201048B158B268BEA
:10549000378B04E0400E00E0501E02E0600E00E09A
:1054A000701E02E0800E00E0901EAA9409F496C0DF
:1054B000CCCF023010402040304009F08FC0A2EE27
:1054C000B6E0048115810D931C93119726E335E016
:1054D00000E11AE00E94D42C9D0100E11AE00E9434
:1054E00013302FE435E000E11AE00E94D42C24E6CA
:1054F00035E000E11AE00E94D42C00E00E94451B38
:10550000662486EE96E000EA402E07E0502E04E680
:1055100010E00E9421330E94651B0091DE0610916D
:10552000DF06212F220F220B322F0E942434F2019A
:1055300044895589668977890E94E4340E94313410
:10554000FC0100831183062D03950E94451B9C01DD
:1055500000E11AE00E9413302AE635E000E11AE08B
:105560000E94D42C639404E0400E00E0501E02968A
:1055700003E0601660F280EA97E006EE16E023E0B2
:105580004D915C911197F801619171918F01461BCA
:10559000570BFC0140A351A302962A9589F72DE6EB
:1055A00035E000E11AE00E94D42C24E635E000E169
:1055B0001AE00E94D42C80EA97E0A3E09C01205ED0
:1055C0003F4F00E11AE00E9413302AE635E000E187
:1055D0001AE00E94D42C0296AA9581F7899199919C
:1055E000A991B99149905990699079908990999031
:1055F000A9900895E1E3F2E00081118122813381D5
:10560000033000E010402040304038F044E55CE8D2
:1056100060E000E11AE00C94102D20E83FE34081A7
:105620005181440F551F440F551FFA01E056F84FA2
:10563000048B058B268B378BE1E3F2E040815181AF
:10564000440F551FFA01E056F84F00A301A3089537
:10565000E1E3F2E031E02081148100850C9414181C
:10566000E1E3F2E02085148100810C94CF1701E082
:105670000093D00703E00093B605089500E0F8CF4B
:105680004A928A93E1E3F2E08081118122813381A1
:10569000082F44244AE050E060E070E00E949F330D
:1056A000402F0AE02224039F302D029F202D310D30
:1056B000019F102D210D321D049F002D110D221D63
:1056C000321D8019442D50E041955040FA01E056BA
:1056D000F84F82A74AE050E060E070E00E949F33FC
:1056E000802F439445E04416A8F203E00093B605EA
:1056F0008991499008954A928A93E1E3F2E080818A
:10570000118122813381082F44244AE050E060E077
:1057100070E00E949F33402F0AE02224039F302D27
:10572000029F202D310D019F102D210D321D049F50
:10573000002D110D221D321D8019442D50E0419580
:105740005040FA01E056F84F87A74AE050E060E089
:1057500070E00E949F33802F439445E04416A8F2E6
:10576000C4CF00E0009330020895E1E3F2E000814D
:10577000118122813381012B022B032B51F00081F7
:10578000003110402040304020F4009353080C9426
:10579000701F28E735E000E11AE00C94D42C229722
:1057A00000E00093490720E030E001E00E94E718A4
:1057B00000932E0B10932F0B62E070E0AE010EE70A
:1057C0001FED21E030E00E948A1A088119812091A2
:1057D0002E0B30912F0B0217130741F044E958E8C4
:1057E00060E000E11AE00E94102D33C020E030E0BC
:1057F00002E00E94E71800932E0B10932F0B62E03B
:1058000070E0AE010CE71FED21E030E00E948A1A43
:105810000881198120912E0B30912F0B021713074D
:1058200021F044EE58E860E0DCCF44E359E860E062
:1058300000E11AE00E94102D67E670E040E15AE0B6
:1058400000E01FED21E030E00E948A1A01E00093A1
:1058500049072296089544EF51E960E000E11AE01B
:105860000E94102D4CE152E960E000E11AE00E9434
:10587000102D0091D907002321F444EE5DE860E08B
:1058800003C044E35EE860E000E11AE00E94102DEE
:1058900044E452E960E000E11AE00E94102D00911A
:1058A000DA07002321F44CE053E960E003C044E34D
:1058B00053E960E000E11AE00E94102D4CE652E945
:1058C00060E000E11AE00E94102D40E02BED37E08F
:1058D00000E11AE00E949F2E44E952E960E000E1F5
:1058E0001AE00E94102D40E02CED37E000E11AE0B4
:1058F0000E949F2E4CEB52E960E000E11AE00E940A
:10590000102D21EE37E000E11AE00E94133044EE42
:1059100052E960E000E11AE00E94102D2EEA37E023
:105920000091E30712E0019F200D311D00E11AE014
:105930000E9413304CE553E960E000E11AE00E9458
:10594000102D40E02DED37E000E11AE00E949F2E7F
:105950002AE835E000E11AE00E94D42C40E02EED68
:1059600037E000E11AE00E949F2E44E853E960E02E
:1059700000E11AE00E94102D40E02FED37E000E139
:105980001AE00E949F2E2AE835E000E11AE00E940A
:10599000D42C40E020EE37E000E11AE00C949F2E7A
:1059A0000E947A1D0C94441F4A92BA93AA939A9328
:1059B0008A93C801D90144240E94301303C0119670
:1059C000442443941C911123D1F001E0401669F462
:1059D0001E5619F0145019F007C00DE001C00AE07E
:1059E000FC010193CF01119644240C910C3539F33D
:1059F000FD013196DF01FC010193CF01E3CF00E00F
:105A0000FC01008300E11AE000932C0B10932D0B96
:105A10000E94301389919991A991B9914990089563
:105A20005A924A92BA93AA939A938A932801DA01D6
:105A3000962F80E00E94301302C0119681E0FD0194
:105A40009BBF16911123C9F0813069F41E5619F0DD
:105A5000145019F007C00DE001C00AE0F2010193F3
:105A60002F01119680E0FD0106910C3531F307916D
:105A7000DF01F20101932F01E2CF00E0F201008388
:105A800000E11AE000932C0B10932D0B0E943013B1
:105A900089919991A991B991499059900895BA9392
:105AA000AA939A93382E080150E040E060E000E0AD
:105AB00010E020E030E0F00170817D3241F561E0DE
:105AC00025C08AE02224839FB02D829FA02DB10D96
:105AD000819F902DA10DB21D809F910DA21DB21D21
