:020000021000EC
:10E000000C94E8FD1895189518951895189518957D
:10E010001895189518951895189518951895189598
:10E020001895189518951895189518951895189588
:10E030000C943FFC189518951895189518951895F7
:10E040001895189518951895189518951895189568
:10E050001895189518951895189518951895189558
:10E060001895189518951895189518951895189548
:10E070001895189518951895189518951895189538
:10E08000189518951895189518951895600400011D
:10E090009AE001A40360050000000A0D00000A0DCB
:10E0A00020526561647920666F7220646F776E6CB0
:10E0B0006F6164696E672041746D656C206170707A
:10E0C0006C69636174696F6E20696D6167652E2E7E
:10E0D0002E000A0D20446F776E6C6F6164206973A7
:10E0E000207375636365737366756C20636F6D7001
:10E0F0006C6574652E2E2E0A0D000A0D20446F7774
:10E100006E6C6F6164206572726F72210A0D000A75
:10E110000D2057726F6E67204857205665727369DD
:10E120006F6E2120446F776E6C6F616420636F7235
:10E13000726563742066696C650A0D000A0D2052D1
:10E140006561647920666F7220646F776E6C6F61B1
:10E1500064696E6720706963747572657320696D98
:10E160006167652E2E2E000A0D20546573742E2EC5
:10E170002E0A0D000A0D205465737420636F6D70B4
:10E180006C6574652E2E2E0A0D000A0D2046756CE6
:10E190006C2070726F74656374696F6E2069732090
:10E1A0006E6F742061636365737369626C652E2E94
:10E1B0002E0A0D000A0D20526573657474696E672E
:10E1C0002E2E2E000A0D2042616420636F6D6D615A
:10E1D0006E642E2E2E0A0D000A0D204176616962B2
:10E1E0006C6520636F6D6D616E64732E2E2E0A0D4B
:10E1F000202020202020646F776E6C6F6164206186
:10E20000746D656761200A0D202020202020646F36
:10E21000776E6C6F616420706963747572657320CA
:10E220000A0D20202020202072657365740A0D20BD
:10E23000202020202070726F746563740A0D006EB8
:10E240006F636F6D6D0000000074657374000000F3
:10E2500000000000000000000000000000646F7774
:10E260006E6C6F61640000000000000000000000A0
:10E270000061746D656C000000000000000000008B
:10E28000000000000070696374757265730000001F
:10E29000000000000000000000726573657400005B
:10E2A0000000000000000000000000000078787806
:10E2B000787800000000000000000000000000006E
:10E2C0000076657273696F6E000000000000000048
:10E2D00000000000000A0D20436F6E6669677572CA
:10E2E0006174696E67206672616D2E2E2E0A0D00B4
:10E2F00000000000000000000000000000010A0D06
:10E300002048572056657273696F6E20000A0D20F1
:10E3100053572056657273696F6E20000A0D2044B2
:10E32000617465206F66206372656174696F6E2029
:10E330002000202000200A0D20000A0D0A0D205088
:10E34000616E656C20426F6F74204C6F6164657202
:10E35000205665722E30342031322E30352E323038
:10E3600030390A0D20537570706F727420464D332A
:10E3700031787820776861746368646F67206973A7
:10E380002061646465640A0D000A0D2043686563BA
:10E390006B696E67204170706C69636174696F6E40
:10E3A00020666C6173682E2E2E000A0D204170705D
:10E3B0006C69636174696F6E20666C617368206953
:10E3C0006D61676520435243204F6B0A0D20000AA0
:10E3D0000D204170706C69636174696F6E20666CAA
:10E3E00061736820696D61676520435243206572DF
:10E3F000726F722E2E2E200A0D20506C656173658F
:10E400002C20646F776E6C6F616420636F7272652D
:10E4100063742066696C652E2E000A0D0A0D204378
:10E420006865636B696E6720706963747572657384
:10E4300020696D6167652E2E2E000A0D20446174DF
:10E4400061000A0D20486561646572000A0D205064
:10E450006963747572657320435243204F6B000AE1
:10E460000D205069637475726573204352432065B3
:10E4700072726F722E2E2E200A0D20506C65617301
:10E48000652C20646F776E6C6F616420636F7272AD
:10E490006563742066696C652E2E000A0D000A0DF6
:10E4A0000A0D20546F20656E74657220636F6E7361
:10E4B0006F6C65207072657373204573630A0D205D
:10E4C000546F20636F6E74696E756520707265732A
:10E4D0007320456E7465720A0D2044657669636524
:10E4E0002077696C6C207374617274207570206978
:10E4F0006E203120736563002E0000E000939000D1
:10E5000001E109B908E10AB90EE00093950000E2C3
:10E510000CB90DE716E0E1E6F8E00083118300E0B6
:10E5200000937D0600930D080DE018E0E5E3F8E0A8
:10E530000083118307E318E0EFE5F8E0008311831F
:10E5400000E000933708ECEAF2E0008301830895CD
:10E55000BA93AA935E9B20C0A1E6B8E0ED91FC912E
:10E560000081002381F05E9AA1E6B8E0ED91FC9174
:10E5700000810CB9E1E6F8E0008111810F5F1F4FC7
:10E580000083118309C00DE716E0E1E6F8E000839F
:10E59000118300E000937D065F9B62C00CB1009385
:10E5A000AE0200917D06002309F05AC00091AE0230
:10E5B000085041F00550D9F00E5009F451C00452F2
:10E5C000B1F037C0EFE5F8E02081318127333840E2
:10E5D00009F446C008E05AD200E258D208E056D208
:10E5E000EFE5F8E0008111810150104032C0009148
:10E5F000AE024CD20091AE02AFE5B8E0ED91FC91D5
:10E600000083EFE5F8E0008111810F5F1F4F008369
:10E61000118300E0E0915F08F12F008324D007E32D
:10E6200018E0EFE5F8E00083118300E0009337087D
:10E6300017C00091AE022AD20091AE02AFE5B8E059
:10E64000ED91FC910083EFE5F8E0008111810F5F0F
:10E650001F4F0083118300E0E0915F08F12F0083DA
:10E66000A991B99108959A938A9380E090E00091DE
:10E6700037081AC02091AE02E5E3F8E00081F1818D
:10E68000E02F2083E5E3F8E0008111810F5F1F4F49
:10E690000083118300E0E0913508F12F008301969B
:10E6A000FC01E95CF74F00810093AE020091AE02DD
:10E6B000002341F00D5021F0035111F00F51D1F61C
:10E6C00004D0EDCF8991999108958A9380E00DE06F
:10E6D00018E00E9431FC0DE018E071D10091AE020B
:10E6E0000D5039F0035109F444C10F5109F45BC1D5
:10E6F00014C023E031E00DE018E00E94C8FE012BB9
:10E70000B9F420E031E00DE716E00E9472FB22E64A
:10E7100036E00DE716E00E9472FB00E000930D0862
:10E720000DE018E0E5E3F8E0008311838991089596
:10E73000ECEAF2E0008111810730104009F053C08B
:10E7400027ED32E00DE018E00E94C8FE012B09F031
:10E750004AC024E031E00DE716E00E9472FB01E0C0
:10E76000009303090093630300E010E020E030E031
:10E770000E942FF70E94B0FC809369080E94DFFC82
:10E78000009369080E940DF90E94CEF50091690876
:10E790000023A1F30A9529F00A9551F00A9589F012
:10E7A0001AC00E94B6F728E331E011C00E94CEF5EE
:10E7B00072D10F3F1F4FD1F320E631E008C00E9415
:10E7C000CEF569D10F3F1F4FD1F325E731E00DE7BB
:10E7D00016E00E9472FB22E636E00DE716E00E948A
:10E7E000DEFE4DD19ACFECEAF2E0008111810730D4
:10E7F000104009F055C02BEE32E00DE018E00E9409
:10E80000C8FE012B09F04CC081E022EA31E00DE79F
:10E8100016E00E9472FB33D102E000936303009381
:10E82000030900E010EA20E030E00E942FF70E9488
:10E83000B0FC00E0009369080E94DFFC00936908C7
:10E840000E940DF90E94CEF5009169080023A1F302
:10E850000A9529F00A9551F00A9589F01AC00E948C
:10E86000B6F728E331E011C00E94CEF514D10F3F76
:10E870001F4FD1F320E631E008C00E94CEF50BD146
:10E880000F3F1F4FD1F325E731E00DE716E00E945F
:10E8900072FB22E636E00DE716E00E94DEFEEFD0C6
:10E8A0002FEA32E00DE018E00E94C8FE012BE1F4EF
:10E8B0002DEC31E00DE716E00E9472FB00E010E065
:10E8C00020E0EAE5F3E000830183028345E555E5B6
:10E8D0000E944CFBEAE5F3E00081118122810E9455
:10E8E00054FB2AED31E073CF23E133E00DE018E073
:10E8F0000E94C8FE012B19F420EF31E00ACF27E275
:10E9000033E00DE018E00E94C8FE012B89F481E09D
:10E9100000917C0600FD06C000E01EED21E030E025
:10E920000E948EF920E031E00DE716E00E9472FBB4
:10E930002FEF32E00DE018E00E94C8FE012B99F4A1
:10E940002AE132E00DE716E00E9472FB01E005BF0C
:10E9500000E005BFE6E7F6E000830183028303835E
:10E960000E94000038CF882309F035CF2AE232E038
:10E970002ECF23E031E00DE018E00E94C8FE23EC2A
:10E9800032E00DE018E00E94C8FE012B09F0C5CE70
:10E9900007E0ECEAF2E000838183E6E7F6E011812C
:10E9A00017671183BACE23E031E00DE018E00E9432
:10E9B000C8FE012B09F0B1CE2EE332E008CF0E9451
:10E9C00053FEEF976197C8014424ECEAF2E000811E
:10E9D00011810436104008F04DC023E031E08C0175
:10E9E0000E94C8FE012B09F445C08C010E94EEFE76
:10E9F000B02FA0E048E250E020E030E08E010E941D
:10EA00007FFE50E00FEA802E02E0902E4A2F04E1B4
:10EA100010E00E94FAFD800E911E94014B2F8E0192
:10EA20000E9471FE9C018E010E94C8FE012B99F488
:10EA300043940FEA602E02E0702E4A2F50E004E16A
:10EA400010E00E94FAFD600E711E93018E01085DB8
:10EA50001F4F0E94DEFEA395A73060F201E0401632
:10EA600019F025EA32E003C09E01285D3F4F8C017A
:10EA70000E94DEFEEF966196EAE00C9460FE01C013
:10EA800067DD00917D060023D9F708955E9BFECFD8
:10EA90005E9A0CB908955F9B03C00CB110E0089515
:10EAA0000FEF1FEF08952FEFF801208321830895C2
:10EAB000F80100811181009510950083118308955C
:10EAC0000E9459FEFA0180E090E008C051815695FD
:10EAD0004795408351836A9571F401968217930795
:10EAE000B0F4D801A80FB91F4C91608171816427DF
:10EAF0006083718368E0408140FFE8CF042E11807D
:10EB00001694079448E054E840255125E2CFE4E00C
:10EB10000C9466FE219700E008832BE333E00DE7B9
:10EB200016E00E9472FB0EE8088311E09E010AE0E5
:10EB30001DD00AE0088311E09E0109E017D00AE128
:10EB4000088311E09E010BE011D011E09E0101E06D
:10EB500019D008810F73088311E09E0101E006D0EF
:10EB6000219608950C9420F60C945DF600936005B0
:10EB700000E000936105612FA90111E020E635E076
:10EB800000EDF0CF0093600500E000936105612F78
:10EB9000A90111E020E635E000EDE6CFE6E7F8E078
:10EBA00000811181012B21F408EE13E00083118311
:10EBB0000895A801009171000E7F009371000D7FF0
:10EBC0000093710003E31BE20E9402FE003138F063
:10EBD00010E00051104042E050E00E941AFE009305
:10EBE00070000895009174000F70006A01C0006801
:10EBF000009374000895009174000F70006DF8CFB9
:10EC000001C0A8951091740017FFFBCF08950093E1
:10EC10007300009174000F70EACF209174000023FC
:10EC200011F000E401C000E02F70022BE0CF009152
:10EC30007100087F089500E911E0BBDF04E0D8CF40
:10EC40000E9454FE602E2901712EDA01862E81E089
:10EC500090E0009174000E7F00937400C3DFD0DF5A
:10EC60000EEF0621D4DFCCDFE2DF083111F08EE3B6
:10EC70001AC0072D7A94002349F0F20101912F0167
:10EC8000C6DFBEDFD4DF0832A1F30CC0082D8A94A2
:10EC9000002351F0FD010191DF01B9DFB1DFC7DFD2
:10ECA0000832A1F38DE39EEFA6DF1091740014FDEE
:10ECB000FCCF8C01E9E00C9461FE0E9454FE602EB2
:10ECC0002901712EDA01862E81E090E00091740016
:10ECD0000E7F0093740086DF93DF7720D1F0062D3E
:10ECE0000E7F95DF8DDFA3DF083119F08EE39EEFF5
:10ECF00026C0072D7A94002351F0F20101912F01D3
:10ED000086DF7EDF94DF0832A1F38CE3F0CF6ADF89
:10ED100077DF682A062D7BDF73DF89DF003459F047
:10ED20008EE39EEF08C0082D78DF6ADF0091730044
:10ED3000FD010193DF01082D8A940023A1F75BDF19
:10ED40001091740014FDFCCFB4CF0091680000FD59
:10ED5000FCCF11E1002410936800E89508950E940B
:10ED60005AFEE6E5F3E09181A28180E08387848703
:10ED70008783808784839583A68307811085000F0E
:10ED8000111FF801EE59FA4F2081E6E5F3E0078103
:10ED90001085000F111FF801EE59FA4F1181E6E5B9
:10EDA000F3E021871287E6E7F6E0008111812281F6
:10EDB0003381033317472A4A354549F4E6E5F3E042
:10EDC000418552850481158126810E944CFB8E5F0E
:10EDD0009F4FAF4FE6E5F3E0078110850F5F1F4FB0
:10EDE000078310870038104028F21181228100E04B
:10EDF000048315832683E6E7F6E0008111812281F2
:10EE00003381033317472A4A354539F4E6E5F3E001
:10EE10000481158126810E9452FBE6E7F6E000811D
:10EE2000118122813381033317472A4A354539F44A
:10EE3000E6E5F3E00481158126810E9454FBE6E5B6
:10EE4000F3E0008111812281338100501F4F2F4F49
:10EE50003F4F118322833383E3E00C9467FE40E04D
:10EE6000E6E5F3E0438744870083118322833383FD
:10EE700008950E9459FED801822F00916303002358
:10EE800069F10A9519F00A9561F02AC000E0009333
:10EE90006303622F4A2F512F1EED21E030E024D072
:10EEA0001FC000E000936303622F4A2F512F1FED14
:10EEB000F4CF8A950D91E6E5F3E02385F485E22F02
:10EEC000EE59FA4F0083E6E5F3E0038514850F5F02
:10EED0001F4F03871487113008F041DF882349F75B
:10EEE00000E0E4E00C9466FE0E9456FE912FA22FF3
:10EEF0002A01662EE6E5F3E004831583268302C02B
:10EF00000EEF600E662001F1F20120811181E6E52D
:10EF1000F3E021871287422F512F0481158126812A
:10EF20000E944CFBE6E5F3E00481158126810E5F2B
:10EF30001F4F2F4F04831583268302E0400E00E00D
:10EF4000501E03E06016E0F600E0192F2A2F04831C
:10EF50009583A6830E9452FBE6E5F3E004811581C8
:10EF600026810E9454FBE7E00C9463FEE6E5F3E0A3
:10EF700003851485012B09F0F2DEE7CE282E822FBF
:10EF800020E00CC0FA01362F1124E20FF11D311DD3
:10EF90003BBF0690F80101928F012395281790F34B
:10EFA000822D08950E9459FE29970A9551F00A95DD
:10EFB00009F44AC00A9509F483C00A9509F4BAC055
:10EFC0003DC024E048E75EED61E070E08E010B5F3C
:10EFD0001F4FD4DF22E04CE75EED61E070E08E0170
:10EFE0000D5F1F4FCBDF8E010F5F1F4F0E9453F548
:10EFF00080E090E0A0E0B0E013C021E0AC01BD01F2
:10F000008E01BCDFAE014F5F5F4F21E030E08E012B
:10F010000E9460F50E940DF98F5F9F4FAF4FBF4F69
:10F020000D811E812F81388580179107A207B307B4
:10F0300020F38E010F5F1F4F0E9458F509811A813E
:10F0400020E030E029964DCF24E048E75FED61E015
:10F0500070E08E010B5F1F4F91DF22E04CE75FED08
:10F0600061E070E08E010D5F1F4F88DF8E010F5F42
:10F070001F4F0E9453F580E090E0A0E0B0E00D81CA
:10F080001E812F81388580179107A207B30788F664
:10F0900021E0AC01BD01405050466F4F7F4F8E01C3
:10F0A0006DDFAE014F5F5F4F21E030E08E010E94C7
:10F0B00060F50E940DF98F5F9F4FAF4FBF4FDFCFBD
:10F0C0000EE710E00D831E831F83188722E04EE7B2
:10F0D0005EED61E070E08E010D5F1F4F4FDF8E012E
:10F0E0000F5F1F4F0E9453F580E090E0A0E0B0E07A
:10F0F0000D811E812F81388580179107A207B307E4
:10F1000008F097CF8C012A2F005012422E4FF801A1
:10F110002BBF06910883AE014F5F5F4F21E030E0C7
:10F120008E010E9460F50E940DF98F5F9F4FAF4FD7
:10F13000BF4FDECF0EE710E00D831E831F831887BD
:10F1400022E04EE75FED61E070E08E010D5F1F4F42
:10F1500015DF8E010F5F1F4F0E9453F580E090E096
:10F16000A0E0B0E00D811E812F81388580179107C6
:10F17000A207B30708F05DCF8C012A2F005011427F
:10F180002E4FF8012BBF06910883AE014F5F5F4FF2
:10F1900021E030E08E010E9460F50E940DF98F5F42
:10F1A0009F4FAF4FBF4FDECF01E005BF02E005BF6D
:10F1B0000E948AFC0E947DF2A79AAF980E941BF6DB
:10F1C0000E948AF50E94CEF504E70093620600E7EC
:10F1D0000093630601E6009364060EE6009365065D
:10F1E0000FE50093660602E6009367060FE60093BC
:10F1F00068060093690604E700936A060EE300932D
:10F200006B0600E000936C0635E5E2E6F6E0048B61
:10F21000058B068B378B78940895A8950C94CEF5C2
:10F22000FCCF0E9459FE2B972883D801832F40E002
:10F230009E018E010F5F1F4F0E94ACFB0091690879
:10F240000A3040F0098190E0FD01E80FF91F0083CA
:10F250000A8107C000E390E0FD01E80FF91F008379
:10F260000981FD01E80FF91F018300E002832B965D
:10F27000E4E00C9466FE0E9451FE6497422ECA019F
:10F28000DB0168A089A010E0430F511F611F711FAF
:10F2900041595F4F6F4F7F4F21E009E618E00E9410
:10F2A000BEF730E0209169088E01BBDF4A8221E081
:10F2B00010E0AC01BD01460D511F611F711F415986
:10F2C0005F4F6F4F7F4F09E618E00E94BEF733E0B3
:10F2D000209169088E01A5DF4D8221E09924880DD7
:10F2E000991DA91DB91D81599F4FAF4FBF4FAC014B
:10F2F000BD0109E618E00E94BEF736E020916908DA
:10F300008E018FDF98869E010DE716E00E94DEFEDB
:10F310000E943FF56496EEE00C945EFE0E9459FE5A
:10F32000C801D90124E633E00DE716E00E9472FB24
:10F3300024E0AC01BD0149595F4F6F4F7F4F03E699
:10F3400018E00E94BEF740E023E638E00DE716E043
:10F350000E94EFFB23E733E00DE716E00E9472FB0B
:10F3600024E0AC01BD0145595F4F6F4F7F4F03E66D
:10F3700018E00E94BEF740E023E638E00DE716E013
:10F380000E94EFFB22E833E00DE716E00E9472FBDB
:10F3900006E00A9305E00A9334E0AC01BD012FE2D8
:10F3A0000DE716E068DF28E933E00DE716E00E947C
:10F3B00072FB00E00A9301E00A9332E0AC01BD0168
:10F3C0002AE30DE716E057DF2BE933E00DE716E0FF
:10F3D0000E9472FB27E6AC01BD010DE716E00E941A
:10F3E000BEF746CFE1DE20EA33E00DE716E00E94EB
:10F3F00072FB2FEE33E00DE716E00E9472FB22E075
:10F400004EE75EED61E070E007E618E00E94BEF7AF
:10F41000E7E6F8E000811181E2E6F6E0008F118F67
:10F4200003E00E94D2F7E7E6F8E000831183E2E60A
:10F43000F6E0208D318D02171307F9F422E04CE736
:10F440005EED61E070E007E618E00E94BEF7E7E6D7
:10F45000F8E000811181E2E6F6E0008F118F01E013
:10F460000E94D2F7E7E6F8E000831183E2E6F6E0D7
:10F47000208D318D0217130719F0028D0160028F64
:10F48000028D00FD0CC020E134E00DE716E00E9483
:10F4900072FB00E01EED21E030E040DF06C025E316
:10F4A00034E00DE716E00E9472FB20E834E00DE73F
:10F4B00016E00E9472FB22E04EE75FED61E070E033
:10F4C00007E618E00E94BEF7E7E6F8E00081118148
:10F4D000E2E6F6E0008F118F04E00E94D2F7E7E643
:10F4E000F8E000831183E2E6F6E0208D318D02170B
:10F4F000130729F522E04CE75FED61E070E007E6D5
:10F5000018E00E94BEF7E7E6F8E000811181E2E62C
:10F51000F6E0008F118F02E00E94D2F7E7E6F8E0F4
:10F5200000831183E2E6F6E0208D318D0217130788
:10F5300079F0028D0260028F20EA34E005C0028D6E
:10F540000260028F28EA34E00DE716E00E9472FBA9
:10F5500000917C0601FD0CC022EB34E00DE716E0C3
:10F560000E9472FB00E01FED21E030E0D7DE06C014
:10F5700025EC34E00DE716E00E9472FB0E94CEF508
:10F5800021E035E00DE716E00E9472FBE2E6F6E0CE
:10F5900026892A6A268B00917C06002309F067C021
:10F5A00024E035E00DE716E00E9472FB08EE13E060
:10F5B000ECE6F8E00083118308EC10E0EEE6F8E0FA
:10F5C000008311830EC00D3061F401E005BF00E03F
:10F5D00005BFE2E6F6E0048B058B068B078B0E94E5
:10F5E00000001BDEA8950E94CEF5ECE6F8E0008155
:10F5F0001181012B61F401E005BF00E005BFE2E6E7
:10F60000F6E0048B058B068B078B0E940000EEE66C
:10F61000F8E000811181012B71F42EE535E00DE752
:10F6200016E00E9472FB0E943FF508EC10E0EEE647
:10F63000F8E0008311835F9BD4CF0CB1009369087D
:10F640000B3109F621E035E00DE716E00E9472FB70
:10F6500022E636E00DE716E00E94DEFE0E943FF54E
:10F66000A8950E94CEF50E94A8F2D7DDF9CF21E03F
:10F6700035E00DE716E00E9472FB22E636E00DE76A
:10F6800016E00E94DEFE0E943FF5A8950E94CEF58E
:10F690000E94A8F2C5DDF9CF0A0161E006C0002E84
:10F6A00069E003C063E001C065E0F8010CD04FB72A
:10F6B000F8945BB72BBF60936800F895FFFF0000DC
:10F6C0005BBF4FBF0895709168007170E1F70895B6
:10F6D000FADF05D00EBB1FBB2DBBE29AE19AE19980
:10F6E000FECF08950E9458FEC801D90144240E940B
:10F6F0003FF503C01196442443940C910023D9F0A4
:10F7000001E0401671F40C910E5619F0045019F0F6
:10F7100007C00DE001C00AE0FC010193CF01119682
:10F7200044240C910C5531F3FD010191DF01FC01E2
:10F730000193CF01E2CF00E0FC0100830DE716E06A
:10F74000E1E6F8E0008311830E943FF5E5E00C94C8
:10F7500065FEE8E00C9462FE0E9455FE23972801A6
:10F76000D901842F0E943FF58823A9F50C9110E060
:10F7700020E030E042E0642E43E0742E802F4AE027
:10F7800050E060E070E00E942EFE502F4AE0549F4F
:10F790008019FE0150E0E60DF51F80836A947A948B
:10F7A00069F720E000E0FE01E00FF51F1081112352
:10F7B00011F021E002C0222329F0105DF201119323
:10F7C0002F0150830395033070F3222321F400E3CB
:10F7D000F201008351830E943FF52396BACF0E9425
:10F7E00055FE2A972801D901842F0E943FF58823CE
:10F7F000A1F50D911D912D913C9149E0642E4AE0B7
:10F80000742E802F50E060E070E00E942EFE502F9A
:10F810004AE0549F8019FE0150E0E60DF51F8083F9
:10F820006A947A9471F720E000E0FE01E00FF51F82
:10F830001081112311F021E002C0222329F0105D74
:10F84000F20111932F01508303950A3070F32223A4
:10F8500021F400E3F201008351830E943FF52A96D0
:10F8600078CF08C0213420F02B3510F4205E20839F
:10F870000F5F1F4FF80120812223A1F70895FA930B
:10F88000EA932A931A930A932FB7EAE6F8E00281E3
:10F890001381012B31F0028113810150104002834A
:10F8A000138304811581012B31F0048115810150EE
:10F8B00010400483158306811781012B31F00681E6
:10F8C0001781015010400683178300851185012B95
:10F8D00031F00085118501501040008711870285A5
:10F8E0001385012B31F002851385015010400287EA
:10F8F000138704851585012B31F00485158501508A
:10F900001040048715872FBF099119912991E9911A
:10F91000F991189500E00FBD09E00EBD00E00093DD
:10F920007A000CEC1CE11BBD0ABD00E107BF00E042
:10F930000DBD0CBDEAE6F8E000830183028303837A
:10F940000483058306830783008701870895EAE619
:10F95000F8E00087118700851185012BE1F70895F4
:10F9600001E010E0E8E7F8E00283138314831583D5
:10F9700005E10E9446F511E002E012D000E818E02F
:10F98000E1E0F9E000831183E6E7F6E00081118110
:10F99000228133810363008311832283338308959B
:10F9A0000093780810937908089508E10E9446F5BD
:10F9B00008E10E9446F508EE13E00C94A7FC0E94B3
:10F9C00059FE80E0009178080A9549F00A95F9F00F
:10F9D0000A9509F461C0025009F48CC0F2C0E8E74E
:10F9E000F8E0048115810F5F1F4F04831583D80150
:10F9F0001B9718F0DADF82E0E4C005E10E9446F5CB
:10FA000000EA1FE0ECE6F8E000831183D7C0ECE6E3
:10FA1000F8E000811181012B19F410E001E0D0C061
:10FA20000E944BF511230AF4CCC0209179082A9545
:10FA300029F02A9589F02A95C1F0C3C00130180732
:10FA400011F412E0BCC00430104009F0BAC006E066
:10FA50000E9446F581E0B5C0E8E7F8E02281021790
:10FA6000104011F413E0ABC0A9C0E8E7F8E0228130
:10FA70004FEF42270417104071F410E016831783EC
:10FA80001093000903E08CDF00E117E2ECE6F8E0F8
:10FA90000083118396C092C0ECE6F8E000811181EA
:10FAA000012B09F4BACF0E944BF511230AF489C047
:10FAB000E8E7F8E0268137812038380748F02091C0
:10FAC00000090217104010E009F0A8CF05E078C047
:10FAD000F901E858F74F0087E0E0F9E01081100FD6
:10FAE0001083E8E7F8E0068117810F5F1F4F068358
:10FAF000178367C000910309002309F44DC001304A
:10FB000041F41EED21E0E3E6F8E0808311832283D7
:10FB10008383023041F41FED21E0E3E6F8E08083C7
:10FB2000118322838383E1E0F9E0A081B181AA58A7
:10FB3000BF4F0C91002371F524E0E3E6F8E040812B
:10FB400051816281738149595F4F6F4F7F4F03E647
:10FB500018E00E94BEF7E1E0F9E0A081B181A95967
:10FB6000BF4F0D911D912D913C91E3E6F8E040814E
:10FB7000518162817381041715072607370751F0F9
:10FB800008E10E9446F508E10E9446F580930309CA
:10FB900003E018C08093030920E800E818E00E9401
:10FBA00039F7E8E7F8E0028113810F5F1F4F028306
:10FBB00013838483858306E00E9446F511E002E00A
:10FBC000EFDE082FE4E00C9466FE00008895FECF7F
:10FBD00003E00DBF0DE00EBFC4E0DEE00E946FFE4B
:10FBE000002311F00E9498FE0E94F2F90E94E5FDA8
:10FBF0000C94E5FD149F102D059F100D049F002D02
:10FC0000110D089500241124EFE0001F111F001CA6
:10FC1000111C0416150610F0041A150AEA95AAF725
:10FC2000001F111FA0010095109508955195419551
:10FC300050400895FF27552312F4F160F7DF112398
:10FC400012F4F09507D00E9402FEF0FD03D0F1FD02
:10FC5000EDCF0895119501951040089500241124C9
:10FC60001001E0E2EA9592F0001F111F221F331FDE
:10FC7000001C111C221C331C041615062606370610
:10FC800088F3041A150A260A370AECCF001F111F41
:10FC9000221F331FA001B1010095109520953095CA
:10FCA0000895BA92AA929A928A927A926A925A92F3
:10FCB0004A92BA93AA939A938A930895BB84AA848A
:10FCC000998488847F806E805D804C80BB81AA810E
:10FCD00099818881F0E0EC0FFD1FEF01089501E0AC
:10FCE00008950D01D80104C0F90161919F016D9340
:10FCF000BA0141505040672BB9F7D0010895F8017F
:10FD000001C02193BA0141505040672BD1F70895AB
:10FD100020E008D0E9F708953BBF27913BB702D018
:10FD2000D9F708952D9301501040202F212B0895CD
:10FD30000CE8402E00EE502E01E0602EF201362D30
:10FD40006BBE07911691F201EE5FFF4F3F4F3BBF35
:10FD5000A791B691F201362DEC5FFF4F3F4F3BBFAD
:10FD6000479157916691242F252B262B21F0FA01DC
:10FD7000362FD2DF01C0CCDF07E0400E00E0501E7E
:10FD8000601EA201662D4A39504E6140B8F20895B6
:10FD900002C02F5F3F4FF8014081F90150814517A4
:10FDA00041F4F80131968F01442399F700E010E007
:10FDB0000895042F10E0051B104008957B2F0A2E94
:10FDC000A801D8010F5F1F4FF90161919F016C934A
:10FDD0006623B9F78A01A02DB72F0895F80101C055
:10FDE000319620812223E1F7E01BF10B8F0108956A
:040000031000E00009
:00000001FF
