:100000000C948B591895189518951895189518955E
:100010001895189518951895189518951895189578
:100020001895189518951895189518951895189568
:100030000C945618189518951895189518951895A4
:1000400018951895189518950C94420318951895BD
:100050001895189518951895189518951895189538
:100060001895189518951895189518951895189528
:1000700018951895189518950C945A19189518955F
:100080000C9482191895189518951895B109630A5A
:10009000630A630ACB09F9090F0A050A190A630AF8
:1000A000630A630A630A630ADA09630A630A630A72
:1000B000230A630AB109630A630A630A630A630ACB
:1000C000630ABC09630A630A630A630A630A630A70
:1000D000630A630A630A630A630A630A630A630AB8
:1000E000630A630A630A630A630A630A630A630AA8
:1000F000380A2E0A420A4C0A5A0A5D2E6E2E7F2EAC
:100100009C2EB92ED62EF32E102F2D2F482F602F78
:100110008C2FB02FC62FF83009311A3137315431B6
:1001200072319031AE31CC31EA3102322D3250325F
:1001300065328A93802F012F8823A1F10E947A03D0
:100140000AEA15E5E6E1F4E00083118302811381F8
:10015000007E082B0F73107C0062156002831383EE
:1001600000E004838F010E94A808E6E1F4E0058323
:1001700016838F010E94CB08E6E1F4E00783108725
:1001800001E00093420500E00093450501E0009383
:10019000460500E00093430500934405009347059E
:1001A0000093480589910895AA939A938A93802F82
:1001B000A12F022F1123E9F10E947A030AEA15E523
:1001C000E6E1F4E00083118322813381207E2A2B33
:1001D0002F73307C90E047968C0146E00E94C55911
:1001E000007C1F73202B312B20622283338300E09D
:1001F00004838F010E94A808E6E1F4E005831683DA
:100200008F010E94CB08E6E1F4E00783108701E04C
:100210000093420500E00093450501E00093460588
:1002200000E00093430500934405009347050093C5
:10023000480589919991A99108958A93802F012F5A
:100240008823A1F10E947A030AEA15E5E6E1F4E0C9
:100250000083118302811381007E082B0F73107CB1
:10026000006A18600283138300E004838F010E94F8
:10027000A808E6E1F4E0058316838F010E94CB080D
:10028000E6E1F4E00783108701E00093420500E017
:100290000093450501E00093460500E00093430507
:1002A00000934405009347050093480589910895FC
:1002B000BA93AA939A938A93902F812FD901012FF1
:1002C0000E947A0345E250E09D010FE114E00E9494
:1002D0005C5C0AEA15E5E6E1F4E000831183028143
:1002E0003381007E282F2F71022B00620283882326
:1002F00011F40F7D028322812F73307C092F10E0CF
:10030000025E1F4F46E00E94C559007C1F73202BE0
:10031000312B2283338305E204838F010E94A808D6
:10032000E6E1F4E0058316838F010E94CB08E6E145
:10033000F4E00783108701E00093420500E000939A
:10034000450501E00093460500E000934305009356
:100350004405009347050093480589919991A99117
:10036000B99108958A93802F012F0E947A0347E064
:1003700050E025ED3FE00FE114E00E945C5C0AEAEA
:1003800015E5E6E1F4E00083118302811381007E2C
:10039000282F2F71022B00620283882311F40F7D16
:1003A000028302810F73107C006C18606CC09A93FA
:1003B0008A93802F942F10931F044093200402E00F
:1003C000909FA00101E214E00E945C5C0AEA15E53E
:1003D000E6E1F4E00083118302811381007E282F7F
:1003E0002F71022B00620283882311F40F7D028398
:1003F00002810F73107C1A6002831383990F9E5F32
:1004000094838F010E94A808E6E1F4E00583168337
:100410008F010E94CB08E6E1F4E00783108701E03A
:100420000093420500E00093450501E00093460576
:1004300000E00093430500934405009347050093B3
:1004400048058991999108958A93802F0E947A0393
:100450000AEA15E5E6E1F4E00083118302811381E5
:10046000007E282F2F71022B00620283882311F453
:100470000F7D028302810F73107C1B600283138344
:1004800000E004C019600283138307E004838F0136
:100490000E94A808E6E1F4E0058316838F010E941C
:1004A000CB08E6E1F4E00783108701E00093420502
:1004B00000E00093450501E00093460500E000934D
:1004C000430500934405009347050093480589912F
:1004D00008959A938A932297C80189010E947753BD
:1004E0000883198342E050E09E010FE114E00E946E
:1004F0005C5C90932104492F50E00881198121E52B
:100500003FE0200F311F02E214E00E945C5C082FE4
:100510000E947A030AEA15E5E6E1F4E0008311831C
:1005200002811381007E282F2F71022B006202832B
:10053000882311F40F7D028302810F73107C006CFD
:100540001C60028313839D5F94838F010E94A8081F
:10055000E6E1F4E0058316838F010E94CB08E6E113
:10056000F4E00783108701E00093420500E0009368
:10057000450501E00093460500E000934305009324
:100580004405009347050093480522968991999167
:1005900008959A938A932297C80189010E947753FC
:1005A000088319838823F1F142E050E09E010FE1B6
:1005B00014E00E945C5C90932104082F0E947A034F
:1005C0000AEA15E5E6E1F4E0008311830281138174
:1005D000007E082B0F73107C006A1C60028313835B
:1005E00003E004838F010E94A808E6E1F4E005839C
:1005F00016838F010E94CB08E6E1F4E007831087A1
:1006000001E00093420500E00093450501E00093FE
:10061000460500E000934305009344050093470519
:1006200000934805229689919991089500917F033E
:10063000002369F0025069F00A9569F00A9569F0A3
:100640000A9569F00A9569F00A9569F008950C9485
:10065000AA220C944A260C9427340C94163A0C9433
:10066000D74A0C9406410C946446202F212B49F064
:1006700025E000002A95E9F701501040202F212B9A
:10068000B9F708959A938A93FA93EA933A922A9241
:100690001A920A927A936A935A934A933A932A93B4
:1006A0001A930A938FB79BB7A3D09BBF8FBF0991B3
:1006B00019912991399149915991699179910990AB
:1006C000199029903990E991F9918991999118950A
:1006D0000CB908950CB108955E9B02C001E0089525
:1006E00000E008955E9A0895DD9A02E010E0BDCF23
:1006F000DD9808950093490508959A938A9380E0C0
:1007000090E00056194020403040C1F10056194099
:100710002040304089F1005C12412040304051F1CE
:10072000005C12412040304019F1005C1241204031
:100730003040E1F00058154220403040A9F0005808
:1007400015422040304071F000501B4420403040A2
:1007500039F00050114E2040304091F485E010C037
:100760008BE00EC081E10CC087E10AC083E208C0C3
:100770008FE206C087E404C08FE802C08FE191E0F9
:10078000D59ADD98B1DF9093900089B908E90AB94C
:100790000EE00093950000E20CB9899199910895BB
:1007A00000E016E920E030E0A8DF45E950E020E075
:1007B00030E001E813E00E946A5C45E950E020E087
:1007C00030E006E114E00E946A5C4AE250E020E07A
:1007D00030E002E415E00E946A5CEAE4F5E000E241
:1007E00012E311930A95E1F700E00093490508959B
:1007F0009A938A936FDF009380030091440500234E
:1008000019F00A9549F00CC0009180030A3A41F0B2
:1008100000E00093440523C0009180030535C1F733
:1008200020918003E091440510E0F0E0EF57FC4F89
:100830002083E2E4F5E002810395028304E1EDE91F
:10084000F0E1008311838091850390E00896009188
:100850004405801790401CF401E000934305899102
:10086000999108959A938A9337DF0023F1F00091CC
:1008700048050023B9F436DFE0914505F0E0EA5E73
:10088000FB4F008125DFE2E4F5E00381039503835C
:1008900080911A0490E008968017904034F401E0AB
:1008A000068303C000E00093420589919991089561
:1008B00000914605002359F00A9569F00A9509F45C
:1008C00050C00A9509F4B2C00A9509F0D2C000E000
:1008D00000930C06089508DFC5DF00914205002350
:1008E000F1F506DF0091180405FF30C002E0009327
:1008F000460504E110E0EDE9F0E100831183E091A9
:100900004905F0E0E451FA4F008103950083E0913E
:100910004905F0E0E451FA4F0081043600F10091FE
:100920004905F801E459FA4F2081F801E453FA4FE0
:100930002083E0914905F0E0E451FA4F1083E09103
:100940004905F0E0E459FA4F108309C000E0009334
:10095000460500934505009343050093440500E0D8
:100960007AC0C6DE00914305013059F4209183031B
:100970002F71009118040F71201719F403E00093F0
:100980004605EDE9F0E100811181012B09F071C00C
:10099000E091490510E0F0E0EE5BFA4F0085039529
:1009A0000087E0914905F0E0EE5BFA4F00850333E4
:1009B00038F002E3E0914905F0E0EE5BFA4F008782
:1009C000E0914905F0E0E459FA4F00810395008376
:1009D00000910C060330A0F4ECE0F6E003950083F0
:1009E00001E00093420510934505009346051093DE
:1009F0004305109344051093470510934805089547
:100A00001093460501E000934705109342051093AB
:100A100045051093430510934405E0914905F0E026
:100A2000E459FA4F008103950083089500E0009394
:100A30004605E0914905F0E0EE5BFA4F008701E8DA
:100A400013E00E94CB08E1E8F3E02781308502172C
:100A5000130721F002E000934705089522812F71CA
:100A6000009118040F71201709F479CF03E0009367
:100A700047050895BA93AA930091500700FF06C056
:100A800004E110E0EBE9F0E1008311830AEA15E5E7
:100A9000E3EAF6E00083118302811381007E209156
:100AA000040F022B0F71107CEEE0F6E022813381FF
:100AB000207C3F73022B132BE3EAF6E002831383BF
:100AC00003E0018764E070E04DEA56E007E61EEDC2
:100AD00021E030E00E94C01867E070E041EB56E092
:100AE0000FE61EED21E030E00E94C01864E070E0E7
:100AF00049EB56E007E61FED21E030E00E94C01808
:100B000067E070E04DEB56E00FE61FED21E030E0CE
:100B10000E94C0180AEC16E0EDE7F3E000831183B1
:100B20000091DC0FE0917D03F6E0018300918E0FD0
:100B30000287E1E5FFE005A916A9ADE7B3E0ED9175
:100B4000FC9103871487E1E5FFE004851585ADE797
:100B5000B3E0ED91FC9105871687E1E5FFE006899A
:100B600017895FC2BA93AA930FE116E0EDE7F3E0AD
:100B70000083118303E000933C100091DC0F00938D
:100B80003D10E0917D03F6E0028500933E1005855F
:100B90001685ECE3F0E101871287ADE7B3E0ED9154
:100BA000FC9103851485ECE3F0E10383148301E0F9
:100BB0000093EB070AEA15E5E3EAF6E00083118308
:100BC00002811381007E2091040F022B0F71107C93
:100BD000EEE0F6E022813381207C3F73022B132B61
:100BE000E3EAF6E00283138301E104838F0124C268
:100BF0008A936097802F40E250E020E030E08E0141
:100C00000E946A5C0AEA15E5E3EAF6E000831183D4
:100C100002811381007E2091040F2F71022B00624C
:100C2000028300E004838A9549F08A95D1F18A9580
:100C300009F443C08A9509F464C076C002810F7339
:100C4000107C006411600283138301E0088324E0B8
:100C500030E047E65EED61E070E08E010F5F1F4F10
:100C60000E94AA1824E030E04BE65EED61E070E0FF
:100C70008E010B5F1F4F0E94AA1827E030E04FE65D
:100C80005EED61E070E08E01075F1F4F0E94AA18C1
:100C900040E150E09E010CEA16E00E945C5C00E13D
:100CA00041C002810F73107C0068116002831383BE
:100CB00027E630E040E05EED2EC002810F73107C2D
:100CC000006C11600283138301E0088324E030E0AC
:100CD00047E65FED61E070E08E010F5F1F4F0E94FD
:100CE000AA1824E030E04BE65FED61E070E08E0191
:100CF0000B5F1F4F0E94AA1827E030E04FE65FED20
:100D0000C0CF02810F73107C12600283138327E629
:100D100030E040E05FED61E070E00CEA16E00E9438
:100D2000AA1807E60093A70603EA16E00E94A8089F
:100D3000E3EAF6E0058316838F010E94CB08E3EA1D
:100D4000F6E00783108701E00093380700E0009386
:100D50003B0700933E0703E010E0EFE9F0E100837A
:100D600011836096899108950AEA15E5E3EAF6E0B1
:100D70000083118302811381007E2091040F022BD6
:100D80000F71107C006814600283138300E00483F9
:100D90008F010E94A808E3EAF6E0058316838F011D
:100DA0000E94CB08E3EAF6E00783108701E0009396
:100DB000380700E000933B0700933E0703E010E094
:100DC000EFE9F0E10083118308950AEA15E5E3EA0B
:100DD000F6E00083118302811381007E2091040FCD
:100DE000022B0F71107C006CCECF0BEA14E0EEE00A
:100DF000F6E045E950E00E94435C01E000934005C5
:100E000002E00093AF1008959A938A9301E0009353
:100E100040058091120690E00996AC0127E136E08A
:100E20000BEA14E00E945C5C02E00093AF10899131
:100E300099910895229742E050E027E136E08E0133
:100E40000E945C5C4091190650E02AE136E068811E
:100E5000798101E51FE0060F171F0E945C5C0AEA1A
:100E600015E5E3EAF6E00083118302811381007E39
:100E70002091040F022B0F71107CEEE0F6E022812E
:100E80003381207C3F73022B132BE3EAF6E00283CD
:100E9000138300E004838F010E94A808E3EAF6E0D0
:100EA000058316838F010E94CB08E3EAF6E00783EF
:100EB000108701E00093380700E000933B070093A0
:100EC0003E0703E010E0EFE9F0E100831183229692
:100ED00008958A93229742E050E027E136E08E01A0
:100EE0000E945C5C80911906482F50E008811981AE
:100EF00021E53FE0200F311F0FEA16E00E945C5C05
:100F000042E050E09E010CEA16E00E945C5C809397
:100F1000AE060AEA15E5E3EAF6E0008311830281F2
:100F20001381007E2091040F022B0F71107CEEE0E4
:100F3000F6E022813381207C3F73022B132BE3EAFE
:100F4000F6E0028313838D5F84838F010E94A808DB
:100F5000E3EAF6E0058316838F010E94CB08E3EAFB
:100F6000F6E00783108701E00093380700E0009364
:100F70003B0700933E0703E010E0EFE9F0E1008358
:100F80001183229689910895BA93AA93ACEAB6E0A8
:100F90000AEA15E5E3EAF6E0008311830281138192
:100FA000007E2091040F022B0F71107CEEE0F6E022
:100FB00022813381207C3F73022B132BE3EAF6E07E
:100FC0000283138303E00C9364E070E0AD014F5F94
:100FD0005F4F07E61EED21E030E00E94C01867E099
:100FE00070E0AD014B5F5F4F0FE61EED21E030E09A
:100FF0000E94C01864E070E0AD014F5F5F4F07E6EC
:101000001FED21E030E00E94C01867E070E0159607
:10101000AD010FE61FED21E030E00E94C01807E1AE
:1010200007C0ADE7B3E0ED91FC910787108B0FE2AD
:101030000093A70603EA16E00E94A808E3EAF6E098
:10104000058316838F010E94CB08E3EAF6E007834D
:10105000108701E00093380700E000933B070093FE
:101060003E0703E010E0EFE9F0E100831183A9916E
:10107000B99108950E9413184FE050E02CE330E13D
:101080000CEA16E00E945C5C0AEA15E5E3EAF6E089
:101090000083118302811381007E2091040F022BB3
:1010A0000F71107CEEE0F6E022813381207C3F73EB
:1010B000022B132BE3EAF6E0028313830FE067CEE3
:1010C0004FE050E027E136E00CE310E10E945C5C69
:1010D00001E00093EB07009110060F71C1F10AEADD
:1010E00015E5E3EAF6E00083118302811381007EB7
:1010F0002091040F022B0F71107CEEE0F6E02281AC
:101100003381207C3F73022B132BE3EAF6E002834A
:1011100013830FE004838F010E94A808E3EAF6E03E
:10112000058316838F010E94CB08E3EAF6E007836C
:10113000108701E00093380700E000933B0700931D
:101140003E0703E010E0EFE9F0E10083118308952A
:10115000AA939A938A932297C8018E010E941B1723
:10116000A0E00BC0AE0121E030E08C010A0F131F9C
:10117000075F1F4F0E942817A395FC010481A01749
:1011800088F38E010E942017088119812296899187
:101190009991A9910895BA93AA939A938A932297C1
:1011A000C8018E010E941B17DC0187E0AE0121E01F
:1011B00030E08D010E94281711968A95B9F78E01AB
:1011C0000E94201708811981229689919991A991ED
:1011D000B991089500E016E920E030E00E94091975
:1011E00045E950E020E030E00EE016E00E946A5C45
:1011F00045E950E020E030E003EA16E00E946A5C36
:101200004AE050E020E030E008E317E00E946A5C2A
:101210004AE050E020E030E002E417E00E946A5C1F
:101220004AE050E020E030E00CE417E00E946A5C05
:101230000C9403199A938A9304E610E0E1E8F0E134
:10124000008311830E94711900930D0600913A07E3
:10125000002319F00A9549F00CC000910D060A3AD6
:1012600041F000E000933A072EC100910D060535CC
:10127000C1F720910D06E0913A07F0E0E25FF94FE7
:101280002083E8E3F7E0028103950283093051F4FB
:101290000EE016E080DFEEE0F6E0278130850217F1
:1012A0001307F9F68091120690E0089600913A072C
:1012B00010E0801790400CF006C110933A070EE042
:1012C00016E046DFEEE0F6E02581368102171307CF
:1012D00009F0F9C001E000933907009141050023AE
:1012E00039F10281138146E00E94CB59035119F074
:1012F0000F51A1F0E8C002810F711091040F011786
:1013000021F002810F7109F0DEC0028105FF02C0E9
:101310000E94E50600E000934105D5C002810F71EF
:101320001091040F011709F0CEC00E940407CBC032
:10133000038106FF03C00E94F506C5C00281138128
:1013400046E00E94CB59073308F0BDC0F0E0FBBF78
:10135000F2E00F9FF001E457FF4F07901690F00165
:101360000994009110060F711091040F011709F0F4
:10137000AAC00E943A05A7C0EEE0F6E002810F7114
:101380001091040F011721F002810F7109F09BC029
:101390000E94B20598C0EEE0F6E002810F7139F0CC
:1013A00002810F711091040F011709F08CC00E9487
:1013B000755389C0EEE0F6E00185128523853485FA
:1013C000EDE5F7E00083118322833383E1E6F0E16A
:1013D0000081118122813381EDE5F7E04081518167
:1013E00062817381041715072607370709F06BC060
:1013F000DECF009110060F711091040F011709F054
:1014000062C001E00E94F8055EC0009110060F71F5
:101410001091040F011709F056C003E0F3CF0091BB
:1014200010060F711091040F011709F04CC002E073
:10143000E9CF009110060F711091040F011709F008
:1014400042C004E0DFCF009110060F711091040F2D
:101450000117C9F50E94B40601E05DCF00911006A6
:101460000F711091040F011771F50E941A072BC01C
:10147000009110060F711091040F011721F50E94C1
:10148000690721C0009110060F711091040F011718
:10149000D1F40E943A0817C0EEE0F6E002810F7125
:1014A0001091040F011719F002810F7161F40E946D
:1014B000600809C0009110060F711091040F011708
:1014C00011F40E94C4078991999108959A938A937F
:1014D000EFE9F0E100811181012B41F500913E0718
:1014E0000023F9F40E947419002301F10E940119EC
:1014F0000E947C19E0913B07F0E0ED55F94F008127
:101500000E946E19E8E3F7E003810395038380915D
:10151000A70690E008968017904044F401E0068307
:1015200005C000E0009338070E9403198991999142
:101530000895002319F00A9549F011C000E0E9E888
:10154000F7E0008301830283038309C000EE10E10A
:1015500020E0E9E8F7E00083118322832383E9E8B0
:10156000F7E0008111812281338100521E4F2F4FFD
:101570003F4FE6E9F1E0008311832283338300E0EB
:10158000EDE8F7E0008301830283038308950023DD
:1015900019F00A9549F011C000E0E9E8F7E000838E
:1015A00001830283038309C000EE10E120E0E9E833
:1015B000F7E00083118322832383E9E8F7E00081C9
:1015C00011812281338100521E4F2F4F3F4FE6E998
:1015D000F1E0008311832283338300E0EDE8F7E03C
:1015E000008301830283038300E80E945F1A009155
:1015F00096010E94681A009197010E94681A02E4FD
:101600000E945F1A0EE10E94681A00E00E94681AA8
:1016100003E40E945F1A00918D070E94681A0091EE
:101620008E070E94681A00E40E945F1A0EE10E9471
:10163000681A00E00E94681A01E40C945F1A8A9309
:10164000812F0E94681A082F0E94681A01E20E94E6
:101650005F1A899108959A938A9300E00E94681A0C
:1016600000E00E94681A04E20E945F1A80E090E89D
:101670000E94DC1800E00E94681A00EC0E945F1AC9
:101680000197B1F7899199910895BA93AA939A9382
:101690008A93E6E9F1E080819181082F0E94681A1F
:1016A000092F0E94681A04E20E945F1AE6E9F1E03D
:1016B000A081B181B15F8A179B0760F40E94DC189A
:1016C00000E00E94681A00EC0E945F1A01968A17D7
:1016D0009B07A0F389919991A991B9910895BA9323
:1016E000AA939A938A93EDE8F7E080819181082F7D
:1016F0000E94681A092F0E94681A04E20E945F1A69
:10170000EDE8F7E0A081B181A052BE4FD4CFBA93EB
:10171000AA939A938A93D801032F8EE1809FC001E8
:1017200030E0820F931FEDE8F7E000811181080F90
:10173000911F0E94681A092F0E94681A04E209C0CA
:101740000E94DC18FD010191DF0100520E94681A1D
:1017500000EC0E945F1A0C91002391F7BBCF5A92C4
:101760004A92BA93AA939A93D801922F1EE1412EDE
:10177000449E200110E0430E511EEDE8F7E0008189
:101780001181040D511E0E94681A052D0E94681ACD
:1017900004E20AC00E94DC18FD019BBF0791DF0133
:1017A00000520E94681A00EC0E945F1AFD019BBF64
:1017B0000691002379F79991A991B991499059908F
:1017C0000895089521972AE931E009E610E1F9DF4B
:1017D0000FE0088311E09E010CE014D000E00883C4
:1017E00011E09E0109E00ED00CE1088311E09E019A
:1017F0000AE008D003E0088311E09E010BE002D06C
:101800002196089521970883612FA90111E09E0177
:101810000091B7010E94BF1A21960895AA939A9346
:101820008A9321970883C901A12F60E040E050E02E
:1018300011E09E010091B7010E94BF1A6A2FAC010E
:1018400010E020E030E00091B7010E940A1B2196D1
:1018500089919991A99108950BE212E0E5EEF7E0E4
:1018600000831183E091E507F2E00781F085E02F26
:1018700009950091F90E12E0019FF001E552FE4F2B
:1018800000811181E8ECF7E000831183EFECF7E0D1
:1018900000E110E011930A95E1F70895BA93AA9335
:1018A0008A9380E009C020E04FE0489F07E41CE0F5
:1018B000000D111DE2D08395A5EEB7E0ED91FC91EE
:1018C0000581801780F38991A991B9910895BA9300
:1018D000AA938A9380E008C02FE0289F07E41CE0C9
:1018E000000D111D71D48395A5EEB7E0ED91FC912B
:1018F0000581801788F38991A991B9910895BA93C8
:10190000AA938A930091CE07053150F1A5EEB7E076
:10191000ED91FC910385F485E02F099508E312E031
:10192000E5EEF7E0008311830FE010E0E7E4FCE070
:1019300003831483028B138B01A312A300AB11AB9F
:10194000E6E8FCE000831183E5EEF7E0A081B181D9
:101950001796ED91FC910995A1DF00E00093CE0769
:10196000A5EEB7E0ED91FC91218532852030304025
:1019700041F0E5EEF7E0A081B1811996ED91FC917F
:10198000099580E001C08395E5EEF7E00081F181E3
:10199000E02F0581801708F040C02FE0289F07E462
:1019A0001CE0000D111D2CD6002369F30FE0089FE9
:1019B000F001E95BF34F038103FFE5CFF001E95B41
:1019C000F34F2385348500E02030300711F0F90112
:1019D00009950FE0089FF001E95BF34F0585168537
:1019E000012B89F2E5EEF7E00081F181E02F03851C
:1019F000F485E02F09950FE0089FF001E95BF34FB4
:101A000005851685E5EEF7E000831183D80117966A
:101A1000ED91FC91099542DF11C00091CA0700FFCA
:101A200006C00091CB07002349F401E005C00091F6
:101A3000CB07013019F400E00093CB078991A991FD
:101A4000B991089510E000FB0EF410E801FB0EF4CC
:101A5000106402FB0EF4106203FB0EF4106104FB31
:101A60000EF4186005FB0EF4146006FB0EF4126011
:101A700007FB0EF41160012F0895FA92EA92DA92B0
:101A8000CA92BA92AA929A928A925A92BA93AA93B4
:101A90009A938A9364972B874801F80103811481F4
:101AA000012B09F4B3C124E030E00281029FA001C0
:101AB00070E061E08E01005F1F4F0E94AA1826E3CC
:101AC00030E0488959896A897B8940575E4F6E4F5B
:101AD0007F4F02E917E00E94AA18E2E9F7E00289C5
:101AE00013894689578949875A8788899989AA8994
:101AF000BB894285538564857585840F951FA61F14
:101B0000B71F80579E4FAE4FBF4F6801D694C79402
:101B1000D694C794D694C7949601220F331F220FF0
:101B2000331F220F331F021B130B21F001E0C00EE5
:101B300000E0D01E0C2D0C7F9601201B3D092D834B
:101B40003E830D81032B39F004E010E02D81021B50
:101B5000130B0D831E8329853A85215030404D811A
:101B60005E818601040F151F129F102D039F100D1B
:101B7000029F110D20E0800D911FA21FB21FF401E2
:101B8000038104FD11C00581002319F00A9539F085
:101B90000BC0AA24BB247601F694E7940FC056012B
:101BA000B694A79476010AC0038104FF07C005819B
:101BB00012E0019F50017001E10EF21E038107FF48
:101BC00007C0A580BB24EA2CFF2401E0E00EF21E32
:101BD000038105FF03C0AA24BB2476010091500FA6
:101BE00000232B832C8309851A8509F083C0012BE0
:101BF000D1F50CC100950E94681A00EC0E945F1A92
:101C000009811A810F5F1F4F09831A830F8118857D
:101C10000F5F1F4F0F8318870C851D852E853F850D
:101C20000F5F1F4F2F4F3F4F0C871D872E873F871A
:101C300009811A810E151F0550F12D813E81860103
:101C4000020F131F801B910BA040B0400B811C8121
:101C50000F5F1F4F0B831C830B8129853A85021769
:101C6000130708F0D3C0A982BA82AE14BF0428F7C4
:101C700049815A8160E08C019D01040F151F261FC8
:101C8000361F0C871D872E873F876F83688721E06B
:101C900030E04C855D856E857F858E010E94AA1897
:101CA000E6E9F1E0008111814F815885040F151F8D
:101CB000F401408150E0400F511F2B813C81018194
:101CC00010E0200F311F0EE1039F102D029F110D18
:101CD000400D511F552E042F0E94681A052D0E9499
:101CE000681A04E20E945F1A0B850023088109F03C
:101CF00081CF81CF012B09F489C0A982BA82AE14A9
:101D0000BF0408F06DC049815A8160E08C019D01DB
:101D1000040F151F261F361F0C871D872E873F8730
:101D20006F83688721E030E04C855D856E857F8517
:101D30008E010E94AA18088185DE0883E6E9F1E099
:101D40000081118101511F4F4F815885F40160813D
:101D500070E0460F571F041B150BA8012FE730E05A
:101D60000B811C81201B310B0181201B30400EE1B7
:101D7000039F102D029F110D400D511F552E042F52
:101D80000E94681A052D0E94681A04E20E945F1AD8
:101D90000B850023088109F000950E94681A00EC69
:101DA0000E945F1A09811A810F5F1F4F09831A83EE
:101DB0000F8118850F5F1F4F0F8318870C851D85B6
:101DC0002E853F850F5F1F4F2F4F3F4F0C871D877D
:101DD0002E873F8709811A810E151F0508F4A2CFAF
:101DE0002D813E818601020F131F801B910BA040A5
:101DF000B0400B811C810F5F1F4F0B831C830B8135
:101E000029853A850217130708F477CF64968991DC
:101E10009991A991B99107C030CE2696899199914F
:101E2000A991B9914990599089909990A990B990A8
:101E3000C990D990E990F9900895FA92EA92DA92CD
:101E4000CA92BA92AA929A928A925A92BA93AA93F0
:101E50009A938A9363974801F80106811781012BB1
:101E600009F4B0C124E030E044815581440F551F8E
:101E7000440F551F70E061E08E01015F1F4F0E940B
:101E8000AA1826E330E04F85588969897A89405736
:101E90005E4F6E4F7F4F02E917E00E94AA18E2E9F9
:101EA000F7E0028913894689578949875A878F85C0
:101EB0009889A989BA894285538564857585840F77
:101EC000951FA61FB71F80579E4FAE4FBF4F68018B
:101ED000D694C794D694C794D694C7949601220FEB
:101EE000331F220F331F220F331F021B130B21F04E
:101EF00001E0C00E00E0D01E0C2D0C7F9601201BCF
:101F00003D092D833E830D81032B39F004E010E061
:101F10002D81021B130B0D831E8329853A852150C9
:101F200030404D815E818601040F151F129F102DD8
:101F3000039F100D029F110D20E0800D911FA21F25
:101F4000B21FF401068104FD11C00085002319F0C1
:101F50000A9539F00BC0AA24BB247601F694E794C5
:101F60000FC05601B694A79476010AC0068104FFFB
:101F700007C0008512E0019F50017001E10EF21EC2
:101F8000068107FF07C0A084BB24EA2CFF2401E0E0
:101F9000E00EF21E068105FF03C0AA24BB247601D1
:101FA0000091500F00232B832C8309851A8509F09B
:101FB00080C0012B09F406C1A982BA82AE14BF0405
:101FC00008F060C049815A8160E08C019D01040FD6
:101FD000151F261F361F0B871C872D873E876F8393
:101FE000688721E030E04B855C856D857E858E01BC
:101FF0000E94AA18E6E9F1E0008111814F8158851D
:10200000040F151FF40140815181400F511F2B8196
:102010003C8102811381200F311F0EE1039F102D9F
:10202000029F110D400D511F552E042F0E94681A5A
:10203000052D0E94681A04E20E945F1A08810E941E
:10204000681A00EC0E945F1A09811A810F5F1F4F06
:1020500009831A830F8118850F5F1F4F0F8318871D
:102060000B851C852D853E850F5F1F4F2F4F3F4FE2
:102070000B871C872D873E8709811A810E151F0546
:1020800008F4AFCF2D813E818601020F131F801B04
:10209000910BA040B0400B811C810F5F1F4F0B8341
:1020A0001C830B8129853A850217130708F08AC023
:1020B00083CF012B09F486C0A982BA82AE14BF0473
:1020C00008F06AC049815A8160E08C019D01040FCB
:1020D000151F261F361F0B871C872D873E876F8392
:1020E000688721E030E04B855C856D857E858E01BB
:1020F0000E94AA180881A6DC0883E6E9F1E00081C5
:10210000118101511F4F4F815885F4016081718108
:10211000460F571F041B150BA8012FE730E00B815A
:102120001C81201B310B02811381201B310B0EE11E
:10213000039F102D029F110D400D511F552E042F8E
:102140000E94681A052D0E94681A04E20E945F1A14
:1021500008810E94681A00EC0E945F1A09811A81A6
:102160000F5F1F4F09831A830F8118850F5F1F4F61
:102170000F8318870B851C852D853E850F5F1F4FAC
:102180002F4F3F4F0B871C872D873E8709811A8170
:102190000E151F0508F4A5CF2D813E818601020F83
:1021A000131F801B910BA040B0400B811C810F5F5F
:1021B0001F4F0B831C830B8129853A850217130758
:1021C00008F47ACF639623CEFA92EA92DA92CA9210
:1021D000BA92AA929A928A925A924A92BA93AA93DD
:1021E0009A938A932697D801F80103811481012BD1
:1021F00009F4F3C024E030E00281029FA00170E006
:1022000061E08E010E5F1F4F0E94AA1826E330E0A6
:102210004A815B816C817D8140575E4F6E4F7F4F5D
:1022200002E917E00E94AA18E2E9F7E0428953891F
:10223000E688F7889A01369527953695279536953D
:1022400027958901000F111F000F111F000F111F8B
:10225000401B510B11F02F5F3F4FFD01038104FD27
:1022600011C00581002319F00A9539F013C080E0F0
:1022700090E05901B694A7940DC0C9019695879531
:10228000590108C0058112E0019FC0015001A10E53
:1022900000E0B01E038105FF03C080E090E059011B
:1022A0000091500F002309F04AC0882499240E2D74
:1022B0000F2909F492C0888399838A159B05B0F58C
:1022C000CC24DD24E6E9F1E0008111810C0D1D1D17
:1022D0004C9150E0040F151F2801FD01018194016C
:1022E000200F351F0EE1039F102D029F110D400C92
:1022F000511E042D0E94681A052D0E94681A04E2DE
:102300000E945F1A00E00E94681A00EC0E945F1AA7
:10231000088119810F5F1F4F0883198301E0C00EE8
:1023200000E0D01E08810A151B0560F201E0800E56
:1023300000E0901E8E149F0408F04FC0BCCF88248C
:1023400099240E2D0F2909F448C0888399838A1592
:102350009B05D8F5CC24DD24E6E9F1E040815181EC
:1023600041515F4F2C9130E08601020F131F401B3B
:10237000510B2FE728193909FD010181201B30403D
:102380000EE1039F102D029F110D2A01400C511EDA
:10239000042D0E94681A052D0E94681A04E20E940A
:1023A0005F1A00E00E94681A00EC0E945F1A088120
:1023B00019810F5F1F4F0883198301E0C00E00E0F1
:1023C000D01E08810A151B0538F201E0800E00E0DE
:1023D000901E8E149F0408F4B8CF1FCDFA92EA9293
:1023E000DA92CA92BA92AA929A928A925A924A928D
:1023F000BA93AA939A938A932697D801F8010681F3
:102400001781012B09F4FBC024E030E044815581A1
:10241000440F551F440F551F70E061E08E010E5FA1
:102420001F4F0E94AA1826E330E04A815B816C812D
:102430007D8140575E4F6E4F7F4F02E917E00E944B
:10244000AA18E2E9F7E042895389E688F7889A01F9
:102450003695279536952795369527958901000F4E
:10246000111F000F111F000F111F401B510B11F006
:102470002F5F3F4FFD01068104FD11C00085002341
:1024800019F00A9539F013C080E090E05901B69434
:10249000A7940DC0C90196958795590108C000857C
:1024A00012E0019FC0015001A10E00E0B01E0681A4
:1024B00005FF03C080E090E059010091500F002318
:1024C00009F04CC0882499240E2D0F2909F497C0D7
:1024D000888399838A159B05C0F5CC24DD24E6E921
:1024E000F1E0008111810C0D1D1D4D915C91119742
:1024F000040F151F2801FD01028113819401200F93
:10250000311F0EE1039F102D029F110D400C511E33
:10251000042D0E94681A052D0E94681A04E20E9488
:102520005F1A00E00E94681A00EC0E945F1A08819E
:1025300019810F5F1F4F0883198301E0C00E00E06F
:10254000D01E08810A151B0550F201E0800E00E044
:10255000901E8E149F0408F052C0BACF882499248C
:102560000E2D0F2909F44BC0888399838A159B058A
:10257000F0F5CC24DD24E6E9F1E0408151814151C0
:102580005F4F2D913C9111978601020F131F401B45
:10259000510B2FE730E028193909FD010281138121
:1025A000201B310B0EE1039F102D029F110D2A01FC
:1025B000400C511E042D0E94681A052D0E94681AB5
:1025C00004E20E945F1A00E00E94681A00EC0E9478
:1025D0005F1A088119810F5F1F4F0883198301E07B
:1025E000C00E00E0D01E08810A151B0520F201E094
:1025F000800E00E0901E8E149F0408F4B5CF0DCC21
:102600007A926A925A924A92BA93AA939A938A9326
:102610002497D8017724F80165800091E107002311
:1026200051F0E1EEF7E0018112810A171B0719F45E
:1026300001E00093CA100CE3E3EAF0E10083718249
:1026400070929107E8ECF7E0008111812091F90E7A
:1026500032E0239FF001E552FE4F208131810217C5
:10266000130790F4E3EAF0E100811181012B61F49A
:1026700001E00E94C70A01E00093910700EC18EA0C
:10268000E3EAF0E100831183E5E9F0E100811181E3
:10269000012B11F000E0A0C20091CA10002309F440
:1026A000E2C10CE3E3EAF0E1008371820091FB0EEA
:1026B000E5E7F3E0008371822081318108EE13E0C9
:1026C000129F102D039F100D029F110D0082118388
:1026D000E8ECF7E0008111812091F90E32E0239FB0
:1026E000F001E552FE4F208131810217130758F4A3
:1026F000E8ECF7E02083318304EF11E0E5E9F0E155
:1027000000831183C7CFFD01038100FFC3CF24E005
:1027100030E00281029FA00170E061E08E010E9422
:10272000AA1826E330E0488159816A817B814057AD
:102730005E4F6E4F7F4F02E917E00E94AA18E2E950
:10274000F7E042895389FD01038105FD02C05695DA
:1027500047950091A8072091500F222359F42C91FE
:10276000220F220F220F422E8181420F542E080F7A
:10277000902F13C02FEE3C91330F330F330F231BD9
:10278000422E2FE73181231B822F2FEE241B241989
:10279000522E2FE7201B281B922F0091E0070023C9
:1027A000F9F4042D10E0E6EBF0E12081318102170D
:1027B0001307B0F425153040E0F4082FE4EBF0E106
:1027C0002081318102171307C8F429173040F0F433
:1027D000FD01028503950287043810F003E80287A3
:1027E000042D10E0E6EBF0E12081318102171307A0
:1027F00090F4208131812515304068F4082FE4EBF6
:10280000F0E1208131810217130728F42081318102
:102810002917304040F0FD010285033818F00A9571
:10282000028701C072860091E107002361F0E1EEAA
:10283000F7E0018112810A171B0729F404E0FD016A
:1028400002877092E107FD010285043008F4B2C0EE
:102850000F3708F073C001E00093E00702850068BD
:102860000287E7EEF7E0A083B183FD01048103FF57
:1028700010C00581002359F401E005830093E407AB
:1028800008E512E0E5EAF0E1008311833CC07582BF
:102890003AC0038102FF0DC005810023C1F701E0AA
:1028A0000583038106FF2FC008EE13E0E1E9F0E1A4
:1028B000EBCFE5EEF7E0208131812B32324001F59C
:1028C0001CE0A734B10761F400915B0C0023D9F43C
:1028D00001E0FD0105830093CC077092CD0713C082
:1028E0001CE0A635B10761F400914C0C002359F4AB
:1028F00001E0FD0105830093CD077092CC0703C072
:1029000001E0FD010583FD01038114810270127055
:10291000023020E0104011F48D01AFD87394FD0116
:10292000048103FD2AC1238534852030304009F419
:1029300024C10385F485E02F09951FC103810A7026
:10294000023009F01AC1038102FD17C0E7E9F0E186
:1029500000811181012B89F4E9E9F0E10081118105
:10296000012B59F400E500837182FD012385348534
:102970002030370511F0F9010995FD01048103FFAD
:10298000FCC0E7E9F0E100811181012B09F0F5C0FD
:10299000E9E9F0E100811181012B09F0EEC000E5C9
:1029A00000837182FD01238534852030304009F495
:1029B000E4C0BFCF03810271023009F0DEC00381A1
:1029C0000C7089F56580662071F17582E5EEF7E09F
:1029D000208131812B323240E1F41CE0A734B10771
:1029E00051F40091CC07023021F401E0FD01058390
:1029F00002C07092CC071CE0A635B10751F40091DB
:102A0000CD07023021F401E0FD01058302C0709280
:102A1000CD07FD01048101FD06C00581061519F0F1
:102A200020E08D012AD8FD01038102FFA6C00581A7
:102A3000013009F0A2C0038106FF9FC00091CA07C0
:102A400000FF09C00091CB07002309F096C020E0E9
:102A50008D0113D892C00091CB07013009F08DC0D1
:102A60008D01B2DB8AC07092E007E7EEF7E00081EB
:102A70001181A017B10711F5FD01048103FF1EC0EC
:102A80000091E4070023D1F0E5EAF0E10081118133
:102A9000012B71F0FD017582238534852030304093
:102AA00021F00385F485E02F099520E08D01B4D94C
:102AB000E7EEF7E0708271827092E407FD01038116
:102AC0000271023009F050C003810C7089F56580F5
:102AD000662071F17582E5EEF7E0208131812B32BD
:102AE0003240E1F41CE0A734B10751F40091CC0767
:102AF000023021F401E0FD01058302C07092CC0791
:102B00001CE0A635B10751F40091CD07023021F445
:102B100001E0FD01058302C07092CD07FD01048133
:102B200001FD06C00581061519F020E08D0174D95C
:102B3000FD01038102FF18C005810130A9F4038162
:102B400006FF12C00091CA0700FF08C00091CB0722
:102B5000002351F420E08D015FD906C00091CB071E
:102B6000013011F48D0130DBFD010285002311F0ED
:102B70000A95028702850F770287FD0103810271A2
:102B8000023049F50581601631F101300681178167
:102B90002085318559F4ECE4F7E040815181628170
:102BA0007381402B512B622B732B0EC00095109517
:102BB00020953095ECE4F7E040815181628173818A
:102BC00040235123622373234083518362837383A1
:102BD000048101600483072D249689919991A9911C
:102BE000B9914990599069907990089589919991F6
:102BF000A991B9910895BA93AA939A938A93A897A1
:102C0000C801D9010E94DC1833E020E008EB11E094
:102C10000E94870B24E030E0AC01BD0149595F4FB1
:102C20006F4F7F4F0DE710E10E94AA1841E02DE79A
:102C300030E18E010E94BE5533E02BE08E010E94F0
:102C4000870B34E020E004EC11E00E94870B24E0C5
:102C500030E085599F4FAF4FBF4FAC01BD010DE72D
:102C600010E10E94AA1841E02DE730E18E010E9498
:102C7000BE5534E02BE08E010E94870BA896B6CF9C
:102C8000AA939A938A9380E090E00E94221A00E02F
:102C90000E94C70A0E942B0B0CE90E945F1A01E0F8
:102CA0000E94990A20E006E613E0B6D800E00E94F0
:102CB000C70A0E940D580091CA10002391F040E00D
:102CC00039E005EA16EC20E00E94AF0B0E940D5897
:102CD00004C00E940D580E94DC180091CA10002305
:102CE000C1F70E946F0B40E030E005EB15EC20E0EF
:102CF0000E94AF0B41E030E00DED15EC20E00E94AA
:102D0000AF0B42E030E005E016EC20E00E94AF0B94
:102D100000E01EED21E030E06EDF35E020E000ED68
:102D200011E00E94870B40E024E03FE001E617E05D
:102D30000E94075435E029E001E617E00E94870B66
:102D400027E630E040E05EED61E070E001E617E08C
:102D50000E94AA1836E020E001E617E00E94870BE7
:102D600000ED17E0E5E8F0E10083118304E6E3E815
:102D7000F0E100838183A0E02CC00E94DC18E3E82E
:102D8000F0E100811181012B21F504E610E00083C0
:102D900011830E94DC1837E02A2F09ED11E00E9410
:102DA000870B0E940D580091CA10002309F001966C
:102DB0008A3000E0900760F0E5E8F0E100830183ED
:102DC000E3E8F0E1008301830E946F0B0E94581B2F
:102DD000A395E5E8F0E100811181012B71F60E94D5
:102DE000450B0E946F0B04EF11E0EFE8F0E1008368
:102DF00011830091FB0E10E0E5E7F3E000831183FF
:102E00002081318108EE13E0129F102D039F100DD9
:102E1000029F110D0082118300E010E0E3E8F0E171
:102E2000008301830CE3E3EAF0E1008311838991DD
:102E30009991A99108952FEFF80120832183089596
:102E4000F801008111810095109500831183089588
:102E50000D01BC01FA01422F432B01F1D801C90138
:102E60000D912081318120272083318328E000814A
:102E700000FF0BC0402F51815695479508E014E89C
:102E8000402751274083518305C01181169507952E
:102E9000008311832A9559F7019711F7CB01D001CF
:102EA00008957A926A925A924A92BA93AA939A93FE
:102EB0008A93D80100E010E020E030E0FD010680B8
:102EC00043E0042281E090E017C0FC01E051FE4F96
:102ED000408160E070E0040F151F251F351F0020A2
:102EE00039F48130950721F40F5F1F4F2F4F3F4F6B
:102EF00001968D30950768F4FD01458150E0481733
:102F0000590719F7448160E070E0040F151F251F71
:102F1000351F88E090E0FD014681493080F003597B
:102F20001E4F2F4F3F4F482F437021F40F5F1F4F0D
:102F30002F4F3F4F019646818417950780F3280154
:102F4000390147E00E94055A47E02224439F702D33
:102F5000429F602D710D419F502D610D721D409F4C
:102F6000510D621D721D820193010019150B260B74
:102F7000370B0F5F1F4F2F4F3F4F0830104020403F
:102F8000304008F00750EA2F038389919991A99165
:102F9000B9914990599069907990089500913C10A9
:102FA0000A3529F400913D100093DC0F08950B358C
:102FB00089F4ECE3F0E103811481E5E2F0E10083C0
:102FC0001183E1E5FFE005AB16ABEBEAFFE0008320
:102FD00011830895033031F500913D100093DC0F0B
:102FE00000913E1000938E0F0093B30FECE3F0E1DD
:102FF00001851285EDE4FFE000831183E1E5FFE048
:1030000004871587ECE3F0E103811481E1E5FFE03B
:1030100005AB16ABEBEAFFE00083118300E0009301
:10302000A30F058F089503E000933C100091DC0F7F
:1030300000933D1000918E0F00933E10E1E5FFE0FC
:1030400005A916A9ECE3F0E10383148300917F0F37
:1030500012E0019FF001EF5AF04F02891389ECE36F
:10306000F0E10583168300E007830087E1E5FFE0D8
:1030700004851585ECE3F0E10187128700E0038702
:10308000048705870687089500E00FBD09E00EBD9F
:1030900000E000937A0002E514E01BBD0ABD00E0E9
:1030A0000DBD0CBD07B7006107BF08959A938A93C1
:1030B000FA93EA933A922A921A920A927A936A932C
:1030C0005A934A933A932A931A930A938FB79BB7CA
:1030D0000E944E569BBF8FBF09911991299139913A
:1030E0004991599169917991099019902990399054
:1030F000E991F9918991999118954A92BA93AA9375
:103100009A938A93D801C901442359F0442EFD01B2
:103110000191DF01AC010E94B3594ED001964A944F
:10312000B1F789919991A991B991499008954A92DD
:10313000BA93AA939A938A93D801C901442349F078
:10314000442EAC010E94A7590D9336D001964A94A3
:10315000C1F7E7CF1C01C90120E0382F392B71F0EE
:10316000FA011124E20FF11D6BBF0690F8010192E4
:103170008F01239530E02817390790F3C101089596
:10318000080100E0162F172B71F0F00110E0E00F9E
:10319000F11F2BBF1691FA011193AF01039510E0B7
:1031A0000617170790F30895C498BC9A089508E18C
:1031B00001BD08E001BDFFCFC49A0000C498A895E6
:1031C00008950091650001600093650008950091E5
:1031D00065000E7F009365000895009165000E7FE5
:1031E00000936500009164000160009364000895FD
:1031F0002FEF33E0201B310B3093870020938600A4
:103200000895949A0895949808950C94EA080C945B
:103210001A0940E050E00056194020403040C1F10A
:10322000005619402040304089F1005C1241204096
:10323000304051F1005C12412040304019F1005CF7
:10324000124120403040E1F000581542204030400B
:10325000A9F0005815422040304071F000501B4446
:103260002040304039F00050114E2040304091F461
:1032700045E010C04BE00EC041E10CC047E10AC080
:1032800043E208C04FE206C047E404C04FE802C072
:103290004FE151E08C9A9498509398004093990094
:1032A00008E900939A000EE000939D0000E200936D
:1032B0009C0008959A938A93FA93EA933A922A92F9
:1032C0001A920A927A936A935A934A933A932A9358
:1032D0001A930A938FB79BB79ADFFCCE00939C009A
:1032E000089500919C00089500919B0006FF02C084
:1032F00001E0089500E0089500919B0000640093B0
:103300009B0008951895BF9AC798009164000260C9
:1033100000936400009165000D7F00936500139A8F
:1033200000E010E0009389000093880003EC009314
:103330008B0001E000938A0010938C0010938500AD
:1033400010938400109383001093820006E0009392
:10335000510F04E10093520F02E00093530F04E079
:103360000093540F08958898909A919807B3076036
:1033700007BBBB9808B3097F08BBC09A03E50DB92A
:1033800001E00EB9089508954A92BA93AA939A93C8
:103390008A93A02F412E0FB10FB1C09884EF91E016
:1033A000F2DF0197E9F7A368AFB9779BFECF0FB1C2
:1033B00000E00FB9779BFECF0FB1A02F03E8402AA2
:1033C0004FB8779BFECF0FB1BA2FA02FB695A79518
:1033D000B695A795B695A79500E00FB9779BFECF58
:1033E0000FB184EF91E0CFDF0197E9F7C09ACBDF0F
:1033F000CADFC9DFC8DFBF708D0193CE01E005BF12
:1034000000E005BF08E101BD00E001BD00937400CC
:103410000EEF00936A0000E009BF04B3007E04BB16
:1034200005B30F6105BBBF9A089503B30F710095F3
:103430000F710895B79B02C0C7980895C79A089561
:103440007894089504EF03B902B1046F02B900E063
:10345000009361001B9A1A980AE010E00E94FF573F
:103460001A9A0AE010E00E94FF571E9808958A9366
:103470001FEF109361001C980093620083E083DFCC
:103480008A95E9F71C9A899108958A9300E0009340
:1034900061001D9883E077DF8A95E9F700B11D9AF6
:1034A000899108951F9AF1CF8A93802F01C084DEFD
:1034B000F9DF08230817D9F701E0899108958A9365
:1034C000802F03E0F1DF1F9A082FD1DF8991089543
:1034D0008A93802F03E0E8DF1F98F6CF20917100D8
:1034E0002E7F20937100209171002D7F2093710019
:1034F000A80103E31BE20E94D159003138F010E02B
:103500000051104042E050E00E94E95900937000E1
:103510000895009174000F70006A0093740008957C
:10352000009174000F70006D00937400089501C045
:10353000A8950091740007FFFBCF089500937300D6
:10354000009174000F70006800937400089520913A
:103550007400002311F000E401C000E02F70202B64
:10356000206820937400089500917100087F0895E9
:1035700000E911E0B3DF04E00093740008958A923B
:103580007A926A925A924A92BA93AA939A938A9397
:10359000602E2901712EDA01862E81E090E00091E3
:1035A00074000E7F00937400B4DFC1DF0EEF0621BC
:1035B000C5DFBDDFD9DF083111F08EE31AC0072D5A
:1035C0007A94002349F0F20101912F01B7DFAFDFB8
:1035D000CBDF0832A1F30CC0082D8A94002351F0F0
:1035E000FD010191DF01AADFA2DFBEDF0832A1F3F6
:1035F0008DE39EEF95DF0091740004FDFCCF8C01FC
:1036000089919991A991B99149905990699079902E
:10361000899008958A927A926A925A924A92BA93BB
:10362000AA939A938A93602E2901812EDA01762E2D
:1036300081E090E0009174000E7F0093740069DFD8
:1036400076DF8820D1F0062D0E7F78DF70DF8CDFEB
:10365000083119F08EE39EEF25C0082D8A940023CF
:1036600051F0F20101912F0169DF61DF7DDF083246
:10367000A1F38CE3F0CF4DDF5ADF01E006295EDFD6
:1036800056DF72DF003461F08EE39EEF09C07A945A
:10369000072D5DDF4CDF00917300FD010193DF0119
:1036A0007720A9F73DDF0091740004FDFCCFA7CF80
:1036B0008A927A926A925A924A92BA93AA939A9367
:1036C0008A936C9700E00093CA100E940D580091F5
:1036D000CA10002391F040E039E005EA16EC20E042
:1036E0000E94AF0B0E940D5804C00E940D580E940A
:1036F000DC180091CA100023C1F70E946F0B04E68A
:1037000010E00E94FF570E94DC180E94670C0E9484
:103710006F0B40E033E00DE216EC20E00E94AF0BAF
:1037200041E033E005E516EC20E00E94AF0B20E01D
:1037300003E012E00E943D0D00E00093CA1002E396
:1037400010E0E3E9F0E10083118388244424552448
:103750006624772480E090E0A0E0B0E00E94DC18CE
:103760000E94DC180E940D580091CA100023C1F37A
:10377000EEEBF0E10081118120E030E00E947B5A05
:10378000A801B9018C019D010E94CF5AC801D9013D
:10379000ECEBF0E10081118120E030E00E947B5AE7
:1037A000A201B3010E94CF5A2801390183940AE093
:1037B0008016B0F240E050E060E271E48C019D01BF
:1037C0000E94A95B0E947D5A0883198340E050E063
:1037D00060E271E4820193010E94A95B0E947D5A1C
:1037E0000C831D830E94DC1832E025E00DEF11E010
:1037F0000E94870B40E09E018E01085F1F4F0E94D0
:10380000B05332E027E08E01085F1F4F0E94870B04
:1038100033E025E000E012E00E94870B40E09E01CB
:103820002C5F3F4F8E01085F1F4F0E94B05333E063
:1038300027E08E01085F1F4F0E94870B20E002E106
:1038400012E00E943D0D44E033E00DE716EC20E06D
:103850000E94AF0B08EE13E00E94FF5702E310E056
:10386000E3E9F0E10083118388244424552466248D
:10387000772480E090E0A0E0B0E00E94DC180E9495
:103880000D580091CA100023C1F3EEEBF0E1008166
:10389000118120E030E00E947B5AAC01BD010E9402
:1038A000CF5AC801D901ECEBF0E10081118120E091
:1038B00030E00E947B5AA201B3010E94CF5A280136
:1038C000390183940AE08016C0F240E050E060E2E3
:1038D00071E48C019D010E94A95B0E947D5A0A83BC
:1038E0001B8340E050E060E271E4820193010E949A
:1038F000A95B0E947D5A0E831F8335E025E00DEF02
:1039000011E00E94870B40E09E012E5F3F4F8E0129
:10391000085F1F4F0E94B05335E027E08E01085F1B
:103920001F4F0E94870B36E025E000E012E00E9466
:10393000870B40E09E012A5F3F4F8E01085F1F4FBB
:103940000E94B05336E027E08E01085F1F4F0E94AF
:10395000870B0A811B8128813981021B130B20E010
:1039600030E00E947B5AA801B90100E010E028E590
:1039700033E40E94A95BE1EEFEE000831183228321
:1039800033830E811F812C813D81021B130B20E0AC
:1039900030E00E947B5AA801B90100E010E020ED60
:1039A00032E40E94A95BE1EEFEE0048315832683E6
:1039B00037830881198120E030E00E947B5AC801DA
:1039C000D901E1EE408151816281738100E010E014
:1039D00020E331E40E94A95BA801B9018C019D019B
:1039E0000E94135B0E947D5AE1EEFEE00087118782
:1039F000228733870C811D8120E030E00E947B5AB2
:103A0000C801D901E1EE448155816681778100E0EA
:103A100010E020E331E40E94A95BA801B9018C0108
:103A20009D010E94135B0E947D5AE1EEFEE0008B37
:103A3000118B228B338B00ED17E00E94FF570E9401
:103A400055520E946F0B02E112E00E94E41003E065
:103A500012E00E94E4106C9689919991A991B99114
:103A60004990599069907990899008950091BA028F
:103A70000023D1F000913B0C0F3100F5EBE3FCE0AB
:103A80000395008310E0F801E55CF74F0081002307
:103A900011F410933B0CE0913B0CF0E0E55CF74F28
:103AA00000810093BA020AC000E000933B0C009131
:103AB0003B080093BA0200E000933C0C63C0009105
:103AC0004C0C013041F001E000934C0C20E007E485
:103AD0001CE00E943D0D00915B0C002341F000E0D2
:103AE00000935B0C20E006E51CE00E943D0D3EC00B
:103AF00000914C0C002341F000E000934C0C20E0BE
:103B000007E41CE00E943D0D00915B0C013041F088
:103B100001E000935B0C20E006E51CE00E943D0DF7
:103B200025C000914C0C002341F000E000934C0CA8
:103B300020E007E41CE00E943D0D00915B0C002397
:103B400041F000E000935B0C20E006E51CE00E94E1
:103B50003D0D00916A0C013041F001E000936A0CC8
:103B600020E005E61CE00E943D0D0CC000916A0CAF
:103B7000002341F000E000936A0C20E005E61CE021
:103B80000E943D0D00E0EBE8F0E100830183089521
:103B9000E1E5FFE005A916A90F5F1F4F05AB16ABC6
:103BA000043F21E011401CF004EF05AB26AB04EF0D
:103BB000E1EAF0E10083218300913C0C002319F439
:103BC00002E300937C03DECFE1E5FFE005A916A93F
:103BD0000150104005AB16AB0D302EEF1E4F1CF4FC
:103BE0000CE005AB26AB04EF11E0E1EAF0E1008365
:103BF0001183E2CF7A926A924A92BA93AA939A93E5
:103C00008A93E1EAF0E100811181012B99F581E0CD
:103C100090E0A0E0B0E00EE1602E0DE0702E07E035
:103C2000402EF301108100E00083E1E5FFE04085D4
:103C3000518562857385482359236A237B23452B4D
:103C4000462B472B19F001E0F3010083880F991FE1
:103C5000AA1FBB1FF3010081101731F020E0830180
:103C6000055010400E943D0D0FE0600E00E0701EF8
:103C70004A94B9F689919991A991B991499069901D
:103C8000799008957A926A924A92BA93AA939A93F3
:103C90008A93E1EAF0E100811181012BA9F581E02D
:103CA00090E0A0E0B0E005EB602E0CE0702E07E0A5
:103CB000402EF301108100E00083E1E5FFE0448144
:103CC000558166817781482359236A237B23452BBD
:103CD000462B472B19F001E0F3010083880F991F51
:103CE000AA1FBB1FF301E759FF4F0081101731F0E6
:103CF00020E08301055010400E943D0D0FE0600E52
:103D000000E0701E4A94A9F6B5CF442359F0E1E5CE
:103D1000FFE04085518562857385402B512B622BD6
:103D2000732B0EC00095109520953095E1E5FFE0CE
:103D30004085518562857385402351236223732317
:103D4000408751876287738704EF11E0E1EAF0E171
:103D50000083118300913C0C002319F405E30093C8
:103D60007C03089540911E0D01E00FC040912D0D80
:103D700002E00BC040913C0D04E007C040914B0DA8
:103D800008E003C040915A0D00E110E020E030E06F
:103D9000BCCF4091690D00E2F8CF4091780D00E46E
:103DA000F4CF00E000937F0300937B0300937C0338
:103DB0000CE30093AC1007E41CE0E3E0FAEB30E026
:103DC0004FE050E00E944E5C06E51CE0E4EFF9EBAA
:103DD00030E04FE00E944E5C05E61CE0E5EEF9EBBA
:103DE00030E04FE00E944E5C04E71CE0E9EAF9EBAA
:103DF00030E04FE00E944E5C03E81CE0EAE9F9EB9A
:103E000030E04FE00E944E5CE7E4FCE053835483D3
:103E1000528B538B51A352A350AB51ABE6E8FCE05D
:103E20005083518302E91CE0E4EEFAEB30E04FE00E
:103E30000E944E5C01EA1CE0E3EFFAEB30E04FE059
:103E40000E944E5C00EB1CE0E2E1FAEB30E04FE058
:103E50000E944E5C0FEB1CE0E1E2FAEB30E04FE039
:103E60000E944E5C0EEC1CE0E0E3FAEB30E04FE029
:103E70000E944E5C0DED1CE0EFE3FAEB30E04FE00A
:103E80000E944E5C0CEE1CE0EEE4FAEB30E04FE0FA
:103E90000E944E5C0BEF1CE0EDE5FAEB30E04FE0EA
:103EA0000E944E5C0AE01DE0ECE6FAEB30E04FE0E9
:103EB0000E944E5C09E11DE0EBE7FAEB30E04FE0D9
:103EC0000E944E5C08E21DE0EAE8FAEB30E04FE0C9
:103ED0000E944E5C07E31DE0E9E9FAEB30E04FE0B9
:103EE0000E944E5C06E41DE0E8EAFAEB30E04FE0A9
:103EF0000E944E5C05E51DE0E7EBFAEB30E04FE099
:103F00000E944E5C04E61DE0E6ECFAEB30E04FE088
:103F10000E944E5C03E71DE0E5EDFAEB30E04FE078
:103F20000E944E5C01E000934C0C09E01EE0E8E3C7
:103F3000FBEB30E049E00E944E5C02E11EE0EFE264
:103F4000FBEB30E049E00E944E5C0BE11EE0E6E254
:103F5000FBEB30E049E00E944E5C04E21EE0EDE144
:103F6000FBEB30E049E00E944E5C0DE21EE0E4E134
:103F7000FBEB30E049E00E944E5C06E31EE0EBE024
:103F8000FBEB30E049E00E944E5C0FE31EE0E2E014
:103F9000FBEB30E049E00E944E5C08E41EE0E7E7FE
:103FA000FBEB30E049E00E944E5C01E51EE0EEE6EE
:103FB000FBEB30E049E00E944E5C0AE51EE0E5E6DE
:103FC000FBEB30E049E00E944E5C03E61EE0ECE5CE
:103FD000FBEB30E049E00E944E5C0CE61EE0E3E5BE
:103FE000FBEB30E049E00E944E5C05E71EE0EAE4AE
:103FF000FBEB30E049E00E944E5C0EE71EE0E1E49E
:10400000FBEB30E049E00E944E5C07E81EE0E6EB87
:10401000FBEB30E049E00E944E5C00E91EE0EDEA77
:10402000FBEB30E049E00E944E5C09E91EE0E4EA67
:10403000FBEB30E049E00E944E5C02EA1EE0EBE957
:10404000FBEB30E049E00E944E5C0BEA1EE0E2E947
:10405000FBEB30E049E00E944E5C04EB1EE0E9E837
:10406000FBEB30E049E00E944E5C0DEB1EE0E0E827
:10407000FBEB30E049E00E944E5C04E6EBE8F0E147
:104080000083418320E008C04AE009E0029FF0017C
:10409000E75FF14F40872395009131022017A0F38D
:1040A00050933B0C00913B080093BA0208958A9309
:1040B00007E41CE0E6EDF9EB30E04FE050E00E9451
:1040C0004E5C06E51CE0E7ECF9EB30E04FE00E94C7
:1040D0004E5C05E61CE0E8EBF9EB30E04FE00E94B7
:1040E0004E5C04E71CE0E9EAF9EB30E04FE00E94A7
:1040F0004E5C03E81CE0EAE9F9EB30E04FE00E9497
:104100004E5C80E009C029E0289F09E01EE0000D18
:10411000111D0E94EE11839500913102801798F3D2
:104120000E94670C0E946F0B899108959A938A935D
:10413000EBE8F0E100811181012B09F008C204E6EF
:1041400010E000831183E9E8F7E00081118122810A
:104150003381012B022B032B09F0F9C14BDD92DDDA
:104160000091AD10002321F400E00093BA027EDC40
:104170000CE30093AC1000E00093A30F01E0009368
:10418000C80FE1E5FFE022893389283E03E03007CC
:1041900014F027EE33E009E01EE0E9EEF7E00083DB
:1041A0001183F801008533235AF41AE0E9EEF7E0B1
:1041B0004081F181E42F108731952195304007C06F
:1041C0001BE0E9EEF7E04081F181E42F1087C9019F
:1041D00010913C0C112339F010E1E9EEF7E0208159
:1041E000F181E22F1087E9EEF7E020813181F901BA
:1041F0001085011719F089010E941D0F02E11EE0D0
:10420000E9EEF7E00083118344E650E08C010E9460
:10421000D159202F04E6029F80199109E9EE00810F
:104220001181F80100854091E907512F20871091F5
:104230003C0C112311F010E110871085011719F0C3
:104240008A010E941D0F04E21EE0E9EEF7E0008300
:104250001183F80100851CE0E9EEF7E0208131814F
:10426000F901108710913C0C112311F010E1108717
:104270001085011719F089010E941D0F0BE11EE046
:10428000E9EEF7E0008311834AE050E08C010E94E0
:10429000D159202F0AE0029F8019E9EE0081118197
:1042A000F80100854091E907512F208710913C0CBF
:1042B000112311F010E110871085011719F08A0100
:1042C0000E941D0F0DE21EE0E9EEF7E0008311836E
:1042D000F80100852091E907808710913C0C11239B
:1042E00011F010E110871085011721F0022F1F2F08
:1042F0000E941D0F06E31EE0E9EEF7E00083118344
:10430000E091E907FEE000851FE0E9EEF7E020819B
:104310003181F901108710913C0C112311F010E14B
:1043200010871085011719F089010E941D0FE1E522
:10433000FFE025A936A908E41EE0E9EEF7E00083D6
:104340001183F801008533235AF41AE0E9EEF7E00F
:104350004081F181E42F108731952195304007C0CD
:104360001BE0E9EEF7E04081F181E42F1087C901FD
:10437000E9EEF7E020813181F9011085011719F08C
:1043800089010E941D0F01E51EE0E9EEF7E00083C0
:10439000118344E650E08C010E94D159202F04E69D
:1043A000029F80199109E9EE00811181F8010085D1
:1043B0004091E907512F2087021719F08A010E94C6
:1043C0001D0F03E61EE0E9EEF7E000831183F8011C
:1043D00000851CE0E9EEF7E020813181F9011087CA
:1043E0000C3019F089010E941D0F0AE51EE0E9EE6C
:1043F000F7E0008311834AE050E08C010E94D1591C
:10440000202F0AE0029F8019E9EE00811181F80156
:1044100000854091E907512F2087021719F08A0182
:104420000E941D0F0CE61EE0E9EEF7E00083118309
:10443000F80100852091E9078087081719F0022FFD
:104440000E941D0F05E71EE0E9EEF7E000831183EF
:10445000E091E907FEE000851FE0E9EEF7E020814A
:104460003181F90110870F3019F089010E941D0F69
:10447000EFEDF7E0008103FF6AC0077F008360E390
:1044800052E040E02AE537E002EF17E00E94625474
:1044900021E232E002EF17E00E94255660E352E08D
:1044A00040E02BE537E00AE118E00E9462542AE17F
:1044B00038E002EF17E00E94255623E232E002EFD7
:1044C00017E00E94255660E352E040E02CE537E01B
:1044D0000AE118E00E9462542AE138E002EF17E096
:1044E0000E94255627E232E002EF17E00E9425568F
:1044F00060E352E040E028E537E00AE118E00E947E
:1045000062540091CA072AE138E000FF07C002EFB9
:1045100017E00E94255629E232E006C002EF17E0BC
:104520000E94255627E232E002EF17E00E9425564E
:1045300060E352E040E027E537E00AE118E00E943E
:1045400062542AE138E002EF17E00E942556899173
:10455000999108950E94580400914605002319F08E
:10456000043009F0AAC100914705002309F061C099
:1045700000914305013009F05CC000E00093430561
:10458000E1E8F3E00281138146E00E94CB59025238
:1045900029F0005189F1025051F04BC006E517E0B7
:1045A000EAE8F3E047E050E00E94435C42C0E1EA01
:1045B000F0E100811181012BE1F5EAE8F3E00181EE
:1045C0000093DC0F028100938E0F03811481E1E5DB
:1045D000FFE005AB16ABEAE8F3E005811681ECEEEF
:1045E000F7E000831183EAE8F3E007811085ECEE41
:1045F000F7E0028313831DC0E1EAF0E1008111813D
:10460000012BB9F442E050E02AE833E007E610E17C
:104610000E945C5C40918C0350E02DE833E0E7E6BB
:10462000F0E16081718101E51FE0060F171F0E9414
:104630005C5C0091AF10002309F03FC1E8EAF0E1B3
:1046400000811181012B59F40091A710002339F04A
:1046500008EC00937B0300E00093A71009C00091D1
:104660007C03002329F000937B0300E000937C038C
:104670000091EB07002371F000E00093EB070E942C
:10468000CE1704E600937B0304EF11E0E1EAF0E1CA
:1046900000831183009140050023D9F000E00093CE
:1046A000400506E114E0EBEAF4E045E950E00E9441
:1046B000435C01E0009342054093450500934605A5
:1046C0004093430540934405409347054093480574
:1046D0000895E1E8F0E100811181012B09F0EDC0BE
:1046E00000917B030023B9F10A9509F440C00A95B3
:1046F00009F449C00A9509F454C00A9509F44AC05E
:104700000A9509F457C00D5209F45DC00A9509F4E1
:1047100066C00A9509F46CC00A9509F475C00F5279
:1047200009F47EC00A9509F487C00A9509F499C076
:104730000A9509F49AC00A9509F49BC00A9509F4F0
:104740009CC00A9509F49DC00A9509F49EC00A957B
:1047500009F49FC069C0EBE7F3E0039500831EE214
:1047600021E53FE00091BA020E94C9021FC0EBE7B9
:10477000F3E00081039500831091BA020091BA0220
:104780000E941D0113C000E000937B0312E026E8A5
:104790003FE0E8CF1FE229EC3FE00091BA020E941F
:1047A000C902EBE7F3E00081039500830AE0009380
:1047B000AF10089541E02DE43FE010E00091BA020F
:1047C0000E94D701EECF12E026E83FE00091BA0246
:1047D0000E94690200E000937B0302E339C041E0DC
:1047E0002DE43FE010E00091BA020E94D701F2CF21
:1047F00011E02EE83FE00091BA020E94690200E059
:1048000000937B0302E324C014E029E53FE000911C
:10481000BA020E94690200E000937B0302E3C7CF63
:104820000091AE10002321F000E000937B03089577
:1048300017E125E230E103C011E02CED3FE001E09B
:104840000E946902EBE7F3E00081039500830AE030
:104850000093AF1008EB1BE0E8EAF0E1008311835E
:10486000089512E026E83FE0EACF12E02BEA3FE0AD
:10487000E6CF11E023EA3FE0E2CF11E028EC3FE091
:10488000DECF11E02EE83FE0DACF11E023EB3FE08E
:10489000D6CF41E02DE43FE010E00091BA020E9443
:1048A000D7010EE600937B0302E30093AF1008EB01
:1048B0001BE0E8EAF0E10083118308950091BA0259
:1048C0000E9424020AE00093AF10089500E00093D4
:1048D0007F0300937B0300937C0307E41CE0E6ED79
:1048E000F9EB30E04FE050E00E944E5C06E51CE042
:1048F000E7ECF9EB30E04FE00E944E5C05E61CE08F
:10490000E8EBF9EB30E04FE00E944E5C04E71CE07E
:10491000E9EAF9EB30E04FE00E944E5C03E81CE06E
:10492000EAE9F9EB30E04FE00E944E5C02E91CE05E
:10493000EFEBFBEB30E04FE00E944E5C01EA1CE045
:10494000EEECFBEB30E04FE00E944E5C00EB1CE035
:10495000EDEDFBEB30E04FE00E944E5C0FEB1CE016
:10496000ECEEFBEB30E04FE00E944E5C0EEC1CE006
:10497000EBEFFBEB30E04FE00E944E5C01E0009378
:104980005B0C08958A9380E009C029E0289F09E024
:104990001EE0000D111D0E94EE11839500913E0254
:1049A000801798F30E94670C89910895EBE8F0E175
:1049B00000811181012B21F404EF11E000831183A8
:1049C00008950E946F0B02E300937C03089502E0B8
:1049D00000937F0300E000937B0300937C0307E4D4
:1049E0001CE0E6EDF9EB30E04FE050E00E944E5C59
:1049F00006E51CE0E7ECF9EB30E04FE00E944E5C8E
:104A000005E61CE0E8EBF9EB30E04FE00E944E5C7D
:104A100004E71CE0E9EAF9EB30E04FE00E944E5C6D
:104A200003E81CE0EAE9F9EB30E04FE00E944E5C5D
:104A300002E91CE0EBEEFCEB30E04FE00E944E5C44
:104A400001E000936A0C08958A9380E009C029E090
:104A5000289F09E01EE0000D111D0E94EE118395B4
:104A600000913E02801798F30E94670C0E946F0B22
:104A7000899108959A938A932197EBE8F0E1008158
:104A80001181012B09F002C104EF11E000831183B1
:104A9000E9E8F7E00081118122813381012B022BAB
:104AA000032B09F0F3C000913C0C002309F0EEC089
:104AB00080E093E0282F09E0029FF001E850F04FDA
:104AC00000811181012B09F4D2C060E352E040E083
:104AD0002EEF3FE0200D311D01E617E00E946254E9
:104AE0000FE20093630700E000936407392F20E092
:104AF00001E617E00E94870B60E352E040E02FEFF1
:104B00003FE0282E09E0029D200D311D01E617E04F
:104B10000E9462540FE20093630700E00093640771
:104B2000392F23E001E617E00E94870B60E352E093
:104B300040E020E030E1282E09E0029D200D311DEB
:104B400001E617E00E946254392F26E001E617E0E3
:104B50000E94870B60E352E040E02CEF3FE0282EFC
:104B600009E0029D200D311D01E617E00E9462540C
:104B70000AE30093630700E000936407392F29E0FC
:104B800001E617E00E94870B60E352E040E02BEF64
:104B90003FE0282E09E0029D200D311D01E617E0BF
:104BA0000E9462540AE30093630700E000936407E5
:104BB000392F2CE001E617E00E94870B60E352E0FA
:104BC00040E02AEF3FE0282E09E0029D200D311D34
:104BD00001E617E00E946254392F2FE001E617E04A
:104BE0000E94870B282F09E0029FF001E850F04F48
:104BF0000181088360E352E040E09E0101E617E096
:104C00000E946254392F22E101E617E00E94870BCF
:104C1000282F09E0029FF001E850F04F008108833F
:104C200060E352E040E09E0101E617E00E9462541A
:104C3000392F25E101E617E00E94870B492F4395A4
:104C400030E0682F09E0069FF001E850F04F118135
:104C5000012F110F110B69E1619F702D609F710D84
:104C60000AE01CEB20E0000D171F0E94AF0B282F5D
:104C700009E0029FF001E850F04F00811181012B03
:104C800029F083959E5F853008F414CF2196899191
:104C9000999108950E94580400914605002319F047
:104CA000043009F09CC0009147050023C1F5009134
:104CB00043050130A1F500E000934305E1E8F3E08E
:104CC0000281138146E00E94CB59065101F10C513B
:104CD00031F5E1EAF0E100811181012B01F542E0BB
:104CE00050E02AE833E007E610E10E945C5C409166
:104CF0008C0350E02DE833E0E7E6F0E1608171815C
:104D000001E51FE0060F171F0E945C5C08C008EF5A
:104D10001FE0EAE8F3E04DE250E00E94435C0091BE
:104D2000AF10002309F05BC000917C03002329F041
:104D300000937B0300E000937C0300914005002377
:104D4000D9F000E00093400506E114E0EBEAF4E05E
:104D500045E950E00E94435C01E000934205409326
:104D60004505009346054093430540934405409311
:104D70004705409348050895E1E8F0E1008111817D
:104D8000012B69F500917B03002319F0025371F0A8
:104D900023C0EBE7F3E0039500831DE228EF3FE03B
:104DA0000091BA020E94C90204E613C04DE250E02D
:104DB00020E030E008EF1FE00E946A5C00E0009312
:104DC0007B031DE228EF3FE00091BA020E946902D6
:104DD00002E30093AF10089500E000937B03089571
:104DE0009A938A93229742E030E00AEF1CEB20E08E
:104DF0000E94AF0B00E00093F20780E007C025E5BA
:104E000032E002EF17E00E94255683950091510F82
:104E10008017C8F4E1E5FFE0048015802680378024
:104E2000482F01E010E00E94C559212F220F220BCC
:104E30000022112222223222012802280328F9F21C
:104E400022E532E0DECF32E023E002EF17E00E94FD
:104E5000870B43E030E00EE01DEB20E00E94AF0B3B
:104E600000E00093F20780E013C025E532E002EF96
:104E700017E00E94255600913208081741F402EF0E
:104E800017E00E94C35C13E003950E941F0B8395FB
:104E90000091520F8017C8F4E1E5FFE0008411840F
:104EA00022843384482F01E010E00E94C559212F4D
:104EB000220F220B00221122222232220128022854
:104EC000032899F222E532E0D2CF33E023E002EF6B
:104ED00017E00E94870B44E030E002E21DEB20E087
:104EE0000E94AF0B00E00093F2079091530F9430B3
:104EF00008F093E080E0992359F1282F30E00091E9
:104F0000540F200F331F220F331FF901EF5AF04FB8
:104F100004851585088319830881083E23E0134022
:104F20001CF007EE088329839E010AE118E00E9425
:104F3000BA542AE138E002EF17E00E94255628E52E
:104F400032E002EF17E00E94255683958917A8F2F8
:104F500034E023E002EF17E00E94870B45E030E0E9
:104F600006E31DEB20E00E94AF0B00E00093F20788
:104F700080E02AC02DE53FE002E0809F200D311D3A
:104F80000AE118E00E9461552AE138E002EF17E0DB
:104F90000E9425562091320830E00091520F10E017
:104FA000080F131F2017310741F402EF17E00E948A
:104FB000C35C15E00E5F0E941F0B28E532E002EF94
:104FC00017E00E94255683950091540F801790F2A8
:104FD00035E023E002EF17E00E94870B2091520F8B
:104FE00030E00091540F200F331F0091320820173A
:104FF000304044F40091520F1091540F010F0A9564
:105000000093320822968991999108958A93229764
:10501000802F023008F0CCC200E00093F2074AE48F
:105020005DEB60E002EF17E00E943A5640E02FE7A8
:105030003FE005E2089F200D311D0AE118E00E94C3
:1050400007542AE138E002EF17E00E9425562AE5CE
:1050500032E002EF17E00E9425562DE53FE005E221
:10506000089FF001EF5AF04F46A550E00091540F11
:10507000400F551F440F551F240F351F0AE118E03C
:105080000E94BA542AE138E002EF17E00E94255648
:1050900032E020E002EF17E00E94870B0091320817
:1050A000002321F412E003E00E941F0B00E00093B4
:1050B000F2074EE55DEB60E002EF17E00E943A5622
:1050C00040E02EE83FE005E2089F200D311D0AE197
:1050D00018E00E9407542AE138E002EF17E00E942E
:1050E000255633E020E002EF17E00E94870B009185
:1050F0003208013021F413E005E00E941F0B00E0AC
:105100000093F20742E75DEB60E002EF17E00E94D8
:105110003A5626E83FE005E2089F200D311D0AE1DE
:1051200018E00E94BA542AE138E002EF17E00E942A
:10513000255634E020E002EF17E00E94870B009133
:105140003208023039F402EF17E00E94C35C14E029
:105150000E941F0B00E00093F2074AE95DEB60E05C
:1051600002EF17E00E943A5628E83FE005E2089F68
:10517000200D311D0AE118E00E9461552AE138E056
:1051800002EF17E00E94255635E020E002EF17E01D
:105190000E94870B00913208033039F402EF17E0C8
:1051A0000E94C35C15E00E941F0B00E00093F20711
:1051B0004EEA5DEB60E002EF17E00E943A5640E0F5
:1051C00020E83FE005E2089F200D311D0AE118E0CC
:1051D0000E94B0532AE138E002EF17E00E94255602
:1051E00036E020E002EF17E00E94870B00913208C2
:1051F000043039F402EF17E00E94C35C16E00E940D
:105200001F0B00E00093F20742E05FEB60E002EF6B
:1052100017E00E943A5640E023EA3FE005E2089F8B
:10522000200D311D0AE118E00E9407542AE138E000
:1052300002EF17E00E94255636E020E102EF17E06A
:105240000E94870B00E00093F20742EC5DEB60E008
:1052500002EF17E00E943A5640E024E83FE005E202
:10526000089F200D311D0AE118E00E94B0532AE189
:1052700038E002EF17E00E94255637E020E002EF09
:1052800017E00E94870B00913208053039F402EFD5
:1052900017E00E94C35C17E00E941F0B00E0009320
:1052A000F20746ED5DEB60E002EF17E00E943A5630
:1052B0002AE83FE005E2089F200D311D0AE118E0D1
:1052C0000E9461552AE138E002EF17E00E9425565E
:1052D00038E020E002EF17E00E94870B00913208CF
:1052E000063039F402EF17E00E94C35C18E00E9418
:1052F0001F0B00E00093F2074AEE5DEB60E002EF67
:1053000017E00E943A562CE83FE005E2089F200D86
:10531000311D0AE118E00E9461552AE138E002EFF0
:1053200017E00E94255639E020E002EF17E00E94C6
:10533000870B00913208073039F402EF17E00E9422
:10534000C35C19E00E941F0B00E00093F2074EEFD0
:105350005DEB60E002EF17E00E943A5623E93FE080
:1053600005E2089F200D311D0AE118E00E946155F9
:105370002AE138E002EF17E00E9425563AE020E0EB
:1053800002EF17E00E94870B00913208083039F4D1
:1053900002EF17E00E94C35C1AE00E941F0B00E0BE
:1053A0000093F20742E15EEB60E002EF17E00E943B
:1053B0003A5640E021E93FE005E2089F200D311D0B
:1053C0000AE118E00E94B0532AE138E002EF17E04A
:1053D0000E9425563BE020E002EF17E00E94870B79
:1053E00000913208093039F402EF17E00E94C35CE3
:1053F0001BE00E941F0B05E2089FF001E956F04FE9
:10540000008111812281338140E050E06AE774E439
:105410000E94305B0E947D5A0883198300E000934C
:10542000F20746E25EEB60E002EF17E00E943A56B8
:1054300040E09E010AE118E00E94B0532AE138E002
:1054400002EF17E00E9425563CE020E002EF17E053
:105450000E94870B009132080A3039F402EF17E0FE
:105460000E94C35C1CE00E941F0B05E2089FF00134
:10547000E556F04F008111812281338140E050E0F8
:105480006AE774E40E94305B0E947D5A08831983A6
:1054900000E00093F2074AE35EEB60E002EF17E002
:1054A0000E943A5640E09E010AE118E00E94B05383
:1054B0002AE138E002EF17E00E9425563CE02CE09C
:1054C00002EF17E00E94870B009132080B3041F485
:1054D00002EF17E00E94C35C1CE0045F0E941F0BF8
:1054E00005E2089FF001E156F04F00811181088329
:1054F000198300E00093F2074EE45EEB60E002EFF8
:1055000017E00E943A5640E09E010AE118E00E942E
:10551000B0532AE138E002EF17E00E9425563DE043
:1055200020E002EF17E00E94870B009132080C3058
:1055300039F402EF17E00E94C35C1DE00E941F0BCC
:1055400005E2089FF001EF55F04F008111810883BB
:10555000198300E00093F20742E65EEB60E002EFA1
:1055600017E00E943A5640E09E010AE118E00E94CE
:10557000B0532AE138E002EF17E00E9425563DE0E3
:105580002CE002EF17E00E94870B009132080D30EB
:1055900041F402EF17E00E94C35C1DE0045F0E942B
:1055A0001F0B009132080E3018F00DE00093320806
:1055B000229689910895002309F0A4C100E0009388
:1055C000F2074AE45DEB60E002EF17E00E943A5612
:1055D00040E02BE330E10AE118E00E9407542AE1A1
:1055E00038E002EF17E00E9425562AE532E002EF8C
:1055F00017E00E94255623E63FE000913B1012E0A1
:10560000019F200D311D0AE118E00E94BA542AE1E1
:1056100038E002EF17E00E94255632E020E002EF6A
:1056200017E00E94870B00913208002321F412E05A
:1056300003E00E941F0B00E00093F2074EE55DEBD4
:1056400060E002EF17E00E943A5640E027E230E1C6
:105650000AE118E00E9407542AE138E002EF17E05F
:105660000E94255633E020E002EF17E00E94870BEE
:1056700000913208013021F413E005E00E941F0B75
:1056800000E00093F20742E75DEB60E002EF17E015
:105690000E943A5625E230E10AE118E00E94BA542D
:1056A0002AE138E002EF17E00E94255634E020E0BE
:1056B00002EF17E00E94870B00913208023039F4A4
:1056C00002EF17E00E94C35C14E00E941F0B00E091
:1056D0000093F2074AED5EEB60E002EF17E00E94F4
:1056E0003A5640E028E230E10AE118E00E9407540F
:1056F0002AE138E002EF17E00E94255635E020E06D
:1057000002EF17E00E94870B00913208033039F452
:1057100002EF17E00E94C35C15E00E941F0B00E03F
:105720000093F20746E75EEB60E002EF17E00E94AD
:105730003A562AE230E10AE118E00E94BA542AE11E
:1057400038E002EF17E00E94255636E020E002EF35
:1057500017E00E94870B00913208043039F402EF01
:1057600017E00E94C35C16E00E941F0B00E000934C
:10577000F2074AE85EEB60E002EF17E00E943A565B
:105780002CE230E10AE118E00E94BA542AE138E044
:1057900002EF17E00E94255637E020E002EF17E005
:1057A0000E94870B00913208053039F402EF17E0B0
:1057B0000E94C35C17E00E941F0B00E00093F207F9
:1057C0004EE95EEB60E002EF17E00E943A562EE2EF
:1057D00030E10AE118E00E94BA542AE138E002EF11
:1057E00017E00E94255638E020E002EF17E00E9403
:1057F000870B00913208063039F402EF17E00E945F
:10580000C35C18E00E941F0B00E00093F20742EB1C
:105810005EEB60E002EF17E00E943A5620E330E1D1
:105820000AE118E00E94BA542AE138E002EF17E0DA
:105830000E94255639E020E002EF17E00E94870B16
:1058400000913208073039F402EF17E00E94C35C80
:1058500019E00E941F0B00E00093F2074EEE5EEB92
:1058600060E002EF17E00E943A5640E022E330E1A8
:105870000AE118E00E94B0532AE138E002EF17E095
:105880000E9425563AE020E002EF17E00E94870BC5
:1058900000913208083039F402EF17E00E94C35C2F
:1058A0001AE00E941F0B00E00093F20746EC5EEB4B
:1058B00060E002EF17E00E943A5640E02AE330E150
:1058C0000AE118E00E9407542AE138E002EF17E0ED
:1058D0000E9425563BE020E002EF17E00E94870B74
:1058E00000913208093039F402EF17E00E94C35CDE
:1058F0001BE00E941F0B00913208093018F008E0ED
:1059000000933208089500913108002349F00A9568
:1059100041F00A9541F00A9551F00A9551F0089529
:105920005FCA00E001C001E000932E086FCB00E0E9
:1059300001C001E000932F083ECE00913108002302
:1059400069F00A9509F44AC00A9509F45FC00A95FE
:1059500009F481C00A9509F4AFC0089501E00093ED
:105960007C030091970C013041F001E00093970C0B
:1059700020E002E91CE00E943D0D0091A60C0023EE
:1059800041F000E00093A60C20E001EA1CE00E9438
:105990003D0D0091B50C002341F000E00093B50CE3
:1059A00020E000EB1CE00E943D0D0091C40C0023A0
:1059B00041F000E00093C40C20E00FEB1CE00E94DB
:1059C0003D0D0091D30C002309F4B8C000E0009312
:1059D000D30C20E00EEC1CE00C943D0D02E0009393
:1059E0007C0300E000932E080091970C002341F007
:1059F00000E00093970C20E002E91CE00E943D0DBE
:105A00000091A60C013029F201E0BCCF03E0009325
:105A10007C0301E000932E080091970C002341F0D5
:105A200000E00093970C20E002E91CE00E943D0D8D
:105A30000091A60C002341F000E00093A60C20E0AA
:105A400001EA1CE00E943D0D0091B50C013009F403
:105A5000ACCF01E0A3CF04E000937C0300E000930F
:105A60002F080091970C002341F000E00093970C61
:105A700020E002E91CE00E943D0D0091A60C0023ED
:105A800041F000E00093A60C20E001EA1CE00E9437
:105A90003D0D0091B50C002341F000E00093B50CE2
:105AA00020E000EB1CE00E943D0D0091C40C013091
:105AB00009F487CF01E07ECF05E000937C0301E08D
:105AC00000932F080091970C002341F000E0009311
:105AD000970C20E002E91CE00E943D0D0091A60C0D
