:100000000C94DA4D1895189518951895189518951B
:100010001895189518951895189518951895189578
:100020001895189518951895189518951895189568
:100030000C94500C189518951895189518951895B6
:100040001895189518951895189518951895189548
:100050001895189518951895189518951895189538
:100060001895189518951895189518951895189528
:1000700018951895189518950C94E20B18951895E5
:100080001895189518951895189518952E02280208
:1000900032023D02480243024F025102960296028A
:1000A00096029602960296029602960259026902FA
:1000B000650261025D02960296029602960296021F
:1000C00096028302860296026C02560289028D0213
:1000D0006F027D02CC028803D202FC028803040373
:1000E000060388038803880388030E0315031C0393
:1000F00023032A033103370345033E0388038803A0
:100100008803880388034C038803880352037C0315
:1001100009037F03830358036A03A70F1C101C10F5
:100120001C101C101C101C101C101C101C101C106F
:100130001C101C101C101C101C101C101C101C105F
:100140001C101C101C101C101C109D0F9F0FA10FC9
:10015000A30FA50FA70FA90FAB0FAD0FAF0FB10FD7
:10016000B30FB50FB70FB90FBB0FBD0FBF0FC10F47
:10017000C30FC50FC70FC90FCB0FCD0FCF0FD10FB7
:10018000D30FD50FD70FD90FDB0FDD0FDF0FE10F27
:10019000E30FE50FE70FE90FEB0FED0FEF0FF10F97
:1001A000F30FF50FF70FF90FFB0FFD0FFF0F011006
:1001B00003100510071009100B100D100F1011106F
:1001C00013101510171019101B102029242931297C
:1001D0003E294B295829652972297F298C29A5296F
:1001E000BD29C929D529002A042A152A222A332AF9
:1001F000442A552A612A722A832A9C2AB22ABD2AB5
:10020000CA2A1E4D254D284D354D2B4D2F4D314DB4
:10021000334D384D3B4D484D3E4D424D444D464D7E
:100220004B4D544D4E4D574D514D5A4D5D4D634DB7
:10023000604D664DBA93AA930E94110DA3E3BAE0F4
:1002400000E00D930E94240D40E150E020E030E0FA
:100250008D010E94C150A991B9910895BA92AA92B4
:100260009A928A925A924A92BA93AA939A938A93AA
:100270000E943F0D212F220F220B322F0E94D04EC1
:10028000ADE2BAE0FD01468150E02A01440C551C64
:1002900087EB9AE0840D951D440F551F440F551FA1
:1002A000FA01E954F54F408D518D628D738D0E9496
:1002B000924F48015901FC0104A115A1212F220FE1
:1002C000220B322F0E94D04EA801B9018401950162
:1002D0000E94314F0E94DD4EFD01E40DF51D0083AB
:1002E0001183FC0106871787FD01068103950683AC
:1002F000033020F000E006830E949032FD01068169
:100300000E94240D89919991A991B9914990599090
:1003100089909990A990B990089542E451E020E025
:1003200030E001E71BE00E94C15000E021E0EAEA72
:10033000FCE00083018322830383048308950091FA
:10034000480A002389F042E451E020E030E001E770
:100350001BE00E94C15000E021E0EAEAFCE00083DB
:10036000018322830383248308950091480A002394
:1003700091F042E451E020E030E001E71BE00E9410
:10038000C15000E110E021E0EAEAFCE000831183C3
:10039000228313832483089500E00093AE0C089514
:1003A0000091AE0C0130D9F460E170E049E45AE00C
:1003B000EAEAFCE000811181228133810E94650C10
:1003C000EAEAFCE00081118122813381005F1F4F46
:1003D0002F4F3F4F008311832283338301D0089531
:1003E0000E9489030E94CB040C9421047A926A92A1
:1003F0005A924A92BA93AA939A938A93898590E0E3
:100400003C01660C771C67EB7AE01B01260C371C5D
:10041000A1E7BBE0AC01440F551F440F551FA40FCB
:10042000B51F41EE5AE0E4E2E89F400D511D482E11
:1004300088858A95843208F079C0F0E0FBBFF2E04D
:100440008F9FF001E457FF4F07901690F001099439
:10045000F1010485158520E030E068C0F1010685D2
:10046000178560C0FB010481158126813781442DE9
:100470000E943A4E017010E0EECFFB01008511851D
:1004800022853385F4CF042D1A852B853C854EC0FB
:10049000A858BF4F0D911D912D913C9147C0A85375
:1004A000F8CFEEEEF9E000811181D5CFFA0100819D
:1004B000E2CFFA010781108535C0FA01058516855E
:1004C00031C0FA01038514852DC0FA01018512851A
:1004D00029C0FA010785CFCF0091090DCCCFFA01D1
:1004E000008D118D228D338D40E050E06AE774E479
:1004F0000E94924F0E94DD4E19C0FA01048D158DA5
:10050000268D378DF1CFFA010689B5CFFA0107891B
:10051000B2CFF301EF58F44F03C0F301E355F44FAA
:1005200000811181212F220F220B322F8991999165
:10053000A991B9914990599069907990259608951B
:100540007A926A925A924A92BA93AA9328013901EE
:100550000F81602F70E021E73BE0AB01440F551F96
:10056000440F551F240F351FA1EEBAE044E2409F0F
:10057000A00DB11D660F771F1E811250133208F0B7
:10058000C7C0F0E0FBBFF2E01F9FF001EC52FF4F4D
:1005900007901690F0010994FB01E954F54F448649
:1005A0005586B6C001E010E04F810E94FA4D212F20
:1005B000220F220B442D45294629472979F0E7EBE4
:1005C000FAE04085518562857385402B512B622B63
:1005D000722B40875187628773879AC00095109568
:1005E0002095E7EBFAE040855185628573854023CD
:1005F000512362237223EDCF28583F4FF9014082E7
:1006000051826282738284C02853F7CFEEEEF9E004
:100610007DC0043008F07CC04C927AC0043008F0F1
:1006200077C0FD014382548273C0043008F070C06B
:10063000FD01418252826CC0043008F069C0FD01A6
:100640004582568265C0043008F062C0FD01408AD0
:10065000518A5EC0043008F05BC0FD0147825086BD
:1006600057C0043008F054C0FD01478651C0043023
:1006700008F04EC0FD01418652864AC0043008F0A1
:1006800047C0FD014586568643C0043008F040C08F
:10069000FD01438654863CC00430D0F5FD01428AFA
:1006A000538A36C00430A0F5FD01448A558A30C013
:1006B000043070F5820193010E94D04E40E050E07A
:1006C0006AE774E40E940450FD01008F118F228FAD
:1006D000338F1EC00430E0F4820193010E94D04E9B
:1006E00040E050E06AE774E40E940450FD01048F8A
:1006F000158F268F378F0CC04092090D09C0FB0162
:10070000EF58F44F03C0FB01E355F44F4082518290
:100710000FCFBA93AA939A938A93E9E4FAE00385F8
:10072000083121F400E00093AE0C86C01091A90CB2
:10073000095029F10A9509F447C00A9509F45BC0EC
:100740000A9509F46EC00A5019F00A9559F174C05F
:10075000143108F071C0AAEABCE04D915D916D9131
:100760007C9104E0109FD001A75AB34F4D935D9345
:100770006D937C93A9EABCE00C9103950C930485DE
:100780001585000F111F000F111F000F111F000F03
:10079000111F30E021E0EAEAFCE0008311832283AC
:1007A00033834AC0112309F447C0E9EAFCE0012F72
:1007B0000A95008314E0019FF001E75AF34F00818E
:1007C000118122813381E7CF848595850197880F38
:1007D000991F880F991F880F991F880F991FA0E0F4
:1007E000EAEAFCE00081118122813381080F191FA0
:1007F0002A1F3A1FD2CF319605E010E00E94A9507F
:100800000E94F601012B022B032BB1F0EAEAFCE077
:100810000081118122813381005F1F4F2F4F3F4F95
:10082000BCCF319605E010E00E94A9500E94F6016D
:10083000012B022B032B51F389919991A991B99125
:1008400008955A924A92BA93AA939A938A9309E482
:10085000402E0AE0502EF2010385083151F400E0E9
:100860000093AE0C89919991A991B99149905990B1
:1008700008950081025009F44AC00A9549F00A958A
:10088000F9F00A9509F45AC00A9509F46EC0EACF46
:10089000319605E010E00E94A9500E94F601C801BF
:1008A000D901F201369605E010E00E94A9500E949D
:1008B000F601081719072A073B07C4F441E017C0DF
:1008C000319605E010E00E94A9500E94F601C8018F
:1008D000D901F201369605E010E00E94A9500E946D
:1008E000F60180179107A207B30744F340E050E0F8
:1008F0000BE0400E00E0501EF20105E010E00E9407
:10090000A9508A0120E030E00E94A002ABCF3196CE
:1009100005E010E00E94A9500E94F601C801D9012B
:10092000F201369605E010E00E94A9500E94F601FF
:1009300080179107A207B307C9F6C0CF319605E02B
:1009400010E00E94A9500E94F601C801D901F201ED
:10095000369605E010E00E94A9500E94F60180172B
:100960009107A207B30714F2A9CF319605E010E072
:100970000E94A9500E94F601C801D901F2013696E1
:1009800005E010E00E94A9500E94F601081719071F
:100990002A073B07E8CF5A924A92BA93AA939A93AE
:1009A0008A9309E4402E0AE0502EF20103850831B3
:1009B00021F400E00093AE0C6DC010811A9531F067
:1009C0001F5011F11A9509F442C064C00A5149F44C
:1009D0000181065009F05EC0028113810E9448091E
:1009E00059C0319605E010E00E94A9500E94F6011E
:1009F000C8010BE0400E00E0501EF20105E010E0DF
:100A00000E94A9508C0144C0319605E010E00E947C
:100A1000A9500E94F601C801D901F201369605E0FD
:100A200010E00E94A9500E94F601A801B9010BE054
:100A3000400E00E0501EF20105E010E00E94A950B7
:100A4000480F591F6A1F7B1F8A019B0121C03196E5
:100A500005E010E00E94A9500E94F601C801D901EA
:100A6000F201369605E010E00E94A9500E94F601BE
:100A7000A8010BE0400E00E0501EF20105E010E07E
:100A80000E94A950841B950BA20BB30B8C019D01F6
:100A90000E94A00289919991A991B9914990599088
:100AA000089500E016E920E030E00E948B0C00E998
:100AB0001DE0ECEAFEE00083118300E00093900D5E
:100AC0000093580E08E51EE0E0E8FEE00083118385
:100AD00002E81EE0EAEAFEE00083118300E00093F2
:100AE000820EE9EAFAE0008301830895BA93AA939B
:100AF0000E94DD0C002311F1ACEABEE0ED91FC9107
:100B00000081002391F00E94E30CACEABEE0ED917D
:100B1000FC9100810E94E50CECEAFEE0008111816D
:100B20000F5F1F4F0083118309C000E91DE0ECEA4D
:100B3000FEE00083118300E00093900D0E94D70C2B
:100B4000002309F4E3C0A4E2B6E00E94E70CFD0133
:100B500004AB0091900D002309F0D8C004A9102F18
:100B6000185009F481C01A9509F4B7C01A9509F410
:100B7000CDC0135009F490C01E5021F0145209F456
:100B80008BC0ADC00E94D70C0023E1F30E94E70C9C
:100B9000FD0104AB0E94D70C0023E1F30E94E70C97
:100BA000FD0104ABEAEAFEE02081318122383E40BB
:100BB000D9F008E00E94E90C00E20E94E90C08E08C
:100BC0000E94E90CEAEAFEE0008111810150104028
:100BD0000083118320E0F8012083EAEAFEE020810F
:100BE000318122383E4029F7FD0103A914A911548F
:100BF00019F01A95A9F116C012A9112321F0043099
:100C000010F4039503AB23A900E5029F9D01200D7D
:100C1000311D20573F4F02E81EE00E94644201E070
:100C2000FD0102AB02E81EE0EAEAFEE00083118368
:100C30000091820E002309F469C0AAEABEE0ED919A
:100C4000FC910081002309F461C00E94E90CEAEAEA
:100C5000FEE0008111810F5F1F4F00831183EDCFF4
:100C6000002389F20A95CECFEAEAFEE020813181A5
:100C700022383E4009F44AC008E00E94E90C00E234
:100C80000E94E90C08E00E94E90CEAEAFEE000811B
:100C900011810150104033C00E94E90CFD0104A9EC
:100CA000AAEABEE0ED91FC910083EAEAFEE0008151
:100CB00011810F5F1F4F0083118300E0E091AA0EA6
:100CC000F12F008326D002E81EE0EAEAFEE000836E
:100CD000118300E00093820E19C000E204AB04A966
:100CE0000E94E90CFD0104A9AAEABEE0ED91FC9185
:100CF0000083EAEAFEE0008111810F5F1F4F00834D
:100D0000118300E0E091AA0EF12F0083A991B9911F
:100D100008954A92BA93AA939A938A9380E090E0B6
:100D2000A4E2B6E0FD010385148503A314A300919A
:100D3000820E04AB85AB03A121A932E0239FE00D15
:100D4000F11D07A310A701E0FD0101AB18C0E0E809
:100D5000FEE000811181F8012083E0E8FEE00081DF
:100D600011810F5F1F4F0083118320E0F801208362
:100D70000196FC01EE57F14F0081FD0104AB24A95F
:100D8000222369F0022F0D5041F0035131F00E5033
:100D900021F00C5011F00550D1F641D0E9CF00E020
:100DA00003AB02ABE2E8FEE007C00A3011F00D3001
:100DB00011F400E00083319600810023B1F723EEA7
:100DC00031E002E81EE00E9422420023F9F022E80E
:100DD0003EE08D0100571F4F0E9422420023B1F0D8
:100DE000CD0180539E4F04E0402E9C0120553040A1
:100DF0008C010E946442805590404A94B1F722E8E9
:100E00003EE0A057BF4F8D010E94644200E0009376
:100E1000590A89919991A991B99149900895BA93E4
:100E2000AA9308E51EE00E94144208E51EE078D16E
:100E3000A4E2B6E0FD0104A90D5009F48FC00351EE
:100E400041F00E5031F00C5021F0055009F43DC135
:100E500004C00091580E002379F400E00093580E6E
:100E600008E51EE0E0E8FEE000831183A991B99156
:100E70000895FD0103A314A39396ED91FC9194971B
:100E80000E2F0F2B51F30681002309F048C028E5EF
:100E90003EE0408151818A010E943742002351F592
:100EA0009396ED91FC91119700811181980109E5CC
:100EB0001AE00E944C42ED91FC91949703851485B1
:100EC000202F212B21F0FD0103A314A3C6CF0781FE
:100ED000108520E00030120741F0F80109952FED50
:100EE00031E000E91DE00E94A13D00E0FD0103A307
:100EF00004A3B3CF9396ED91FC9194970585168545
:100F0000202F212B09F0B5CF00E0FD0103A304A39E
:100F100026E032E000E91DE00E94A13DADCF40E0B7
:100F200020E030E008E51EE00E94173EFD0145A9E3
:100F300054E0459FE00DF11D0787108B218B328B0C
:100F4000FD0105A9039505AB9396ED91FC9194974E
:100F500003851485202F212BB9F2B5CF23EE31E084
:100F600008E51EE00E940A51012B51F42FED31E0FB
:100F700000E91DE00E94A13D70CFFD0103A314A371
:100F80009396ED91FC9194970E2F0F2B09F465CF5A
:100F90000681002309F075C028E53EE040815181BB
:100FA0008A010E943742002309F05AC09396ED91BE
:100FB000FC91119700811181980109E51AE00E94C6
:100FC0004C42ED91FC91949703851485012BC9F156
:100FD00022E032E000E91DE00E94A13D29E53AE06F
:100FE00000E91DE00E94A13D26EC31E000E91DE092
:100FF0000E94A13D9396ED91FC91949703851485F1
:10100000FD0105A316A3012BD9F02CEF31E000E977
:101010001DE00E94A13D9596ED91FC9111970081F4
:101020001181980100E91DE00E947B0CED91FC917B
:10103000969703851485FD0105A316A3012B29F7B7
:101040004ECF07811085F801099500E0FD0103A34B
:1010500004A32FED31E000E91DE00E94A13D90CFF7
:101060009396ED91FC91949705851685202F212B61
:1010700009F083CF00E0FD0103A304A326E032E0E2
:1010800077CF40E020E030E008E51EE00E94173E08
:10109000FD0145A954E0459FE00DF11D0787108B28
:1010A000218B328B9396ED91FC919497078110855B
:1010B00020E00030120741F0F80109952FED31E0F2
:1010C00000E91DE00E94A13D10CF24EE31E000E9CF
:1010D0001DE00E94A13DFD0103A114A105A316A3DB
:1010E000012B09F443CF2CEF31E000E91DE00E9411
:1010F000A13D9596ED91FC91119700811181980188
:1011000000E91DE00E947B0CED91FC91969705850E
:101110001685FD0105A316A3012B09F427CFE3CF04
:101120005A924A92BA93AA939A938A93C8015524E1
:10113000A4E2B6E0FD0103A114A105A316A323EECA
:1011400031E08C010E942242002309F457C08C0137
:101150000E947242402EFD0105A116A1012B09F447
:101160004DC03EE120E08D010A5C1F4F0E9481428C
:101170003EE120E08D010E581F4F0E948142FD018B
:1011800005A116A1F8010081118198018D010E5869
:101190001F4F0E947B0C442D9D012E583F4F8D0107
:1011A0000A5C1F4F0E9489429C018D010A5C1F4FFF
:1011B0000E942242002369F45394FD0105A116A167
:1011C000F8010081118198018D010C5A1F4F0E9476
:1011D0007B0CFD0105A116A1F80105851685FD0111
:1011E00005A316A3012B09F0BCCF01E0501631F482
:1011F000AC5ABF4F9D018C010E9464428991999124
:10120000A991B9914990599008950091900D0023AA
:1012100029F06CDC0091900D0023D9F708952FEF91
:10122000F801208321830895F80100811181009540
:1012300010950083118308950D01BC01FA01422F1E
:10124000432BD9F0D801C9010D912081202720839B
:1012500028E04081518156954795008100FF07C0E5
:1012600008E014E8042715270083118302C0408397
:1012700051832A9571F7019739F7CB01D001089571
:101280004DE250E020E030E003EB1CE00C94C15054
:101290009A938A93B80187ED9CE024E0FC0139978A
:1012A0008C0149E050E00E949E5009972A95B1F7C1
:1012B000E3EBFCE06083718305EB1CE0EBEAFAE012
:1012C00047E00E949E500E94DD11899199910895F6
:1012D000219700E0088324E438E000E91DE00E9443
:1012E000A13D0EE8088341E050E09E010AE04ED0A7
:1012F0000AE0088341E050E09E0109E047D00AE19E
:10130000088341E050E09E010BE040D041E050E016
:101310009E0101E049D008810F73088341E050E04D
:101320009E0101E00DC0219741E050E09E010BE0DD
:101330003BD00881077E088341E050E09E010BE02E
:1013400025D021960895219741E050E09E010BE0C1
:101350002BD008810861EFCFB801890122EB3AE078
:10136000F90170836183642FA80112E002EA0C94F2
:10137000A30DB801890122EB3AE0F9017083618382
:10138000642FA80112E002EA0C94130E602F890169
:1013900022EB3AE0F901608360E06183642FA801E9
:1013A00011E002ED0C94A30D602F890122EB3AE0CD
:1013B000F901608360E06183642FA80111E002ED10
:1013C0000C94130EAA939A938A932497A02F812F9B
:1013D000922F4AE00E94EC4D102F1295107F2AE0C8
:1013E000029FA019A12B082F4AE00E94EC4D102F5C
:1013F0001295107F029F8019812B092F4AE00E94CD
:10140000EC4D102F1295107F029F9019912B99830C
:101410008A83AB8302E0088341E050E09E0100E054
:10142000B5DF43E050E09E012F5F3F4F02E0AEDFAB
:1014300000E0088341E050E09E01A8DF24968991F6
:101440009991A9910895BA93AA939A938A9325970B
:10145000C801D901043608F080E01D3008F090E0A2
:10146000203208F0A0E0383008F0B0E0082F4AE061
:101470000E94EC4D102F1295107F2AE0029F8019D8
:10148000812B092F4AE00E94EC4D102F1295107FFE
:10149000029F9019912B0A2F4AE00E94EC4DB983CC
:1014A000102F1295107F029FA019A12BAA839B8356
:1014B0008C8302E0088341E050E09E0100E066DF9B
:1014C00044E050E09E012F5F3F4F05E05FDF00E00A
:1014D000088341E050E09E0159DF2596899199915A
:1014E000A991B9910895BA93AA93219701E008832D
:1014F00041E050E09E0100E049DFABEABAE047E09E
:1015000050E09D0102E050DF00E0088341E050E040
:101510009E013CDF1C9112951F700AE0109F0C91F8
:101520000F70000D0D930C91202F22952F701AE053
:10153000219F0F70000D0D930C91202F22952F707D
:10154000219F0F70000D0D930C91202F22952F706D
:10155000219F0F70000D0D930C91202F22952F705D
:10156000219F0F70000D0D930C91202F22952F704D
:10157000219F0F70000D0D930C91202F22952F703D
:10158000219F0F70000D0C93169704EF1CE0FD01D6
:1015900047E050E00E949E502196A991B99108958C
:1015A0002197E6EEF9E000811181012B59F408EE54
:1015B00013E0008311830AE0088341E050E09E01BC
:1015C00009E0E4DE21960895BA93AA939A938A9348
:1015D0002797002331F00A95D1F10A9509F467C0E5
:1015E00030C00DE011E020E00B831C832D832E839F
:1015F0008E010F5F1F4F0E940F0980E090E0A0E076
:10160000B0E011C041E050E09E018C01B2DEAE01BD
:101610004F5F5F4F21E030E08E010E941C098F5F19
:101620009F4FAF4FBF4F0B811C812D813E81801793
:101630009107A207B30730F38E010F5F1F4F0E947F
:10164000140909811A8120E030E0279647CF0EE780
:1016500010E00B831C831D831E838E010F5F1F4FC1
:101660000E940F0980E090E0A0E0B0E00B811C81B7
:101670002D813E8180179107A207B307E8F661E04C
:1016800070E0AE018C019D01005011422E4F3F4F82
:101690000E94650CAE014F5F5F4F21E030E08E018C
:1016A0000E941C098F5F9F4FAF4FBF4FDFCF64E099
:1016B00070E0AE014D5F5F4F08E71FED21E030E0C5
:1016C0000E94650C8E010F5F1F4F0E940F0980E082
:1016D00090E0A0E0B0E00B811C812D813E8180175D
:1016E0009107A207B30708F0A7CF61E070E0AE0151
:1016F0008C019D01005010402F4F3F4F0E94650C00
:10170000AE014F5F5F4F21E030E08E010E941C0967
:101710008F5F9F4FAF4FBF4FDECF949A089594983D
:10172000089540E050E00056194020403040C1F19B
:10173000005619402040304089F1005C12412040A1
:10174000304051F1005C12412040304019F1005C02
:10175000124120403040E1F0005815422040304016
:10176000A9F0005815422040304071F000501B4451
:101770002040304039F00050114E2040304091F46C
:1017800045E010C04BE00EC041E10CC047E10AC08B
:1017900043E208C04FE206C047E404C04FE802C07D
:1017A0004FE151E08C9A949850939800409399009F
:1017B00008E900939A000EE000939D0000E2009378
:1017C0009C0008959A938A93FA93EA933A922A9204
:1017D0001A920A927A936A935A934A933A932A9363
:1017E0001A930A938FB79BB70E94C04C9BBF8FBFC1
:1017F0000991199129913991499159916991799159
:101800000990199029903990E991F99189919991CC
:10181000189500939C00089500919C0008950091F4
:101820009B0006FF02C001E0089500E008950091CA
:101830009B00006400939B0008950BB30F600BBBEB
:101840000AB3007F0ABB1F98179A0895C99B02C06C
:1018500001E0089500E00895C89B02C001E00895EA
:1018600000E00895CB9B02C001E0089500E00895D8
:10187000CA9B02C001E0089500E0089500E00FBD9A
:1018800009E00EBD00E000937A0003E31BE21BBDFC
:101890000ABD00E00DBD0CBD07B7006107BF08958C
:1018A0009A938A93FA93EA933A922A921A920A9214
:1018B0007A936A935A934A933A932A931A930A9380
:1018C0008FB79BB70E94174891CF192E282E80E022
:1018D000062E072A69F090E0F801E80FF91F2BBFE8
:1018E0000690FA010192AF0183958617970798F346
:1018F000822D912D0895AC01C90103C021938F0160
:101900000196FC0130E03BBF26912223F801B1F79C
:101910003083CA01089540E050E00056194020404D
:101920003040C1F1005619402040304089F1005C40
:1019300012412040304051F1005C124120403040C3
:1019400019F1005C124120403040E1F0005815428E
:1019500020403040A9F0005815422040304071F03E
:1019600000501B442040304039F00050114E2040C0
:10197000304091F445E010C04BE00EC041E10CC096
:1019800047E10AC043E208C04FE206C047E404C092
:101990004FE802C04FE151E05093900049B908E18F
:1019A0000AB90EE00093950000E20CB908955F9B20
:1019B00002C001E0089500E008955E9B02C001E0CE
:1019C000089500E008955E9A08950CB908950CB149
:1019D0000895E0E9FDE0008300E001830C9405092F
:1019E00001E005BF00E005BF08E101BD00E001BD69
:1019F00000937400089508E101BD08E001BDFFCF28
:101A00000E94D00AA89508959F9B02C0AF980895A0
:101A1000AF9A08951F9A08951F980895089578948D
:101A20000895DF9AD79A07B3076007BBBB9808B33E
:101A3000017F08BBC09A0BB30F780BBB0AB30067DA
:101A40000ABB02E50DB9089510E0202F235020F0C5
:101A500029F02A9541F003C0102F01C015E010FBBA
:101A600016F4DE9A01C0DE9801FB16F4DD9A01C07F
:101A7000DD9802FB16F4DC9A0895DC98089523970C
:101A80000FB10FB1DF98F89400E00FB9779BFECF4C
:101A90000FB1088300E00FB9779BFECF0FB1098328
:101AA0007894188120E030E0E4E4FAE000831183C8
:101AB00022832383DF9A00811181169507951F7079
:101AC000EBE1FAE0008311830E94DB4E40E050EF2F
:101AD0006FE775E40E94045040E050E46CE176E466
:101AE0000E94924F0E94DD4EE9E1FAE000831183EB
:101AF00023960895A801009171000E7F0093710054
:101B0000009171000D7F0093710003E31BE20E94BE
:101B1000064E003138F010E00051104042E050E035
:101B20000E941E4E00937000089501C0A895009178
:101B3000740007FFFBCF089500E911E0DBDF04E04C
:101B40000093740008958A927A926A925A924A9205
:101B5000BA93AA939A938A93602E2901712EDA017F
:101B6000862E81E090E0009174000E7F0093740057
:101B7000009174000F70006A00937400D6DF0EEFBE
:101B8000602260927300009174000F7000680093EF
:101B90007400CBDF00917100087F083111F08EE3F3
:101BA0002CC0072D7A94002391F0F20101912F01AE
:101BB00000937300009174000F700068009374002C
:101BC000B4DF00917100087F083259F315C0082D69
:101BD0008A94002399F0FD010191DF0100937300C5
:101BE000009174000F700068009374009EDF0091F4
:101BF0007100087F083259F38DE39EEF0091740065
:101C00000F70006D009374000091740004FDFCCF10
:101C10008C0189919991A991B991499059906990B4
:101C20007990899008958A927A926A925A924A9209
:101C3000BA93AA939A938A93602E2901812EDA018E
:101C4000762E81E090E0009174000E7F0093740086
:101C5000009174000F70006A0093740066DF8820A2
:101C6000D9F1062D0E7F00937300009174000F7060
:101C700000680093740059DF00917100087F0831FB
:101C800069F08EE39EEF009174000F70006D009379
:101C900074000091740004FDFCCFBACF082D8A9423
:101CA000002399F0F20101912F010093730000913C
:101CB00074000F7000680093740037DF00917100AA
:101CC000087F083259F38CE3DDCF009174000F7068
:101CD000006A0093740029DF682A60927300009103
:101CE00074000F700068009374001FDF0091710092
:101CF000087F003479F08EE39EEF0CC000E02F7077
:101D0000202B20682093740010DF00917300FD01E8
:101D10000193DF01072D7A94002309F4B4CF2091B9
:101D20007400772059F300E4EACFBA93AA93A7EBA3
:101D3000BAE04AE250E020E030E08D010E94C1505C
:101D400006E00D9307E00D9303E00D9301E00C9383
:101D5000199605B3007C05BB04B3007C04BB08B333
:101D6000077008BB07B3086F07BB00916500077FCA
:101D7000009365000091640008600093640003B163
:101D8000077E03B902B1086102B9AF98A79A00E0D3
:101D90000D930C93A991B9910895E7EBFAE00085B2
:101DA00000FF02C0C49A01C0C498008501FF02C0B0
:101DB000C59A01C0C598008502FF02C0C69A01C03D
:101DC000C698008503FF02C0C79A01C0C798008566
:101DD00004FF04C000916500086003C00091650025
:101DE000077F00936500008505FF02C01B9A01C0B4
:101DF0001B98008506FF02C01C9A01C01C98048134
:101E00009D9B02C00E7F01C00160048304819C9BE6
:101E100002C00D7F01C00260048304819B9B02C04D
:101E20000B7F01C00460048304819A9B02C0077F7A
:101E300001C0086004830481999B02C00F7E01C029
:101E4000006104830481989B02C00F7D01C0006281
:101E50000483089500E00093620000936100009104
:101E600065000B7F009365001D981A98009164002F
:101E7000046000936400159A129A08951FEF10935E
:101E80006100109165001B7F109365001D981A9AE0
:101E90000093620001E010E00E94DB491A98089567
:101EA0001FEF10936100109165001460EDCF009159
:101EB0006400046000936400159A129A04E610E02E
:101EC0000E94D2490FE3DADF0AE010E00E94D24913
:101ED0000CE0D4DF0AE010E00E94D24901E0CEDF3E
:101EE0000AE010E00E94D24906E0C8DF0AE010E0F4
:101EF0000C94D24901E0C2DF03E010E00C94D24917
:101F0000002311F4106803C0013019F4106C012F84
:101F1000B5DF01E010E00C94DB49102F085A0835BA
:101F200008F08AC0F0E0FBBFF2E00F9FF001E65E30
:101F3000FE4F07901690F001099411E47DC010EA5D
:101F40007BC012E479C011EA77C010EE75C015E4C9
:101F500073C013EA71C014EA6FC015EA6DC016EAC7
:101F60006BC01BE469C017EA67C01DE465C018E4D4
:101F700063C01FE461C018EA5FC010E55DC013E4F0
:101F80005BC014E559C019EA57C01AEA55C018E5F4
:101F900053C011EE51C01BEA4FC01CEA4DC012EEF7
:101FA0004BC01DEA49C01EEA47C012E645C01FEA01
:101FB00043C010EB41C011EB3FC011E63DC012EB36
:101FC0003BC013EB39C014EB37C013EE35C015E638
:101FD00033C016EB31C017EB2FC018EB2DC019EB37
:101FE0002BC01AEB29C01BEB27C01CEB25C01DEB37
:101FF00023C01FE621C01EEB1FC010E71DC013E663
:102000001BC01FEB19C019E717C014EE15C018E765
:1020100013C015EE11C010EC0FC011EC0DC016EE80
:102020000BC012EC09C013EC07C014EC05C015EC92
:1020300003C016EC01C017EC012F0895BA93AA93C0
:10204000D80103C010E001E05BDF0D91002359F0DF
:1020500064DF0A30B9F30D30A9F322DF01E010E0AC
:102060000E94DB49F2CFA991B9910895BA93AA933E
:102070009A93D801922F04C010E001E041DF11963D
:10208000FD019BBF0691002359F047DF0A30A1F301
:102090000D3091F305DF01E010E00E94DB49EFCF46
:1020A0009991A991B9910895BA93AA939A938A9311
:1020B000C801D90100235AF002304CF407C00D309A
:1020C00031F4839522F0823014F48C0119DF0D91E4
:1020D000002399F088239AF382308CF71EDF0A30B0
:1020E00041F00D3031F0DCDE01E010E00E94DB4910
:1020F000EECF0D3061F78395E8CF89919991A99141
:10210000B99108954A92BA93AA939A938A93802F89
:10211000412EDA01962F002372F0023064F4F0DED3
:102120000AC00D3039F483952AF082301CF4142D46
:10213000082FE6DE1196FD019BBF0691002399F062
:1021400088237AF382306CF7E8DE0A3041F00D30F4
:1021500031F0A6DE01E010E00E94DB49EBCF0D304C
:1021600049F78395E4CF89919991A991B9914990C3
:1021700008958A936197802F40E150E020E230E09B
:102180008E010E94C15000E0088B9E0110E0082FD4
:102190008BDF619689910895BA93AA939A938A9353
:1021A00087EB9AE04AE250E09C0100E010E00E94D8
:1021B000B90940E950E021EE3AE00AE210E00E945D
:1021C000B909A8EEBCE046E250E09D010AEB10E040
:1021D0000E94B9094DE250E023EB3CE000EE10E034
:1021E0000E94B9094AE250E020E030E08C010E94F0
:1021F000C15040E950E020E030E001EE1AE00E94DA
:10220000C15046E250E020E030E08D010E94C15014
:102210004DE250E020E030E003EB1CE00E94C150B2
:1022200006E0FC01008307E0018303E0028301E094
:10223000038300E010E020E83FE3048B058B268B4E
:10224000378B82EE9AE004E0FC01129324E630E042
:10225000FC012083318324EF31E02483358322E3A2
:1022600030E02283338328EC268337833287338719
:102270003087318728EE33E02487358711E01687D1
:102280002EE130E02787308B2BE9218B328B10E059
:10229000358B368B338B348B4AE057ED63E27CE32E
:1022A000478B508F618F728F63EA7DE3438F548F2A
:1022B000658F768F23E2278F30A32EE531E021A3AF
:1022C00032A384960A9501F6FD01328742E050E080
:1022D00020E030E08D010E94C15009E0FD0105833E
:1022E00008E0068301E0078302E0008705E001873C
:1022F00001E0038789919991A991B991089500E02E
:102300000E94E40AE2EBFEE00083118342E050E029
:1023100024EB3AE00DE011E00E94B909E4EBFAE0A9
:1023200000811181E2EBFEE0208131810217130769
:1023300081F048EE59EA60E000E91DE00E94DA3DD4
:1023400048E35AEA60E000E91DE00E94DA3D24DF3C
:1023500034C04AE250E027EB3AE000E010E00E948F
:10236000B90940E950E021EE3AE00AE210E00E94AB
:10237000B90946E250E028EE3CE00AEB10E00E948A
:10238000B9094DE250E023EB3CE000EE10E00E9482
:10239000B909EAEEFAE024E000E000830183058752
:1023A000068703870487B4962A95B1F748E85AEA66
:1023B00060E000E91DE00C94DA3D0E9493094AE2D6
:1023C00050E027EB3AE000E010E00E94AC0940E961
:1023D00050E021EE3AE00AE210E00E94AC0946E249
:1023E00050E028EE3CE00AEB10E00E94AC094DE220
:1023F00050E023EB3CE000EE10E00E94AC0900E06E
:102400000E94E40AE4EBFAE00083118342E050E02A
:102410009F010DE011E00E94AC090C94A3090E94F9
:10242000F00C0E943E0C0E9451050E94A04C0E949C
:10243000950E0E9485120E942A0F0E949C0D0E94F8
:10244000000D0E941A010E948D010E9443320E94D9
:10245000400955DF0C940F0DE2DF48ED5AEA60E0C9
:1024600000E91DE00E94DA3D0E94570F0E94453DA1
:102470000E94B5012FE538E000E91DE00E94A13D72
:1024800000ED17E0E2EFF9E0008311830E94000DF8
:10249000ECEEF9E000811181012B71F408EE13E0FC
:1024A000008311830E94730A04EF1CE0EBEAFAE058
:1024B00047E050E00E949E500E94D001E4EFF9E016
:1024C00000811181012B31F404E610E000831183B7
:1024D0000E942E010E94CD0E0E9476050E940814D3
:1024E000EAEFF9E000811181012B31F40AEF10E0ED
:1024F000008311830E94040D0091B60A002331F27B
:102500005CDF00E00093B60AC1CF0E941D0CE5E637
:10251000F8E000E007A703A705A70895BA93AA93D8
:10252000A5E6B8E00E94260C002331F008E2FD0188
:1025300002A300E006A329C0FD0106A1002381F447
:1025400002A1002369F401E006A305E010E0EEEE2D
:10255000F9E00083118300E213E00D931C931197BF
:10256000FD0106A1023089F40D911C911197012BF8
:1025700061F401E006A305E010E0EEEEF9E000836F
:10258000118308EC0D931C9311970E942C0C0023CF
:1025900031F008E2FD0103A300E007A329C0FD011B
:1025A00007A1002381F403A1002369F401E007A33C
:1025B00005E010E0EEEEF9E00083118300E213E0A5
:1025C0000D931C931197FD0107A1023089F40D9121
:1025D0001C911197012B61F401E007A305E010E0C5
:1025E000EEEEF9E00083118308EC0D931C93119734
:1025F0000E94320C002331F008E2FD0104A300E048
:1026000000A729C0FD0100A5002381F404A1002337
:1026100069F401E000A705E010E0EEEEF9E00083C8
:10262000118300E213E00D931C931197FD0100A5A7
:10263000023089F40D911C911197012B61F401E096
:1026400000A705E010E0EEEEF9E00083118308EC4E
:102650000D931C9311970E94380C002331F008E26F
:10266000FD0105A300E001A728C0FD0101A500238D
:1026700081F405A1002369F401E001A705E010E061
:10268000EEEEF9E00083118300E213E00D931C935A
:102690001197FD0101A5023081F40D911C91119754
:1026A000012B59F401E001A705E010E0EEEEF9E09E
:1026B0000083118308EC0D931C93A991B99108959F
:1026C0001B2F6A2FA5E6B8E0FD0147A508E5049F8A
:1026D000EEECFBEA30E0E00DF11D3BBF269122233A
:1026E000A9F0EEECFBEAE00DF11D0691400FFD01B3
:1026F00022A5E8ECFBEA08E5049FE00DF11D069138
:10270000201720F3FD0147A701E001C000E0A62F3C
:10271000B12F08951B2F6A2FA5E6B8E0FD0147A54C
:1027200008E5049FEFECFBEA30E0E00DF11D3BBF54
:1027300026912223A9F0EFECFBEAE00DF11D0691B2
:10274000400FFD0122A5E8ECFBEA08E5049FE00D3F
:10275000F11D0691201720F3FD0147A701E001C0FC
:1027600000E0A62FB12F08951B2F6A2FA5E6B8E031
:10277000FD0147A508E5049FEDECFBEA30E0E00D24
:10278000F11D3BBF26912223A9F0EDECFBEAE00D01
:10279000F11D0691400FFD0122A5E8ECFBEA08E5DA
:1027A000049FE00DF11D0691201720F3FD0147A7BE
:1027B00001E001C000E0A62FB12F08951B2F6A2F62
:1027C000A5E6B8E0FD0147A508E5049FECECFBEAAF
:1027D00030E0E00DF11D3BBF26912223A9F0ECEC87
:1027E000FBEAE00DF11D0691400FFD0122A5E8EC8A
:1027F000FBEA08E5049FE00DF11D0691201720F388
:10280000FD0147A701E001C000E0A62FB12F089508
:102810006A925A924A92BA93AA938A93A5E6B8E02A
:10282000FD0127A5822F09EC402E0BEA502E00E077
:10283000602E08E5029F400C511CF2016BBE069110
:102840000023F1F400E0FD0105A703A504A711C0D2
:10285000FD0104A50A9504A70AEC1BEA67A548E553
:10286000469F000D111DF8016BBE07911691F801EE
:102870000995FD0104A5002319F022DF002341F78B
:1028800001E0FD0105A787A703A504A7F201319682
:102890006BBE07911691F8010995FD0147A5E9EC7A
:1028A000FBEA08E5049FE00DF11D6BBE06910023D5
:1028B00009F5842F00E0FD0105A703A504A711C0B9
:1028C000FD0104A5039504A70AEC1BEA67A548E5EA
:1028D000469F000D111DF8016BBE07911691F8017E
:1028E0000995FD0104A501301CF414DF002341F714
:1028F000FD0187A7899107C4BA93AA93A5E6B8E01A
:10290000FD0100A9002321F108EE13E0E8EFF9E052
:1029100000831183FD0104A50E94B91023E638E06D
:1029200010E0FD0103A50E94541048E75BEA60E057
:10293000FD0127A508E5029F400D511D2091F30CD4
:1029400008E2029F400D511D11E004A50E94821073
:10295000A991B9910895BA93AA93A5E6B8E0FD01AB
:1029600005A5002309F462C000E000ABE8EFF9E040
:1029700000811181012B19F401E0FD0100ABFD0183
:1029800006A1013099F49CDE002331F0FD0103A57E
:10299000002311F00A9503A700E0E8EFF9E00083B7
:1029A000018301E0FD0100AB02E006A307A10130B5
:1029B00099F4B0DE002331F0FD0103A5002311F4EA
:1029C00001E003A700E0E8EFF9E00083018301E004
:1029D000FD0100AB02E007A300A5013091F4EEDE9B
:1029E000002329F000E0FD0103A70E947A0F00E018
:1029F000E8EFF9E00083018301E0FD0100AB02E0B4
:102A000000A701A5013091F4AFDE002329F000E01A
:102A1000FD0103A70E947A0F00E0E8EFF9E00083D0
:102A2000018301E0FD0100AB02E001A7A991B9918A
:102A3000089562DF90CFBA93AA93A5E6B8E0FD01AE
:102A400000A90023C9F00E947A0F08E71BEA20E0E2
:102A5000FD0167A548E5469F000D111D6091F30C2F
:102A600048E2469F000D111D0E94361000ED17E050
:102A7000E8EFF9E00083118300E0FD0100ABE8EF2F
:102A8000F9E000811181012B99F401E0FD0100AB17
:102A9000EFECFBEA30E09F964C919F9708E5049F8E
:102AA000E00DF11D3BBF0691FD01142F100F17A77C
:102AB000A991B9910895BA93AA93A5E6B8E0FD014A
:102AC00000A9002309F44FC00E947A0F08E71BEA0F
:102AD00020E0FD0167A548E5469F000D111D6091AE
:102AE000F30C48E2469F000D111D0E94361064E071
:102AF00070E04EEA5EE007E61EED21E030E00E9465
:102B0000650C40E02EEA3EE08D010E5F1F4F0E94F3
:102B1000B34113E000E00E94800F8D010E5F1F4F54
:102B20000E941E1064E070E04EEA5EE00BE61EEDCF
:102B300021E030E00E94650C40E02EEA3EE08D018D
:102B40000E5F1F4F0E94B34113E001E00E94800F0F
:102B50008D010E5F1F4F0E941E1000ED17E0E8EF81
:102B6000F9E00083118388CF7A926A925A924A924E
:102B7000BA93AA939A938A936197552466247724EB
:102B80004424439487EB9AE0A5E6B8E0FD0100A950
:102B9000002309F473C008EE13E0E8EFF9E00083C6
:102BA00011830E947A0F48E75BEA60E0FD0127A5E8
:102BB00008E5029F400D511D2091F30C08E2029F91
:102BC000400D511D10E004A50E94821060E352E008
:102BD00040E09D01225D3F4F8D010E5F1F4F0E941F
:102BE000DE3F9D012E5F3F4F13E0FD0104A50E94D3
:102BF000541041E150E020E030E08E010E94C150CD
:102C000040E017C020E3F80122839E01240F371F04
:102C100050E2F9015083FD0156A5541719F45EE501
:102C2000F9015083F8017383440C551C661C771C12
:102C30004395FC010181401790F470E08D01040F71
:102C4000171F008411842284338404201520262039
:102C50003720012802280328A9F221E3D4CF9D01BF
:102C60002E5F3F4F16E0FD0104A50E9454109E0107
:102C700016E0FD0104A503950E945410FD0105A571
:102C8000002309F46FC000E000ABE8EFF9E0008139
:102C90001181012B19F401E0FD0100ABFD0106A13A
:102CA000013079F406A5002311F00A9506A700E08B
:102CB000E8EFF9E00083018301E0FD0100AB02E0F1
:102CC00006A307A10130B1F426A530E0FC01E181A3
:102CD000F0E031972E173F0724F4FD01022F0395F2
:102CE00006A7E8EFF9E03083318301E0FD0100AB96
:102CF00002E007A300A50130A1F460DD002329F064
:102D000000E0FD0103A70E947A0F00E0FD0106A785
:102D1000E8EFF9E00083018301E0FD0100AB02E090
:102D200000A701A50130F1F401E010E020E030E05F
:102D300046A50E94324EFC0140855185628573850F
:102D400040275127622773274087518762877387FF
:102D500000E0E8EFF9E00083018301E0FD0100AB52
:102D600002E001A7619689919991A991B991499041
:102D700059906990799008957A926A925A924A92FB
:102D8000BA93AA939A938A936197552466247724D9
:102D90004424439487EB9AE0A5E6B8E0FD0100A93E
:102DA000002309F473C008EE13E0E8EFF9E00083B4
:102DB00011830E947A0F48E75BEA60E0FD0127A5D6
:102DC00008E5029F400D511D2091F30C08E2029F7F
:102DD000400D511D10E004A50E94821060E352E0F6
:102DE00040E09D01225D3F4F8D010E5F1F4F0E940D
:102DF000DE3F9D012E5F3F4F13E0FD0104A50E94C1
:102E0000541041E150E020E030E08E010E94C150BA
:102E100040E017C020E3F80122839E01240F371FF2
:102E200050E2F9015083FD0156A5541719F45EE5EF
:102E3000F9015083F8017383440C551C661C771C00
:102E40004395FC010081401790F470E08D01040F60
:102E5000171F048015802680378004201520262027
:102E60003720012802280328A9F221E3D4CF9D01AD
:102E70002E5F3F4F16E0FD0104A50E9454109E01F5
:102E800016E0FD0104A503950E945410FD0105A55F
:102E9000002309F45AC000E000ABE8EFF9E000813C
:102EA0001181012B19F401E0FD0100ABFD0106A128
:102EB000013079F406A5002311F00A9506A700E079
:102EC000E8EFF9E00083018301E0FD0100AB02E0DF
:102ED00006A307A10130A9F406A510E0FC0180813A
:102EE00090E00197081719071CF4FD01039506A748
:102EF000E8EFF9E01083118301E0FD0100AB02E08F
:102F000007A300A50130A1F459DC002329F000E05B
:102F1000FD0103A70E947A0F00E0FD0106A7E8EF7C
:102F2000F9E00083018301E0FD0100AB02E000A7AE
:102F300001A5013051F400E0E8EFF9E000830183DE
:102F400001E0FD0100AB02E001A70CCF6A925A92AA
:102F50004A92BA93AA939A938A93619787EB9AE0DD
:102F6000A5E6B8E0FD0100A9002309F46AC008EE57
:102F700013E0E8EFF9E0008311830E947A0F48E73D
:102F80005BEA60E0FD0127A508E5029F400D511DA9
:102F90002091F30C08E2029F400D511D10E004A5A2
:102FA0000E94821060E352E040E09D01225D3F4FAD
:102FB0008D010E5F1F4F0E94DE3F9D012E5F3F4F30
:102FC00012E0FD0104A50E94541041E150E020E010
:102FD00030E08E010E94C15055242FC0652C6694AC
:102FE000062D000F152D101B06E0109F402C02E04F
:102FF000601610F5509E9C01200D311D225F3F4F41
:103000008D010E5F1F4F0E943A419D012E5F3F4F81
:10301000142D1B5FFD0104A5060D0E945410FD0137
:1030200006A5051549F423E638E004E0400E142D0A
:1030300004A5060D0E9454105394FC010281501601
:1030400068F2FD0105A5002309F45AC000E000ABB9
:10305000E8EFF9E000811181012B19F401E0FD0195
:1030600000ABFD0106A1013079F406A5002311F0A3
:103070000A9506A700E0E8EFF9E00083018301E08C
:10308000FD0100AB02E006A307A10130A9F406A5EB
:1030900010E0FC01828190E00197081719071CF4E9
:1030A000FD01039506A7E8EFF9E01083118301E025
:1030B000FD0100AB02E007A300A50130A1F47EDB17
:1030C000002329F000E0FD0103A70E947A0F00E031
:1030D000FD0106A7E8EFF9E00083018301E0FD01AF
:1030E00000AB02E000A701A5013051F400E0E8EFD9
:1030F000F9E00083018301E0FD0100AB02E001A7DC
:10310000619689919991A991B99149905990699045
:1031100008956A925A924A92BA93AA939A938A937A
:10312000619787EB9AE0A5E6B8E0FD0100A90023CE
:1031300009F46AC008EE13E0E8EFF9E000831183B8
:103140000E947A0F48E75BEA60E0FD0127A508E5E9
:10315000029F400D511D2091F30C08E2029F400D8B
:10316000511D10E004A50E94821060E352E040E08F
:103170009D01225D3F4F8D010E5F1F4F0E94DE3F7C
:103180009D012E5F3F4F12E0FD0104A50E945410E7
:1031900041E150E020E030E08E010E94C150552412
:1031A0002FC0652C6694062D000F152D101B06E010
:1031B000109F402C02E0601610F5509E9C01200DDF
:1031C000311D245F3F4F8D010E5F1F4F0E946641EE
:1031D0009D012E5F3F4F142D1B5FFD0104A5060DC1
:1031E0000E945410FD0106A5051549F423E638E0B8
:1031F00004E0400E142D04A5060D0E9454105394B3
:10320000FC010381501668F2FD0105A5002309F4B5
:103210005AC000E000ABE8EFF9E000811181012B1A
:1032200019F401E0FD0100ABFD0106A1013079F4C4
:1032300006A5002311F00A9506A700E0E8EFF9E0E3
:103240000083018301E0FD0100AB02E006A307A1BA
:103250000130A9F406A510E0FC01838190E00197FC
:10326000081719071CF4FD01039506A7E8EFF9E01C
:103270001083118301E0FD0100AB02E007A300A56C
:103280000130A1F49BDA002329F000E0FD0103A73F
:103290000E947A0F00E0FD0106A7E8EFF9E0008345
:1032A000018301E0FD0100AB02E000A701A50130B0
:1032B00051F400E0E8EFF9E00083018301E0FD0153
:1032C00000AB02E001A71CCFBA93AA939A938A930A
:1032D000229700919508002309F41AC10E947A0FE1
:1032E000A7E6B8E040E250E020E030E08D010E9427
:1032F000C15088EE9CE0E3EBFCE000811181012BE2
:10330000B1F410E000E00E94800FFC01038500236F
:1033100029F400E018EC20E00E943610FC0103853F
:10332000013029F404EB18EC20E00E943610E0EEA6
:10333000FCE02081318109E0039F102D029F002DC8
:10334000110DF801ED54F34F20813181022F032B31
:1033500009F4DEC03883298310E000E00E94800F6A
:103360000091E00C005D0C9300E2FD01018300E0A0
:1033700002838D010E941E1012E000E00E94800F67
:1033800060E351E040E09E018D010E94DE3F8D012F
:103390000E941E1014E000E00E94800F60E351E0E4
:1033A00040E09E012F5F3F4F8D010E94DE3F8D0167
:1033B0000E941E1017E000E00E94800FFC010385B0
:1033C000002351F400E018EC20E0688144E1469FBE
:1033D000000D111D0E943610FC010385013051F4CF
:1033E00004EB18EC20E0688144E1469F000D111DBC
:1033F0000E94361010E001E00E94800F60E352E06E
:1034000040E029EB3CE0E0EEFCE02080318009E088
:10341000039D102D029D110D200D311F8D010E9465
:10342000DE3F8D010E941E1006E918E00E941E106A
:1034300013E001E00E94800F60E352E040E02AEBDD
:103440003CE0E0EEFCE02080318009E0039D102D9F
:10345000029D110D200D311F8D010E94DE3F8D0157
:103460000E941E1006E918E00E941E1016E001E0FE
:103470000E94800F60E352E040E02BEB3CE0E0EE86
:10348000FCE02080318009E0039D102D029D110D8C
:10349000200D311F8D010E94DE3F8D010E941E1004
:1034A0001BE001E00E94800F60E352E040E027EB68
:1034B0003CE0E0EEFCE02080318009E0039D102D2F
:1034C000029D110D200D311F8D010E94DE3F8D01E7
:1034D0000E941E1008E918E00E941E101EE001E084
:1034E0000E94800F60E352E040E026EB3CE0E0EE1B
:1034F000FCE02080318009E0039D102D029D110D1C
:10350000200D311F8D010E94DE3F8D010E941E1093
:1035100000E00093950800918B08013089F4E0EEFB
:10352000FCE000811181012B29F000810150104045
:103530000083118301E00093950802E000938B085B
:1035400000918C08013021F5A0EEBCE0ED91FC91DA
:103550003497C0F4E0EEFCE02081318109E0039F64
:10356000102D029F002D110DF801ED54F34F018530
:103570001285012B39F0E0EEFCE089010F5F1F4F4F
:103580000083118301E00093950802E000938C080A
:1035900000918D08013009F5ECECFBEA30E0409138
:1035A000940808E5049FE00DF11D3BBF0691002340
:1035B00071F0E4E9F8E0142F100F108300E000939D
:1035C0009008E0EEFCE0008301830E947A0F01E0A6
:1035D0000093950802E000938D0800918E08013059
:1035E000F9F4ECECFBEA30E04091940808E5049F24
:1035F000E00DF11D3BBF0691002379F0E4E9F8E00E
:10360000142F100F108300E0009390080E947A0F8F
:1036100000E0E0EEFCE00083018302E000938E080E
:10362000229689919991A991B9910895BA93AA93F3
:103630009A938A9300919508002309F4CFC00091D2
:10364000F30C002321F40CE719EC20E005C0013055
:1036500041F404E01AEC20E0EEE0FDE00083118389
:1036600022838091E00C8630E8F4EEE0FDE00081FA
:103670001181228190E041E1489F000D111D005F02
:103680001F4F40918F08F8012BBF5691451728F026
:10369000E0EEFCE08083918305C083950F5E1F4FB1
:1036A000863078F30E947A0F40E250E020E030E06C
:1036B00007E618E00E94C150E0EEFCE0808190E057
:1036C000A82FB18112968A179B0708F087C010E0D7
:1036D0002081082F021B0E94800F883008F069C0EB
:1036E00060918F08EEE0FDE000811181228141E1CF
:1036F000489F000D111DF80170962BBF06916017B1
:10370000D8F4482F43954830B8F4EEE0FDE000814E
:10371000118161E1649F000D111D005F1F4F5091E9
:103720008F08F8016691561710F0842F05C0439555
:103730000F5E1F4F483098F3EEE0FDE0408151816D
:10374000622F01E1089F400D511D00918F08FA0181
:1037500070961691011768F107E618E00E94DA3DAD
:1037600007E618E00E941E10082F035019F00A9572
:10377000D1F02AC064E070E04EEA5EE007E61EED9C
:1037800021E030E00E94650C40E02EEA3EE007E6D2
:1037900018E00E94B34118E02091E00C082F021BB2
:1037A0000E94800F0DC064E070E04EEA5EE00BE620
:1037B000E6CF4CE85AEC60E007E618E00E94DA3DFC
:1037C00007E618E00E941E108395E0EEFCE0A08161
:1037D000B18112968A179B0708F479CF00E0009315
:1037E000950800918B08013009F04AC0E0EEFCE03A
:1037F0004081042F1181012B29F0042F015010402A
:103800000083118380818823C9F050918F08EEE0F6
:10381000FDE000811181328190E061E1689F000D3F
:10382000111DF80170963BBF0691501728F0E0EE8D
:10383000FCE08083918302C08A9539F720918F083C
:10384000AEE0BDE0ED91FD913C91A0EEBCE06D914C
:103850007C9101E1079F102D069F110DE00DF11FD6
:1038600070963BBF0691201728F450E0E0EEFCE094
:103870004083518301E00093950802E000938B0898
:1038800000918C08013009F04DC0E0EEFCE0408171
:1038900091814630904030F4042F11810F5F1F4F0B
:1038A0000083118380818630D0F450918F08EEE040
:1038B000FDE000811181328190E061E1689F000D9F
:1038C000111DF80170963BBF0691501728F0E0EEED
:1038D000FCE08083918303C08395863030F3509160
:1038E0008F08EEE0FDE0008111813281E0EEFCE026
:1038F0002080318061E1639D702D629D710D000D0E
:10390000171FF80170963BBF0691501728F450E03E
:10391000E0EEFCE04083518301E00093950802E073
:1039200000938C0800918D08013009F5ECECFBEA5E
:1039300030E04091940808E5049FE00DF11D3BBF85
:103940000691002389F0E4E9F8E0142F100F1083AA
:1039500000E000939008E0EEFCE00083018301E0CA
:10396000009395080E947A0F02E000938D08009161
:103970008E08013009F5EDECFBEA30E04091940847
:1039800008E5049FE00DF11D3BBF0691002389F07F
:10399000E4E9F8E0142F100F108300E00093900882
:1039A000E0EEFCE00083018301E0009395080E94B3
:1039B0007A0F02E000938E0889919991A991B991AB
:1039C00008959A938A9300919508002309F46CC096
:1039D0000E947A0F40E250E020E030E007E618E075
:1039E0000E94C1508091E00C8E7F90E011E000E0D9
:1039F0000E94800F4CE95AEC60E0880F991F880FF5
:103A0000991F880F991F880F991F480F591F07E6A4
:103A100018E00E94DA3D07E618E00E941E1080912F
:103A2000E00C8E7F90E00196823000E09007CCF4AD
:103A300011E001E00E94800F4CE95AEC60E0880F31
:103A4000991F880F991F880F991F880F991F480F7A
:103A5000591F07E618E00E94DA3D07E618E00E94C9
:103A60001E108091E00C817010E000E00E94800F39
:103A70000AE918E00E941E1010E001E00E94800F89
:103A80000AE918E00E941E10882319F08A9521F097
:103A90000BC010E000E002C010E001E00E94800FC7
:103AA0000CE918E00E941E1000E0009395080091B8
:103AB0008B08013089F4E0EEFCE000811181012BDC
:103AC00029F00081015010400083118301E0009330
:103AD000950802E000938B0800918C08013081F476
:103AE000E0EEFCE000811181012B21F401E010E007
:103AF0000083118301E00093950802E000938C0895
:103B000000918D08013029F5ECECFBEA30E04091A2
:103B1000940808E5049FE00DF11D3BBF06910023CA
:103B200091F0E4E9F8E0142F100F108300E0009307
:103B3000900801E0009395080E947A0F00E0E0EE03
:103B4000FCE00083018301E00093950802E000930C
:103B50008D0800918E08013041F5ECECFBEA30E075
:103B60004091940808E5049FE00DF11D3BBF0691CC
:103B70000023C1F0E4E9F8E0142F100F108300E0F7
:103B80000093900801E0009395080091E00C0093E9
:103B9000F30C0E94DD110E947A0F00E0E0EEFCE0E1
:103BA0000083018302E000938E0889919991089522
:103BB000BA93AA939A938A93A8EEBCE0FD0102857A
:103BC0000023F9F40CE00E943E0F01E010E00E9497
:103BD000DB4901E00093950800938F08EFECFBEAC6
:103BE00030E04091940808E5049FE00DF11D3BBFD3
:103BF0000691E4E9F8E0142F100F10830E947A0F69
:103C00002FC200919508002309F4EEC00E947A0F9C
:103C10000091E40C0130D9F50CE00E943E0F01E068
:103C200010E00E94DB490E947A0FFD01038500230A
:103C300091F410E000E00E94800F0DEC1AEC20E0FF
:103C40000E94361010E001E00E94800F01E11BECA1
:103C500020E00E943610FD010385013091F410E050
:103C600000E00E94800F05E51BEC20E00E9436106A
:103C700010E001E00E94800F09E91BEC20E00E94A7
:103C8000361008EE13E0E8EFF9E0008311830091AD
:103C9000E40C0230D9F50CE00E943E0F01E010E088
:103CA0000E94DB490E947A0FFD010385002391F4F5
:103CB00010E000E00E94800F0EED1AEC20E00E9460
:103CC000361010E001E00E94800F00E01BEC20E0C5
:103CD0000E943610FD010385013091F410E000E0F0
:103CE0000E94800F06E61BEC20E00E94361010E0D8
:103CF00001E00E94800F08E81BEC20E00E943610D3
:103D000008EE13E0E8EFF9E0008311830091E40C82
:103D1000002309F069C010E000E00E94800FFD015F
:103D20000385002339F44CEB5AEC60E007E618E019
:103D30000E94DA3DFD010385013039F444E45BEC77
:103D400060E007E618E00E94DA3D07E618E00E940E
:103D50001E101AE000E00E94800FFD010385002381
:103D600039F44FEE5AEC60E007E618E00E94DA3DC5
:103D7000FD010385013039F447E75BEC60E007E6BD
:103D800018E00E94DA3D07E618E00E941E100DE0E0
:103D90000E943E0F01E010E00E94DB491AE000E0C3
:103DA0000E94800F0FEE1AEC20E00E943610109156
:103DB000E00C165F00E00E94800F40E022EE3CE045
:103DC00007E618E00E94823F07E618E00E941E10F6
:103DD0001091E00C165F00E00E94800F08E813E1EC
:103DE000E8EFF9E00083118300E000939508E8EF25
:103DF000F9E000811181012B09F069C001E0009315
:103E000095080091E40C002329F00A9551F00A95D9
:103E100071F154C002E00093E40C00E000938F08BD
:103E20004DC00CE00E943E0F01E010E00E94DB4913
:103E300000E0E0EEFCE000830183E2EEFCE00083C2
:103E40000183EFECFBEA30E04091940808E5049F21
:103E5000E00DF11D3BBF0691E4E9F8E0142F100FCF
:103E6000108300E00093E40C0E947A0F27C00CE05E
:103E70000E943E0F01E010E00E94DB4900E0E0EE0E
:103E8000FCE000830183E2EEFCE000830183009309
:103E9000E40CEFECFBEA30E04091940808E5049F65
:103EA000E00DF11D3BBF0691E4E9F8E0142F100F7F
:103EB00010830E947A0F00E00093E40C01E000936D
:103EC000950808EE13E0E8EFF9E000831183009114
:103ED0008B080130C9F4E2EEFCE0808191818930E9
:103EE000904030F4082F11810F5F1F4F0083118322
:103EF00001E00093950808E813E1E8EFF9E000839A
:103F0000118302E000938B0800918C08013089F442
:103F1000E2EEFCE000811181012B29F000810150CB
:103F200010400083118301E00093950802E00093A4
:103F30008C0800918D080130F1F402E000938D08A7
:103F400008E813E1E8EFF9E00083118300E0009353
:103F5000E50CE0EEFCE000811181012B49F00081CD
:103F6000015010400083118301E00093950803C0C5
:103F700002E00093E40C00918E08013009F070C05B
:103F8000E0EEFCE08081918185309040B0F40091BA
:103F9000E20C282F3091E10CF901EF5EF24F008323
:103FA00000E0E2EEFCE000830183E0EEFCE0008153
:103FB00011810F5F1F4F00831183808191818530B4
:103FC000904008F441C004E010E00083118302E057
:103FD0000093E40C10938F0801E00093E50C81E15D
:103FE0009DE08D0125E0FC013081F801408134170E
:103FF00019F030E03093E50C0F5F1F4F01962A95C2
:1040000091F70091E50C002329F001E00093E40C06
:1040100000938F0801E00093E50CE1E1FDE01596C7
:1040200005E011912D91121719F010E01093E50C95
:104030000A95B9F70091E50C002331F001E00093F7
:10404000E40C02E000938F0801E00093950808E873
:1040500013E1E8EFF9E00083118302E000938E089A
:1040600089919991A991B9910895BA93AA939A9334
:104070008A93A8EEBCE000919508002309F4EEC0F5
:104080000E947A0F0091E40C0130D9F50CE00E94F7
:104090003E0F01E010E00E94DB490E947A0FFD0113
:1040A0000385002391F410E000E00E94800F0DECE6
:1040B0001AEC20E00E94361010E001E00E94800F10
:1040C00001E11BEC20E00E943610FD010385013068
:1040D00091F410E000E00E94800F05E51BEC20E069
:1040E0000E94361010E001E00E94800F09E91BECED
:1040F00020E00E94361008EE13E0E8EFF9E00083BC
:1041000011830091E40C0230D9F50CE00E943E0FBF
:1041100001E010E00E94DB490E947A0FFD01038557
:10412000002391F410E000E00E94800F0EED1AECE5
:1041300020E00E94361010E001E00E94800F00E0B5
:104140001BEC20E00E943610FD010385013091F444
:1041500010E000E00E94800F06E61BEC20E00E94C9
:10416000361010E001E00E94800F08E81BEC20E010
:104170000E94361008EE13E0E8EFF9E000831183A7
:104180000091E40C002309F069C010E000E00E94F7
:10419000800FFD010385002339F44CEB5AEC60E0FD
:1041A00007E618E00E94DA3DFD010385013039F48D
:1041B00044E45BEC60E007E618E00E94DA3D07E6C5
:1041C00018E00E941E101AE000E00E94800FFD011E
:1041D0000385002339F44FEE5AEC60E007E618E05F
:1041E0000E94DA3DFD010385013039F447E75BECBD
:1041F00060E007E618E00E94DA3D07E618E00E945A
:104200001E100DE00E943E0F01E010E00E94DB490D
:104210001AE000E00E94800F0FEE1AEC20E00E94EE
:1042200036101091E00C165F00E00E94800F40E015
:1042300022EE3CE007E618E00E94823F07E618E025
:104240000E941E101091E00C165F00E00E94800F8B
:1042500008E813E1E8EFF9E00083118300E0009340
:104260009508E8EFF9E000811181012B09F040C0C9
:1042700001E0009395080091E40C002329F00A95D1
:1042800051F00A9541F02BC002E00093E40C00E0ED
:1042900000938F0824C00CE00E943E0F01E010E064
:1042A0000E94DB4900E0E0EEFCE000830183E2EEE7
:1042B000FCE0008301830093E40CECECFBEA30E0CB
:1042C0004091940808E5049FE00DF11D3BBF069165
:1042D000E4E9F8E0142F100F10830E947A0F01E038
:1042E0000093950808EE13E0E8EFF9E000831183EE
:1042F00000918B080130C9F4E2EEFCE080819181ED
:104300008930904030F4082F11810F5F1F4F0083D8
:10431000118301E00093950808E813E1E8EFF9E064
:104320000083118302E000938B0800918C08013018
:1043300089F4E2EEFCE000811181012B29F000817B
:10434000015010400083118301E00093950802E0C2
:1043500000938C0800918D080130F1F402E0009385
:104360008D0808E813E1E8EFF9E00083118300E02D
:104370000093E50CE0EEFCE000811181012B49F097
:104380000081015010400083118301E000939508E3
:1043900003C002E00093E40C00918E08013009F0A4
:1043A00070C0E0EEFCE08081918185309040B0F4F7
:1043B0000091E20C282F3091E10CF901EF5EF24FF1
:1043C000008300E0E2EEFCE000830183E0EEFCE02D
:1043D000008111810F5F1F4F0083118380819181C4
:1043E0008530904008F441C004E010E00083118360
:1043F00002E00093E40C10938F0801E00093E50CB9
:1044000081E19DE08D0125E0FC013081F8014081D2
:10441000341719F030E03093E50C0F5F1F4F019611
:104420002A9591F70091E50C002329F001E0009313
:10443000E40C00938F0801E00093E50CE1E1FDE05E
:10444000159605E011912D91121719F010E01093B7
:10445000E50C0A95B9F70091E50C002331F001E075
:104460000093E40C02E000938F0801E000939508AC
:1044700008E813E1E8EFF9E00083118302E000931C
:104480008E08EECDBA93AA93A8EEBCE000919508F1
:10449000002309F45EC008EE13E0E8EFF9E00083C2
:1044A0001183009191080E94B9102EE938E010E0C4
:1044B000009190080E94541048E75BEA60E0209168
:1044C000940808E5029F400D511DFD01238508E277
:1044D000029F400D511D11E0009191080E94821031
:1044E000FD0103850023A9F40285002339F442E28B
:1044F0005BEC60E007E618E00E94DA3DFD01028512
:10450000013039F443E35BEC60E007E618E00E9419
:10451000DA3DFD0103850130A9F40285002339F459
:104520004AEA5BEC60E007E618E00E94DA3DFD0134
:104530000285013039F44BEB5BEC60E007E618E0F4
:104540000E94DA3D27E638E018E0009191080E94C9
:10455000541000919208002309F484C000E00093F5
:104560009508E8EFF9E000811181012B19F401E0D1
:104570000093950800918B080130B9F40E946013F4
:10458000002341F000919008002321F0E0E9F8E0D9
:104590000A95008300E0E8EFF9E00083018301E081
:1045A0000093950802E000938B0800918C0801307D
:1045B000B1F40E948A13002339F00091900800237F
:1045C00019F401E00093900800E0E8EFF9E00083BF
:1045D000018301E00093950802E000938C080091AC
:1045E0008D08013031F50091160D002341F0FD01D9
:1045F0000285013021F403E00093940804C00E9476
:10460000DE13002329F000E0009390080E947A0F47
:104610000091160D002311F00E94DD1100E0E8EF7B
:10462000F9E00083018301E00093950802E0009324
:104630008D0800918E080130A9F4FD010285002348
:1046400021F401E0028700E003C000E0028701E0FE
:1046500000938F0801E00093160D0093950802E087
:1046600000938E08A991B9910895BA93AA932297BD
:1046700000919508002309F4F1C008EE13E0E8EF7B
:10468000F9E000831183009191080E94B91020EA9B
:1046900038E010E0009190080E94541016E000915C
:1046A00091080E94800F2091E60C04E2029FF00125
:1046B000EF51F54F008112E0019FF001E954F54FF1
:1046C0000685178508831983083E23E013401CF0F4
:1046D00007EE088329839E0107E618E00E943A410D
:1046E00007E618E00E941E1011E0009191080E9458
:1046F000800F40E250E020E030E007E618E00E9442
:10470000C150A8EEBCE0FD010385002309F044C0C0
:104710002091E60C04E2029FF001EF51F54F07856E
:10472000002339F444ED5BEC60E007E618E00E94FA
:10473000DA3D2091E60C04E2029FF001EF51F54FC3
:104740000785013039F44CEC5BEC60E007E618E0DB
:104750000E94DA3D2091E60C04E2029FF001EF5145
:10476000F54F0785023039F444EE5BEC60E007E674
:1047700018E00E94DA3D2091E60C04E2029FF0016D
:10478000EF51F54F0785033039F44CEE5BEC60E0F8
:1047900007E618E00E94DA3DFD010385013009F0CB
:1047A00044C02091E60C04E2029FF001EF51F54F66
:1047B0000785002339F44CEF5BEC60E007E618E076
:1047C0000E94DA3D2091E60C04E2029FF001EF51D5
:1047D000F54F0785013039F444EF5BEC60E007E604
:1047E00018E00E94DA3D2091E60C04E2029FF001FD
:1047F000EF51F54F0785023039F44CE05CEC60E096
:1048000007E618E00E94DA3D2091E60C04E2029FE0
:10481000F001EF51F54F0785033039F444E15CECCA
:1048200060E007E618E00E94DA3D07E618E00E9423
:104830001E101CE0009191080E94800F28EE3AE0C3
:104840004091E60C04E2049F200D311D07E618E0BC
:104850000E94534107E618E00E941E100E94AB140C
:104860002296A991B991089500E00093E60CFDCE3F
:1048700001E00093E60CF9CEBA93AA930091950853
:10488000002309F4C0C008EE13E0E8EFF9E000836C
:104890001183009191080E94B91020EA38E010E0DD
:1048A000009190080E945410A8EEBCE048E75BEA33
:1048B00060E02091940808E5029F400D511DFD0124
:1048C000238508E2029F400D511D11E000919108DF
:1048D0000E948210FD010385002309F044C020914D
:1048E000E60C04E2029FF001EF51F54F078500232B
:1048F00039F444ED5BEC60E007E618E00E94DA3D35
:104900002091E60C04E2029FF001EF51F54F07857C
:10491000013039F44CEC5BEC60E007E618E00E94F3
:10492000DA3D2091E60C04E2029FF001EF51F54FD1
:104930000785023039F444EE5BEC60E007E618E0EE
:104940000E94DA3D2091E60C04E2029FF001EF5153
:10495000F54F0785033039F44CEE5BEC60E007E679
:1049600018E00E94DA3DFD010385013009F044C0E2
:104970002091E60C04E2029FF001EF51F54F07850C
:10498000002339F44CEF5BEC60E007E618E00E948E
:10499000DA3D2091E60C04E2029FF001EF51F54F61
:1049A0000785013039F444EF5BEC60E007E618E07E
:1049B0000E94DA3D2091E60C04E2029FF001EF51E3
:1049C000F54F0785023039F44CE05CEC60E007E617
:1049D00018E00E94DA3D2091E60C04E2029FF0010B
:1049E000EF51F54F0785033039F444E15CEC60E0AA
:1049F00007E618E00E94DA3D27E638E018E000916B
:104A000091080E94541000919208002309F474C088
:104A100000E000939508E8EFF9E000811181012B97
:104A200019F401E00093950800918B080130B9F466
:104A30000E946013002341F000919008002321F0B0
:104A4000E0E9F8E00A95008300E0E8EFF9E0008390
:104A5000018301E00093950802E000938B08009128
:104A60008C080130B1F40E948A13002339F00091C0
:104A70009008002319F401E00093900800E0E8EFAB
:104A8000F9E00083018301E00093950802E00093C0
:104A90008C0800918D080130A1F40E94DE130023E0
:104AA00029F000E0009390080E947A0F00E0E8EF00
:104AB000F9E00083018301E00093950802E0009390
:104AC0008D0800918E080130B9F4E1EEFAE02091F2
:104AD000E60C04E2029FE00DF11D0785002311F4AE
:104AE00001E001C000E007870E94DD1101E00093B2
:104AF000950802E000938E08A991B991089500915C
:104B000095080023C1F108EE13E0E8EFF9E0008317
:104B10001183009191080E94B91020EA38E010E05A
:104B2000009190080E94541048E75BEA60E02091F1
:104B3000940808E5029F400D511D2091F30C08E2F6
:104B4000029F400D511D11E0009191080E948210BA
:104B500028EE3AE04091E60C04E2049F200D311D5E
:104B600007E618E00E94ED4027E638E018E00091E3
:104B700091080E9454100C94AB14009195080023E6
:104B8000C1F108EE13E0E8EFF9E000831183009132
:104B900091080E94B91020EA38E010E000919008D6
:104BA0000E94541048E75BEA60E02091940808E511
:104BB000029F400D511D2091F30C08E2029F400D11
:104BC000511D11E0009191080E9482102AEE3AE0F6
:104BD0004091E60C04E2049F200D311D07E618E029
:104BE0000E94664127E638E018E0009191080E9493
:104BF00054100C94AB14009195080023C1F108EEF9
:104C000013E0E8EFF9E000831183009191080E941E
:104C1000B91020EA38E010E0009190080E9454108A
:104C200048E75BEA60E02091940808E5029F400DA8
:104C3000511D2091F30C08E2029F400D511D11E01F
:104C4000009191080E94821022EE3AE04091E60C19
:104C500004E2049F200D311D07E618E00E94383F52
:104C600027E638E018E0009191080E9454100C9457
:104C7000AB14009195080023C1F108EE13E0E8EFB2
:104C8000F9E000831183009191080E94B91020EA95
:104C900038E010E0009190080E94541048E75BEA69
:104CA00060E02091940808E5029F400D511D20917D
:104CB000F30C08E2029F400D511D11E00091910894
:104CC0000E94821026EE3AE04091E60C04E2049F36
:104CD000200D311D07E618E00E94383F27E638E036
:104CE00018E0009191080E9454100C94AB140091AC
:104CF00095080023C1F108EE13E0E8EFF9E0008326
:104D00001183009191080E94B91020EA38E010E068
:104D1000009190080E94541048E75BEA60E02091FF
:104D2000940808E5029F400D511D2091F30C08E204
:104D3000029F400D511D11E0009191080E948210C8
:104D400024EE3AE04091E60C04E2049F200D311D70
:104D500007E618E00E94383F27E638E018E00091A7
:104D600091080E9454100C94AB14009195080023F4
:104D7000C1F108EE13E0E8EFF9E000831183009140
:104D800091080E94B91020EA38E010E000919008E4
:104D90000E94541048E75BEA60E02091940808E51F
:104DA000029F400D511D2091F30C08E2029F400D1F
:104DB000511D11E0009191080E9482102EEE3AE000
:104DC0004091E60C04E2049F200D311D07E618E037
:104DD0000E94664127E638E018E0009191080E94A1
:104DE00054100C94AB14009195080023C1F108EE07
:104DF00013E0E8EFF9E000831183009191080E942D
:104E0000B91020EA38E010E0009190080E94541098
:104E100048E75BEA60E02091940808E5029F400DB6
:104E2000511D2091F30C08E2029F400D511D11E02D
:104E3000009191080E9482102CEE3AE04091E60C1D
:104E400004E2049F200D311D07E618E00E94664130
:104E500027E638E018E0009191080E9454100C9465
:104E6000AB14229700919508002309F447C008EE7F
:104E700013E0E8EFF9E000831183009191080E94AC
:104E8000B91020EA38E010E0009190080E94541018
:104E900048E75BEA60E02091940808E5029F400D36
:104EA000511D2091F30C08E2029F400D511D11E0AD
:104EB000009191080E9482102091E60C04E2029F6A
:104EC000F001EF51F54F048D158D268D378D40E0A3
:104ED00050E06AE774E40E94924F0E94DD4E08831E
:104EE000198340E09E0107E618E00E949C3E27E6F9
:104EF00038E018E0009191080E9454100E94AB1411
:104F000022960895229700919508002309F447C03E
:104F100008EE13E0E8EFF9E00083118300919108B7
:104F20000E94B91020EA38E010E0009190080E9439
:104F3000541048E75BEA60E02091940808E5029F7E
:104F4000400D511D2091F30C08E2029F400D511DB0
:104F500011E0009191080E9482102091E60C04E279
:104F6000029FF001EF51F54F008D118D228D338D91
:104F700040E050E06AE774E40E94924F0E94DD4EE8
:104F80000883198340E09E0107E618E00E949C3EDA
:104F900027E638E018E0009191080E9454100E9422
:104FA000AB1422960895009195080023C1F108EEF4
:104FB00013E0E8EFF9E000831183009191080E946B
:104FC000B91020EA38E010E0009190080E945410D7
:104FD00048E75BEA60E02091940808E5029F400DF5
:104FE000511D2091F30C08E2029F400D511D11E06C
:104FF000009191080E94821020E53DE00091E60CAE
:1050000012E0019F200D311D07E618E00E94383F95
:1050100027E638E018E0009191080E9454100C94A3
:10502000AB142297009195080023E9F108EE13E0F4
:10503000E8EFF9E000831183009191080E94B91014
:1050400020EA38E010E0009190080E94541048E7F0
:105050005BEA60E02091940808E5029F400D511D35
:105060002091F30C08E2029F400D511D11E00091C8
:1050700091080E9482102091E60C04E2029FF00148
:10508000EF51F54F00A111A10883198340E09E0163
:1050900007E618E00E949C3E27E638E018E0009101
:1050A00091080E9454100E94AB14229608952297F2
:1050B000009195080023E9F108EE13E0E8EFF9E02C
:1050C00000831183009191080E94B91020EA38E012
:1050D00010E0009190080E94541048E75BEA60E0FD
:1050E0002091940808E5029F400D511D2091F30C7A
:1050F00008E2029F400D511D11E0009191080E94AD
:1051000082102091E60C04E2029FF001EF51F54F6E
:1051100002A113A10883198340E09E0107E618E06D
:105120000E949C3E27E638E018E0009191080E941A
:1051300054100E94AB14229608952297009195086E
:105140000023E9F108EE13E0E8EFF9E000831183B2
:10515000009191080E94B91020EA38E010E0009117
:1051600090080E94541048E75BEA60E020919408A0
:1051700008E5029F400D511D2091F30C08E2029FAB
:10518000400D511D11E0009191080E948210209164
:10519000E60C04E2029FF001EF51F54F02891389FA
:1051A0000883198340E09E0107E618E00E949C3EB8
:1051B00027E638E01AE0009191080E9454100E94FE
:1051C000AB1422960895BA93AA939A938A93009166
:1051D0009208002309F42EC20DE00E943E0F01E068
:1051E00010E00E94DB4910E000E00E94800F00E028
:1051F00000939508E8EFF9E000811181012B19F483
:1052000001E000939508A1EEBAE02091E60C04E2DB
:10521000029FA00DB11D00918B08013009F0DBC089
:105220000091E70C0E3008F0CBC0F0E0FBBFF2E0DD
:105230000F9FF001E653FE4F07901690F00109947E
:1052400001E0FD010787BCC0FD01078110850C3D11
:1052500025E012070CF0B4C00B5F1F4F07831087C7
:10526000AFC0FD01018512850E3D23E012070CF051
:10527000A7C0065F1F4F01871287A2C0FD010181F1
:105280001281003325E712070CF09AC00B5F1F4F05
:105290000183128395C0FD0103811481003325E74A
:1052A00012070CF08DC00B5F1F4F0383148388C05F
:1052B000FD0105811681003325E712070CF080C03F
:1052C0000B5F1F4F058316837BC0FD010089118989
:1052D000003F20E0120708F073C00F5F1F4F008BE4
:1052E000118B6EC0FD01058516850E3D23E012076A
:1052F0000CF066C0065F1F4F0587168761C0FD0171
:10530000038514850E3D23E012070CF059C0065F9B
:105310001F4F0387148754C0FD01008D118D228D0E
:10532000338D4DEC5CEC6CEC7DE30E947E5008F01C
:1053300047C04FE652E163E87AE30E94314FFD0136
:10534000008F118F228F338F3BC0FD01048D158D8F
:10535000268D378D4DEC5CEC6CEC7EE30E947E502C
:1053600078F54FE652E163E07BE30E94314FFD01A7
:10537000048F158F268F378F23C0FD0100A111A147
:10538000043620E01207E0F40F5F1F4F00A311A3C3
:1053900017C0FD0102A113A1003921E0120780F41A
:1053A0000B5F1F4F02A313A30BC0FD0102891389DA
:1053B000003921E0120720F40F5F1F4F028B138B7F
:1053C00000E0E8EFF9E00083018301E00093950835
:1053D00002E000938B0800918C08013009F0EAC0CC
:1053E0000091E70C0E3008F0DFC0F0E0FBBFF2E008
:1053F0000F9FF001EA51FE4F07901690F0010994BB
:1054000000E0FD010787D0C0FD01878190858630CF
:1054100090403CF0082F10850550104007831087FE
:10542000C3C000E007830087BFC0FD01018512856E
:1054300003322CEF12070CF4B7C00A50104001875A
:105440001287B2C0FD0181819281863090403CF08C
:10545000082F12810550104001831283A5C000E07F
:1054600001830283A1C0FD01838194818630904035
:105470003CF0082F1481055010400383148394C01E
:1054800000E00383048390C0FD018581968186300E
:1054900090403CF0082F168105501040058316837C
:1054A00083C000E0058306837FC0FD010089118968
:1054B000012B09F479C0008901501040008B118B39
:1054C00073C0FD01858596858B3090403CF0082F98
:1054D00016850A5010400587168766C000E00587CC
:1054E000068762C0FD01838594858B3090403CF037
:1054F000082F14850A5010400387148755C000E018
:105500000387048751C0FD01008D118D228D338DDD
:1055100041E050E060E070E00E94965008F044C026
:105520004FE652E163E87AEB0E94314FFD01008FB4
:10553000118F228F338F38C0FD01048D158D268D7C
:10554000378D40E752E163E07BE30E94965060F5BF
:105550004FE67BEB0E94314FFD01048F158F268FA4
:10556000378F22C0FD0100A111A1012BE9F000A19C
:105570000150104000A311A317C0FD0182A193A107
:105580008630904088F0082F13A10550104002A3E8
:1055900013A30AC0FD0102891389012B29F0028996
:1055A00001501040028B138B01E00093950802E03C
:1055B00000938C0800918D080130D9F40E94DE130D
:1055C000002329F000E0009390080E947A0F0CE07D
:1055D0000E943E0F01E010E00E94DB4900E0E8EF8E
:1055E000F9E00083018301E00093950802E0009355
:1055F0008D0800918E080130E9F40E94DE1300232B
:1056000039F000E0009390080E947A0F0E94DD11AB
:105610000CE00E943E0F01E010E00E94DB4900E038
:10562000E8EFF9E00083018301E00093950802E0D0
:1056300000938E0889919991A991B991089500914B
:1056400095080023C1F108EE13E0E8EFF9E00083CC
:105650001183009191080E94B91020EA38E010E00F
:10566000009190080E94541048E75BEA60E02091A6
:10567000940808E5029F400D511D2091F30C08E2AB
:10568000029F400D511D11E0009191080E9482106F
:1056900028EE3AE04091E60C04E2049F200D311D13
:1056A00007E618E00E94ED4027E638E018E0009198
:1056B00091080E9454107CC0009195080023C1F10C
:1056C00008EE13E0E8EFF9E0008311830091910800
:1056D0000E94B91020EA38E010E0009190080E9482
:1056E000541048E75BEA60E02091940808E5029FC7
:1056F000400D511D2091F30C08E2029F400D511DF9
:1057000011E0009191080E94821022EE3AE040914F
:10571000E60C04E2049F200D311D07E618E00E940C
:10572000383F27E638E018E0009191080E945410B5
:1057300003E03FC0009195080023C1F108EE13E09B
:10574000E8EFF9E000831183009191080E94B910FD
:1057500020EA38E010E0009190080E94541048E7D9
:105760005BEA60E02091940808E5029F400D511D1E
:105770002091F30C08E2029F400D511D11E00091B1
:1057800091080E94821026EE3AE04091E60C04E275
:10579000049F200D311D07E618E00E94383F27E6E0
:1057A00038E018E0009191080E94541005E001C013
:1057B00001E00093E70C07CD009195080023C1F1AB
:1057C00008EE13E0E8EFF9E00083118300919108FF
:1057D0000E94B91020EA38E010E0009190080E9481
:1057E000541048E75BEA60E02091940808E5029FC6
:1057F000400D511D2091F30C08E2029F400D511DF8
:1058000011E0009191080E94821024EE3AE040914C
:10581000E60C04E2049F200D311D07E618E00E940B
:10582000383F27E638E018E0009191080E945410B4
:1058300004E0BFCF009195080023C1F108EE13E00A
:10584000E8EFF9E000831183009191080E94B910FC
:1058500020EA38E010E0009190080E94541048E7D8
:105860005BEA60E02091940808E5029F400D511D1D
:105870002091F30C08E2029F400D511D11E00091B0
:1058800091080E9482102EEE3AE04091E60C04E26C
:10589000049F200D311D07E618E00E94664127E6AF
:1058A00038E018E0009191080E94541007E081CF81
:1058B000009195080023C1F108EE13E0E8EFF9E04C
:1058C00000831183009191080E94B91020EA38E00A
:1058D00010E0009190080E94541048E75BEA60E0F5
:1058E0002091940808E5029F400D511D2091F30C72
:1058F00008E2029F400D511D11E0009191080E94A5
:1059000082102CEE3AE04091E60C04E2049F200D58
:10591000311D07E618E00E94664127E638E018E0EE
:10592000009191080E94541008E043CF2297009103
:105930009508002309F447C008EE13E0E8EFF9E00A
:1059400000831183009191080E94B91020EA38E089
:1059500010E0009190080E94541048E75BEA60E074
:105960002091940808E5029F400D511D2091F30CF1
:1059700008E2029F400D511D11E0009191080E9424
:1059800082102091E60C04E2029FF001EF51F54FE6
:10599000048D158D268D378D40E050E06AE774E464
:1059A0000E94924F0E94DD4E0883198340E09E01C1
:1059B00007E618E00E949C3E27E638E018E00091D8
:1059C00091080E9454100AE0CFC0229700919508D8
:1059D000002309F447C008EE13E0E8EFF9E0008384
:1059E0001183009191080E94B91020EA38E010E07C
:1059F000009190080E94541048E75BEA60E0209113
:105A0000940808E5029F400D511D2091F30C08E217
:105A1000029F400D511D11E0009191080E948210DB
:105A20002091E60C04E2029FF001EF51F54F008D4A
:105A3000118D228D338D40E050E06AE774E40E94BE
:105A4000924F0E94DD4E0883198340E09E0107E6D5
:105A500018E00E949C3E27E638E018E0009191088B
:105A60000E94541009E080C0009195080023C1F104
:105A700008EE13E0E8EFF9E000831183009191084C
:105A80000E94B91020EA38E010E0009190080E94CE
:105A9000541048E75BEA60E02091940808E5029F13
:105AA000400D511D2091F30C08E2029F400D511D45
:105AB00011E0009191080E94821020E53DE00091E4
:105AC000E60C12E0019F200D311D07E618E00E9450
:105AD000383F27E638E018E0009191080E94541002
