:100000000C94FE3118951895189518951895189513
:100010001895189518951895189518951895189578
:100020001895189518951895189518951895189568
:100030000C942618189518951895189518951895D4
:100040001895189518951895189518951895189548
:100050001895189518951895189518951895189538
:100060001895189518951895189518951895189528
:1000700018951895189518950C94B8171895189503
:100080001895189518951895189518956605B7063A
:10009000B706B7066F05B706B706B706B706B706C1
:1000A000B706B706B706B7067A05B706B706B706A6
:1000B000B706B70666059305C1059C05A505AF05FE
:1000C000B805CA05D5050D06E005EB05F7050206DE
:1000D00018063706210642062C064D06580663060A
:1000E000B706B7066C0677068D068106B706B70613
:1000F000A5069906AB08A008B808C408D008CB0824
:10010000DB08E208B909B909B909B909B909B90996
:10011000B909B909F00814090B090209F908B90964
:10012000B909B909B909B909B90937093F09B909BB
:100130004F09E70852095E091D0930094709B90945
:100140006A097209790981098909900997099E0943
:10015000A509AF09D3093F0BDC09060A3F0B110AB9
:10016000180A3F0B3F0B3F0B3F0B290A360A430A85
:10017000500A5D0A6A0A760A900A830A3F0B3F0B0F
:100180003F0B3F0B3F0B9D0A3F0B3F0BA80AE90AB1
:100190001D0AEC0AF70AB30AC90ADD0A3F0B040B71
:1001A0000A0B100B160B1C0B220B280B2E0B340BFF
:1001B0003A0BBA93AA93A4E3B4E00AEA15E50D93C7
:1001C0001C931197FD0102811381007E20915B0831
:1001D000022B0F71107CE9EAF3E022813381207C4D
:1001E0003F73022B132BFD010283138304E001876D
:1001F00064E070E0AD01465F5F4F07E61EED21E071
:1002000030E00E943B1867E070E0AD01425F5F4F55
:100210000FE61EED21E030E00E943B1864E070E044
:10022000AD014A5E5F4F07E61FED21E030E00E941E
:100230003B1867E070E0AD01465E5F4F0FE61FEDD3
:1002400021E030E00E943B188D01095D1F4FEAE973
:10025000F3E00083118300910A08FD0100AB9D01CA
:10026000275D3F4FE3EFF7E0890147E050E00E9450
:10027000C6340091FA07FD0100A70091AC0701AB5D
:10028000E3E7F7E001A912A9FD0102AB13ABE3E735
:10029000F7E004851585FD0104AB15AB00919D07C2
:1002A00012E0019FF001ED58F84F06851785FD011A
:1002B00006AB17AB0FE207C2BA93AA93A4E3B4E06C
:1002C0000AEA15E50D931C931197FD010281138134
:1002D000007E20915B08022B0F71107CE9EAF3E0AD
:1002E00022813381207C3F73022B132BFD0102837B
:1002F000138304E1048344E150E023E737E042C183
:10030000BA93AA93602FA4E3B4E00AEA15E50D932B
:100310001C931197FD0102811381007E20915B08DF
:10032000022B0F71107CE9EAF3E022813381207CFB
:100330003F73022B132BFD010283138305E2048319
:10034000623045E250E058F42DE937E0069F200D79
:10035000311D8D01075F1F4F0E94DB3407C020E075
:1003600030E08D01075F1F4F0E94E934ADC1BA93A1
:10037000AA93A4E3B4E00AEA15E50D931C93119740
:10038000FD0102811381007E20915B08022B0F7119
:10039000107CE9EAF3E022813381207C3F73022B59
:1003A000132BFD01028313830DE204834DE250E021
:1003B00027E138E0E7C0BA93AA932AEB33E0EAE9F1
:1003C000F3E020833183E9EAF3E0228D20930A08E9
:1003D00022892093FA07238D2093AC07248D358D35
:1003E000E3E7F7E021AB32ABE9EAF3E0268D378DA6
:1003F000E3E7F7E02487358723E020939703A4E31E
:10040000B4E02AEA35E52D933C931197FD01228152
:100410003381207E40915B08242B2F71307CE9EAE8
:10042000F3E002811381007C1F73202B312BFD012F
:100430002283338301E147C1BA93AA9322EB33E0CD
:10044000E8E9F3E020833183E3E7F7E0AAEBB3E0E8
:100450004D915D916D917C91408751876287738743
:1004600020E010C032E0239FA9EAB3E0A00DB11D47
:1004700055964D915C91DF01A00DB11D1C964D93D9
:100480005C9323953381231768F3A4E3B4E02AEA4D
:1004900035E52D933C931197FD0122813381207E18
:1004A00040915B08242B2F71307CE9EAF3E0028154
:1004B0001381007C1F73202B312BFD01228333839A
:1004C0003FC0BA93AA93023078F445E250E022EBA1
:1004D00033E06DE977E0202E05E2029D112D600DDD
:1004E000171F062F0E94DB340DC0BA93AA934DE26A
:1004F00050E020E030E007E118E00E94E93402C05B
:100500000E94DB3403E000939703A4E3B4E00AEA1B
:1005100015E50D931C931197FD0102811381007E57
:1005200020915B08022B0F71107CE9EAF3E0228135
:100530003381207C3F73022B132BFD010283138335
:1005400000E0C1C0BA93AA93A4E3B4E00AEA15E5B7
:100550000D931C931197E9EAF3E002811381FD01E9
:1005600002831383007E20915B08022B0F71209180
:10057000AB03207C022B028307E0048347E050E0BA
:1005800023EF37E08D01075F1F4F0E94DB349CC0D3
:10059000BA93AA93A4E3B4E00AEA15E50D931C9379
:1005A0001197FD0102811381007E20915B08022BCF
:1005B0000F71107CE9EAF3E022813381207C3F73E4
:1005C000022B132BFD010283138307E0048342E017
:1005D00050E02EEF37E0D6CFBA93AA93A4E3B4E06D
:1005E0000AEA15E50D931C931197FD010281138111
:1005F000007E20915B08022B0F71107CE9EAF3E08A
:1006000022813381207C3F73022B132BFD01028357
:10061000138307E0048342E050E020E038E0B2CFEB
:10062000BA93AA9347E050E022EB33E003EF17E0E0
:100630000E94DB3420E01091F4070091F5070E943E
:10064000A3153091F6072091F7071091F807009154
:10065000F9070E94E81559CFBA93AA9342E050E0F7
:1006600022EB33E00EEF17E04BCFBA93AA9342E0B0
:1006700050E022EB33E000E018E042CFA4E3B4E026
:1006800040E150E02AEF37E08D01075F1F4F0E94E5
:10069000DB340AEA15E50D931C931197FD010281E5
:1006A0001381007E20915B08022B0F71107CE9EA18
:1006B000F3E022813381207C3F73022B132BFD0159
:1006C0000283138300E104838D010E94EF06FD0184
:1006D000058316838D010E941207FD010783108791
:1006E000ECE9F3E001E0008300E00383068303E02C
:1006F00010E0E5E9F3E000831183A991B991089531
:10070000E9EAF3E001851285043170F422E0129FDA
:10071000A0019F01255F3F4F12E0019F00E618E016
:10072000000D111D0E94DB340AEA15E5E4E3F4E054
:100730000083118302811381007E20915B08022BCC
:100740000F71107CE9EAF3E022813381207C3F7352
:10075000022B132BE4E3F4E00283138300E0048311
:100760008F010E94EF06E4E3F4E0058316838F0116
:100770000E941207E4E3F4E007831087ECE9F3E05A
:1007800001E0008300E00383068303E010E0E5E975
:10079000F3E0008311830895BA93AA93E9EAF3E0A2
:1007A00061857285A4E3B4E02AEA35E52D933C9394
:1007B0001197FD0122813381207E40915B08242B1B
:1007C0002F71307CE9EAF3E002811381007C1F7312
:1007D000202B312BFD0122833383072F000F04834D
:1007E000643168F402E0709FA00128E838E0609F5F
:1007F000200D311D8D01075F1F4F0E94DB3464CF38
:10080000BA93AA937FCEBA93AA93E9EAF3E021853B
:1008100020930A08A4E3B4E0FD0121872AEA35E524
:100820002D933C93119722813381207E40915B0868
:10083000242B2F71307CE9EAF3E002811381007CE4
:100840001F73202B312BFD012283338301E03BCF2B
:10085000BA93AA9313CFBA93AA9340E150E022EB44
:1008600033E00AEF17E00E94DB3408CFBA93AA9373
:10087000229742E050E022EB33E08E010E94DB340D
:10088000E9EAF3E0438550E09F01245F3F4F688130
:10089000798103E717E0060F171F0E94DB34A4E3FA
:1008A000B4E00AEA15E50D931C931197FD0102814E
:1008B0001381007E20915B08022B0F71107CE9EA06
:1008C000F3E022813381207C3F73022B132BFD0147
:1008D0000283138300E004838D010E94EF06FD0173
:1008E000058316838D010E941207FD01078310877F
:1008F000ECE9F3E001E0008300E00383068303E01A
:1009000010E0E5E9F3E0008311832296A991B99103
:1009100008958A93229742E050E022EB33E08E0163
:100920000E94DB34E9EAF3E08385482F50E0088138
:10093000198123E737E0200F311F00E414E00E9403
:10094000DB3442E050E09E010DE314E00E94DB3412
:10095000E4E3F4E083870AEA15E50083118302816A
:100960001381007E20915B08022B0F71107CE9EA55
:10097000F3E022813381207C3F73022B132BE4E3CD
:10098000F4E0028313838D5F84838F010E94EF065E
:10099000E4E3F4E0058316838F010E941207E4E389
:1009A000F4E007831087ECE9F3E001E0008300E066
:1009B0000383068303E010E0E5E9F3E0008311839D
:1009C00022968991089500E016E920E030E00E9427
:1009D00067174BE850E020E030E009EA13E00E949E
:1009E000E9344BE850E020E030E004E314E00E94FA
:1009F000E93448E050E020E030E00CE913E00E94E8
:100A0000E9340C9465170E94E217ECE9F3E00487DF
:100A10000281102F002319F01A9549F00BC014859C
:100A20001A3A41F000E0ECE9F3E0028308951485FE
:100A30001535C1F7248510E0E9EAF3E0E00FF11F76
:100A40002083ECE9F3E0028103950283093051F43D
:100A500009EA13E0E7D1E9EAF3E0278130850217DC
:100A6000130701F7E9EAF3E0048110E0085F1F4F84
:100A7000ECE9F3E0228130E0021710400CF077C17E
:100A8000328309EA13E0ABD1E9EAF3E0258136814C
:100A90000217130709F065C101E0ECE9F3E00183F7
:100AA000E9EAF3E02281138146E0022F0E9424321A
:100AB000043308F05CC1F0E0FBBFF2E00F9FF001EF
:100AC000E457FF4F07901690F0010994022F0F7121
:100AD00010915B08011709F04AC10C94D900022F4C
:100AE0000F7110915B08011719F0002309F03FC145
:100AF0000C94D118E9EAF3E0018512852385348549
:100B0000ECE9F3E00087118722873387ECE5F8E012
:100B100040815181628173814017510762077307D9
:100B200009F025C1E5CF022F0F7110915B08011765
:100B300009F01DC10C945C01022F0F7110915B082C
:100B4000011709F014C100E008C0022F0F711091C5
:100B50005B08011709F00BC101E00C948001022F22
:100B60000F7110915B08011709F001C102E0F5CF88
:100B7000022F0F7110915B08011709F0F8C003E014
:100B8000ECCF022F0F7110915B08011709F0EFC035
:100B90000C94B701022F0F7110915B08011719F027
:100BA000002309F0E4C00C94DB01022F0F711091B7
:100BB0005B08011719F0002309F0D9C00C941C023E
:100BC000022F0F7110915B08011719F0002309F033
:100BD000CEC000E00AC0022F0F7110915B08011710
:100BE00019F0002309F0C3C001E00C946102022F48
:100BF0000F7110915B08011719F0002309F0B7C0BD
:100C000002E0F3CF022F0F7110915B08011719F06A
:100C1000002309F0ACC003E0E8CF022F0F71109160
:100C20005B08011719F0002309F0A1C00C947502AC
:100C3000022F0F7110915B08011709F098C00C94F6
:100C4000A202022F0F7110915B08011719F0002307
:100C500009F08DC00C94C802022F0F7110915B082F
:100C6000011719F0002309F082C00C94EC02022F46
:100C70000F7110915B08011719F0002309F077C07C
:100C80000C941003022F0F7110915B08011719F0DB
:100C9000002309F06CC00C942C03022F0F711091EB
:100CA0005B08011719F0002309F061C00C943503AB
:100CB000022F0F7110915B08011719F0002309F042
:100CC00056C00C948003022F0F7110915B0801171E
:100CD00009F04DC00C94CC03022F0F7110915B08EA
:100CE000011719F0002309F042C00C940004022FF0
:100CF0000F7110915B08011711F0002311F40E948D
:100D00000304E9EAF3E002810F7110915B08011717
:100D100011F0002311F40E942B04E9EAF3E00281B0
:100D20000F7110915B08011711F0002311F40E945C
:100D30002804E9EAF3E002810F7110915B080117C2
:100D400011F0002311F40E943604E9EAF3E0028175
:100D50000F7110915B08011711F0002341F40C94FE
:100D6000890426EC31E00CEB19E00E94342B089545
:100D7000BA93AA939A938A93E5E9F3E000811181EB
:100D8000012B41F5ACE9B3E0FD0106810023F1F44C
:100D90000E94E5170023F1F00E9463170E94ED17EF
:100DA000FD01E381F0E0EC5CFB4F00810E94DF1766
:100DB000FD010381039503838091380490E0089638
:100DC000801790403CF401E0068304C000E00C93DF
:100DD0000E94651789919991A991B9910895AA9353
:100DE0009A938A932297C8018E010E941B11A0E05A
:100DF0000BC0AE0121E030E08C010A0F131F075F2A
:100E00001F4F0E942811A395FC010481A01788F3AD
:100E10008E010E9420110881198122968991999151
:100E2000A9910895BA93AA939A938A932297C80195
:100E30008E010E941B11DC0187E0AE0121E030E051
:100E40008D010E94281111968A95B9F78E010E9492
:100E50002011088119812296BDCF0E94E41800E07C
:100E60000093D9040E94F71840E150E020E030E000
:100E70000AED14E00C94E9349A928A927A926A927A
:100E80005A924A921D01BC0148018091D90490E018
:100E9000682E7724660C771C660C771C660C771C12
:100EA000AEEEB4E0A60DB71DFD01048115810683E9
:100EB000178302811381048315830D911C9111976F
:100EC000FB2F028313838D929C9211970D911C919D
:100ED0001197FB2F22813381020F131F248135814B
:100EE000020F131F26813781020F131F44E050E0C9
:100EF0000E944232880F991F2EEE34E0280F391FCE
:100F00002901F90100AB11ABC401801B910B1AF44C
:100F1000919581959040EEEEF4E0E60DF71D048D7D
:100F2000158D068F178F028D138D048F158F008DF1
:100F3000118D028F138F808F918F008D118D228DD7
:100F4000338D020F131F248D358D020F131F268D35
:100F5000378D020F131F44E050E00E944232F2012D
:100F600006AB17AB23E0219F302D209F310D80155C
:100F7000930714F4840103C0FD0102811381CB01A6
:100F8000D1014990599069907990899099900895EC
:100F90007A926A925A924A92BA93AA939A938A93AD
:100FA0000E941219212F220F220B322F0E94F3329E
:100FB000A801B9010091D90410E0C801880F991F58
:100FC000A3E7B7E0A80FB91F000F111F000F111FF3
:100FD000F801ED58F84F008D118D228D338D0E9450
:100FE000B33328013901FD0104A115A1212F220FDE
:100FF000220B322F0E94F332A201B3010E9452331E
:101000000E940033FC01ED52FB4F0083118334DF5B
:10101000FD0106871787E3EDF4E00681039506835B
:10102000033020F000E006830E942C1F0091D904B9
:101030000E94F71889919991A991B9914990599075
:101040006990799008954AE151E020E030E000E6AF
:1010500018E00E94E93400E021E0E1E7F9E00083D4
:101060000183228303830483089500912A050023CA
:1010700089F04AE151E020E030E000E618E00E940B
:10108000E93400E021E0E1E7F9E000830183228315
:1010900003832483089500912A05002391F04AE1F7
:1010A00051E020E030E000E618E00E94E93400E181
:1010B00010E021E0E1E7F9E000831183228313834C
:1010C0002483089500E000937509089500910A08AB
:1010D0000130F9F0009175090130D9F460E170E058
:1010E0004BE255E0E1E7F9E0008111812281338193
:1010F0000E943B18E1E7F9E00081118122813381F0
:10110000005F1F4F2F4F3F4F008311832283338394
:1011100001D008950E94470B0E948C0C0C94E00BA8
:1011200048814A95403308F024C1F0E0FBBFF2E06B
:101130004F9FF001EC50FF4F07901690F00109947B
:10114000098112E0019FF001ED58F84F04851585E3
:1011500020E030E00EC1098112E0019FF001ED585E
:10116000F84F06851785212F220F220B322F01C140
:10117000E3E7F7E0048115812681378149810E94E8
:101180005E32017010E0E4CFE3E7F7E000851185FF
:1011900022853385F3CF09811A812B813C81E9C0F7
:1011A000098114E0019FF001E055F74F00811181A2
:1011B00022813381DEC0098114E0019FF001E050FB
:1011C000F74FF4CFE5E8F3E000811181C1CF298129
:1011D00030E005E2029FF001ED58F84F02A5C7C0CC
:1011E000298105E2029FF001ED58F84F01A912A9EB
:1011F000BACF298105E2029FF001ED58F84F07A907
:1012000010ADB1CF298105E2029FF001ED58F84FF2
:1012100005A916A9A8CF298105E2029FF001ED5882
:10122000F84F03A914A99FCF298130E005E2029F5E
:10123000F001ED58F84F01AD9AC0298105E2029FF7
:10124000F001EB54F84F008111812281338140E09D
:1012500050E06AE774E40E94B3330E94003389C00F
:10126000298105E2029FF001E754F84FECCF298174
:1012700030E005E2029FF001ED54F84F77C029817C
:1012800030E005E2029FF001EC54F84F6FC0298175
:1012900030E005E2029FF001EF53F84F67C0009184
:1012A000FA0770CF4981443108F063C002E0409FE3
:1012B000F001E05AF74F0081118155CF4981443147
:1012C00008F057C002E0409FF001E05AF74F00A538
:1012D00011A549CF298130E007E1029FF001E65ACC
:1012E000F74F44C0298107E1029FF001EC5BF74F03
:1012F000E2CF298130E007E1029FF001EA5BF74F7E
:1013000035C0298130E007E1029FF001E95BF74F2A
:101310002DC0298107E1029FF001E75BF74FCBCF9A
:10132000298107E1029FF001E55BF74FC4CF2981D6
:1013300007E1029FF001E35BF74FBDCF298107E191
:10134000029FF001E15BF74FB6CF298130E007E162
:10135000029FF001EF5AF74F0081118109C02981E6
:1013600030E007E1029FF001E75AF74F008110E0FB
:1013700020E0259608955A924A92BA93AA939A9396
:101380008A93C801A22F0E8102500F3208F077C154
:10139000F0E0FBBFF2E00F9FF001EC5AFE4F079028
:1013A0001690F00109940F8112E0019FF001ED58B1
:1013B000F84F8487958763C14F8101E010E00E9458
:1013C0001E32212F220F220B482F492B4A2B432B51
:1013D00079F0E3E7F7E04085518562857385402B1E
:1013E000512B622B722B408751876287738747C1CD
:1013F000009510952095E3E7F7E0408551856285DB
:1014000073854023512362237223EDCF0F8114E0B3
:10141000019FF001E055F74F80839183228333834E
:101420002EC10F8114E0019FF001E050F74FF4CF7F
:10143000E5E8F3E08083118322C14F8002E040168B
:1014400008F01DC105E2049DF001ED58F84F82A798
:1014500016C14F8002E0401608F011C105E2049D5C
:10146000F001ED58F84F85A716A709C14F8002E09B
:10147000401608F004C105E2049DF001ED58F84F54
:1014800083A714A7FCC04F8002E0401608F0F7C005
:1014900005E2049DF001ED58F84F87A710ABEFC0AF
:1014A0004F8002E0401608F0EAC005E2049DF0011A
:1014B000ED58F84F82AF13AFE2C04F8002E0401604
:1014C00008F0DDC005E2049DF001ED58F84F81AB56
:1014D00012ABD5C04F8002E0401608F0D0C005E244
:1014E000049DF001ED58F84F81AFC9C04F8002E074
:1014F000401608F0C4C005E2049DF001ED58F84F15
:1015000083AB14ABBCC04F8002E0401608F0B7C0FC
:1015100005E2049DF001ED58F84F87AB10AFAFC066
:101520004F8002E0401608F0AAC005E2049DF001D9
:10153000ED58F84F85AB16ABA2C04F8002E04016C5
:1015400008F09DC005E2049DF001E155F84F72CF0F
:101550004F8002E0401608F092C005E2049DF001C1
:10156000EF54F84F67CF4F8002E0401608F087C075
:10157000082F0E94F33240E050E06AE774E40E94D2
:101580002C3445E2449DF001EB54F84F0083118365
:1015900045CF4F8002E0401608F071C0082F0E942E
:1015A000F33240E050E06AE774E40E942C3445E2F4
:1015B000449DF001E754F84FE9CF4F8002E0401618
:1015C00008F05DC005E2049DF001EF53F84F808301
:1015D00056C08093FA0753C04F8004E1401608F0CC
:1015E0004EC002E0409EF001E05AF74F23CF4F80FB
:1015F00004E1401608F043C002E0409EF001E05ACA
:10160000F74F80A711A73BC00F810023C1F580933E
:101610005A0835C00F81002391F5E4E4F8E00ACFC1
:101620000F81002361F58093460829C00F810023B4
:1016300031F58093470823C00F81002301F5E9E4C9
:10164000F8E0F8CE0F810023D1F4EBE4F8E0F2CE1D
:101650000F810023A1F4EDE4F8E0ECCE0F8100232C
:1016600071F4EFE4F8E0E6CE0F81002341F4E1E508
:10167000F8E0E0CE0F81002311F48093590889919E
:101680009991A991B9914990599025960895BA9345
:10169000AA939A938A93EBE2F5E00385083121F44B
:1016A00000E00093750987C0095039F10A9509F4E3
:1016B0004AC00A9509F45EC00A9509F471C00A503F
:1016C00019F00A9569F177C000917009043108F0AA
:1016D00072C0A1E7B9E04D915D916D917C9114E0EC
:1016E000019FD001A05EB64F4D935D936D937C93A7
:1016F000A0E7B9E00C9103950C9304851585000FC4
:10170000111F000F111F000F111F000F111F30E0DC
:1017100021E0E1E7F9E000831183228333834BC0AA
:1017200000917009002309F446C0E0E7F9E00A954A
:10173000008314E0019FF001E05EF64F008111810B
:1017400022813381E6CF848595850197880F991F83
:10175000880F991F880F991F880F991FA0E0E1E754
:10176000F9E00081118122813381080F191F2A1F9E
:101770003A1FD1CF319605E010E00E94D1340E948B
:101780009008012B022B032BB1F0E1E7F9E0008177
:10179000118122813381005F1F4F2F4F3F4FBBCFFD
:1017A000319605E010E00E94D1340E949008012B90
:1017B000022B032B51F389919991A991B991089525
:1017C0005A924A92BA93AA939A938A930BE2402E22
:1017D00005E0502EEBE2F5E00385083121F400E04E
:1017E0000093750992C000810250D9F10A9549F021
:1017F0000A9501F10A9509F44BC00A9509F45FC0F6
:1018000084C0319605E010E00E94D1340E94900817
:10181000C801D901F201369605E010E00E94D134EA
:101820000E949008081719072A073B0714F441E0A3
:101830005EC05CC0319605E010E00E94D1340E9489
:101840009008C801D901F201369605E010E00E9427
:10185000D1340E94900880179107A207B3073CF388
:1018600045C0319605E010E00E94D1340E949008F6
:10187000C801D901F201369605E010E00E94D1348A
:101880000E94900880179107A207B30779F5CFCF80
:10189000319605E010E00E94D1340E949008C80102
:1018A000D901F201369605E010E00E94D1340E9481
:1018B000900880179107A207B307C4F0B8CF3196FC
:1018C00005E010E00E94D1340E949008C801D901BF
:1018D000F201369605E010E00E94D1340E94900893
:1018E000081719072A073B070CF0A1CF40E020E0BA
:1018F00030E00BE0400E521EF20105E010E00E94C5
:10190000D134042F10E00E94BB0989919991A991CB
:10191000B9914990599008955A924A92BA93AA93CC
:101920009A938A930BE2402E05E0502EEBE2F5E00D
:101930000385083121F400E00093750969C0108126
:101940001A9529F01F5009F11A95F9F161C00A3171
:1019500049F40181063009F05BC0028113810E94C5
:10196000BC1156C0319605E010E00E94D1340E94AF
:101970009008C8010BE0400E00E0501EF20105E0A7
:1019800010E00E94D1348C0141C0319605E010E096
:101990000E94D1340E949008C801D901F201369604
:1019A00005E010E00E94D1340E949008A8010BE0ED
:1019B000400E00E0501EF20105E010E00E94D1341C
:1019C000840F951F2A1F3B1FDECF319605E010E0E4
:1019D0000E94D1340E949008C801D901F2013696C4
:1019E00005E010E00E94D1340E949008A8010BE0AD
:1019F000400E00E0501EF20105E010E00E94D134DC
:101A0000841B950BA20BB30B8C019D010E94BB099B
:101A100089919991A991B99149905990089500E0BF
:101A200016E920E030E00E9461180CEB19E0E8EDC7
:101A3000FAE00083118300E00093BC090093840A5C
:101A400004E81AE0ECEAFAE0008311830EEA1AE0F7
:101A5000E6EDFAE00083118300E00093AE0AEDE5C5
:101A6000F7E0008301830895BA93AA930E94B31804
:101A7000002311F1A8EDBAE0ED91FC910081002363
:101A800091F00E94B918A8EDBAE0ED91FC910081A7
:101A90000E94BB18E8EDFAE0008111810F5F1F4F33
:101AA0000083118309C00CEB19E0E8EDFAE0008334
:101AB000118300E00093BC090E94AD18002309F4D3
:101AC000F3C00E94BD18EBE3F5E004A70091BC0948
:101AD000002309F0E9C004A5102F185009F487C0AD
:101AE0001A9509F4BEC01A9509F4DEC0135009F422
:101AF00096C01E5021F0145209F491C0B4C00E9447
:101B0000AD180023E1F30E94BD18EBE3F5E004A754
:101B10000E94AD180023E1F30E94BD18EBE3F5E04D
:101B200004A7E6EDFAE0208131811AE02E3A3A402E
:101B3000E1F008E00E94BF1800E20E94BF1808E030
:101B40000E94BF18E6EDFAE00081118101501040BB
:101B50000083118320E0F8012083E6EDFAE0208184
:101B600031811AE02E3A3A4021F7EBE3F5E004A583
:101B7000015419F00A95B1F117C002A5002329F00C
:101B800003A5043010F4039503A723A500E5029FE5
:101B90009F01200D311D26593F4F0EEA0E94D42F80
:101BA00001E0EBE3F5E002A70EEA1AE0E6EDFAE069
:101BB000008311830091AE0A002309F475C0A6EDDD
:101BC000BAE0ED91FC910081002309F46DC00E9400
:101BD000BF18E6EDFAE0008111810F5F1F4F00830F
:101BE0001183EDCF03A5002381F20A95CDCFE6ED59
:101BF000FAE0208131812E3A3A4009F455C008E0DC
:101C00000E94BF1800E20E94BF1808E00E94BF189F
:101C1000E6EDFAE000811181015010403EC00E94C3
:101C2000BF18EBE3F5E004A5A6EDBAE0ED91FC9159
:101C30000083E6EDFAE0008111810F5F1F4F008302
:101C4000118300E0E091D60AF12F008330D00EEA34
:101C50001AE0E6EDFAE00083118300E00093AE0A9B
:101C600023C000E204A7E6EDFAE020813181253DA2
:101C70003A40D0F4EBE3F5E004A50E94BF18EBE393
:101C8000F5E004A5A6EDBAE0ED91FC910083E6ED48
:101C9000FAE0008111810F5F1F4F0083118300E084
:101CA000E091D60AF12F0083A991B99108954A9243
:101CB000BA93AA939A938A9380E090E0ABE3B5E05D
:101CC000ECE4F5E730E03BBF079117912691FD0169
:101CD000048B158B268B0091AE0A04A785A7048977
:101CE00061A543E0469FE00DF11D028F138F248F05
:101CF00001E0FD0101A718C0ECEAFAE00081F181E2
:101D0000E02F2083ECEAFAE0008111810F5F1F4F82
:101D10000083118320E0F80120830196FC01E25545
:101D2000F54F0081FD0104A724A5222369F0022FAD
:101D30000D5041F0035131F00E5021F00C5011F0D4
:101D40000550D1F641D0E9CF00E003A702A7EEEAA3
:101D5000FAE007C00A3011F00D3011F400E0008302
:101D6000319600810023B1F722ED31E00EEA1AE04E
:101D70000E94942F0023F9F02EEA3AE08D010659D3
:101D80001F4F0E94942F0023B1F0CD0186559E4F26
:101D900004E0402E9C01205530408C010E94D42F3D
:101DA000805590404A94B1F72EEA3AE0A659BF4FC9
:101DB0008D010E94D42F00E00093350789919991FD
:101DC000A991B99149900895BA93AA9304E81AE0A9
:101DD0000E94862F04E81AE0ADD1ABE3B5E0FD0127
:101DE00004A50D5009F4A3C0035141F00E5031F089
:101DF0000C5021F0055009F46CC104C00091840A14
:101E0000002381F400E00093840A04E81AE0ECEA7D
:101E1000FAE000831183A991B9910895FD01048B23
:101E2000158B268BFD01448955896689042F052B66
:101E3000062B41F3FA0176966BBF0691002309F059
:101E400052C024E83AE08A010E94A72F002381F5BE
:101E5000FD012489358905E317E00E94BC2F5496C3
:101E6000ED91FD913C9156977C963BBF0791179160
:101E700026913797402F412B422B29F0FD01048BEF
:101E8000158B268BBFCF3BBF0791169120E000300A
:101E9000120741F0F801099523ED31E00CEB19E050
:101EA0000E94342B00E0FD01048B058B068BAACF2A
:101EB0005496ED91FD913C9156977F963BBF0791CB
:101EC00017912691302F312B322B09F0A7CF00E04C
:101ED000FD01048B058B068B27ED31E00CEB19E03F
:101EE0000E94342B9FCF40E020E030E004E81AE06D
:101EF0000E94AA2BFD0145A554E0459FE00DF11D70
:101F00000083118322833383FD0105A5039505A773
:101F10005496ED91FD913C9156977C963BBF07916D
:101F200017912691302F312B322B89F2A7CF22ED3A
:101F300031E004E81AE00E943235012B59F423ED18
:101F400031E00CEB19E00E94342B5CCFFD01048BD7
:101F5000158B268BFD01448955896689042F052B35
:101F6000062B09F44FCFFA0176966BBF069100233A
:101F700009F088C024E83AE08A010E94A72F0023D4
:101F800009F069C0FD012489358905E317E00E9445
:101F9000BC2F5496ED91FD913C9156977C963BBF9A
:101FA0000791179126913797012B022B09F442C014
:101FB00029EE31E00CEB19E00E94342B25E337E0E9
:101FC0000CEB19E00E94342B2DEE31E00CEB19E004
:101FD0000E94342B5496ED91FD913C9156977C963E
:101FE0003BBF079117912691FD01078B108F218F21
:101FF000012B022BF1F026E032E00CEB19E00E94FD
:10200000342BFD012789308D0CEB19E00E9451180B
:102010005796ED91FD913C9159977C963BBF079166
:1020200017912691FD01078B108F218F012B022B19
:1020300011F732CF3BBF0791F691E02F099500E0F1
:10204000FD01048B058B068B23ED31E00CEB19E0D1
:102050000E94342B7FCF5496ED91FD913C91569781
:102060007F963BBF079117912691302F312B322B52
:1020700009F06CCF00E0FD01048B058B068B27ED8A
:1020800031E05FCF40E020E030E004E81AE00E9459
:10209000AA2BFD0145A554E0459FE00DF11D0083ED
:1020A0001183228333835496ED91FD913C91569791
:1020B00077963BBF0791169120E00030120741F060
:1020C000F801099523ED31E00CEB19E00E94342B67
:1020D000E9CE2CE032E00CEB19E00E94342BFD013C
:1020E000048915892689078B108F218F202B212B9E
:1020F00009F425CF26E032E00CEB19E00E94342BE6
:10210000FD012789308D0CEB19E00E94511857967C
:10211000ED91FD913C9159977F963BBF07911791A7
:102120002691FD01078B108F218F012B022B09F4C3
:1021300006CFE0CF5A924A92BA93AA939A938A937F
:10214000C8015524ABE3B5E0FD0104891589268952
:10215000078B108F218F22ED31E08C010E94942F8C
:10216000002309F457C08C010E94E22F402EFD018C
:102170000789108D218D012B022B09F44BC034E10E
:1021800020E08D01025D1F4F0E94F12F34E120E01D
:102190008D010A5A1F4F0E94F12FFD012789308DB2
:1021A0008D010A5A1F4F0E945118442D9D012A5A31
:1021B0003F4F8D01025D1F4F0E94F92F9C018D0141
:1021C000025D1F4F0E94942F002349F45394FD0198
:1021D0002789308D8D010E5B1F4F0E945118FD0124
:1021E0000789108D318DF8017F963BBF07911791BC
:1021F0002691FD01078B108F218F012B022B09F0F7
:10220000BECF01E0501631F4AE5BBF4F9D018C0193
:102210000E94D42F89919991A991B991499059908F
:1022200008950091BC09002329F01EDC0091BC092F
:102230000023D9F708952FEFF80120832183089513
:10224000F801008111810095109500831183089594
:102250000D01BC01FA01422F432BD1F0D801C90175
:102260000D912081318120272083318328E0408116
:10227000518156954795008100FF04C008E014E89D
:1022800040275127408351832A9589F7019741F7C9
:10229000CB01D0010895AD010091FB07002309F0A7
:1022A00060C00091FC07002391F1E5E2F2E0A2E0BA
:1022B000B8E00D911C912091040832E0239FD001D9
:1022C000AF57B84F2D913C9102171307008174F45A
:1022D0000023E9F401810395018305E00083018176
:1022E0000530A8F005E0018300E00FC0002379F479
:1022F0000181002311F00A95018305E0008301812B
:10230000002329F405E0018301E00093FA0700911E
:10231000FD07002331F101E00093FA071091F8075F
:102320000091FF07011728F400910108101760F4CD
:1023300008C0101749F40091F7072091FE07021713
:1023400018F000E00093FA0700910108101749F413
:102350000091F70710910008011718F400E00093AE
:10236000FA07DA01089597CF4DE250E020E030E01F
:1023700007E118E00C94E934192E782F180182E354
:1023800098E064E09C01275F3F4F8901FC0149E030
:1023900050E00E94C63409976A95A1F7E7E1F8E09A
:1023A0002082318209E118E0E7E6F7E047E00E9489
:1023B000C63403E000939703872F912D0895EBE334
:1023C000F5E00081118122813381012B022B032B47
:1023D00031F404811581E4E4F8E000831183089569
:1023E000BA93AA932297EBE3F5E000811181228151
:1023F0003381012B022B032B09F024C242E357E760
:1024000060E00CEB19E00E946D2B42E659E760E0BA
:102410000CEB19E00E946D2BEBE3F5E0208131819C
:1024200007E1039F102D029F110DE02DF12FE75AB8
:10243000F74F0081002321F44AE859E760E003C028
:1024400042EB59E760E00CEB19E00E946D2B42EC87
:1024500058E760E00CEB19E00E946D2B24E438E0B3
:10246000EBE3F5E04081518107E1059F102D049FCA
:10247000110D200D311F0CEB19E00E94392E4AE29C
:102480005AE760E00CEB19E00E946D2B41E02AE571
:1024900038E0EBE3F5E06081718107E1079F102DE3
:1024A000069F110D200D311F0CEB19E00E94D02C5E
:1024B00027E232E00CEB19E00E94342B21E837E0F0
:1024C000EBE3F5E04081518107E1059F102D049F6A
:1024D000110DE02DF12FE65AF74F008112E0019F18
:1024E000200D311D0CEB19E00E94392EE4E4F8E0D8
:1024F000ABE3B5E00D911D91202F07E1019F102D59
:10250000029F110DE00DF11F068912E0019FD0011D
:10251000AF57B84F0D911C9120813181021B130BD5
:102520000883198332F408811195019510400883BE
:10253000198342E55AE760E00CEB19E00E946D2B2D
:102540009E010CEB19E00E94392E4AE557E760E046
:102550000CEB19E00E946D2BEBE3F5E0208131815B
:1025600007E1039F102D029F110DE02DF12FEA5B73
:10257000F74F0081002321F44AE458E760E003C0EC
:1025800042E758E760E00CEB19E00E946D2B42E84F
:1025900057E760E00CEB19E00E946D2B40E027E468
:1025A00038E0EBE3F5E06081718107E1079F102DD2
:1025B000069F110D200D311F0CEB19E00E94D02C4D
:1025C0004AEA57E760E00CEB19E00E946D2BEBE361
:1025D000F5E02081318107E1039F102D029F110D4D
:1025E000E02DF12FE85BF74F0081002339F442E240
:1025F00058E760E00CEB19E00E946D2BEBE3F5E08F
:102600002081318107E1039F102D029F110DE02DE4
:10261000F12FE85BF74F0081013039F442ED57E7C5
:1026200060E00CEB19E00E946D2BEBE3F5E02081FC
:10263000318107E1039F102D029F110DE02DF12F35
:10264000E85BF74F0081023039F44AEF57E760E06A
:102650000CEB19E00E946D2B42E555E760E00CEBB6
:1026600019E00E946D2B4AEC55E760E00CEB19E095
:102670000E946D2B29E438E0EBE3F5E040815181C5
:1026800007E1059F102D049F110D200D311F0CEB4C
:1026900019E00E94392E42EF55E760E00CEB19E09B
:1026A0000E946D2B2BE438E0EBE3F5E04081518193
:1026B00007E1059F102D049F110D200D311F0CEB1C
:1026C00019E00E94392E4AE156E760E00CEB19E070
:1026D0000E946D2B2DE438E0EBE3F5E04081518161
:1026E00007E1059F102D049F110D200D311F0CEBEC
:1026F00019E00E94392E42E456E760E00CEB19E045
:102700000E946D2B2FE438E0EBE3F5E0408151812E
:1027100007E1059F102D049F110D200D311F0CEBBB
:1027200019E00E94392E42E956E760E00CEB19E00F
:102730000E946D2B40E021E538E0EBE3F5E060819D
:10274000718107E1079F102D069F110D200D311F8C
:102750000CEB19E00E942C2C4AEB56E760E00CEBE6
:1027600019E00E946D2B40E023E538E0EBE3F5E053
:102770006081718107E1079F102D069F110D200DCB
:10278000311F0CEB19E00E942C2C42E159E760E06C
:102790000CEB19E00E946D2B40E025E538E0EBE3FF
:1027A000F5E06081718107E1079F102D069F110DF3
:1027B000200D311F0CEB19E00E942C2C4AE359E745
:1027C00060E00CEB19E00E946D2B27E538E0EBE3AD
:1027D000F5E04081518107E1059F102D049F110D07
:1027E000200D311F0CEB19E00E94392E4AED59E7FC
:1027F00060E00CEB19E00E946D2B40E025E637E02D
:10280000EBE3F5E000801180000C111C200D311D60
:102810000CEB19E00E94D02C42E05AE760E00CEB90
:1028200019E00E946D2B40E026E637E0EBE3F5E08F
:1028300000801180000C111C200D311D0CEB19E0E3
:102840000E94D02C2296A991B99108951D0140E0D3
:10285000602F70E007E418E027E1269F000D111DAE
:1028600020914708222339F4F8012285E62FF0E071
:10287000E15AF84F2383F80120812A9529F02A95FF
:1028800029F02A9529F005C041E003C042E001C0CB
:1028900044E09B01220F331FEFE5F7E0E20FF31F47
:1028A00056815417A1F02FE537E0260F371F552327
:1028B00039F4D90113965C91552349F4468301C03C
:1028C0007683D8011A960D91D90113960C9306813F
:1028D000EEEAF8E000837183D10108959A938A9318
:1028E000E9E8F3E040815181452B61F00091510806
:1028F000EFE5F7E003830091530804830091550846
:1029000005839CC040915A0852E0459FF001ED5864
:10291000F84F46855785E4E4F8E060817181461BF5
:10292000570B413060E056072CF0EFE5F7E071817E
:1029300077234AF055234AF4EFE5F7E0808191814F
:102940008130904014F061E002C0EFE5F7E062836F
:1029500040835183BA01E091FA0755234AF4519517
:1029600041955040BA01EE2329F460E070E002C0C6
:10297000E130D9F340915908442309F05FC04091F8
:102980004608442309F058C040914708442339F0D1
:102990004A9591F04A95D9F04A9551F13FC0E9E442
:1029A000F8E000811181EBE4F8E020813181EDE471
:1029B000F8E02080318032C0E9E4F8E00081118144
:1029C000EFE4F8E020813181021B130BECCFEFE440
:1029D000F8E040815181E9E4F8E000811181041BB5
:1029E000150BEBE4F8E020813181241B350BDFCFA0
:1029F000EFE4F8E040815181E9E4F8E000811181E1
:102A0000041B150BEBE4F8E020813181241B350B0E
:102A1000EDE4F8E020803180241A350A40E06017A8
:102A200071077CF06217730764F441E06215730567
:102A30000CF043E04093470800E008DF899199914A
:102A400008956217730794F3621573057CF742E0EB
:102A5000F1CF219700E008832EE232E00CEB19E081
:102A60000E94342B0EE8088341E050E09E010AE00A
:102A70004ED00AE0088341E050E09E0109E047D0D3
:102A80000AE1088341E050E09E010BE040D041E0C4
:102A900050E09E0101E049D008810F73088341E0B6
:102AA00050E09E0101E00DC0219741E050E09E0101
:102AB0000BE03BD00881077E088341E050E09E0197
:102AC0000BE025D021960895219741E050E09E012A
:102AD0000BE02BD008810861EFCFB80189012EE609
:102AE00037E0F90170836183642FA80112E002EAE4
:102AF0000C947319B80189012EE637E0F90170834F
:102B00006183642FA80112E002EA0C94E319602F9C
:102B100089012EE637E0F901608360E06183642F6C
:102B2000A80111E002ED0C947319602F89012EE6C3
:102B300037E0F901608360E06183642FA80111E050
:102B400002ED0C94E319AA939A938A932497902FF9
:102B5000A12F822F4AE00E941032102F1295107F71
:102B60002AE0029F092F0019912F902B4AE00A2F8B
:102B70000E941032102F1295107F029F0A2F001909
:102B8000A12FA02B4AE0082F0E941032102F12957F
:102B9000107F029F8019182B1983AA839B8302E060
:102BA000088341E050E09E0100E0B1DF43E050E0E7
:102BB0009E012F5F3F4F02E0AADF00E0088341E063
:102BC00050E09E01A4DF249689919991A9910895DE
:102BD000BA93AA939A938A932597802FB12F922F15
:102BE000A32F043608F080E01D3008F0B0E020325A
:102BF00008F090E0383008F0A0E04AE0082F0E948A
:102C00001032102F1295107F2AE0029F082F001912
:102C1000812F802B4AE00B2F0E941032102F12952B
:102C2000107F029F0B2F0019B12FB02B4AE0092F04
:102C30000E941032A983102F1295107F029F9019C5
:102C4000192B1A83BB838C8302E0088341E050E098
:102C50009E0100E05CDF44E050E09E012F5F3F4FAB
:102C600005E055DF00E0088341E050E09E014FDFC2
:102C7000259689919991A991B9910895BA93AA93AA
:102C8000219701E0088341E050E09E0100E03FDF32
:102C9000A7E6B7E047E050E09D0102E046DF00E034
:102CA000088341E050E09E0132DF1C9112951F70B5
:102CB0000AE0109F0C910F70000E0D920C91202FC6
:102CC00022952F701AE0219F0F70000E0D920C912B
:102CD000202F22952F70219F0F70000E0D920C91C6
:102CE000202F22952F70219F0F70000E0D920C91B6
:102CF000202F22952F70219F0F70000E0D920C91A6
:102D0000202F22952F70219F0F70000E0D920C9195
:102D1000202F22952F70219F0F70000E0C92169776
:102D200003EF17E0FD0147E050E00E94C634219612
:102D3000A991B99108952197EDE7F3E00081118100
:102D4000012B59F408EE13E0008311830AE0088395
:102D500041E050E09E0109E0DADE219608955A92A2
:102D60004A92BA93AA939A938A932797002339F0A9
:102D70000A9509F442C00A9509F46FC032C02901CE
:102D800008EE10E00B831C831D831E838E010F5FF2
:102D90001F4F0E941B1180E090E0A0E0B0E013C044
:102DA00041E050E09E018201080F191FA3DEAE0131
:102DB0004F5F5F4F21E030E08E010E9428118F5F4E
:102DC0009F4FAF4FBF4F0B811C812D813E818017DC
:102DD0009107A207B30720F38E010F5F1F4F0E94D8
:102DE000201109811A8120E030E02796899199917C
:102DF000A991B9914990599008950EE710E00B837D
:102E00001C831D831E838E010F5F1F4F0E941B11A9
:102E100080E090E0A0E0B0E00B811C812D813E813C
:102E200080179107A207B307B8F661E070E0AE0122
:102E30008C019D01005011422E4F3F4F0E943B18C4
:102E4000AE014F5F5F4F21E030E08E010E942811FC
:102E50008F5F9F4FAF4FBF4FDFCF64E070E0AE0199
:102E60004D5F5F4F08E71FED21E030E00E943B1807
:102E70008E010F5F1F4F0E941B1180E090E0A0E0C9
:102E8000B0E00B811C812D813E8180179107A20744
:102E9000B30708F0A1CF61E070E0AE018C019D01A5
:102EA000005010402F4F3F4F0E943B18AE014F5F24
:102EB0005F4F21E030E08E010E9428118F5F9F4F0D
:102EC000AF4FBF4FDECF949A08959498089540E095
:102ED00050E00056194020403040C1F100561940E2
:102EE0002040304089F1005C12412040304051F1D7
:102EF000005C12412040304019F1005C124120403A
:102F00003040E1F00058154220403040A9F0005810
:102F100015422040304071F000501B4420403040AA
:102F200039F00050114E2040304091F445E010C07F
:102F30004BE00EC041E10CC047E10AC043E208C0CB
:102F40004FE206C047E404C04FE802C04FE151E041
:102F50008C9A9498509398004093990008E90093B4
:102F60009A000EE000939D0000E200939C000895FB
:102F70009A938A93FA93EA933A922A921A920A922D
:102F80007A936A935A934A933A932A931A930A9399
:102F90008FB79BB70E9403059BBF8FBF0991199103
:102FA0002991399149915991699179910990199093
:102FB00029903990E991F991899199911895009307
:102FC0009C00089500919C00089500919B0006FFCD
:102FD00002C001E0089500E0089500919B000064A4
:102FE00000939B0008950BB30F600BBB0AB3007FE7
:102FF0000ABB1F98179A0895C99B02C001E0089563
:1030000000E00895C89B02C001E0089500E0089523
:10301000CB9B02C001E0089500E00895CA9B02C066
:1030200001E0089500E0089500E00FBD09E00EBD45
:1030300000E000937A0003E31BE21BBD0ABD00E041
:103040000DBD0CBD07B7006107BF08959A938A9321
:10305000FA93EA933A922A921A920A927A936A938C
:103060005A934A933A932A931A930A938FB79BB72A
:103070000E94043091CF192E282E80E0062E072AB8
:1030800069F090E0F801E80FF91F2BBF0690FA01F4
:103090000192AF0183958617970798F3822D912DA2
:1030A0000895AC01C90103C021938F010196FC0171
:1030B00030E03BBF26912223F801B1F73083CA01EB
:1030C000089540E050E00056194020403040C1F1E2
:1030D000005619402040304089F1005C12412040E8
:1030E000304051F1005C12412040304019F1005C49
:1030F000124120403040E1F000581542204030405D
:10310000A9F0005815422040304071F000501B4497
:103110002040304039F00050114E2040304091F4B2
:1031200045E010C04BE00EC041E10CC047E10AC0D1
:1031300043E208C04FE206C047E404C04FE802C0C3
:103140004FE151E05093900049B908E10AB90EE00F
:103150000093950000E20CB908955F9B02C001E066
:10316000089500E008955E9B02C001E0089500E02C
:1031700008955E9A08950CB908950CB10895ECEB8A
:10318000F9E0008300E001830C94111101E005BF18
:1031900000E005BF08E101BD00E001BD009374003F
:1031A000089508E101BD08E001BDFFCF0E949B1614
:1031B000A8950895AF980895AF9A08951F9A089515
:1031C0001F98089578940895DF9AD79A07B30760F7
:1031D00007BBBB9808B3017F08BBC09A0BB30F783D
:1031E0000BBB0AB300670ABB02E50DB9089510E0F6
:1031F000202F235020F029F02A9541F003C0102FF2
:1032000001C015E010FB16F4DE9A01C0DE9801FB48
:1032100016F4DD9A01C0DD9802FB16F4DC9A0895DD
:10322000DC980895AA93F8940FB10FB1DF9800E0ED
:103230000FB9779BFECF0FB1A02F00E00FB9779B9E
:10324000FECF0FB140E020E030E0EAEEF4E0008392
:10325000A183228323831A2F16950795DF9A7894EA
:103260001F70E1ECF4E0008311830E94FE3250EF06
:103270006FE775E40E942C3440E050E46CE176E4A2
:103280000E94B3330E940033EFEBF4E0008311831C
:10329000A9910895209171002E7F209371002091B3
:1032A00071002D7F20937100A80103E31BE20E94AF
:1032B0002A32003138F010E00051104042E050E076
:1032C0000E94423200937000089501C0A8950091B9
:1032D000740007FFFBCF089500E911E0DBDF04E095
:1032E0000093740008958A927A926A925A924A924E
:1032F000BA93AA939A938A93602E2901712EDA01C8
:10330000862E81E090E0009174000E7F009374009F
:10331000009174000F70006A00937400D6DF0EEF06
:10332000602260927300009174000F700068009337
:103330007400CBDF00917100087F083111F08EE33B
:103340002CC0072D7A94002391F0F20101912F01F6
:1033500000937300009174000F7000680093740074
:10336000B4DF00917100087F083259F315C0082DB1
:103370008A94002399F0FD010191DF01009373000D
:10338000009174000F700068009374009EDF00913C
:103390007100087F083259F38DE39EEF00917400AD
:1033A0000F70006D009374000091740004FDFCCF59
:1033B0008C0189919991A991B991499059906990FD
:1033C0007990899008958A927A926A925A924A9252
:1033D000BA93AA939A938A93602E2901812EDA01D7
:1033E000762E81E090E0009174000E7F00937400CF
:1033F000009174000F70006A0093740066DF8820EB
:10340000D9F1062D0E7F00937300009174000F70A8
:1034100000680093740059DF00917100087F083143
:1034200069F08EE39EEF009174000F70006D0093C1
:1034300074000091740004FDFCCFBACF082D8A946B
:10344000002399F0F20101912F0100937300009184
:1034500074000F7000680093740037DF00917100F2
:10346000087F083259F38CE3DDCF009174000F70B0
:10347000006A0093740029DF682A6092730000914B
:1034800074000F700068009374001FDF00917100DA
:10349000087F003479F08EE39EEF0CC000E02F70BF
:1034A000022B00680093740010DF00917300FD018F
:1034B0000193DF01772009F4B6CF7A94209174004C
:1034C00069F300E4ECCFBA93AA93A3E7B7E04AE22A
:1034D00050E020E030E08D010E94E93407E00D93D8
:1034E0000D9303E00D9301E00C93199605B3007C56
:1034F00005BB04B3007C04BB009165000D7F009305
:103500006500009164000D7F0093640008B30F70A4
:1035100008BB07B3006F07BB00916500077E0093EF
:103520006500009164000861009364001C98149A7F
:103530001B98139AAF98A79A00E010E000938900B7
:103540000093880003EC00938B0001E000938A0055
:1035500010938C00109387001093860004EF11E005
:10356000109385000093840000E00D930C93A991C3
:10357000B9910895BC01E3E7F7E0008500FF02C0C0
:10358000C49A01C0C498008501FF04C00091650081
:10359000006103C0009165000F7E00936500008507
:1035A00002FF02C0C59A01C0C598008503FF02C092
:1035B000C69A01C0C698008504FF02C0C79A01C020
:1035C000C798008505FF04C000916500086003C02E
:1035D00000916500077F00936500008506FF02C02B
:1035E0001C9A01C01C9804819D9B02C00E7F01C0E3
:1035F0000160048304819C9B02C00D7F01C00260B6
:10360000048304819B9B02C00B7F01C00460048380
:1036100004819A9B02C0077F01C008600483048173
:10362000999B02C00F7E01C0006104830481989BB6
:1036300002C00F7D01C0006204830091630001FF9E
:1036400003C004810F7B02C00481006404830485ED
:103650001585C8019801043F01E0300798F404EF94
:1036600011E0021B130B000F111F44E650E00E94F3
:103670002A328017910718F480E090E00EC0801B7A
:10368000910B0BC0245F3140220F331F890144E6A8
:1036900050E00E942A32800F911F0FEF13E0081BA9
:1036A000190B1093870000938600CB01089500E06A
:1036B0000093620000936100009165000B7F00930E
:1036C00065001D981A9800916400046000936400DE
:1036D000159A129A08950895E6EAF7E022E000E0CC
:1036E000008301830587068703870487B5962A959B
:1036F000B1F7E2E0F8E0008111810D3221E012071C
:103700001CF4043D1E4F1CF400E00083018300E024
:1037100000870895BA93AA939A938A93A3E7B7E090
:103720004AE450E020E030E08D01065D1F4F0E942A
:10373000E93440E350E020E030E08D010C581F4FA9
:103740000E94E9344DE250E020E030E08D010C555C
:103750001F4F0E94E93407E00C93FD01018303E051
:10376000028301E0038300E010E020E83FE3048BE4
:10377000058B268B378BCD018B9602E0FC011293D3
:1037800024E630E0FC012083318324EF31E0248300
:10379000358322E330E02283338328EC268337838A
:1037A000328733873087318728EE33E024873587A7
:1037B00011E016872EE130E02787308B2BE9218B33
:1037C000328B10E0358B368B338B348B4AE057EDE0
:1037D00063E27CE3478B508F618F728F63EA7DE3F6
:1037E000438F548F658F768F23E2278F30A32EE58A
:1037F00031E021A332A313A385960A9509F0BECF29
:10380000FD01E758FF4F358342E050E020E030E013
:103810008D010C581F4F0E94E93409E0FD01E75863
:10382000FF4F008308E0FD01E758FF4F018301E0EF
:10383000FD01E758FF4F028302E0FD01E758FF4F0B
:10384000038305E0FD01E758FF4F048301E0FD011C
:10385000E758FF4F068300E0FD01E758FF4F068F52
:1038600041E050E020E030E08D0106561F4F0E94FD
:10387000E93444E050E020E030E08D0105561F4F70
:103880000E94E93441E050E020E030E08D01015633
:103890001F4F0E94E93444E050E020E030E08D0109
:1038A00000561F4F0E94E9340CED10E0FD01EF526D
:1038B000FF4F00831183FD01EF52FF4F128301E0A0
:1038C000FD01EF52FF4F0383FD01EF52FF4F1483C1
:1038D00004E1FD01EF52FF4F0583168308E2FD016D
:1038E000EF52FF4F078310870CE3FD01EF52FF4FAC
:1038F0000187128705E0FD01EF52FF4F0387148710
:1039000001E0FD01EF52FF4F0587168706E9FD0133
:10391000EF52FF4F0787108BFD01EF52FF4F018BD6
:10392000128B05E0FD01EF52FF4F038B148BFD015D
:10393000EF52FF4F158B01E0068B89919991A99168
:10394000B99108959A938A93C8010E94541548EE3C
:1039500050E023E737E08C010E946D159C0100E0E8
:103960000E94AF16E0E7F7E00083118342E050E0E9
:103970009F0188519F4F8C010E946D150E94641514
:103980008991999108959A938A93EAE7FAE730E04A
:103990003BBF8791969122E030E000E00E94AF1695
:1039A000EAEDFAE00083118342E050E020E737E0DF
:1039B0000AEE10E00E947A15E0E7F7E0008111813D
:1039C000EAEDFAE0208131810217130709F481E062
:1039D00020E031E000E00E94AF16EAEDFAE000835B
:1039E000118342E050E020E737E008EE11E00E944A
:1039F0007A15E0E7F7E000811181EAEDFAE0208135
:103A000031810217130709F491E08130E9F44CE7A2
:103A10005AE760E00CEB19E00E946D2B48EE50E095
:103A200023E737E002E010E00E947A15992309F0BD
:103A300047C000E011E086DF4CE15BE760E00CEBA3
:103A400019E00E946D2B3CC09130D1F44CE75AE74D
:103A500060E00CEB19E00E946D2B48EE50E023E78C
:103A600037E000E011E00E947A154CEC5AE760E084
:103A70000CEB19E00E946D2B02E010E063DF20C028
:103A800048EE50E023E737E000E011E00E947A15AD
:103A90004CEB5BE760E00CEB19E00E946D2B4CE017
:103AA0005CE760E00CEB19E00E946D2B48EE50E003
:103AB00023E737E002E010E00E947A152BDE04D005
:103AC0000BDE89919991089502E010E03BDF00E060
:103AD00011E038CF64E070E04CE558E007E61EEDF9
:103AE00021E030E00E943B1841E050E02BE538E057
:103AF00001E10E94951500915B08003218F000E08A
:103B000000935B08089541E050E02BE538E001E1C7
:103B10000C9487150E94C6180E9414180E940F0D5D
:103B20000E94E3040E94631A0E94031E0E94571B16
:103B30000E946C190E94D6180E942D070E9423082B
:103B40000E94DF1E0E94B411C5DF0C94E218E2DF70
:103B50004CE65BE760E00CEB19E00E946D2B13DF95
:103B60000E946B1B0E942F2A0E944B0829E432E01E
:103B70000CEB19E00E94342B00ED17E0E9E8F3E0CC
:103B8000008311830E94D618E3E8F3E000811181DD
:103B9000012BA1F408EE13E0008311830AEF10E07B
:103BA000E1E9F3E0008311830E943E1603EF17E082
:103BB000E7E6F7E047E050E00E94C6340E9466085E
:103BC0000E94B311EBE8F3E000811181012B31F485
:103BD00004E610E0008311830E94C8070E94BA1A0D
:103BE0000E94340D0E94DE1E0E946E140091720726
:103BF000002341F200919703002321F665DF00E0E6
:103C000000937207BFCF0E94F317EDE4F2E000E0EB
:103C100007A703A705A70895BA93AA93ADE4B2E056
:103C20000E94FC17002331F008E2FD0102A300E02E
:103C300006A329C0FD0106A1002381F402A10023EF
:103C400069F401E006A305E010E0E5E8F3E0008395
:103C5000118300E213E00D931C931197FD0106A15F
:103C6000023089F40D911C911197012B61F401E050
:103C700006A305E010E0E5E8F3E00083118308EC1B
:103C80000D931C9311970E940218002331F008E253
:103C9000FD0103A300E007A329C0FD0107A1002344
:103CA00081F403A1002369F401E007A305E010E01B
:103CB000E5E8F3E00083118300E213E00D931C9329
:103CC0001197FD0107A1023089F40D911C91119704
:103CD000012B61F401E007A305E010E0E5E8F3E063
:103CE0000083118308EC0D931C9311970E94081810
:103CF000002331F008E2FD0104A300E000A729C081
:103D0000FD0100A5002381F404A1002369F401E072
:103D100000A705E010E0E5E8F3E00083118300E28E
:103D200013E00D931C931197FD0100A5023089F457
:103D30000D911C911197012B61F401E000A705E0A2
:103D400010E0E5E8F3E00083118308EC0D931C9389
:103D500011970E940E18002331F008E2FD0105A31F
:103D600000E001A728C0FD0101A5002381F405A101
:103D7000002369F401E001A705E010E0E5E8F3E0C5
:103D80000083118300E213E00D931C931197FD0152
:103D900001A5023081F40D911C911197012B59F46A
:103DA00001E001A705E010E0E5E8F3E000831183FE
:103DB00008EC0D931C93A991B99108950895BA93B5
:103DC000AA931C0160E044EB59E02CE839E004E9D7
:103DD00019E0A0EAB9E08EE997E0FC0162937CED7E
:103DE0001124FC01768317827CE37787108A77EEB3
:103DF000072E73E0048675871286138676E9718B29
:103E0000128A138A148A158A168A74E670831182BC
:103E10007283138274EF072E71E004827583168615
:103E2000F90111921192119211929F01F8011192D0
:103E30001192119211928F01FA0111921192AF0118
:103E40001D921D921D921D9263958596623028F2F7
:103E5000C101A991B9910895FA92EA92DA92CA92AF
:103E6000BA92AA929A928A927A926A925A924A92B2
:103E7000BA93AA939A938A932D9700910A080130D6
:103E800009F41BC20AE7C02E09E0D02E8601065CA9
:103E90001F4F09831A8386010E5C1F4F0D831E83FB
:103EA0008601025D1F4F0F83188786010A5C1F4F32
:103EB00009871A8786010E5D1F4F0B871C878601B5
:103EC0000A5D1F4F0B831C83760102E1E00E00E0C8
:103ED000F01EAEE9B7E002E00883FD01068501307F
:103EE00019F0033009F09BC186819781029112E09D
:103EF000019FF001ED58F84F06851785801B910B47
:103F0000FD0103A1013019F49195819590408C0138
:103F1000292F220F220B322F0E94F3322801390160
:103F20000D911C911197212F220F220B322F0E94ED
:103F3000F332A201B3010E94B33340E050E068ECD9
:103F400072E40E942C34F6010483158326833783A0
:103F5000E981FA81208131818C01021B130B212F11
:103F6000220F220B322F0E94F33228013901F60171
:103F70000487158726873787E981FA8180839183B3
:103F800040E050E06CE772E4EB81FC81008111813C
:103F9000228133810E94B33348015901FD0104811C
:103FA0001581212F220F220B322F0E94F332A20102
:103FB000B3010E94B333A401B5010E94523340E023
:103FC00050E060E872E40E942C34EB81FC810083B5
:103FD000118322833383F601048715872687378769
:103FE00041E050E06AEF76E40E94BE3428F040E001
:103FF00076EC0E94A63428F4F6015487558766872C
:104000007787F60184849584A684B784840195011A
:104010000E940033EAE7008B118B20E030E0208320
:10402000218322832383FD01078510890E94FE32AC
:10403000A801B90100E010E020E030E00E942C343B
:1040400028013901FD0102811381212F220F220B4A
:10405000322F0E94F332A201B3010E94B33340E039
:1040600050E068EC72E40E942C3428013901F6011A
:10407000008711872287338740E050E060E271E4D7
:1040800004811581268137810E94B3330E94003359
:10409000C801ED81FE810083118340E050E060E2C1
:1040A00071E4820193010E94B3330E94003328011E
:1040B000EF81F8850083118340E050E060E271E415
:1040C000840195010E94B3330E940033E985FA858B
:1040D00000831183840D951D080F191F212F220FB6
:1040E000220B322F0E94F3324801590140E050E088
:1040F00060E070E00E94A6342801390110F400E865
:104100007026FD01078D10A120E030E00E94FE32F4
:10411000A801B901820193010E94A63428F48824E1
:104120009924AA24BB2437C0FD0101A112A120E0DB
:1041300030E00E94FE32A801B901820193010E9481
:10414000A634FD0128F40788108C218C328C04C021
:10415000038C148C258C368CF70140805180628052
:10416000738041E050E060E070E03B2D0E94BE347F
:1041700038F4A201B301800191010E94523306C0BC
:10418000A001B101820193010E949633F7010083DF
:10419000118322833383840195010E940033EB85D0
:1041A000FC8500831183F701408051806280738019
:1041B000820193010E940033C801212F220F220B9C
:1041C000322F0E94F332A801B901820193010E94AB
:1041D0009633F7010083118322833383FD01008529
:1041E0001185080F191F008711870085083E23E0FD
:1041F00013401CF007EE0087218702851385208578
:1042000031852017310714F400871187048515853F
:10421000208531850217130714F400871187FB2FBF
:104220000085118523893489021B130B98011AF428
:10423000319521953040223040E030407CF0202FF5
:10424000212B61F0013014071CF021E0258B01C007
:10425000458B112322F401E0068B02C0458B468B6F
:10426000959604E0E00EF41E0B811C810C5F1F4F3D
:104270000B831C830B851C850E5F1F4F0B871C87D0
:1042800009851A850E5F1F4F09871A870F811885C8
:104290000E5F1F4F0F8318870D811E810E5F1F4F0A
:1042A0000D831E8309811A810E5F1F4F09831A83B4
:1042B00008810A95088309F010CE2D96899199916D
:1042C000A991B99149905990699079908990999064
:1042D000A990B990C990D990E990F9900895EBE32D
:1042E000F5E00081118122813381023010402040AD
:1042F000304078F4048115814081518125E2259F69
:10430000302D249F310DE02DF32FED58F84F01ABE8
:1043100012AB0895EBE3F5E0008111812281338136
:10432000023040E014072040304060F44481202FE8
:1043300005E2019F102D029F110DE02DF12FED5888
:10434000F84F41AF0895EBE3F5E000811181228140
:104350003381023010402040304078F404811581D0
:104360004081518125E2259F302D249F310DE02D84
:10437000F32FED58F84F05AB16AB0895EBE3F5E0DE
:104380000081118122813381023010402040304071
:1043900078F4048115814081518125E2259F302DDB
:1043A000249F310DE02DF32FED58F84F07AB10AFE0
:1043B0000895EBE3F5E00081118122813381023021
:1043C00010402040304078F40481158140815181B3
:1043D00025E2259F302D249F310DE02DF32FED5840
:1043E000F84F03AB14AB0895EBE3F5E000811181C6
:1043F00022813381023010402040304078F4048123
:1044000015814081518125E2259F302D249F310D5A
:10441000E02DF32FED58F84F07A710AB0895EBE30D
:10442000F5E000811181228133810230104020406B
:10443000304078F4048115814081518125E2259F27
:10444000302D249F310DE02DF32FED58F84F05A7A7
:1044500016A70895EBE3F5E00081118122813381F5
:10446000023010402040304078F4048115814081B2
:10447000518125E2259F302D249F310DE02DF32F12
:10448000ED58F84F03A714A70895EBE3F5E000817A
:10449000118122813381023040E0140720403040F6
:1044A00060F44481202F05E2019F102D029F110D21
:1044B000E02DF12FED58F84F42A70895BA93AA9333
:1044C000ABE3B5E00D911D912D913C911397023016
:1044D00040E0104020403040E0F4FD0104811581AF
:1044E000268137810E94FE3250E06AE774E40E9420
:1044F0002C344D915D91642F45E2459F502D469F90
:10450000510DE02DF52FEB54F84F008311832283DA
:104510003383A991B9910895BA93AA93ABE3B5E017
:104520000D911D912D913C911397023040E0104068
:1045300020403040E0F4FD0104811581268137815F
:104540000E94FE3250E06AE774E40E942C344D91E0
:104550005D91642F45E2459F502D469F510DE02D02
:10456000F52FE754F84F0083118322833383A991F9
:10457000B9910895EBE3F5E0008111812281338147
:10458000023010402040304078F404811581408191
:10459000518125E2259F302D249F310DE02DF32FF1
:1045A000E354F84F008311830895EBE3F5E00081B5
:1045B000118122813381023010402040304078F454
:1045C000048115814081518125E2259F302D249F52
:1045D000310DE02DF32FE154F84F0083118308953E
:1045E000EBE3F5E00081118122813381023040E06C
:1045F00014072040304060F44481202F05E2019FE1
:10460000102D029F110DE02DF12FEF53F84F408335
:1046100008950E94641D46EA5DE760E00CEB19E036
:104620000C946D2B41E02CE538E00CEB19E00E9476
:10463000262F2EE732E00CEB19E00E94342B41E0EC
:1046400024EA33E00CEB19E00E94262F20E832E048
:104650000CEB19E00C94342B2797B8018E01FB0169
:1046600047E050E00E94C63423E832E00CEB19E04A
:104670000E94342B60E352E040E09E012C5F3F4FEC
:104680000CEB19E00E942B2D2EE732E00CEB19E029
:104690000E94342B42E55CE760E02D810AE0029F36
:1046A000400D511D0CEB19E00E946D2B27E832E004
:1046B0000CEB19E00E94342B60E352E040E09E01D5
:1046C0002A5F3F4F0CEB19E00E942B2D2BE832E0C4
:1046D0000CEB19E00E94342B4AEC5CE760E02B8184
:1046E0000AE0029F400D511D0CEB19E00E946D2B5A
:1046F0002EE832E00CEB19E00E94342B60E352E02C
:1047000040E09E012E5F3F4F0CEB19E00E942B2DE5
:1047100025E932E00CEB19E00E94342B60E352E013
:1047200040E09E012F5F3F4F0CEB19E00E942B2DC4
:1047300025E932E00CEB19E00E94342B60E352E0F3
:1047400040E09E010CEB19E00E942B2D2796089566
:10475000BA93AA938A93229703EF17E07DDF46E688
:104760005BE860E00CEB19E00E946D2B40E02BE56C
:1047700038E00CEB19E00E94D02C46E75AE860E0E4
:104780000CEB19E00E946D2B0091FA07002321F435
:1047900046EC5AE860E003C046E15BE860E00CEB01
:1047A00019E00E946D2B46E45EE760E00CEB19E037
:1047B0000E946D2B46E95EE760E00CEB19E00E9479
:1047C0006D2B46EE5EE760E00CEB19E00E946D2B6E
:1047D00080E0E3E7F7E024813581482F01E010E035
:1047E0000E941E3220233123232B19F027E932E0C7
:1047F00002C02AE932E00CEB19E00E94342B8395C9
:10480000873038F346E35FE760E00CEB19E00E9485
:104810006D2B80E0E3E7F7E020853185482F01E04C
:1048200010E00E941E3220233123232B19F027E9A8
:1048300032E002C02AE932E00CEB19E00E94342B8E
:104840008395873038F346E85FE760E00CEB19E0CA
:104850000E946D2BA1E8B7E083E00D911D910883C4
:1048600019839E010CEB19E00E94392E2EE732E0ED
:104870000CEB19E00E94342B8A9579F746ED5FE73F
:1048800060E00CEB19E00E946D2B2FE737E00CEB9A
:1048900019E00E94D12E2EE732E00CEB19E00E94C5
:1048A000342B22968991A991B9910895BA93AA932C
:1048B0008A9346E151E860E00CEB19E00E946D2B11
:1048C00000917509013039F446E651E860E00CEBDF
:1048D00019E00E946D2B00917509002339F446EB15
:1048E00051E860E00CEB19E00E946D2B46E55CE8B6
:1048F00060E00CEB19E00E946D2B80E0A0E6B8E0D0
:10490000082F077039F446EA5CE860E00CEB19E028
:104910000E946D2B71E065E055E040E09D010CEBDD
:1049200019E00E94922D2EE732E00CEB19E00E9474
:10493000342B83951296843118F346E95DE860E0E4
:104940000CEB19E00E946D2B80E0A8E8B8E0082F7E
:10495000077039F446EA5CE860E00CEB19E00E946D
:104960006D2B71E065E055E040E09D010CEB19E036
:104970000E94922D2EE732E00CEB19E00E94342BBE
:1049800083951296843118F346EF5CE860E00CEBF7
:1049900019E00E946D2B80E0A0EBB8E0082F0770B3
:1049A00039F446EA5CE860E00CEB19E00E946D2BFC
:1049B00070E063E058E041E09D010CEB19E00E94DB
:1049C000922D2EE732E00CEB19E00E94342B8395F8
:1049D0001496843118F346E45DE860E00CEB19E0CE
:1049E0000E946D2B80E0A0E0B9E0082F077039F439
:1049F00046EA5CE860E00CEB19E00E946D2B70E089
:104A000063E058E041E09D010CEB19E00E94922D1B
:104A10002EE732E00CEB19E00E94342B83951496BC
:104A2000883018F38991A991B991089522972DE9B9
:104A300032E00CEB19E00E94342B00E0088328815F
:104A400009E0029FF001E95EF74F00811181012B1F
:104A500009F4B8C028EA32E00CEB19E00E94342BCC
:104A600040E09E010CEB19E00E94D02C2FEA32E0CE
:104A70000CEB19E00E94342B22EB32E00CEB19E036
:104A80000E94342B288109E0029FF001E95EF74F74
:104A90000181098360E352E041E09E012F5F3F4FB7
:104AA0000CEB19E00E942B2D288109E0029FF001F8
:104AB000E95EF74F0081098360E352E041E09E0127
:104AC0002F5F3F4F0CEB19E00E942B2D2EE732E0B9
:104AD0000CEB19E00E94342B60E352E040E02DE142
:104AE00038E0288009E0029D200D311D0CEB19E013
:104AF0000E942B2D28EB32E00CEB19E00E94342BA6
:104B000045E15DE760E0288109E0029FF001E25E97
:104B1000F74F208105E0029F400D511D0CEB19E07D
:104B20000E946D2B27E832E00CEB19E00E94342B39
:104B300060E352E040E02FE138E0288009E0029D88
:104B4000200D311D0CEB19E00E942B2D2EE732E0D9
:104B50000CEB19E00E94342B60E352E040E02BE1C3
:104B600038E0288009E0029D200D311D0CEB19E092
:104B70000E942B2D2CEB32E00CEB19E00E94342B21
:104B800060E352E040E02AE138E0288009E0029D3D
:104B9000200D311D0CEB19E00E942B2D2CEB32E087
:104BA0000CEB19E00E94342B60E352E040E029E175
:104BB00038E0288009E0029D200D311D0CEB19E042
:104BC0000E942B2D088103950883053008F437CF08
:104BD000229608955A924A92BA93AA939A938A93E4
:104BE0002297402E46E052E860E00CEB19E00E946C
:104BF0006D2B46EE58E860E00CEB19E00E946D2B3F
:104C0000552405E2049D83E797E0800D911DDC01AA
:104C10009A9621E837E00C9112E0019F200D311D9A
:104C20000CEB19E00E94392E46E552E860E00CEBEF
:104C300019E00E946D2B9C012F5C3F4F0CEB19E09B
:104C40000E94392E46EA52E860E00CEB19E00E941F
:104C50006D2BFD010785002339F00A9541F00A9577
:104C600061F00A9539F00FC02EEB32E008C027EC56
:104C700032E005C02FEC32E002C027ED32E00CEB51
:104C800019E00E94342B46EF52E860E00CEB19E08B
:104C90000E946D2B41E09D010CEB19E00E94D02C8D
:104CA00021EE32E00CEB19E00E94342B46E453E88D
:104CB00060E00CEB19E00E946D2B9C01255D3F4FDD
:104CC0000CEB19E00E94892C46EE53E860E00CEBF7
:104CD00019E00E946D2B9C01235D3F4F0CEB19E006
:104CE0000E94892C46E953E860E00CEB19E00E9431
:104CF0006D2B9C01215D3F4F0CEB19E00E94892C2C
:104D000046E354E860E00CEB19E00E946D2B40E0B4
:104D10009C01265C3F4F0CEB19E00E942C2C46E6D0
:104D200056E860E00CEB19E00E946D2B9C012B5CB7
:104D30003F4F0CEB19E00E94D12E46EB56E860E0A5
:104D40000CEB19E00E946D2B9C01295C3F4F0CEB92
:104D500019E00E94D12E46E057E860E00CEB19E024
:104D60000E946D2B9C012D5C3F4F0CEB19E00E94C3
:104D7000D12E46EA57E860E00CEB19E00E946D2B5B
:104D800040E09C01245C3F4F0CEB19E00E942C2C6E
:104D900046EF57E860E00CEB19E00E946D2B9C0198
:104DA000225C3F4F0CEB19E00E94D12E46E458E8FC
:104DB00060E00CEB19E00E946D2B40E09C01205C50
:104DC0003F4F0CEB19E00E94D02C46E958E860E018
:104DD0000CEB19E00E946D2B40E08F5B9F4F9C0114
:104DE0000CEB19E00E94D02CFD01008D118D228D5D
:104DF000338D40E050E06AE774E40E94B3330E94D0
:104E000000330883198346E859E860E00CEB19E0A9
:104E10000E946D2B40E09E010CEB19E00E942C2CAF
:104E2000FD01048D158D268D378D40E050E06AE739
:104E300074E40E94B3330E9400330883198346ED63
:104E400059E860E00CEB19E00E946D2B40E09E01F8
:104E50000CEB19E00E942C2CFD0100A111A108838C
:104E6000198346EB5BE860E00CEB19E00E946D2BC8
:104E700040E09E010CEB19E00E942C2CFD0102A1E8
:104E800013A10883198346E05CE860E00CEB19E0AD
:104E90000E946D2B40E09E010CEB19E00E942C2C2F
:104EA00046EE5DE860E00CEB19E00E946D2BFD0121
:104EB00004A1002321F446E35EE860E003C046E875
:104EC0005EE860E00CEB19E00E946D2B20E832E018
:104ED0000CEB19E00E94342B23EE32E00CEB19E0CE
:104EE0000E94342B440C551C2CEA39E0240D351D4E
:104EF0000CEB19E00E94892C2EEE32E00CEB19E04D
:104F00000E94342B28EA39E0240D351D0CEB19E002
:104F10000E94892C29EF32E00CEB19E00E94342B1F
:104F200020EB39E0240D351D0CEB19E00E94892C93
:104F300024E033E00CEB19E00E94342B2CE939E03B
:104F4000240D351D0CEB19E00E94892C22968991C5
:104F50009991A991B991499059900895F9CBEBE3B2
:104F6000F5E0008111812281338102301040204020
:104F7000304008F42FCE20E133E00CEB19E00C9424
:104F8000342B0895BA92AA929A928A924A92BA932C
:104F9000AA939A938A93ABE3B5E00D911D912D915D
:104FA0003C911397012B022B032B49F00D91129684
:104FB0001397013010402040304009F06CC083EC62
:104FC00094E0FD01048115814D911296139722E022
:104FD000429FFC01E00DF11D0083118323E233E0C9
:104FE0000CEB19E00E94342B0D911296139712E0EE
:104FF000019F800D911D9C010CEB19E00E94392E40
:105000002CE333E00CEB19E00E94342B21E533E074
:105010000CEB19E00E94342B00E00E94F7184424A6
:1050200036C004E610E00E94F2310E94121902E03C
:10503000409EC001EFEBF4E0408151810D9112964A
:105040001397202F06E0029FE7ECF4E0E00DF11D3E
:10505000E80FF91F40835183042D03950E94F71830
:105060000D9112961397202F06E0029F27EC34E053
:10507000200D311D280F391F0CEB19E00E94392E2D
:1050800027E533E00CEB19E00E94342B43940091A8
:105090007507401630F20D911D912D913C9113979B
:1050A000013040E010402040340709F04CC0E3ECF0
:1050B000F4E00281138120813181021B130B212F27
:1050C000220F220B322F0E94F3324801590144244F
:1050D00000917507401608F0E3C0842D90E0242D60
:1050E00030E0220F331FF901E953FB4F068117818E
:1050F000F901E953FB4F20813181021B130B212F52
:10510000220F220B322F0E94F33240E050E060E881
:105110007FE30E94A63420F400E010E020E83FE3A3
:10512000A801B901840195010E942C34880F991FB0
:10513000880F991FFC01ED58F84F008F118F228FB7
:10514000338F4394C5CF11961D912D911397023043
:1051500010402040304009F0A3C0FD0104811581BA
:10516000E3ECF4E00083118323E233E00CEB19E07D
:105170000E94342B23EC34E00CEB19E00E94392E12
:105180002CE333E00CEB19E00E94342B21E533E0F3
:105190000CEB19E00E94342B00E00E94F718442425
:1051A0003EC004E610E00E94F2310E941219242C45
:1051B0003324042D10E0000F111FA7ECB4E0A00F62
:1051C000B11FEFEBF4E000811181212F220F220BA0
:1051D000322F0E94F332A801B901220C331C220C99
:1051E000331CF101ED58F84F008D118D228D338D58
:1051F0000E94B3330E940033FD0100831183042D0C
:1052000003950E94F7189D010CEB19E00E94392EBE
:1052100027E533E00CEB19E00E94342B4394009116
:105220007507401608F4BDCF442413C002E0409E29
:10523000E3ECF4E000811181F001E953FB4F2081A0
:105240003181021B130BF001ED58F84F04A315A395
:10525000439400917507401648F32AE533E00CEBC0
:1052600019E00E94342B21E533E00CEB19E00E9499
:10527000342B442411C027E937E002E0409E200D82
:10528000311D0CEB19E00E94392E27E533E00CEBC1
:1052900019E00E94342B439400917507401658F38F
:1052A00089919991A991B991499089909990A990E2
:1052B000B9900895EBE3F5E00081118122813381FB
:1052C000033000E010402040304038F046E359E819
:1052D00060E00CEB19E00C946D2B20E83FE340817B
:1052E0005181440F551F440F551FFA01ED58F84FD7
:1052F000008F018F228F338FEBE3F5E040815181E6
:10530000440F551FFA01ED58F84F04A305A3089563
:10531000EBE3F5E030812481108504850C94E815D9
:10532000EBE3F5E02085148100810C94A31501E0E6
:105330000093F10703E000939703089500E0F8CF8E
:105340004A928A93EBE3F5E08081118122813381D7
:10535000082F44244AE050E060E070E00E946E3282
:10536000402F0AE02224039F302D029F202D310D73
:10537000019F102D210D321D049F002D110D221DA6
:10538000321D8019442D50E041955040FA01E551FD
:10539000F84F80834AE050E060E070E00E946E3297
:1053A000802F439445E04416A8F203E0009397034E
:1053B0008991499008954A928A93EBE3F5E08081C0
:1053C000118122813381082F44244AE050E060E0BB
:1053D00070E00E946E32402F0AE02224039F302D9D
:1053E000029F202D310D019F102D210D321D049F94
:1053F000002D110D221D321D8019442D50E04195C4
:105400005040FA01E051F84F80834AE050E060E0FC
:1054100070E00E946E32802F439445E04416A8F25B
:10542000C4CF00E0009324020895EBE3F5E000818F
:10543000118122813381012B022B032B51F000813A
:10544000003110402040304020F400935B080C9461
:10545000831D25E633E00CEB19E00C94342B2297E6
:1054600000E000932A0520E030E001E00E94AF1642
:10547000EAEDFAE00083118362E070E0AE010EE72E
:105480001FED21E030E00E943B1808811981EAED10
:10549000FAE0208131810217130741F046E755E811
:1054A00060E00CEB19E00E946D2B33C020E030E08F
:1054B00002E00E94AF16EAEDFAE00083118362E099
:1054C00070E0AE010CE71FED21E030E00E943B18D8
:1054D00008811981EAEDFAE0208131810217130772
:1054E00021F046EC55E860E0DCCF46E156E860E0AC
:1054F0000CEB19E00E946D2B67E670E04CEB59E075
:1055000000E01FED21E030E00E943B1801E0009335
:105510002A052296089546ED5EE860E00CEB19E05E
:105520000E946D2B4EEF5EE860E00CEB19E00E94EC
:105530006D2B0091FA07002321F446EC5AE860E055
:1055400003C046E15BE860E00CEB19E00E946D2BC4
:1055500046E25FE860E00CEB19E00E946D2B0091E1
:10556000FB07002321F44EEE5FE860E003C046E154
:1055700050E960E00CEB19E00E946D2B4EE45FE80F
:1055800060E00CEB19E00E946D2B40E02CEF37E05F
:105590000CEB19E00E94D02C46E75FE860E00CEBD2
:1055A00019E00E946D2B40E02DEF37E00CEB19E085
:1055B0000E94D02C4EE95FE860E00CEB19E00E94FD
:1055C0006D2B22E038E00CEB19E00E94392E46ECFE
:1055D0005FE860E00CEB19E00E946D2B21E837E0FA
:1055E0000091040812E0019F200D311D0CEB19E021
:1055F0000E94392E4EE350E960E00CEB19E00E9466
:105600006D2B40E02EEF37E00CEB19E00E94D02C20
:1056100027E733E00CEB19E00E94342B40E02FEF3A
:1056200037E00CEB19E00E94D02C46E650E960E030
:105630000CEB19E00E946D2B40E020E038E00CEB11
:1056400019E00E94D02C27E733E00CEB19E00E9410
:10565000342B40E021E038E00CEB19E00C94D02C26
:105660000E948A1B0C94641D4A92BA93AA939A933F
:105670008A93C801D90144240E9411110C9100237E
:1056800091F400E0FC0100830CEB19E0E8EDFAE096
:10569000008311830E9411113BC30AE0FC010193B6
:1056A000CF01119644240C910C3581F411964424B9
:1056B00043941C91112329F301E04016A1F71E56D3
:1056C00019F0145051F3EECF0DE0E8CFFD01319603
:1056D000DF01FC010193CF01ECCF5A924A92BA93B9
:1056E000AA939A938A932801DA01962F80E00E9468
:1056F0001111FD019BBF0691002391F400E0F2011E
:1057000000830CEB19E0E8EDFAE0008311830E94BE
:10571000111101C20AE0F20101932F01119680E0FC
:10572000FD0106910C3581F4119681E0FD019BBFCE
:105730001691112319F3813099F71E5619F0145060
:1057400049F3EDCF0DE0E7CF0791DF01F2010193BF
:105750002F01ECCFBA93AA939A93382E080150E008
:1057600040E060E000E010E020E030E0F001708117
:105770007D3289F461E031960EC08134F8F08734CF
:10578000E8F441E090E0C797A92FAA0FAA0B080FF1
:10579000191F2A1F3A1F7081772309F44FC0552320
:1057A000A9F5442339F4783711F0783519F451E02C
:1057B00031962EC0703310F07A3328F000E010E0FC
:1057C00020E030E044C08AE02224839FB02D829FF5
:1057D000A02DB10D819F902DA10DB21D809F910D27
:1057E000A21DB21D002D192F9D01872F90E0C0979B
:1057F000A92FAA0FAA0B080F191F2A1F3A1F702FD3
:10580000712B722B732B09F041E0B5CF5130F1F7BA
:1058100044E00E9456328191803330F08A3320F484
:1058200041E090E0C097B0CF813608F4A6CF87362C
:1058300028F641E090E087559040A6CF613039F4DA
:1058400010952095309501951F4F2F4F3F4F832D79
:105850009991A991B99108954A92BA93AA939A936A
:105860008A932597D801C901442E0E941111442022
:1058700079F5FC010081118120E030E084E095E0C1
:10588000402E4AE050E060E070E00E946E32502FFF
:105890004AE0549F4018FE0150E0E80FF51F408297
:1058A0008A959A9569F710E0FE0105E0219122237F
:1058B00011F011E002C0112319F0205D2D935C93CB
:1058C0000A95A1F7112321F500E30D935C9320C005
:1058D00001E04016E9F40196FC0112E00081029516
:1058E0000F700A3010F4005D01C0095C0C9300E0F9
:1058F00011960C9300810F700A3010F4005D01C006
:10590000095C0C9300E011960C9331971A9531F7CE
:10591000FEC14A92BA93AA939A938A932597D80183
:10592000C9010E941111FC0100811181212F220F58
:10593000220B322F5AF410952095309501951F4F68
:105940002F4F3F4F4DE24D9340E04C9384E095E064
:10595000402E4AE050E060E070E00E949132502F0B
:105960004AE0549F4018FE0150E0E80FF51F4082C6
:105970008A959A9569F710E0FE0105E021912223AE
:1059800011F011E002C0112319F0205D2D935C93FA
:105990000A95A1F7112319F400E30D935C93B7C1A5
:1059A0004A92BA93AA939A938A932397D801C901EA
:1059B000442E0E941111442079F5FC01008110E071
:1059C00020E030E082E093E0402E4AE050E060E0EA
:1059D00070E00E946E32502F4AE0549F4018FE0142
:1059E00050E0E80FF51F40828A959A9569F710E01C
:1059F000FE0103E02191222311F011E002C01123E6
:105A000019F0205D2D935C930A95A1F71123F9F409
:105A100000E30D935C931BC001E04016C1F4FC0150
:105A2000008102950F700A3010F4005D01C0095C1E
:105A30000C9300E011960C9300810F700A3010F463
:105A4000005D01C0095C0C9300E0FD0101830E9430
:105A5000111123965DC15A924A92BA93AA939A93CE
:105A60008A932397D801C901442E562E0E94111102
:105A7000442099F5FC01008110E020E030E00A307C
:105A800010F45D921C9382E093E0402E4AE050E0D7
:105A900060E070E00E946E32502F4AE0549F401840
:105AA000FE0150E0E80FF51F40828A959A9569F74C
:105AB00010E0FE0103E02191222311F011E002C069
:105AC000112319F0205D2D935C930A95A1F7112302
:105AD000F9F400E30D935C931BC001E04016C1F4A0
