:100000000C949D3218951895189518951895189573
:100010001895189518951895189518951895189578
:100020001895189518951895189518951895189568
:100030000C943618189518951895189518951895C4
:100040001895189518951895189518951895189548
:100050001895189518951895189518951895189538
:100060001895189518951895189518951895189528
:1000700018951895189518950C94C81718951895F3
:100080001895189518951895189518956605B7063A
:10009000B706B7066F05B706B706B706B706B706C1
:1000A000B706B706B706B7067A05B706B706B706A6
:1000B000B706B70666059305C1059C05A505AF05FE
:1000C000B805CA05D5050D06E005EB05F7050206DE
:1000D00018063706210642062C064D06580663060A
:1000E000B706B7066C0677068D068106B706B70613
:1000F000A506990694088908A108AD08B908B408AE
:10010000C408CB08A209A209A209A209A209A2094E
:10011000A209A209D908FD08F408EB08E208A2091F
:10012000A209A209A209A209A20920092809A20973
:100130003809D0083B094709060919093009A209FD
:1001400053095B0962096A097209790980098709FB
:100150008E099809BC092A0BC509EF092A0BFA096F
:10016000010A2A0B2A0B2A0B2A0B120A1F0A2C0A35
:10017000390A460A530A5F0A790A6C0A2A0B2A0BC3
:100180002A0B2A0B2A0B860A2A0B2A0B930AD40A5B
:10019000060AD70AE20A9E0AB40AC80A2A0BEF0A1C
:1001A000F50AFB0A010B070B0D0B130B190B1F0BA9
:1001B000250BBA93AA93A0E5B6E00AEA15E50D93DC
:1001C0001C931197FD0102811381007E20917B0811
:1001D000022B0F71107CE5ECF5E022813381207C4D
:1001E0003F73022B132BFD010283138304E001876D
:1001F00064E070E0AD01465F5F4F07E61EED21E071
:1002000030E00E944B1867E070E0AD01425F5F4F45
:100210000FE61EED21E030E00E944B1864E070E034
:10022000AD014A5E5F4F07E61FED21E030E00E941E
:100230004B1867E070E0AD01465E5F4F0FE61FEDC3
:1002400021E030E00E944B188D01095D1F4FE6EB65
:10025000F5E00083118300912A08FD0100AB9D01A8
:10026000275D3F4FE4E1F8E0890147E050E00E945C
:10027000653500911B08FD0100A70091CD0701AB7A
:10028000E6E9F7E007A510A9FD0102AB13ABE6E92B
:10029000F7E004851585FD0104AB15AB0091BE07A1
:1002A00012E0019FF001EA56F84F06851785FD011F
:1002B00006AB17AB0FE207C2BA93AA93A0E5B6E06C
:1002C0000AEA15E50D931C931197FD010281138134
:1002D000007E20917B08022B0F71107CE5ECF5E08D
:1002E00022813381207C3F73022B132BFD0102837B
:1002F000138308E2048348E250E026E937E042C174
:10030000BA93AA93602FA0E5B6E00AEA15E50D932B
:100310001C931197FD0102811381007E20917B08BF
:10032000022B0F71107CE5ECF5E022813381207CFB
:100330003F73022B132BFD010283138305E2048319
:10034000623045E250E058F42EEB37E0069F200D76
:10035000311D8D01075F1F4F0E947A3507C020E0D5
:1003600030E08D01075F1F4F0E948835ADC1BA9301
:10037000AA93A0E5B6E00AEA15E50D931C93119740
:10038000FD0102811381007E20917B08022B0F71F9
:10039000107CE5ECF5E022813381207C3F73022B59
:1003A000132BFD01028313830DE204834DE250E021
:1003B00027E338E0E7C0BA93AA9326ED35E0E6EBF1
:1003C000F5E020833183E5ECF5E0228D20932A08C7
:1003D000228920931B08238D2093CD07248D358DF2
:1003E000E6E9F7E027A730ABE5ECF5E0268D378DA1
:1003F000E6E9F7E02487358723E02093B305A0E5FD
:10040000B6E02AEA35E52D933C931197FD01228150
:100410003381207E40917B08242B2F71307CE5ECCA
:10042000F5E002811381007C1F73202B312BFD012D
:100430002283338301E147C1BA93AA932EEC35E0BE
:10044000E4EBF5E020833183E6E9F7E0A6EDB5E0E3
:100450004D915D916D917C91408751876287738743
:1004600020E010C032E0239FA5ECB5E0A00DB11D47
:1004700055964D915C91DF01A00DB11D1C964D93D9
:100480005C9323953381231768F3A0E5B6E02AEA4D
:1004900035E52D933C931197FD0122813381207E18
:1004A00040917B08242B2F71307CE5ECF5E0028134
:1004B0001381007C1F73202B312BFD01228333839A
:1004C0003FC0BA93AA93023078F445E250E02EEC94
:1004D00035E06EEB77E0202E05E2029D112D600DD8
:1004E000171F062F0E947A350DC0BA93AA934DE2CA
:1004F00050E020E030E007E318E00E94883502C0B9
:100500000E947A3503E00093B305A0E5B6E00AEA5D
:1005100015E50D931C931197FD0102811381007E57
:1005200020917B08022B0F71107CE5ECF5E0228115
:100530003381207C3F73022B132BFD010283138335
:1005400000E0C1C0BA93AA93A0E5B6E00AEA15E5B7
:100550000D931C931197E5ECF5E002811381FD01E9
:1005600002831383007E20917B08022B0F71209160
:10057000C705207C022B028307E0048347E050E09C
:1005800024E138E08D01075F1F4F0E947A359CC03F
:10059000BA93AA93A0E5B6E00AEA15E50D931C9379
:1005A0001197FD0102811381007E20917B08022BAF
:1005B0000F71107CE5ECF5E022813381207C3F73E4
:1005C000022B132BFD010283138307E0048342E017
:1005D00050E02FE138E0D6CFBA93AA93A0E5B6E079
:1005E0000AEA15E50D931C931197FD010281138111
:1005F000007E20917B08022B0F71107CE5ECF5E06A
:1006000022813381207C3F73022B132BFD01028357
:10061000138307E0048342E050E021E238E0B2CFE8
:10062000BA93AA9347E050E02EEC35E004E118E0DD
:100630000E947A3520E010911508009116080E945A
:10064000B3153091170820911808109119080091DE
:100650001A080E94F81559CFBA93AA9342E050E0C5
:100660002EEC35E00FE118E04BCFBA93AA9342E0AD
:1006700050E02EEC35E001E218E042CFA0E5B6E014
:100680004FE050E02BE138E08D01075F1F4F0E94E3
:100690007A350AEA15E50D931C931197FD01028145
:1006A0001381007E20917B08022B0F71107CE5ECFA
:1006B000F5E022813381207C3F73022B132BFD0157
:1006C000028313830FE004838D010E94EF06FD0176
:1006D000058316838D010E941207FD010783108791
:1006E000E8EBF5E001E0008300E00383068303E02C
:1006F00010E0E1EBF5E000831183A991B991089531
:10070000E5ECF5E001851285043170F422E0129FDA
:10071000A0019F01255F3F4F12E0019F00E818E014
:10072000000D111D0E947A350AEA15E5E0E5F6E0B4
:100730000083118302811381007E20917B08022BAC
:100740000F71107CE5ECF5E022813381207C3F7352
:10075000022B132BE0E5F6E00283138300E0048311
:100760008F010E94EF06E0E5F6E0058316838F0116
:100770000E941207E0E5F6E007831087E8EBF5E05A
:1007800001E0008300E00383068303E010E0E1EB77
:10079000F5E0008311830895BA93AA93E5ECF5E0A0
:1007A00061857285A0E5B6E02AEA35E52D933C9394
:1007B0001197FD0122813381207E40917B08242BFB
:1007C0002F71307CE5ECF5E002811381007C1F7312
:1007D000202B312BFD0122833383072F000F04834D
:1007E000643168F402E0709FA00128EA38E0609F5D
:1007F000200D311D8D01075F1F4F0E947A3564CF98
:10080000BA93AA937FCEBA93AA93E5ECF5E021853B
:1008100020932A08A0E5B6E0FD0121872AEA35E504
:100820002D933C93119722813381207E40917B0848
:10083000242B2F71307CE5ECF5E002811381007CE4
:100840001F73202B312BFD012283338301E03BCF2B
:10085000BA93AA9313CFBA93AA934FE050E02EEC29
:1008600035E00BE118E00E947A3508CFBA93AA93DD
:10087000229742E050E02EEC35E08E010E947A355E
:10088000E5ECF5E0438550E09F01245F3F4F688130
:10089000798106E917E0060F171F0E947A35A0E557
:1008A000B6E00AEA15E50D931C931197FD0102814C
:1008B0001381007E20917B08022B0F71107CE5ECE8
:1008C000F5E022813381207C3F73022B132BFD0145
:1008D0000283138300E004838D010E94EF06FD0173
:1008E000058316838D010E941207FD01078310877F
:1008F000E8EBF5E001E0008300E00383068303E01A
:1009000010E0E1EBF5E0008311832296A991B99103
:1009100008958A93229742E050E02EEC35E08E0154
:100920000E947A35E5ECF5E08385482F50E0088198
:10093000198126E937E0200F311F0CE516E00E94EF
:100940007A3542E050E09E0109E516E00E947A35D2
:10095000E0E5F6E083870AEA15E50083118302816A
:100960001381007E20917B08022B0F71107CE5EC37
:10097000F5E022813381207C3F73022B132BE0E5CD
:10098000F6E0028313838D5F84838F010E94EF065C
:10099000E0E5F6E0058316838F010E941207E0E58B
:1009A000F6E007831087E8EBF5E001E0008300E064
:1009B0000383068303E010E0E1EBF5E0008311839D
:1009C00022968991089500E016E920E030E00E9427
:1009D00077174BE850E020E030E005EC15E00E948E
:1009E00088354BE850E020E030E000E516E00E945A
:1009F000883548E050E020E030E008EB15E00E9448
:100A000088350C9475170E94F217E8EBF5E004871F
:100A10000281102F002319F01A9549F00BC014859C
:100A20001A3A41F000E0E8EBF5E0028308951485FE
:100A30001535C1F7248510E0E5ECF5E0E00FF11F76
:100A40002083E8EBF5E0028103950283093051F43D
:100A500005EC15E0E7D1E5ECF5E0278130850217DC
:100A6000130701F7E5ECF5E0048110E0085F1F4F84
:100A7000E8EBF5E0228130E0021710400CF077C17E
:100A8000328305EC15E0ABD1E5ECF5E0258136814C
:100A90000217130709F065C101E0E8EBF5E00183F7
:100AA000E5ECF5E02281138146E0022F0E94C3327B
:100AB000043308F05CC1F0E0FBBFF2E00F9FF001EF
:100AC000E457FF4F07901690F0010994022F0F7121
:100AD00010917B08011709F04AC10C94D900022F2C
:100AE0000F7110917B08011719F0002309F03FC125
:100AF0000C94E118E5ECF5E0018512852385348539
:100B0000E8EBF5E00087118722873387ECE7F8E010
:100B100040815181628173814017510762077307D9
:100B200009F025C1E5CF022F0F7110917B08011745
:100B300009F01DC10C945C01022F0F7110917B080C
:100B4000011709F014C100E008C0022F0F711091C5
:100B50007B08011709F00BC101E00C948001022F02
:100B60000F7110917B08011709F001C102E0F5CF68
:100B7000022F0F7110917B08011709F0F8C003E0F4
:100B8000ECCF022F0F7110917B08011709F0EFC015
:100B90000C94B701022F0F7110917B08011719F007
:100BA000002309F0E4C00C94DB01022F0F711091B7
:100BB0007B08011719F0002309F0D9C00C941C021E
:100BC000022F0F7110917B08011719F0002309F013
:100BD000CEC000E00AC0022F0F7110917B080117F0
:100BE00019F0002309F0C3C001E00C946102022F48
:100BF0000F7110917B08011719F0002309F0B7C09D
:100C000002E0F3CF022F0F7110917B08011719F04A
:100C1000002309F0ACC003E0E8CF022F0F71109160
:100C20007B08011719F0002309F0A1C00C9475028C
:100C3000022F0F7110917B08011709F098C00C94D6
:100C4000A202022F0F7110917B08011719F00023E7
:100C500009F08DC00C94C802022F0F7110917B080F
:100C6000011719F0002309F082C00C94EC02022F46
:100C70000F7110917B08011719F0002309F077C05C
:100C80000C941003022F0F7110917B08011719F0BB
:100C9000002309F06CC00C942C03022F0F711091EB
:100CA0007B08011719F0002309F061C00C9435038B
:100CB000022F0F7110917B08011719F0002309F022
:100CC00056C00C948003022F0F7110917B080117FE
:100CD00009F04DC00C94CC03022F0F7110917B08CA
:100CE000011719F0002309F042C00C940004022FF0
:100CF0000F7110917B08011711F0002311F40E946D
:100D00000304E5ECF5E002810F7110917B080117F7
:100D100011F0002311F40E942B04E5ECF5E00281B0
:100D20000F7110917B08011711F0002311F40E943C
:100D30002804E5ECF5E002810F7110917B080117A2
:100D400011F0002311F40E943604E5ECF5E0028175
:100D50000F7110917B08011711F0002341F40C94DE
:100D6000890426EC31E00CED19E00E94D32B0895A4
:100D7000BA93AA939A938A93E1EBF5E000811181EB
:100D8000012B41F5A8EBB5E0FD0106810023F1F44C
:100D90000E94F5170023F1F00E9473170E94FD17BF
:100DA000FD01E381F0E0E05BF94F00810E94EF1765
:100DB000FD010381039503838091540690E008961A
:100DC000801790403CF401E0068304C000E00C93DF
:100DD0000E94751789919991A991B9910895AA9343
:100DE0009A938A932297C8018E010E943011A0E045
:100DF0000BC0AE0121E030E08C010A0F131F075F2A
:100E00001F4F0E943D11A395FC010481A01788F398
:100E10008E010E943511088119812296899199913C
:100E2000A9910895BA93AA939A938A932297C80195
:100E30008E010E943011DC0187E0AE0121E030E03C
:100E40008D010E943D1111968A95B9F78E010E947D
:100E50003511088119812296BDCF0E94F41800E057
:100E60000093F5060E94071940E150E020E030E0D1
:100E700006EF16E00C9488359A928A927A926A92DA
:100E80005A924A921D01BC0148018091F50690E0FA
:100E9000682E7724660C771C660C771C660C771C12
:100EA000AAE0B7E0A60DB71DFD01048115810683F8
:100EB000178302811381048315830D911C9111976F
:100EC000FB2F028313838D929C9211970D911C919D
:100ED0001197FB2F22813381020F131F248135814B
:100EE000020F131F26813781020F131F44E050E0C9
:100EF0000E94E132880F991F2AE037E0280F391F3E
:100F00002901F90100AB11ABC401801B910B1AF44C
:100F1000919581959040EAE0F7E0E60DF71D048D8C
:100F2000158D068F178F028D138D048F158F008DF1
:100F3000118D028F138F808F918F008D118D228DD7
:100F4000338D020F131F248D358D020F131F268D35
:100F5000378D020F131F44E050E00E94E132F2018E
:100F600006AB17AB23E0219F302D209F310D80155C
:100F7000930714F4840103C0FD0102811381CB01A6
:100F8000D1014990599069907990899099900895EC
:100F90007A926A925A924A92BA93AA939A938A93AD
:100FA0000E942219212F220F220B322F0E949233EE
:100FB000A801B9010091F50610E0C801880F991F3A
:100FC000A6E9B7E0A80FB91F000F111F000F111FEE
:100FD000F801EA56F84F06891789208D318D0E9455
:100FE000523428013901FD0102A113A1212F220F42
:100FF000220B322F0E949233A201B3010E94F133DF
:101000000E949F33FC01E151F94F0083118334DFCB
:10101000FD0106871787EFEEF6E00681039506834C
:10102000033020F000E006830E944C1F0091F5067B
:101030000E94071989919991A991B9914990599064
:101040006990799008954AE151E020E030E000E8AD
:1010500018E00E94883500E021E0E1E9F9E0008332
:1010600001832283038304830895009146070023AC
:1010700089F04AE151E020E030E000E818E00E9409
:10108000883500E021E0E1E9F9E000830183228373
:1010900003832483089500E0009395090895009147
:1010A0002A080130F9F0009195090130D9F460E186
:1010B00070E047E457E0E1E9F9E000811181228125
:1010C00033810E944B18E1E9F9E00081118122810E
:1010D0003381005F1F4F2F4F3F4F008311832283C7
:1010E000338301D008950E94320B0E94770C0C9438
:1010F000CB0B48814A95403308F024C1F0E0FBBF98
:10110000F2E04F9FF001EC50FF4F07901690F00176
:101110000994098112E0019FF001EA56F84F048515
:10112000158520E030E00EC1098112E0019FF00139
:10113000EA56F84F06851785212F220F220B322FF2
:1011400001C1E6E9F7E004811581268137814981F3
:101150000E94FD32017010E0E4CFE6E9F7E000857F
:10116000118522853385F3CF09811A812B813C813A
:10117000E9C0098114E0019FF001E053F74F0081BD
:10118000118122813381DEC0098114E0019FF001C9
:10119000E05EF64FF4CFE1EAF5E000811181C1CFC6
:1011A000298130E005E2029FF001EA56F84F00A5E0
:1011B000C7C0298105E2029FF001EA56F84F07A552
:1011C00010A9BACF298105E2029FF001EA56F84F33
:1011D00005A916A9B1CF298105E2029FF001EA56BF
:1011E000F84F03A914A9A8CF298105E2029FF001B5
:1011F000EA56F84F01A912A99FCF298130E005E2F4
:10120000029FF001EA56F84F07A99AC0298105E22A
:10121000029FF001EA52F84F00811181228133814F
:1012200040E050E06AE774E40E9452340E949F3329
:1012300089C0298105E2029FF001E652F84FECCF08
:10124000298130E005E2029FF001EC52F84F77C0AF
:10125000298130E005E2029FF001EB52F84F6FC0A8
:10126000298130E005E2029FF001EE51F84F67C09E
:1012700000911B0870CF4981443108F063C002E03F
:10128000409FF001E058F74F0081118155CF49810F
:10129000443108F057C002E0409FF001E058F74F9A
:1012A00000A511A549CF298130E007E1029FF00197
:1012B000E658F74F44C0298107E1029FF001EC593D
:1012C000F74FE2CF298130E007E1029FF001EA59B0
:1012D000F74F35C0298130E007E1029FF001E9595D
:1012E000F74F2DC0298107E1029FF001E759F74F21
:1012F000CBCF298107E1029FF001E559F74FC4CF19
:10130000298107E1029FF001E359F74FBDCF298101
:1013100007E1029FF001E159F74FB6CF298130E094
:1013200007E1029FF001EF58F74F0081118109C0DA
:10133000298130E007E1029FF001E758F74F008173
:1013400010E020E0259608955A924A92BA93AA9303
:101350009A938A93C801A22F0E8102500F3208F08F
:1013600079C1F0E0FBBFF2E00F9FF001EC5AFE4FB5
:1013700007901690F00109940F8112E0019FF0018F
:10138000EA56F84F8487958765C14F8101E010E0E8
:101390000E94BD32212F220F220B482F492B4A2BAE
:1013A000432B79F0E6E9F7E0408551856285738546
:1013B000402B512B622B722B40875187628773879A
:1013C00049C1009510952095E6E9F7E040855185E3
:1013D000628573854023512362237223EDCF0F81F1
:1013E00014E0019FF001E053F74F80839183228343
:1013F000338330C10F8114E0019FF001E05EF64FAE
:10140000F4CFE1EAF5E08083118324C14F8002E04C
:10141000401608F01FC105E2049DF001EA56F84F9E
:1014200080A718C14F8002E0401608F013C105E202
:10143000049DF001EA56F84F83A714A70BC14F8013
:1014400002E0401608F006C105E2049DF001EA56EC
:10145000F84F81A712A7FEC04F8002E0401608F0A7
:10146000F9C005E2049DF001EA56F84F85A716A7DA
:10147000F1C04F8002E0401608F0ECC005E2049D88
:10148000F001EA56F84F80AF11AFE4C04F8002E0A0
:10149000401608F0DFC005E2049DF001EA56F84F5F
:1014A00087A710ABD7C04F8002E0401608F0D2C02B
:1014B00005E2049DF001EA56F84F87ABCBC04F80A0
:1014C00002E0401608F0C6C005E2049DF001EA56AD
:1014D000F84F81AB12ABBEC04F8002E0401608F05F
:1014E000B9C005E2049DF001EA56F84F85AB16AB92
:1014F000B1C04F8002E0401608F0ACC005E2049D88
:10150000F001EA56F84F83AB14ABA4C04F8002E061
:10151000401608F09FC005E2049DF001EA56F84F1E
:1015200082AF13AF97C04F8002E0401608F092C020
:1015300005E2049DF001EE52F84F65CF4F8002E0C6
:10154000401608F087C0082F0E94923340E050E018
:101550006AE774E40E94CB3445E2449DF001EA520C
:10156000F84F0083118343CF4F8002E0401608F00C
:1015700071C0082F0E94923340E050E06AE774E4A3
:101580000E94CB3445E2449DF001E652F84FE9CF8A
:101590004F8002E0401608F05DC005E2049DF001B6
:1015A000EE51F84F808356C080931B0853C04F8084
:1015B00004E1401608F04EC002E0409EF001E05801
:1015C000F74F21CF4F8004E1401608F043C002E0FE
:1015D000409EF001E058F74F80A711A73BC00F8154
:1015E0000023C1F580937A0835C00F81002391F55F
:1015F000E4E6F8E008CF0F81002361F580936608E8
:1016000029C00F81002331F58093670823C00F8123
:10161000002301F5E9E6F8E0F6CE0F810023D1F4CE
:10162000EBE6F8E0F0CE0F810023A1F4EDE6F8E060
:10163000EACE0F81002371F4EFE6F8E0E4CE0F81EB
:10164000002341F4E1E7F8E0DECE0F81002311F43E
:101650008093790889919991A991B991499059906C
:1016600025960895BA93AA939A938A93E7E4F7E0AC
:101670000385083121F400E00093950987C00950E3
:1016800039F10A9509F44AC00A9509F45EC00A9531
:1016900009F471C00A5019F00A9569F177C00091F8
:1016A0009009043108F072C0A1E9B9E04D915D9153
:1016B0006D917C9114E0019FD001A05CB64F4D93D9
:1016C0005D936D937C93A0E9B9E00C9103950C9325
:1016D00004851585000F111F000F111F000F111F2A
:1016E000000F111F30E021E0E1E9F9E000831183F0
:1016F000228333834BC000919009002309F446C034
:10170000E0E9F9E00A95008314E0019FF001E05C54
:10171000F64F0081118122813381E6CF8485958542
:101720000197880F991F880F991F880F991F880F9D
:10173000991FA0E0E1E9F9E0008111812281338164
:10174000080F191F2A1F3A1FD1CF319605E010E06C
:101750000E9470350E947908012B022B032BB1F0F7
:10176000E1E9F9E00081118122813381005F1F4F9F
:101770002F4F3F4FBBCF319605E010E00E947035F0
:101780000E947908012B022B032B51F38991999127
:10179000A991B99108955A924A92BA93AA939A93A9
:1017A0008A9307E4402E07E0502EE7E4F7E0038534
:1017B000083121F400E00093950992C000810250A5
:1017C000D9F10A9549F00A9501F10A9509F44BC03F
:1017D0000A9509F45FC084C0319605E010E00E94CC
:1017E00070350E947908C801D901F201369605E0EA
:1017F00010E00E9470350E947908081719072A071F
:101800003B0714F441E05EC05CC0319605E010E097
:101810000E9470350E947908C801D901F2013696FC
:1018200005E010E00E9470350E947908801791074A
:10183000A207B3073CF345C0319605E010E00E94D3
:1018400070350E947908C801D901F201369605E089
:1018500010E00E9470350E94790880179107A20756
:10186000B30779F5CFCF319605E010E00E947035CF
:101870000E947908C801D901F201369605E010E00E
:101880000E9470350E94790880179107A207B3075C
:10189000C4F0B8CF319605E010E00E9470350E9488
:1018A0007908C801D901F201369605E010E00E94DE
:1018B00070350E947908081719072A073B070CF0B2
:1018C000A1CF40E020E030E00BE0400E521EF201DC
:1018D00005E010E00E947035042F10E00E94A4097A
:1018E00089919991A991B9914990599008955A92E5
:1018F0004A92BA93AA939A938A9307E4402E07E0F8
:10190000502EE7E4F7E00385083121F400E000936E
:10191000950969C010811A9529F01F5009F11A958F
:10192000F9F161C00A3149F40181063009F05BC068
:10193000028113810E94D11156C0319605E010E05A
:101940000E9470350E947908C8010BE0400E00E04B
:10195000501EF20105E010E00E9470358C0141C07C
:10196000319605E010E00E9470350E947908C801A8
:10197000D901F201369605E010E00E9470350E9410
:101980007908A8010BE0400E00E0501EF20105E0CE
:1019900010E00E947035840F951F2A1F3B1FDECF79
:1019A000319605E010E00E9470350E947908C80168
:1019B000D901F201369605E010E00E9470350E94D0
:1019C0007908A8010BE0400E00E0501EF20105E08E
:1019D00010E00E947035841B950BA20BB30B8C0199
:1019E0009D010E94A40989919991A991B991499069
:1019F0005990089500E016E920E030E00E94711847
:101A00000CED19E0E8EFFAE00083118300E00093A9
:101A1000DC090093A40A04EA1AE0ECECFAE0008383
:101A200011830EEC1AE0E6EFFAE00083118300E088
:101A30000093CE0AEFE7F7E0008301830895BA939D
:101A4000AA930E94C318002311F1A8EFBAE0ED9108
:101A5000FC910081002391F00E94C918A8EFBAE020
:101A6000ED91FC9100810E94CB18E8EFFAE0008133
:101A700011810F5F1F4F0083118309C00CED19E026
:101A8000E8EFFAE00083118300E00093DC090E9494
:101A9000BD18002309F4FAC00E94CD18EEE2F2E06E
:101AA00002AB0091DC09002309F0F0C002A9102F5D
:101AB000185009F483C01A9509F4C2C01A9509F4A4
:101AC000E5C0135009F497C01E5021F0145209F4D8
:101AD00092C0B8C00E94BD180023E1F30E94CD1847
:101AE000EEE2F2E002AB0E94BD180023E1F30E9497
:101AF000CD18EEE2F2E002AB01A50023A9F4C6C0C6
:101B000008E00E94CF1800E20E94CF1808E00E946F
:101B1000CF18E6EFFAE000811181015010400083F8
:101B2000118320E0F8012083E6EFFAE02081318183
:101B30001AE02E3C3A4021F7EEE2F2E002A901540D
:101B400019F00A95B1F117C000A9002329F001A9E5
:101B5000043010F4039501AB21A900E5029F9F0119
:101B6000200D311D20593F4F0EEC0E94733001E0D3
:101B7000EEE2F2E000AB0EEC1AE0E6EFFAE00083F2
:101B800011830091CE0A002309F480C0A6EFBAE0C9
:101B9000ED91FC910081002309F478C00E94CF18D8
:101BA000E6EFFAE0008111810F5F1F4F0083118380
:101BB000EDCF01A9002381F20A95CDCFE6EFFAE03F
:101BC000208131812E3C3A4009F460C0EEE2F2E01F
:101BD00001A5002349F008E00E94CF1800E20E940E
:101BE000CF1808E00E94CF18E6EFFAE000811181DB
:101BF0000150104044C011A5112311F00E94CF18CC
:101C0000EEE2F2E002A9A6EFBAE0ED91FC910083CA
:101C1000E6EFFAE0008111810F5F1F4F008311830F
:101C200000E0E091F60AF12F008333D00EEC1AE0C9
:101C3000E6EFFAE00083118300E00093CE0A26C0AD
:101C400000E202ABE6EFFAE020813181253F3A4025
:101C5000E8F4EEE2F2E001A5002319F002A90E94E7
:101C6000CF18EEE2F2E002A9A6EFBAE0ED91FC9106
:101C70000083E6EFFAE0008111810F5F1F4F0083C0
:101C8000118300E0E091F60AF12F0083A991B99148
:101C900008954A92BA93AA939A938A9380E090E027
:101CA000AEE2B2E0EEECF6E730E03BBF0791179111
:101CB0002691FD01048B158B268B0091CE0A02AB79
:101CC00083AB048967A543E0469FE00DF11D028FB9
:101CD000138F248F01E0FD0107A718C0ECECFAE098
:101CE0000081F181E02F2083ECECFAE0008111818A
:101CF0000F5F1F4F0083118320E0F80120830196BE
:101D0000FC01E253F54F0081FD0102AB22A9222321
:101D100069F0022F0D5041F0035131F00E5021F0C7
:101D20000C5011F00550D1F641D0E9CF00E001ABE5
:101D300000ABEEECFAE007C00A3011F00D3011F400
:101D400000E00083319600810023B1F722ED31E0FD
:101D50000EEC1AE00E9433300023F9F02EEC3AE04A
:101D60008D0100591F4F0E9433300023B1F0CD0187
:101D700080559E4F04E0402E9C01205530408C0140
:101D80000E947330805590404A94B1F72EEC3AE0AF
:101D9000A059BF4F8D010E94733000E00093570798
:101DA00089919991A991B99149900895BA93AA936B
:101DB00004EA1AE00E94253004EA1AE0C3D1AEE238
:101DC000B2E0FD0102A90D5009F4B3C0035141F086
:101DD0000E5031F00C5021F0055009F482C104C0BE
:101DE0000091A40A0023F1F400E00093A40A04EA9D
:101DF0001AE0ECECFAE000831183A991B9910895FF
:101E000000E0FD01048B058B068B23EE31E00CED29
:101E100019E00E94D32B9D01265D3F4F0CED19E088
:101E20000E94D32BFD01448955896689042F052B17
:101E3000062BD1F2FA0176966BBF0691002309F0CA
:101E400053C024EA3AE08A010E944630002389F513
:101E5000FD012489358907E517E00E945B3054961F
:101E6000ED91FD913C9156977C963BBF0791179160
:101E700026913797402F412B422B29F0FD01048BEF
:101E8000158B268BB1CF3BBF0791169120E0003018
:101E9000120749F0F80109959D01265D3F4F0CEDB1
:101EA00019E00E94D32B00E0FD01048B058B068B0B
:101EB0009BCF5496ED91FD913C9156977F963BBFF9
:101EC000079117912691302F312B322B29F0FD01EC
:101ED000048B158B268BA6CF00E0FD01048B058BB0
:101EE000068B23ED31E093CF40E020E030E004EAC0
:101EF0001AE00E94492CFD0143A954E0459FE00DE2
:101F0000F11D0083118322833383FD0103A903950F
:101F100003AB5496ED91FD913C9156977C963BBF57
:101F2000079117912691302F312B322B09F468CF6E
:101F3000A5CF22ED31E004EA1AE00E94D135012B51
:101F400059F49A969D010CED19E00E94D32B4CCFC9
:101F5000FD01048B158B268BFD014489558966890B
:101F6000042F052B062B09F43FCFFA0176966BBFA1
:101F70000691002309F08DC024EA3AE08A010E940C
:101F80004630002309F06AC0FD012489358907E540
:101F900017E00E945B305496ED91FD913C9156976D
:101FA0007C963BBF0791179126913797012B022B07
:101FB00009F442C022EF31E00CED19E00E94D32B6E
:101FC00027E537E00CED19E00E94D32B26EF31E036
:101FD0000CED19E00E94D32B5496ED91FD913C91AC
:101FE00056977C963BBF079117912691FD01078B71
:101FF000108F218F012B022BF1F02FE032E00CED3E
:1020000019E00E94D32BFD012789308D0CED19E0DA
:102010000E9461185796ED91FD913C9159977C96DD
:102020003BBF079117912691FD01078B108F218FE0
:10203000012B022B11F730CF3BBF0791F691E02F18
:10204000099500E0FD01048B058B068B9D01265D43
:102050003F4F0CED19E00E94D32B7ECF5496ED91AB
:10206000FD913C9156977F963BBF07911791269122
:10207000302F312B322B09F06BCF00E0FD01048BA8
:10208000058B068B23EE31E00CED19E00E94D32B7B
:1020900058CF40E020E030E004EA1AE00E94492CEA
:1020A000FD0143A954E0459FE00DF11D008311831C
:1020B000228333835496ED91FD913C915697779608
:1020C0003BBF0791169120E00030120749F0F8015C
:1020D00009959D01265D3F4F0CED19E00E94D32B21
:1020E000E2CE25E132E00CED19E00E94D32BFD0198
:1020F000048915892689078B108F218F202B212B8E
:1021000009F41FCF2FE032E00CED19E00E94D32B31
:10211000FD012789308D0CED19E00E94611857965A
:10212000ED91FD913C9159977F963BBF0791179197
:102130002691FD01078B108F218F012B022B09F4B3
:1021400000CFE0CF5A924A92BA93AA939A938A9375
:10215000C8015524AEE2B2E0FD0104891589268943
:10216000078B108F218F22ED31E08C010E943330DC
:10217000002309F457C08C010E948130402EFD01DC
:102180000789108D218D012B022B09F44BC034E1FE
:1021900020E08D010C5C1F4F0E94903034E120E064
:1021A0008D01045A1F4F0E949030FD012789308D08
:1021B0008D01045A1F4F0E946118442D9D01245A1D
:1021C0003F4F8D010C5C1F4F0E9498309C018D0188
:1021D0000C5C1F4F0E943330002349F45394FD01DF
:1021E0002789308D8D01085B1F4F0E946118FD010A
:1021F0000789108D318DF8017F963BBF07911791AC
:102200002691FD01078B108F218F012B022B09F0E6
:10221000BECF01E0501631F4A85BBF4F9D018C0189
:102220000E94733089919991A991B99149905990DF
:1022300008950091DC09002329F001DC0091DC09FC
:102240000023D9F70895EEE2F2E001E001A70DE0E6
:1022500002A70895EEE2F2E000E001A702A70895C8
:102260002FEFF801208321830895F8010081118167
:10227000009510950083118308950D01BC01FA01AA
:10228000422F432BD1F0D801C9010D91208131811A
:1022900020272083318328E040815181569547953E
:1022A000008100FF04C008E014E840275127408364
:1022B00051832A9589F7019741F7CB01D001089501
:1022C000AD0100911C08002309F060C000911D08B9
:1022D000002391F1EEE2F4E0A3E2B8E00D911C914D
:1022E0002091250832E0239FD001AC55B84F2D91A5
:1022F0003C9102171307008174F40023E9F4018173
:102300000395018305E0008301810530A8F005E015
:10231000018300E00FC0002379F40181002311F054
:102320000A95018305E000830181002329F405E07B
:10233000018301E000931B0800911E08002331F186
:1023400001E000931B081091190800912008011763
:1023500028F400912208101760F408C0101749F4FF
:102360000091180820911F08021718F000E0009350
:102370001B0800912208101749F4009118081091C9
:102380002108011718F400E000931B08DA010895F2
:1023900097CF4DE250E020E030E007E318E00C94E6
:1023A0008835192E782F180182E598E064E09C01A9
:1023B000275F3F4F8901FC0149E050E00E946535ED
:1023C00009976A95A1F7E7E3F8E02082318209E3F3
:1023D00018E0E9E8F7E047E00E94653503E0009384
:1023E000B305872F912D0895EEE2F2E0008111816F
:1023F00022813381012B022B032B31F404811581BF
:10240000E4E6F8E0008311830895BA93AA93229733
:10241000EEE2F2E00081118122813381012B022B57
:10242000032B09F024C244EB58E760E00CED19E0FF
:102430000E940C2C44EE5AE760E00CED19E00E947B
:102440000C2CEEE2F2E02081318107E1039F102D98
:10245000029F110DE02DF12FE758F74F0081002367
:1024600021F44CE05BE760E003C044E35BE760E03D
:102470000CED19E00E940C2C44E45AE760E00CEDEE
:1024800019E00E940C2C24E638E0EEE2F2E04081F4
:10249000518107E1059F102D049F110D200D311F63
:1024A0000CED19E00E94D82E4CEA5BE760E00CEDE1
:1024B00019E00E940C2C41E02AE738E0EEE2F2E05D
:1024C0006081718107E1079F102D069F110D200D7E
:1024D000311F0CED19E00E946F2D20E334E00CED6C
:1024E00019E00E94D32B24EA37E0EEE2F2E04081CB
:1024F000518107E1059F102D049F110DE02DF12F53
:10250000E658F74F008112E0019F200D311D0CEDC0
:1025100019E00E94D82EE4E6F8E0AEE2B2E00D91B8
:102520001D91202F07E1019F102D029F110DE00D3D
:10253000F11F068912E0019FD001AC55B84F0D91F3
:102540001C9120813181021B130B0883198332F403
:1025500008811195019510400883198344ED5BE7CC
:1025600060E00CED19E00E940C2C9E010CED19E0CE
:102570000E94D82E4CED58E760E00CED19E00E9467
:102580000C2CEEE2F2E02081318107E1039F102D57
:10259000029F110DE02DF12FEA59F74F0081002322
:1025A00021F44CEC59E760E003C044EF59E760E0E8
:1025B0000CED19E00E940C2C44E059E760E00CEDB2
:1025C00019E00E940C2C40E027E638E0EEE2F2E051
:1025D0006081718107E1079F102D069F110D200D6D
:1025E000311F0CED19E00E946F2D4CE259E760E0BD
:1025F0000CED19E00E940C2CEEE2F2E0208131811A
:1026000007E1039F102D029F110DE02DF12FE859D6
:10261000F74F0081002339F444EA59E760E00CEDFC
:1026200019E00E940C2CEEE2F2E02081318107E1FA
:10263000039F102D029F110DE02DF12FE859F74F48
:102640000081013039F444E559E760E00CED19E010
:102650000E940C2CEEE2F2E02081318107E1039F21
:10266000102D029F110DE02DF12FE859F74F008139
:10267000023039F44CE759E760E00CED19E00E94B4
:102680000C2C44ED56E760E00CED19E00E940C2C98
:102690004CE457E760E00CED19E00E940C2C29E6B1
:1026A00038E0EEE2F2E04081518107E1059F102D14
:1026B000049F110D200D311F0CED19E00E94D82E42
:1026C00044E757E760E00CED19E00E940C2C2BE684
:1026D00038E0EEE2F2E04081518107E1059F102DE4
:1026E000049F110D200D311F0CED19E00E94D82E12
:1026F0004CE957E760E00CED19E00E940C2C2DE648
:1027000038E0EEE2F2E04081518107E1059F102DB3
:10271000049F110D200D311F0CED19E00E94D82EE1
:1027200044EC57E760E00CED19E00E940C2C2FE61A
:1027300038E0EEE2F2E04081518107E1059F102D83
:10274000049F110D200D311F0CED19E00E94D82EB1
:1027500044E158E760E00CED19E00E940C2C40E0E9
:1027600021E738E0EEE2F2E06081718107E1079F46
:10277000102D069F110D200D311F0CED19E00E9448
:10278000CB2C4CE358E760E00CED19E00E940C2CD8
:1027900040E023E738E0EEE2F2E06081718107E19A
:1027A000079F102D069F110D200D311F0CED19E014
:1027B0000E94CB2C44E95AE760E00CED19E00E943E
:1027C0000C2C40E025E738E0EEE2F2E06081718118
:1027D00007E1079F102D069F110D200D311F0CEDF5
:1027E00019E00E94CB2C4CEB5AE760E00CED19E0AD
:1027F0000E940C2C27E738E0EEE2F2E040815181A4
:1028000007E1059F102D049F110D200D311F0CEDC8
:1028100019E00E94D82E4CE55BE760E00CED19E072
:102820000E940C2C40E027E837E0EEE2F2E0008066
:102830001180000C111C200D311D0CED19E00E94BF
:102840006F2D44E85BE760E00CED19E00E940C2C72
:1028500040E028E837E0EEE2F2E000801180000C72
:10286000111C200D311D0CED19E00E946F2D2296D8
:10287000A991B99108951D0140E0602F70E007E62D
:1028800018E027E1269F000D111D209167082223E3
:1028900039F4F8012285E62FF0E0EF57F84F238353
:1028A000F80120812A9529F02A9529F02A9529F006
:1028B00005C041E003C042E001C044E09B01220F9B
:1028C000331FE1E8F7E0E20FF31F56815417A1F040
:1028D00021E837E0260F371F552339F4D901139625
:1028E0005C91552349F4468301C07683D8011A963A
:1028F0000D91D90113960C930681EEECF8E000835C
:102900007183D10108959A938A93E5EAF5E04081B5
:102910005181452B61F000917108E1E8F7E00383F4
:1029200000917308048300917508058397C0409156
:102930007A0852E0459FF001EA56F84F46855785E0
:10294000E4E6F8E060817181461B570B413060E09E
:1029500056072CF0E1E8F7E0718177234AF0552320
:102960004AF4E1E8F7E0808191818130904014F0F1
:1029700061E002C0E1E8F7E0628340835183BA017D
:10298000E0911B0855234AF4519541955040BA01F6
:10299000EE2329F460E070E002C0E130D9F3409109
:1029A0006608442309F058C040916708442339F071
:1029B0004A9591F04A95D9F04A9551F13FC0E9E620
:1029C000F8E000811181EBE6F8E020813181EDE64D
:1029D000F8E02080318032C0E9E6F8E00081118122
:1029E000EFE6F8E020813181021B130BECCFEFE61C
:1029F000F8E040815181E9E6F8E000811181041B93
:102A0000150BEBE6F8E020813181241B350BDFCF7D
:102A1000EFE6F8E040815181E9E6F8E000811181BC
:102A2000041B150BEBE6F8E020813181241B350BEC
:102A3000EDE6F8E020803180241A350A40E0601786
:102A400071077CF06217730764F441E06215730547
:102A50000CF043E04093670800E00DDF8991999105
:102A600008956217730794F3621573057CF742E0CB
:102A7000F1CF219700E0088327E334E00CED19E063
:102A80000E94D32B0EE8088341E050E09E010AE04B
:102A90004ED00AE0088341E050E09E0109E047D0B3
:102AA0000AE1088341E050E09E010BE040D041E0A4
:102AB00050E09E0101E049D008810F73088341E096
:102AC00050E09E0101E00DC0219741E050E09E01E1
:102AD0000BE03BD00881077E088341E050E09E0177
:102AE0000BE025D021960895219741E050E09E010A
:102AF0000BE02BD008810861EFCFB801890120E9F4
:102B000037E0F90170836183642FA80112E002EAC3
:102B10000C948319B801890120E937E0F901708329
:102B20006183642FA80112E002EA0C94F319602F6C
:102B3000890120E937E0F901608360E06183642F57
:102B4000A80111E002ED0C948319602F890120E99E
:102B500037E0F901608360E06183642FA80111E030
:102B600002ED0C94F319AA939A938A932497902FC9
:102B7000A12F822F4AE00E94AF32102F1295107FB2
:102B80002AE0029F092F0019912F902B4AE00A2F6B
:102B90000E94AF32102F1295107F029F0A2F00194A
:102BA000A12FA02B4AE0082F0E94AF32102F1295C0
:102BB000107F029F8019182B1983AA839B8302E040
:102BC000088341E050E09E0100E0B1DF43E050E0C7
:102BD0009E012F5F3F4F02E0AADF00E0088341E043
:102BE00050E09E01A4DF249689919991A9910895BE
:102BF000BA93AA939A938A932597802FB12F922FF5
:102C0000A32F043608F080E01D3008F0B0E0203239
:102C100008F090E0383008F0A0E04AE0082F0E9469
:102C2000AF32102F1295107F2AE0029F082F001953
:102C3000812F802B4AE00B2F0E94AF32102F12956C
:102C4000107F029F0B2F0019B12FB02B4AE0092FE4
:102C50000E94AF32A983102F1295107F029F901906
:102C6000192B1A83BB838C8302E0088341E050E078
:102C70009E0100E05CDF44E050E09E012F5F3F4F8B
:102C800005E055DF00E0088341E050E09E014FDFA2
:102C9000259689919991A991B9910895BA93AA938A
:102CA000219701E0088341E050E09E0100E03FDF12
:102CB000A9E8B7E047E050E09D0102E046DF00E010
:102CC000088341E050E09E0132DF1C9112951F7095
:102CD0000AE0109F0C910F70000E0D920C91202FA6
:102CE00022952F701AE0219F0F70000E0D920C910B
:102CF000202F22952F70219F0F70000E0D920C91A6
:102D0000202F22952F70219F0F70000E0D920C9195
:102D1000202F22952F70219F0F70000E0D920C9185
:102D2000202F22952F70219F0F70000E0D920C9175
:102D3000202F22952F70219F0F70000E0C92169756
:102D400004E118E0FD0147E050E00E94653521965E
:102D5000A991B99108952197E9E9F5E000811181E0
:102D6000012B59F408EE13E0008311830AE0088375
:102D700041E050E09E0109E0DADE219608955A9282
:102D80004A92BA93AA939A938A932797002339F089
:102D90000A9509F442C00A9509F46FC032C02901AE
:102DA00005EE10E00B831C831D831E838E010F5FD5
:102DB0001F4F0E94301180E090E0A0E0B0E013C00F
:102DC00041E050E09E018201080F191FA3DEAE0111
:102DD0004F5F5F4F21E030E08E010E943D118F5F19
:102DE0009F4FAF4FBF4F0B811C812D813E818017BC
:102DF0009107A207B30720F38E010F5F1F4F0E94B8
:102E0000351109811A8120E030E027968991999146
:102E1000A991B9914990599008950EE710E00B835C
:102E20001C831D831E838E010F5F1F4F0E94301174
:102E300080E090E0A0E0B0E00B811C812D813E811C
:102E400080179107A207B307B8F661E070E0AE0102
:102E50008C019D01005011422E4F3F4F0E944B1894
:102E6000AE014F5F5F4F21E030E08E010E943D11C7
:102E70008F5F9F4FAF4FBF4FDFCF64E070E0AE0179
:102E80004D5F5F4F08E71FED21E030E00E944B18D7
:102E90008E010F5F1F4F0E94301180E090E0A0E094
:102EA000B0E00B811C812D813E8180179107A20724
:102EB000B30708F0A1CF61E070E0AE018C019D0185
:102EC000005010402F4F3F4F0E944B18AE014F5FF4
:102ED0005F4F21E030E08E010E943D118F5F9F4FD8
:102EE000AF4FBF4FDECF949A08959498089540E075
:102EF00050E00056194020403040C1F100561940C2
:102F00002040304089F1005C12412040304051F1B6
:102F1000005C12412040304019F1005C1241204019
:102F20003040E1F00058154220403040A9F00058F0
:102F300015422040304071F000501B44204030408A
:102F400039F00050114E2040304091F445E010C05F
:102F50004BE00EC041E10CC047E10AC043E208C0AB
:102F60004FE206C047E404C04FE802C04FE151E021
:102F70008C9A9498509398004093990008E9009394
:102F80009A000EE000939D0000E200939C000895DB
:102F90009A938A93FA93EA933A922A921A920A920D
:102FA0007A936A935A934A933A932A931A930A9379
:102FB0008FB79BB70E9403059BBF8FBF09911991E3
:102FC0002991399149915991699179910990199073
:102FD00029903990E991F9918991999118950093E7
:102FE0009C00089500919C00089500919B0006FFAD
:102FF00002C001E0089500E0089500919B00006484
:1030000000939B0008950BB30F600BBB0AB3007FC6
:103010000ABB1F98179A0895C99B02C001E0089542
:1030200000E00895C89B02C001E0089500E0089503
:10303000CB9B02C001E0089500E00895CA9B02C046
:1030400001E0089500E0089500E00FBD09E00EBD25
:1030500000E000937A0003E31BE21BBD0ABD00E021
:103060000DBD0CBD07B7006107BF08959A938A9301
:10307000FA93EA933A922A921A920A927A936A936C
:103080005A934A933A932A931A930A938FB79BB70A
:103090000E94A33091CF192E282E80E0062E072AF9
:1030A00069F090E0F801E80FF91F2BBF0690FA01D4
:1030B0000192AF0183958617970798F3822D912D82
:1030C0000895AC01C90103C021938F010196FC0151
:1030D00030E03BBF26912223F801B1F73083CA01CB
:1030E000089540E050E00056194020403040C1F1C2
:1030F000005619402040304089F1005C12412040C8
:10310000304051F1005C12412040304019F1005C28
:10311000124120403040E1F000581542204030403C
:10312000A9F0005815422040304071F000501B4477
:103130002040304039F00050114E2040304091F492
:1031400045E010C04BE00EC041E10CC047E10AC0B1
:1031500043E208C04FE206C047E404C04FE802C0A3
:103160004FE151E05093900049B908E10AB90EE0EF
:103170000093950000E20CB908955F9B02C001E046
:10318000089500E008955E9B02C001E0089500E00C
:1031900008955E9A08950CB908950CB10895ECED68
:1031A000F9E0008300E001830C94191101E005BFF0
:1031B00000E005BF08E101BD00E001BD009374001F
:1031C000089508E101BD08E001BDFFCF0E94AB16E4
:1031D000A8950895AF980895AF9A08951F9A0895F5
:1031E0001F98089578940895DF9AD79A07B30760D7
:1031F00007BBBB9808B3017F08BBC09A0BB30F781D
:103200000BBB0AB300670ABB02E50DB9089510E0D5
:10321000202F235020F029F02A9541F003C0102FD1
:1032200001C015E010FB16F4DE9A01C0DE9801FB28
:1032300016F4DD9A01C0DD9802FB16F4DC9A0895BD
:10324000DC980895AA93F8940FB10FB1DF9800E0CD
:103250000FB9779BFECF0FB1A02F00E00FB9779B7E
:10326000FECF0FB140E020E030E0E6E0F7E0008381
:10327000A183228323831A2F16950795DF9A7894CA
:103280001F70EDEDF6E0008311830E949D3350EF37
:103290006FE775E40E94CB3440E050E46CE176E4E3
:1032A0000E9452340E949F33EBEDF6E000831183BD
:1032B000A9910895209171002E7F20937100209193
:1032C00071002D7F20937100A80103E31BE20E948F
:1032D000C932003138F010E00051104042E050E0B7
:1032E0000E94E13200937000089501C0A8950091FA
:1032F000740007FFFBCF089500E911E0DBDF04E075
:103300000093740008958A927A926A925A924A922D
:10331000BA93AA939A938A93602E2901712EDA01A7
:10332000862E81E090E0009174000E7F009374007F
:10333000009174000F70006A00937400D6DF0EEFE6
:10334000602260927300009174000F700068009317
:103350007400CBDF00917100087F083111F08EE31B
:103360002CC0072D7A94002391F0F20101912F01D6
:1033700000937300009174000F7000680093740054
:10338000B4DF00917100087F083259F315C0082D91
:103390008A94002399F0FD010191DF0100937300ED
:1033A000009174000F700068009374009EDF00911C
:1033B0007100087F083259F38DE39EEF009174008D
:1033C0000F70006D009374000091740004FDFCCF39
:1033D0008C0189919991A991B991499059906990DD
:1033E0007990899008958A927A926A925A924A9232
:1033F000BA93AA939A938A93602E2901812EDA01B7
:10340000762E81E090E0009174000E7F00937400AE
:10341000009174000F70006A0093740066DF8820CA
:10342000D9F1062D0E7F00937300009174000F7088
:1034300000680093740059DF00917100087F083123
:1034400069F08EE39EEF009174000F70006D0093A1
:1034500074000091740004FDFCCFBACF082D8A944B
:10346000002399F0F20101912F0100937300009164
:1034700074000F7000680093740037DF00917100D2
:10348000087F083259F38CE3DDCF009174000F7090
:10349000006A0093740029DF682A6092730000912B
:1034A00074000F700068009374001FDF00917100BA
:1034B000087F003479F08EE39EEF0CC000E02F709F
:1034C000022B00680093740010DF00917300FD016F
:1034D0000193DF01772009F4B6CF7A94209174002C
:1034E00069F300E4ECCFBA93AA93A6E9B7E048E207
:1034F00050E020E030E08D010E94883507E00D9318
:103500000D9304E00D9301E00C93199605B3007C34
:1035100005BB04B3007C04BB009165000D7F0093E4
:103520006500009164000D7F0093640008B30F7084
:1035300008BB07B3006F07BB00916500077E0093CF
:103540006500009164000861009364001C98149A5F
:103550001B98139AAF98A79A00E010E00093890097
:103560000093880003EC00938B0001E000938A0035
:1035700010938C00109387001093860004EF11E0E5
:10358000109385000093840000E00D930C93A991A3
:10359000B9910895BC01E6E9F7E0008500FF02C09B
:1035A000C49A01C0C498008501FF04C00091650061
:1035B000006103C0009165000F7E009365000085E7
:1035C00002FF02C0C59A01C0C598008503FF02C072
:1035D000C69A01C0C698008504FF02C0C79A01C000
:1035E000C798008505FF04C000916500086003C00E
:1035F00000916500077F00936500008506FF02C00B
:103600001C9A01C01C9804819D9B02C00E7F01C0C2
:103610000160048304819C9B02C00D7F01C0026095
:10362000048304819B9B02C00B7F01C00460048360
:1036300004819A9B02C0077F01C008600483048153
:10364000999B02C00F7E01C0006104830481989B96
:1036500002C00F7D01C0006204830091630001FF7E
:1036600003C004810F7B02C00481006404830485CD
:103670001585C8019801043F01E0300798F404EF74
:1036800011E0021B130B000F111F44E650E00E94D3
:10369000C9328017910718F480E090E00EC0801BBB
:1036A000910B0BC0245F3140220F331F890144E688
:1036B00050E00E94C932800F911F0FEF13E0081BEA
:1036C000190B1093870000938600CB01089500E04A
:1036D0000093620000936100009165000B7F0093EE
:1036E00065001D981A9800916400046000936400BE
:1036F000159A129A08950895E7ECF7E022E000E0A9
:10370000008301830587068703870487B5962A957A
:10371000B1F7E3E2F8E0008111810D3221E01207F8
:103720001CF4043D1E4F1CF400E00083018300E004
:1037300007830895BA93AA939A938A93A6E9B7E068
:103740004AE450E020E030E08D01085D1F4F0E9408
:1037500088354FE250E020E030E08D010E581F4FD9
:103760000E9488354DE250E020E030E08D010F5599
:103770001F4F0E94883507E00C93FD01018304E090
:10378000028301E00383729622E008E813E10193CB
:1037900011932A95D1F7CD01899602E010E0FC0142
:1037A000129324E6FC012083118324EF31E024836B
:1037B000358322E32283138328EC26831783128721
:1037C00013871087118728EE33E02487358711E0AF
:1037D00016872EE130E02787308B2BE9218B328B47
:1037E00010E0358B368B338B348B4AE057ED63E238
:1037F0007CE3478B508F618F728F63EA7DE3438F49
:10380000548F658F768F23E2278F30A32EE531E02A
:1038100021A332A313A385960A9501F6FD01E95869
:10382000FF4F358342E050E020E030E08D010E583C
:103830001F4F0E94883509E0FD01E958FF4F0083C2
:1038400008E0FD01E958FF4F018301E0FD01E9585F
:10385000FF4F028302E0FD01E958FF4F038305E0BB
:10386000FD01E958FF4F048301E0FD01E958FF4FD6
:10387000068300E0FD01E958FF4F058F41E050E06D
:1038800020E030E08D0109561F4F0E94883544E04A
:1038900050E020E030E08D0108561F4F0E9488352F
:1038A00041E050E020E030E08D0104561F4F0E94BF
:1038B000883544E050E020E030E08D0103561F4F92
:1038C0000E9488350CED10E0FD01E253FF4F0083AC
:1038D0001183FD01E253FF4F128301E0FD01E2532A
:1038E000FF4F0383FD01E253FF4F148305E0FD0109
:1038F000E253FF4F058316830AE0FD01E253FF4FB9
:103900000783108704E1FD01E253FF4F018712870F
:1039100002E0FD01E253FF4F0387148701E0FD0140
:10392000E253FF4F0587168706E9FD01E253FF4F7B
:103930000787108BFD01E253FF4F018B128B05E0CF
:10394000FD01E253FF4F038B148BFD01E253FF4F48
:10395000158B01E0068B89919991A991B9910895F0
:103960009A938A93C8010E94641545EE50E026E9B7
:1039700037E08C010E947D159C0100E00E94BF167B
:10398000E2E9F7E00083118342E050E09F018B51B0
:103990009F4F8C010E947D150E9474158991999109
:1039A00008959A938A93ECEFFBE730E03BBF879151
:1039B000969122E030E000E00E94BF16EAEFFAE0C4
:1039C0000083118342E050E022E937E007EE10E087
:1039D0000E948A15E2E9F7E000811181EAEFFAE03E
:1039E000208131810217130709F481E020E031E0E2
:1039F00000E00E94BF16EAEFFAE00083118342E084
:103A000050E022E937E005EE11E00E948A15E2E974
:103A1000F7E000811181EAEFFAE02081318102179D
:103A2000130709F491E08130E9F44EEF5BE760E0C1
:103A30000CED19E00E940C2C45EE50E026E937E031
:103A400002E010E00E948A15992309F047C000E0C7
:103A500011E086DF4EE95CE760E00CED19E00E94C2
:103A60000C2C3CC09130D1F44EEF5BE760E00CEDE4
:103A700019E00E940C2C45EE50E026E937E000E00A
:103A800011E00E948A154EE45CE760E00CED19E05D
:103A90000E940C2C02E010E063DF20C045EE50E0F5
:103AA00026E937E000E011E00E948A154EE35DE769
:103AB00060E00CED19E00E940C2C4EE85DE760E040
:103AC0000CED19E00E940C2C45EE50E026E937E0A1
:103AD00002E010E00E948A152DDE04D00DDE8991EF
:103AE0009991089502E010E03BDF00E011E038CF4B
:103AF00064E070E04CE758E007E61EED21E030E0BE
:103B00000E944B1841E050E02BE738E001E10E94B1
:103B1000A51522E534E00CED19E00E94D32B40E01E
:103B20002BE738E00CED19E00E946F2D00917B0827
:103B3000003218F000E000937B08089541E050E067
:103B40002BE738E001E10C9497150E94D6180E94EB
:103B500024180E94FA0C0E94E3040E94731A0E9427
:103B6000231E0E94671B0E947C190E94E6180E9477
:103B70002D070E9423080E94FF1E0E94C9110C9469
:103B8000F218BA93AA93E1DF4EEE5CE760E00CED29
:103B900019E00E940C2C05DFABDF0E947B1B0E940A
:103BA000CE2A0E943508A4E9B7E001E0FD010183B7
:103BB00029E534E00CED19E00E94D32B00ED17E06D
:103BC000E5EAF5E0008311830E94E618EFE9F5E0ED
:103BD00000811181012BA1F408EE13E00083118311
:103BE0000AEF10E0EDEAF5E0008311830E944E1623
:103BF00004E118E0E9E8F7E047E050E00E946535AD
:103C00000E944F080E94C811E7EAF5E00081118187
:103C1000012B31F404E610E0008311830E94C807F1
:103C20000E94CA1A0E941F0D0E94FE1E0E94831449
:103C30000C91002349F20091B305002329F652DFCD
:103C400000E00C93C1CF0E940318EDE5F4E000E022
:103C500007A703A705A70895BA93AA93ADE5B4E013
:103C60000E940C18002331F008E2FD0102A300E0DD
:103C700006A329C0FD0106A1002381F402A10023AF
:103C800069F401E006A305E010E0E1EAF5E0008355
:103C9000118300E213E00D931C931197FD0106A11F
:103CA000023089F40D911C911197012B61F401E010
:103CB00006A305E010E0E1EAF5E00083118308ECDB
:103CC0000D931C9311970E941218002331F008E203
:103CD000FD0103A300E007A329C0FD0107A1002304
:103CE00081F403A1002369F401E007A305E010E0DB
:103CF000E1EAF5E00083118300E213E00D931C93E9
:103D00001197FD0107A1023089F40D911C911197C3
:103D1000012B61F401E007A305E010E0E1EAF5E022
:103D20000083118308EC0D931C9311970E941818BF
:103D3000002331F008E2FD0104A300E000A729C040
:103D4000FD0100A5002381F404A1002369F401E032
:103D500000A705E010E0E1EAF5E00083118300E24E
:103D600013E00D931C931197FD0100A5023089F417
:103D70000D911C911197012B61F401E000A705E062
:103D800010E0E1EAF5E00083118308EC0D931C9349
:103D900011970E941E18002331F008E2FD0105A3CF
:103DA00000E001A728C0FD0101A5002381F405A1C1
:103DB000002369F401E001A705E010E0E1EAF5E085
:103DC0000083118300E213E00D931C931197FD0112
:103DD00001A5023081F40D911C911197012B59F42A
:103DE00001E001A705E010E0E1EAF5E000831183BE
:103DF00008EC0D931C93A991B99108950895BA9375
:103E0000AA931C0160E044ED59E02CEA39E004EB90
:103E100019E0A0ECB9E08FEB97E0FC0162937CED38
:103E20001124FC01768317827CE37787108A77EE72
:103E3000072E73E0048675871286138676E9718BE8
:103E4000128A138A148A158A168A74E6708311827C
:103E50007283138274EF072E71E0048275831686D5
:103E6000F90111921192119211929F01F801119290
:103E70001192119211928F01FA0111921192AF01D8
:103E80001D921D921D921D9263958596623028F2B7
:103E9000C101A991B9910895FA92EA92DA92CA926F
:103EA000BA92AA929A928A927A926A925A924A9272
:103EB000BA93AA939A938A932D9700912A08013076
:103EC00009F41BC20AE9C02E09E0D02E8601065C67
:103ED0001F4F09831A8386010E5C1F4F0D831E83BB
:103EE0008601025D1F4F0F83188786010A5C1F4FF2
:103EF00009871A8786010E5D1F4F0B871C87860175
:103F00000A5D1F4F0B831C83760102E1E00E00E087
:103F1000F01EAFEBB7E002E00883FD01068501303B
:103F200019F0033009F09BC186819781029112E05C
:103F3000019FF001EA56F84F06851785801B910B0B
:103F4000FD0103A1013019F49195819590408C01F8
:103F5000292F220F220B322F0E9492332801390180
:103F60000D911C911197212F220F220B322F0E94AD
:103F70009233A201B3010E94523440E050E068EC59
:103F800072E40E94CB34F6010483158326833783C1
:103F9000E981FA81208131818C01021B130B212FD1
:103FA000220F220B322F0E94923328013901F60191
:103FB0000487158726873787E981FA818083918373
:103FC00040E050E06CE772E4EB81FC8100811181FC
:103FD000228133810E94523448015901FD0104813C
:103FE0001581212F220F220B322F0E949233A20122
:103FF000B3010E945234A401B5010E94F13340E0A4
:1040000050E060E872E40E94CB34EB81FC810083D5
:10401000118322833383F601048715872687378728
:1040200041E050E06AEF76E40E945D3528F040E020
:1040300076EC0E94453528F4F6015487558766874B
:104040007787F60184849584A684B78484019501DA
:104050000E949F33EAE9008B118B20E030E020833F
:10406000218322832383FD01078510890E949D33CC
:10407000A801B90100E010E020E030E00E94CB345C
:1040800028013901FD0102811381212F220F220B0A
:10409000322F0E949233A201B3010E94523440E0B9
:1040A00050E068EC72E40E94CB3428013901F6013B
:1040B000008711872287338740E050E060E271E497
:1040C00004811581268137810E9452340E949F33DA
:1040D000C801ED81FE810083118340E050E060E281
:1040E00071E4820193010E9452340E949F3328019F
:1040F000EF81F8850083118340E050E060E271E4D5
:10410000840195010E9452340E949F33E985FA850B
:1041100000831183840D951D080F191F212F220F75
:10412000220B322F0E9492334801590140E050E0A7
:1041300060E070E00E9445352801390110F400E884
:104140007026FD01078D10A120E030E00E949D3314
:10415000A801B901820193010E94453528F4882401
:104160009924AA24BB2437C0FD0101A112A120E09B
:1041700030E00E949D33A801B901820193010E94A1
:104180004535FD0128F40788108C218C328C04C041
:10419000038C148C258C368CF70140805180628012
:1041A000738041E050E060E070E03B2D0E945D359F
:1041B00038F4A201B301800191010E94F13306C0DD
:1041C000A001B101820193010E943534F7010083FF
:1041D000118322833383840195010E949F33EB85F1
:1041E000FC8500831183F7014080518062807380D9
:1041F000820193010E949F33C801212F220F220BBD
:10420000322F0E949233A801B901820193010E94CA
:104210003534F7010083118322833383FD01008548
:104220001185080F191F008711870085083E23E0BC
:1042300013401CF007EE0087218702851385208537
:1042400031852017310714F40087118704851585FF
:10425000208531850217130714F400871187FB2F7F
:104260000085118523893489021B130B98011AF4E8
:10427000319521953040223040E030407CF0202FB5
:10428000212B61F0013014071CF021E0258B01C0C7
:10429000458B112322F401E0068B02C0458B468B2F
:1042A000959604E0E00EF41E0B811C810C5F1F4FFD
:1042B0000B831C830B851C850E5F1F4F0B871C8790
:1042C00009851A850E5F1F4F09871A870F81188588
:1042D0000E5F1F4F0F8318870D811E810E5F1F4FCA
:1042E0000D831E8309811A810E5F1F4F09831A8374
:1042F00008810A95088309F010CE2D96899199912D
:10430000A991B99149905990699079908990999023
:10431000A990B990C990D990E990F9900895EEE2EA
:10432000F2E000811181228133810230104020406F
:10433000304078F4048115814081518125E2259F28
:10434000302D249F310DE02DF32FEA56F84F07A7AB
:1043500010AB0895EEE2F2E00081118122813381F9
:10436000023040E014072040304060F44481202FA8
:1043700005E2019F102D029F110DE02DF12FEA564D
:10438000F84F47AB0895EEE2F2E0008111812281FF
:104390003381023010402040304078F40481158190
:1043A0004081518125E2259F302D249F310DE02D44
:1043B000F32FEA56F84F03AB14AB0895EEE2F2E0A8
:1043C0000081118122813381023010402040304031
:1043D00078F4048115814081518125E2259F302D9B
:1043E000249F310DE02DF32FEA56F84F05AB16ABA5
:1043F0000895EEE2F2E000811181228133810230E2
:1044000010402040304078F4048115814081518172
:1044100025E2259F302D249F310DE02DF32FEA5604
:10442000F84F01AB12AB0895EEE2F2E0008111818A
:1044300022813381023010402040304078F40481E2
:1044400015814081518125E2259F302D249F310D1A
:10445000E02DF32FEA56F84F05A716A70895EEE2D0
:10446000F2E000811181228133810230104020402E
:10447000304078F4048115814081518125E2259FE7
:10448000302D249F310DE02DF32FEA56F84F03A76E
:1044900014A70895EEE2F2E00081118122813381B8
:1044A000023010402040304078F404811581408172
:1044B000518125E2259F302D249F310DE02DF32FD2
:1044C000EA56F84F01A712A70895EEE2F2E0008144
:1044D000118122813381023040E0140720403040B6
:1044E00060F44481202F05E2019F102D029F110DE1
:1044F000E02DF12FEA56F84F40A70895BA93AA93FA
:10450000AEE2B2E00D911D912D913C9113970230D6
:1045100040E0104020403040E0F4FD01048115816E
:10452000268137810E949D3350E06AE774E40E943F
:10453000CB344D915D91642F45E2459F502D469FB0
:10454000510DE02DF52FEA52F84F0083118322839D
:104550003383A991B9910895BA93AA93AEE2B2E0D8
:104560000D911D912D913C911397023040E0104028
:1045700020403040E0F4FD0104811581268137811F
:104580000E949D3350E06AE774E40E94CB344D9161
:104590005D91642F45E2459F502D469F510DE02DC2
:1045A000F52FE652F84F0083118322833383A991BC
:1045B000B9910895EEE2F2E0008111812281338108
:1045C000023010402040304078F404811581408151
:1045D000518125E2259F302D249F310DE02DF32FB1
:1045E000E252F84F008311830895EEE2F2E0008179
:1045F000118122813381023010402040304078F414
:10460000048115814081518125E2259F302D249F11
:10461000310DE02DF32FE052F84F00831183089500
:10462000EEE2F2E00081118122813381023040E02C
:1046300014072040304060F44481202F05E2019FA0
:10464000102D029F110DE02DF12FEE51F84F4083F8
:1046500008950E94721D48E25FE760E00CED19E0EA
:104660000C940C2C41E02CE738E00CED19E00E9492
:10467000C52F2EE834E00CED19E00E94D32B41E069
:1046800020EC35E00CED19E00E94C52F20E934E064
:104690000CED19E00C94D32B9A928A927A926A923A
:1046A0005A924A92BA93AA93D80100E010E020E00F
:1046B00030E0FD016681762F737041E050E0458067
:1046C000552416C0FA01E857FA4F0080000D151D59
:1046D000251D351D772339F44130550521F40F5F31
:1046E0001F4F2F4F3F4F4F5F5F4F4D30550548F4E1
:1046F0004416550639F7FD010480000D151D251DD2
:10470000351D48E050E0693038F170E0862E99247C
:10471000E8EF8E0EEFEF9E1EEDE64E2EE1E05E2EF0
:104720007724692C589C502C499C500C611C751E98
:10473000489C510C651E751E000D151D261D371D4C
:10474000E42FE37021F40F5F1F4F2F4F3F4F4F5F58
:104750005F4F46175707A0F32801390147E050E0A3
:1047600060E070E00E940D3347E02224439F702DEB
:10477000429F602D710D419F502D610D721D409F14
:10478000510D621D721D820193010019150B260B3C
:10479000370B0F5F1F4F2F4F3F4F08301040204007
:1047A000304008F00750FD010383A991B991499069
:1047B0005990699079908990999008952797B801B8
:1047C0008E01FB0147E050E00E94653523E934E0AB
:1047D0000CED19E00E94D32B60E352E040E09E0113
:1047E0002C5F3F4F0CED19E00E94CA2D2EE834E0FB
:1047F0000CED19E00E94D32B44ED5DE760E02D81C4
:104800000AE0029F400D511D0CED19E00E940C2C96
:1048100027E934E00CED19E00E94D32B60E352E06D
:1048200040E09E012A5F3F4F0CED19E00E94CA2D27
:104830002BE934E00CED19E00E94D32B8E012CDF24
:104840004CE45EE760E0202F0AE0029F400D511D1E
:104850000CED19E00E940C2C2EE934E00CED19E06F
:104860000E94D32B60E352E040E09E012E5F3F4F59
:104870000CED19E00E94CA2D25EA34E00CED19E098
:104880000E94D32B60E352E040E09E012F5F3F4F38
:104890000CED19E00E94CA2D25EA34E00CED19E078
:1048A0000E94D32B60E352E040E09E010CED19E042
:1048B0000E94CA2D27960895BA93AA938A932297A5
:1048C00004E118E07BDF48EE5CE860E00CED19E005
:1048D0000E940C2C40E02BE738E00CED19E00E9420
:1048E0006F2D48EF5BE860E00CED19E00E940C2CA6
:1048F00000911B08002321F448E45CE860E003C059
:1049000048E95CE860E00CED19E00E940C2C48ECF2
:104910005FE760E00CED19E00E940C2C48E150E8E4
:1049200060E00CED19E00E940C2C48E650E860E0D5
:104930000CED19E00E940C2C80E0E6E9F7E0248100
:104940003581482F01E010E00E94BD322023312341
:10495000232B19F027EA34E002C02AEA34E00CEDF8
:1049600019E00E94D32B8395873038F348EB50E849
:1049700060E00CED19E00E940C2C80E0E6E9F7E025
:1049800020853185482F01E010E00E94BD322023B0
:104990003123232B19F027EA34E002C02AEA34E05D
:1049A0000CED19E00E94D32B8395873038F348E053
:1049B00051E860E00CED19E00E940C2CA4EAB7E08D
:1049C00084E00D911D91088319839E010CED19E07F
:1049D0000E94D82E2EE834E00CED19E00E94D32B73
:1049E0008A9579F748E551E860E00CED19E00E94FE
:1049F0000C2C22EA37E00CED19E00E94702F2EE813
:104A000034E00CED19E00E94D32B22968991A991F4
:104A1000B9910895BA93AA938A9348E952E860E05D
:104A20000CED19E00E940C2C00919509013039F42D
:104A300048EE52E860E00CED19E00E940C2C009169
:104A40009509002339F448E353E860E00CED19E0E0
:104A50000E940C2C48ED5DE860E00CED19E00E942E
:104A60000C2C80E0A0E8B8E0082F077039F448E289
:104A70005EE860E00CED19E00E940C2C71E065E04E
:104A800055E040E09D010CED19E00E94312E2EE82A
:104A900034E00CED19E00E94D32B839512968431FB
:104AA00018F348E15FE860E00CED19E00E940C2C7F
:104AB00080E0A8EAB8E0082F077039F448E25EE821
:104AC00060E00CED19E00E940C2C71E065E055E00F
:104AD00040E09D010CED19E00E94312E2EE834E0FB
:104AE0000CED19E00E94D32B83951296843118F3B4
:104AF00048E75EE860E00CED19E00E940C2C80E0D5
:104B0000A0EDB8E0082F077039F448E25EE860E0F5
:104B10000CED19E00E940C2C70E063E058E041E0DD
:104B20009D010CED19E00E94312E2EE834E00CEDD1
:104B300019E00E94D32B83951496843118F348EC26
:104B40005EE860E00CED19E00E940C2C80E0A0E231
:104B5000B9E0082F077039F448E25EE860E00CED38
:104B600019E00E940C2C70E063E058E041E09D01E8
:104B70000CED19E00E94312E2EE834E00CED19E026
:104B80000E94D32B83951496883018F38991A991AC
:104B9000B991089522972DEA34E00CED19E00E94B6
:104BA000D32B00E00883288109E0029FF001E95C33
:104BB000F74F00811181012B09F4B8C028EB34E0D4
:104BC0000CED19E00E94D32B40E09E010CED19E0A2
:104BD0000E946F2D2FEB34E00CED19E00E94D32BD7
:104BE00022EC34E00CED19E00E94D32B288109E07F
:104BF000029FF001E95CF74F0181098360E352E015
:104C000041E09E012F5F3F4F0CED19E00E94CA2D3D
:104C1000288109E0029FF001E95CF74F00810983D8
:104C200060E352E041E09E012F5F3F4F0CED19E041
:104C30000E94CA2D2EE834E00CED19E00E94D32B1F
:104C400060E352E040E02DE338E0288009E0029D77
:104C5000200D311D0CED19E00E94CA2D28EC34E026
:104C60000CED19E00E94D32B47E95EE760E0288154
:104C700009E0029FF001E25CF74F208105E0029F0E
:104C8000400D511D0CED19E00E940C2C27E934E079
:104C90000CED19E00E94D32B60E352E040E02FE3DB
:104CA00038E0288009E0029D200D311D0CED19E04F
:104CB0000E94CA2D2EE834E00CED19E00E94D32B9F
:104CC00060E352E040E02BE338E0288009E0029DF9
:104CD000200D311D0CED19E00E94CA2D2CEC34E0A2
:104CE0000CED19E00E94D32B60E352E040E02AE390
:104CF00038E0288009E0029D200D311D0CED19E0FF
:104D00000E94CA2D2CEC34E00CED19E00E94D32B4C
:104D100060E352E040E029E338E0288009E0029DAA
:104D2000200D311D0CED19E00E94CA2D088103955C
:104D30000883053008F437CF229608955A924A9294
:104D4000BA93AA939A938A932297402E48E853E8FD
:104D500060E00CED19E00E940C2C48E65AE860E097
:104D60000CED19E00E940C2C552405E2049D86E907
:104D700097E0800D911DDC01989624EA37E00C91B4
:104D800012E0019F200D311D0CED19E00E94D82E7C
:104D900048ED53E860E00CED19E00E940C2C9C01FA
:104DA000215D3F4F0CED19E00E94D82E48E254E8F7
:104DB00060E00CED19E00E940C2CFD01078500233A
:104DC00039F00A9541F00A9561F00A9539F00FC063
:104DD0002EEC34E008C027ED34E005C02FED34E0C0
:104DE00002C027EE34E00CED19E00E94D32B48E717
:104DF00054E860E00CED19E00E940C2C41E09D01AC
:104E00000CED19E00E946F2D21EF34E00CED19E05C
:104E10000E94D32B48EC54E860E00CED19E00E94AE
:104E20000C2C9C01275D3F4F0CED19E00E94282DB2
:104E300048E655E860E00CED19E00E940C2C9C015E
:104E4000255D3F4F0CED19E00E94282D48E155E803
:104E500060E00CED19E00E940C2C9C01235D3F4F9B
:104E60000CED19E00E94282D48EB55E860E00CEDB0
:104E700019E00E940C2C40E09C01285C3F4F0CED97
:104E800019E00E94CB2C48EE57E860E00CED19E0E9
:104E90000E940C2C9C012D5C3F4F0CED19E00E94F0
:104EA000702F48E358E860E00CED19E00E940C2CEC
:104EB0009C012B5C3F4F0CED19E00E94702F48E8DD
:104EC00058E860E00CED19E00E940C2C9C012F5C6E
:104ED0003F4F0CED19E00E94702F48E259E860E066
:104EE0000CED19E00E940C2C40E09C01265C3F4F29
:104EF0000CED19E00E94CB2C48E759E860E00CED7E
:104F000019E00E940C2C9C01245C3F4F0CED19E031
:104F10000E94702F48EC59E860E00CED19E00E9407
:104F20000C2C40E09C01225C3F4F0CED19E00E94EC
:104F30006F2D48E15AE860E00CED19E00E940C2C5E
:104F400040E0CF969C010CED19E00E946F2DFD0111
:104F5000008D118D228D338D40E050E06AE774E4BE
:104F60000E9452340E949F330883198348E05BE813
:104F700060E00CED19E00E940C2C40E09E010CED6D
:104F800019E00E94CB2CFD01048D158D268D378DE7
:104F900040E050E06AE774E40E9452340E949F337C
:104FA0000883198348E55BE860E00CED19E00E9496
:104FB0000C2C40E09E010CED19E00E94CB2CFD0171
:104FC00000A111A10883198348E35DE860E00CEDBE
:104FD00019E00E940C2C40E09E010CED19E00E94AB
:104FE000CB2CFD0102A113A10883198348E85DE8D9
:104FF00060E00CED19E00E940C2C40E09E010CEDED
:1050000019E00E94CB2C48E65FE860E00CED19E067
:105010000E940C2CFD0104A1002321F448EB5FE861
:1050200060E003C048E050E960E00CED19E00E9448
:105030000C2C20E934E00CED19E00E94D32B23EF77
:1050400034E00CED19E00E94D32B440C551C2CECE1
:1050500039E0240D351D0CED19E00E94282D2EEFAE
:1050600034E00CED19E00E94D32B28EC39E0240D3C
:10507000351D0CED19E00E94282D29E035E00CEDDE
:1050800019E00E94D32B20ED39E0240D351D0CEDE5
:1050900019E00E94282D24E135E00CED19E00E9472
:1050A000D32B2CEB39E0240D351D0CED19E00E94BB
:1050B000282D229689919991A991B9914990599059
:1050C0000895FACBEEE2F2E0008111812281338172
:1050D000023010402040304008F430CE20E235E06D
:1050E0000CED19E00C94D32B0895AA929A928A920F
:1050F0007A926A925A924A92BA93AA939A938A930C
:10510000AEE2B2E00D911D912D913C911397012BD0
:10511000022B032B49F00D9112961397013010408A
:105120002040304009F06AC08FED96E0FD01048117
:1051300015814D911296139722E0429FFC01E00DDC
:10514000F11D0083118323E335E00CED19E00E948B
:10515000D32B0D911296139712E0019F800D911D94
:105160009C010CED19E00E94D82E2CE435E00CEDEA
:1051700019E00E94D32B21E635E00CED19E00E94E6
:10518000D32B00E00E940719442480E090E004E65D
:1051900010E00E9491320E942219EBEDF6E040816E
:1051A00051810D9112961397202F06E0029FE3EE96
:1051B000F6E0E00DF11DE80FF91F40835183042D47
:1051C00003950E9407190D9112961397202F06E060
:1051D000029F23EE36E0200D311D280F391F0CED04
:1051E00019E00E94D82E27E635E00CED19E00E9468
:1051F000D32B4394029603E0401648F20D911D9183
:105200002D913C911397013040E01040204034072D
:1052100009F04FC0EFEDF6E002811381208131816A
:10522000021B130B212F220F220B322F0E949233CD
:10523000C801D90109EE602E06E0702E03EE402E63
:1052400006E0502E0CEA802E07E0902E03E0A02E00
:10525000F30100811181F20120813181021B130BC6
:10526000212F220F220B322F0E94923340E050E078
:1052700060E87FE30E94453520F400E010E020E87C
:105280003FE3A801B9018C019D010E94CB34F401D8
:1052900001931193219331934F0102E0400E00E0FE
:1052A000501E02E0600E00E0701EAA9409F495C042
:1052B000CFCF11961D912D911397023010402040B1
:1052C000304009F08AC0FD0104811581EFEDF6E060
:1052D0000083118323E335E00CED19E00E94D32B0A
:1052E0002FED36E00CED19E00E94D82E2CE435E0CD
:1052F0000CED19E00E94D32B21E635E00CED19E00E
:105300000E94D32B00E00E9407194424A3EEB6E0CC
:105310000CEA602E07E0702E04E610E00E94913245
:105320000E942219EBEDF6E000811181212F220F5E
:10533000220B322F0E949233F301419151916191DE
:1053400071913F010E9452340E949F330D931C9330
:105350001197042D03950E9407199D010CED19E08A
:105360000E94D82E27E635E00CED19E00E94D32BE1
:105370004394129603E0401678F208EB17E0A3EE90
:10538000B6E023E0EFEDF6E0408151816D917D9133
:10539000461B570BF801419351938F012A9591F7C2
:1053A0002AE635E00CED19E00E94D32B21E635E02A
:1053B0000CED19E00E94D32B88EB97E0A3E09C0151
:1053C0000CED19E00E94D82E27E635E00CED19E02F
:1053D0000E94D32B0296AA9591F789919991A99150
:1053E000B991499059906990799089909990A99034
:1053F0000895EEE2F2E000811181228133810330D1
:1054000000E010402040304038F048EB5AE860E0BF
:105410000CED19E00C940C2C20E83FE34081518105
:10542000440F551F440F551FFA01EA56F84F068BDB
:10543000078B208F318FEEE2F2E040815181440FE3
:10544000551FFA01EA56F84F02A303A30895EEE2AE
:10545000F2E031E02081148100850C94F815EEE231
:10546000F2E02085148100810C94B31501E00093D3
:10547000120803E00093B305089500E0F8CF4A92C4
:105480008A93EEE2F2E08081118122813381082F3C
:1054900044244AE050E060E070E00E940D33402F69
:1054A0000AE02224039F302D029F202D310D019F01
:1054B000102D210D321D049F002D110D221D321DB6
:1054C0008019442D50E041955040FA01E45FF74FB8
:1054D00080834AE050E060E070E00E940D33802F4E
:1054E000439445E04416A8F203E00093B305899184
:1054F000499008954A928A93EEE2F2E08081118108
:1055000022813381082F44244AE050E060E070E0BB
:105510000E940D33402F0AE02224039F302D029F6A
:10552000202D310D019F102D210D321D049F002DC6
:10553000110D221D321D8019442D50E0419550401F
:10554000FA01EF5EF74F80834AE050E060E070E0E0
:105550000E940D33802F439445E04416A8F2C4CF37
:1055600000E000932D020895EEE2F2E00081118147
:1055700022813381012B022B032B51F0008100315A
:1055800010402040304020F400937B080C949E1D76
:1055900025E735E00CED19E00C94D32B229700E0C1
:1055A0000093460720E030E001E00E94BF16EAEFDA
:1055B000FAE00083118362E070E0AE010EE71FEDB8
:1055C00021E030E00E944B1808811981EAEFFAE0EF
:1055D000208131810217130741F048EF56E860E05F
:1055E0000CED19E00E940C2C33C020E030E002E00A
:1055F0000E94BF16EAEFFAE00083118362E070E0D8
:10560000AE010CE71FED21E030E00E944B1808814D
:105610001981EAEFFAE0208131810217130721F0A6
:1056200048E457E860E0DCCF48E957E860E00CED7B
:1056300019E00E940C2C67E670E04CED59E000E0A8
:105640001FED21E030E00E944B1801E00093460777
:105650002296089548E550E960E00CED19E00E94BB
:105660000C2C40E850E960E00CED19E00E940C2C95
:1056700000911B08002321F448E45CE860E003C0CB
:1056800048E95CE860E00CED19E00E940C2C48EA67
:1056900050E960E00CED19E00E940C2C00911C0810
:1056A000002321F440E751E960E003C048E951E9F3
:1056B00060E00CED19E00E940C2C40ED50E960E038
:1056C0000CED19E00E940C2C40E02DE138E00CEDCF
:1056D00019E00E946F2D48EF50E960E00CED19E0F1
:1056E0000E940C2C40E02EE138E00CED19E00E9405
:1056F0006F2D40E251E960E00CED19E00E940C2CA6
:1057000023E238E00CED19E00E94D82E48E451E97C
:1057100060E00CED19E00E940C2C24EA37E00091C7
:10572000250812E0019F200D311D0CED19E00E94AB
:10573000D82E40EC51E960E00CED19E00E940C2CF1
:1057400040E02FE138E00CED19E00E946F2D27E8D2
:1057500035E00CED19E00E94D32B40E020E238E068
:105760000CED19E00E946F2D48EE51E960E00CED60
:1057700019E00E940C2C40E021E238E00CED19E029
:105780000E946F2D27E835E00CED19E00E94D32B25
:1057900040E022E238E00CED19E00C946F2D0E94FD
:1057A0009A1B0C94721D4A92BA93AA939A938A9365
:1057B000C801D90144240E9419110C91002391F4CD
:1057C00000E0FC0100830CED19E0E8EFFAE0008353
:1057D00011830E9419113BC30AE0FC010193CF0120
:1057E000119644240C910C3581F411964424439471
:1057F0001C91112329F301E04016A1F71E5619F060
:10580000145051F3EECF0DE0E8CFFD013196DF01EA
:10581000FC010193CF01ECCF5A924A92BA93AA931A
:105820009A938A932801DA01962F80E00E94191139
:10583000FD019BBF0691002391F400E0F20100837B
:105840000CED19E0E8EFFAE0008311830E941911D2
:1058500001C20AE0F20101932F01119680E0FD01DF
:1058600006910C3581F4119681E0FD019BBF1691E4
:10587000112319F3813099F71E5619F0145049F38A
:10588000EDCF0DE0E7CF0791DF01F20101932F018A
:10589000ECCFBA93AA939A93382E080150E040E0D7
:1058A00060E000E010E020E030E0F00170817D3247
:1058B00089F461E031960EC08134F8F08734E8F461
:1058C00041E090E0C797A92FAA0FAA0B080F191F54
:1058D0002A1F3A1F7081772309F44FC05523A9F579
:1058E000442339F4783711F0783519F451E03196C2
:1058F0002EC0703310F07A3328F000E010E020E082
:1059000030E044C08AE02224839FB02D829FA02DE6
:10591000B10D819F902DA10DB21D809F910DA21DF3
:10592000B21D002D192F9D01872F90E0C097A92F40
:10593000AA0FAA0B080F191F2A1F3A1F702F712BCD
:10594000722B732B09F041E0B5CF5130F1F744E0F1
:105950000E94F5328191803330F08A3320F441E0A7
:1059600090E0C097B0CF813608F4A6CF873628F6EE
:1059700041E090E087559040A6CF613039F4109512
:105980002095309501951F4F2F4F3F4F832D9991B3
:10599000A991B99108954A92BA93AA939A938A9336
:1059A0002597D801C901442E0E941911442079F588
:1059B000FC010081118120E030E084E095E0402E80
:1059C0004AE050E060E070E00E940D33502F4AE062
:1059D000549F4018FE0150E0E80FF51F40828A9561
:1059E0009A9569F710E0FE0105E02191222311F05C
:1059F00011E002C0112319F0205D2D935C930A95EC
:105A0000A1F7112321F500E30D935C9320C001E081
:105A10004016E9F40196FC0112E0008102950F7036
:105A20000A3010F4005D01C0095C0C9300E011968F
:105A30000C9300810F700A3010F4005D01C0095C06
:105A40000C9300E011960C9331971A9531F7FEC133
:105A50004A92BA93AA939A938A932597D801C90137
:105A60000E941911FC0100811181212F220F220BAC
:105A7000322F5AF410952095309501951F4F2F4FD6
:105A80003F4F4DE24D9340E04C9384E095E0402E33
:105A90004AE050E060E070E00E943033502F4AE06E
:105AA000549F4018FE0150E0E80FF51F40828A9590
:105AB0009A9569F710E0FE0105E02191222311F08B
:105AC00011E002C0112319F0205D2D935C930A951B
:105AD000A1F7112319F400E30D935C93B7C14A9227
