:100000000C94A04D18951895189518951895189555
:100010001895189518951895189518951895189578
:100020001895189518951895189518951895189568
:100030000C94EE151895189518951895189518950F
:1000400018951895189518950C94240318951895DB
:100050001895189518951895189518951895189538
:100060001895189518951895189518951895189528
:1000700018951895189518950C94EE1618951895CE
:100080001895189518951895189518955109030AFB
:10009000030A030A6B099909AF09A509B909030AFB
:1000A000030A030A030A030A7A09030A030A030A72
:1000B000C309030A5109030A030A030A030A030ACC
:1000C000030A5C09030A030A030A030A030A030A70
:1000D000030A030A030A030A030A030A030A030AB8
:1000E000030A030A030A030A030A030A030A030AA8
:1000F000D809CE09E209EC09FA093B1F4A1F551F2E
:10010000601F6B1F761F861F8A1F8E1F921FC61FC0
:10011000C61FC61FC61FC61FC61FC61FC61FC61FB7
:10012000C61FC61FC61FC61FC61FC61FC61FC61FA7
:10013000C61FC61FC61FC61FC61FC61FC61FC61F97
:10014000C61FC61FC61FC61FC61FC61FC61FC61F87
:10015000C61FC61FC61FC61FC61FC61FC61FC61F77
:10016000C61FC61FC61FC61FC61FC61FC61FC61F67
:10017000C61F991FA41FA61FAA1FAE1FB21FC61F0E
:10018000C61FC61FC61FC61FC61FC61FC61FC61F47
:10019000C61FC61FC61FC61FC61FC61FC61FC61F37
:1001A000C61FC61FC61FC61FC61FC61FC61FC61F27
:1001B000C61FC61FC61FC61FC61FC61FC61FC61F17
:1001C000C61FBE1FC21F761F861F8A1F8E1F922A40
:1001D000A32AB42ACF2AE72A042B1A2B302B462B2A
:1001E0005C2B722B9E2BC22BD82B0A2D1B2D2C2D5A
:1001F000492D612D7F2D952DAB2DC12DD72DED2DA9
:10020000182E3B2E502E8A93802F012F8823A1F188
:100210000E945C030AEA15E5E4EFF3E00083118332
:1002200002811381007E082B0F73107C0062156021
:100230000283138300E004838F010E94390AE4EFF4
:10024000F3E0058316838F010E945C0AE4EFF3E07C
:100250000783108701E00093200500E00093230549
:1002600001E00093240500E000932105009322059E
:10027000009325050093260589910895AA939A93E2
:100280008A93802FA12F022F1123E9F10E945C0392
:100290000AEA15E5E4EFF3E000831183228133815C
:1002A000207E2A2B2F73307C90E047968C0146E00D
:1002B0000E94DA4D007C1F73202B312B2062228399
:1002C000338300E004838F010E94390AE4EFF3E0F6
:1002D000058316838F010E945C0AE4EFF3E0078335
:1002E000108701E00093200500E00093230501E062
:1002F0000093240500E0009321050093220500935C
:1003000025050093260589919991A9910895BA939D
:10031000AA939A938A93902F812FD901012F0E943B
:100320005C0345E250E09D010DEF13E00E946C502C
:100330000AEA15E5E4EFF3E00083118302813381DB
:10034000007E282F2F71022B00620283882311F474
:100350000F7D028322812F73307C092F10E0025E13
:100360001F4F46E00E94DA4D007C1F73202B312B7B
:100370002283338305E204838F010E94390AE4EF6C
:10038000F3E0058316838F010E945C0AE4EFF3E03B
:100390000783108701E00093200500E00093230508
:1003A00001E00093240500E000932105009322055D
:1003B000009325050093260589919991A991B991FA
:1003C00008958A93802F012F0E945C0347E050E03C
:1003D0002FE23FE00DEF13E00E946C500AEA15E5B2
:1003E000E4EFF3E00083118302811381007E282F64
:1003F0002F71022B00620283882311F40F7D028388
:1004000002810F73107C006C18601FC08A93802FCC
:100410000E945C030AEA15E5E4EFF3E00083118330
:1004200002811381007E282F2F71022B006202832C
:10043000882311F40F7D028302810F73107C1B60EF
:100440000283138300E004C019600283138307E072
:1004500004838F010E94390AE4EFF3E005831683D9
:100460008F010E945C0AE4EFF3E00783108701E04C
:100470000093200500E00093230501E0009324058C
:1004800000E00093210500932205009325050093C9
:100490002605899108959A938A932297C801890124
:1004A0000E94BA470883198342E050E09E010DEF95
:1004B00013E00E946C509093FF03492F50E0088195
:1004C00019812FE93EE0200F311F00E014E00E9467
:1004D0006C50082F0E945C030AEA15E5E4EFF3E094
:1004E0000083118302811381007E282F2F71022B3C
:1004F00000620283882311F40F7D028302810F734F
:10050000107C006C1C60028313839D5F94838F01B9
:100510000E94390AE4EFF3E0058316838F010E94FD
:100520005C0AE4EFF3E00783108701E00093200505
:1005300000E00093230501E00093240500E0009310
:100540002105009322050093250500932605229698
:100550008991999108959A938A932297C801890164
:100560000E94BA47088319838823F1F142E050E0E2
:100570009E010DEF13E00E946C509093FF03082F33
:100580000E945C030AEA15E5E4EFF3E000831183BF
:1005900002811381007E082B0F73107C006A1C609F
:1005A0000283138303E004838F010E94390AE4EF7E
:1005B000F3E0058316838F010E945C0AE4EFF3E009
:1005C0000783108701E00093200500E000932305D6
:1005D00001E00093240500E000932105009322052B
:1005E00000932505009326052296899199910895F7
:1005F00000915D03002369F0025069F00A9569F0EB
:100600000A9569F00A9569F00A9569F00A9569F00A
:1006100008950C94B31E0C9485220C9412300C9403
:1006200010360C9435430C94D33E0C947A20202F32
:10063000212B49F025E000002A95E9F701501040F0
:10064000202F212BB9F708959A938A93FA93EA936E
:100650003A922A921A920A927A936A935A934A93F6
:100660003A932A931A930A938FB79BB7A3D09BBF51
:100670008FBF0991199129913991499159916991A6
:1006800079910990199029903990E991F99189917E
:10069000999118950CB908950CB108955E9B02C00C
:1006A00001E0089500E008955E9A0895DD9A02E061
:1006B00010E0BDCFDD9808950093270508959A9323
:1006C0008A9380E090E00056194020403040C1F10C
:1006D000005619402040304089F1005C1241204012
:1006E000304051F1005C12412040304019F1005C73
:1006F000124120403040E1F0005815422040304087
:10070000A9F0005815422040304071F000501B44C1
:100710002040304039F00050114E2040304091F4DC
:1007200085E010C08BE00EC081E10CC087E10AC0FB
:1007300083E208C08FE206C087E404C08FE802C0ED
:100740008FE191E0D59ADD98B1DF9093900089B95F
:1007500008E90AB90EE00093950000E20CB989910E
:100760009991089500E016E920E030E0A8DF45E91E
:1007700050E020E030E00FE513E00E947A5045E9B8
:1007800050E020E030E004EF13E00E947A504AE2AB
:1007900050E020E030E000E215E00E947A50E8E20C
:1007A000F5E000E212E311930A95E1F700E000930F
:1007B000270508959A938A936FDF00935E03009153
:1007C0002205002319F00A9549F00CC000915E0340
:1007D0000A3A41F000E00093220523C000915E0335
:1007E0000535C1F720915E03E091220510E0F0E0AD
:1007F000E15AFC4F2083E0E2F5E002810395028399
:1008000004E1E1EEFFE0008311838091630390E057
:10081000089600912205801790401CF401E0009397
:1008200021058991999108959A938A9337DF00233E
:10083000F1F0009126050023B9F436DFE09123059D
:10084000F0E0EC50FC4F008125DFE0E2F5E00381B1
:10085000039503838091F80390E0089680179040F9
:1008600034F401E0068303C000E000932005899181
:100870009991089500912405002359F00A9569F093
:100880000A9509F450C00A9509F4B2C00A9509F016
:10089000D2C000E00093EA05089508DFC5DF0091AB
:1008A00020050023F1F506DF0091F60305FF30C0B7
:1008B00002E00093240504E110E0E1EEFFE0008394
:1008C0001183E0912705F0E0E653FA4F008103958C
:1008D0000083E0912705F0E0E653FA4F00810436EB
:1008E00000F100912705F801E65BFA4F2081F8013D
:1008F000E655FA4F2083E0912705F0E0E653FA4FE2
:100900001083E0912705F0E0E65BFA4F108309C001
:1009100000E0009324050093230500932105009334
:10092000220500E07AC0C6DE00912105013059F4AD
:10093000209161032F710091F6030F71201719F4B4
:1009400003E000932405E1EEFFE000811181012B1B
:1009500009F071C0E091270510E0F0E0E05EFA4F89
:10096000008503950087E0912705F0E0E05EFA4FEF
:100970000085033338F002E3E0912705F0E0E05E04
:10098000FA4F0087E0912705F0E0E65BFA4F00811F
:10099000039500830091EA050330A0F4EAEEF5E048
:1009A0000395008301E00093200510932305009335
:1009B000240510932105109322051093250510930B
:1009C000260508951093240501E000932505109352
:1009D0002005109323051093210510932205E09123
:1009E0002705F0E0E65BFA4F008103950083089548
:1009F00000E000932405E0912705F0E0E05EFA4F67
:100A000000870FE513E00E945C0AEFE5F3E0278121
:100A100030850217130721F002E0009325050895A1
:100A200022812F710091F6030F71201709F479CFFD
:100A300003E0009325050895BA93AA9300912E0729
:100A400000FF06C004E110E0EFEDFFE0008311833A
:100A50000AEA15E5E1E8F6E00083118302811381DB
:100A6000007E2091530E022B0F71107CECEEF5E00E
:100A700022813381207C3F73022B132BE1E8F6E0C7
:100A80000283138303E0018764E070E04BE856E0E3
:100A900007E61EED21E030E00E94581667E070E0A6
:100AA0004FE856E00FE61EED21E030E00E945816B8
:100AB00064E070E047E956E007E61FED21E030E032
:100AC0000E94581667E070E04BE956E00FE61FED14
:100AD00021E030E00E94581608EA16E0EBE5F3E06A
:100AE000008311830091360FE0915B03F6E00183F0
:100AF0000091E80E0287E0EEFEE000811181ABE597
:100B0000B3E0ED91FC9103871487EFE9FEE00485E3
:100B10001585ABE5B3E0ED91FC9105871687EFE90C
:100B2000FEE0068917895FC2BA93AA930DEF15E01C
:100B3000EBE5F3E00083118303E00093960F00914F
:100B4000360F0093970FE0915B03F5E00285009369
:100B5000980F05851685E6E9FFE001871287ABE56A
:100B6000B3E0ED91FC9103851485E6E9FFE0038392
:100B7000148301E0009305080AEA15E5E1E8F6E0D0
:100B80000083118302811381007E2091530E022B7A
:100B90000F71107CECEEF5E022813381207C3F73F5
:100BA000022B132BE1E8F6E00283138301E10483B7
:100BB0008F0124C28A936097802F40E250E020E0AA
:100BC00030E08E010E947A500AEA15E5E1E8F6E08D
:100BD0000083118302811381007E2091530E2F71B7
:100BE000022B0062028300E004838A9549F08A9513
:100BF000D1F18A9509F443C08A9509F464C076C09E
:100C000002810F73107C006411600283138301E082
:100C1000088324E030E047E65EED61E070E08E019D
:100C20000F5F1F4F0E94421624E030E04BE65EED5E
:100C300061E070E08E010B5F1F4F0E94421627E0BB
:100C400030E04FE65EED61E070E08E01075F1F4F20
:100C50000E94421640E150E09E010AE816E00E9420
:100C60006C5000E141C002810F73107C006811607C
:100C70000283138327E630E040E05EED2EC0028160
:100C80000F73107C006C11600283138301E00883F2
:100C900024E030E047E65FED61E070E08E010F5F39
:100CA0001F4F0E94421624E030E04BE65FED61E00A
:100CB00070E08E010B5F1F4F0E94421627E030E06C
:100CC0004FE65FEDC0CF02810F73107C126002838C
:100CD000138327E630E040E05FED61E070E00AE872
:100CE00016E00E94421607E60093850601E816E02A
:100CF0000E94390AE1E8F6E0058316838F010E941D
:100D00005C0AE1E8F6E00783108701E0009316072C
:100D100000E00093190700931C0703E010E0E3EEE6
:100D2000FFE0008311836096899108950AEA15E532
:100D3000E1E8F6E00083118302811381007E2091B7
:100D4000530E022B0F71107C006814600283138312
:100D500000E004838F010E94390AE1E8F6E0058390
:100D600016838F010E945C0AE1E8F6E00783108792
:100D700001E00093160700E00093190700931C0799
:100D800003E010E0E3EEFFE00083118308950AEA38
:100D900015E5E1E8F6E00083118302811381007E0E
:100DA0002091530E022B0F71107C006CCECF09E8FE
:100DB00014E0ECEEF5E045E950E00E94535001E00C
:100DC00000931E0502E00093F00F08959A938A9312
:100DD00001E000931E058091F00590E00996AC01BA
:100DE00025EF35E009E814E00E946C5002E0009322
:100DF000F00F899199910895229742E050E025EFF4
:100E000035E08E010E946C504091F70550E028EFCC
:100E100035E0688179810FE91EE0060F171F0E94F7
:100E20006C500AEA15E5E1E8F6E0008311830281DF
:100E30001381007E2091530E022B0F71107CECEE7B
:100E4000F5E022813381207C3F73022B132BE1E8F4
:100E5000F6E00283138300E004838F010E94390AC5
:100E6000E1E8F6E0058316838F010E945C0AE1E861
:100E7000F6E00783108701E00093160700E0009377
:100E8000190700931C0703E010E0E3EEFFE0008386
:100E90001183229608958A93229742E050E025EF2D
:100EA00035E08E010E946C508091F705482F50E08C
:100EB000088119812FE93EE0200F311F0DE816E06F
:100EC0000E946C5042E050E09E010AE816E00E9449
:100ED0006C5080938C060AEA15E5E1E8F6E00083A1
:100EE000118302811381007E2091530E022B0F711A
:100EF000107CECEEF5E022813381207C3F73022BE5
:100F0000132BE1E8F6E0028313838D5F84838F0166
:100F10000E94390AE1E8F6E0058316838F010E94FA
:100F20005C0AE1E8F6E00783108701E0009316070A
:100F300000E00093190700931C0703E010E0E3EEC4
:100F4000FFE000831183229689910895BA93AA93B2
:100F5000AAE8B6E00AEA15E5E1E8F6E000831183C5
:100F600002811381007E2091530E022B0F71107CA1
:100F7000ECEEF5E022813381207C3F73022B132BB2
:100F8000E1E8F6E00283138303E00C9364E070E091
:100F9000AD014F5F5F4F07E61EED21E030E00E949C
:100FA000581667E070E0AD014B5F5F4F0FE61EED36
:100FB00021E030E00E94581664E070E0AD014F5F20
:100FC0005F4F07E61FED21E030E00E94581667E012
:100FD00070E01596AD010FE61FED21E030E00E94B4
:100FE000581607E107C0ABE5B3E0ED91FC91078728
:100FF000108B0FE20093850601E816E00E94390A83
:10100000E1E8F6E0058316838F010E945C0AE1E8BF
:10101000F6E00783108701E00093160700E00093D5
:10102000190700931C0703E010E0E3EEFFE00083E4
:101030001183A991B99108950E94AF154FE050E036
:1010400026E93FE00AE816E00E946C500AEA15E53E
:10105000E1E8F6E00083118302811381007E209194
:10106000530E022B0F71107CECEEF5E022813381E0
:10107000207C3F73022B132BE1E8F6E002831383FD
:101080000FE067CE4FE050E025EF35E006E91FE0C6
:101090000E946C5001E0009305080091EE050F716D
:1010A000C1F10AEA15E5E1E8F6E000831183028167
:1010B0001381007E2091530E022B0F71107CECEEF9
:1010C000F5E022813381207C3F73022B132BE1E872
:1010D000F6E0028313830FE004838F010E94390A34
:1010E000E1E8F6E0058316838F010E945C0AE1E8DF
:1010F000F6E00783108701E00093160700E00093F5
:10110000190700931C0703E010E0E3EEFFE0008303
:101110001183089500E016E920E030E00E949D165A
:1011200045E950E020E030E00CEE15E00E947A50F6
:1011300045E950E020E030E001E816E00E947A50F6
:101140004AE050E020E030E006E117E00E947A50EB
:101150004AE050E020E030E000E217E00E947A50E0
:101160004AE050E020E030E00AE217E00E947A50C6
:101170000C949B169A938A9304E610E0E5ECFFE04A
:10118000008311830E9406170093EB050091180756
:10119000002319F00A9549F00CC00091EB050A3ABA
:1011A00041F000E0009318072EC10091EB050535D2
:1011B000C1F72091EB05E0911807F0E0E451FA4FF8
:1011C0002083E6E1F7E0028103950283093051F4C0
:1011D0000CEE15E071D1ECEEF5E0278130850217B9
:1011E0001307F9F68091F00590E008960091180732
:1011F00010E0801790400CF006C1109318070CEE19
:1012000015E037D1ECEEF5E02581368102171307A2
:1012100009F0F9C001E00093170700911F050023B2
:1012200039F10281138146E00E94E04D035119F02B
:101230000F51A1F0E8C002810F711091530E0117F8
:1012400021F002810F7109F0DEC0028105FF02C0AA
:101250000E94C70600E000931F05D5C002810F71F0
:101260001091530E011709F0CEC00E94E606CBC0C4
:10127000038106FF03C00E94D706C5C00281138107
:1012800046E00E94E04D073308F0BDC0F0E0FBBF30
:10129000F2E00F9FF001E457FF4F07901690F00126
:1012A00009940091EE050F711091530E011709F08A
:1012B000AAC00E941C05A7C0ECEEF5E002810F71E8
:1012C0001091530E011721F002810F7109F09BC09C
:1012D0000E94940598C0ECEEF5E002810F7139F0A0
:1012E00002810F711091530E011709F08CC00E94FA
:1012F000B84789C0ECEEF5E0018512852385348579
:10130000EBE3F7E00083118322833383E9EBFFE013
:101310000081118122813381EBE3F7E0408151812B
:1013200062817381041715072607370709F06BC020
:10133000DECF0091EE050F711091530E011709F0E9
:1013400062C001E00E94DA055EC00091EE050F71F7
:101350001091530E011709F056C003E0F3CF00912E
:10136000EE050F711091530E011709F04CC002E009
:10137000E9CF0091EE050F711091530E011709F09E
:1013800042C004E0DFCF0091EE050F711091530EC3
:101390000117C9F50E94960601E05DCF0091EE05A8
:1013A0000F711091530E011771F50E94FC062BC0AE
:1013B0000091EE050F711091530E011721F50E9457
:1013C0004B0721C00091EE050F711091530E0117CC
:1013D000D1F40E941C0817C0ECEEF5E002810F71F9
:1013E0001091530E011719F002810F7161F40E94E0
:1013F000420809C00091EE050F711091530E0117BC
:1014000011F40E94A6078991999108959A938A935D
:10141000E3EEFFE000811181012B41F500911C07F3
:101420000023F9F40E940917002301F10E94991684
:101430000E941117E0911907F0E0EF57F94F008172
:101440000E940317E6E1F7E003810395038380918F
:10145000850690E008968017904044F401E00683EA
:1014600005C000E0009316070E949B168991999190
:101470000895AA939A938A932297C8018E010E9495
:10148000A614A0E00BC0AE0121E030E08C010A0FF1
:10149000131F075F1F4F0E94B314A395FC01048123
:1014A000A01788F38E010E94AB140881198122963F
:1014B00089919991A9910895BA93AA939A938A933D
:1014C0002297C8018E010E94A614DC0187E0AE01BC
:1014D00021E030E08D010E94B31411968A95B9F78E
:1014E0008E010E94AB1408811981229689919991ED
:1014F000A991B9910895002319F00A9549F011C0F6
:1015000000E0E7E6F7E0008301830283038309C07C
:1015100000EE10E120E0E7E6F7E00083118322838C
:101520002383E7E6F7E000811181228133810052B5
:101530001E4F2F4F3F4FE6E9F1E0008311832283D6
:10154000338300E0EBE6F7E000830183028303834B
:101550000895002319F00A9549F011C000E0E7E66C
:10156000F7E0008301830283038309C000EE10E1EA
:1015700020E0E7E6F7E00083118322832383E7E698
:10158000F7E0008111812281338100521E4F2F4FDD
:101590003F4FE6E9F1E0008311832283338300E0CB
:1015A000EBE6F7E0008301830283038300E80E94F7
:1015B000F317009196010E94FC17009197010E9479
:1015C000FC1702E40E94F3170EE10E94FC1700E0F2
:1015D0000E94FC1703E40E94F31700916B070E941E
:1015E000FC1700916C070E94FC1700E40E94F3179F
:1015F0000EE10E94FC1700E00E94FC1701E40C942D
:10160000F3178A93812F0E94FC17082F0E94FC1762
:1016100001E20E94F317899108959A938A9300E05A
:101620000E94FC1700E00E94FC1704E20E94F317DE
:1016300080E090E80E94741600E00E94FC1700EC25
:101640000E94F3170197B1F7899199910895BA9380
:10165000AA939A938A93E6E9F1E080819181082F19
:101660000E94FC17092F0E94FC1704E20E94F31746
:10167000E6E9F1E0A081B181B15F8A179B0760F4D0
:101680000E94741600E00E94FC1700EC0E94F31701
:1016900001968A179B07A0F389919991A991B99115
:1016A0000895BA93AA939A938A93EBE6F7E0808120
:1016B0009181082F0E94FC17092F0E94FC1704E259
:1016C0000E94F317EBE6F7E0A081B181A052BE4F74
:1016D000D4CFBA93AA939A938A93D801032F8EE119
:1016E000809FC00130E0820F931FEBE6F7E000819E
:1016F0001181080F911F0E94FC17092F0E94FC17EF
:1017000004E209C00E947416FD010191DF0100523C
:101710000E94FC1700EC0E94F3170C91002391F734
:10172000BBCF5A924A92BA93AA939A93D801922F16
:101730001EE1412E449E200110E0430E511EEBE6B7
:10174000F7E000811181040D511E0E94FC17052D48
:101750000E94FC1704E20AC00E947416FD019BBFA0
:101760000791DF0100520E94FC1700EC0E94F31762
:10177000FD019BBF0691002379F79991A991B99139
:101780004990599008950EE012E0E3ECF7E00083F1
:101790001183E091C307F2E00781F085E02F0995FE
:1017A0000091480E12E0019FF001E354FE4F0081CA
:1017B0001181E6EAF7E000831183EDEAF7E000E14A
:1017C00010E011930A95E1F70895BA93AA938A93CA
:1017D00080E009C020E04FE0489F0DE11CE0000DD3
:1017E000111DB4D08395A3ECB7E0ED91FC91058178
:1017F000801780F38991A991B9910895BA93AA931A
:101800008A9380E008C02FE0289F0DE11CE0000DC6
:10181000111D2DD38395A3ECB7E0ED91FC910581CB
:10182000801788F38991A991B9910895BA93AA93E1
:101830008A930091AC070531B8F0A3ECB7E0ED91C5
:10184000FC910385F485E02F09950AE313E0E3ECAE
:10185000F7E000831183D8011796ED91FC9109956B
:10186000B4DF00E00093AC07A3ECB7E0ED91FC918E
:10187000218532852030304041F0E3ECF7E0A08153
:10188000B1811996ED91FC91099580E001C0839595
:10189000E3ECF7E00081F181E02F0581801708F08B
:1018A00040C02FE0289F0DE11CE0000D111D50D419
:1018B000002369F30FE0089FF001E35EF34F03811B
:1018C00003FFE5CFF001E35EF34F2385348500E0AD
:1018D0002030300711F0F90109950FE0089FF00161
:1018E000E35EF34F05851685012B89F2E3ECF7E003
:1018F0000081F181E02F0385F485E02F09950FE049
:10190000089FF001E35EF34F05851685E3ECF7E0F1
:1019100000831183D8011796ED91FC91099555DF4D
:1019200011C00091A80700FF06C00091A90700237D
:1019300049F401E005C00091A907013019F400E065
:101940000093A9078991A991B9910895FA92EA9211
:10195000DA92CA92BA92AA929A928A925A92BA93B6
:10196000AA939A938A9364972987D801F8010381EF
:101970001481012B09F426C124E030E00281029F8A
:10198000A00170E061E08E01045F1F4F0E944216CB
:1019900026E330E04C855D856E857F8540575E4F40
:1019A0006E4F7F4F00E717E00E944216E0E7F7E036
:1019B00002891389468957894D835E83CC84DD84EF
:1019C000EE84FF844285538564857585C40ED51EDB
:1019D000E61EF71E20E9C20E21E0D21EE21E20E024
:1019E000F21E4801969487949694879496948794CF
:1019F0009401220F331F220F331F220F331F021BAC
:101A0000130B21F001E0800E00E0901E082D0C7FEA
:101A10009401201B390929833A830981032B39F06A
:101A200004E010E02981021B130B09831A832D8126
:101A30003E812150304049815A818401040F151F95
:101A4000129F102D039F100D029F110D20E0C00C5E
:101A5000D11EE21EF21EFD01038104FD11C00581AD
:101A6000002319F00A9539F00BC080E090E0540192
:101A7000B694A7940FC0C4019695879554010AC0E7
:101A8000038104FF07C0058112E0019FC0015001DE
:101A9000A10EB21E038107FF07C0858190E0A82E2A
:101AA000BB2401E0A00EB21E038105FF03C080E04D
:101AB00090E054012F8328870D811E81012B09F4AA
:101AC00081C08B839C838A159B0508F064C04B8181
:101AD0005C8160E086019701040F151F261F361FE9
:101AE000088B198B2A8B3B8B6A876B8721E030E050
:101AF000488959896A897B898E010E944216E6E9E4
:101B0000F1E0008111814A855B85040F151F4C911E
:101B100050E0400F511F2F813885FD01018110E0F9
:101B2000200F311F0EE1039F102D029F110D400D5C
:101B3000511F552E042F0E94FC17052D0E94FC17E3
:101B400004E20E94F31709850023088109F000953B
:101B50000E94FC1700EC0E94F3170B811C810F5FA1
:101B60001F4F0B831C830A851B850F5F1F4F0A873E
:101B70001B87088919892A893B890F5F1F4F2F4FBF
:101B80003F4F088B198B2A8B3B8B0B811C810A15CD
:101B90001B0508F4ABCF29813A818401020F131F82
:101BA00020E0C01AD10AE20AF20A0F8118850F5FFD
:101BB0001F4F0F8318870F812D813E810217130756
:101BC00008F47FCF649689919991A991B99106C043
:101BD000269689919991A991B991499059908990A6
:101BE0009990A990B990C990D990E990F9900895E9
:101BF000FA92EA92DA92CA92BA92AA929A928A9245
:101C00005A92BA93AA939A938A936397D801F80148
:101C100006811781012B09F428C124E030E04481BA
:101C20005581440F551F440F551F70E061E08E0130
:101C3000055F1F4F0E94421626E330E04B855C850E
:101C40006D857E8540575E4F6E4F7F4F00E717E0F2
:101C50000E944216E0E7F7E0028913894689578916
:101C60004D835E83CB84DC84ED84FE844285538582
:101C700064857585C40ED51EE61EF71E20E9C20ECA
:101C800021E0D21EE21E20E0F21E480196948794C5
:101C900096948794969487949401220F331F220F71
:101CA000331F220F331F021B130B21F001E0800EA4
:101CB00000E0901E082D0C7F9401201B3909288319
:101CC00039830881032B39F004E010E02881021BDE
:101CD000130B088319832D813E81215030404881A8
:101CE00059818401040F151F129F102D039F100DA1
:101CF000029F110D20E0C00CD11EE21EF21EFD015C
:101D0000068104FD11C00085002319F00A9539F001
:101D10000BC080E090E05401B694A7940FC0C401BA
:101D20009695879554010AC0068104FF07C0008577
:101D300012E0019FC0015001A10EB21E068107FFF3
:101D400007C0808590E0A82EBB2401E0A00EB21E43
:101D5000068105FF03C080E090E054012F832887AF
:101D60000D811E81012B09F480C08B839C838A1511
:101D70009B0508F063C04B815C8160E086019701A0
:101D8000040F151F261F361F0F87188B298B3A8BC0
:101D900069876A8721E030E04F85588969897A89A7
:101DA0008E010E5F1F4F0E944216E6E9F1E00081AE
:101DB000118149855A85040F151F4D915C9111972A
:101DC000400F511F2F813885FD0102811381200FA3
:101DD000311F0EE1039F102D029F110D400D511F69
:101DE000552E042F0E94FC17052D0E94FC1704E2BB
:101DF0000E94F3170A810E94FC1700EC0E94F3175F
:101E00000B811C810F5F1F4F0B831C8309851A8573
:101E10000F5F1F4F09871A870F85188929893A890B
:101E20000F5F1F4F2F4F3F4F0F87188B298B3A8B18
:101E30000B811C810A151B0508F4ACCF2881398160
:101E40008401020F131F20E0C01AD10AE20AF20A2D
:101E50000F8118850F5F1F4F0F8318870F812D810A
:101E60003E810217130708F480CF6396ACCEFA9236
:101E7000EA92DA92CA92BA92AA929A928A925A9262
:101E80004A92BA93AA939A938A932697D801F80113
:101E900003811481012B09F49FC024E030E002810A
:101EA000029FA00170E061E08E010E5F1F4F0E9453
:101EB000421626E330E04A815B816C817D81405788
:101EC0005E4F6E4F7F4F00E717E00E944216E0E73B
:101ED000F7E002891389C688D78898013695279537
:101EE0003695279536952795A901440F551F440F20
:101EF000551F440F551F041B150B11F02F5F3F4F4B
:101F0000FD01038104FD11C00581002319F00A952C
:101F100039F013C080E090E04901969487940DC099
:101F2000C90196958795490108C0058112E0019F76
:101F3000C0014001810E00E0901E038105FF03C037
:101F400080E090E04901AA24BB240C2D0D2909F45E
:101F500043C08883998388159905B0F5EE24FF2442
:101F6000E6E9F1E0008111810E0D1F1D4C9150E05A
:101F7000040F151F2801FD0101819501200F351F58
:101F80000EE1039F102D029F110D400C511E042DD8
:101F90000E94FC17052D0E94FC1704E20E94F31713
:101FA00000E00E94FC1700EC0E94F31708811981E1
:101FB0000F5F1F4F0883198301E0E00E00E0F01E61
:101FC00008810815190560F201E0A00E00E0B01EBE
:101FD000AC14BD0408F4BDCFFBCDFA92EA92DA92BC
:101FE000CA92BA92AA929A928A925A924A92BA93B0
:101FF000AA939A938A932697D801F80106811781AC
:10200000012B09F4A4C024E030E044815581440F41
:10201000551F440F551F70E061E08E010E5F1F4F8A
:102020000E94421626E330E04A815B816C817D810B
:1020300040575E4F6E4F7F4F00E717E00E944216F9
:10204000E0E7F7E002891389C688D78898013695BA
:1020500027953695279536952795A901440F551F45
:10206000440F551F440F551F041B150B11F02F5F14
:102070003F4FFD01068104FD11C00085002319F0CA
:102080000A9539F013C080E090E049019694879456
:102090000DC0C90196958795490108C0008512E0D9
:1020A000019FC0014001810E00E0901E068105FFE6
:1020B00003C080E090E04901AA24BB240C2D0D2927
:1020C00009F445C08883998388159905C0F5EE24E5
:1020D000FF24E6E9F1E0008111810E0D1F1D4D91F5
:1020E0005C911197040F151F2801FD0102811381D6
:1020F0009501200F311F0EE1039F102D029F110D3E
:10210000400C511E042D0E94FC17052D0E94FC1747
:1021100004E20E94F31700E00E94FC1700EC0E940A
:10212000F317088119810F5F1F4F0883198301E09E
:10213000E00E00E0F01E08810815190550F201E0DC
:10214000A00E00E0B01EAC14BD0408F4BBCF40CD1F
:10215000BA93AA939A938A932497D80190E0F801AE
:1021600085810091BF07002351F0EFEBF7E001817B
:1021700012810A171B0719F401E000930B100CE3FE
:10218000E7EEFFE00083918390936F07E6EAF7E0C4
:10219000008111812091480E32E0239FF001E35429
:1021A000FE4F208131810217130790F4E7EEFFE024
:1021B00000811181012B61F401E00E94A90A01E074
:1021C00000936F0700EC18EAE7EEFFE0008311834D
:1021D000E9EDFFE000811181012B11F000E090C2D8
:1021E00000910B10002309F4D2C10CE3E7EEFFE0ED
:1021F0000083918300914A0EE6E5F3E0008391832A
:102200002081318108EE13E0129F102D039F100DE5
:10221000029F110D00821183E6EAF7E0008111812F
:102220002091480E32E0239FF001E354FE4F2081BD
:1022300031810217130758F4E6EAF7E0208331836F
:1022400004EF11E0E9EDFFE000831183C7CFFD014A
:10225000038100FFC3CF24E030E00281029FA00190
:1022600070E061E08E010E94421626E330E0488172
:1022700059816A817B8140575E4F6E4F7F4F00E7E7
:1022800017E00E944216E0E7F7E042895389FD011A
:10229000038105FD02C056954795E0E7F7E0068902
:1022A00017892C9138E0239F2091BE07222329F51E
:1022B000E7EFFFE02081318102161306F0F4B90147
:1022C0009001240F351F62177307F0F4FD0121817F
:1022D00030E0E5EFFFE06081718126173707D8F421
:1022E000200F311F6217730700F5FD01228523952A
:1022F0002287243810F023E82287E7EFFFE02081CF
:10230000318102161306D8F420813181040E151E86
:1023100020153105A0F4FD01218130E0E5EFFFE05B
:10232000408151812417350750F440815181FD01CE
:10233000218130E0200F311F4217530740F0FD018B
:102340000285033818F00A95028701C09287009130
:10235000BF07002361F0EFEBF7E0018112810A175C
:102360001B0729F404E0FD0102879093BF07FD01DC
:102370000285043008F4B2C00F3708F073C001E0E2
:102380000093BE07028500680287E5ECF7E0A083B2
:10239000B183FD01048103FF10C00581002359F4BE
:1023A00001E005830093C20708E512E0E9EEFFE0D3
:1023B000008311833CC095833AC0038102FF0DC0A6
:1023C00005810023C1F701E00583038106FF2FC0CB
:1023D00008EE13E0E5EDFFE0EBCFE3ECF7E0208162
:1023E00031812E30324001F51CE0AD31B10761F48E
:1023F0000091310C0023D9F401E0FD010583009325
:10240000AA079093AB0713C01CE0AC32B10761F48C
:102410000091220C002359F401E0FD010583009393
:10242000AB079093AA0703C001E0FD010583FD01FE
:102430000381148102701270023020E0104011F408
:102440008D0184DA91E0FD01048103FD2AC1238519
:1024500034852030304009F424C10385F485E02F11
:1024600009951FC103810A70023009F01AC1038166
:1024700002FD17C0EBEDFFE000811181012B89F413
:10248000EDEDFFE000811181012B59F400E500839F
:102490009183FD01238534852030390711F0F9013E
:1024A0000995FD01048103FFFCC0EBEDFFE0008115
:1024B0001181012B09F0F5C0EDEDFFE000811181E4
:1024C000012B09F0EEC000E500839183FD01238517
:1024D00034852030304009F4E4C0BFCF038102715D
:1024E000023009F0DEC003810C7089F585818823F4
:1024F00071F19583E3ECF7E0208131812E30324099
:10250000E1F41CE0AD31B10751F40091AA070230AB
:1025100021F401E0FD01058302C09093AA071CE0AD
:10252000AC32B10751F40091AB07023021F401E065
:10253000FD01058302C09093AB07FD01048101FDFD
:1025400006C00581081719F020E08D01FFD9FD01B3
:10255000038102FFA6C00581013009F0A2C00381FA
:1025600006FF9FC00091A80700FF09C00091A907BE
:10257000002309F096C020E08D01E8D992C00091B7
:10258000A907013009F08DC08D0171DC8AC09093DC
:10259000BE07E5ECF7E000811181A017B10711F546
:1025A000FD01048103FF1EC00091C2070023D1F08A
:1025B000E9EEFFE000811181012B71F0FD019583AF
:1025C000238534852030304021F00385F485E02FC9
:1025D000099520E08D01BAD9E5ECF7E0908391836D
:1025E0009093C207FD0103810271023009F050C0CF
:1025F00003810C7089F58581882371F19583E3EC63
:10260000F7E0208131812E303240E1F41CE0AD3121
:10261000B10751F40091AA07023021F401E0FD0155
:10262000058302C09093AA071CE0AC32B10751F4B5
:102630000091AB07023021F401E0FD01058302C0E7
:102640009093AB07FD01048101FD06C005810817C9
:1026500019F020E08D017AD9FD01038102FF18C035
:1026600005810130A9F4038106FF12C00091A8077B
:1026700000FF08C00091A907002351F420E08D015C
:1026800065D906C00091A907013011F48D01EFDB77
:10269000FD010285002311F00A95028702850F775C
:1026A0000287FD0103810271023049F5058180171F
:1026B00031F10130068117812085318559F4EAE234
:1026C000F7E04081518162817381402B512B622B55
:1026D000732B0EC00095109520953095EAE2F7E037
:1026E000408151816281738140235123622373238E
:1026F0004083518362837383048101600483092FC3
:10270000249689919991A991B9910895BA93AA9320
:102710009A938A93A897C801D9010E94741633E04E
:1027200020E00AE911E00E94690B24E030E0AC01EE
:10273000BD0149595F4F6F4F7F4F01EC1FE00E9471
:10274000421641E021EC3FE08E010E94014A33E055
:102750002BE08E010E94690B34E020E006EA11E0D4
:102760000E94690B24E030E085599F4FAF4FBF4F67
:10277000AC01BD0101EC1FE00E94421641E021ECDA
:102780003FE08E010E94014A34E02BE08E010E945E
:10279000690BA896B6CFAA939A938A9380E090E0AB
:1027A0000E94B61700E00E94A90A0E940D0B0CE9D6
:1027B0000E94F31701E00E947B0A20E007E413E087
:1027C000C5D800E00E94A90A0E942A4C00910B1073
:1027D000002391F040E039E00DED1CEA20E00E947A
:1027E000910B0E942A4C04C00E942A4C0E9474162D
:1027F00000910B100023C1F70E94510B40E030E024
:102800000DEE1BEA20E00E94910B41E030E005E173
:102810001CEA20E00E94910B42E030E00DE31CEA4C
:1028200020E00E94910B00E01EED21E030E06EDF21
:1028300035E020E002EB11E00E94690B40E023E567
:102840003EE00FE317E00E944A4835E029E00FE33D
:1028500017E00E94690B27E630E040E05EED61E0A2
:1028600070E00FE317E00E94421636E020E00FE32D
:1028700017E00E94690B00ED17E0E9ECFFE0008330
:10288000118304E6E7ECFFE000838183A0E02CC025
:102890000E947416E7ECFFE000811181012B21F505
:1028A00004E610E0008311830E94741637E02A2F9B
:1028B0000BEB11E00E94690B0E942A4C00910B1057
:1028C000002309F001968A3000E0900760F0E9ECFF
:1028D000FFE000830183E7ECFFE0008301830E94B7
:1028E000510B0E940218A395E9ECFFE000811181D1
:1028F000012B71F60E94270B0E94510B04EF11E08F
:10290000E3EDFFE00083118300914A0E10E0E6E55D
:10291000F3E0008311832081318108EE13E0129FE0
:10292000102D039F100D029F110D0082118300E0F6
:1029300010E0E7ECFFE0008301830CE3E7EEFFE04B
:102940000083118389919991A99108952FEFF8013E
:10295000208321830895F80100811181009510954D
:102960000083118308950D01BC01FA01422F432B0E
:1029700001F1D801C9010D912081318120272083E7
:10298000318328E0008100FF0BC0402F5181569514
:10299000479508E014E8402751274083518305C03C
:1029A000118116950795008311832A9559F7019790
:1029B00011F7CB01D00108957A926A925A924A9205
:1029C000BA93AA939A938A93D80100E010E020E08A
:1029D00030E0FD01068043E0042281E090E017C072
:1029E000FC01EE52FE4F408160E070E0040F151FC5
:1029F000251F351F002039F48130950721F40F5F22
:102A00001F4F2F4F3F4F01968D30950768F4FD0102
:102A1000458150E04817590719F7448160E070E09C
:102A2000040F151F251F351F88E090E0FD0146812A
:102A3000493080F003591E4F2F4F3F4F482F4370AE
:102A400021F40F5F1F4F2F4F3F4F01964681841790
:102A5000950780F32801390147E00E941A4E47E0AC
:102A60002224439F702D429F602D710D419F502D58
:102A7000610D721D409F510D621D721D82019301F7
:102A80000019150B260B370B0F5F1F4F2F4F3F4FB2
:102A9000083010402040304008F00750EA2F0383F0
:102AA00089919991A991B99149905990699079909A
:102AB00008950FE21FE080CF0091960F0A3529F4A8
:102AC0000091970F0093360F08950B3549F4E6E90E
:102AD000FFE003811481EFE7FFE000831183089595
:102AE0000230E1F50091970F0093360F0091980F97
:102AF0000093810FE6E9FFE003811481EFE7FFE037
:102B00000083118300919F0F038300917F0FEAE8F8
:102B1000FEE020813181020F131FE0EEFEE0008312
:102B20001183EFE7FFE000811181021B130BE5E049
:102B3000FFE00083118300E00093FD0E01E0058FAC
:102B40000091360F002300E029F4E2EEFEE000835E
:102B500001830895E7E0FFE000830183089502E028
:102B60000093960F0091360F0093970F0091810FFD
:102B70000093980FEFE7FFE000811181E6E9FFE0A5
:102B8000038314830091950F12E0019FF001E15639
:102B9000F14F02891389E6E9FFE00583168300E01F
:102BA00010E0078300870091820F01871287138747
:102BB000148715871687089500E00FBD09E00EBD44
:102BC00000E000937A0003E31BE21BBD0ABD00E0B6
:102BD0000DBD0CBD07B7006107BF08959A938A9396
:102BE000FA93EA933A922A921A920A927A936A9301
:102BF0005A934A933A932A931A930A938FB79BB79F
:102C00000E94914A9BBF8FBF0991199129913991D7
:102C10004991599169917991099019902990399028
:102C2000E991F9918991999118954A92BA93AA9349
:102C30009A938A93D801C901442359F0442EFD0187
:102C40000191DF01AC010E94C84D4ED001964A941B
:102C5000B1F789919991A991B991499008954A92B2
:102C6000BA93AA939A938A93D801C901442349F04D
:102C7000442EAC010E94BC4D0D9336D001964A946F
:102C8000C1F7E7CF1C01C90120E0382F392B71F0C3
:102C9000FA011124E20FF11D6BBF0690F8010192B9
:102CA0008F01239530E02817390790F3C10108956B
:102CB000080100E0162F172B71F0F00110E0E00F73
:102CC000F11F2BBF1691FA011193AF01039510E08C
:102CD0000617170790F30895C498BC9A089508E161
:102CE00001BD08E001BDFFCFC49A0000C498A895BB
:102CF00008950091650001600093650008950091BA
:102D000065000E7F009365000895009165000E7FB9
:102D100000936500009164000160009364000895D1
:102D20002FEF33E0201B310B309387002093860078
:102D30000895949A08959498089540E050E00056BC
:102D4000194020403040C1F1005619402040304029
:102D500089F1005C12412040304051F1005C124189
:102D60002040304019F1005C124120403040E1F039
:102D70000058154220403040A9F00058154220402C
:102D8000304071F000501B442040304039F000507A
:102D9000114E2040304091F445E010C04BE00EC091
:102DA00041E10CC047E10AC043E208C04FE206C05F
:102DB00047E404C04FE802C04FE151E08C9A949878
:102DC000509398004093990008E900939A000EE010
:102DD00000939D0000E200939C0008959A938A93CB
:102DE000FA93EA933A922A921A920A927A936A93FF
:102DF0005A934A933A932A931A930A938FB79BB79D
:102E00000E94BA08FFCE00939C00089500919C0098
:102E1000089500919B0006FF02C001E0089500E0C4
:102E2000089500919B00006400939B000895BF9A51
:102E3000C7980091640002600093640000916500EF
:102E40000D7F00936500139A00E010E00093890065
:102E50000093880003EC00938B0001E000938A004C
:102E600010938C00109385001093840010938300BE
:102E70001093820006E000939F0E04E10093A00EE1
:102E800002E00093A10E04E00093A20E089588983A
:102E9000909A919807B3076007BBBB9808B3097F66
:102EA00008BBC09A03E50DB901E00EB90895089575
:102EB0004A92BA93AA939A938A93A02F412E0FB164
:102EC0000FB1C09884EF91E0F2DF0197E9F7A368B2
:102ED000AFB9779BFECF0FB100E00FB9779BFECF64
:102EE0000FB1A02F03E8402A4FB8779BFECF0FB158
:102EF000BA2FA02FB695A795B695A795B695A79585
:102F000000E00FB9779BFECF0FB184EF91E0CFDFE8
:102F10000197E9F7C09ACBDFCADFC9DFC8DFBF700E
:102F20008D0197CE01E005BF00E005BF08E101BDBE
:102F300000E001BD009374000EEF00936A0000E012
:102F400009BF04B3007E04BB05B30F6105BBBF9A84
:102F5000089503B30F7100950F710895B79B02C0D8
:102F6000C7980895C79A08957894089504EF03B90F
:102F700002B1046F02B900E0009361001B9A1A9835
:102F80000AE010E00E941C4C1A9A0AE010E00E942D
:102F90001C4C1E9808958A931FEF109361001C9893
:102FA0000093620083E083DF8A95E9F71C9A899198
:102FB00008958A9300E0009361001D9883E077DF15
:102FC0008A95E9F700B11D9A899108951F9AF1CF6A
:102FD0008A93802F01C088DEF9DF08230817D9F70C
:102FE00001E0899108958A93802F03E0F1DF1F9A11
:102FF000082FD1DF899108958A93802F03E0E8DFBD
:103000001F98F6CF8A927A926A925A924A92BA930B
:10301000AA939A938A936C9700E000930B100E94F6
:103020002A4C00910B10002391F040E039E00DEDA7
:103030001CEA20E00E94910B0E942A4C04C00E94CE
:103040002A4C0E94741600910B100023C1F70E94B5
:10305000510B04E610E00E941C4C0E9474160E9462
:10306000FE0B0E94510B40E033E005E61CEA20E035
:103070000E94910B41E033E00DE81CEA20E00E9441
:10308000910B20E005EE11E00E94A60C00E00093F9
:103090000B1002E310E0E7EDFFE0008311838824CA
:1030A000442455246624772480E090E0A0E0B0E03A
:1030B0000E9474160E9474160E942A4C00910B10F4
:1030C0000023C1F3EFEFFFE00081118120E030E049
:1030D0000E948B4EA801B9018C019D010E94DF4E18
:1030E000C801D901EDEFFFE00081118120E030E05F
:1030F0000E948B4EA201B3010E94DF4E28013901CC
:1031000083940AE08016B0F240E050E060E271E49F
:103110008C019D010E94B94F0E948D4E0883198336
:1031200040E050E060E271E4820193010E94B94FF7
:103130000E948D4E0C831D830E94741632E025E0A0
:103140000FED11E00E94690B40E09E018E01085FC7
:103150001F4F0E94F34732E027E08E01085F1F4FA8
:103160000E94690B33E025E002EE11E00E94690B3A
:1031700040E09E012C5F3F4F8E01085F1F4F0E9471
:10318000F34733E027E08E01085F1F4F0E94690B71
:1031900020E004EF11E00E94A60C44E033E005EBD0
:1031A0001CEA20E00E94910B08EE13E00E941C4CE8
:1031B00002E310E0E7EDFFE000831183882444245C
:1031C00055246624772480E090E0A0E0B0E00E94DF
:1031D00074160E942A4C00910B100023C1F3EFEFEC
:1031E000FFE00081118120E030E00E948B4EAC01B5
:1031F000BD010E94DF4EC801D901EDEFFFE0008163
:10320000118120E030E00E948B4EA201B3010E94A8
:10321000DF4E2801390183940AE08016C0F240E0B5
:1032200050E060E271E48C019D010E94B94F0E9460
:103230008D4E0A831B8340E050E060E271E482011E
:1032400093010E94B94F0E948D4E0E831F8335E07B
:1032500025E00FED11E00E94690B40E09E012E5F1A
:103260003F4F8E01085F1F4F0E94F34735E027E074
:103270008E01085F1F4F0E94690B36E025E002EEC9
:1032800011E00E94690B40E09E012A5F3F4F8E01D2
:10329000085F1F4F0E94F34736E027E08E01085F6A
:1032A0001F4F0E94690B0A811B8128813981021BF3
:1032B000130B20E030E00E948B4EA801B90100E022
:1032C00010E028E533E40E94B94FE0E3FEE000831C
:1032D0001183228333830E811F812C813D81021B48
:1032E000130B20E030E00E948B4EA801B90100E0F2
:1032F00010E020ED32E40E94B94FE0E3FEE00483E9
:103300001583268337830881198120E030E00E94ED
:103310008B4EC801D901E0E3408151816281738104
:1033200000E010E020E331E40E94B94FA801B901A8
:103330008C019D010E94234F0E948D4EE0E3FEE030
:1033400000871187228733870C811D8120E030E0C0
:103350000E948B4EC801D901E0E34481558166810A
:10336000778100E010E020E331E40E94B94FA8012A
:10337000B9018C019D010E94234F0E948D4EE0E314
:10338000FEE0008B118B228B338B00ED17E00E9447
:103390001C4C0E9402470E94510B04EF11E00E9456
:1033A000370F05EE11E00E94370F6C9689919991C5
:1033B000A991B9914990599069907990899008950F
:1033C00001E000930D0200918B0C002341F000E01E
:1033D00000938B0C20E006E81CE00E94A60C0091F4
:1033E0009A0C002341F000E000939A0C20E005E9DC
:1033F0001CE00E94A60C089502E000930D020091CB
:103400007C0C002341F000E000937C0C20E007E7F7
:103410001CE00E94A60CE3CF03E000930D02009194
:103420007C0C002341F000E000937C0C20E007E7D7
:103430001CE00E94A60C00918B0C002341F000E0E0
:1034400000938B0C20E006E81CE00E94A60C089577
:10345000E2E8FFE0008103950083043010F000E013
:1034600000832091B50C30E00091820F10E00F5ADC
:103470001F4F2017310751F00091820F0F5A009310
:10348000B50C20E003EB1CE00E94A60C01E00093C9
:10349000810F1091A90C00E00093A90C112329F0D1
:1034A00020E004EA1CE00E94A60C04EF11E0E5EE27
:1034B000FFE0008311830091140C002319F40DE345
:1034C00000935A03089500E010E0EFECFFE0008362
:1034D00001830091940F002349F401E00093940FBD
:1034E0001093490E05E00093480E08C002E00093D7
:1034F000490E09E00093480E1093940F04EF11E079
:10350000E5EEFFE00083118300E0EFECFFE00083D5
:10351000018308E813E1EBEEFFE0008311830091E3
:10352000140C002319F40EE300935A03089520911C
:10353000B50C30E00091820F10E00F5A1F4F20179A
:10354000310751F00091820F0F5A0093B50C20E023
:1035500003EB1CE00E94A60C1091C70C0091360FE3
:10356000002311F401E001C000E00093C70C0091BA
:10357000C70C101729F020E002EC1CE00E94A60CFA
:103580001091A90C0091810F002311F401E001C0FA
:1035900000E00093A90C0091A90C101729F020E07D
:1035A00004EA1CE00E94A60C0895EFE7FFE000810A
:1035B00011810F5F1F4F00831183003921E01140FB
:1035C0001CF000E90083218304EFE5EEFFE00083B7
:1035D00021830091140C002319F40FE300935A0384
:1035E00000E0EFECFFE0008301830895EFE7FFE0E8
:1035F0000081118101501040008311830D3820E0BB
:1036000010401CF40CE80083218304EF11E0E5EE88
:10361000FFE0008311830091140C002319F40FE3E1
:1036200000935A03EFECFFE020832183089500917B
:10363000360F002311F401E001C000E00093360FC3
:1036400004EF11E0E5EEFFE00083118300E0EFEC12
:10365000FFE0008301830091140C002319F400E4BF
:1036600000935A0308950091810F002311F401E0A3
:1036700001C000E00093810F04EF11E0E5EEFFE0F0
:103680000083118300E0EFECFFE0008301830091F1
:10369000140C002319F40CE300935A03089500E07E
:1036A00000935D030093590300935A030CE30093C6
:1036B000ED0F0DE11CE0E6EFF1EA30E04FE050E005
:1036C0000E945E500CE21CE0E7EEF1EA30E04FE0D1
:1036D0000E945E500BE31CE0E8EDF1EA30E04FE0C1
:1036E0000E945E500AE41CE0E9ECF1EA30E04FE0B1
:1036F0000E945E5009E51CE0EAEBF1EA30E04FE0A1
:103700000E945E5008E61CE0E3E2F2EA30E04FE09F
:103710000E945E5007E71CE0E1E4F2EA30E04FE08F
:103720000E945E5006E81CE0E0E5F2EA30E04FE07F
:103730000E945E5005E91CE0EFE5F2EA30E04FE060
:103740000E945E5004EA1CE0EEE6F2EA30E04FE050
:103750000E945E5003EB1CE0EDE7F2EA30E04FE040
:103760000E945E5002EC1CE0ECE8F2EA30E04FE030
:103770000E945E5001ED1CE0E2E3F2EA30E04FE02F
:103780000E945E5000EE1CE0E5E0F2EA30E04FE01F
:103790000E945E500FEE1CE0E4E1F2EA30E04FE000
:1037A0000E945E5008E51DE0E1EDF2EA30E049E0FC
:1037B0000E945E5001E61DE0E8ECF2EA30E049E0EC
:1037C0000E945E500AE61DE0EFEBF2EA30E049E0CD
:1037D0000E945E5003E71DE0E6EBF2EA30E049E0CC
:1037E0000E945E500CE71DE0EDEAF2EA30E049E0AD
:1037F0000E945E5005E81DE0E4EAF2EA30E049E0AC
:103800000E945E500EE81DE0EBE9F2EA30E049E08C
:103810000E945E5007E91DE0E0E1F3EA30E049E094
:103820000E945E5000EA1DE0E7E0F3EA30E049E084
:103830000E945E5009EA1DE0EEEFF2EA30E049E056
:103840000E945E5002EB1DE0E5EFF2EA30E049E055
:103850000E945E500BEB1DE0ECEEF2EA30E049E036
:103860000E945E5004EC1DE0E3EEF2EA30E049E035
:103870000E945E500DEC1DE0EAEDF2EA30E049E016
:103880000E945E5006ED1DE0EDE3F3EA30E049E012
:103890000E945E500FED1DE0E4E3F3EA30E049E002
:1038A0000E945E5008EE1DE0EBE2F3EA30E049E0F2
:1038B0000E945E5001EF1DE0E2E2F3EA30E049E0F1
:1038C0000E945E500AEF1DE0E9E1F3EA30E049E0D2
:1038D0000E945E5004E6EFECFFE00083418320E0AD
:1038E00008C04AE009E0029FF001E85AF24F408721
:1038F0002395009114022017A0F35093FD0E01E0D0
:103900000093220F08958A9380E009C029E0289F40
:1039100008E51DE0000D111D0E94ED0F839500913B
:103920001402801798F30E94FE0B0E94510B89919C
:1039300008959A938A93EFECFFE000811181012BA7
:1039400009F00EC204EF11E000831183E7E6F7E00F
:103950000081118122813381012B022B032B09F07D
:10396000FFC10CE30093ED0F00E00093940FEFE72D
:10397000FFE000811181EAE8FEE020813181020F41
:10398000131FE0EEFEE000831183EFE7FFE000810C
:103990001181021B130BE5E0FFE00083118300E0BF
:1039A0000093FD0E01E0058F0091360F002300E02B
:1039B00019F4E2EEFEE002C0E7E0FFE000830183DD
:1039C0000E945915B4DD0091140C002309F0ADC01C
:1039D000EFE9FEE024893589E6E8FEE00081118107
:1039E000200F311F283E03E0300714F027EE33E0AC
:1039F00008E51DE0E7ECF7E000831183F80100859E
:103A000033235AF41AE0E7ECF7E04081F181E42F28
:103A1000108731952195304007C01BE0E7ECF7E0B7
:103A20004081F181E42F1087C901E7ECF7E02081A4
:103A30003181F9011085011719F089010E94F80DF3
:103A400001E61DE0E7ECF7E00083118344E650E077
:103A50008C010E94E64D202F04E6029F80199109F7
:103A6000E7EC00811181F80100854091C707512FD3
:103A70002087021719F08A010E94F80D03E71DE064
:103A8000E7ECF7E000831183F80100851CE0E7EC28
:103A9000F7E020813181F90110870C3019F089019C
:103AA0000E94F80D0AE61DE0E7ECF7E000831183C1
:103AB0004AE050E08C010E94E64D202F0AE0029F70
:103AC0008019E7EC00811181F80100854091C7075A
:103AD000512F2087021719F08A010E94F80D0CE778
:103AE0001DE0E7ECF7E000831183F80100852091E9
:103AF000C7078087081719F0022F0E94F80D05E804
:103B00001DE0E7ECF7E000831183E091C707FDE0DB
:103B100000851FE0E7ECF7E020813181F901108793
:103B20000F3019F089010E94F80DEFE7FFE02081C6
:103B30003181E6E8FEE000811181200F311F07E9A5
:103B40001DE0E7ECF7E000831183F80100855AF4EB
:103B50001AE0E7ECF7E04081F181E42F108731951E
:103B60002195304007C01BE0E7ECF7E04081F18190
:103B7000E42F1087C901E7ECF7E020813181F901DA
:103B80001085011719F089010E94F80D00EA1DE067
:103B9000E7ECF7E00083118344E650E08C010E94DB
:103BA000E64D202F04E6029F80199109E7EC008181
:103BB0001181F80100854091C707512F2087021716
:103BC00019F08A010E94F80D02EB1DE0E7ECF7E026
:103BD00000831183F80100851CE0E7ECF7E0208109
:103BE0003181F90110870C3019F089010E94F80D1C
:103BF00009EA1DE0E7ECF7E0008311834AE050E0BA
:103C00008C010E94E64D202F0AE0029F8019E7EC0C
:103C100000811181F80100854091C707512F20874D
:103C2000021719F08A010E94F80D0BEB1DE0E7EC7A
:103C3000F7E000831183F80100852091C707808792
:103C4000081719F0022F0E94F80D04EC1DE0E7ECB4
:103C5000F7E000831183E091C707FDE000851FE0D6
:103C6000E7ECF7E020813181F90110870F3019F07E
:103C700089010E94F80DEDEBF7E0008103FF70C0B1
:103C8000077F008360E352E040E023E33FE009EC7C
:103C900017E00E94A54823E032E009EC17E00E94FB
:103CA000684A60E352E040E024E33FE001EF17E0C0
:103CB0000E94A54821EF37E009EC17E00E94684A0E
:103CC00025E032E009EC17E00E94684A60E352E028
:103CD00040E025E33FE001EF17E00E94A54821EF17
:103CE00037E009EC17E00E94684A29E032E009EC6D
:103CF00017E00E94684A60E352E040E021E33FE0C1
:103D000001EF17E00E94A5480091A80721EF37E0D6
:103D100000FF07C009EC17E00E94684A2BE032E080
:103D200006C009EC17E00E94684A29E032E009EC7D
:103D300017E00E94684A60E352E040E020E33FE081
:103D400001EF17E00E94A54821EF37E009EC17E0EA
:103D50000E94684A32E02EE009EC17E00E94690BED
:103D600089919991089522970E943A04009124051F
:103D7000002319F0043009F00CC10091250500233F
:103D800051F500912105013031F500E00093210546
:103D9000EFE5F3E002811381007C1F7300381C40C3
:103DA000D1F4E5EEFFE000811181012BA1F442E0A6
:103DB00050E028E633E08E010E946C5040916A0387
:103DC00050E02BE633E0688179810FE91EE0060FB1
:103DD000171F0E946C500091F00F002309F0D9C00A
:103DE00000915A03002329F00093590300E0009347
:103DF0005A0300910508002341F000E000930508F4
:103E00000E945C1504E60093590300911E050023EF
:103E1000D9F000E000931E0504EF13E0E9E8F4E0B8
:103E200045E950E00E94535001E000932005409383
:103E300023050093240540932105409322054093D8
:103E4000250540932605A5C0E5ECFFE00081118122
:103E5000012B09F09EC0009159030A3608F096C064
:103E6000F0E0FBBFF2E00F9FF001E650FF4F07903C
:103E70001690F0010994E9E5F3E00395008304E668
:103E80000093F00F16E021EB3EE000919D020E94AE
:103E9000AB027FC0E9E5F3E00395008304E60093FD
:103EA000F00F17E02FE23FE0F0CFE9E5F3E00395F4
:103EB000008304E60093F00F17E12FE73FE0E5CF22
:103EC000E9E5F3E00395008304E60093F00F11E0C9
:103ED00026E33FE0DACFE9E5F3E00395008304E66B
:103EE0000093F00F1DE222E53FE0CFCF12E020EE7D
:103EF0003EE000919D020E944B02E9E5F3E0008163
:103F0000039500830AE00093F00F43C012E025E020
:103F10003FE0EFCF11E02DEF3EE0EBCF11E022E2EA
:103F20003FE0E7CF00E00093940F11E024E93FE089
:103F3000E0CF11E021E83FE000919D020E944B029A
:103F400000E000935903DECF12E0F4CF11E024E942
:103F50003FE0F2CF12E02FE73FE0EECF11E026E3A3
:103F60003FE0EACF4DE250E020E030E002E51FE024
:103F70000E947A501DE222E53FE0DECF17E12FE7F5
:103F80003FE0B7CF11E026E33FE0B3CF00E000937E
:103F900059032296089500919D020E9406020AE0AC
:103FA0000093F00F089505E010E0E4E8FFE00083DF
:103FB00011830AE0E6E8FFE00083118304E1E8E80A
:103FC000FFE00083118302E0EAE8FFE00083118351
:103FD00001E0ECE8FFE0008311831AE024E83FE011
:103FE00000E00E944B020AE00093F00F089500E009
:103FF00000935D030093590300935A030DE11CE005
:10400000E6EFF1EA30E04FE050E00E945E500CE253
:104010001CE0E7EEF1EA30E04FE00E945E500BE377
:104020001CE0E8EDF1EA30E04FE00E945E500AE467
:104030001CE0E9ECF1EA30E04FE00E945E5009E557
:104040001CE0EAEBF1EA30E04FE00E945E5008E647
:104050001CE0E6E4F3EA30E04FE00E945E5007E740
:104060001CE0E5E5F3EA30E04FE00E945E5006E830
:104070001CE0E2E8F3EA30E04FE00E945E5005E920
:104080001CE0E3E7F3EA30E04FE00E945E5004EA10
:104090001CE0E4E6F3EA30E04FE00E945E5003EB00
:1040A0001CE0E1E9F3EA30E04FE00E945E5001E0FD
:1040B0000093310C08958A9380E009C029E0289F7D
:1040C00008E51DE0000D111D0E94ED0F8395009184
:1040D0002102801798F30E94FE0B89910895EFEC5E
:1040E000FFE000811181012B21F404EF11E0008336
:1040F000118308950E943A0400912405002319F0C9
:10410000043009F098C0009125050023E9F50091DD
:1041100021050130C9F500E000932105EFE5F3E04A
:104120000281138146E00E94E04D0E5219F00450C6
:1041300071F02AC0E5EEFFE000811181012B21F52D
:104140004FE050E028E633E006E31FE01BC0E5EE59
:10415000FFE000811181012BB9F442E050E028E634
:1041600033E00FEB1FE00E946C5040916A0350E077
:104170002BE633E0EFEBFFE0608171810FE91EE099
:10418000060F171F0E946C500091F00F002309F0DA
:1041900052C000915A03002329F00093590300E014
:1041A00000935A0300911E050023D9F000E000930C
:1041B0001E0504EF13E0E9E8F4E045E950E00E9451
:1041C000535001E0009320054093230500932405FC
:1041D00040932105409322054093250540932605F1
:1041E0000895E5ECFFE000811181012B21F500919C
:1041F0005903002319F0025069F01AC01FE026E3AA
:104200003FE000919D020E94AB0200E00093590341
:1042100004E60BC01FE026E33FE000919D020E94F0
:104220004B0200E00093590302E30093F00F08955E
:1042300000E00093590308950E94510B02E300939C
:104240005A03089502E000935D0300E000935903D0
:1042500000935A030DE11CE0E6EFF1EA30E04FE095
:1042600050E00E945E500CE21CE0E7EEF1EA30E024
:104270004FE00E945E500BE31CE0E8EDF1EA30E015
:104280004FE00E945E500AE41CE0E9ECF1EA30E005
:104290004FE00E945E5009E51CE0EAEBF1EA30E0F5
:1042A0004FE00E945E5008E61CE0E1E8F4EA30E0EE
:1042B0004FE00E945E5001E00093400C08958A9305
:1042C00080E009C029E0289F08E51DE0000D111DD0
:1042D0000E94ED0F839500912102801798F30E94B0
:1042E000FE0B0E94510B899108959A938A9321970E
:1042F000EFECFFE000811181012B09F002C104EF16
:1043000011E000831183E7E6F7E00081118122814B
:104310003381012B022B032B09F0F3C00091140C05
:10432000002309F0EEC080E093E0282F09E0029F0F
:10433000F001EE5AF04F00811181012B09F4D2C037
:1043400060E352E040E028E53FE0200D311D0FE33F
:1043500017E00E94A5480FE20093410700E0009398
:104360004207392F20E00FE317E00E94690B60E35A
:1043700052E040E029E53FE0282E09E0029D200DB3
:10438000311D0FE317E00E94A5480FE2009341079B
:1043900000E000934207392F23E00FE317E00E946B
:1043A000690B60E352E040E02AE53FE0282E09E097
:1043B000029D200D311D0FE317E00E94A548392F03
:1043C00026E00FE317E00E94690B60E352E040E053
:1043D00026E53FE0282E09E0029D200D311D0FE368
:1043E00017E00E94A5480AE30093410700E000930C
:1043F0004207392F29E00FE317E00E94690B60E3C1
:1044000052E040E025E53FE0282E09E0029D200D26
:10441000311D0FE317E00E94A5480AE3009341070E
:1044200000E000934207392F2CE00FE317E00E94D1
:10443000690B60E352E040E024E53FE0282E09E00C
:10444000029D200D311D0FE317E00E94A548392F72
:104450002FE00FE317E00E94690B282F09E0029F6D
:10446000F001EE5AF04F0181088360E352E040E032
:104470009E010FE317E00E94A548392F22E10FE3C8
:1044800017E00E94690B282F09E0029FF001EE5A05
:10449000F04F0081088360E352E040E09E010FE3AB
:1044A00017E00E94A548392F25E10FE317E00E948D
:1044B000690B492F439530E0682F09E0069FF00112
:1044C000EE5AF04F1181012F110F110B69E1619F1D
:1044D000702D609F710D00EA13EA20E0000D171F98
:1044E0000E94910B282F09E0029FF001EE5AF04F35
:1044F00000811181012B29F083959E5F853008F49E
:1045000014CF21968991999108950E943A040091BF
:104510002405002319F0043009F09CC00091250502
:104520000023C1F5009121050130A1F500E00093C1
:104530002105EFE5F3E00281138146E00E94E04DA2
:10454000065101F10C5131F5E5EEFFE000811181DA
:10455000012B01F542E050E028E633E00FEB1FE0CD
:104560000E946C5040916A0350E02BE633E0EFEB81
:10457000FFE0608171810FE91EE0060F171F0E94A6
:104580006C5008C002E51FE0E8E6F3E04DE250E0C1
:104590000E9453500091F00F002309F05BC000917E
:1045A0005A03002329F00093590300E000935A03B3
:1045B00000911E050023D9F000E000931E0504EFD2
:1045C00013E0E9E8F4E045E950E00E94535001E0CF
:1045D0000093200540932305009324054093210573
:1045E0004093220540932505409326050895E5EC68
:1045F000FFE000811181012B69F50091590300232F
:1046000019F0025371F023C0E9E5F3E0039500834C
:104610001DE222E53FE000919D020E94AB0204E60C
:1046200013C04DE250E020E030E002E51FE00E94C0
:104630007A5000E0009359031DE222E53FE000912B
:104640009D020E944B0202E30093F00F089500E0E8
:104650000093590308958A93229742E030E000E9DD
:1046600014EA20E00E94910B00E00093C90780E06B
:1046700007C028E332E009EC17E00E94684A8395FE
:1046800000919F0E8017C8F4EFE9FEE004801580CA
:1046900026803780482F01E010E00E94DA4D212F5C
:1046A000220F220B0022112222223222012802286C
:1046B0000328F9F225E332E0DECF32E023E009EC13
:1046C00017E00E94690B43E030E004EA14EA20E0BE
:1046D0000E94910B00E00093C90780E013C028E31B
:1046E00032E009EC17E00E94684A00910A080817B6
:1046F00041F409EC17E00E94D35013E003950E94A7
:10470000010B83950091A00E8017C8F4EFE9FEE03D
:104710000084118422843384482F01E010E00E9439
:10472000DA4D212F220F220B0022112222223222C7
:1047300001280228032899F225E332E0D2CF33E0A2
:1047400023E009EC17E00E94690B44E030E008EB3D
:1047500014EA20E00E94910B00E00093C90780E07A
:1047600029C0282F30E00091A20E200F331F220F06
:10477000331FF901E156F14F04851585088319832C
:104780000881083E23E013401CF007EE08832983CC
:104790009E0101EF17E00E94FD4821EF37E009EC90
:1047A00017E00E94684A2BE332E009EC17E00E9410
:1047B000684A83950091A10E801798F234E023E0B7
:1047C00009EC17E00E94690B45E030E00CEC14EABC
:1047D00020E00E94910B00E00093C90780E02AC00E
:1047E0002BEA3EE002E0809F200D311D01EF17E033
:1047F0000E94A44921EF37E009EC17E00E94684AC3
:1048000020910A0830E00091A00E10E0080F131F5D
:104810002017310741F409EC17E00E94D35015E04E
:104820000E5F0E94010B2BE332E009EC17E00E94BF
:10483000684A83950091A20E801790F235E023E03C
:1048400009EC17E00E94690B2091A00E30E0009166
:10485000A20E200F331F00910A082017304044F4A5
:104860000091A00E1091A20E010F0A9500930A0864
:104870002296899108958A932297802F023008F01A
:10488000CCC200E00093C90740EE54EA60E009ECB6
:1048900017E00E947D4A40E029ED3EE005E2089FD6
:1048A000200D311D01EF17E00E944A4821EF37E04B
:1048B00009EC17E00E94684A2DE332E009EC17E0AA
:1048C0000E94684A2BEA3EE005E2089FF001E156AB
:1048D000F14F42AD50E00091A20E400F551F440F22
:1048E000551F240F351F01EF17E00E94FD4821EFEF
:1048F00037E009EC17E00E94684A32E020E009EC5A
:1049000017E00E94690B00910A08002321F412E0CD
:1049100003E00E94010B00E00093C90744EF54EA52
:1049200060E009EC17E00E947D4A40E028EE3EE09E
:1049300005E2089F200D311D01EF17E00E944A4853
:1049400021EF37E009EC17E00E94684A33E020E0ED
:1049500009EC17E00E94690B00910A08013021F46C
:1049600013E005E00E94010B00E00093C90748E056
:1049700055EA60E009EC17E00E947D4A20EE3EE037
:1049800005E2089F200D311D01EF17E00E94FD4850
:1049900021EF37E009EC17E00E94684A34E020E09C
:1049A00009EC17E00E94690B00910A08023039F403
:1049B00009EC17E00E94D35014E00E94010B00E0C4
:1049C0000093C90740E355EA60E009EC17E00E9454
:1049D0007D4A22EE3EE005E2089F200D311D01EFE9
:1049E00017E00E94A44921EF37E009EC17E00E948C
:1049F000684A35E020E009EC17E00E94690B00915D
:104A00000A08033039F409EC17E00E94D35015E08E
:104A10000E94010B00E00093C90744E455EA60E0FE
:104A200009EC17E00E947D4A40E02AED3EE005E2F5
:104A3000089F200D311D01EF17E00E94F34721EF81
:104A400037E009EC17E00E94684A36E020E009EC04
:104A500017E00E94690B00910A08043039F409EC50
:104A600017E00E94D35016E00E94010B00E0009373
:104A7000C90748E956EA60E009EC17E00E947D4A60
:104A800040E02DEF3EE005E2089F200D311D01EFD3
:104A900017E00E944A4821EF37E009EC17E00E9436
:104AA000684A36E020E109EC17E00E94690B00E05B
:104AB0000093C90748E555EA60E009EC17E00E9459
:104AC0007D4A40E02EED3EE005E2089F200D311DBD
:104AD00001EF17E00E94F34721EF37E009EC17E000
:104AE0000E94684A37E020E009EC17E00E94690B59
:104AF00000910A08053039F409EC17E00E94D35000
:104B000017E00E94010B00E00093C9074CE655EA4C
:104B100060E009EC17E00E947D4A24EE3EE005E2E9
:104B2000089F200D311D01EF17E00E94A44921EFDD
:104B300037E009EC17E00E94684A38E020E009EC11
:104B400017E00E94690B00910A08063039F409EC5D
:104B500017E00E94D35018E00E94010B00E0009380
:104B6000C90740E855EA60E009EC17E00E947D4A79
:104B700026EE3EE005E2089F200D311D01EF17E013
:104B80000E94A44921EF37E009EC17E00E94684A2F
:104B900039E020E009EC17E00E94690B00910A0857
:104BA000073039F409EC17E00E94D35019E00E9455
:104BB000010B00E00093C90744E955EA60E009EC05
:104BC00017E00E947D4A2DEE3EE005E2089F200D91
:104BD000311D01EF17E00E94A44921EF37E009ECF5
:104BE00017E00E94684A3AE020E009EC17E00E94D2
:104BF000690B00910A08083039F409EC17E00E94AB
:104C0000D3501AE00E94010B00E00093C90748EA64
:104C100055EA60E009EC17E00E947D4A40E02BEE87
:104C20003EE005E2089F200D311D01EF17E00E94D4
:104C3000F34721EF37E009EC17E00E94684A3BE0B8
:104C400020E009EC17E00E94690B00910A08093086
:104C500039F409EC17E00E94D3501BE00E94010BCD
:104C600005E2089FF001EF50F14F00811181228190
:104C7000338140E050E06AE774E40E94404F0E94B4
:104C80008D4E0883198300E00093C9074CEB55EA69
:104C900060E009EC17E00E947D4A40E09E0101EFD0
:104CA00017E00E94F34721EF37E009EC17E00E947C
:104CB000684A3CE020E009EC17E00E94690B009193
:104CC0000A080A3039F409EC17E00E94D3501CE0BE
:104CD0000E94010B05E2089FF001EB50F14F0081AB
:104CE00011812281338140E050E06AE774E40E9440
:104CF000404F0E948D4E0883198300E00093C9073E
:104D000040ED55EA60E009EC17E00E947D4A40E082
:104D10009E0101EF17E00E94F34721EF37E009EC15
:104D200017E00E94684A3CE02CE009EC17E00E9482
:104D3000690B00910A080B3041F409EC17E00E945E
:104D4000D3501CE0045F0E94010B05E2089FF001B4
:104D5000E750F14F008111810883198300E000932F
:104D6000C90744EE55EA60E009EC17E00E947D4A6D
:104D700040E09E0101EF17E00E94F34721EF37E08A
:104D800009EC17E00E94684A3DE020E009EC17E0DA
:104D90000E94690B00910A080C3039F409EC17E005
:104DA0000E94D3501DE00E94010B05E2089FF00114
:104DB000E550F14F008111810883198300E00093D1
:104DC000C90748EF55EA60E009EC17E00E947D4A08
:104DD00040E09E0101EF17E00E94F34721EF37E02A
:104DE00009EC17E00E94684A3DE02CE009EC17E06E
:104DF0000E94690B00910A080D3041F409EC17E09C
:104E00000E94D3501DE0045F0E94010B00910A082C
:104E10000E3018F00DE000930A082296899108954B
:104E2000002309F0A4C100E00093C90740EE54EA52
:104E300060E009EC17E00E947D4A40E025E93FE090
:104E400001EF17E00E944A4821EF37E009EC17E034
:104E50000E94684A2DE332E009EC17E00E94684A9C
:104E600021EB3EE00091950F12E0019F200D311DD6
:104E700001EF17E00E94FD4821EF37E009EC17E051
:104E80000E94684A32E020E009EC17E00E94690BBA
:104E900000910A08002321F412E003E00E94010BB4
:104EA00000E00093C90744EF54EA60E009EC17E022
:104EB0000E947D4A40E021E83FE001EF17E00E94B8
:104EC0004A4821EF37E009EC17E00E94684A33E0D6
:104ED00020E009EC17E00E94690B00910A080130FC
:104EE00021F413E005E00E94010B00E00093C907E4
:104EF00048E055EA60E009EC17E00E947D4A2FE7A0
:104F00003FE001EF17E00E94FD4821EF37E009EC98
:104F100017E00E94684A34E020E009EC17E00E94A4
:104F2000690B00910A08023039F409EC17E00E947D
:104F3000D35014E00E94010B00E00093C90740E742
:104F400056EA60E009EC17E00E947D4A40E022E862
:104F50003FE001EF17E00E944A4821EF37E009ECFB
:104F600017E00E94684A35E020E009EC17E00E9453
:104F7000690B00910A08033039F409EC17E00E942C
:104F8000D35015E00E94010B00E00093C9074CE0EC
:104F900056EA60E009EC17E00E947D4A24E83FE011
:104FA00001EF17E00E94FD4821EF37E009EC17E020
:104FB0000E94684A36E020E009EC17E00E94690B85
:104FC00000910A08043039F409EC17E00E94D3502C
:104FD00016E00E94010B00E00093C90740E256EA88
:104FE00060E009EC17E00E947D4A26E83FE001EF0F
:104FF00017E00E94FD4821EF37E009EC17E00E941E
:10500000684A37E020E009EC17E00E94690B009144
:105010000A08053039F409EC17E00E94D35017E074
:105020000E94010B00E00093C90744E356EA60E0E8
:1050300009EC17E00E947D4A28E83FE001EF17E005
:105040000E94FD4821EF37E009EC17E00E94684A12
:1050500038E020E009EC17E00E94690B00910A0893
:10506000063039F409EC17E00E94D35018E00E9492
:10507000010B00E00093C90748E456EA60E009EC40
:1050800017E00E947D4A2AE83FE001EF17E00E9406
:10509000FD4821EF37E009EC17E00E94684A39E04B
:1050A00020E009EC17E00E94690B00910A08073024
:1050B00039F409EC17E00E94D35019E00E94010B6B
:1050C00000E00093C90744E856EA60E009EC17E005
:1050D0000E947D4A40E02CE83FE001EF17E00E948B
:1050E000F34721EF37E009EC17E00E94684A3AE005
:1050F00020E009EC17E00E94690B00910A080830D3
:1051000039F409EC17E00E94D3501AE00E94010B19
:1051100000E00093C9074CE556EA60E009EC17E0AF
:105120000E947D4A40E024E93FE001EF17E00E9441
:105130004A4821EF37E009EC17E00E94684A3BE05B
:1051400020E009EC17E00E94690B00910A08093081
:1051500039F409EC17E00E94D3501BE00E94010BC8
:1051600000910A08093018F008E000930A08089531
:1051700000910908002349F00A9541F00A9541F091
:105180000A9551F00A9551F0089565CA00E001C0F2
:1051900001E0009306086FCB00E001C001E000933E
:1051A00007083ECE00910908002369F00A9509F42A
:1051B0004AC00A9509F45FC00A9509F481C00A95AE
:1051C00009F4AFC0089501E000935A0300916D0CFB
:1051D000013041F001E000936D0C20E008E61CE096
:1051E0000E94A60C00917C0C002341F000E000938B
:1051F0007C0C20E007E71CE00E94A60C00918B0CC1
:10520000002341F000E000938B0C20E006E81CE056
:105210000E94A60C00919A0C002341F000E000933C
:105220009A0C20E005E91CE00E94A60C0091A90C54
:10523000002309F4B8C000E00093A90C20E004EAC0
:105240001CE00C94A60C02E000935A0300E00093CB
:10525000060800916D0C002341F000E000936D0CF6
:1052600020E008E61CE00E94A60C00917C0C0130B6
:1052700029F201E0BCCF03E000935A0301E0009360
:10528000060800916D0C002341F000E000936D0CC6
:1052900020E008E61CE00E94A60C00917C0C002394
:1052A00041F000E000937C0C20E007E71CE00E9446
:1052B000A60C00918B0C013009F4ACCF01E0A3CF18
:1052C00004E000935A0300E00093070800916D0C7E
:1052D000002341F000E000936D0C20E008E61CE0A4
:1052E0000E94A60C00917C0C002341F000E000938A
:1052F0007C0C20E007E71CE00E94A60C00918B0CC0
:10530000002341F000E000938B0C20E006E81CE055
:105310000E94A60C00919A0C013009F487CF01E09D
:105320007ECF05E000935A0301E000930708009147
:105330006D0C002341F000E000936D0C20E008E6C6
:105340001CE00E94A60C00917C0C002341F000E0C0
:1053500000937C0C20E007E71CE00E94A60C009163
:105360008B0C002341F000E000938B0C20E006E85A
:105370001CE00E94A60C00919A0C002341F000E072
:1053800000939A0C20E005E91CE00E94A60C009115
:10539000A90C013041F001E00093A90C20E004EADF
:1053A0001CE00E94A60C089500E0009309084AE35F
:1053B00050E020E030E00FE91EE00E947A50F2DE7B
:1053C00000E000930A0800930B08089501E00093A1
:1053D0000908E8CE02E000930908E4CE03E0009358
:1053E0000908E0CE04E000930908DCCE00910A0829
:1053F000002321F0EAE0F8E00A9500830091450FD0
:10540000002309F0B5DE089500910A08043620F45F
:10541000EAE0F8E003950083F1CFBA93AA930091F4
:10542000450F002309F46CC200910908002351F0D4
:105430000A9509F462C00A9509F45FC00A9509F457
:10544000D4C15DC200910A081091A00E0117E8F4C2
:1054500040910A0801E010E00E94DA4D212F220F4E
:10546000220BEFE9FEE04085518562857385402778
:10547000512762277227408751876287738700917F
:105480005903009308080AE032C220910A0830E06C
:105490000091A00E201B3040220F331FF901E1566E
:1054A000F14F048515850E3D134088F420910A08BC
:1054B00030E00091A00E201B3040220F331FF90175
:1054C000E156F14F04851585065F1F4F0EC007EEAC
:1054D00013E040910A0850E02091A00E421B50407A
:1054E000440F551FFA01E156F14F048715870091CB
:1054F0005903009308080BE0FAC1009109080A95C6
:105500000093060800910A080E3008F068C1F0E028
:10551000FBBFF2E00F9FF001E253FE4F07901690A1
:10552000F00109942091060805E2029FF001E1567E
:10553000F14F02AD023008F052C1F001E156F14FD7
:10554000039502AF4CC12091060805E2029FF001CD
:10555000E851F14F0081013009F441C121E0F0012F
:10556000E851F14F20833BC12091060805E2029FDC
:10557000F001E052F14F00811181043F11404CF4E1
:10558000F001E052F14F11810F5F1F4F0083118333
:1055900026C124EF31E0F001E052F14F1EC120910D
:1055A000060805E2029FF001EE51F14F00811181E2
:1055B0000E3D134034F4F001EE51F14F1181065FBE
:1055C000E4CF27EE33E0F001EE51F14F06C1209118
:1055D000060805E2029FF001E156F14F03AD14AD5C
:1055E0000E3D13404CF4F001E156F14F14AD065F4F
:1055F0001F4F03AF14AFF3C027EE33E0F001E156C5
:10560000F14F23AF34AFEBC02091060805E2029FB3
:10561000F001E252F14F008111810E3D134024F45C
:10562000F001E252F14FCACF27EE33E0F001E2522F
:10563000F14FD3C02091060805E2029FF001EC5122
:10564000F14F008111810E3D134024F4F001EC5123
:10565000F14FB4CF27EE33E0F001EC51F14FBDC074
:105660002091060805E2029FF001EA51F14F008106
:1056700011810E3D134024F4F001EA51F14F9ECF09
:1056800027EE33E0F001EA51F14FA7C02091060860
:1056900005E2029FF001E351F14F008111810E3DBF
:1056A000134024F4F001E351F14F88CF27EE33E0AB
:1056B000F001E351F14F91C02091060805E2029FED
:1056C000F001E551F14F00811181043F114020F4B8
:1056D000F001E551F14F57CF24EF31E0F001E551F2
:1056E000F14F7BC02091060805E2029FF001EF50C8
:1056F000F14F008111812281338146E656E666E64C
:105700007FE30E94335090F44FE652E163E87AE37E
:105710000E94DF4E6091060845E2469FF001EF507F
:10572000F14F008311832283338359C0F001EF507E
:10573000F14F408341834283738351C02091060817
:1057400005E2029FF001EB50F14F008111812281AF
:10575000338146E656E666E67FE30E94335070F4F6
:105760004FE652E163E87AE30E94DF4E609106085B
:1057700045E2469FF001EB50F14FD3CFF001EB50E3
:10578000F14FD7CF2091060805E2029FF001E750C4
:10579000F14F00811181073E134020F4F001E750E2
:1057A000F14FF1CE27EE33E0F001E750F14F15C095
:1057B0002091060805E2029FF001E550F14F0081BB
:1057C0001181073E134020F4F001E550F14FDBCE8C
:1057D00027EE33E0F001E550F14F20833183009153
:1057E00059030093080804E182C000E00093070811
:1057F00000910A080023C1F00A9501F10A9539F1D8
:105800000A95B1F10A95F9F10A9509F445C00A958E
:1058100009F44BC00A9509F44BC00A9509F44BC032
:105820000A9509F458C05EC00091950F023008F047
:1058300059C0E5E9FFE00395008354C00091810F52
:10584000013009F44FC001E00093810F4BC0EFE736
:10585000FFE000811181043F21E012072CF40F5F6B
:105860001F4F008311833EC004EF008321833AC0A1
:105870000091820F033018F4E2E8FFE0DCCF03E090
:105880000093820F2FC0E4E8FFE000811181043F04
:1058900021E012074CF7E3CFE6E8FFE00081118139
:1058A000043F21E01207DCF2DFCFE8E8FFE0EDCFB4
:1058B000EAE8FFE0EACFACE8BFE0ED91FC913A976F
:1058C00028F4ECE8FFE000811181C9CF0AE010E084
:1058D000ECE8FFE0C6CF0091940F013019F001E031
:1058E0000093940F009159030093080805E1009379
:1058F0005A0308EC10E0E5EEFFE00083118338DC8A
:10590000A991B9910895BA93AA939A938A93009111
:10591000450F002309F481C200910908002351F0CA
:105920000A9509F462C00A9509F45FC00A9509F462
:10593000D3C172C200910A081091A00E0117E8F4B9
:1059400040910A0801E010E00E94DA4D212F220F59
:10595000220BEFE9FEE04085518562857385402783
:10596000512762277227408751876287738700918A
:105970005903009308080AE047C220910A0830E062
:105980000091A00E10E0201B3040220F331FF901C0
:10599000E156F14F848595858A30904078F02091CA
:1059A0000A0830E0201B3040220F331FF901E15676
:1059B000F14F082F0A50048795870EC040910A08BE
:1059C00050E02091A00E421B5040440F551FFA0199
:1059D000E156F14F14871587009159030093080889
:1059E0000BE000935A0308EC13C2009109080A95D2
:1059F0000093060800910A080E3008F067C1F0E035
:105A0000FBBFF2E00F9FF001E651FE4F07901690AA
:105A1000F00109942091060805E2029FF001E15689
:105A2000F14F02AD002309F451C1F001E156F14FED
:105A30000A9502AF4BC12091060805E2029FF001D2
:105A4000E851F14F0081002309F440C120E0F0014A
:105A5000E851F14F20833AC12091060805E2029FE8
:105A6000F001E052F14F008111810D3810404CF0EF
:105A7000F001E052F14F1181015010400083118379
:105A800025C12CE830E0F001E052F14F2083318352
:105A90001DC12091060805E2029FF001EE51F14F71
:105AA000808191818B3090403CF0F001EE51F14FBC
:105AB000082F11810A50E1CF20E0F001EE51F14FA3
:105AC00003C12091060805E2029FF001E156F14F63
:105AD00083AD94AD8B30904054F0F001E156F14F1E
