:020000021000EC
:10E000000C942BFE18951895189518951895189539
:10E010001895189518951895189518951895189598
:10E020001895189518951895189518951895189588
:10E030000C9482FC189518951895189518951895B4
:10E040001895189518951895189518951895189568
:10E050001895189518951895189518951895189558
:10E060001895189518951895189518951895189548
:10E070001895189518951895189518951895189538
:10E0800018951895189518951895189500002CF95D
:10E09000120025F932F925F932F925F93AF93DF955
:10E0A00040F93DF940F93DF93AF925F932F925F9F8
:10E0B00032F925F943F94A040001C4E001A5034AF5
:10E0C000050000006E6F636F6D6D000A0D204176D4
:10E0D0006169626C6520636F6D6D616E64732E2E75
:10E0E0002E0A0D202020202020646F776E6C6F6137
:10E0F000642061746D656761200A0D202020202056
:10E1000020646F776E6C6F61642075736572207028
:10E11000726F6772616D200A0D202020202020720E
:10E12000657365740A0D20202020202070726F74A2
:10E130006563740A0D000A0D2042616420636F6DEF
:10E140006D616E642E2E2E0A0D000A0D205265732D
:10E15000657474696E672E2E2E000A0D2046756C4C
:10E160006C2070726F74656374696F6E20656E6188
:10E17000626C65642E2E2E0A0D000A0D2054657304
:10E180007420636F6D706C6574652E2E2E0A0D0001
:10E190000A0D20546573742E2E2E0A0D000A0D20D0
:10E1A000526561647920666F7220646F776E6C6F60
:10E1B0006164696E6720757365722070726F677233
:10E1C000616D2E2E2E000A0D2057726F6E6720484B
:10E1D000572056657273696F6E2120446F776E6C9D
:10E1E0006F616420636F72726563742066696C6529
:10E1F0000A0D000A0D20446F776E6C6F6164206514
:10E2000072726F72210A0D000A0D20446F776E6CD6
:10E210006F616420697320737563636573736675DA
:10E220006C20636F6D706C6574652E2E2E0A0D0068
:10E230000A0D20526561647920666F7220646F77E1
:10E240006E6C6F6164696E672041746D656C2061EE
:10E2500070706C69636174696F6E20696D61676568
:10E260002E2E2E00000A0D0000000074657374004D
:10E27000000000000000000000000000000000643A
:10E280006F776E6C6F61640000000000000000009A
:10E2900000000061746D656C00000000000000006B
:10E2A00000000000000000757365720000000000AF
:10E2B000000000000000000000000072657365743B
:10E2C00000000000000000000000000000000070DE
:10E2D000726F7465637400000000000000000000AD
:10E2E00000000076657273696F6E00000000000028
:10E2F000000000000000000A0D20436F6E66696791
:10E3000075726174696E67206672616D2E2E2E0AB9
:10E310000D000000000000000000000000000001EF
:10E320002E000A0D0A0D20546F20656E7465722050
:10E33000636F6E736F6C65207072657373204573C5
:10E34000630A0D20546F20636F6E74696E756520CB
:10E35000707265737320456E7465720A0D20446592
:10E36000766963652077696C6C20737461727420C0
:10E37000757020696E203120736563000A0D000AF4
:10E380000D20557365722070726F6772616D204346
:10E390005243206572726F722E2E2E200A0D20506D
:10E3A0006C656173652C20646F776E6C6F6164209F
:10E3B000636F72726563742066696C652E2E000A45
:10E3C0000D20557365722070726F6772616D204306
:10E3D0005243204F6B000A0D0A0D20436865636BA2
:10E3E000696E6720757365722070726F6772616DF8
:10E3F0002E2E2E000A0D204170706C6963617469C5
:10E400006F6E20666C61736820696D61676520437B
:10E410005243206572726F722E2E2E200A0D2050EC
:10E420006C656173652C20646F776E6C6F6164201E
:10E43000636F72726563742066696C652E2E000AC4
:10E440000D204170706C69636174696F6E20666C39
:10E4500061736820696D61676520435243204F6B8B
:10E460000A0D20000A0D20436865636B696E672002
:10E470004170706C69636174696F6E20666C617362
:10E48000682E2E2E000A0D0A0D20426F6F74204C4C
:10E490006F61646572205665722E3033205365704B
:10E4A00074656D62657220323030370A0D20537505
:10E4B00070706F727420464D3331787820776861C0
:10E4C000746368646F672069732061646465640ABB
:10E4D0000D00200A0D20002020000A0D2044617448
:10E4E00065206F66206372656174696F6E2020001D
:10E4F0000A0D2053572056657273696F6E20000A0B
:10E500000D2048572056657273696F6E200000E039
:10E510000093900001E109B908E10AB90EE0009307
:10E52000950000E20CB908E616E0ECE4F8E00083A0
:10E53000118300E0009368060093F80708EF17E0E6
:10E54000E0E2F8E00083118302E218E0EAE4F8E098
:10E550000083118300E000932208E4EAF2E00083E4
:10E5600001830895BA93AA935E9B1AC0ACE4B8E005
:10E57000ED91FC910081002351F05E9AECE4F8E00B
:10E58000A081B1810D91A083B1830CB909C008E6C7
:10E5900016E0ECE4F8E00083118300E000936806E5
:10E5A0005F9B60C00CB10093A60200916806002337
:10E5B00009F058C00091A602085041F00550D9F06A
:10E5C0000E5009F44FC00452B1F036C0EAE4F8E04E
:10E5D000208131812232384009F444C008E055D20C
:10E5E00000E253D208E051D2EAE4F8E00081118160
:10E5F0000150104031C00091A60247D20091A602FE
:10E60000AAE4B8E0ED91FC910083EAE4F8E000812F
:10E6100011810F5F1F4F0083118300E0E081F12F14
:10E62000008323D002E218E0EAE4F8E000831183DB
:10E6300000E00093220816C00091A60226D20091A5
:10E64000A602AAE4B8E0ED91FC910083EAE4F8E0C8
:10E65000008111810F5F1F4F0083118300E0E08173
:10E66000F12F0083A991B99108959A938A9380E03C
:10E6700090E00091220819C02091A602E0E2F8E0A3
:10E6800000811181F8012083E0E2F8E0008111812E
:10E690000F5F1F4F0083118300E0E081F12F0083A3
:10E6A0000196FC01EE5DF74F00810093A6020091F8
:10E6B000A602002341F00D5021F0035111F00F513B
:10E6C000D9F604D0EDCF8991999108958A9380E08D
:10E6D00008EF17E00E9474FC08EF17E072D1009178
:10E6E000A6020D5039F0035109F42CC10F5109F461
:10E6F00048C15CC120EA32E008EF17E00E9453FFF6
:10E70000012B19F421EA32E046C1E4EAF2E000818B
:10E7100011810730104009F047C02FEC32E008EFBC
:10E7200017E00E9453FF012BF9F52CE632E008E6D2
:10E7300016E00E94B5FB01E00093EE0800935B0336
:10E7400000E010E020E030E00E9434F70E94F3FC8B
:10E75000809354080E9422FD009354080E9403F9FC
:10E760000E94CBF5009154080023A1F30A9529F0EB
:10E770000A9551F00A9589F012C10E94B9F724E474
:10E7800032E009C10E94CBF586D10F3F1F4FD1F374
:10E790002FE232E000C10E94CBF57DD10F3F1F4F29
:10E7A000D1F322E032E0F7C0E4EAF2E00081118127
:10E7B0000730104009F055C023EE32E008EF17E0B3
:10E7C0000E9453FF012B09F04CC081E029ED31E09C
:10E7D00008E616E00E94B5FB51D102E000935B030E
:10E7E0000093EE0800E010E021E030E00E9434F7F2
:10E7F0000E94F3FC00E0009354080E9422FD009365
:10E8000054080E9403F90E94CBF50091540800239C
:10E81000A1F30A9529F00A9551F00A9589F01AC0DA
:10E820000E94B9F724E432E011C00E94CBF533D145
:10E830000F3F1F4FD1F32FE232E008C00E94CBF50B
:10E840002AD10F3F1F4FD1F322E032E008E616E055
:10E850000E94B5FB2CE436E008E616E00E9469FF52
:10E860000DD127EA32E008EF17E00E9453FF012B99
:10E87000E1F42CEC31E008E616E00E94B5FB00E084
:10E8800010E020E0E2E5F3E000830183028345E548
:10E8900055E50E948FFBE2E5F3E0008111812281C2
:10E8A0000E9497FB26EB31E076C02BE033E008EFC7
:10E8B00017E00E9453FF012B51F408E20E9492FBE3
:10E8C00026E931E008E616E00E94B5FB6FC02FE1B3
:10E8D00033E008EF17E00E9453FF012B91F481E031
:10E8E000E6E6F6E0008100FD06C000E01EED21E056
:10E8F00030E00E94D8F921EA32E008E616E00E94F2
:10E90000B5FB27EF32E008EF17E00E9453FF012B21
:10E91000A1F426E831E008E616E00E94B5FB01E02C
:10E9200005BF00E005BFE0E6F6E000830183028357
:10E930000383E0E0F0E0099532C0882381F522E707
:10E9400031E029C020EA32E008EF17E00E9453FFCF
:10E950002BEB32E008EF17E00E9453FF012B31F55B
:10E9600007E0E4EAF2E000838183E0E6F6E000817C
:10E9700011812281338117670083118322833383BE
:10E9800015C020EA32E008EF17E00E9453FF012B88
:10E9900069F427E031E008E616E00E94B5FB2CE4BC
:10E9A00036E008E616E00E9469FF68D000E00093B8
:10E9B000F80708EF17E0E0E2F8E00083118389919F
:10E9C00008950E94E3FEEF9761973801B0E0E4EA12
:10E9D000F2E0008111810436104008F04AC020EABC
:10E9E00032E083010E9453FF012B09F442C08301EE
:10E9F0000E9479FF402EA0E048E250E020E030E0A5
:10EA00008E010E940AFF442D50E02A0187EA92E01D
:10EA10004A2F04E110E00E943DFE800F911F9C01EF
:10EA2000A2018E010E94FCFE93018E010E9453FF01
:10EA3000012B89F4B39587EA92E04A2F50E004E174
:10EA400010E00E943DFE800F911F9C018E01085D29
:10EA50001F4F0E9469FFA395A73070F2B13019F0E3
:10EA600020E031E003C09E01285D3F4F83010E94FA
:10EA700069FFEF966196E8E00C94EDFE01C072DD4F
:10EA8000009168060023D9F708950093680600E016
:10EA900000936906F3CF5F9B03C00CB110E00895AB
:10EAA0000FEF1FEF08952FEFF801208321830895C2
:10EAB000F80100811181009510950083118308955C
:10EAC0000E94E7FEFA0180E090E008C0518156956F
:10EAD0004795408351836A9571F401968217930795
:10EAE000B0F4D801A80FB91F4C91608171816427DF
:10EAF0006083718368E0408140FFE8CF042E11807D
:10EB00001694079448E054E840255125E2CFE4E00C
:10EB10000C94F1FE00E00A9323E333E008E616E0EC
:10EB20000E94B5FB0EE8088311E09E010AE019D0AF
:10EB30000AE0088311E09E0109E013D00AE108838E
:10EB400011E09E010BE00DD011E09E0101E016D016
:10EB500008810F73088311E09E0101E002D0219625
:10EB6000089500934A0500E000934B05612FA90129
:10EB700011E02AE435E002ED0C9424F600934A05F6
:10EB800000E000934B05612FA90111E02AE435E074
:10EB900002ED0C9461F62197E1E6F8E00081118125
:10EBA000012B51F408EE13E0008311830AE008837F
:10EBB00011E09E0109E0D5DFD2CFA80100917100DC
:10EBC0000E7F009371000D7F0093710003E31BE241
:10EBD0000E9445FE003138F010E00051104042E044
:10EBE00050E00E945DFE0093700008950091740053
:10EBF0000F70006A01C000680093740008950091CE
:10EC000074000F70006DF8CF01C0A89510917400CA
:10EC100017FFFBCF089500937300009174000F70ED
:10EC2000EACF20917400002311F000E401C000E05D
:10EC30002F70022BE0CF00917100087F089500E94A
:10EC400011E0BBDF04E0D8CF0E94E2FE602E290174
:10EC5000712EDA01862E81E090E0009174000E7F23
:10EC600000937400C3DFD0DF0EEF0621D4DFCCDFCA
:10EC7000E2DF083111F08EE31AC0072D7A940023E9
:10EC800049F0F20101912F01C6DFBEDFD4DF083267
:10EC9000A1F30CC0082D8A94002351F0FD010191CD
:10ECA000DF01B9DFB1DFC7DF0832A1F38DE39EEFEB
:10ECB000A6DF1091740014FDFCCF8C01E9E00C94E8
:10ECC000ECFE0E94E2FE602E2901712EDA01862EF2
:10ECD00081E090E0009174000E7F0093740086DF65
:10ECE00093DF7720D1F0062D0E7F95DF8DDFA3DF38
:10ECF000083119F08EE39EEF26C0072D7A94002389
:10ED000051F0F20101912F0186DF7EDF94DF08329E
:10ED1000A1F38CE3F0CF6ADF77DF682A062D7BDF73
:10ED200073DF89DF003459F08EE39EEF08C0082DB1
:10ED300078DF6ADF00917300FD010193DF01082D88
:10ED40008A940023A1F75BDF1091740014FDFCCFBF
:10ED5000B4CF1091680010FDFCCF11E10024109396
:10ED60006800E89508950E94E8FEEEE4F3E09181E2
:10ED7000A28180E0838784878783808734C0000FE7
:10ED8000111FF801E45BFA4F2081EEE4F3E0078104
:10ED90001085000F111F0F5F1F4FF801E45BFA4F42
:10EDA0001081EEE4F3E021871287E0E6F6E00081CF
:10EDB000118122813381033317472A4A354541F4B3
:10EDC000EEE4F3E0418552858C012A2F0E948FFBEF
:10EDD0008E5F9F4FAF4FEEE4F3E0078110850F5F2A
:10EDE0001F4F0783108707811085003820E0120726
:10EDF00030F21181228100E0048315832683E0E64E
:10EE0000F6E00081118122813381033317472A4ABA
:10EE1000354539F4EEE4F3E00481158126810E9442
:10EE200095FBE0E6F6E00081118122813381033316
:10EE300017472A4A354539F4EEE4F3E00481158199
:10EE400026810E9497FBEEE4F3E00081118122818C
:10EE5000338100501F4F2F4F3F4F00831183228378
:10EE60003383E3E00C94F2FE40E0EEE4F3E043870A
:10EE70004487008311832283338308950E94E7FE31
:10EE8000D801822F00915B03002359F10A9519F0F4
:10EE90000A9559F028C000E000935B03622FAD0192
:10EEA0001EED21E030E023D01EC000E000935B03A4
:10EEB000622FAD011FEDF5CF8A950D91EEE4F3E0E1
:10EEC00023853485F901E45BFA4F0083EEE4F3E037
:10EED000038514850F5F1F4F03871487113008F0D7
:10EEE00042DF882349F700E0E4E00C94F1FE0E9441
:10EEF000E4FE912FA22F2A01662EEEE4F3E00483B4
:10EF00001583268302C00EEF600E662001F1F20128
:10EF100020811181EEE4F3E021871287422F512FE7
:10EF20000481158126810E948FFBEEE4F3E00481C9
:10EF3000158126810E5F1F4F2F4F04831583268373
:10EF400002E0400E00E0501E03E06016E0F680E0B4
:10EF50008C012A2F84839583A6830E9495FBEEE47F
:10EF6000F3E00481158126810E9497FBE7E00C9471
:10EF7000EEFEEEE4F3E003851485012B09F0F3DEE9
:10EF8000E8CE282E822F20E00CC0FA01362F112463
:10EF9000E20FF11D311D3BBF0690F80101928F0178
:10EFA0002395281790F3822D08950E94E7FE289755
:10EFB0000A9549F00A95E9F10A9509F473C00A9592
:10EFC00009F4A8C0E1C024E048E75EED61E070E02C
:10EFD0008E010C5F1F4FD5DF22E04CE75EED61E054
:10EFE00070E08E010E5F1F4FCCDF8E010E9453F543
:10EFF00080E090E0A0E0B0E012C0FC01ABBF069161
:10F0000000935408AE0121E030E004E518E00E94CE
:10F0100060F50E9403F98F5F9F4FAF4FBF4F0C8188
:10F020001D812E813F8180179107A207B30728F326
:10F03000A8C024E048E75FED61E070E08E010C5F5E
:10F040001F4F9FDF22E04CE75FED61E070E08E0133
:10F050000E5F1F4F96DF8E010E9453F580E090E017
:10F06000A0E0B0E015C08C012A2F2395F8012BBF3A
:10F07000069100935408AE0121E030E004E518E069
:10F080000E9460F50E9403F98F5F9F4FAF4FBF4F03
:10F090000C811D812E813F8180179107A207B30744
:10F0A00010F36FC00EE710E00C831D831E831F83D7
:10F0B00022E04EE75EED61E070E08E010E5F1F4FD3
:10F0C00060DF8E010E9453F580E090E0A0E0B0E0A8
:10F0D00017C08C012A2F005012422E4FF8012BBF6F
:10F0E000069100935408AE0121E030E004E518E0F9
:10F0F0000E9460F50E9403F98F5F9F4FAF4FBF4F93
:10F100000C811D812E813F8180179107A207B307D3
:10F1100000F337C00EE710E00C831D831E831F83AE
:10F1200022E04EE75FED61E070E08E010E5F1F4F61
:10F1300028DF8E010E9453F580E090E0A0E0B0E06F
:10F1400017C08C012A2F005011422E4FF8012BBFFF
:10F15000069100935408AE0121E030E004E518E088
:10F160000E9460F50E9403F98F5F9F4FAF4FBF4F22
:10F170000C811D812E813F8180179107A207B30763
:10F1800000F38E010E9458F50881198120E030E0DB
:10F190002896AACE01E005BF02E005BF0E94CDFC83
:10F1A0000E9487F2A79AAF980E941FF60E948AF5E4
:10F1B0000E94CBF503E600934C060FE600934D0644
:10F1C0000EE600934E0604E700934F060FE500930A
:10F1D000500602E6009351060FE600935206009394
:10F1E000530604E7009354060EE30093550600E02F
:10F1F0000093560635E5ECE4F6E0048B058B068BB0
:10F20000378B789408950E94CBF5EFE5F8E0008104
:10F210001181012B49F402E310E0008311839B9BD1
:10F2200002C0AF9A0895AF9808950E94CBF5EFE51C
:10F23000F8E000811181012BA1F400916706ECE850
:10F24000F1E0FBBFF0EE0C949DFE08EC10E0EFE562
:10F25000F8E000831183AF98E7E6F6E000810395BC
:10F260000083089508EC10E0EFE5F8E000831183D7
:10F27000AF9AF2CF08E512E0F7CF00E911E0E7CF4F
:10F2800000E911E0F1CF00E416E0EFE5F8E00083DB
:10F290001183AF9A00E00093670608950E94E7FE8D
:10F2A0002B972883D801832F40E09E018E010F5FAA
:10F2B0001F4F0E94EFFB009154080A3040F0098173
:10F2C00090E0FD01E80FF91F00832A8107C000E3E9
:10F2D00090E0FD01E80FF91F00832981082F10E05D
:10F2E0000F5F1F4FFD01E00FF11F208300E002962A
:10F2F000A80FB91F0C932B96E4E00C94F1FE0E942A
:10F30000E2FE6497422ECA01DB016D8C8E8C21E0F7
:10F31000432F50E060E070E0480F591F6A1F7B1FC9
:10F3200041595F4F6F4F7F4F04E518E00E94C1F7CE
:10F3300030E0209154088E01B1DF4A8221E0462D51
:10F3400050E060E070E0480F591F6A1F7B1F415971
:10F350005F4F6F4F7F4F04E518E00E94C1F733E025
:10F36000209154088E019ADF4D8221E0482D50E013
:10F3700060E070E0480F591F6A1F7B1F41595F4FC3
:10F380006F4F7F4F04E518E00E94C1F736E02091EF
:10F3900054088E0183DF00E008879E0108E616E02E
:10F3A0000E9469FF0E943EF56496EBE00C94ECFE2F
:10F3B0000E94E7FEC801D9012BE335E008E616E01C
:10F3C0000E94B5FB24E0AC01BD0149595F4F6F4F6E
:10F3D0007F4F0EE418E00E94C1F740E02EE438E0D1
:10F3E00008E616E00E9432FC2CE235E008E616E062
:10F3F0000E94B5FB24E0AC01BD0145595F4F6F4F42
:10F400007F4F0EE418E00E94C1F740E02EE438E0A0
:10F4100008E616E00E9432FC26E135E008E616E038
:10F420000E94B5FB06E00A9305E00A9334E0AC01C4
:10F43000BD012FE208E616E062DF23E135E008E6D1
:10F4400016E00E94B5FB00E00A9301E00A9332E067
:10F45000AC01BD012AE308E616E051DF2EE035E0FD
:10F4600008E616E00E94B5FB27E6AC01BD0108E600
:10F4700016E00E94C1F740CF8DDE21EC34E008E6B3
:10F4800016E00E94B5FB20EA34E008E616E00E9490
:10F49000B5FB22E04EE75EED61E070E002E518E0CA
:10F4A0000E94C1F7E2E5F8E000811181ECE4F6E0AA
:10F4B000008F118F03E00E94D5F7E2E5F8E00083AA
:10F4C0001183ECE4F6E0208D318D02171307F9F477
:10F4D00022E04CE75EED61E070E002E518E00E949A
:10F4E000C1F7E2E5F8E000811181ECE4F6E0008F7D
:10F4F000118F01E00E94D5F7E2E5F8E00083118367
:10F50000ECE4F6E0208D318D0217130719F0028D1F
:10F510000160028F028D00FD0CC02BE734E008E68D
:10F5200016E00E94B5FB00E01EED21E030E040DF78
:10F5300006C020E334E008E616E00E94B5FB22E1B5
:10F5400034E008E616E00E94B5FB22E04EE75FEDEE
:10F5500061E070E002E518E00E94C1F7E2E5F8E042
:10F5600000811181ECE4F6E0008F118F04E00E942D
:10F57000D5F7E2E5F8E000831183ECE4F6E0208DB6
:10F58000318D02171307F9F422E04CE75FED61E0DB
:10F5900070E002E518E00E94C1F7E2E5F8E00081C2
:10F5A0001181ECE4F6E0008F118F02E00E94D5F7A4
:10F5B000E2E5F8E000831183ECE4F6E0208D318D84
:10F5C0000217130719F0028D0260028F028D01FDF0
:10F5D0000CC02BEF33E008E616E00E94B5FB00E01C
:10F5E0001FED21E030E0E4DE06C02BEB33E008E65F
:10F5F00016E00E94B5FB0E94CBF528EB33E008E64D
:10F6000016E00E94B5FBECE4F6E004891589268932
:10F6100037892A6A048B158B268B378B028D002342
:10F6200009F068C02EE533E008E616E00E94B5FB5D
:10F6300008EE13E0E7E5F8E00083118308EC10E042
:10F64000E9E5F8E0008311830FC00D3069F401E0B3
:10F6500005BF00E005BFECE4F6E0048B058B068BEC
:10F66000078BE0E0F0E00995CEDD0E94CBF5E7E501
:10F67000F8E000811181012B69F401E005BF00E091
:10F6800005BFECE4F6E0048B058B068B078BE0E00E
:10F69000F0E00995E9E5F8E000811181012B71F4B2
:10F6A0002CE533E008E616E00E94B5FB0E943EF52B
:10F6B00008EC10E0E9E5F8E0008311835F9BD4CF0C
:10F6C0000CB1009354080B3101F628EB33E008E647
:10F6D00016E00E94B5FB2CE436E008E616E00E9436
:10F6E00069FF0E943EF5A8950E94CBF50E94B2F2F8
:10F6F0008ADDF9CF28EB33E008E616E00E94B5FB7F
:10F700002CE436E008E616E00E9469FF0E943EF510
:10F71000A8950E94CBF50E94B2F287DDF9CF0A01CD
:10F7200061E006C0002E69E003C063E001C065E04F
:10F73000F8010CD04FB7F8945BB72BBF609368000B
:10F74000F895FFFF00005BBF4FBF08957091680000
:10F750007170E1F70895FADF05D00EBB1FBB2DBB1A
:10F76000E29AE19AE199FECF08950E94E6FEC8016F
:10F77000D90144240E943EF503C0119644244394C9
:10F780000C910023D9F001E0401671F40C910E5653
:10F7900019F0045019F007C00DE001C00AE0FC01A7
:10F7A0000193CF01119644240C910C5531F3FD01C6
:10F7B0000191DF01FC010193CF01E2CF00E0FC01E8
:10F7C000008308E616E0ECE4F8E0008311830E9471
:10F7D0003EF5E5E00C94F0FEE8E00C94EDFE0E94AE
:10F7E000E3FE23972801D901842F0E943EF5882348
:10F7F000A9F50C9110E020E030E042E0642E43E0F7
:10F80000742E802F4AE050E060E070E00E9471FEAC
:10F81000502F4AE0549F8019FE0150E0E60DF51F7D
:10F8200080836A947A9469F720E000E0FE01E00F9B
:10F83000F51F1081112311F021E002C0222329F0CD
:10F84000105DF20111932F0150830395033070F383
:10F85000222321F400E3F201008351830E943EF54C
:10F860002396BACF0E94E3FE2A972801D901842F5C
:10F870000E943EF58823A1F50D911D912D913C919B
:10F8800049E0642E4AE0742E802F50E060E070E082
:10F890000E9471FE502F4AE0549F8019FE0150E0F3
:10F8A000E60DF51F80836A947A9471F720E000E0FA
:10F8B000FE01E00FF51F1081112311F021E002C0BD
:10F8C000222329F0105DF20111932F01508303953B
:10F8D0000A3070F3222321F400E3F2010083518304
:10F8E0000E943EF52A9678CF08C0213420F02B35AF
:10F8F00010F4205E20830F5F1F4FF8012081222328
:10F90000A1F70895FA93EA932A931A930A932FB7CB
:10F91000E5E5F8E002811381012B31F002811381CA
:10F92000015010400283138304811581012B31F0B3
:10F9300004811581015010400483158306811781CD
:10F94000012B31F006811781015010400683178387
:10F9500000851185012B31F0008511850150104083
:10F960000087118702851385012B31F002851385ED
:10F97000015010400287138704851585012B31F053
:10F980000485158501501040048715872FBF099104
:10F9900019912991E991F991189500E00FBD09E0BD
:10F9A0000EBD00E000937A000CEC1CE11BBD0ABD0B
:10F9B00000E107BF00E00DBD0CBDE5E5F8E0008308
:10F9C00001830283038304830583068307830087FF
:10F9D00001870895E5E5F8E0008711870085118526
:10F9E000012BE1F7089501E010E0E3E6F8E002837F
:10F9F00013831483158305E10E9445F511E002E0AD
:10FA000012D00BE618E0ECEEF8E000831183E0E69C
:10FA1000F6E0008111812281338103630083118329
:10FA20002283338308950093630810936408089534
:10FA300008E10E9445F508E10E9445F508EE13E053
:10FA40000C94EAFC0E94E7FE80E0009163080A95AE
:10FA500049F00A95F9F00A9509F461C0025009F4D9
:10FA60008CC0F2C0E3E6F8E0048115810F5F1F4F00
:10FA700004831583D8011B9718F0DADF82E0E4C015
:10FA800005E10E9445F500EA1FE0E7E5F8E00083A4
:10FA90001183D7C0E7E5F8E000811181012B19F44B
:10FAA00010E001E0D0C00E944BF511230AF4CCC055
:10FAB000209164082A9529F02A9589F02A95C1F0A9
:10FAC000C3C00130180711F412E0BCC0043010406C
:10FAD00009F0BAC006E00E9445F581E0B5C0E3E652
:10FAE000F8E022810217104011F413E0ABC0A9C066
:10FAF000E3E6F8E022814FEF42270417104071F44B
:10FB000010E0168317831093EB0803E08CDF00E10D
:10FB100017E2E7E5F8E00083118396C092C0E7E5BD
:10FB2000F8E000811181012B09F4BACF0E944BF556
:10FB300011230AF489C0E3E6F8E0268137812038F2
:10FB4000380748F02091EB080217104010E009F048
:10FB5000A8CF05E078C0F901ED59F74F0087EBEE2B
:10FB6000F8E01081100F1083E3E6F8E006811781BA
:10FB70000F5F1F4F0683178367C00091EE080023B5
:10FB800009F44DC0013041F41EED21E0EEE4F8E04F
:10FB90008083118322838383023041F41FED21E0AF
:10FBA000EEE4F8E08083118322838383ECEEF8E0B7
:10FBB000A081B181AA58BF4F0C91002371F524E0B8
:10FBC000EEE4F8E0408151816281738149595F4FD1
:10FBD0006F4F7F4F0EE418E00E94C1F7ECEEF8E0A3
:10FBE000A081B181A959BF4F0D911D912D913C91DB
:10FBF000EEE4F8E0408151816281738104171507BA
:10FC00002607370751F008E10E9445F508E10E94F8
:10FC100045F58093EE0803E018C08093EE0820E8D5
:10FC20000BE618E00E943EF7E3E6F8E0028113815C
:10FC30000F5F1F4F028313838483858306E00E9436
:10FC400045F511E002E0EFDE082FE4E00C94F1FE50
:10FC500000008895FECF0EEE0DBF0CE00EBFCFEE7C
:10FC6000DDE00E94FAFE002311F00E9423FF0E94B3
:10FC70003CFA0E9428FE0C9428FE149F102D059F2C
:10FC8000100D049F002D110D089500241124EFE0A4
:10FC9000001F111F001C111C0416150610F0041A79
:10FCA000150AEA95AAF7001F111FA00100951095EB
:10FCB00008955195419550400895FF27552312F41A
:10FCC000F160F7DF112312F4F09507D00E9445FE92
:10FCD000F0FD03D0F1FDEDCF089511950195104091
:10FCE0000895002411241001E0E2EA9592F0001F2B
:10FCF000111F221F331F001C111C221C331C041651
:10FD000015062606370688F3041A150A260A370A46
:10FD1000ECCF001F111F221F331FA001B10100955E
:10FD20001095209530950895779167915791479157
:10FD3000179011FA279037900895F9DF041B10E00F
:10FD400003C0F4DF041B150B20E030E005C0ECDF3E
:10FD5000041B150B260B370BB8F010FC17C047918E
:10FD60000790E00FF11F0417100540E02407340747
:10FD700058F436F406910024F101E01BF0090994CF
:10FD8000E00FF11F27903790F101099411F4D6F795
:10FD9000F1CF31960EF0319650E060E070E047917F
:10FDA0004B3F48F089F34F3F29F04E3F11F07791D8
:10FDB000679157914791041B150B260B370B39F3AD
:10FDC00018F3E7CF8A927A926A925A924A92BA9339
:10FDD000AA939A938A93089588847F806E805D8029
:10FDE0004C80BB81AA8199818881F0E0EC0FFD1FD6
:10FDF000EF01089501E008950D01D80104C0F90153
:10FE000061919F016D93BA0141505040672BB9F742
:10FE1000D0010895F80101C02193BA01415050402A
:10FE2000672BD1F7089520E008D0E9F708953BBF8C
:10FE300027913BB702D0D9F708952D930150104078
:10FE4000202F212B089506EB402E00EE502E01E0CE
:10FE5000602EF201362D6BBE07911691F201EE5F16
:10FE6000FF4F3F4F3BBFA791B691F201362DEC5F9C
:10FE7000FF4F3F4F3BBF479157916691242F252B52
:10FE8000262B21F0FA01362FD2DF01C0CCDF07E0AC
:10FE9000400E00E0501E601EA201662D443C504EF4
:10FEA0006140B8F2089502C02F5F3F4FF8014081D2
:10FEB000F9015081451741F4F80131968F0144232F
:10FEC00099F700E010E00895042F10E0051B1040A2
:10FED00008957B2F0A2EA801D8010F5F1F4FF9014B
:10FEE00061919F016C936623B9F78A01A02DB72F0A
:10FEF0000895F80101C0319620812223E1F7E01B2B
:06FF0000F10B8F010895D2
:040000031000E00009
:00000001FF
