:100000000C94D4301895189518951895189518953E
:100010001895189518951895189518951895189578
:100020001895189518951895189518951895189568
:100030000C94C91718951895189518951895189532
:100040001895189518951895189518951895189548
:100050001895189518951895189518951895189538
:100060001895189518951895189518951895189528
:1000700018951895189518950C945B171895189560
:100080001895189518951895189518956605B7063A
:10009000B706B7066F05B706B706B706B706B706C1
:1000A000B706B706B706B7067A05B706B706B706A6
:1000B000B706B70666059305C1059C05A505AF05FE
:1000C000B805CA05D5050D06E005EB05F7050206DE
:1000D00018063706210642062C064D06580663060A
:1000E000B706B7066C0677068D068106B706B70613
:1000F000A5069906AB08A008B808C408D008CB0824
:10010000DB08E208B909B909B909B909B909B90996
:10011000B909B909F00814090B090209F908B90964
:10012000B909B909B909B909B9093A094209B909B5
:100130001D09E70852095E09200933094A09B9096E
:100140006A097209790981098909900997099E0943
:10015000A509AF09D3093F0BDC09060A3F0B110AB9
:10016000180A3F0B3F0B3F0B3F0B290A360A430A85
:10017000500A5D0A6A0A760A900A830A3F0B3F0B0F
:100180003F0B3F0B3F0B9D0A3F0B3F0BA80AE90AB1
:100190001D0AEC0AF70AB30AC90ADD0A3F0B040B71
:1001A0000A0B100B160B1C0B220B280B2E0B340BFF
:1001B0003A0BBA93AA93A0E3B4E00AEA15E50D93CB
:1001C0001C931197FD0102811381007E2091560836
:1001D000022B0F71107CE5EAF3E022813381207C51
:1001E0003F73022B132BFD010283138304E001876D
:1001F00064E070E0AD01465F5F4F07E61EED21E071
:1002000030E00E94DE1767E070E0AD01425F5F4FB3
:100210000FE61EED21E030E00E94DE1764E070E0A2
:10022000AD014A5E5F4F07E61FED21E030E00E941E
:10023000DE1767E070E0AD01465E5F4F0FE61FED31
:1002400021E030E00E94DE178D01095D1F4FE6E9D5
:10025000F3E00083118300910508FD0100AB9D01CF
:10026000275D3F4FEFEEF7E0890147E050E00E9445
:100270009C330091F607FD0100A70091A80701AB90
:10028000EFE6F7E001A912A9FD0102AB13ABEFE61F
:10029000F7E004851585FD0104AB15AB00919907C6
:1002A00012E0019FF001E159F84F06851785FD0125
:1002B00006AB17AB0FE207C2BA93AA93A0E3B4E070
:1002C0000AEA15E50D931C931197FD010281138134
:1002D000007E20915608022B0F71107CE5EAF3E0B6
:1002E00022813381207C3F73022B132BFD0102837B
:1002F000138304E1048344E150E02FE637E042C178
:10030000BA93AA93602FA0E3B4E00AEA15E50D932F
:100310001C931197FD0102811381007E20915608E4
:10032000022B0F71107CE5EAF3E022813381207CFF
:100330003F73022B132BFD010283138305E2048319
:10034000623045E250E058F429E937E0069F200D7D
:10035000311D8D01075F1F4F0E94B13307C020E0A0
:1003600030E08D01075F1F4F0E94BF33ADC1BA93CC
:10037000AA93A0E3B4E00AEA15E50D931C93119744
:10038000FD0102811381007E20915608022B0F711E
:10039000107CE5EAF3E022813381207C3F73022B5D
:1003A000132BFD01028313830DE204834DE250E021
:1003B00022E138E0E7C0BA93AA9326EB33E0E6E9FE
:1003C000F3E020833183E5EAF3E0228D20930508F2
:1003D00022892093F607238D2093A807248D358D3D
:1003E000EFE6F7E021AB32ABE5EAF3E0268D378D9F
:1003F000EFE6F7E02487358723E020939303A0E31B
:10040000B4E02AEA35E52D933C931197FD01228152
:100410003381207E40915608242B2F71307CE5EAF1
:10042000F3E002811381007C1F73202B312BFD012F
:100430002283338301E147C1BA93AA932EEA33E0C2
:10044000E4E9F3E020833183EFE6F7E0A6EBB3E0E5
:100450004D915D916D917C91408751876287738743
:1004600020E010C032E0239FA5EAB3E0A00DB11D4B
:1004700055964D915C91DF01A00DB11D1C964D93D9
:100480005C9323953381231768F3A0E3B4E02AEA51
:1004900035E52D933C931197FD0122813381207E18
:1004A00040915608242B2F71307CE5EAF3E002815D
:1004B0001381007C1F73202B312BFD01228333839A
:1004C0003FC0BA93AA93023078F445E250E02EEA96
:1004D00033E069E977E0202E05E2029D112D600DE1
:1004E000171F062F0E94B1330DC0BA93AA934DE295
:1004F00050E020E030E002E118E00E94BF3302C08B
:100500000E94B13303E000939303A0E3B4E00AEA4E
:1005100015E50D931C931197FD0102811381007E57
:1005200020915608022B0F71107CE5EAF3E022813E
:100530003381207C3F73022B132BFD010283138335
:1005400000E0C1C0BA93AA93A0E3B4E00AEA15E5BB
:100550000D931C931197E5EAF3E002811381FD01ED
:1005600002831383007E20915608022B0F71209185
:10057000A703207C022B028307E0048347E050E0BE
:100580002FEE37E08D01075F1F4F0E94B1339CC0F3
:10059000BA93AA93A0E3B4E00AEA15E50D931C937D
:1005A0001197FD0102811381007E20915608022BD4
:1005B0000F71107CE5EAF3E022813381207C3F73E8
:1005C000022B132BFD010283138307E0048342E017
:1005D00050E02AEF37E0D6CFBA93AA93A0E3B4E075
:1005E0000AEA15E50D931C931197FD010281138111
:1005F000007E20915608022B0F71107CE5EAF3E093
:1006000022813381207C3F73022B132BFD01028357
:10061000138307E0048342E050E02CEF37E0B2CFD1
:10062000BA93AA9347E050E02EEA33E00FEE17E0CA
:100630000E94B13320E01091F0070091F1070E9471
:1006400046153091F2072091F3071091F4070091BD
:10065000F5070E948B1559CFBA93AA9342E050E058
:100660002EEA33E00AEF17E04BCFBA93AA9342E0A9
:1006700050E02EEA33E00CEF17E042CFA0E3B4E005
:100680004FE050E026EF37E08D01075F1F4F0E94DB
:10069000B1330AEA15E50D931C931197FD01028110
:1006A0001381007E20915608022B0F71107CE5EA21
:1006B000F3E022813381207C3F73022B132BFD0159
:1006C000028313830FE004838D010E94EF06FD0176
:1006D000058316838D010E941207FD010783108791
:1006E000E8E9F3E001E0008300E00383068303E030
:1006F00010E0E1E9F3E000831183A991B991089535
:10070000E5EAF3E001851285043170F422E0129FDE
:10071000A0019F01255F3F4F12E0019F0BE518E00C
:10072000000D111D0E94B1330AEA15E5E0E3F4E083
:100730000083118302811381007E20915608022BD1
:100740000F71107CE5EAF3E022813381207C3F7356
:10075000022B132BE0E3F4E00283138300E0048315
:100760008F010E94EF06E0E3F4E0058316838F011A
:100770000E941207E0E3F4E007831087E8E9F3E062
:1007800001E0008300E00383068303E010E0E1E979
:10079000F3E0008311830895BA93AA93E5EAF3E0A6
:1007A00061857285A0E3B4E02AEA35E52D933C9398
:1007B0001197FD0122813381207E40915608242B20
:1007C0002F71307CE5EAF3E002811381007C1F7316
:1007D000202B312BFD0122833383072F000F04834D
:1007E000643168F402E0709FA00123E838E0609F64
:1007F000200D311D8D01075F1F4F0E94B13364CF63
:10080000BA93AA937FCEBA93AA93E5EAF3E021853F
:1008100020930508A0E3B4E0FD0121872AEA35E52D
:100820002D933C93119722813381207E409156086D
:10083000242B2F71307CE5EAF3E002811381007CE8
:100840001F73202B312BFD012283338301E03BCF2B
:10085000BA93AA9313CFBA93AA934FE050E02EEA2B
:1008600033E006EF17E00E94B13308CFBA93AA93A2
:10087000229742E050E02EEA33E08E010E94B1332D
:10088000E5EAF3E0438550E09F01245F3F4F688134
:1008900079810FE617E0060F171F0E94B133A0E31E
:1008A000B4E00AEA15E50D931C931197FD0102814E
:1008B0001381007E20915608022B0F71107CE5EA0F
:1008C000F3E022813381207C3F73022B132BFD0147
:1008D0000283138300E004838D010E94EF06FD0173
:1008E000058316838D010E941207FD01078310877F
:1008F000E8E9F3E001E0008300E00383068303E01E
:1009000010E0E1E9F3E0008311832296A991B99107
:1009100008958A93229742E050E02EEA33E08E0158
:100920000E94B133E5EAF3E08385482F50E0088167
:1009300019812FE637E0200F311F0CE314E00E94ED
:10094000B13342E050E09E0109E314E00E94B1336C
:10095000E0E3F4E083870AEA15E50083118302816E
:100960001381007E20915608022B0F71107CE5EA5E
:10097000F3E022813381207C3F73022B132BE0E3D1
:10098000F4E0028313838D5F84838F010E94EF065E
:10099000E0E3F4E0058316838F010E941207E0E391
:1009A000F4E007831087E8E9F3E001E0008300E06A
:1009B0000383068303E010E0E1E9F3E000831183A1
:1009C00022968991089500E016E920E030E00E9427
:1009D0000A174BE850E020E030E005EA13E00E94FF
:1009E000BF334BE850E020E030E000E314E00E9429
:1009F000BF3348E050E020E030E008E913E00E9417
:100A0000BF330C9408170E948517E8E9F3E00487C8
:100A10000281102F002319F01A9549F00BC014859C
:100A20001A3A41F000E0E8E9F3E002830895148502
:100A30001535C1F7248510E0E5EAF3E0E00FF11F7A
:100A40002083E8E9F3E0028103950283093051F441
:100A500005EA13E0E7D1E5EAF3E0278130850217E4
:100A6000130701F7E5EAF3E0048110E0085F1F4F88
:100A7000E8E9F3E0228130E0021710400CF077C182
:100A8000328305EA13E0ABD1E5EAF3E02581368154
:100A90000217130709F065C101E0E8E9F3E00183FB
:100AA000E5EAF3E02281138146E0022F0E94FA304A
:100AB000043308F05CC1F0E0FBBFF2E00F9FF001EF
:100AC000E457FF4F07901690F0010994022F0F7121
:100AD00010915608011709F04AC10C94D900022F51
:100AE0000F7110915608011719F0002309F03FC14A
:100AF0000C947418E5EAF3E00185128523853485AA
:100B0000E8E9F3E00087118722873387E7E5F8E01B
:100B100040815181628173814017510762077307D9
:100B200009F025C1E5CF022F0F711091560801176A
:100B300009F01DC10C945C01022F0F711091560831
:100B4000011709F014C100E008C0022F0F711091C5
:100B50005608011709F00BC101E00C948001022F27
:100B60000F7110915608011709F001C102E0F5CF8D
:100B7000022F0F7110915608011709F0F8C003E019
:100B8000ECCF022F0F7110915608011709F0EFC03A
:100B90000C94B701022F0F7110915608011719F02C
:100BA000002309F0E4C00C94DB01022F0F711091B7
:100BB0005608011719F0002309F0D9C00C941C0243
:100BC000022F0F7110915608011719F0002309F038
:100BD000CEC000E00AC0022F0F7110915608011715
:100BE00019F0002309F0C3C001E00C946102022F48
:100BF0000F7110915608011719F0002309F0B7C0C2
:100C000002E0F3CF022F0F7110915608011719F06F
:100C1000002309F0ACC003E0E8CF022F0F71109160
:100C20005608011719F0002309F0A1C00C947502B1
:100C3000022F0F7110915608011709F098C00C94FB
:100C4000A202022F0F7110915608011719F000230C
:100C500009F08DC00C94C802022F0F711091560834
:100C6000011719F0002309F082C00C94EC02022F46
:100C70000F7110915608011719F0002309F077C081
:100C80000C941003022F0F7110915608011719F0E0
:100C9000002309F06CC00C942C03022F0F711091EB
:100CA0005608011719F0002309F061C00C943503B0
:100CB000022F0F7110915608011719F0002309F047
:100CC00056C00C948003022F0F7110915608011723
:100CD00009F04DC00C94CC03022F0F7110915608EF
:100CE000011719F0002309F042C00C940004022FF0
:100CF0000F7110915608011711F0002311F40E9492
:100D00000304E5EAF3E002810F7110915608011720
:100D100011F0002311F40E942B04E5EAF3E00281B4
:100D20000F7110915608011711F0002311F40E9461
:100D30002804E5EAF3E002810F71109156080117CB
:100D400011F0002311F40E943604E5EAF3E0028179
:100D50000F7110915608011711F0002341F40C9403
:100D6000890426EC31E007EB19E00E94122A08956D
:100D7000BA93AA939A938A93E1E9F3E000811181EF
:100D8000012B41F5A8E9B3E0FD0106810023F1F450
:100D90000E9488170023F1F00E9406170E94901706
:100DA000FD01E381F0E0E05DFB4F00810E948217CE
:100DB000FD010381039503838091340490E008963C
:100DC000801790403CF401E0068304C000E00C93DF
:100DD0000E94081789919991A991B9910895AA93B0
:100DE0009A938A932297C8018E010E941B11A0E05A
:100DF0000BC0AE0121E030E08C010A0F131F075F2A
:100E00001F4F0E942811A395FC010481A01788F3AD
:100E10008E010E9420110881198122968991999151
:100E2000A9910895BA93AA939A938A932297C80195
:100E30008E010E941B11DC0187E0AE0121E030E051
:100E40008D010E94281111968A95B9F78E010E9492
:100E50002011088119812296BDCF0E94871800E0D9
:100E60000093D5040E949A1840E150E020E030E061
:100E700006ED14E00C94BF339A928A927A926A92A9
:100E80005A924A921D01BC0148018091D50490E01C
:100E9000682E7724660C771C660C771C660C771C12
:100EA000AAEEB4E0A60DB71DFD01048115810683ED
:100EB000178302811381048315830D911C9111976F
:100EC000FB2F028313838D929C9211970D911C919D
:100ED0001197FB2F22813381020F131F248135814B
:100EE000020F131F26813781020F131F44E050E0C9
:100EF0000E941831880F991F2AEE34E0280F391FFD
:100F00002901F90100AB11ABC401801B910B1AF44C
:100F1000919581959040EAEEF4E0E60DF71D048D81
:100F2000158D068F178F028D138D048F158F008DF1
:100F3000118D028F138F808F918F008D118D228DD7
:100F4000338D020F131F248D358D020F131F268D35
:100F5000378D020F131F44E050E00E941831F20158
:100F600006AB17AB23E0219F302D209F310D80155C
:100F7000930714F4840103C0FD0102811381CB01A6
:100F8000D1014990599069907990899099900895EC
:100F90007A926A925A924A92BA93AA939A938A93AD
:100FA0000E94B518212F220F220B322F0E94C93127
:100FB000A801B9010091D50410E0C801880F991F5C
:100FC000AFE6B7E0A80FB91F000F111F000F111FE8
:100FD000F801E159F84F008D118D228D338D0E945B
:100FE000893228013901FD0104A115A1212F220F09
:100FF000220B322F0E94C931A201B3010E94283274
:101000000E94D631FC01E153FB4F0083118334DF92
:10101000FD0106871787EFECF4E006810395068350
:10102000033020F000E006830E94AF1E0091D5043B
:101030000E949A1889919991A991B99149905990D2
:101040006990799008954AE151E020E030E00BE5A5
:1010500018E00E94BF3300E021E0ECE6F9E00083F5
:1010600001832283038304830895009126050023CE
:1010700089F04AE151E020E030E00BE518E00E9401
:10108000BF3300E021E0ECE6F9E000830183228336
:1010900003832483089500912605002391F04AE1FB
:1010A00051E020E030E00BE518E00E94BF3300E1A2
:1010B00010E021E0ECE6F9E0008311832283138342
:1010C0002483089500E000937009089500910508B5
:1010D0000130F9F0009170090130D9F460E170E05D
:1010E00047E255E0ECE6F9E000811181228133818D
:1010F0000E94DE17ECE6F9E0008111812281338144
:10110000005F1F4F2F4F3F4F008311832283338394
:1011100001D008950E94470B0E948C0C0C94E00BA8
:1011200048814A95403308F024C1F0E0FBBFF2E06B
:101130004F9FF001EC50FF4F07901690F00109947B
:10114000098112E0019FF001E159F84F04851585EE
:1011500020E030E00EC1098112E0019FF001E15969
:10116000F84F06851785212F220F220B322F01C140
:10117000EFE6F7E0048115812681378149810E94DD
:101180003431017010E0E4CFEFE6F7E0008511851F
:1011900022853385F3CF09811A812B813C81E9C0F7
:1011A000098114E0019FF001E555F74F008111819D
:1011B00022813381DEC0098114E0019FF001E550F6
:1011C000F74FF4CFE1E8F3E000811181C1CF29812D
:1011D00030E005E2029FF001E159F84F02A5C7C0D7
:1011E000298105E2029FF001E159F84F01A912A9F6
:1011F000BACF298105E2029FF001E159F84F07A912
:1012000010ADB1CF298105E2029FF001E159F84FFD
:1012100005A916A9A8CF298105E2029FF001E1598D
:10122000F84F03A914A99FCF298130E005E2029F5E
:10123000F001E159F84F01AD9AC00091F607A2CF35
:10124000298105E2029FF001EF54F84F00811181DE
:101250002281338140E050E06AE774E40E948932E1
:101260000E94D63186C0298105E2029FF001EB542D
:10127000F84FECCF298130E005E2029FF001E15503
:10128000F84F74C0298130E005E2029FF001E0557B
:10129000F84F6CC0298130E005E2029FF001E35471
:1012A000F84F64C04981443108F063C002E0409FB8
:1012B000F001E55AF74F0081118155CF4981443142
:1012C00008F057C002E0409FF001E55AF74F00A533
:1012D00011A549CF298130E007E1029FF001EB5AC7
:1012E000F74F44C0298107E1029FF001E15CF74F0D
:1012F000E2CF298130E007E1029FF001EF5BF74F79
:1013000035C0298130E007E1029FF001EE5BF74F25
:101310002DC0298107E1029FF001EC5BF74FCBCF95
:10132000298107E1029FF001EA5BF74FC4CF2981D1
:1013300007E1029FF001E85BF74FBDCF298107E18C
:10134000029FF001E65BF74FB6CF298130E007E15D
:10135000029FF001E45BF74F0081118109C02981F0
:1013600030E007E1029FF001EC5AF74F008110E0F6
:1013700020E0259608955A924A92BA93AA939A9396
:101380008A93C801A22F0E8102500F3208F077C154
:10139000F0E0FBBFF2E00F9FF001EC5AFE4F079028
:1013A0001690F00109940F8112E0019FF001E159BC
:1013B000F84F8487958763C14F8101E010E00E9458
:1013C000F430212F220F220B482F492B4A2B432B7D
:1013D00079F0EFE6F7E04085518562857385402B13
:1013E000512B622B722B408751876287738747C1CD
:1013F000009510952095EFE6F7E0408551856285D0
:1014000073854023512362237223EDCF0F8114E0B3
:10141000019FF001E555F74F808391832283338349
:101420002EC10F8114E0019FF001E550F74FF4CF7A
:10143000E1E8F3E08083118322C14F8002E040168F
:1014400008F01DC105E2049DF001E159F84F82A7A3
:1014500016C14F8002E0401608F011C105E2049D5C
:10146000F001E159F84F85A716A709C14F8002E0A6
:10147000401608F004C105E2049DF001E159F84F5F
:1014800083A714A7FCC04F8002E0401608F0F7C005
:1014900005E2049DF001E159F84F87A710ABEFC0BA
:1014A0004F8002E0401608F0EAC005E2049DF0011A
:1014B000E159F84F82AF13AFE2C04F8002E040160F
:1014C00008F0DDC005E2049DF001E159F84F81AB61
:1014D00012ABD5C04F8002E0401608F0D0C005E244
:1014E000049DF001E159F84F81AFC9C04F8002E07F
:1014F000401608F0C4C005E2049DF001E159F84F20
:1015000083AB14ABBCC04F8002E0401608F0B7C0FC
:1015100005E2049DF001E159F84F87AB10AFAFC071
:101520004F8002E0401608F0AAC005E2049DF001D9
:10153000E159F84F85AB16ABA2C04F8002E04016D0
:1015400008F09DC005E2049DF001E555F84F72CF0B
:101550004F8002E0401608F092C005E2049DF001C1
:10156000E355F84F67CF4F8002E0401608F087C080
:10157000082F0E94C93140E050E06AE774E40E94FD
:10158000023345E2449DF001EF54F84F008311838C
:1015900045CF4F8002E0401608F071C0082F0E942E
:1015A000C93140E050E06AE774E40E94023345E24A
:1015B000449DF001EB54F84FE9CF4F8002E0401614
:1015C00008F05DC005E2049DF001E354F84F80830C
:1015D00056C08093F60753C04F8004E1401608F0D0
:1015E0004EC002E0409EF001E55AF74F23CF4F80F6
:1015F00004E1401608F043C002E0409EF001E55AC5
:10160000F74F80A711A73BC00F810023C1F580933E
:10161000550835C00F81002391F5EFE3F8E00ACFBC
:101620000F81002361F58093410829C00F810023B9
:1016300031F58093420823C00F81002301F5E4E4D3
:10164000F8E0F8CE0F810023D1F4E6E4F8E0F2CE22
:101650000F810023A1F4E8E4F8E0ECCE0F81002331
:1016600071F4EAE4F8E0E6CE0F81002341F4ECE403
:10167000F8E0E0CE0F81002311F4809354088991A3
:101680009991A991B9914990599025960895BA9345
:10169000AA939A938A93E7E2F5E00385083121F44F
:1016A00000E00093700987C0095039F10A9509F4E8
:1016B0004AC00A9509F45EC00A9509F471C00A503F
:1016C00019F00A9569F177C000916B09043108F0AF
:1016D00072C0ACE6B9E04D915D916D917C9114E0E2
:1016E000019FD001A55EB64F4D935D936D937C93A2
:1016F000ABE6B9E00C9103950C9304851585000FBA
:10170000111F000F111F000F111F000F111F30E0DC
:1017100021E0ECE6F9E000831183228333834BC0A0
:1017200000916B09002309F446C0EBE6F9E00A9545
:10173000008314E0019FF001E55EF64F0081118106
:1017400022813381E6CF848595850197880F991F83
:10175000880F991F880F991F880F991FA0E0ECE64A
:10176000F9E00081118122813381080F191F2A1F9E
:101770003A1FD1CF319605E010E00E94A7330E94B6
:101780009008012B022B032BB1F0ECE6F9E000816D
:10179000118122813381005F1F4F2F4F3F4FBBCFFD
:1017A000319605E010E00E94A7330E949008012BBB
:1017B000022B032B51F389919991A991B991089525
:1017C0005A924A92BA93AA939A938A9307E2402E26
:1017D00005E0502EE7E2F5E00385083121F400E052
:1017E0000093700992C000810250D9F10A9549F026
:1017F0000A9501F10A9509F44BC00A9509F45FC0F6
:1018000084C0319605E010E00E94A7330E94900842
:10181000C801D901F201369605E010E00E94A73315
:101820000E949008081719072A073B0714F441E0A3
:101830005EC05CC0319605E010E00E94A7330E94B4
:101840009008C801D901F201369605E010E00E9427
:10185000A7330E94900880179107A207B3073CF3B3
:1018600045C0319605E010E00E94A7330E94900821
:10187000C801D901F201369605E010E00E94A733B5
:101880000E94900880179107A207B30779F5CFCF80
:10189000319605E010E00E94A7330E949008C8012D
:1018A000D901F201369605E010E00E94A7330E94AC
:1018B000900880179107A207B307C4F0B8CF3196FC
:1018C00005E010E00E94A7330E949008C801D901EA
:1018D000F201369605E010E00E94A7330E949008BE
:1018E000081719072A073B070CF0A1CF40E020E0BA
:1018F00030E00BE0400E521EF20105E010E00E94C5
:10190000A733042F10E00E94BB0989919991A991F6
:10191000B9914990599008955A924A92BA93AA93CC
:101920009A938A9307E2402E05E0502EE7E2F5E015
:101930000385083121F400E00093700969C010812B
:101940001A9529F01F5009F11A95F9F161C00A3171
:1019500049F40181063009F05BC0028113810E94C5
:10196000541156C0319605E010E00E94A7330E9442
:101970009008C8010BE0400E00E0501EF20105E0A7
:1019800010E00E94A7338C0141C0319605E010E0C1
:101990000E94A7330E949008C801D901F20136962F
:1019A00005E010E00E94A7330E949008A8010BE018
:1019B000400E00E0501EF20105E010E00E94A73347
:1019C000840F951F2A1F3B1FDECF319605E010E0E4
:1019D0000E94A7330E949008C801D901F2013696EF
:1019E00005E010E00E94A7330E949008A8010BE0D8
:1019F000400E00E0501EF20105E010E00E94A73307
:101A0000841B950BA20BB30B8C019D010E94BB099B
:101A100089919991A991B99149905990089500E0BF
:101A200016E920E030E00E94041807EB19E0E3ED2E
:101A3000FAE00083118300E00093B70900937F0A66
:101A40000FE71AE0E7EAFAE00083118309EA1AE0F7
:101A5000E1EDFAE00083118300E00093A90AE9E5D3
:101A6000F7E0008301830895BA93AA930E94561861
:101A7000002311F1A3EDBAE0ED91FC910081002368
:101A800091F00E945C18A3EDBAE0ED91FC91008109
:101A90000E945E18E3EDFAE0008111810F5F1F4F95
:101AA0000083118309C007EB19E0E3EDFAE000833E
:101AB000118300E00093B7090E945018002309F435
:101AC000F3C00E946018E7E3F5E004A70091B709AE
:101AD000002309F0E9C004A5102F185009F487C0AD
:101AE0001A9509F4BEC01A9509F4DEC0135009F422
:101AF00096C01E5021F0145209F491C0B4C00E9447
:101B000050180023E1F30E946018E7E3F5E004A712
:101B10000E9450180023E1F30E946018E7E3F5E00B
:101B200004A7E1EDFAE0208131811AE0293A3A4038
:101B3000E1F008E00E94621800E20E94621808E0EA
:101B40000E946218E1EDFAE000811181015010401D
:101B50000083118320E0F8012083E1EDFAE0208189
:101B600031811AE0293A3A4021F7E7E3F5E004A58C
:101B7000015419F00A95B1F117C002A5002329F00C
:101B800003A5043010F4039503A723A500E5029FE5
:101B90009F01200D311D26593F4F09EA0E94B22EA8
:101BA00001E0E7E3F5E002A709EA1AE0E1EDFAE077
:101BB000008311830091A90A002309F475C0A1EDE7
:101BC000BAE0ED91FC910081002309F46DC00E9400
:101BD0006218E1EDFAE0008111810F5F1F4F008371
:101BE0001183EDCF03A5002381F20A95CDCFE1ED5E
:101BF000FAE020813181293A3A4009F455C008E0E1
:101C00000E94621800E20E94621808E00E946218B6
:101C1000E1EDFAE000811181015010403EC00E94C8
:101C20006218E7E3F5E004A5A1EDBAE0ED91FC91BF
:101C30000083E1EDFAE0008111810F5F1F4F008307
:101C4000118300E0E091D10AF12F008330D009EA3E
:101C50001AE0E1EDFAE00083118300E00093A90AA5
:101C600023C000E204A7E1EDFAE020813181203DAC
:101C70003A40D0F4E7E3F5E004A50E946218E7E3F8
:101C8000F5E004A5A1EDBAE0ED91FC910083E1ED52
:101C9000FAE0008111810F5F1F4F0083118300E084
:101CA000E091D10AF12F0083A991B99108954A9248
:101CB000BA93AA939A938A9380E090E0A7E3B5E061
:101CC000E6EDF2E730E03BBF079117912691FD0169
:101CD000048B158B268B0091A90A04A785A704897C
:101CE00061A543E0469FE00DF11D028F138F248F05
:101CF00001E0FD0101A718C0E7EAFAE00081F181E7
:101D0000E02F2083E7EAFAE0008111810F5F1F4F87
:101D10000083118320E0F80120830196FC01E75540
:101D2000F54F0081FD0104A724A5222369F0022FAD
:101D30000D5041F0035131F00E5021F00C5011F0D4
:101D40000550D1F641D0E9CF00E003A702A7E9EAA8
:101D5000FAE007C00A3011F00D3011F400E0008302
:101D6000319600810023B1F722ED31E009EA1AE053
:101D70000E94722E0023F9F029EA3AE08D010659FB
:101D80001F4F0E94722E0023B1F0CD0186559E4F49
:101D900004E0402E9C01205530408C010E94B22E60
:101DA000805590404A94B1F729EA3AE0A659BF4FCE
:101DB0008D010E94B22E00E0009331078991999124
:101DC000A991B99149900895BA93AA930FE71AE09F
:101DD0000E94642E0FE71AE0ADD1A7E3B5E0FD0144
:101DE00004A50D5009F4A3C0035141F00E5031F089
:101DF0000C5021F0055009F46CC104C000917F0A19
:101E0000002381F400E000937F0A0FE71AE0E7EA7D
:101E1000FAE000831183A991B9910895FD01048B23
:101E2000158B268BFD01448955896689042F052B66
:101E3000062B41F3FA0176966BBF0691002309F059
:101E400052C02FE73AE08A010E94852E002381F5D7
:101E5000FD012489358901E317E00E949A2E5496EA
:101E6000ED91FD913C9156977C963BBF0791179160
:101E700026913797402F412B422B29F0FD01048BEF
:101E8000158B268BBFCF3BBF0791169120E000300A
:101E9000120741F0F801099523ED31E007EB19E055
:101EA0000E94122A00E0FD01048B058B068BAACF4D
:101EB0005496ED91FD913C9156977F963BBF0791CB
:101EC00017912691302F312B322B09F0A7CF00E04C
:101ED000FD01048B058B068B27ED31E007EB19E044
:101EE0000E94122A9FCF40E020E030E00FE71AE086
:101EF0000E94882AFD0145A554E0459FE00DF11D93
:101F00000083118322833383FD0105A5039505A773
:101F10005496ED91FD913C9156977C963BBF07916D
:101F200017912691302F312B322B89F2A7CF22ED3A
:101F300031E00FE71AE00E940834012B59F423ED39
:101F400031E007EB19E00E94122A5CCFFD01048BFF
:101F5000158B268BFD01448955896689042F052B35
:101F6000062B09F44FCFFA0176966BBF069100233A
:101F700009F088C02FE73AE08A010E94852E0023ED
:101F800009F069C0FD012489358901E317E00E9449
:101F90009A2E5496ED91FD913C9156977C963BBFBD
:101FA0000791179126913797012B022B09F442C014
:101FB00029EE31E007EB19E00E94122A21E337E015
:101FC00007EB19E00E94122A2DEE31E007EB19E031
:101FD0000E94122A5496ED91FD913C9156977C9661
:101FE0003BBF079117912691FD01078B108F218F21
:101FF000012B022BF1F026E032E007EB19E00E9402
:10200000122AFD012789308D07EB19E00E94F41791
:102010005796ED91FD913C9159977C963BBF079166
:1020200017912691FD01078B108F218F012B022B19
:1020300011F732CF3BBF0791F691E02F099500E0F1
:10204000FD01048B058B068B23ED31E007EB19E0D6
:102050000E94122A7FCF5496ED91FD913C915697A4
:102060007F963BBF079117912691302F312B322B52
:1020700009F06CCF00E0FD01048B058B068B27ED8A
:1020800031E05FCF40E020E030E00FE71AE00E944F
:10209000882AFD0145A554E0459FE00DF11D008310
:1020A0001183228333835496ED91FD913C91569791
:1020B00077963BBF0791169120E00030120741F060
:1020C000F801099523ED31E007EB19E00E94122A8F
:1020D000E9CE2CE032E007EB19E00E94122AFD0164
:1020E000048915892689078B108F218F202B212B9E
:1020F00009F425CF26E032E007EB19E00E94122A0E
:10210000FD012789308D07EB19E00E94F4175796DF
:10211000ED91FD913C9159977F963BBF07911791A7
:102120002691FD01078B108F218F012B022B09F4C3
:1021300006CFE0CF5A924A92BA93AA939A938A937F
:10214000C8015524A7E3B5E0FD0104891589268956
:10215000078B108F218F22ED31E08C010E94722EAF
:10216000002309F457C08C010E94C02E402EFD01AF
:102170000789108D218D012B022B09F44BC034E10E
:1021800020E08D01025D1F4F0E94CF2E34E120E040
:102190008D010A5A1F4F0E94CF2EFD012789308DD5
:1021A0008D010A5A1F4F0E94F417442D9D012A5A8F
:1021B0003F4F8D01025D1F4F0E94D72E9C018D0164
:1021C000025D1F4F0E94722E002349F45394FD01BB
:1021D0002789308D8D010E5B1F4F0E94F417FD0182
:1021E0000789108D318DF8017F963BBF07911791BC
:1021F0002691FD01078B108F218F012B022B09F0F7
:10220000BECF01E0501631F4AE5BBF4F9D018C0193
:102210000E94B22E89919991A991B99149905990B2
:1022200008950091B709002329F01EDC0091B70939
:102230000023D9F708952FEFF80120832183089513
:10224000F801008111810095109500831183089594
:102250000D01BC01FA01422F432BD1F0D801C90175
:102260000D912081318120272083318328E0408116
:10227000518156954795008100FF04C008E014E89D
:1022800040275127408351832A9589F7019741F7C9
:10229000CB01D001089508954DE250E020E030E0F8
:1022A00002E118E00C94BF33192E782F18018DE24B
:1022B00098E064E09C01275F3F4F8901FC0149E001
:1022C00050E00E949C3309976A95A1F7E2E1F8E09B
:1022D0002082318204E118E0E3E6F7E047E00E9463
:1022E0009C3303E000939303872F912D0895E7E338
:1022F000F5E00081118122813381012B022B032B18
:1023000031F404811581EFE3F8E00083118308952F
:10231000BA93AA932297E7E3F5E000811181228125
:102320003381012B022B032B09F024C24CEB54E721
:1023300060E007EB19E00E944B2A4CEE56E760E0A4
:1023400007EB19E00E944B2AE7E3F5E02081318199
:1023500007E1039F102D029F110DE02DF12FEC5A84
:10236000F74F0081002321F444E157E760E003C008
:102370004CE357E760E007EB19E00E944B2A4CE47E
:1023800056E760E007EB19E00E944B2A2FE338E0A4
:10239000E7E3F5E04081518107E1059F102D049F9F
:1023A000110D200D311F07EB19E00E94172D44EB92
:1023B00057E760E007EB19E00E944B2A41E025E572
:1023C00038E0E7E3F5E06081718107E1079F102DB8
:1023D000069F110D200D311F07EB19E00E94AE2B57
:1023E00025E232E007EB19E00E94122A2DE737E0E0
:1023F000E7E3F5E04081518107E1059F102D049F3F
:10240000110DE02DF12FEB5AF74F008112E0019FE3
:10241000200D311D07EB19E00E94172DEFE3F8E0C6
:10242000A7E3B5E00D911D91202F07E1019F102D2D
:10243000029F110DE00DF11F068912E0019FD001EE
:10244000A358B84F0D911C9120813181021B130BB1
:102450000883198332F4088111950195104008838F
:1024600019834CED57E760E007EB19E00E944B2A17
:102470009E0107EB19E00E94172D44EE54E760E03F
:1024800007EB19E00E944B2AE7E3F5E02081318158
:1024900007E1039F102D029F110DE02DF12FEF5B3F
:1024A000F74F0081002321F444ED55E760E003C0BD
:1024B0004CEF55E760E007EB19E00E944B2A4CE037
:1024C00055E760E007EB19E00E944B2A40E022E468
:1024D00038E0E7E3F5E06081718107E1079F102DA7
:1024E000069F110D200D311F07EB19E00E94AE2B46
:1024F00044E355E760E007EB19E00E944B2AE7E36D
:10250000F5E02081318107E1039F102D029F110D1D
:10251000E02DF12FED5BF74F0081002339F44CEAF9
:1025200055E760E007EB19E00E944B2AE7E3F5E08E
:102530002081318107E1039F102D029F110DE02DB5
:10254000F12FED5BF74F0081013039F44CE555E791
:1025500060E007EB19E00E944B2AE7E3F5E02081F9
:10256000318107E1039F102D029F110DE02DF12F06
:10257000ED5BF74F0081023039F444E855E760E045
:1025800007EB19E00E944B2A4CED52E760E007EBA5
:1025900019E00E944B2A44E553E760E007EB19E09D
:1025A0000E944B2A24E438E0E7E3F5E040815181C2
:1025B00007E1059F102D049F110D200D311F07EB22
:1025C00019E00E94172D4CE753E760E007EB19E094
:1025D0000E944B2A26E438E0E7E3F5E04081518190
:1025E00007E1059F102D049F110D200D311F07EBF2
:1025F00019E00E94172D44EA53E760E007EB19E069
:102600000E944B2A28E438E0E7E3F5E0408151815D
:1026100007E1059F102D049F110D200D311F07EBC1
:1026200019E00E94172D4CEC53E760E007EB19E02E
:102630000E944B2A2AE438E0E7E3F5E0408151812B
:1026400007E1059F102D049F110D200D311F07EB91
:1026500019E00E94172D4CE154E760E007EB19E008
:102660000E944B2A40E02CE438E0E7E3F5E060818B
:10267000718107E1079F102D069F110D200D311F5D
:1026800007EB19E00E940A2B44E454E760E007EBF3
:1026900019E00E944B2A40E02EE438E0E7E3F5E041
:1026A0006081718107E1079F102D069F110D200D9C
:1026B000311F07EB19E00E940A2B4CE956E760E056
:1026C00007EB19E00E944B2A40E020E538E0E7E301
:1026D000F5E06081718107E1079F102D069F110DC4
:1026E000200D311F07EB19E00E940A2B44EC56E73E
:1026F00060E007EB19E00E944B2A22E538E0E7E3AF
:10270000F5E04081518107E1059F102D049F110DD7
:10271000200D311F07EB19E00E94172D44E657E703
:1027200060E007EB19E00E944B2A40E021E637E029
:10273000E7E3F5E000801180000C111C200D311D35
:1027400007EB19E00E94AE2B4CE857E760E007EB7F
:1027500019E00E944B2A40E022E637E0E7E3F5E08B
:1027600000801180000C111C200D311D07EB19E0B9
:102770000E94AE2B2296A991B99108951D0140E0C7
:10278000602F70E002E418E027E1269F000D111D84
:1027900020914208222339F4F8012285E62FF0E047
:1027A000E55AF84F2383F80120812A9529F02A95CC
:1027B00029F02A9529F005C041E003C042E001C09C
:1027C00044E09B01220F331FEBE5F7E0E20FF31F1C
:1027D00056815417A1F02BE537E0260F371F5523FC
:1027E00039F4D90113965C91552349F4468301C00D
:1027F0007683D8011A960D91D90113960C93068110
:10280000E9EAF8E000837183D10108959A938A93ED
:10281000E5E8F3E040815181452B61F000914C08DF
:10282000EBE5F7E0038300914E0804830091500824
:102830000583A7C04091550852E0459FF001E1593A
:10284000F84F06841784EFE3F8E040815181041AC1
:10285000150A41E0041640E014062CF0EBE5F7E021
:10286000518155234AF011204AF4EBE5F7E08081CD
:1028700091818130904014F041E002C0EBE5F7E037
:10288000428300821182A001E091F607112052F4E8
:102890001194019440E0140AA001EE2329F440E0D1
:1028A00050E002C0E130D9F300905408002009F054
:1028B00068C000904108002009F061C0E091420822
:1028C000EE2339F0EA9591F0EA9519F1EA9591F144
:1028D00047C0E4E4F8E000811181E6E4F8E02081FB
:1028E0003181E8E4F8E0608171813AC0E4E4F8E025
:1028F00020813181EBE5F7E00281002311F08901AD
:10290000ECCFEAE4F8E0608171818901061B170BC6
:10291000E4CFEAE4F8E000801180E4E4F8E000812C
:10292000118100191109E6E4F8E0208131812019B4
:102930003109D7CFEAE4F8E000801180E4E4F8E060
:102940000081118100191109E6E4F8E0208131814C
:1029500020193109E8E4F8E060817181601971099A
:10296000401751078CF04217530774F401E00093AD
:102970004208461757071CF003E00093420800E0A6
:10298000FDDE8991999108954217530794F34617F4
:1029900057077CF702E0F1CF219700E008832CE293
:1029A00032E007EB19E00E94122A0EE8088341E0AA
:1029B00050E09E010AE04ED00AE0088341E050E07A
:1029C0009E0109E047D00AE1088341E050E09E0102
:1029D0000BE040D041E050E09E0101E049D0088189
:1029E0000F73088341E050E09E0101E00DC0219784
:1029F00041E050E09E010BE03BD00881077E088358
:102A000041E050E09E010BE025D0219608952197EA
:102A100041E050E09E010BE02BD008810861EFCF30
:102A2000B80189012AE637E0F90170836183642FD8
:102A3000A80112E002EA0C941619B80189012AE6ED
:102A400037E0F90170836183642FA80112E002EA84
:102A50000C948619602F89012AE637E0F90160831A
:102A600060E06183642FA80111E002ED0C94161957
:102A7000602F89012AE637E0F901608360E0618315
:102A8000642FA80111E002ED0C948619AA939A9381
:102A90008A932497902FA12F822F4AE00E94E6303C
:102AA000102F1295107F2AE0029F092F0019912FF5
:102AB000902B4AE00A2F0E94E630102F1295107FCB
:102AC000029F0A2F0019A12FA02B4AE0082F0E9475
:102AD000E630102F1295107F029F8019182B198352
:102AE000AA839B8302E0088341E050E09E0100E05E
:102AF000B1DF43E050E09E012F5F3F4F02E0AADFCD
:102B000000E0088341E050E09E01A4DF2496899113
:102B10009991A9910895BA93AA939A938A93259724
:102B2000802FB12F922FA32F043608F080E01D30A4
:102B300008F0B0E0203208F090E0383008F0A0E073
:102B40004AE0082F0E94E630102F1295107F2AE0ED
:102B5000029F082F0019812F802B4AE00B2F0E9423
:102B6000E630102F1295107F029F0B2F0019B12F06
:102B7000B02B4AE0092F0E94E630A983102F12954E
:102B8000107F029F9019192B1A83BB838C8302E05C
:102B9000088341E050E09E0100E05CDF44E050E04B
:102BA0009E012F5F3F4F05E055DF00E0088341E0C5
:102BB00050E09E014FDF259689919991A991B99195
:102BC0000895BA93AA93219701E0088341E050E069
:102BD0009E0100E03FDFA3E6B7E047E050E09D0143
:102BE00002E046DF00E0088341E050E09E0132DF72
:102BF0001C9112951F700AE0109F0C910F70000E2F
:102C00000D920C91202F22952F701AE0219F0F70AA
:102C1000000E0D920C91202F22952F70219F0F7086
:102C2000000E0D920C91202F22952F70219F0F7076
:102C3000000E0D920C91202F22952F70219F0F7066
:102C4000000E0D920C91202F22952F70219F0F7056
:102C5000000E0D920C91202F22952F70219F0F7046
:102C6000000E0C9216970FEE17E0FD0147E050E0C2
:102C70000E949C332196A991B99108952197E9E783
:102C8000F3E000811181012B59F408EE13E0008379
:102C900011830AE0088341E050E09E0109E0DADE9A
:102CA000219608955A924A92BA93AA939A938A9334
:102CB0002797002339F00A9509F442C00A9509F4D0
:102CC0006FC032C0290107EE10E00B831C831D8307
:102CD0001E838E010F5F1F4F0E941B1180E090E04A
:102CE000A0E0B0E013C041E050E09E018201080F77
:102CF000191FA3DEAE014F5F5F4F21E030E08E0170
:102D00000E9428118F5F9F4FAF4FBF4F0B811C81D7
:102D10002D813E8180179107A207B30720F38E0112
:102D20000F5F1F4F0E94201109811A8120E030E0BF
:102D3000279689919991A991B991499059900895AF
:102D40000EE710E00B831C831D831E838E010F5F33
:102D50001F4F0E941B1180E090E0A0E0B0E00B81CB
:102D60001C812D813E8180179107A207B307B8F619
:102D700061E070E0AE018C019D01005011422E4FC8
:102D80003F4F0E94DE17AE014F5F5F4F21E030E002
:102D90008E010E9428118F5F9F4FAF4FBF4FDFCF33
:102DA00064E070E0AE014D5F5F4F08E71FED21E08A
:102DB00030E00E94DE178E010F5F1F4F0E941B1133
:102DC00080E090E0A0E0B0E00B811C812D813E818D
:102DD00080179107A207B30708F0A1CF61E070E068
:102DE000AE018C019D01005010402F4F3F4F0E94BB
:102DF000DE17AE014F5F5F4F21E030E08E010E9491
:102E000028118F5F9F4FAF4FBF4FDECF949A089529
:102E10009498089540E050E000561940204030401A
:102E2000C1F1005619402040304089F1005C124148
:102E30002040304051F1005C12412040304019F1F7
:102E4000005C124120403040E1F000581542204023
:102E50003040A9F0005815422040304071F0005039
:102E60001B442040304039F00050114E204030408B
:102E700091F445E010C04BE00EC041E10CC047E1C9
:102E80000AC043E208C04FE206C047E404C04FE86E
:102E900002C04FE151E08C9A94985093980040936F
:102EA000990008E900939A000EE000939D0000E26B
:102EB00000939C0008959A938A93FA93EA933A9226
:102EC0002A921A920A927A936A935A934A933A935D
:102ED0002A931A930A938FB79BB70E9403059BBF4F
:102EE0008FBF09911991299139914991599169910E
:102EF00079910990199029903990E991F9918991E6
:102F00009991189500939C00089500919C00089554
:102F100000919B0006FF02C001E0089500E00895C3
:102F200000919B00006400939B0008950BB30F6019
:102F30000BBB0AB3007F0ABB1F98179A0895C99B61
:102F400002C001E0089500E00895C89B02C001E0BE
:102F5000089500E00895CB9B02C001E0089500E0D1
:102F60000895CA9B02C001E0089500E0089500E0C2
:102F70000FBD09E00EBD00E000937A0003E31BE201
:102F80001BBD0ABD00E00DBD0CBD07B7006107BF4A
:102F900008959A938A93FA93EA933A922A921A920C
:102FA0000A927A936A935A934A933A932A931A937A
:102FB0000A938FB79BB70E94E22E91CF192E282E2D
:102FC00080E0062E072A69F090E0F801E80FF91F6B
:102FD0002BBF0690FA010192AF01839586179707E0
:102FE00098F3822D912D0895AC01C90103C021935E
:102FF0008F010196FC0130E03BBF26912223F801AE
:10300000B1F73083CA01089540E050E000561940FE
:1030100020403040C1F1005619402040304089F135
:10302000005C12412040304051F1005C12412040D0
:10303000304019F1005C124120403040E1F000586E
:10304000154220403040A9F0005815422040304041
:1030500071F000501B442040304039F00050114EB8
:103060002040304091F445E010C04BE00EC041E1FB
:103070000CC047E10AC043E208C04FE206C047E483
:1030800004C04FE802C04FE151E05093900049B9AD
:1030900008E10AB90EE00093950000E20CB908952A
:1030A0005F9B02C001E0089500E008955E9B02C0AE
:1030B00001E0089500E008955E9A08950CB908951E
:1030C0000CB10895E7EBF9E0008300E001830C9474
:1030D000111101E005BF00E005BF08E101BD00E0FE
:1030E00001BD00937400089508E101BD08E001BD31
:1030F000FFCF0E943E16A8950895AF980895AF9A05
:1031000008951F9A08951F98089578940895DF9A56
:10311000D79A07B3076007BBBB9808B3017F08BB0A
:10312000C09A0BB30F780BBB0AB300670ABB02E56A
:103130000DB9089510E0202F235020F029F02A9592
:1031400041F003C0102F01C015E010FB16F4DE9A09
:1031500001C0DE9801FB16F4DD9A01C0DD9802FB88
:1031600016F4DC9A0895DC980895AA93F8940FB1A8
:103170000FB1DF9800E00FB9779BFECF0FB1A02F02
:1031800000E00FB9779BFECF0FB140E020E030E0C8
:10319000E6EEF4E00083A183228323831A2F1695A1
:1031A0000795DF9A78941F70EDEBF4E000831183AC
:1031B0000E94D43150EF6FE775E40E94023340E083
:1031C00050E46CE176E40E9489320E94D631EBEB48
:1031D000F4E000831183A9910895209171002E7F5E
:1031E00020937100209171002D7F20937100A80120
:1031F00003E31BE20E940031003138F010E000517F
:10320000104042E050E00E94183100937000089591
:1032100001C0A8950091740007FFFBCF089500E955
:1032200011E0DBDF04E00093740008958A927A9243
:103230006A925A924A92BA93AA939A938A93602E68
:103240002901712EDA01862E81E090E00091740050
:103250000E7F00937400009174000F70006A009359
:103260007400D6DF0EEF602260927300009174004C
:103270000F70006800937400CBDF00917100087F2D
:10328000083111F08EE32CC0072D7A94002391F0C1
:10329000F20101912F0100937300009174000F70EF
:1032A000006800937400B4DF00917100087F083259
:1032B00059F315C0082D8A94002399F0FD0101915E
:1032C000DF0100937300009174000F700068009399
:1032D00074009EDF00917100087F083259F38DE37E
:1032E0009EEF009174000F70006D009374000091C8
:1032F000740004FDFCCF8C0189919991A991B99139
:103300004990599069907990899008958A927A921B
:103310006A925A924A92BA93AA939A938A93602E87
:103320002901812EDA01762E81E090E0009174006F
:103330000E7F00937400009174000F70006A009378
:10334000740066DF8820D9F1062D0E7F009373008C
:10335000009174000F7000680093740059DF0091B1
:103360007100087F083169F08EE39EEF00917400D0
:103370000F70006D009374000091740004FDFCCF89
:10338000BACF082D8A94002399F0F20101912F0100
:1033900000937300009174000F7000680093740034
:1033A00037DF00917100087F083259F38CE3DDCFDD
:1033B000009174000F70006A0093740029DF682A7E
:1033C00060927300009174000F70006800937400A5
:1033D0001FDF00917100087F003479F08EE39EEFCB
:1033E0000CC000E02F70022B00680093740010DF07
:1033F00000917300FD010193DF01772009F4B6CF3E
:103400007A942091740069F300E4ECCFBA93AA9304
:10341000AFE6B7E04AE250E020E030E08D010E94E4
:10342000BF3306E00D930D9303E00D9301E00C9381
:10343000199605B3007C05BB04B3007C04BB08B33C
:103440000F7008BB07B3006F07BB00916500077ED4
:1034500000936500009164000861009364001B986C
:10346000139AAF98A79A00E010E0009389000093A8
:10347000880003EC00938B0001E000938A00109316
:103480008C00109387001093860010938500109392
:1034900084001D931C93A991B9910895BC01EFE696
:1034A000F7E0008500FF02C0C49A01C0C4980085FF
:1034B00001FF04C000916500006103C00091650038
:1034C0000F7E00936500008502FF02C0C59A01C00F
:1034D000C598008503FF02C0C69A01C0C698008542
:1034E00004FF02C0C79A01C0C798008505FF04C049
:1034F00000916500086003C000916500077F00939C
:10350000650004819D9B02C00E7F01C001600483A1
:1035100004819C9B02C00D7F01C002600483048172
:103520009B9B02C00B7F01C00460048304819A9BB3
:1035300002C0077F01C0086004830481999B02C018
:103540000F7E01C0006104830481989B02C00F7D3F
:1035500001C00062048304851585C8019801043FF9
:1035600001E0300798F404EF11E0021B130B000F89
:10357000111F44E650E00E9400318017910718F4B3
:1035800080E090E00EC0801B910B0BC0245F3140A7
:10359000220F331F890144E650E00E940031800F62
:1035A000911F0FEF13E0081B190B10938700009376
:1035B0008600CB01089500E0009362000093610053
:1035C000009165000B7F009365001D981A9800918B
:1035D0006400046000936400159A129A0895089597
:1035E000E2EAF7E022E000E0008301830587068736
:1035F00003870487B5962A95B1F7EEEFF7E00081CF
:1036000011810D3221E012071CF4043D1E4F1CF401
:1036100000E00083018300E007830895BA93AA9332
:103620009A938A93AFE6B7E04AE450E020E030E0B6
:103630008D01065D1F4F0E94BF334FE250E020E036
:1036400030E08D010C581F4F0E94BF334DE250E017
:1036500020E030E08D010D551F4F0E94BF3306E082
:103660000C93FD01018303E0028301E0038300E08A
:1036700010E020E83FE3048B058B268B378BCD01D0
:103680008B9602E0FC01129324E630E0FC012083DB
:10369000318324EF31E02483358322E330E0228339
:1036A000338328EC2683378332873387308731870B
:1036B00028EE33E02487358711E016872EE130E0CD
:1036C0002787308B2BE9218B328B10E0358B368BA3
:1036D000338B348B4AE057ED63E27CE3478B508FAA
:1036E000618F728F63EA7DE3438F548F658F768F8E
:1036F00023E2278F30A32EE531E021A332A313A3C9
:1037000085960A9509F0BECFFD01E758FF4F358336
:1037100042E050E020E030E08D010C581F4F0E9445
:10372000BF3309E0FD01E758FF4F008308E0FD01CA
:10373000E758FF4F018301E0FD01E758FF4F028387
:1037400002E0FD01E758FF4F038305E0FD01E75864
:10375000FF4F048301E0FD01E758FF4F068300E0BF
:10376000FD01E758FF4F058F41E050E020E030E0D9
:103770008D0107561F4F0E94BF3344E050E020E008
:1037800030E08D0106561F4F0E94BF3341E050E0EC
:1037900020E030E08D0102561F4F0E94BF3344E00D
:1037A00050E020E030E08D0101561F4F0E94BF33F2
:1037B0000CED10E0FD01E053FF4F00831183FD018C
:1037C000E053FF4F128301E0FD01E053FF4F0383FD
:1037D000FD01E053FF4F1483FD01E053FF4F1583BC
:1037E000168309E1FD01E053FF4F0783108702E3D1
:1037F000FD01E053FF4F0187128705E0FD01E05313
:10380000FF4F0387148701E0FD01E053FF4F058759
:10381000168706E9FD01E053FF4F0787108BFD0176
:10382000E053FF4F018B128B05E0FD01E053FF4F8A
:10383000038B148BFD01E053FF4F158B01E0068BCA
:1038400089919991A991B99108959A938A93C80100
:103850000E94F71447EE50E02FE637E08C010E94FB
:1038600010159C0100E00E945216ECE6F7E0008380
:10387000118342E050E09F0189519F4F8C010E94CB
:1038800010150E9407158991999108959A938A932A
:10389000E4E0F8E730E03BBF8791969122E030E02A
:1038A00000E00E945216E5EDFAE00083118342E049
:1038B00050E02CE637E009EE10E00E941D15ECE622
:1038C000F7E000811181E5EDFAE0208131810217F6
:1038D000130709F481E020E031E000E00E94521675
:1038E000E5EDFAE00083118342E050E02CE637E09A
:1038F00007EE11E00E941D15ECE6F7E00081118152
:10390000E5EDFAE0208131810217130709F491E017
:103910008130E9F446E058E760E007EB19E00E94E7
:103920004B2A47EE50E02FE637E002E010E00E941D
:103930001D15992309F047C000E011E086DF46EA33
:1039400058E760E007EB19E00E944B2A3CC0913039
:10395000D1F446E058E760E007EB19E00E944B2AFB
:1039600047EE50E02FE637E000E011E00E941D1521
:1039700046E558E760E007EB19E00E944B2A02E0B9
:1039800010E063DF20C047EE50E02FE637E000E0B4
:1039900011E00E941D1546E459E760E007EB19E0CD
:1039A0000E944B2A46E959E760E007EB19E00E94C4
:1039B0004B2A47EE50E02FE637E002E010E00E948D
:1039C0001D152CDE04D00CDE89919991089502E03A
:1039D00010E03BDF00E011E038CF64E070E047E545
:1039E00058E007E61EED21E030E00E94DE1741E0DE
:1039F00050E026E538E001E10E94381500915608B4
:103A0000003218F000E000935608089541E050E0BD
:103A100026E538E001E10C942A150E9469180E94FD
:103A2000B7170E940F0D0E94E3040E94061A0E941D
:103A3000861D0E94DB1A0E940F190E9479180E94AD
:103A40002D070E9423080E94621E0E944C11C5DFB0
:103A50000C948518E2DF46EF58E760E007EB19E0C9
:103A60000E944B2A13DF0E94EF1A0E94B2290E9483
:103A70004B0827E432E007EB19E00E94122A00ED20
:103A800017E0E5E8F3E0008311830E947918EFE77F
:103A9000F3E000811181012BA1F408EE13E0008313
:103AA00011830AEF10E0EDE8F3E0008311830E9438
:103AB000E1150FEE17E0E3E6F7E047E050E00E9483
:103AC0009C330E9466080E944B11E7E8F3E00081F6
:103AD0001181012B31F404E610E0008311830E9470
:103AE000C8070E944E1A0E94340D0E94611E0E9457
:103AF000061400916E07002341F200919303002306
:103B000021F665DF00E000936E07BFCF0E94961795
:103B1000EBE4F2E000E007A703A705A70895BA9336
:103B2000AA93ABE4B2E00E949F17002331F008E2B1
:103B3000FD0102A300E006A329C0FD0106A10023A8
:103B400081F402A1002369F401E006A305E010E07E
:103B5000E1E8F3E00083118300E213E00D931C938E
:103B60001197FD0106A1023089F40D911C91119766
:103B7000012B61F401E006A305E010E0E1E8F3E0C9
:103B80000083118308EC0D931C9311970E94A517D5
:103B9000002331F008E2FD0103A300E007A329C0E0
:103BA000FD0107A1002381F403A1002369F401E0D2
:103BB00007A305E010E0E1E8F3E00083118300E2F1
:103BC00013E00D931C931197FD0107A1023089F4B6
:103BD0000D911C911197012B61F401E007A305E001
:103BE00010E0E1E8F3E00083118308EC0D931C93EF
:103BF00011970E94AB17002331F008E2FD0104A3E6
:103C000000E000A729C0FD0100A5002381F404A164
:103C1000002369F401E000A705E010E0E1E8F3E02B
:103C20000083118300E213E00D931C931197FD01B3
:103C300000A5023089F40D911C911197012B61F4BC
:103C400001E000A705E010E0E1E8F3E00083118364
:103C500008EC0D931C9311970E94B117002331F0CB
:103C600008E2FD0105A300E001A728C0FD0101A5B0
:103C7000002381F405A1002369F401E001A705E018
:103C800010E0E1E8F3E00083118300E213E00D931C
:103C90001C931197FD0101A5023081F40D911C9137
:103CA0001197012B59F401E001A705E010E0E1E8CC
:103CB000F3E00083118308EC0D931C93A991B99153
:103CC00008950895BA93AA931C0160E04FEA59E061
:103CD00027E839E00FE819E0ABE9B9E08AE997E0B5
:103CE000FC0162937CED1124FC01768317827CE356
:103CF0007787108A77EE072E73E004867587128621
:103D0000138676E9718B128A138A148A158A168AA9
:103D100074E6708311827283138274EF072E71E050
:103D2000048275831686F9011192119211921192F3
:103D30009F01F80111921192119211928F01FA01D3
:103D400011921192AF011D921D921D921D926395C9
:103D50008596623028F2C101A991B9910895FA922D
:103D6000EA92DA92CA92BA92AA929A928A927A9233
:103D70006A925A924A92BA93AA939A938A932D97E7
:103D800000910508013009F41BC205E7C02E09E0C7
:103D9000D02E8601065C1F4F09831A8386010E5CB4
:103DA0001F4F0D831E838601025D1F4F0F831887EF
:103DB00086010A5C1F4F09871A8786010E5D1F4F17
:103DC0000B871C8786010A5D1F4F0B831C837601BE
:103DD00002E1E00E00E0F01EAAE9B7E002E008838D
:103DE000FD010685013019F0033009F09BC1868181
:103DF0009781029112E0019FF001E159F84F068589
:103E00001785801B910BFD0103A1013019F49195D9
:103E1000819590408C01292F220F220B322F0E9476
:103E2000C931280139010D911C911197212F220FC1
:103E3000220B322F0E94C931A201B3010E948932A4
:103E400040E050E068EC72E40E940233F601048323
:103E5000158326833783E981FA81208131818C01A2
:103E6000021B130B212F220F220B322F0E94C9316C
:103E700028013901F6010487158726873787E981EC
:103E8000FA818083918340E050E06CE772E4EB813B
:103E9000FC8100811181228133810E948932480195
:103EA0005901FD0104811581212F220F220B322F90
:103EB0000E94C931A201B3010E948932A401B50157
:103EC0000E94283240E050E060E872E40E94023331
:103ED000EB81FC810083118322833383F601048705
:103EE00015872687378741E050E06AEF76E40E9425
:103EF000943328F040E076EC0E947C3328F4F601FD
:103F00005487558766877787F60184849584A684CD
:103F1000B784840195010E94D631E5E7008B118BAF
:103F200020E030E02083218322832383FD01078565
:103F300010890E94D431A801B90100E010E020E00E
:103F400030E00E94023328013901FD010281138112
:103F5000212F220F220B322F0E94C931A201B3015F
:103F60000E94893240E050E068EC72E40E94023323
:103F700028013901F601008711872287338740E045
:103F800050E060E271E404811581268137810E944E
:103F900089320E94D631C801ED81FE8100831183F0
:103FA00040E050E060E271E4820193010E948932B6
:103FB0000E94D6312801EF81F8850083118340E00B
:103FC00050E060E271E4840195010E9489320E9410
:103FD000D631E985FA8500831183840D951D080F7C
:103FE000191F212F220F220B322F0E94C9314801A5
:103FF000590140E050E060E070E00E947C3328010D
:10400000390110F400E87026FD01078D10A120E0B1
:1040100030E00E94D431A801B901820193010E94CD
:104020007C3328F488249924AA24BB2437C0FD01BA
:1040300001A112A120E030E00E94D431A801B90111
:10404000820193010E947C33FD0128F40788108CC3
:10405000218C328C04C0038C148C258C368CF70197
:10406000408051806280738041E050E060E070E009
:104070003B2D0E94943338F4A201B30180019101D9
:104080000E94283206C0A001B101820193010E9462
:104090006C32F701008311832283338384019501FD
:1040A0000E94D631EB85FC8500831183F7014080A7
:1040B000518062807380820193010E94D631C801D1
:1040C000212F220F220B322F0E94C931A801B901E2
:1040D000820193010E946C32F701008311832283D5
:1040E0003383FD0100851185080F191F0087118793
:1040F0000085083E23E013401CF007EE008721876F
:1041000002851385208531852017310714F4008737
:10411000118704851585208531850217130714F44E
:1041200000871187FB2F0085118523893489021BA5
:10413000130B98011AF4319521953040223040E05C
:1041400030407CF0202F212B61F0013014071CF04F
:1041500021E0258B01C0458B112322F401E0068B61
:1041600002C0458B468B959604E0E00EF41E0B8151
:104170001C810C5F1F4F0B831C830B851C850E5FFE
:104180001F4F0B871C8709851A850E5F1F4F0987F4
:104190001A870F8118850E5F1F4F0F8318870D81B7
:1041A0001E810E5F1F4F0D831E8309811A810E5FD2
:1041B0001F4F09831A8308810A95088309F010CEDE
:1041C0002D9689919991A991B991499059906990A9
:1041D000799089909990A990B990C990D990E990D7
:1041E000F9900895E7E3F5E00081118122813381A0
:1041F000023010402040304078F404811581408125
:10420000518125E2259F302D249F310DE02DF32F84
:10421000E159F84F01AB12AB0895E7E3F5E00081F7
:10422000118122813381023040E014072040304068
:1042300060F44481202F05E2019F102D029F110D93
:10424000E02DF12FE159F84F41AF0895E7E3F5E094
:1042500000811181228133810230104020403040A2
:1042600078F4048115814081518125E2259F302D0C
:10427000249F310DE02DF32FE159F84F05AB16AB1C
:104280000895E7E3F5E00081118122813381023056
:1042900010402040304078F40481158140815181E4
:1042A00025E2259F302D249F310DE02DF32FE1597C
:1042B000F84F07AB10AF0895E7E3F5E000811181F7
:1042C00022813381023010402040304078F4048154
:1042D00015814081518125E2259F302D249F310D8C
:1042E000E02DF32FE159F84F03AB14AB0895E7E34A
:1042F000F5E000811181228133810230104020409D
:10430000304078F4048115814081518125E2259F58
:10431000302D249F310DE02DF32FE159F84F07A7E1
:1043200010AB0895E7E3F5E000811181228133812C
:10433000023010402040304078F4048115814081E3
:10434000518125E2259F302D249F310DE02DF32F43
:10435000E159F84F05A716A70895E7E3F5E00081B6
:10436000118122813381023010402040304078F4A6
:10437000048115814081518125E2259F302D249FA4
:10438000310DE02DF32FE159F84F03A714A708953D
:10439000E7E3F5E00081118122813381023040E0C2
:1043A00014072040304060F44481202F05E2019F33
:1043B000102D029F110DE02DF12FE159F84F42A76A
:1043C0000895BA93AA93A7E3B5E00D911D912D919D
:1043D0003C911397023040E0104020403040E0F420
:1043E000FD0104811581268137810E94D43150E07E
:1043F0006AE774E40E9402334D915D91642F45E2B7
:10440000459F502D469F510DE02DF52FEF54F84F4D
:104410000083118322833383A991B9910895BA93BC
:10442000AA93A7E3B5E00D911D912D913C911397AF
:10443000023040E0104020403040E0F4FD010481B3
:104440001581268137810E94D43150E06AE774E4F7
:104450000E9402334D915D91642F45E2459F502D9E
:10446000469F510DE02DF52FEB54F84F008311833B
:1044700022833383A991B9910895E7E3F5E00081A0
:10448000118122813381023010402040304078F485
:10449000048115814081518125E2259F302D249F83
:1044A000310DE02DF32FE754F84F00831183089569
:1044B000E7E3F5E000811181228133810230104071
:1044C0002040304078F4048115814081518125E2FB
:1044D000259F302D249F310DE02DF32FE554F84F0B
:1044E000008311830895E7E3F5E0008111812281C3
:1044F0003381023040E014072040304060F44481B2
:10450000202F05E2019F102D029F110DE02DF12FAC
:10451000E354F84F408308950E94E71C40E35BE7B3
:1045200060E007EB19E00C944B2A41E027E538E006
:1045300007EB19E00E94042E2CE732E007EB19E0AC
:104540000E94122A41E020EA33E007EB19E00E94C2
:10455000042E2EE732E007EB19E00C94122A27977D
:10456000B8018E01FB0147E050E00E949C3321E836
:1045700032E007EB19E00E94122A60E352E040E0CB
:104580009E012C5F3F4F07EB19E00E94092C2CE79E
:1045900032E007EB19E00E94122A4CED59E760E087
:1045A0002D810AE0029F400D511D07EB19E00E948A
:1045B0004B2A25E832E007EB19E00E94122A60E35B
:1045C00052E040E09E012A5F3F4F07EB19E00E9456
:1045D000092C29E832E007EB19E00E94122A44E591
:1045E0005AE760E02B810AE0029F400D511D07EB66
:1045F00019E00E944B2A2CE832E007EB19E00E94F8
:10460000122A60E352E040E09E012E5F3F4F07EB2D
:1046100019E00E94092C23E932E007EB19E00E941F
:10462000122A60E352E040E09E012F5F3F4F07EB0C
:1046300019E00E94092C23E932E007EB19E00E94FF
:10464000122A60E352E040E09E0107EB19E00E946D
:10465000092C27960895BA93AA938A9322970FEE6E
:1046600017E07DDF40EF58E860E007EB19E00E94BB
:104670004B2A40E026E538E007EB19E00E94AE2B1C
:1046800040E058E860E007EB19E00E944B2A0091F7
:10469000F607002321F440E558E860E003C040EA53
:1046A00058E860E007EB19E00E944B2A40ED5BE719
:1046B00060E007EB19E00E944B2A40E25CE760E013
:1046C00007EB19E00E944B2A40E75CE760E007EB4C
:1046D00019E00E944B2A80E0EFE6F7E02481358163
:1046E000482F01E010E00E94F43020233123232BD7
:1046F00019F025E932E002C028E932E007EB19E0C1
:104700000E94122A8395863038F340EC5CE760E023
:1047100007EB19E00E944B2A80E0EFE6F7E02085E6
:104720003185482F01E010E00E94F430202331232E
:10473000232B19F025E932E002C028E932E007EB2B
:1047400019E00E94122A8395863038F340E15DE734
:1047500060E007EB19E00E944B2AADE7B7E083E089
:104760000D911D91088319839E0107EB19E00E94AA
:10477000172D2CE732E007EB19E00E94122A8A95E8
:1047800079F740E65DE760E007EB19E00E944B2A0D
:104790002BE737E007EB19E00E94AF2D2CE732E062
:1047A00007EB19E00E94122A22968991A991B991EA
:1047B0000895BA93AA938A9340EA5EE760E007EB14
:1047C00019E00E944B2A00917009013039F440EF42
:1047D0005EE760E007EB19E00E944B2A0091700948
:1047E000002339F440E45FE760E007EB19E00E9442
:1047F0004B2A40EE59E860E007EB19E00E944B2A93
:1048000080E0ABE5B8E0082F077039F440E35AE8E0
:1048100060E007EB19E00E944B2A71E065E055E08B
:1048200040E09D0107EB19E00E94702C2CE732E07C
:1048300007EB19E00E94122A83951296843118F32F
:1048400040E25BE860E007EB19E00E944B2A80E061
:10485000A3E8B8E0082F077039F440E35AE860E0B5
:1048600007EB19E00E944B2A71E065E055E040E05B
:104870009D0107EB19E00E94702C2CE732E007EB5A
:1048800019E00E94122A83951296843118F340E8A9
:104890005AE860E007EB19E00E944B2A80E0ABEA9F
:1048A000B8E0082F077039F440E35AE860E007EBFE
:1048B00019E00E944B2A70E063E058E041E09D015E
:1048C00007EB19E00E94702C2CE732E007EB19E0AF
:1048D0000E94122A83951496843118F340ED5AE809
:1048E00060E007EB19E00E944B2A80E0ABEFB8E0F4
:1048F000082F077039F440E35AE860E007EB19E04D
:104900000E944B2A70E063E058E041E09D0107EB14
:1049100019E00E94702C2CE732E007EB19E00E94AE
:10492000122A83951496883018F38991A991B99128
:10493000089522972BE932E007EB19E00E94122A32
:1049400000E00883288109E0029FF001EE5EF74F46
:1049500000811181012B09F4B8C026EA32E007EB8F
:1049600019E00E94122A40E09E0107EB19E00E9424
:10497000AE2B2DEA32E007EB19E00E94122A20EB61
:1049800032E007EB19E00E94122A288109E0029F19
:10499000F001EE5EF74F0181098360E352E041E0F0
:1049A0009E012F5F3F4F07EB19E00E94092C2881E1
:1049B00009E0029FF001EE5EF74F0081098360E39A
:1049C00052E041E09E012F5F3F4F07EB19E00E944C
:1049D000092C2CE732E007EB19E00E94122A60E371
:1049E00052E040E028E138E0288009E0029D200DF7
:1049F000311D07EB19E00E94092C26EB32E007EB92
:104A000019E00E94122A4FE95AE760E0288109E084
:104A1000029FF001E75EF74F208105E0029F400D05
:104A2000511D07EB19E00E944B2A25E832E007EB05
:104A300019E00E94122A60E352E040E02AE138E0E7
:104A4000288009E0029D200D311D07EB19E00E942E
:104A5000092C2CE732E007EB19E00E94122A60E3F0
:104A600052E040E026E138E0288009E0029D200D78
:104A7000311D07EB19E00E94092C2AEB32E007EB0D
:104A800019E00E94122A60E352E040E025E138E09C
:104A9000288009E0029D200D311D07EB19E00E94DE
:104AA000092C2AEB32E007EB19E00E94122A60E39E
:104AB00052E040E024E138E0288009E0029D200D2A
:104AC000311D07EB19E00E94092C0881039508832A
:104AD000053008F437CF229608955A924A92BA9335
:104AE000AA939A938A932297402E40E95FE760E069
:104AF00007EB19E00E944B2A40E756E860E007EB1D
:104B000019E00E944B2A552405E2049D8FE697E0A8
:104B1000800D911DDC019A962DE737E00C9112E093
:104B2000019F200D311D07EB19E00E94172D40EE6B
:104B30005FE760E007EB19E00E944B2A9C012F5CC5
:104B40003F4F07EB19E00E94172D40E350E860E06B
:104B500007EB19E00E944B2AFD010785002339F07D
:104B60000A9541F00A9561F00A9539F00FC02CEBD7
:104B700032E008C025EC32E005C02DEC32E002C086
:104B800025ED32E007EB19E00E94122A40E850E8D8
:104B900060E007EB19E00E944B2A41E09D0107EB22
:104BA00019E00E94AE2B2FED32E007EB19E00E94D6
:104BB000122A40ED50E860E007EB19E00E944B2A12
:104BC0009C01255D3F4F07EB19E00E94672B40E7F2
:104BD00051E860E007EB19E00E944B2A9C01235D3D
:104BE0003F4F07EB19E00E94672B40E251E860E07D
:104BF00007EB19E00E944B2A9C01215D3F4F07EB18
:104C000019E00E94672B40EC51E860E007EB19E0E7
:104C10000E944B2A40E09C01265C3F4F07EB19E0C5
:104C20000E940A2B40EF53E860E007EB19E00E9476
:104C30004B2A9C012B5C3F4F07EB19E00E94AF2DE4
:104C400040E454E860E007EB19E00E944B2A9C0125
:104C5000295C3F4F07EB19E00E94AF2D40E954E873
:104C600060E007EB19E00E944B2A9C012D5C3F4F4E
:104C700007EB19E00E94AF2D40E355E860E007EB39
:104C800019E00E944B2A40E09C01245C3F4F07EB57
:104C900019E00E940A2B40E855E860E007EB19E0B4
:104CA0000E944B2A9C01225C3F4F07EB19E00E94B7
:104CB000AF2D40ED55E860E007EB19E00E944B2A6C
:104CC00040E09C01205C3F4F07EB19E00E94AE2BB7
:104CD00040E256E860E007EB19E00E944B2A40E012
:104CE0008F5B9F4F9C0107EB19E00E94AE2BFD01EB
:104CF000008D118D228D338D40E050E06AE774E421
:104D00000E9489320E94D6310883198340E157E816
:104D100060E007EB19E00E944B2A40E09E0107EBA0
:104D200019E00E940A2BFD01048D158D268D378D0B
:104D300040E050E06AE774E40E9489320E94D63174
:104D40000883198340E657E860E007EB19E00E940A
:104D50004B2A40E09E0107EB19E00E940A2BFD015F
:104D600000A111A10883198340E459E860E007EB32
:104D700019E00E944B2A40E09E0107EB19E00E94D7
:104D80000A2BFD0102A113A10883198340E959E808
:104D900060E007EB19E00E944B2A40E09E0107EB20
:104DA00019E00E940A2B40E75BE860E007EB19E09E
:104DB0000E944B2AFD0104A1002321F440EC5BE892
:104DC00060E003C040E15CE860E007EB19E00E94AE
:104DD0004B2A2EE732E007EB19E00E94122A21EE5F
:104DE00032E007EB19E00E94122A440C551C27EA16
:104DF00039E0240D351D07EB19E00E94672B2CEEDE
:104E000032E007EB19E00E94122A23EA39E0240D70
:104E1000351D07EB19E00E94672B27EF32E007EB07
:104E200019E00E94122A2BEA39E0240D351D07EB08
:104E300019E00E94672B22E033E007EB19E00E94A3
:104E4000122A27E939E0240D351D07EB19E00E94ED
:104E5000672B229689919991A991B991499059907E
:104E60000895F9CBE7E3F5E00081118122813381D8
:104E7000023010402040304008F42FCE2EE033E0C6
:104E800007EB19E00C94122A0895BA92AA929A920A
:104E90008A924A92BA93AA939A938A93A7E3B5E027
:104EA0000D911D912D913C911397012B022B032BFA
:104EB00049F00D9112961397013010402040304078
:104EC00009F06CC08FEB94E0FD01048115814D91D8
:104ED0001296139722E0429FFC01E00DF11D008322
:104EE000118321E233E007EB19E00E94122A0D91B1
:104EF0001296139712E0019F800D911D9C0107EB04
:104F000019E00E94172D2AE333E007EB19E00E9415
:104F1000122A2FE433E007EB19E00E94122A00E086
:104F20000E949A18442436C004E610E00E94C8305B
:104F30000E94B51802E0409EC001EBEBF4E0408116
:104F400051810D9112961397202F06E0029FE3ECFA
:104F5000F4E0E00DF11DE80FF91F40835183042DAB
:104F600003950E949A180D9112961397202F06E030
:104F7000029F23EC34E0200D311D280F391F07EB71
:104F800019E00E94172D25E533E007EB19E00E9498
:104F9000122A439400917107401630F20D911D9131
:104FA0002D913C911397013040E010402040340790
:104FB00009F04CC0EFEBF4E00281138120813181D4
:104FC000021B130B212F220F220B322F0E94C931FB
:104FD00048015901442400917107401608F0E3C0CC
:104FE000842D90E0242D30E0220F331FF901ED5382
:104FF000FB4F06811781F901ED53FB4F2081318171
:10500000021B130B212F220F220B322F0E94C931BA
:1050100040E050E060E87FE30E947C3320F400E051
:1050200010E020E83FE3A801B901840195010E9446
:105030000233880F991F880F991FFC01E159F84F1F
:10504000008F118F228F338F4394C5CF11961D91FE
:105050002D911397023010402040304009F0A3C03A
:10506000FD0104811581EFEBF4E00083118321E25F
:1050700033E007EB19E00E94122A2FEB34E007EB34
:1050800019E00E94172D2AE333E007EB19E00E9494
:10509000122A2FE433E007EB19E00E94122A00E005
:1050A0000E949A1844243EC004E610E00E94C830D2
:1050B0000E94B518242C3324042D10E0000F111F7A
:1050C000A3ECB4E0A00FB11FEBEBF4E00081118181
:1050D000212F220F220B322F0E94C931A801B901C2
:1050E000220C331C220C331CF101E159F84F008DC6
:1050F000118D228D338D0E9489320E94D631FD019F
:1051000000831183042D03950E949A189D0107EBDB
:1051100019E00E94172D25E533E007EB19E00E9406
:10512000122A439400917107401608F4BDCF44241D
:1051300013C002E0409EEFEBF4E000811181F0012A
:10514000ED53FB4F20813181021B130BF001E1591C
:10515000F84F04A315A3439400917107401648F338
:1051600028E533E007EB19E00E94122A2FE433E030
:1051700007EB19E00E94122A442411C023E937E00A
:1051800002E0409E200D311D07EB19E00E94172D13
:1051900025E533E007EB19E00E94122A43940091C1
:1051A0007107401658F389919991A991B991499045
:1051B00089909990A990B9900895E7E3F5E000816E
:1051C000118122813381033000E0104020403040C3
:1051D00038F040EC56E860E007EB19E00C944B2AFD
:1051E00020E83FE340815181440F551F440F551F74
:1051F000FA01E159F84F008F018F228F338FE7E3D7
:10520000F5E040815181440F551FFA01E159F84FF3
:1052100004A305A30895E7E3F5E030812481108518
:1052200004850C948B15E7E3F5E02085148100815B
:105230000C94461501E00093ED0703E000939303FF
:10524000089500E0F8CF4A928A93E7E3F5E0808181
:10525000118122813381082F44244AE050E060E02C
:1052600070E00E944431402F0AE02224039F302D39
:10527000029F202D310D019F102D210D321D049F05
:10528000002D110D221D321D8019442D50E0419535
:105290005040FA01E951F84F80834AE050E060E065
:1052A00070E00E944431802F439445E04416A8F2F8
:1052B00003E0009393038991499008954A928A9359
:1052C000E7E3F5E08081118122813381082F4424B6
:1052D0004AE050E060E070E00E944431402F0AE074
:1052E0002224039F302D029F202D310D019F102D70
:1052F000210D321D049F002D110D221D321D80191C
:10530000442D50E041955040FA01E451F84F80831C
:105310004AE050E060E070E00E944431802F439406
:1053200045E04416A8F2C4CF00E00093240208959B
:10533000E7E3F5E00081118122813381012B022B0B
:10534000032B51F00081003110402040304020F408
:10535000009356080C94061D23E633E007EB19E092
:105360000C94122A229700E00093260520E030E0FA
:1053700001E00E945216E5EDFAE00083118362E03D
:1053800070E0AE010EE71FED21E030E00E94DE1775
:1053900008811981E5EDFAE02081318102171307B8
:1053A00041F040E053E860E007EB19E00E944B2A2F
:1053B00033C020E030E002E00E945216E5EDFAE052
:1053C0000083118362E070E0AE010CE71FED21E085
:1053D00030E00E94DE1708811981E5EDFAE02081B6
:1053E00031810217130721F040E553E860E0DCCF7C
:1053F00040EA53E860E007EB19E00E944B2A67E6B9
:1054000070E047EB59E000E01FED21E030E00E9442
:10541000DE1701E000932605229608950E940E1BD8
:105420000C94E71C4A92BA93AA939A938A93C80160
:10543000D90144240E9411110C91002391F400E041
:10544000FC01008307EB19E0E3EDFAE00083118330
:105450000E9411113BC30AE0FC010193CF01119698
:1054600044240C910C3581F41196442443941C91EE
:10547000112329F301E04016A1F71E5619F014502C
:1054800051F3EECF0DE0E8CFFD013196DF01FC01D5
:105490000193CF01ECCF5A924A92BA93AA939A936E
:1054A0008A932801DA01962F80E00E941111FD01F4
:1054B0009BBF0691002391F400E0F201008307EB0B
:1054C00019E0E3EDFAE0008311830E94111101C29B
:1054D0000AE0F20101932F01119680E0FD0106918F
:1054E0000C3581F4119681E0FD019BBF16911123CB
:1054F00019F3813099F71E5619F0145049F3EDCF86
:105500000DE0E7CF0791DF01F20101932F01ECCF0E
:10551000BA93AA939A93382E080150E040E060E0D5
:1055200000E010E020E030E0F00170817D3289F48D
:1055300061E031960EC08134F8F08734E8F441E040
:1055400090E0C797A92FAA0FAA0B080F191F2A1FAF
:105550003A1F7081772309F44FC05523A9F54423DE
:1055600039F4783711F0783519F451E031962EC0BE
:10557000703310F07A3328F000E010E020E030E0E3
:1055800044C08AE02224839FB02D829FA02DB10DBC
:10559000819F902DA10DB21D809F910DA21DB21D66
:1055A000002D192F9D01872F90E0C097A92FAA0FDA
:1055B000AA0B080F191F2A1F3A1F702F712B722B6D
:1055C000732B09F041E0B5CF5130F1F744E00E9470
:1055D0002C318191803330F08A3320F441E090E027
:1055E000C097B0CF813608F4A6CF873628F641E0C1
:1055F00090E087559040A6CF613039F41095209502
:10560000309501951F4F2F4F3F4F832D9991A991B1
:10561000B99108954A92BA93AA939A938A93259737
:10562000D801C901442E0E941111442079F5FC01D2
:105630000081118120E030E084E095E0402E4AE0D6
:1056400050E060E070E00E944431502F4AE0549FE7
:105650004018FE0150E0E80FF51F40828A959A95A8
:1056600069F710E0FE0105E02191222311F011E01D
:1056700002C0112319F0205D2D935C930A95A1F7C8
:10568000112321F500E30D935C9320C001E0401647
:10569000E9F40196FC0112E0008102950F700A30D6
:1056A00010F4005D01C0095C0C9300E011960C93AE
:1056B00000810F700A3010F4005D01C0095C0C938A
:1056C00000E011960C9331971A9531F7FEC14A927A
:1056D000BA93AA939A938A932597D801C9010E94F5
:1056E0001111FC0100811181212F220F220B322F79
:1056F0005AF410952095309501951F4F2F4F3F4F2D
:105700004DE24D9340E04C9384E095E0402E4AE01A
:1057100050E060E070E00E946731502F4AE0549FF3
:105720004018FE0150E0E80FF51F40828A959A95D7
:1057300069F710E0FE0105E02191222311F011E04C
:1057400002C0112319F0205D2D935C930A95A1F7F7
:10575000112319F400E30D935C93B7C14A92BA93F5
:10576000AA939A938A932397D801C901442E0E9441
:105770001111442079F5FC01008110E020E030E0B7
:1057800082E093E0402E4AE050E060E070E00E944A
:105790004431502F4AE0549F4018FE0150E0E80F7A
:1057A000F51F40828A959A9569F710E0FE0103E0A3
:1057B0002191222311F011E002C0112319F0205D84
:1057C0002D935C930A95A1F71123F9F400E30D934F
:1057D0005C931BC001E04016C1F4FC0100810295FE
:1057E0000F700A3010F4005D01C0095C0C9300E0FA
:1057F00011960C9300810F700A3010F4005D01C007
:10580000095C0C9300E0FD0101830E9411112396B5
:105810005DC15A924A92BA93AA939A938A93239714
:10582000D801C901442E562E0E941111442099F529
:10583000FC01008110E020E030E00A3010F45D92BD
:105840001C9382E093E0402E4AE050E060E070E07C
:105850000E944431502F4AE0549F4018FE0150E00E
:10586000E80FF51F40828A959A9569F710E0FE01CE
:1058700003E02191222311F011E002C0112319F05D
:10588000205D2D935C930A95A1F71123F9F400E3B1
:105890000D935C931BC001E04016C1F4FC01008134
:1058A00002950F700A3010F4005D01C0095C0C9382
:1058B00000E011960C9300810F700A3010F4005D27
:1058C00001C0095C0C9300E0FD0101830E941111ED
:1058D000239689919991A991B991499059900895E8
:1058E0009A928A926A925A924A92BA93AA939A93F5
:1058F0008A932A97D801C901442E952E662E572ED9
:105900000E941111062D0A9559F00A9579F00A9511
:1059100009F10A9579F00A95A9F00A95D9F07CC0A9
:10592000FC01008110E020E030E019C0FC010081A2
:105930001181F9CFFC010081102F110F110B212FC4
:10594000312F0DC0FC0100811181212F220F220B6C
:10595000322F05C0FC01008111812281338141E099
:10596000541691F4332312F44DE201C04BE24C93F0
:1059700040E011964C9333233AF4109520953095DE
:1059800001951F4F2F4F3F4F442011F5992091F063
:10599000CE01892C402E4AE050E060E070E00E9489
:1059A0006731502F4AE0549F4018FC014192CF01CB
:1059B0008A9481F7292D992069F1FE0130E0E20FE8
:1059C000F31F0291005D0D933C932A95B1F722C01D
:1059D00041E04416F9F4992059F0FE01592D002EAA
:1059E0004FE0042244E00E943C3101925A95B9F7FD
:1059F000292D992079F0FE0130E0E20FF31F02918A
:105A00000A3010F4005D01C0095C0C9311963C93C0
:105A10002A9589F70E9411112A9689919991A99145
:105A2000B9914990599069908990999008954A92B6
:105A3000BA93AA939A938A932597D801C9010E9491
:105A40001111FC010081118111232AF41195019596
:105A500010402DE201C02BE22D9320E02C9384E036
:105A600095E0402E4AE050E00E941831302F2AE0A5
:105A7000329F4018FE0130E0E80FF31F40828A9504
:105A80009A9579F710E0FE0104E02191222311F0AC
:105A900011E002C0112319F0205D2D933C930A956B
:105AA000A1F7112319F400E30D933C930EE20D933B
:105AB0000C81002311F4112311F0005D01C000E3FB
:105AC0000D933C9303E40D933C9325968991999112
:105AD000A991B9914990089524E0622E25E0722E93
