:100000000C94604B18951895189518951895189597
:100010001895189518951895189518951895189578
:100020001895189518951895189518951895189568
:100030000C945314189518951895189518951895AB
:1000400018951895189518950C94DE021895189522
:100050001895189518951895189518951895189538
:100060001895189518951895189518951895189528
:1000700018951895189518950C945315189518956A
:10008000189518951895189518951895901E9C1EFA
:10009000A21EE71EE71EE71EE71EE71EE71EE71E7D
:1000A000E71EE71EE71EE71EE71EE71EE71EE71E28
:1000B000E71EE71E9C1EA61EB11EE71EE71EE71EDA
:1000C000E71EE71EE71EE71EBE1EC31EE71EE71E55
:1000D000E71EE71EE71EE71EE71EE71ECA1ECA1E32
:1000E000D31ED31EDD1EEF25F92502261326242656
:1000F000352646265726682679268A26AB26CC261C
:10010000DD2645274F27582769277E279227A627D0
:10011000BA27CE27E227F727172837284C288A93B3
:10012000802F012F0E9416030AEA15E5EAE1F4E0A8
:100130000083118302811381007E282F2F71022BEF
:1001400000620283882311F40F7D028302810F7302
:10015000107CE5C18A93802F012F0E9416030AEAC2
:1001600015E5EAE1F4E00083118302811381007E4A
:10017000282F2F71022B00620283882311F40F7D38
:10018000028302810F73107C0064C9C1BA93AA93E1
:100190008A93A02F812F022F0E9416030AEA15E5E9
:1001A000EAE1F4E00083118302813381007E282F8D
:1001B0002F71022B00620283882311F40F7D0283CA
:1001C00022812F73307CB0E057968D0146E00E946B
:1001D0009A4B007C1F73202B312B2283338300E04A
:1001E00004838F010E949A08EAE1F4E005831683F4
:1001F0008F010E94BD08EAE1F4E00783108701E067
:100200000093460500E00093490501E000934A058C
:1002100000E0009347050093480500934B050093C9
:100220004C058991A991B99108958A93802F012F46
:100230000E9416030AEA15E5EAE1F4E0008311835F
:1002400002811381007E282F2F71022B006202830E
:10025000882311F40F7D028302810F73107C0068E4
:1002600018605EC1BA93AA938A93802FD9010E9425
:10027000160303E214E0FD014AE250E00E94134E2F
:10028000EAE1F4E002811381007E282F2F71022B16
:1002900000620283882311F40F7D028302810F73B1
:1002A000107C1760028313830AE29ACF8A93802F0F
:1002B000012F0E9416030BE214E0E1E8F3E0008353
:1002C000118320913302F8012287E1E3F2E02081DB
:1002D0003181F80125873687EFE2F2E02081318114
:1002E000F801238734872091EB0C2183EAE1F4E0C5
:1002F00002811381007E282F2F71022B006202835E
:10030000882311F40F7D028302810F73107C006C2F
:100310001660028313830BE106C1BA93AA939A93E2
:100320008A93902F812FD901012F0E94160344E256
:1003300050E09D0103E214E00E942C4E0AEA15E50C
:10034000EAE1F4E00083118302813381007E282FEB
:100350002F71022B00620283882311F40F7D028328
:1003600022812F73307C092F10E0025E1F4F46E080
:100370000E949A4B007C1F73202B312B22833383E6
:1003800004E204838F010E949A08EAE1F4E0058305
:1003900016838F010E94BD08EAE1F4E0078310870D
:1003A00001E00093460500E00093490501E0009359
:1003B0004A0500E0009347050093480500934B056C
:1003C00000934C0589919991A991B99108958A93C7
:1003D000802F012F0E94160347E050E020E737E00E
:1003E00003E214E00E942C4E0AEA15E5EAE1F4E08B
:1003F0000083118302811381007E282F2F71022B2D
:1004000000620283882311F40F7D028302810F733F
:10041000107C006C186001C019600283138307E030
:1004200082C08A93802F0E9416030AEA15E5EAE14A
:10043000F4E00083118302811381007E282F2F7145
:10044000022B00620283882311F40F7D0283028154
:100450000F73107C1B6064C08A93802F1093230459
:100460000E9416030AEA15E5EAE1F4E0008311832D
:1004700002811381007E282F2F71022B00620283DC
:10048000882311F40F7D028302810F73107C0064B6
:100490001B600283138301E046C08A93802F4FE0E4
:1004A00050E003E214E00E942C4E082F0E94160335
:1004B0000AEA15E5EAE1F4E0008311830281138181
:1004C000007E282F2F71022B00620283882311F4F3
:1004D0000F7D028302810F73107C006C1B6002830E
:1004E00013830FE020C08A93802F0E9416030AEA2C
:1004F00015E5EAE1F4E00083118302811381007EB7
:10050000282F2F71022B00620283882311F40F7DA4
:10051000028302810F73107C00681B6001C01560AC
:100520000283138300E004838F010E949A08EAE1AA
:10053000F4E0058316838F010E94BD08EAE1F4E030
:100540000783108701E00093460500E0009349050A
:1005500001E000934A0500E0009347050093480539
:1005600000934B0500934C058991089500918303F6
:10057000002359F0035059F00A9559F00A9559F0A3
:100580000A9559F00A9559F008950C94931D0C940E
:100590005D290C946E2F0C94E63E0C9422350C943D
:1005A000863A202F212B49F025E000002A95E9F713
:1005B00001501040202F212BB9F708959A938A9368
:1005C000FA93EA933A922A921A920A927A936A9347
:1005D0005A934A933A932A931A930A938FB79BB7E5
:1005E000A3D09BBF8FBF099119912991399149914E
:1005F0005991699179910990199029903990E991CF
:10060000F9918991999118950CB908950CB10895B3
:100610005E9B02C001E0089500E008955E9A08958F
:10062000DD9A02E010E0BDCFDD98089500934D05FE
:1006300008959A938A9380E090E0005619402040F4
:100640003040C1F1005619402040304089F1005C33
:1006500012412040304051F1005C124120403040B6
:1006600019F1005C124120403040E1F00058154281
:1006700020403040A9F0005815422040304071F031
:1006800000501B442040304039F00050114E2040B3
:10069000304091F485E010C08BE00EC081E10CC0C9
:1006A00087E10AC083E208C08FE206C087E404C085
:1006B0008FE802C08FE191E0D59ADD98B1DF909389
:1006C000900089B908E90AB90EE00093950000E2AC
:1006D0000CB989919991089500E016E920E030E085
:1006E000A8DF45E950E020E030E005E813E00E9493
:1006F0003A4E45E950E020E030E00AE114E00E9483
:100700003A4E4AE250E020E030E006E415E00E9474
:100710003A4EEEE4F5E000E212E311930A95E1F7B8
:1007200000E000934D0508959A938A936FDF00933C
:10073000840300914805002319F00A9549F00CC084
:10074000009184030A3A41F000E00093480523C079
:10075000009184030535C1F720918403E091480599
:1007600010E0F0E0EB57FC4F2083E6E4F5E0028177
:100770000395028304E1EAEAFFE00083118380919C
:10078000890390E0089600914805801790401CF47A
:1007900001E0009347058991999108959A938A936E
:1007A00037DF0023F1F000914C050023B9F436DF68
:1007B000E0914905F0E0E65EFB4F008125DFE6E4CD
:1007C000F5E003810395038380911E0490E0089671
:1007D0008017904034F401E0068303C000E00093EA
:1007E000460589919991089500914A05002359F091
:1007F0000A9569F00A9509F450C00A9509F4B2C047
:100800000A9509F0D2C000E000931006089508DFB1
:10081000C5DF009146050023F1F506DF00911C04B9
:1008200005FF30C002E000934A0504E110E0EAEA67
:10083000FFE000831183E0914D05F0E0E051FA4FB5
:10084000008103950083E0914D05F0E0E051FA4FFF
:100850000081043600F100914D05F801E059FA4F8E
:100860002081F801E053FA4F2083E0914D05F0E03C
:10087000E051FA4F1083E0914D05F0E0E059FA4F56
:10088000108309C000E000934A05009349050093D6
:1008900047050093480500E07AC0C6DE0091470591
:1008A000013059F4209187032F7100911C040F71BE
:1008B000201719F403E000934A05EAEAFFE00081FB
:1008C0001181012B09F071C0E0914D0510E0F0E0BD
:1008D000EA5BFA4F008503950087E0914D05F0E053
:1008E000EA5BFA4F0085033338F002E3E0914D05EF
:1008F000F0E0EA5BFA4F0087E0914D05F0E0E05947
:10090000FA4F008103950083009110060330A0F494
:10091000E0E1F6E00395008301E0009346051093C3
:10092000490500934A051093470510934805109315
:100930004B0510934C05089510934A0501E0009370
:100940004B051093460510934905109347051093E6
:100950004805E0914D05F0E0E059FA4F008103951C
:100960000083089500E000934A05E0914D05F0E012
:10097000EA5BFA4F008705E813E00E94BD08E5E84E
:10098000F3E0278130850217130721F002E000937E
:100990004B05089522812F7100911C040F712017BF
:1009A00009F479CF03E000934B050895BA93AA9315
:1009B00000916A0700FF06C004E110E0E8EAFFE0EA
:1009C000008311830AEA15E5E7EAF6E00083118364
:1009D00002811381007E20913D0F022B0F71107C4C
:1009E000E2E1F6E022813381207C3F73022B132B5E
:1009F000E7EAF6E00283138303E0018764E070E036
:100A000041EB56E007E61EED21E030E00E94BD1408
:100A100067E070E045EB56E00FE61EED21E030E0C8
:100A20000E94BD1464E070E04DEB56E007E61FED58
:100A300021E030E00E94BD1467E070E041EC56E038
:100A40000FE61FED21E030E00E94BD140EEC16E031
:100A5000E1E8F3E0008311830091D408E091810381
:100A6000F6E001872091810336E02E5F3F4FE0E7FB
:100A7000F7E0890147E050E00E94134E0091EB0C33
:100A8000A1E8B3E0ED91FC91018300913302A1E86C
:100A9000B3E0ED91FC910287EFE2F2E00081118179
:100AA000A1E8B3E0ED91FC9103871487E1E3F2E064
:100AB00000811181A1E8B3E0ED91FC9105871687D3
:100AC000E1E3F8E004811581A1E8B3E0ED91FC9148
:100AD0000787108BE8E7F8E000811181A1E8B3E017
:100AE000ED91FC91018B128B01E30093AB0607EAB9
:100AF00016E00E949A08E7EAF6E0058316838F0164
:100B00000E94BD08E7EAF6E00783108701E0009342
:100B10003C0700E000933F070093420703E010E02A
:100B2000ECEAFFE000831183A991B9910895BA938B
:100B3000AA9303E216E0E1E8F3E000831183E09179
:100B40008103F6E002850093330203851485EFE20A
:100B5000F2E000831183A1E8B3E0ED91FC910585FB
:100B60001685E1E3F2E000831183A1E8B3E0ED91A3
:100B7000FC9107851089E1E3F8E0048315830AEA14
:100B800015E5E7EAF6E00083118302811381007E18
:100B900020913D0F022B0F71107CE2E1F6E02281E3
:100BA0003381207C3F73022B132BE7EAF6E00283AC
:100BB000138303E104838F010E949A08E7EAF6E0B9
:100BC000058316838F010E94BD08E7EAF6E00783DC
:100BD000108701E000933C0700E000933F0700937B
:100BE000420703E010E0ECEAFFE000831183E1E05C
:100BF000F8E0208131812433324019F404E100937C
:100C00008003A991B99108958A936097802F40E25B
:100C100050E020E030E08E010E943A4E0AEA15E5ED
:100C2000E7EAF6E00083118302811381007E2091C0
:100C30003D0F2F71022B0062028300E004838A952E
:100C400049F08A95D1F18A9509F443C08A9509F44F
:100C500064C076C002810F73107C0064116002834F
:100C6000138301E0088324E030E047E65EED61E0B5
:100C700070E08E010F5F1F4F0E94A71424E030E048
:100C80004BE65EED61E070E08E010B5F1F4F0E944E
:100C9000A71427E030E04FE65EED61E070E08E01E2
:100CA000075F1F4F0E94A71440E150E09E0100EB38
:100CB00016E00E942C4E00E141C002810F73107CAF
:100CC000006811600283138327E630E040E05EEDA8
:100CD0002EC002810F73107C006C1160028313839D
:100CE00001E0088324E030E047E65FED61E070E07A
:100CF0008E010F5F1F4F0E94A71424E030E04BE6E7
:100D00005FED61E070E08E010B5F1F4F0E94A71442
:100D100027E030E04FE65FEDC0CF02810F73107C1B
:100D200012600283138327E630E040E05FED61E06C
:100D300070E000EB16E00E94A71407E60093AB06F4
:100D400007EA16E00E949A08E7EAF6E005831683B0
:100D50008F010E94BD08E7EAF6E00783108701E0F3
:100D600000933C0700E000933F070093420703E035
:100D700010E0ECEAFFE0008311836096899108950A
:100D80000AEA15E5E7EAF6E00083118302811381A0
:100D9000007E20913D0F022B0F71107C00681460C3
:100DA0000283138300E004838F010E949A08E7EA1C
:100DB000F6E0058316838F010E94BD08E7EAF6E09E
:100DC0000783108701E000933C0700E000933F0792
:100DD0000093420703E010E0ECEAFFE00083118398
:100DE00008950AEA15E5E7EAF6E000831183028137
:100DF0001381007E20913D0F022B0F71107C006C3F
:100E0000CECF0FEA14E0E2E1F6E045E950E00E94BF
:100E1000134E01E00093440502E00093B90F0895DA
:100E20009A938A9301E0009344058091160690E01E
:100E30000996AC012BE136E00FEA14E00E942C4E3B
:100E400002E00093B90F89919991089500E016E9A5
:100E500020E030E00E94021545E950E020E030E05B
:100E600002E116E00E943A4E45E950E020E030E011
:100E700007EA16E00E943A4E40E250E020E030E0FF
:100E80000CE317E00E943A4E4AE050E020E030E0E8
:100E90000CE517E00E943A4E4AE050E020E030E0D6
:100EA00006E617E00E943A4E0C9400159A938A9336
:100EB00004E610E0EEE8FFE0008311830E946B156A
:100EC0000093110600913E07002319F00A9549F09E
:100ED0000CC0009111060A3A41F000E000933E0771
:100EE000F3C0009111060535C1F720911106E0917C
:100EF0003E07F0E0EE5EF94F2083ECE3F7E002817D
:100F000003950283093051F402E116E036D1E2E1A3
:100F1000F6E02781308502171307F9F6809116064F
:100F200090E0089600913E0710E0801790400CF08A
:100F3000CBC010933E0702E116E0FCD0E2E1F6E000
:100F4000258136810217130709F0BEC001E0009326
:100F50003D0700914505002329F10281138146E0F8
:100F60000E94A04B035119F00F5191F0ADC00281C6
:100F70000F7110913D0F011721F002810F7109F0DF
:100F8000A3C0028105FF02C00E94F10600E09AC0E2
:100F900002810F7110913D0F011709F095C00E9459
:100FA000100792C0038106FF03C00E9401078CC096
:100FB0000281138146E00E94A04B0023C1F004503F
:100FC00069F10A9509F453C00A9509F462C00A95BB
:100FD00009F457C00A9509F464C0065061F1045041
:100FE00009F467C0025019F0075059F06DC0028132
:100FF0000F7110913D0F011709F066C00E94D604D1
:1010000063C002810F7110913D0F011721F0028121
:101010000F7109F059C00E94970556C002810F71E7
:1010200039F002810F7110913D0F011709F04CC08A
:101030000E94754549C00185128523853485E7E7FF
:10104000F7E00083118322833383E4E8FFE000812B
:10105000118122813381E7E7F7E04081518162818C
:101060007381041715072607370771F5E1CF028151
:101070000F7110913D0F011739F501E00E94040630
:1010800023C002810F7110913D0F0117E9F403E0B5
:10109000F5CF02810F7110913D0F0117A9F402E005
:1010A000EDCF02810F7110913D0F011769F404E03B
:1010B000E5CF02810F7110913D0F011729F40E94B5
:1010C000C00601E0009345058991999108959A938E
:1010D0008A93ECEAFFE000811181012B41F5009138
:1010E00042070023F9F40E946E15002301F10E94CB
:1010F000FE140E947615E0913F07F0E0E955F94FA4
:1011000000810E946815ECE3F7E0038103950383F7
:101110008091AB0690E008968017904044F401E07F
:10112000068305C000E000933C070E9400158991EA
:1011300099910895AA939A938A932297C8018E0150
:101140000E940F13A0E00BC0AE0121E030E08C0143
:101150000A0F131F075F1F4F0E941C13A395FC016A
:101160000481A01788F38E010E941413088119814D
:10117000229689919991A9910895BA93AA939A93E5
:101180008A932297C8018E010E940F13DC0187E029
:10119000AE0121E030E08D010E941C1311968A956A
:1011A000B9F78E010E941413088119812296899142
:1011B0009991A991B9910895002319F00A9549F0E0
:1011C00011C000E0E3EAF7E00083018302830383B8
:1011D00009C000EE10E120E0E3EAF7E000831183AC
:1011E00022832383E3EAF7E00081118122813381A6
:1011F00000521E4F2F4F3F4FE8EBF1E00083118369
:101200002283338300E0E7EAF7E00083018302836F
:1012100003830895002319F00A9549F011C000E0F6
:10122000E3EAF7E0008301830283038309C000EE51
:1012300010E120E0E3EAF7E00083118322832383B7
:10124000E3EAF7E0008111812281338100521E4FD1
:101250002F4F3F4FE8EBF1E000831183228333836C
:1012600000E0E7EAF7E0008301830283038300E8FC
:101270000E9458160091B8010E9461160091B901B0
:101280000E94611602E40E9458160EE10E94611647
:1012900000E00E94611603E40E9458160091A7071F
:1012A0000E9461160091A8070E94611600E40E9446
:1012B00058160EE10E94611600E00E94611601E4DA
:1012C0000C9458168A93812F0E946116082F0E9451
:1012D000611601E20E945816899108959A938A93A3
:1012E00000E00E94611600E00E94611604E20E9484
:1012F000581680E090E80E94D91400E00E94611620
:1013000000EC0E9458160197B1F7899199910895C0
:10131000BA93AA939A938A93E8EBF1E08081918142
:10132000082F0E946116092F0E94611604E20E9494
:101330005816E8EBF1E0A081B181B15F8A179B07F5
:1013400060F40E94D91400E00E94611600EC0E9433
:10135000581601968A179B07A0F389919991A99134
:10136000B9910895BA93AA939A938A93E7EAF7E01A
:1013700080819181082F0E946116092F0E946116B9
:1013800004E20E945816E7EAF7E0A081B181A0527A
:10139000BE4FD4CFBA93AA939A938A93D801032FBE
:1013A0008EE1809FC00130E0820F931FE7EAF7E0F3
:1013B00000811181080F911F0E946116092F0E9460
:1013C000611604E209C00E94D914FD010191DF01F8
:1013D00000520E94611600EC0E9458160C910023E6
:1013E00091F7BBCF5A924A92BA93AA939A93D80193
:1013F000922F1EE1412E449E200110E0430E511E0B
:10140000E7EAF7E000811181040D511E0E94611688
:10141000052D0E94611604E20AC00E94D914FD0144
:101420009BBF0791DF0100520E94611600EC0E94F1
:101430005816FD019BBF0691002379F79991A99158
:10144000B99149905990089504E312E0E1E0F8E081
:1014500000831183E0910108F2E00781F085E02F1D
:10146000099500912D0F12E0019FF001E152FE4F0E
:1014700000811181E2EEF7E000831183E9EEF7E0ED
:1014800000E110E011930A95E1F70895BA93AA9349
:101490008A9380E009C020E04FE0489F02E01DE011
:1014A000000D111DB4D08395A1E0B8E0ED91FC9141
:1014B0000581801780F38991A991B9910895BA9314
:1014C000AA938A9380E008C02FE0289F02E01DE0E5
:1014D000000D111D2DD38395A1E0B8E0ED91FC9195
:1014E0000581801788F38991A991B9910895BA93DC
:1014F000AA938A930091E8070531B8F0A1E0B8E01B
:10150000ED91FC910385F485E02F099503E513E047
:10151000E1E0F8E000831183D8011796ED91FC918A
:101520000995B4DF00E00093E807A1E0B8E0ED9191
:10153000FC91218532852030304041F0E1E0F8E037
:10154000A081B1811996ED91FC91099580E001C0CF
:101550008395E1E0F8E00081F181E02F05818017BB
:1015600008F040C02FE0289F02E01DE0000D111D93
:1015700050D4002369F30FE0089FF001EE5FF24FB3
:10158000038103FFE5CFF001EE5FF24F2385348541
:1015900000E02030300711F0F90109950FE0089FB5
:1015A000F001EE5FF24F05851685012B89F2E1E02F
:1015B000F8E00081F181E02F0385F485E02F0995A3
:1015C0000FE0089FF001EE5FF24F05851685E1E020
:1015D000F8E000831183D8011796ED91FC910995ED
:1015E00055DF11C00091E40700FF06C00091E50738
:1015F000002349F401E005C00091E507013019F42A
:1016000000E00093E5078991A991B9910895FA92B4
:10161000EA92DA92CA92BA92AA929A928A925A92CA
:10162000BA93AA939A938A9364972987D801F80169
:1016300003811481012B09F426C124E030E00281EA
:10164000029FA00170E061E08E01045F1F4F0E94C5
:10165000A71426E330E04C855D856E857F85405775
:101660005E4F6E4F7F4F0CEA17E00E94A714ECEA22
:10167000F7E002891389468957894D835E83CC84BC
:10168000DD84EE84FF844285538564857585C40EB0
:10169000D51EE61EF71E20E9C20E21E0D21EE21E74
:1016A00020E0F21E4801969487949694879496942D
:1016B00087949401220F331F220F331F220F331FF1
:1016C000021B130B21F001E0800E00E0901E082D9C
:1016D0000C7F9401201B390929833A830981032B4C
:1016E00039F004E010E02981021B130B09831A83EF
:1016F0002D813E812150304049815A818401040F5F
:10170000151F129F102D039F100D029F110D20E039
:10171000C00CD11EE21EF21EFD01038104FD11C0AA
:101720000581002319F00A9539F00BC080E090E0A4
:101730005401B694A7940FC0C4019695879554019F
:101740000AC0038104FF07C0058112E0019FC001A8
:101750005001A10EB21E038107FF07C0858190E0F2
:10176000A82EBB2401E0A00EB21E038105FF03C01A
:1017700080E090E054012F8328870D811E81012B8A
:1017800009F481C08B839C838A159B0508F064C093
:101790004B815C8160E086019701040F151F261FB5
:1017A000361F088B198B2A8B3B8B6A876B8721E04E
:1017B00030E0488959896A897B898E010E94A71483
:1017C000E8EBF1E0008111814A855B85040F151F6C
:1017D0004C9150E0400F511F2F813885FD01018150
:1017E00010E0200F311F0EE1039F102D029F110DFD
:1017F000400D511F552E042F0E946116052D0E9489
:10180000611604E20E94581609850023088109F038
:1018100000950E94611600EC0E9458160B811C81F5
:101820000F5F1F4F0B831C830A851B850F5F1F4FA4
:101830000A871B87088919892A893B890F5F1F4FEF
:101840002F4F3F4F088B198B2A8B3B8B0B811C81B1
:101850000A151B0508F4ABCF29813A818401020FD8
:10186000131F20E0C01AD10AE20AF20A0F8118857C
:101870000F5F1F4F0F8318870F812D813E81021745
:10188000130708F47FCF649689919991A991B99132
:1018900006C0269689919991A991B991499059903C
:1018A00089909990A990B990C990D990E990F990B0
:1018B0000895FA92EA92DA92CA92BA92AA929A9207
:1018C0008A925A92BA93AA939A938A936397D80169
:1018D000F80106811781012B09F428C124E030E0CA
:1018E00044815581440F551F440F551F70E061E03E
:1018F0008E01055F1F4F0E94A71426E330E04B8541
:101900005C856D857E8540575E4F6E4F7F4F0CEA3C
:1019100017E00E94A714ECEAF7E0028913894689D0
:1019200057894D835E83CB84DC84ED84FE844285BD
:10193000538564857585C40ED51EE61EF71E20E905
:10194000C20E21E0D21EE21E20E0F21E4801969453
:10195000879496948794969487949401220F331FCA
:10196000220F331F220F331F021B130B21F001E044
:10197000800E00E0901E082D0C7F9401201B390979
:10198000288339830881032B39F004E010E0288193
:10199000021B130B088319832D813E812150304097
:1019A000488159818401040F151F129F102D039F38
:1019B000100D029F110D20E0C00CD11EE21EF21E80
:1019C000FD01068104FD11C00085002319F00A9570
:1019D00039F00BC080E090E05401B694A7940FC09A
:1019E000C4019695879554010AC0068104FF07C07B
:1019F000008512E0019FC0015001A10EB21E0681B8
:101A000007FF07C0808590E0A82EBB2401E0A00E50
:101A1000B21E068105FF03C080E090E054012F83D1
:101A200028870D811E81012B09F480C08B839C8344
:101A30008A159B0508F063C04B815C8160E08601DC
:101A40009701040F151F261F361F0F87188B298B30
:101A50003A8B69876A8721E030E04F855889698928
:101A60007A898E010E5F1F4F0E94A714E8EBF1E008
:101A70000081118149855A85040F151F4D915C9194
:101A80001197400F511F2F813885FD01028113816D
:101A9000200F311F0EE1039F102D029F110D400DED
:101AA000511F552E042F0E946116052D0E946116AC
:101AB00004E20E9458160A810E94611600EC0E94FE
:101AC00058160B811C810F5F1F4F0B831C830985E8
:101AD0001A850F5F1F4F09871A870F851889298973
:101AE0003A890F5F1F4F2F4F3F4F0F87188B298B5E
:101AF0003A8B0B811C810A151B0508F4ACCF288199
:101B000039818401020F131F20E0C01AD10AE20AB2
:101B1000F20A0F8118850F5F1F4F0F8318870F81FF
:101B20002D813E810217130708F480CF6396ACCE57
:101B3000FA92EA92DA92CA92BA92AA929A928A9205
:101B40005A924A92BA93AA939A938A932697D80163
:101B5000F80103811481012B09F49FC024E030E0D7
:101B60000281029FA00170E061E08E010E5F1F4FB5
:101B70000E94A71426E330E04A815B816C817D815D
:101B800040575E4F6E4F7F4F0CEA17E00E94A7143C
:101B9000ECEAF7E002891389C688D7889801369560
:101BA00027953695279536952795A901440F551FFA
:101BB000440F551F440F551F041B150B11F02F5FC9
:101BC0003F4FFD01038104FD11C00581002319F081
:101BD0000A9539F013C080E090E04901969487940B
:101BE0000DC0C90196958795490108C0058112E08D
:101BF000019FC0014001810E00E0901E038105FF9E
:101C000003C080E090E04901AA24BB240C2D0D29DB
:101C100009F443C08883998388159905B0F5EE24AB
:101C2000FF24E8EBF1E0008111810E0D1F1D4C91A6
:101C300050E0040F151F2801FD0101819501200FBF
:101C4000351F0EE1039F102D029F110D400C511EF8
:101C5000042D0E946116052D0E94611604E20E9467
:101C6000581600E00E94611600EC0E945816088188
:101C700019810F5F1F4F0883198301E0E00E00E018
:101C8000F01E08810815190560F201E0A00E00E0C1
:101C9000B01EAC14BD0408F4BDCFFBCDFA92EA929D
:101CA000DA92CA92BA92AA929A928A925A924A92D4
:101CB000BA93AA939A938A932697D801F80106813A
:101CC0001781012B09F4A4C024E030E04481558140
:101CD000440F551F440F551F70E061E08E010E5FE9
:101CE0001F4F0E94A71426E330E04A815B816C817C
:101CF0007D8140575E4F6E4F7F4F0CEA17E00E9488
:101D0000A714ECEAF7E002891389C688D7889801FE
:101D1000369527953695279536952795A901440F31
:101D2000551F440F551F440F551F041B150B11F071
:101D30002F5F3F4FFD01068104FD11C00085002388
:101D400019F00A9539F013C080E090E049019694AB
:101D500087940DC0C90196958795490108C00085F3
:101D600012E0019FC0014001810E00E0901E06813B
:101D700005FF03C080E090E04901AA24BB240C2D9C
:101D80000D2909F445C08883998388159905C0F504
:101D9000EE24FF24E8EBF1E0008111810E0D1F1D00
:101DA0004D915C911197040F151F2801FD010281CF
:101DB00013819501200F311F0EE1039F102D029F0B
:101DC000110D400C511E042D0E946116052D0E941C
:101DD000611604E20E94581600E00E94611600ECB1
:101DE0000E945816088119810F5F1F4F08831983BD
:101DF00001E0E00E00E0F01E08810815190550F220
:101E000001E0A00E00E0B01EAC14BD0408F4BBCF8E
:101E100040CDBA93AA939A938A932497D80190E0DD
:101E2000F80185810091FB07002351F0EBEFF7E00B
:101E3000018112810A171B0719F401E00093D40FE6
:101E40000CE3E0EBFFE0008391839093AB07E2EEBD
:101E5000F7E00081118120912D0F32E0239FF001E6
:101E6000E152FE4F208131810217130790F4E0EB1D
:101E7000FFE000811181012B61F401E00E940A0959
:101E800001E00093AB0700EC18EAE0EBFFE0008311
:101E90001183E2EAFFE000811181012B11F000E0E3
:101EA00090C20091D40F002309F4D2C10CE3E0EBFF
:101EB000FFE0008391830091340FECE7F3E00083AF
:101EC00091832081318108EE13E0129F102D039F32
:101ED000100D029F110D00821183E2EEF7E00081E8
:101EE000118120912D0F32E0239FF001E152FE4F2E
:101EF000208131810217130758F4E2EEF7E02083C6
:101F0000318304EF11E0E2EAFFE000831183C7CFE1
:101F1000FD01038100FFC3CF24E030E00281029F76
:101F2000A00170E061E08E010E94A71426E330E07A
:101F3000488159816A817B8140575E4F6E4F7F4F48
:101F40000CEA17E00E94A714ECEAF7E042895389F3
:101F5000FD01038105FD02C056954795ECEAF7E0C7
:101F6000068917892C9138E0239F2091FA072223B4
:101F700029F5E0ECFFE02081318102161306F0F430
:101F8000B9019001240F351F62177307F0F4FD01AA
:101F9000218130E0EEEBFFE0608171812617370789
:101FA000D8F4200F311F6217730700F5FD01228559
:101FB00023952287243810F023E82287E0ECFFE005
:101FC0002081318102161306D8F420813181040E5C
:101FD000151E20153105A0F4FD01218130E0EEEB46
:101FE000FFE0408151812417350750F44081518131
:101FF000FD01218130E0200F311F4217530740F0CF
:10200000FD010285033818F00A95028701C0928706
:102010000091FB07002361F0EBEFF7E001811281F3
:102020000A171B0729F404E0FD0102879093FB07C0
:10203000FD010285043008F4B2C00F3708F073C008
:1020400001E00093FA07028500680287E3E0F8E008
:10205000A083B183FD01048103FF10C0058100232B
:1020600059F401E005830093000808E512E0E2EB73
:10207000FFE0008311833CC095833AC0038102FFD7
:102080000DC005810023C1F701E00583038106FF30
:102090002FC008EE13E0EEE9FFE0EBCFE1E0F8E05F
:1020A000208131812433324001F51DE0A230B10797
:1020B00061F40091160D0023D9F401E0FD010583C0
:1020C0000093E6079093E70713C01DE0A131B10725
:1020D00061F40091070D002359F401E0FD0105832F
:1020E0000093E7079093E60703C001E0FD01058335
:1020F000FD010381148102701270023020E0104053
:1021000011F48D0184DA91E0FD01048103FD2AC1FF
:10211000238534852030304009F424C10385F485BB
:10212000E02F09951FC103810A70023009F01AC11E
:10213000038102FD17C0E4EAFFE000811181012B59
:1021400089F4E6EAFFE000811181012B59F400E5F2
:1021500000839183FD01238534852030390711F0F8
:10216000F9010995FD01048103FFFCC0E4EAFFE0E9
:1021700000811181012B09F0F5C0E6EAFFE0008142
:102180001181012B09F0EEC000E500839183FD0170
:10219000238534852030304009F4E4C0BFCF03816B
:1021A0000271023009F0DEC003810C7089F585816F
:1021B000882371F19583E1E0F8E0208131812433B7
:1021C0003240E1F41DE0A230B10751F40091E6077E
:1021D000023021F401E0FD01058302C09093E6077F
:1021E0001DE0A131B10751F40091E707023021F45D
:1021F00001E0FD01058302C09093E707FD01048122
:1022000001FD06C00581081719F020E08D01FFD9F6
:10221000FD01038102FFA6C00581013009F0A2C0C3
:10222000038106FF9FC00091E40700FF09C00091F1
:10223000E507002309F096C020E08D01E8D992C09F
:102240000091E507013009F08DC08D0171DC8AC075
:102250009093FA07E3E0F8E000811181A017B1073D
:1022600011F5FD01048103FF1EC000910008002349
:10227000D1F0E2EBFFE000811181012B71F0FD0153
:102280009583238534852030304021F00385F48503
:10229000E02F099520E08D01BAD9E3E0F8E09083C2
:1022A000918390930008FD0103810271023009F0CF
:1022B00050C003810C7089F58581882371F1958365
:1022C000E1E0F8E02081318124333240E1F41DE087
:1022D000A230B10751F40091E607023021F401E089
:1022E000FD01058302C09093E6071DE0A131B1070F
:1022F00051F40091E707023021F401E0FD0105836C
:1023000002C09093E707FD01048101FD06C005812D
:10231000081719F020E08D017AD9FD01038102FF31
:1023200018C005810130A9F4038106FF12C0009195
:10233000E40700FF08C00091E507002351F420E006
:102340008D0165D906C00091E507013011F48D01BA
:10235000EFDBFD010285002311F00A95028702855B
:102360000F770287FD0103810271023049F5058173
:10237000801731F10130068117812085318559F4AC
:10238000E6E6F7E04081518162817381402B512B59
:10239000622B732B0EC00095109520953095E6E6C4
:1023A000F7E0408151816281738140235123622390
:1023B00073234083518362837383048101600483A8
:1023C000092F249689919991A991B9910895BA9369
:1023D000AA939A938A93A897C801D9010E94D91405
:1023E0002CEB31E08E010E94AD4533E020E08E0100
:1023F0000E94CA0924E030E0AC01BD0149595F4F99
:102400006F4F7F4F0AE81FE00E94A71441E02AE8BF
:102410003FE08E010E94BC4733E02BE08E010E941A
:10242000CA0928EC31E08E010E94AD4534E020E07D
:102430008E010E94CA0924E030E085599F4FAF4FBA
:10244000BF4FAC01BD010AE81FE00E94A71441E0A4
:102450002AE83FE08E010E94BC4734E02BE08E0169
:102460000E94CA09A896AECFAA939A938A9380E055
:1024700090E00E941B1600E00E940A090E946E096B
:102480000CE90E94581601E00E94DC0820E00DE6ED
:1024900013E0BDD800E00E940A090E94ED490091B6
:1024A000D40F002391F040E039E003EE18EA20E079
:1024B0000E94F2090E94ED4904C00E94ED490E9469
:1024C000D9140091D40F0023C1F70E94B20940E053
:1024D00030E003EF17EA20E00E94F20941E030E02B
:1024E0000BE118EA20E00E94F20942E030E003E448
:1024F00018EA20E00E94F20900E01EED21E030E041
:1025000066DF35E020E004ED11E00E94CA0940E0FA
:102510002DE33FE00BE717E00E94054635E029E098
:102520000BE717E00E94CA0927E630E040E05EEDC5
:1025300061E070E00BE717E00E94A71436E020E0AE
:102540000BE717E00E94CA0900ED17E0E2E9FFE09F
:102550000083118304E6E0E9FFE000838183A0E0CB
:102560002CC00E94D914E0E9FFE000811181012B09
:1025700021F504E610E0008311830E94D91437E0AE
:102580002A2F0DED11E00E94CA090E94ED49009129
:10259000D40F002309F001968A3000E0900760F024
:1025A000E2E9FFE000830183E0E9FFE000830183CB
:1025B0000E94B2090E946716A395E2E9FFE000813C
:1025C0001181012B71F60E9488090E94B20904EF63
:1025D00011E0ECE9FFE0008311830091340F10E07B
:1025E000ECE7F3E0008311832081318108EE13E0F2
:1025F000129F102D039F100D029F110D0082118359
:1026000000E010E0E0E9FFE0008301830CE3E0EB91
:10261000FFE00083118389919991A99108952FEF8B
:10262000F801208321830895F8010081118100952C
:1026300010950083118308950D01BC01FA01422F0A
:10264000432B01F1D801C9010D912081318120274F
:102650002083318328E0008100FF0BC0402F51818F
:102660005695479508E014E8402751274083518349
:1026700005C0118116950795008311832A9559F796
:10268000019711F7CB01D00108957A926A925A927C
:102690004A92BA93AA939A938A93D80100E010E0E1
:1026A00020E030E0FD01068043E0042281E090E07C
:1026B00017C0FC01EC50FE4F408160E070E0040F59
:1026C000151F251F351F002039F48130950721F48F
:1026D0000F5F1F4F2F4F3F4F01968D30950768F4C6
:1026E000FD01458150E04817590719F7448160E022
:1026F00070E0040F151F251F351F88E090E0FD01D5
:102700004681493080F003591E4F2F4F3F4F482FCD
:10271000437021F40F5F1F4F2F4F3F4F01964681AB
:102720008417950780F32801390147E00E94DA4BAE
:1027300047E02224439F702D429F602D710D419FE1
:10274000502D610D721D409F510D621D721D820141
:1027500093010019150B260B370B0F5F1F4F2F4FDF
:102760003F4F083010402040304008F00750EA2F1B
:10277000038389919991A991B99149905990699050
:102780007990089500E717E080DF00916A0F002339
:1027900009F076C001E0109172072091730734E0D0
:1027A000239FF001EB5EF04F26A9121708F445C0F5
:1027B000F001EB5EF04F10AD209172071217E8F1B7
:1027C00010917207F001EB5EF04F26A91217A9F4E1
:1027D000F001EB5EF04F20AD121779F41091710704
:1027E000F001EB5EF04F25A9121738F0F001EB5E17
:1027F000F04F27A9121708F400E010917207F001BA
:10280000EB5EF04F26A9121751F410917107F001F9
:10281000EB5EF04F25A9121780F000E00EC0F0012A
:10282000EB5EF04F20AD1217C1F710917107F00168
:10283000EB5EF04F27A9121780F310916B0F101762
:10284000E9F0002319F4ECE6FFE004C0013041F4A4
:10285000EEE6FFE020813181EFE2F2E02083318378
:1028600024EF31E0EEEAFFE02083318314E110939E
:10287000800320E0E8E9FFE02083218300936B0FD1
:10288000089500E00FBD09E00EBD00E000937A005E
:1028900003E31BE21BBD0ABD00E00DBD0CBD07B785
:1028A000006107BF08959A938A93FA93EA933A9244
:1028B0002A921A920A927A936A935A934A933A9373
:1028C0002A931A930A938FB79BB70E944C489BBFD9
:1028D0008FBF099119912991399149915991699124
:1028E00079910990199029903990E991F9918991FC
:1028F000999118954A92BA93AA939A938A93D80178
:10290000C901442359F0442EFD010191DF01AC01BE
:102910000E94884B4ED001964A94B1F789919991C3
:10292000A991B991499008954A92BA93AA939A931A
:102930008A93D801C901442349F0442EAC010E9476
:102940007C4B0D9336D001964A94C1F7E7CF1C011A
:10295000C90120E0382F392B71F0FA011124E20F60
:10296000F11D6BBF0690F80101928F01239530E0B5
:102970002817390790F3C1010895080100E0162FC8
:10298000172B71F0F00110E0E00FF11F2BBF169133
:10299000FA011193AF01039510E00617170790F3A2
:1029A0000895C498BC9A089508E101BD08E001BDEE
:1029B000FFCFC49A0000C498A895089500916500BF
:1029C0000160009365000895009165000E7F0093FB
:1029D00065000895009165000E7F009365000091E9
:1029E0006400016000936400089528EE33E0201B2A
:1029F000310B30938700209386000895949A0895B0
:102A00009498089540E050E000561940204030402E
:102A1000C1F1005619402040304089F1005C12415C
:102A20002040304051F1005C12412040304019F10B
:102A3000005C124120403040E1F000581542204037
:102A40003040A9F0005815422040304071F000504D
:102A50001B442040304039F00050114E204030409F
:102A600091F445E010C04BE00EC041E10CC047E1DD
:102A70000AC043E208C04FE206C047E404C04FE882
:102A800002C04FE151E08C9A949850939800409383
:102A9000990008E900939A000EE000939D0000E27F
:102AA00000939C0008959A938A93FA93EA933A923A
:102AB0002A921A920A927A936A935A934A933A9371
:102AC0002A931A930A938FB79BB70E945607FFCE9B
:102AD00000939C00089500919C00089500919B0034
:102AE00006FF02C001E0089500E0089500919B00F8
:102AF000006400939B000895BF9AC79800916400FA
:102B0000026000936400009165000D7F00936500F2
:102B1000139A00E010E0009389000093880003EC12
:102B200000938B0001E000938A0010938C001093B7
:102B3000850010938400109383001093820006E0B8
:102B40000093070804E10093080802E000930908D5
:102B500004E000930A0808958898909A919807B322
:102B6000076007BBBB9808B3097F08BBC09A03E5A1
:102B70000DB901E00EB9089508954A92BA93AA9347
:102B80009A938A93A02F412E0FB10FB1C09884EF72
:102B900091E0F2DF0197E9F7A368AFB9779BFECF29
:102BA0000FB100E00FB9779BFECF0FB1A02F03E864
:102BB000402A4FB8779BFECF0FB1BA2FA02FB69502
:102BC000A795B695A795B695A79500E00FB9779B01
:102BD000FECF0FB184EF91E0CFDF0197E9F7C09A04
:102BE000CBDFCADFC9DFC8DFBF708D0197CE01E040
:102BF00005BF00E005BF08E101BD00E001BD009395
:102C000074000EEF00936A0000E009BF04B3007E79
:102C100004BB05B30F6105BBBF9A089503B30F71E1
:102C200000950F710895B79B02C0C7980895C79A81
:102C300008957894089504EF03B902B1046F02B9BE
:102C400000E0009361001B9A1A980AE010E00E94CD
:102C5000DF491A9A0AE010E00E94DF491E980895A1
:102C60008A931FEF109361001C980093620083E029
:102C700083DF8A95E9F71C9A899108958A9300E089
:102C8000009361001D9883E077DF8A95E9F700B132
:102C90001D9A899108951F9AF1CF8A93802F01C0C0
:102CA00088DEF9DF08230817D9F701E08991089534
:102CB0008A93802F03E0F1DF1F9A082FD1DF8991DB
:102CC00008958A93802F03E0E8DF1F98F6CF8A9259
:102CD0007A926A925A924A92BA93AA939A938A9350
:102CE0006C9700E00093D40F0E94ED490091D40F3F
:102CF000002391F040E039E003EE18EA20E00E9462
:102D0000F2090E94ED4904C00E94ED490E94D914C5
:102D10000091D40F0023C1F70E94B20904E610E02D
:102D20000E94DF490E94D9140E945F0A0E94B209E2
:102D300040E033E00BE618EA20E00E94F20941E0AF
:102D400033E003E918EA20E00E94F20920E007E0FE
:102D500012E00E94070B00E00093D40F02E310E0A2
:102D6000E0EAFFE00083118388244424552466248C
:102D7000772480E090E0A0E0B0E00E94D9140E94A7
:102D8000D9140E94ED490091D40F0023C1F3E8EC5F
:102D9000FFE00081118120E030E00E944B4CA8014F
:102DA000B9018C019D010E949F4CC801D901E6EC3C
:102DB000FFE00081118120E030E00E944B4CA20135
:102DC000B3010E949F4C2801390183940AE08016C8
:102DD000B0F240E050E060E271E48C019D010E949D
:102DE000794D0E944D4C0883198340E050E060E229
:102DF00071E4820193010E94794D0E944D4C0C8335
:102E00001D830E94D91432E025E001E012E00E9407
:102E1000CA0940E09E018E01085F1F4F0E94AE4527
:102E200032E027E08E01085F1F4F0E94CA0933E09D
:102E300025E004E012E00E94CA0940E09E012C5FF8
:102E40003F4F8E01085F1F4F0E94AE4533E027E0E1
:102E50008E01085F1F4F0E94CA0920E006E112E0C0
:102E60000E94070B44E033E00BEB18EA20E00E94DD
:102E7000F20908EE13E00E94DF4902E310E0E0EA05
:102E8000FFE000831183882444245524662477249A
:102E900080E090E0A0E0B0E00E94D9140E94ED49EB
:102EA0000091D40F0023C1F3E8ECFFE00081118111
:102EB00020E030E00E944B4CAC01BD010E949F4CD1
:102EC000C801D901E6ECFFE00081118120E030E08B
:102ED0000E944B4CA201B3010E949F4C2801390172
:102EE00083940AE08016C0F240E050E060E271E4B2
:102EF0008C019D010E94794D0E944D4C0A831B83D9
:102F000040E050E060E271E4820193010E94794D5B
:102F10000E944D4C0E831F8335E025E001E012E056
:102F20000E94CA0940E09E012E5F3F4F8E01085F5C
:102F30001F4F0E94AE4535E027E08E01085F1F4F0E
:102F40000E94CA0936E025E004E012E00E94CA09A6
:102F500040E09E012A5F3F4F8E01085F1F4F0E9495
:102F6000AE4536E027E08E01085F1F4F0E94CA0978
:102F70000A811B8128813981021B130B20E030E07C
:102F80000E944B4CA801B90100E010E028E533E4B1
:102F90000E94794DE5E1FFE00083118322833383B2
:102FA0000E811F812C813D81021B130B20E030E03C
:102FB0000E944B4CA801B90100E010E020ED32E482
:102FC0000E94794DE5E1FFE0048315832683378372
:102FD0000881198120E030E00E944B4CC801D901E2
:102FE000E5E1408151816281738100E010E020E3DE
:102FF00031E40E94794DA801B9018C019D010E9424
:10300000E34C0E944D4CE5E1FFE0008711872287E9
:1030100033870C811D8120E030E00E944B4CC801B9
:10302000D901E5E1448155816681778100E010E0B6
:1030300020E331E40E94794DA801B9018C019D0182
:103040000E94E34C0E944D4CE5E1FFE0008B118BA8
:10305000228B338B00ED17E00E94DF490E94CF44A2
:103060000E94B20906E112E00E94980D07E012E00A
:103070000E94980D6C9689919991A991B991499066
:103080005990699079908990089508E2009380039F
:10309000089500E010E0E8E9FFE00083018301E02B
:1030A00000936A0F00916B0F002321F401E000935D
:1030B0006B0F05C010936B0FECE6FFE002C0EEE66D
:1030C000FFE000811181EFE2F2E00083118304EF61
:1030D00011E0EEEAFFE00083118300E0E8E9FFE0A1
:1030E0000083018308E813E1E6EBFFE0008311832E
:1030F0000091C302002319F404E1009380030895B2
:103100000091EB0C002311F401E001C000E00093FA
:10311000EB0C01E00093EC0C04EF11E0EEEAFFE0B1
:103120000083118300E0E8E9FFE000830183009160
:10313000C302002319F40FE1009380030895109156
:10314000A90D2091AC0D0091EB0C0023C1F401E01E
:103150000093AC0D0091EC0C0023C1F400E100934E
:10316000A90D0091A90D101721F40091AC0D2017A5
:1031700029F020E007EA1DE00E94070B089500E017
:103180000093AC0D0091EC0C002341F301E1E7CF7B
:1031900000913302002329F000E0009333020AE09B
:1031A00004C001E00093330209E000934F0D009149
:1031B000330200933B0804EF11E0EEEAFFE00083E6
:1031C000118320E00DE41DE00E94070B91CFEFE298
:1031D000F2E0008111810F5F1F4F008311830039DE
:1031E00021E011401CF000E900832183008111815E
:1031F000E7E3F8E00083118304EFEEEAFFE00083E9
:1032000021830091C302002319F404E10093800399
:1032100000E0E8E9FFE0008301830895EFE2F2E0D7
:103220000081118101501040008311830D3820E08E
:1032300010401CF40CE80083218300811181E7E336
:10324000F8E00083118304EF11E0EEEAFFE0008371
:1032500011830091C302002319F404E10093800359
:10326000E8E9FFE0208321830895E1E3F2E00081B3
:103270001181065F1F4F00831183073E23E0120771
:1032800010F007EE05C0003921E0114018F400E904
:103290000083218300811181E9E3F8E00083118339
:1032A00004EF11E0EEEAFFE000831183AACFE1E32F
:1032B000F2E000811181003921E0120728F00A5064
:1032C00010400083118303C000E900832183008143
:1032D0001181E9E3F8E08ECF00E0009383030093CF
:1032E0007F03009380030CE30093B80F02E01DE01E
:1032F000E6E7FDE930E04FE050E00E941E4E01E1BC
:103300001DE0E7E6FDE930E04FE00E941E4E00E2DE
:103310001DE0E8E5FDE930E04FE00E941E4E0FE2BF
:103320001DE0E9E4FDE930E04FE00E941E4E0EE3AF
:103330001DE0EAE3FDE930E04FE00E941E4E0DE49F
:103340001DE0E4E9FDE930E04FE00E941E4E0CE58F
:103350001DE0E5E8FDE930E04FE00E941E4E0BE67F
:103360001DE0E3EAFDE930E04FE00E941E4E0AE76F
:103370001DE0E2EBFDE930E04FE00E941E4E09E85F
:103380001DE0E1ECFDE930E04FE00E941E4E08E94F
:103390001DE0E0EDFDE930E04FE00E941E4E07EA3F
:1033A0001DE0EEEEFDE930E04FE00E941E4E06EB20
:1033B0001DE0EDEFFDE930E04FE00E941E4E05EC10
:1033C0001DE0EFEDFDE930E04FE00E941E4E04ED00
:1033D0001DE0ECE0FEE930E04FE00E941E4E03EEFF
:1033E0001DE0EBE1FEE930E04FE00E941E4E01E0FF
:1033F0000093D90D0093070D0DE31EE0E0E6FEE912
:1034000030E049E00E941E4E06E41EE0E7E5FEE9DA
:1034100030E049E00E941E4E0FE41EE0EEE4FEE9BB
:1034200030E049E00E941E4E08E51EE0E5E4FEE9BA
:1034300030E049E00E941E4E01E61EE0ECE3FEE9AA
:1034400030E049E00E941E4E0AE61EE0E3E3FEE99A
:1034500030E049E00E941E4E03E71EE0EAE2FEE98A
:1034600030E049E00E941E4E0CE71EE0EFE9FEE965
:1034700030E049E00E941E4E05E81EE0E6E9FEE964
:1034800030E049E00E941E4E0EE81EE0EDE8FEE945
:1034900030E049E00E941E4E07E91EE0E4E8FEE944
:1034A00030E049E00E941E4E00EA1EE0EBE7FEE934
:1034B00030E049E00E941E4E09EA1EE0E2E7FEE924
:1034C00030E049E00E941E4E02EB1EE0E9E6FEE914
:1034D00030E049E00E941E4E0BEB1EE0ECECFEE9F2
:1034E00030E049E00E941E4E04EC1EE0E3ECFEE9F1
:1034F00030E049E00E941E4E0DEC1EE0EAEBFEE9D2
:1035000030E049E00E941E4E06ED1EE0E1EBFEE9D0
:1035100030E049E00E941E4E0FED1EE0E8EAFEE9B1
:1035200030E049E00E941E4E04E6E8E9FFE0008337
:10353000418320E008C04AE009E0029FF001E35C1B
:10354000F14F4087239500913A022017A0F3009194
:103550006A0F002311F402E101C003E10093B80DEA
:1035600000916B0F002319F45093BB0D03C001E0D1
:103570000093BB0D0091D708002329F403E0E6EE89
:10358000FDE0008303C0E6EEFDE0508351835283EB
:1035900008958A9380E009C029E0289F0DE31EE08A
:1035A000000D111D0E944E0E839500913A02801766
:1035B00098F30E945F0A0E94B209899108959A9334
:1035C0008A93E8E9FFE000811181012B09F0A8C28C
:1035D00004EF11E000831183E3EAF7E00081118139
:1035E00022813381012B022B032B09F099C20CE3BA
:1035F0000093B80F0E94C2131091B80D2091BB0D1B
:1036000000916A0F002311F402E101C003E100936D
:10361000B80D00916B0F002311F400E001C001E030
:103620000093BB0D0091B80D011721F40091BB0D63
:10363000021729F020E006EB1DE00E94070B009125
:10364000C302002309F47BDD10914F0DEEEAFFE089
:1036500020813181232BA1F400913302002339F022
:103660000A9539F00A9539F00A9539F009C00AE04F
:1036700005C009E003C00CE001C00BE000934F0D52
:1036800000914F0D101729F020E00DE41DE00E947D
:10369000070B0091C302002309F0A7C0E1E3F8E0A3
:1036A00024813581253F01E0300714F027EE33E017
:1036B0000DE31EE0E5E0F8E000831183F8010085EA
:1036C00033235AF41AE0E5E0F8E04081F181E42F79
:1036D000108731952195304007C01BE0E5E0F8E008
:1036E0004081F181E42F1087C901E5E0F8E02081F5
:1036F0003181F9011085011719F089010E94590CD7
:1037000006E41EE0E5E0F8E00083118344E650E0C3
:103710008C010E94A64B202F04E6029F801991097C
:10372000E5E000811181F801008540910508512FE5
:103730002087021719F08A010E94590C08E51EE043
:10374000E5E0F8E000831183F80100851CE0E5E086
:10375000F8E020813181F90110870C3019F08901DE
:103760000E94590C0FE41EE0E5E0F8E000831183AD
:103770004AE050E08C010E94A64B202F0AE0029FF5
:103780008019E5E000811181F8010085409105086C
:10379000512F2087021719F08A010E94590C01E667
:1037A0001EE0E5E0F8E000831183F8010085209138
:1037B00005088087081719F0022F0E94590C0AE6A5
:1037C0001EE0E5E0F8E000831183E0910508FEE0EB
:1037D00000851FE0E5E0F8E020813181F9011087E4
:1037E0000F3019F089010E94590CEFE2F2E02081BC
:1037F00031810CE71EE0E5E0F8E000831183F80179
:10380000008533235AF41AE0E5E0F8E04081F181C5
:10381000E42F108731952195304007C01BE0E5E08B
:10382000F8E04081F181E42F1087C901E5E0F8E07C
:1038300020813181F9011085011719F089010E9459
:10384000590C05E81EE0E5E0F8E00083118344E64A
:1038500050E08C010E94A64B202F04E6029F8019A5
:103860009109E5E000811181F8010085409105088A
:10387000512F2087021719F08A010E94590C07E97D
:103880001EE0E5E0F8E000831183F80100851CE00C
:10389000E5E0F8E020813181F90110870C3019F062
:1038A00089010E94590C0EE81EE0E5E0F8E0008373
:1038B00011834AE050E08C010E94A64B202F0AE0C1
:1038C000029F8019E5E000811181F8010085409197
:1038D0000508512F2087021719F08A010E94590C00
:1038E00000EA1EE0E5E0F8E000831183F8010085BE
:1038F000209105088087081719F0022F0E94590CA3
:1039000009EA1EE0E5E0F8E000831183E091050894
:10391000FEE000851FE0E5E0F8E020813181F9015B
:1039200010870F3019F089010E94590CE1E3F2E091
:1039300020813181283E03E0300714F027EE33E088
:10394000C9010BEB1EE0E5E0F8E00083118344E6DB
:1039500050E089010E94A64B202F04E6029F8019A7
:103960009109E5E000811181F80100854091050889
:10397000512F2087021719F08A010E94590C04EC7C
:103980001EE0E5E0F8E0008311834AE050E08C019E
:103990000E94A64B202F0AE0029F8019E5E00081DB
:1039A0001181F801008540910508512F20870217E9
:1039B00019F08A010E94590C0DEC1EE0E5E0F8E0D8
:1039C00000831183F80100851CE0E5E0F8E0208128
:1039D0003181F90110870C3019F089010E94590CCE
:1039E00006ED1EE0E5E0F8E000831183F8010085B4
:1039F000209105088087081719F0022F0E94590CA2
:103A00000FED1EE0E5E0F8E000831183E09105088A
:103A1000FEE000851EE0E5E0F8E020813181F9015B
:103A200010870E3019F089010E94590C0091C302D1
:103A3000002309F075C0E9EFF7E0008103FF70C0D3
:103A4000077F008360E352E040E024E737E00CE3C7
:103A500018E00E94604625E232E00CE318E00E9484
:103A6000234860E352E040E025E737E004E618E051
:103A70000E94604624E638E00CE318E00E942348E8
:103A800027E232E00CE318E00E94234860E352E0B2
:103A900040E026E737E004E618E00E94604624E6AE
:103AA00038E00CE318E00E9423482BE232E00CE3FC
:103AB00018E00E94234860E352E040E022E737E04C
:103AC00004E618E00E9460460091E40724E638E02E
:103AD00000FF07C00CE318E00E9423482DE232E00B
:103AE00006C00CE318E00E9423482BE232E00CE30E
:103AF00018E00E94234860E352E040E021E737E00D
:103B000004E618E00E94604624E638E00CE318E082
:103B10000E94234832E02EE00CE318E00E94CA091C
:103B2000899199910895BA93AA930E94F403009100
:103B30004A05002319F0043009F049C100914B05F2
:103B4000002309F0B0C000914705013009F0ABC077
:103B500000E000934705E5E8F3E00281138146E0C9
:103B60000E94A04B0451A9F00A9509F45EC00A9581
:103B700009F455C00C5021F00C5009F48CC093C0CE
:103B800000E717E0EEE8F3E047E050E00E94134E54
:103B90008AC00CEA13E0E1E8F3E000831183B80186
:103BA0006E5F7F4F00E717E0FB0147E050E00E94A7
:103BB000134EEEEAFFE000811181012B09F073C082
:103BC000A1E8B3E0ED91FC9101810093EB0C02853B
:103BD0000093330205851685E1E3F2E0008311834B
:103BE000A1E8B3E0ED91FC9103851485EFE2F2E0EA
:103BF00000831183A1E8B3E0ED91FC910785108962
:103C0000E1E3F8E004831583A1E8B3E0ED91FC91D2
:103C100001891289E8E7F8E00083118344C00AE7CC
:103C200018E0EEE8F3E04DE2B0CFA6EBB1E0ED91A5
:103C3000FC91038112E0019FE00DF11D04851585C3
:103C4000E1E3F8E000831183A6EBB1E0ED91FC9194
:103C5000038112E0019FE00DF11D06851785E1E368
:103C6000F8E002831383A6EBB1E0ED91FC910381B0
:103C700012E0019FE00DF11D00891189E1E3F8E0F8
:103C800004831583A6EBB1E0ED91FC9104851585C5
:103C9000E1E3F2E0C1CF4FE050E02EE833E00BEE7D
:103CA0001CE00E942C4E0091B90F002309F08FC038
:103CB00000918003002329F000937F0300E000932C
:103CC0008003009144050023D9F000E000934405EF
:103CD0000AE114E0EFEAF4E045E950E00E94134EF7
:103CE00001E0009346054093490500934A0540933F
:103CF00047054093480540934B0540934C0567C0EA
:103D000000917F030D3208F062C0F0E0FBBFF2E0EB
:103D10000F9FF001E457FF4F07901690F0010994B0
:103D2000EFE7F3E0039500831091D7080091D708DF
:103D30000E948F0008EC49C0EFE7F3E00395008391
:103D40000AE043C000E000937F03FACFEFE7F3E01F
:103D5000039500831091D7080091D7080E9456015F
:103D6000F1CFEFE7F3E0039500834DE250E020E070
:103D700030E00AE718E00E943A4EE4CF0091D708FD
:103D80000E947302DFCF2BEE3CE00091D7080E9427
:103D90004D02D8CFEFE7F3E00395008310E000E099
:103DA0000E94560111C010E000E00E945601EFE7AA
:103DB000F3E000810395008307C010E000E00E945B
:103DC000560100E000937F0302E30093B90FA9912D
:103DD000B99108950091D7080E9411020AE000935A
:103DE000B90F089500E00093830300937F030093CD
:103DF000800302E01DE0E6E7FDE930E04FE050E03F
:103E00000E941E4E01E11DE0E7E6FDE930E04FE0D3
:103E10000E941E4E00E21DE0E8E5FDE930E04FE0C3
:103E20000E941E4E0FE21DE0E9E4FDE930E04FE0A4
:103E30000E941E4E0EE31DE0EAE3FDE930E04FE094
:103E40000E941E4E0DE41DE0E5EDFEE930E04FE07E
:103E50000E941E4E0CE51DE0E4EEFEE930E04FE06E
:103E60000E941E4E0BE61DE0E3EFFEE930E04FE05E
:103E70000E941E4E0AE71DE0E2E0FFE930E04FE05D
:103E80000E941E4E09E81DE0E1E1FFE930E04FE04D
:103E90000E941E4E01E00093160D08958A9380E063
:103EA00009C029E0289F0DE31EE0000D111D0E94AE
:103EB0004E0E839500914702801798F30E945F0A87
:103EC00089910895E8E9FFE000811181012B21F437
:103ED00004EF11E00083118308950E94B20906E106
:103EE00000938003089500E00093830300937F0311
:103EF0000093800302E01DE0E6E7FDE930E04FE0DB
:103F000050E00E941E4E01E11DE0E7E6FDE930E0D1
:103F10004FE00E941E4E00E21DE0E8E5FDE930E0C2
:103F20004FE00E941E4E0FE21DE0E9E4FDE930E0A3
:103F30004FE00E941E4E0EE31DE0EAE3FDE930E093
:103F40004FE00E941E4E0DE41DE0E1E0F0EA30E09B
:103F50004FE00E941E4E01E00093250D08958A93C4
:103F600080E009C029E0289F0DE31EE0000D111D2F
:103F70000E944E0E839500914702801798F30E948D
:103F80005F0A0E94B209899108959A938A932197B2
:103F9000E8E9FFE000811181012B09F002C104EF83
:103FA00011E000831183E3EAF7E0008111812281AF
:103FB0003381012B022B032B09F0F3C00091C302C4
:103FC000002309F0EEC080E093E0282F09E0029F73
:103FD000F001E658F74F00811181012B09F4D2C09E
:103FE00060E352E040E020E838E0200D311D0BE7AF
:103FF00017E00E9460460FE200937D0700E0009307
:104000007E07392F20E00BE717E00E94CA0960E322
:1040100052E040E021E838E0282E09E0029D200D22
:10402000311D0BE717E00E9460460FE200937D0709
:1040300000E000937E07392F23E00BE717E00E9492
:10404000CA0960E352E040E022E838E0282E09E0A7
:10405000029D200D311D0BE717E00E946046392FAD
:1040600026E00BE717E00E94CA0960E352E040E057
:104070002EE738E0282E09E0029D200D311D0BE7C8
:1040800017E00E9460460AE300937D0700E000937A
:104090007E07392F29E00BE717E00E94CA0960E389
:1040A00052E040E02DE738E0282E09E0029D200D87
:1040B000311D0BE717E00E9460460AE300937D077D
:1040C00000E000937E07392F2CE00BE717E00E94F9
:1040D000CA0960E352E040E02CE738E0282E09E00E
:1040E000029D200D311D0BE717E00E946046392F1D
:1040F0002FE00BE717E00E94CA09282F09E0029F72
:10410000F001E658F74F0181088360E352E040E098
:104110009E010BE717E00E946046392F22E10BE772
:1041200017E00E94CA09282F09E0029FF001E65813
:10413000F74F0081088360E352E040E09E010BE707
:1041400017E00E946046392F25E10BE717E00E9437
:10415000CA09492F439530E0682F09E0069FF00116
:10416000E658F74F1181012F110F110B69E1619F83
:10417000702D609F710D00E21FE920E0000D171FF8
:104180000E94F209282F09E0029FF001E658F74F3C
:1041900000811181012B29F083959E5F853008F401
:1041A00014CF21968991999108958A93229742E09C
:1041B00030E000E110EA20E00E94F20900E0009304
:1041C0003C0880E007C02EE532E00CE318E00E94D6
:1041D00023488395009107088017C8F4E7E0F8E0CA
:1041E0000480158026803780482F01E010E00E946F
:1041F0009A4B212F220F220B00221122222232223F
:10420000012802280328F9F22BE532E0DECF32E064
:1042100023E00CE318E00E94CA0943E030E004E226
:1042200010EA20E00E94F20900E000933C0880E0E0
:1042300013C02EE532E00CE318E00E942348009101
:10424000D508081741F40CE318E00E94934E13E0E0
:1042500003950E9462098395009108088017C8F4AD
:10426000E7E0F8E00084118422843384482F01E0E1
:1042700010E00E949A4B212F220F220B00221122C4
:104280002222322201280228032899F22BE532E06B
:10429000D2CF33E023E00CE318E00E94CA0944E0E7
:1042A00030E008E310EA20E00E94F20900E0009309
:1042B0003C0880E029C0282F30E000910A08200F38
:1042C000331F220F331FF901E95FF74F048515856E
:1042D000088319830881083E23E013401CF007EE91
:1042E000088329839E0104E618E00E94B84624E66C
:1042F00038E00CE318E00E94234821E632E00CE3AA
:1043000018E00E942348839500910908801798F2CD
:1043100034E023E00CE318E00E94CA0945E030E0F5
:104320000CE410EA20E00E94F20900E000933C084F
:1043300080E02AC023E138E002E0809F200D311D9B
:1043400004E618E00E945F4724E638E00CE318E03A
:104350000E9423482091D50830E00091080810E021
:10436000080F131F2017310741F40CE318E00E94D7
:10437000934E15E00E5F0E94620921E632E00CE3E5
:1043800018E00E942348839500910A08801790F254
:1043900035E023E00CE318E00E94CA0920910808E8
:1043A00030E000910A08200F331F0091D508201734
:1043B000304044F40091080810910A08010F0A9552
:1043C0000093D508229689910895229700E00093E2
:1043D0003C0840E650EA60E00CE318E00E943848F0
:1043E00040E020EB38E004E618E00E94054624E6B1
:1043F00038E00CE318E00E94234823E632E00CE3A7
:1044000018E00E94234823E138E04091B00850E0D2
:1044100000910A08400F551F440F551F240F351FE8
:1044200004E618E00E94B84624E638E00CE318E001
:104430000E94234832E020E00CE318E00E94CA0901
:104440000091D508002321F412E003E00E946209E4
:1044500000E000933C0844E750EA60E00CE318E019
:104460000E94384840E02FEB38E004E618E00E9454
:10447000054624E638E00CE318E00E94234833E0C8
:1044800020E00CE318E00E94CA090091D508013031
:1044900021F413E005E00E94620900E000933C086B
:1044A00048E850EA60E00CE318E00E94384827EB47
:1044B00038E004E618E00E94B84624E638E00CE351
:1044C00018E00E94234834E020E00CE318E00E944A
:1044D000CA090091D508023039F40CE318E00E94B3
:1044E000934E14E00E94620900E000933C0840EB08
:1044F00050EA60E00CE318E00E94384829EB38E00D
:1045000004E618E00E945F4724E638E00CE318E078
:104510000E94234835E020E00CE318E00E94CA091D
:104520000091D508033039F40CE318E00E94934E53
:1045300015E00E94620900E000933C0844EC50EA58
:1045400060E00CE318E00E94384840E021EB38E0DE
:1045500004E618E00E94AE4524E638E00CE318E0DB
:104560000E94234836E020E00CE318E00E94CA09CC
:104570000091D508043039F40CE318E00E94934E02
:1045800016E00E94620900E000933C0848ED50EA02
:1045900060E00CE318E00E94384840E025EB38E08A
:1045A00004E618E00E94AE4524E638E00CE318E08B
:1045B0000E94234837E020E00CE318E00E94CA097B
:1045C0000091D508053039F40CE318E00E94934EB1
:1045D00017E00E94620900E000933C084CEE50EAAC
:1045E00060E00CE318E00E9438482BEB38E004E66A
:1045F00018E00E945F4724E638E00CE318E00E94D0
:10460000234838E020E00CE318E00E94CA0900913A
:10461000D508063039F40CE318E00E94934E18E0F8
:104620000E94620900E000933C0840E051EA60E02B
:104630000CE318E00E9438482DEB38E004E618E05F
:104640000E945F4724E638E00CE318E00E9423480C
:1046500039E020E00CE318E00E94CA090091D50877
:10466000073039F40CE318E00E94934E19E00E94E1
:10467000620900E000933C0844E151EA60E00CE389
:1046800018E00E94384824EC38E004E618E00E9464
:104690005F4724E638E00CE318E00E9423483AE044
:1046A00020E00CE318E00E94CA090091D508083008
:1046B00039F40CE318E00E94934E1AE00E9462095C
:1046C00000E000933C0848E251EA60E00CE318E0A7
:1046D0000E94384840E022EC38E004E618E00E94EE
:1046E000AE4524E638E00CE318E00E9423483BE0A6
:1046F00020E00CE318E00E94CA090091D5080930B7
:1047000039F40CE318E00E94934E1BE00E9462090A
:10471000E0EBF8E0008D118D228D338D40E050E00C
:104720006AE774E40E94004D0E944D4C088319838F
:1047300000E000933C084CE351EA60E00CE318E031
:104740000E94384840E09E0104E618E00E94AE4511
:1047500024E638E00CE318E00E9423483CE020E027
:104760000CE318E00E94CA090091D5080A3039F418
:104770000CE318E00E94934E1CE00E946209E0EBFB
:10478000F8E0048D158D268D378D40E050E06AE706
:1047900074E40E94004D0E944D4C0883198300E090
:1047A00000933C0840E551EA60E00CE318E00E9409
:1047B000384840E09E0104E618E00E94AE4524E639
:1047C00038E00CE318E00E9423483CE02CE00CE3C6
:1047D00018E00E94CA090091D5080B3041F40CE39F
:1047E00018E00E94934E1CE0045F0E946209E0EB17
:1047F000F8E000A111A10883198300E000933C08B0
:1048000044E651EA60E00CE318E00E94384840E0DA
:104810009E0104E618E00E94AE4524E638E00CE371
:1048200018E00E9423483DE020E00CE318E00E94DD
:10483000CA090091D5080C3039F40CE318E00E9445
:10484000934E1DE00E946209E0EBF8E002A113A183
:104850000883198300E000933C0848E751EA60E0D0
:104860000CE318E00E94384840E09E0104E618E09E
:104870000E94AE4524E638E00CE318E00E9423488D
:104880003DE02CE00CE318E00E94CA090091D50835
:104890000D3041F40CE318E00E94934E1DE0045FDC
:1048A0000E9462090091D5080E3018F00DE00093C7
:1048B000D5082296089508950091AF08002349F085
:1048C0000A9541F00A9541F00A9541F00A9541F0A8
:1048D00008956BCC00E001C001E077CD02E0FDCF90
:1048E000EACF0091AF08002369F00A9509F44AC0A5
:1048F0000A9509F45CC00A9509F47BC00A9509F48D
:10490000A6C0089501E0009380030091520D01308C
:1049100041F001E00093520D20E00DE41DE00E9403
:10492000070B0091610D002341F000E00093610D41
:1049300020E00CE51DE00E94070B0091700D0023A4
:1049400041F000E00093700D20E00BE61DE00E94B6
:10495000070B00917F0D002341F000E000937F0DD5
:1049600020E00AE71DE00E94070B00918E0D002356
:1049700009F4ACC000E000938E0D20E009E81DE0D2
:104980000C94070B02E0009380030091520D00236A
:1049900041F000E00093520D20E00DE41DE00E9484
:1049A000070B0091610D013041F201E0BFCF03E040
:1049B000009380030091520D002341F000E000932A
:1049C000520D20E00DE41DE00E94070B0091610DE7
:1049D000002341F000E00093610D20E00CE51DE0B4
:1049E0000E94070B0091700D013009F4B2CF01E075
:1049F000A9CF04E0009380030091520D002341F001
:104A000000E00093520D20E00DE41DE00E94070B32
:104A10000091610D002341F000E00093610D20E062
:104A20000CE51DE00E94070B0091700D002341F082
:104A300000E00093700D20E00BE61DE00E94070BE4
:104A400000917F0D013009F490CF01E087CF05E0A0
:104A5000009380030091520D002341F000E0009389
:104A6000520D20E00DE41DE00E94070B0091610D46
:104A7000002341F000E00093610D20E00CE51DE013
:104A80000E94070B0091700D002341F000E000939D
:104A9000700D20E00BE61DE00E94070B00917F0DDA
:104AA000002341F000E000937F0D20E00AE71DE0C5
:104AB0000E94070B00918E0D013041F001E0009340
:104AC0008E0D20E009E81DE00E94070B089500E02C
:104AD0000093AF084AE250E020E030E007E018E041
:104AE0000E943A4EFEDE00E00093D5080093D608FF
:104AF000089501E003C002E001C003E00093AF08A5
:104B000044E250E020E030E000EB18E00E943A4E32
:104B1000E8CE04E0F3CF0091D508002321F0E5EDC5
:104B2000F8E00A9500830091D408002309F0C4DE60
:104B300008950091D508043620F4E5EDF8E00395DA
:104B40000083F1CF0091D408002309F44AC10091F9
:104B5000AF08002319F00A9591F142C10091D508E0
:104B6000109108080117C0F44091D50801E010E049
:104B70000E949A4B212F220F220BE7E0F8E040859C
:104B800051856285738540275127622772274087A8
:104B900051876287738711C081F4E7E0F8E00485EC
:104BA00015850E3D23E0120728F4065F1F4F04878A
:104BB000158703C007EE048725870AE00FC100911F
:104BC000D5080E3008F009C1F0E0FBBFF2E00F9FFE
:104BD000F001EA51FF4F07901690F00109940091FF
:104BE000B008023008F0F9C0E0EBF8E0039500836C
:104BF000F4C00091BF08013009F4EFC001E0009358
:104C0000BF08EBC0E0EBF8E007811085043F21E02E
:104C100012072CF40F5F1F4F07831087DEC004EFCD
:104C200007832087DAC0E0EBF8E0018512850E3DAE
:104C300023E012072CF4065F1F4F01871287CDC0B7
:104C400007EE01872287C9C0E0EBF8E001811281FD
:104C50000E3D23E012072CF4065F1F4F01831283E1
:104C6000BCC007EE01832283B8C0E0EBF8E0058109
:104C700016810E3D23E012072CF4065F1F4F0583BB
:104C80001683ABC007EE05832683A7C0E0EBF8E0F0
:104C9000038514850E3D23E012072CF4065F1F4F99
:104CA000038714879AC007EE0387248796C0E0EB3A
:104CB000F8E0058516850E3D23E012072CF4065F0B
:104CC0001F4F0587168789C007EE0587268785C091
:104CD000E0EBF8E0048915890E3D23E012072CF47F
:104CE000065F1F4F048B158B78C007EE048B258B56
:104CF00074C0E0EBF8E002891389043F21E0120759
:104D000028F40F5F1F4F028B138B67C004EF028BD9
:104D1000238B63C0E0EBF8E0008D118D228D338D85
:104D200046E656E666E67FE30E94F34D68F44FE6FA
:104D300052E163E87AE30E949F4CE0EBF8E0008FD9
:104D4000118F228F338F49C0E0EBF8E0408F418F05
:104D5000428F738F42C0E0EBF8E0048D158D268DF5
:104D6000378D46E656E666E67FE30E94F34D68F42B
:104D70004FE652E163E87AE30E949F4CE0EBF8E0F3
:104D8000048F158F268F378F28C0E0EBF8E0448F13
:104D9000458F468F778F21C0E0EBF8E000A111A18D
:104DA000073E23E0120728F40F5F1F4F00A311A353
:104DB00014C007EE00A321A310C0E0EBF8E002A1AD
:104DC00013A1073E23E0120728F40F5F1F4F02A331
:104DD00013A303C007EE02A323A30BE000938003F9
:104DE0006BDD0895BA93AA930091D408002309F4C7
:104DF0006BC10091AF08002319F00A95B1F163C1AE
:104E00000091D508109108080117C0F44091D50809
:104E100001E010E00E949A4B212F220F220BE7E0C5
:104E2000F8E04085518562857385402751276227C8
:104E30007227408751876287738715C0A1F4A3E169
:104E4000B8E0ED91FC913A9748F0E7E0F8E004858E
:104E500015850A5010400487158705C000E0E7E07B
:104E6000F8E0048705870AE02CC10091D5080E30D0
:104E700008F026C1F0E0FBBFF2E00F9FF001EE5F0B
:104E8000FE4F07901690F00109940091B00800239E
:104E900009F416C1E0EBF8E00A95008311C1009116
:104EA000BF08002309F40CC100E00093BF0808C14B
:104EB000E0EBF8E0078110850D3820E012072CF0B8
:104EC0000150104007831087FBC00CE80783208740
:104ED000F7C0A9EBB8E0ED91FC913B974CF0E0EB0B
:104EE000F8E0018512850A50104001871287E8C05A
:104EF00000E0E0EBF8E001870287E2C0A1EBB8E058
:104F0000ED91FC913B974CF0E0EBF8E001811281D0
:104F10000A50104001831283D3C00AE010E0E0EB96
:104F2000F8E0F8CFA5EBB8E0ED91FC913B974CF0A1
:104F3000E0EBF8E0058116810A50104005831683E6
:104F4000BFC00AE010E0E0EBF8E0F8CFABEBB8E070
:104F5000ED91FC913B974CF0E0EBF8E00385148574
:104F60000A50104003871487ABC00AE010E0E0EB62
:104F7000F8E0F8CFADEBB8E0ED91FC913B974CF049
:104F8000E0EBF8E0058516850A5010400587168786
:104F900097C00AE010E0E0EBF8E0F8CFA4ECB8E04E
:104FA000ED91FC913B974CF0E0EBF8E0048915891A
:104FB0000A501040048B158B83C00AE010E0E0EB30
:104FC000F8E0F8CFA2ECB8E0ED91FC91329748F010
:104FD000E0EBF8E00289138901501040028B138B3B
:104FE0006FC000E0E0EBF8E0028B038B69C0E0EB00
:104FF000F8E0008D118D228D338D40E752E163E89A
:105000007AE30E940B4E58F44FE67AEB0E949F4CD5
:10501000E0EBF8E0008F118F228F338F51C000E05A
:10502000E0EBF8E0008F018F028F038F49C0E0EBC7
:10503000F8E0048D158D268D378D40E752E163E849
:105040007AE30E940B4E58F44FE67AEB0E949F4C95
:10505000E0EBF8E0048F158F268F378F31C000E02A
:10506000E0EBF8E0048F058F068F078F29C0A0EDD5
:10507000B8E0ED91FC91329748F0E0EBF8E000A148
:1050800011A10150104000A311A31AC000E0E0EBF1
:10509000F8E000A301A314C0A2EDB8E0ED91FC91EB
:1050A000329748F0E0EBF8E002A113A10150104064
:1050B00002A313A305C000E0E0EBF8E002A303A302
:1050C0000BE000938003F8DBA991B991089500915A
:1050D000D408002361F00091D90D0130E1F001E026
:1050E0000093D90D20E004ED1DE00E94070B009114
:1050F000D408002361F40091D90D002389F000E069
:105100000093D90D20E004ED1DE00E94070B0091F3
:10511000D408002329F00FE90E94581607EA01C0BD
:105120000CE90E945816DDCB0091D408002311F041
:1051300000E001C001E00093D408C9DF06E000935D
:105140008003089503E00093830300E000937F034E
:105150000093800302E01DE0E6E7FDE930E04FE068
:1051600050E00E941E4E01E11DE0E7E6FDE930E05F
:105170004FE00E941E4E00E21DE0E8E5FDE930E050
:105180004FE00E941E4E0FE21DE0E9E4FDE930E031
:105190004FE00E941E4E0EE31DE0EAE3FDE930E021
:1051A0004FE00E941E4E0DE41DE0ECE8F1EA30E015
:1051B0004FE00E941E4E0CE51DE0EBE9F1EA30E005
:1051C0004FE00E941E4E0BE61DE0EAEAF1EA30E0F5
:1051D0004FE00E941E4E0AE71DE0E9EBF1EA30E0E5
:1051E0004FE00E941E4E09E81DE0E8ECF1EA30E0D5
:1051F0004FE00E941E4E08E91DE0E7EDF1EA30E0C5
:105200004FE00E941E4E07EA1DE0E6EEF1EA30E0B4
:105210004FE00E941E4E06EB1DE0E5EFF1EA30E0A4
:105220004FE00E941E4E05EC1DE0E4E0F2EA30E0A3
:105230004FE00E941E4E04ED1DE0E3E1F2EA30E093
:105240004FE00E941E4E01E00093340D40DF49CB39
:105250008A930CE90E94581680E009C029E0289F33
:105260000DE31EE0000D111D0E944E0E839500916E
:105270004702801798F30E945F0A0E94B209899141
:105280000895E8E9FFE000811181012BA9F404EF02
:1052900011E000831183E3EAF7E0008111812281AC
:1052A0003381012B022B032B39F40091C30200231D
:1052B00019F40E94B20900DB08950E94F4030091E2
:1052C0004A05002319F0043009F0CEC000914B05C7
:1052D000002309F047C000914705013009F042C0A2
:1052E00000E000934705E5E8F3E00281138146E022
:1052F0000E94A04B045149F00A95E9F0025090F148
:10530000035018F1035149F12DC048E050E02EE858
:1053100033E007EA18E00E942C4E00E717E0E1E8CE
:10532000F3E0608171816E5F7F4FFB0147E050E0E9
:105330000E94134E17C04091890350E02EE833E0DD
:1053400007E018E00E942C4E0DC04091890350E008
:105350002EE833E000EB18E0F5CF00918E030093C8
:10536000D408B5DE0091B90F002309F07DC000918B
:105370008003002329F000937F0300E00093800363
:10538000009144050023D9F000E0009344050AE1B0
:1053900014E0EFEAF4E045E950E00E94134E01E02A
:1053A000009346054093490500934A0540934705FD
:1053B0004093480540934B0540934C050895009158
:1053C0007F03002389F00A9589F00A95B1F00A95C8
:1053D000E1F00A9501F10A95F1F00A9521F10450E6
:1053E00049F10A95A1F108950AE02EC01091D7085D
:1053F0000091D7080E94AA0026C02091D7081091DA
:10540000D70800E00E94C6001EC02091D708109166
:10541000D70801E0F7CF2091D7081091D70802E014
:105420000E94C60010C01091D4080091D7080E94B5
:105430002C0206C027E038E00091D7080E94320114
:1054400000E000937F0304E60093B90F089520EB7A
:1054500038E01091D70800E00E948D0100E0009331
:105460007F0304E60093B90F089500917F030023A2
:1054700059F501E00093C30200E00093D7080093C0
:10548000DE0840E250E020E030E00FED18E00E943E
:105490003A4E40EE53E020E030E00FEF18E00E947B
:1054A0003A4E00E00093D80801E00093D70800E0EE
:1054B0000093DF0C0093DC080093DB0801E000930D
:1054C00080030CE30093B80F089500917F0300233D
:1054D000E1F500E0E8E9FFE0008301830CE30093DD
:1054E000B80F3091DF0C3C5F20E003E712E00E9430
:1054F000CA090091DF0C0023E1F0EFEDFCE00A9512
:105500000083E02FF0E0E152F74F0081002329F4FF
:10551000EFEDFCE0008103950083E091DF0CF0E00B
:10552000E152F74F00810093D7083091DF0C3C5FC8
:105530000DC000E00093D70801E00093C30233E000
:1055400020E005E712E00E94CA09089520E005E77F
:1055500012E00C94CA0900917F03002309F04AC0AD
:1055600000E010E0E8E9FFE0008301830CE3009332
:10557000B80F0091C302002389F01093C30233E0F7
:1055800020E003E712E00E94CA0900E00093DF0C6C
:105590000091DF080093D70834E0D8CF3091DF0CBA
:1055A0003C5F20E003E712E00E94CA090091DF0C93
:1055B0000F3180F4EFEDFCE003950083F0E0E02F85
:1055C000E152F74F0081002329F4EFEDFCE0008168
:1055D0000A950083E091DF0CF0E0E152F74F008183
:1055E0000093D7083091DF0C3C5F20E005E712E024
:1055F0000E94CA0908950091E00C002329F00A9541
:1056000039F10A95B9F1089500917F0D013041F00B
:1056100001E000937F0D20E00AE71DE00E94070BE8
:1056200000918E0D002341F000E000938E0D20E0EC
:1056300009E81DE00E94070B00919D0D0023F1F188
:1056400000E000939D0D20E008E91DE00C94070B9D
:1056500000917F0D002341F000E000937F0D20E0DA
:105660000AE71DE00E94070B00918E0D013021F327
:1056700001E0DBCF00917F0D002341F000E00093BB
:105680007F0D20E00AE71DE00E94070B00918E0DC0
:10569000002341F000E000938E0D20E009E81DE0BA
:1056A0000E94070B00919D0D013041F001E0009335
:1056B0009D0D20E008E91DE00E94070B089500E021
:1056C0000093E00C98DFDBC301E0FACF02E0F8CFF3
:1056D00004E00093830300E000937F030093DD0860
:1056E0000093D8080093DF0C0093DC080093DB08DC
:1056F000009380030E94B20933E020E007E712E044
:105700000E94CA0901E00093C30200E00093D70899
:1057100008E20093E20C02E01DE0E6E7FDE930E07C
:105720004FE050E00E941E4E01E11DE0E7E6FDE97A
:1057300030E04FE00E941E4E00E21DE0E8E5FDE98A
:1057400030E04FE00E941E4E0FE21DE0E9E4FDE96B
:1057500030E04FE00E941E4E0EE31DE0EAE3FDE95B
:1057600030E04FE00E941E4E0DE41DE0E2E2F2EA5E
:1057700030E04FE00E941E4E0CE51DE0E1E3F2EA4E
:1057800030E04FE00E941E4E0BE61DE0E0E4F2EA3E
:1057900030E04FE00E941E4E0AE71DE0EFE4F2EA1F
:1057A00030E04FE00E941E4E09E81DE0EEE5F2EA0F
:1057B00030E04FE00E941E4E08E91DE0EDE6F2EAFF
:1057C00030E04FE00E941E4E01E00093430D57D39E
:1057D00012CF8A9380E009C029E0289F0DE31EE0E4
:1057E000000D111D0E944E0E83950091CA02801774
:1057F00098F30E945F0A0E94B20989910895E8E92E
:10580000FFE000811181012B09F049C004EF11E094
:1058100000831183E2EEFCE0008103950083E3EA5C
:10582000F7E00081118122813381012B022B032BB0
:10583000B1F524E832E00CE318E00E94834E32E038
:1058400020E00CE318E00E94CA0923E932E00CE3EF
:1058500018E00E94834E60E352E040E027ED38E01C
:1058600004E618E00E94604624E638E00CE318E005
:105870000E94234832E020E00CE318E00E94CA09AD
:105880000091DE08002319F40CE30093B80F009197
:10589000E20C093220F000E00093E20CE6DD08950E
:1058A0008A93802F0FE1089FF001E150F74F0081AC
:1058B000002371F400E000933C088DE123E732E01F
:1058C0000CE318E00E9423488A9509F4CEC0F6CF75
:1058D000F001E150F74F01810A9539F00A9541F046
:1058E0000A9549F00A9551F00FC027E932E008C047
:1058F0002AE932E005C02DE932E002C020EA32E0B8
:105900000CE318E00E94834E60E352E040E00FE1B8
:10591000089F2FEF38E0200D311D04E618E00E94AB
:10592000604624E638E00CE318E00E94234823E7B1
:1059300032E00CE318E00E94234823EA32E00CE353
:1059400018E00E94234840E027E139E00FE1089F7A
:10595000200D311D04E618E00E94054624E638E0DB
:105960000CE318E00E94234823E732E00CE318E040
:105970000E9423480FE1089FF001E150F74F018D8D
:10598000128D083E13403CF027EE33E0F001E15069
:10599000F74F218F328F28E139E0200D311D04E6C9
:1059A00018E00E940D4724E638E00CE318E00E945E
:1059B000234823E732E00CE318E00E9423480FE17C
:1059C000089FF001E150F74F038D148D083E1340FE
:1059D0003CF027EE33E0F001E150F74F238F348F96
:1059E0002AE139E0200D311D04E618E00E940D4740
:1059F00024E638E00CE318E00E94234823E732E075
:105A00000CE318E00E9423480FE1089FF001E150E9
:105A1000F74F058D168D083E13403CF027EE33E01E
:105A2000F001E150F74F258F368F2CE139E0200D42
:105A3000311D04E618E00E945F4724E638E00CE3DD
:105A400018E00E9423488DE10CE318E00E941448FE
:105A5000801B813044F409C023E732E00CE318E0F6
:105A60000E9423488A958130BCF7899108958A93D2
:105A7000802F0FE1089FF001E150F74F00810023D4
:105A800071F400E000933C088DE123E732E00CE381
:105A900018E00E9423488A9509F4EBC0F6CFF00184
:105AA000E150F74F01810A9539F00A9541F00A95C6
:105AB00049F00A9551F00FC027E932E008C02AE901
:105AC00032E005C02DE932E002C020EA32E00CE30A
:105AD00018E00E94834E60E352E040E00FE1089F2F
