:020000021000EC
:10E000000C94EFF91895189518951895189518957A
:10E010001895189518951895189518951895189598
:10E020001895189518951895189518951895189588
:10E030000C94EEF018951895189518951895189554
:10E040001895189518951895189518951895189568
:10E050001895189518951895189518951895189558
:10E060001895189518951895189518951895189548
:10E0700018951895189518950C947FF11895189582
:10E080001895189518951895189518950000096019
:10E09000016DF16BF1FE096069F1FE12C067F1FEDE
:10E0A00012C065F1FE12C063F1FE258061F1FE250C
:10E0B000805FF1FE4B005DF1FEE1005BF1FB0000D3
:10E0C00069F409005DF45DF46FF472F472F47BF4AA
:10E0D0005DF45DF47DF4000079F91200E8F779F958
:10E0E00019F802F8F3F74BF861F857F86BF875F880
:10E0F0009AF812F946F95EF979F924F8BCF8E7F8CC
:10E10000EE021A010000001A0000010EE1010000F9
:10E110000000000000000000000000014E6F2073AE
:10E120006F667477617265002FEFF8012083218399
:10E130000895F801008111810095109500831183E5
:10E1400008950E9458FAFA0180E090E008C05181D9
:10E1500056954795408351836A9571F401968217CD
:10E160009307C0F4D801A80FB91F4C916081718149
:10E1700064276083718368E0408140FFE8CF042E0C
:10E1800011801694079448E054E80426152600826E
:10E190001182E2CFE4E00C9460FA00E00FBD09E0E8
:10E1A0000EBD00E000937A000CEC1CE11BBD0ABD23
:10E1B00000E107BF00E00DBD0CBDE7EBF2E000831E
:10E1C0000183E9EBF2E000830183EBEBF2E00083F3
:10E1D0000183EDEBF2E00083018308959A938A9323
:10E1E000FA93EA933A922A921A920A927A936A934B
:10E1F0005A934A933A932A931A930A938FB79BB7E9
:10E200000E9489F59BBF8FBF09911991299139917E
:10E210004991599169917991099019902990399072
:10E22000E991F99189919991189501E005BF00E074
:10E2300005BF0C94000008E101BD08E001BDFFCF5F
:10E240000091680000FDFCCF11E1002410936800EC
:10E25000E89508957894089500000895C498BC9AAC
:10E260000895C49AF9DFC498089501E005BF02E05B
:10E2700005BF129A03B1047003B904B300E004BBF4
:10E2800005B30FEF05BBBF9A0895C79A0895FDCF58
:10E29000C798089503B300950895949A08959498A3
:10E2A00008959A938A9380E090E0ECE8F1E0FBBF58
:10E2B000F0EE0C941AFA85E010C08BE00EC081E1FC
:10E2C0000CC087E10AC083E208C08FE206C087E481
:10E2D00004C08FE802C08FE191E08C9A94989093EB
:10E2E00098008093990008E900939A000EE000934B
:10E2F0009D0000E200939C008991999108959A9362
:10E300008A93FA93EA933A922A921A920A927A9309
:10E310006A935A934A933A932A931A930A938FB71C
:10E320009BB70E9489F76ECF00939C0008950091DF
:10E330009C00089500919B0006FF02C001E0089533
:10E3400000E0089500919B00006400939B000895F5
:10E350000E9458FA00912002002309F44EC0009157
:10E360002302002399F100E00093230205E212E06A
:10E37000EAE1F2E004831583E0911E02F2E0EA583C
:10E38000FF4F0081002311F524E0E0EBF2E0408133
:10E3900051816281738149595F4F6F4F7F4F8F0168
:10E3A00048D1AEE1B2E0ED91FC91E959FF4F008117
:10E3B000118122813381E0EBF2E040815181628161
:10E3C0007381041715072607370711F5EAE1F2E014
:10E3D000008111818281938101960817190759F4F0
:10E3E0002091220205E212E0A0D0EAE1F2E00081F1
:10E3F00011810283138300E0068300912102002330
:10E4000039F00E94A3F40093AA0200E000932102D5
:10E41000E4E00C9460FA0E9459FAE0E0F1E09181A6
:10E42000A28180E083878487878380878483958324
:10E43000A68307811085000F111FF801E65EFE4FCD
:10E440002081E0E0F1E007811085000F111FF80145
:10E45000E65EFE4F1181E0E0F1E021871287E6EAF7
:10E46000F2E00081118122813381033317472A4A68
:10E47000354549F4E0E0F1E041855285048115819C
:10E4800026810E9463F58E5F9F4FAF4FE0E0F1E081
:10E49000078110850F5F1F4F0783108700381040DA
:10E4A00028F21181228100E0048315832683E6EAA5
:10E4B000F2E00081118122813381033317472A4A18
:10E4C000354539F4E0E0F1E00481158126810E94B0
:10E4D00069F5E6EAF2E0008111812281338103339C
:10E4E00017472A4A354539F4E0E0F1E00481158107
:10E4F00026810E946BF5E0E0F1E00081118122812C
:10E50000338100501F4F2F4F3F4F1183228333839E
:10E51000E3E00C9461FA40E0E0E0F1E043874487F7
:10E52000008311832283338308950E9458FAD8010F
:10E53000822F00910D01002369F10A9519F00A95C7
:10E5400061F02AC000E000930D01622F4A2F512F85
:10E550001EED21E030E022D01FC000E000930D014D
:10E56000622F4A2F512F1FEDF4CF8A950D91E0E0D5
:10E57000F1E02385F485E22FE65EFE4F0083E0E0C4
:10E58000F1E0038514850F5F1F4F03871487113057
:10E5900008F041DF882349F700E03ACF0E9455FA9E
:10E5A000912FA22F2A01662EE0E0F1E0048315836B
:10E5B000268302C00EEF600E662001F1F201208179
:10E5C0001181E0E0F1E021871287422F512F048171
:10E5D000158126810E9463F5E0E0F1E00481158158
:10E5E00026810E5F1F4F2F4F04831583268302E081
:10E5F000400E00E0501E03E06016E0F600E0192F28
:10E600002A2F04839583A6830E9469F5E0E0F1E058
:10E610000481158126810E946BF5E7E00C945DFA78
:10E62000E0E0F1E003851485012B09F0F4DE0C94A1
:10E6300020F1282E822F20E00CC0FA01362F112461
:10E64000E20FF11D311D3BBF0690F80101928F01D1
:10E650002395281790F3822D08950E9458FA289741
:10E660000A9551F00A9509F445C00A9509F47AC053
:10E670000A9509F4AFC038C024E048E75EED61E0D8
:10E6800070E08E010C5F1F4FD4DF22E04CE75EED9F
:10E6900061E070E08E010E5F1F4FCBDF8E010E94A4
:10E6A00094F080E090E0A0E0B0E012C0FC01ABBFCD
:10E6B00006910093B602AE0121E030E006EB12E0D5
:10E6C0000E94A1F00E943BF48F5F9F4FAF4FBF4F5E
:10E6D0000C811D812E813F8180179107A207B3070E
:10E6E00028F38E010E9499F00881198120E030E022
:10E6F00028968ECE24E048E75FED61E070E08E0161
:10E700000C5F1F4F96DF22E04CE75FED61E070E0A9
:10E710008E010E5F1F4F8DDF8E010E9494F080E00E
:10E7200090E0A0E0B0E00C811D812E813F81801738
:10E730009107A207B307A8F68C012A2F2395F801A9
:10E740002BBF06910093B602AE0121E030E006EB4C
:10E7500012E00E94A1F00E943BF48F5F9F4FAF4FE9
:10E76000BF4FE1CF0EE710E00C831D831E831F8394
:10E7700022E04EE75EED61E070E08E010E5F1F4F1C
:10E7800058DF8E010E9494F080E090E0A0E0B0E0BD
:10E790000C811D812E813F8180179107A207B3074D
:10E7A00008F09FCF8C012A2F005012422E4FF80103
:10E7B0002BBF06910093B602AE0121E030E006EBDC
:10E7C00012E00E94A1F00E943BF48F5F9F4FAF4F79
:10E7D000BF4FDECF0EE710E00C831D831E831F8327
:10E7E00022E04EE75FED61E070E08E010E5F1F4FAB
:10E7F00020DF8E010E9494F080E090E0A0E0B0E085
:10E800000C811D812E813F8180179107A207B307DC
:10E8100008F067CF8C012A2F005011422E4FF801CB
:10E820002BBF06910093B602AE0121E030E006EB6B
:10E8300012E00E94A1F00E943BF48F5F9F4FAF4F08
:10E84000BF4FDECF0E9435F10E942EF10E9431F1C0
:10E850000E94CDF00E9464F700E035E5E6EAF2E0C0
:10E86000008301830283338369D00E942AF10AE086
:10E8700010E00C94E9F50E9431F1EFEBF2E0008139
:10E880001181012B49F404E610E00083118302E3B7
:10E89000E3ECF2E00083118308950E9431F1EFEB85
:10E8A000F2E000811181012BC9F40091AF02EEEB7F
:10E8B000F1E0FBBFF0EE0C9410FA00E911E0EFEB91
:10E8C000F2E00083118308EC10E0E3ECF2E0008357
:10E8D0001183EFEAF2E0008103950083089500E2DE
:10E8E00013E0EDCF00E213E0EFEBF2E000831183E1
:10E8F00000E911E0EACF08EEF6CF08E017E0EFEB11
:10E90000F2E00083118308EC10E0E3ECF2E0008316
:10E9100011831093AF0208950E9431F1EFEBF2E002
:10E9200000811181012B49F408EC10E00083118370
:10E9300004E6E3ECF2E00083118308950E944AF1BB
:10E940000093A50208958A9380E022E04EE75EEDF1
:10E9500061E070E004EB12E00E9419F3E4EBF2E0F6
:10E9600000811181EDEAF2E00083118303E00E944F
:10E970002DF3E4EBF2E000831183EDEAF2E0208175
:10E98000318102171307F9F422E04CE75EED61E0F4
:10E9900070E004EB12E00E9419F3E4EBF2E0008176
:10E9A0001181EDEAF2E00083118301E00E942DF372
:10E9B000E4EBF2E000831183EDEAF2E020813181A3
:10E9C0000217130709F081E022E04EE75FED61E0F6
:10E9D00070E004EB12E00E9419F3E4EBF2E0008136
:10E9E0001181EDEAF2E00083118304E00E942DF32F
:10E9F000E4EBF2E000831183EDEAF2E02081318163
:10EA000002171307F9F422E04CE75FED61E070E0D4
:10EA100004EB12E00E9419F3E4EBF2E000811181B3
:10EA2000EDEAF2E00083118302E00E942DF3E4EBB3
:10EA3000F2E000831183EDEAF2E0208131810217D8
:10EA4000130709F08260082F89910895FBDE76DFB5
:10EA50007ADF0093AA02E6EAF2E022812A6A2283A0
:10EA60000E9448F101E00E9486F701E00093AC02A9
:10EA70000DC00E9431F111DF61DF0E94A8F101E0B9
:10EA80000093AB020091AA02002399F70091AA0219
:10EA9000002379F708E813E1E7EBF2E00083118344
:10EAA0000E9431F139DF4ADF0E94A8F10091AB02E8
:10EAB0000023B1F7E7EBF2E000811181012B81F730
:10EAC0000E9415F1EDCF0A0161E006C0002E69E059
:10EAD00003C063E001C065E0F8010CD04FB7F894C3
:10EAE0005BB72BBF60936800F895FFFF00005BBF2A
:10EAF0004FBF0895709168007170E1F70895FADFD3
:10EB000005D00EBB1FBB2DBBE29AE19AE199FECF67
:10EB10000895E7EBF2E000811181012B29F00081DB
:10EB2000015010400083118302811381012B29F0D1
:10EB30000281015010400283138304811581012B4F
:10EB400029F0048101501040048315830681178148
:10EB5000012B29F0068101501040068317830085A0
:10EB60001185012B29F00085015010400087118785
:10EB700002851385012B29F0028501501040028780
:10EB8000138704851585012B41F004850150104041
:10EB9000048715870E9447F102C00E9448F1E7EB05
:10EBA000F2E006851785012B31F0068501501040F3
:10EBB0000687178703C000E00093CB020089118904
:10EBC000012B29F0008901501040008B118B0C940F
:10EBD0007DF9E7EBF2E0068317830681012BE9F765
:10EBE00008950AEA15E5E2E7F3E000831183028164
:10EBF0001381007E2091A502022B0F71107C0283ED
:10EC0000138301E0018724E047E65EED61E070E0F8
:10EC10000CE713E00E9419F30091AA02009380030D
:10EC20000091AC020093810300E00093820308E0AE
:10EC30000093760302E713E017C00AEA15E5E2E75E
:10EC4000F3E00083118302811381007E2091A502ED
:10EC5000022B0F71107C00680283138300E0048391
:10EC600002C0028313838F010E94B7F9E2E7F3E049
:10EC7000058316838F010E94D8F9E2E7F3E007834A
:10EC8000108701E00093C90200E00093CC020093DA
:10EC9000CF0203E010E0E7ECF2E000831183089577
:10ECA0008A936097802F40E150E020E030E08E01B1
:10ECB0000E9479FA0AEA15E5E2E7F3E0008311839E
:10ECC00022813381207C0091A5020F71202B2283A9
:10ECD00000E004838A9551F08A9509F463C08A950F
:10ECE00009F47CC08A9509F4A5C03CC089010F7362
:10ECF000107C006411600283138301E0088324E028
:10ED000047E65EED61E070E08E010F5F1F4F0E94ED
:10ED100019F324E04BE65EED61E070E08E010B5FDD
:10ED20001F4F0E9419F327E04FE65EED61E070E0AF
:10ED30008E01075F1F4F0E9419F30091AA0200FF86
:10ED400007C040E150E020E030E08E010E9479FAF7
:10ED500040E150E09E010BE713E00E946BFA00E1F6
:10ED60000093760302E713E00E94B7F9E2E7F3E0CD
:10ED7000058316838F010E94D8F9E2E7F3E0078349
:10ED8000108701E00093C90200E00093CC020093D9
:10ED9000CF0203E010E0E7ECF2E00083118360961D
:10EDA0008991089589010F73107C006811600283B6
:10EDB000138327E640E05EED61E070E00BE713E0CF
:10EDC0000E9419F30091AA0200FF06C02EE031E074
:10EDD0000BE713E00E94C2FA07E6C2CF89010F7366
:10EDE000107C006C11600283138301E0088324E02F
:10EDF00047E65FED61E070E08E010F5F1F4F0E94FC
:10EE000019F324E04BE65FED61E070E08E010B5FEB
:10EE10001F4F0E9419F327E04FE65FED61E070E0BD
:10EE20008E01075F1F4F0E9419F30091AA0201FD96
:10EE300088CF8ECF89010F73107C126002831383F9
:10EE400027E640E05FED61E070E00BE713E00E9431
:10EE500019F30091AA0201FDB9CFBECF0AEA15E568
:10EE6000E2E7F3E00083118322813381207C00916B
:10EE7000A5020F71202B228300E0048389010F7308
:10EE8000107C006C1260EDCEA801B9010AEA15E50C
:10EE9000E2E7F3E0008311832281207C0091A50248
:10EEA0000F71202B228320E80BE713E00E9419F357
:10EEB00000E800937603E2E7F3E0028113810F7329
:10EEC000107C00641360CDCE00E016E920E030E055
:10EED0000E9451F145E950E020E030E00DED12E0F4
:10EEE0000E9479FA45E950E020E030E002E713E0C3
:10EEF0000E9479FA4AE050E020E030E009EC12E0AC
:10EF00000E9479FA00E002D00C944FF100930704BC
:10EF100008959A938A9324970E9497F10093DB02B5
:10EF200004E110E0E5ECF2E0008311830091CB02F4
:10EF3000002319F00A9549F00CC00091DB020A3A4F
:10EF400041F000E00093CB02D4C10091DB02053513
:10EF5000C1F72091DB02E091CB02F0E0E352FD4FDC
:10EF60002083E9ECF2E0028103950283093051F439
:10EF70000DED12E01DD2EDEDF2E027813085021794
:10EF80001307F9F68091E10290E008960091CB0218
:10EF900010E0801790400CF0ACC11093CB020DED47
:10EFA00012E0E5D1EDEDF2E025813681021713077D
:10EFB00009F099C101E00093CA020281138146E081
:10EFC0000E9401FAE6EDF1E0FBBFF0EE0C9410FABE
:10EFD0000091DF020F711091A502011709F089C19C
:10EFE0000E94F1F586C1EDEDF2E002810F7139F07A
:10EFF00002810F711091A502011709F07AC10E94D8
:10F000001BF177C1EDEDF2E002810F7139F0028161
:10F010000F711091A502011709F06BC10091AA02AE
:10F02000002309F066C100E00093AB020E9415F1D5
:10F0300060C10091DF020F711091A502011709F064
:10F0400058C10E941DF623C024E047E65EED61E052
:10F0500070E003ED12E00E9419F3EDEDF2E001859E
:10F06000128523853485E9ECF2E006871787208B2B
:10F07000318B0285138524853585468557856089C2
:10F080007189041715072607370709F032C101E017
:10F090000093AB022EC10091DF020F711091A50207
:10F0A000011709F026C101E00E9450F622C100912B
:10F0B000DF020F711091A502011709F01AC103E0D8
:10F0C000F3CF0091DF020F711091A502011709F033
:10F0D00010C102E0E9CF0091DF020F711091A5028B
:10F0E000011709F006C104E0DFCF0091DF020F71C4
:10F0F0001091A502011709F0FCC001E00E942EF753
:10F1000000E00093DC0201E00093230200930D0174
:10F1100000E0ECE1F2E00083018300932402E6EAE0
:10F12000F2E011811767118310E020E030E00E94C7
:10F130008BF2DFC00091DF020F711091A502011761
:10F1400009F0D7C001E00E942EF700E00093DC0236
:10F1500002E00093230200930D0100E0ECE1F2E0F5
:10F160000083018300932402E6EAF2E0118117672D
:10F17000118310E021E0DACF24E047E65EED61E0A4
:10F1800070E003ED12E00E9419F3EDEDF2E001856D
:10F19000128523853485E9ECF2E006871787208BFA
:10F1A000318B0091AB02013009F0A3C002851385B9
:10F1B000248535854685578560897189041715072B
:10F1C0002607370709F095C001E0038B9DCF24E0A7
:10F1D00047E65EED61E070E003ED12E00E9419F396
:10F1E000EDEDF2E00185128523853485E9ECF2E04E
:10F1F00006871787208B318B0091AB02013009F015
:10F2000078C00285138524853585468557856089B4
:10F210007189041715072607370709F06AC001E04E
:10F22000038B96CF0091DF020F711091A502011799
:10F2300029F00091DC02002309F45BC00E9431F147
:10F240000091DC02002319F401E00E942EF701E096
:10F25000009320020091E10202500093220242E05A
:10F2600050E026EE32E00AE112E00E946BFA409193
:10F27000220250E028EE32E005E212E00E946BFA32
:10F28000E6EAF2E000810363008333C00091DF020D
:10F290000F711091A502011721F00091DC020023EB
:10F2A00041F10091DC02002319F401E00E942EF7E5
:10F2B0000E9410F301E0009321021BC00091DF02C5
:10F2C0000F711091A5020117A1F444E050E026EE61
:10F2D00032E08E010E946BFA088119812A813B81FC
:10F2E0000E9444F706C004E610E0E3ECF2E000837D
:10F2F000118324968991999108959A938A93E7ECC2
:10F30000F2E000811181012B41F50091CF02002331
:10F31000F9F40E949AF1002301F10E944DF10E943C
:10F32000A2F1E091CC02F0E0EE58FC4F00810E9487
:10F3300094F1E9ECF2E00381039503838091760375
:10F3400090E008968017904044F401E0068305C0E1
:10F3500000E00093C9020E944FF1CCCF8E010E94C1
:10F3600099F0088119812296E4E00C9460FA0E94D9
:10F3700059FA2297C8018E010E9494F0A0E00BC0B8
:10F38000AE0121E030E08C010A0F131F075F1F4F11
:10F390000E94A1F0A395FC010481A01788F38E01BF
:10F3A0000E9499F0088119812296E3E00C9461FA99
:10F3B0000E9458FA2297D8018E010E9494F080E0B2
:10F3C000AE0121E030E08D01080F131F0E94A1F073
:10F3D00083958730A8F3C2CF00008895FECF07E061
:10F3E0000DBF08E00EBFC8E0D9E00E9469FA002313
:10F3F00011F00E9492FA0E9426F50E94ECF90C94FA
:10F40000ECF94A951AF016950795FBCF0895779178
:10F41000679157914791179011FA27903790089567
:10F42000F9DF041B10E003C0F4DF041B150B20E020
:10F4300030E005C0ECDF041B150B260B370BB8F0D2
:10F4400010FC17C047910790E00FF11F041710053B
:10F4500040E02407340758F436F406910024F10103
:10F46000E01BF0090994E00FF11F27903790F1019C
:10F47000099411F4D6F7F1CF31960EF0319650E0A1
:10F4800060E070E047914B3F48F089F34F3F29F02F
:10F490004E3F11F07791679157914791041B150BDF
:10F4A000260B370B39F318F3E7CF6A925A924A9238
:10F4B000BA93AA939A938A9308956E805D804C8044
:10F4C000BB81AA8199818881F0E0EC0FFD1FEF01DB
:10F4D000089501E008950D01D80104C0F90161917A
:10F4E0009F016D93BA0141505040672BB9F7D0018D
:10F4F0000895F80101C02193BA0141505040672B93
:10F50000D1F7089520E008D0E9F708953BBF27918F
:10F510003BB702D0D9F708952D9301501040202F0A
:10F52000212B089500E0402E01EE502E01E0602EC8
:10F53000F201362D6BBE07911691F201EE5FFF4F7F
:10F540003F4F3BBFA791B691F201362DEC5FFF4FC5
:10F550003F4F3BBF479157916691242F252B262B78
:10F5600021F0FA01362FD2DF01C0CCDF07E0400ED8
:10F5700000E0501E601EA201662D4E30514E6140CB
:10F58000B8F208957B2F0A2EA801D8010F5F1F4FF4
:10F59000F90161919F016C936623B9F78A01A02D4F
:04F5A000B72F0895E4
:040000031000E00009
:00000001FF
