:100000000C940F4A189518951895189518951895E9
:100010001895189518951895189518951895189578
:100020001895189518951895189518951895189568
:100030000C94460C189518951895189518951895C0
:100040001895189518951895189518951895189548
:100050001895189518951895189518951895189538
:100060001895189518951895189518951895189528
:1000700018951895189518950C94D80B18951895EF
:1000800018951895189518951895189524021E021C
:10009000280233023E023902450247028C028C02DA
:1000A0008C028C028C028C028C028C024F025F024A
:1000B0005B02570253028C028C028C028C028C026F
:1000C0008C0279027C028C0262024C027F02830263
:1000D00065027302C2027E03C802F2027E03FA02C4
:1000E000FC027E037E037E037E0304030B031203E4
:1000F0001903200327032D033B0334037E037E03F0
:100100007E037E037E0342037E037E034803720365
:10011000FF02750379034E036003C40F39103910D1
:100120003910391039103910391039103910391087
:100130003910391039103910391039103910391077
:1001400039103910391039103910BA0FBC0FBE0FE1
:10015000C00FC20FC40FC60FC80FCA0FCC0FCE0FEF
:10016000D00FD20FD40FD60FD80FDA0FDC0FDE0F5F
:10017000E00FE20FE40FE60FE80FEA0FEC0FEE0FCF
:10018000F00FF20FF40FF60FF80FFA0FFC0FFE0F3F
:10019000001002100410061008100A100C100E10A7
:1001A000101012101410161018101A101C101E1017
:1001B000201022102410261028102A102C102E1087
:1001C00030103210341036103810DE28E228EF28B4
:1001D000FC280929152921292D2939296B296F295D
:1001E00080298D299929A529B129BC29C8295349D4
:1001F0005A495D496A4960496449664968496D4997
:1002000070497D497349774979497B4980498949D2
:1002100083498C4986498F499249984995499B4918
:10022000BA93AA930E94070DA8E6BBE000E00D93E5
:100230000E941A0D44E150E020E030E08D010E9460
:10024000F64CA991B9910895BA92AA929A928A927B
:100250005A924A92BA93AA939A938A930E94350D1E
:10026000212F220F220B322F0E94054BA0E6BBE06C
:10027000FD01408550E02A01440C551C80EF9BE0B5
:10028000840D951D440F551F440F551FFA01E05171
:10029000F44F40A151A162A173A10E94C74B480134
:1002A0005901FC0100A911A9212F220F220B322F85
:1002B0000E94054BA801B901840195010E94664B7B
:1002C0000E94124BFD01E40DF51D00831183FC011A
:1002D000008B118BFD01008503950087043020F011
:1002E00000E000870E94C12EFD0100850E941A0DCA
:1002F00089919991A991B991499059908990999032
:10030000A990B990089542E451E020E030E008EB74
:100310001CE00E94F64C00E021E0E1EFFDE00083EC
:10032000018322830383048308950091810B0023BA
:1003300089F042E451E020E030E008EB1CE00E944C
:10034000F64C00E021E0E1EFFDE000830183228331
:100350000383248308950091810B002391F042E4EC
:1003600051E020E030E008EB1CE00E94F64C00E198
:1003700010E021E0E1EFFDE000831183228313838D
:100380002483089500E00093F50D08950091F50D84
:100390000130D9F460E170E042E85BE0E1EFFDE0BC
:1003A00000811181228133810E945B0CE1EFFDE02D
:1003B0000081118122813381005F1F4F2F4F3F4FFA
:1003C000008311832283338301D008950E947F0329
:1003D0000E94C1040C9417047A926A925A924A922B
:1003E000BA93AA939A938A93898590E03C01660C0C
:1003F000771C60EF7BE01B01260C371CA8EBBCE0F0
:10040000AC01440F551F440F551FA40FB51F48E200
:100410005CE0E4E2E89F400D511D482E88858A95F6
:10042000843208F079C0F0E0FBBFF2E08F9FF0016A
:10043000E457FF4F07901690F0010994F1010485ED
:10044000158520E030E068C0F1010089118960C0A5
:10045000FB010481158126813781442D0E946F4A5A
:10046000017010E0EECFFB010085118522853385F8
:10047000F4CF042D1A852B853C854EC0A858BF4F5C
:100480000D911D912D913C9147C0A853F8CFEDE1FE
:10049000FBE000811181D5CFFA010081E2CFFA01A2
:1004A0000781108535C0FA010585168531C0FA012E
:1004B000038514852DC0FA010185128529C0FA0132
:1004C0000785CFCF0091490ECCCFFA01008D118D59
:1004D000228D338D40E050E06AE774E40E94C74B00
:1004E0000E94124B19C0FA01048D158D268D378D8F
:1004F000F1CFFA010689B5CFFA010789B2CFF3012E
:10050000E854F34F03C0F301EC50F34F0081118125
:10051000212F220F220B322F89919991A991B99104
:100520004990599069907990259608957A926A92A7
:100530005A924A92BA93AA93280139010F81602FE7
:1005400070E028EB3CE0AB01440F551F440F551FF2
:10055000240F351FA8E2BCE044E2409FA00DB11D6E
:10056000660F771F1E811250133208F0C7C0F0E0EB
:10057000FBBFF2E01F9FF001EC52FF4F0790169077
:10058000F0010994FB01E051F44F44865586B6C052
:1005900001E010E04F810E942F4A212F220F220BF1
:1005A000442D45294629472979F0E0EFFBE04085B5
:1005B000518562857385402B512B622B722B4087AE
:1005C0005187628773879AC0009510952095E0EF58
:1005D000FBE040855185628573854023512362236A
:1005E0007223EDCF28583F4FF90140825182628239
:1005F000738284C02853F7CFEDE1FBE07DC0043067
:1006000008F07CC04C927AC0043008F077C0FD013D
:100610004382548273C0043008F070C0FD014182EF
:1006200052826CC0043008F069C0FD0145825682D8
:1006300065C0043008F062C0FD01408A518A5EC086
:10064000043008F05BC0FD014782508657C004307B
:1006500008F054C0FD01478651C0043008F04EC078
:10066000FD01418652864AC0043008F047C0FD01B2
:100670004586568643C0043008F040C0FD014386DD
:1006800054863CC00430D0F5FD01428A538A36C0FE
:100690000430A0F5FD01448A558A30C0043070F55D
:1006A000820193010E94054B40E050E06AE774E448
:1006B0000E94394CFD01008F118F228F338F1EC095
:1006C0000430E0F4820193010E94054B40E050E0C9
:1006D0006AE774E40E94394CFD01048F158F268F60
:1006E000378F0CC04092490E09C0FB01E854F34F0C
:1006F00003C0FB01EC50F34F408251820FCFBA93FD
:10070000AA939A938A93E2E8FBE00385083121F4E7
:1007100000E00093F50D86C01091F00D095029F10D
:100720000A9509F447C00A9509F45BC00A9509F4D3
:100730006EC00A5019F00A9559F174C0143108F0CE
:1007400071C0A1EFBDE04D915D916D917C9104E090
:10075000109FD001A056B24F4D935D936D937C9343
:10076000A0EFBDE00C9103950C9304851585000F57
:10077000111F000F111F000F111F000F111F30E07C
:1007800021E0E1EFFDE000831183228333834AC03F
:10079000112309F447C0E0EFFDE0012F0A95008323
:1007A00014E0019FF001E056F24F00811181228197
:1007B0003381E7CF848595850197880F991F880F2E
:1007C000991F880F991F880F991FA0E0E1EFFDE0A6
:1007D0000081118122813381080F191F2A1F3A1FBE
:1007E000D2CF319605E010E00E94DE4C0E94EC0171
:1007F000012B022B032BB1F0E1EFFDE00081118111
:1008000022813381005F1F4F2F4F3F4FBCCF319666
:1008100005E010E00E94DE4C0E94EC01012B022B4F
:10082000032B51F389919991A991B99108955A9205
:100830004A92BA93AA939A938A9302E8402E0BE0C5
:10084000502EF2010385083151F400E00093F50DBC
:1008500089919991A991B9914990599008950081F0
:10086000025009F44AC00A9549F00A95F9F00A9530
:1008700009F45AC00A9509F46EC0EACF319605E032
:1008800010E00E94DE4C0E94EC01C801D901F20187
:10089000369605E010E00E94DE4C0E94EC0108173D
:1008A00019072A073B07C4F441E017C0319605E059
:1008B00010E00E94DE4C0E94EC01C801D901F20157
:1008C000369605E010E00E94DE4C0E94EC01801795
:1008D0009107A207B30744F340E050E00BE0400E5D
:1008E00000E0501EF20105E010E00E94DE4C8A019B
:1008F00020E030E00E949602ABCF319605E010E098
:100900000E94DE4C0E94EC01C801D901F20136962A
:1009100005E010E00E94DE4C0E94EC018017910778
:10092000A207B307C9F6C0CF319605E010E00E94D8
:10093000DE4C0E94EC01C801D901F201369605E0B7
:1009400010E00E94DE4C0E94EC0180179107A20784
:10095000B30714F2A9CF319605E010E00E94DE4CF7
:100960000E94EC01C801D901F201369605E010E0C1
:100970000E94DE4C0E94EC01081719072A073B076A
:10098000E8CF5A924A92BA93AA939A938A9302E82A
:10099000402E0BE0502EF2010385083121F400E0D7
:1009A0000093F50D6DC010811A9531F01F5011F1B3
:1009B0001A9509F442C064C00A5149F401810650F5
:1009C00009F05EC0028113810E943E0959C0319630
:1009D00005E010E00E94DE4C0E94EC01C8010BE033
:1009E000400E00E0501EF20105E010E00E94DE4CD7
:1009F0008C0144C0319605E010E00E94DE4C0E945C
:100A0000EC01C801D901F201369605E010E00E9420
:100A1000DE4C0E94EC01A801B9010BE0400E00E0A1
:100A2000501EF20105E010E00E94DE4C480F591FF5
:100A30006A1F7B1F8A019B0121C0319605E010E0EF
:100A40000E94DE4C0E94EC01C801D901F2013696E9
:100A500005E010E00E94DE4C0E94EC01A8010BE0D2
:100A6000400E00E0501EF20105E010E00E94DE4C56
:100A7000841B950BA20BB30B8C019D010E94960267
:100A800089919991A991B99149905990089500E05F
:100A900016E920E030E00E94810C0FEC1EE0EBEE46
:100AA000FFE00083118300E00093CF0E0093970FC7
:100AB00007E91FE0EFEBFFE00083118301EC1FE08B
:100AC000E9EEFFE00083118300E00093C10FE2EE46
:100AD000FBE0008301830895BA93AA930E94D30C8C
:100AE000002311F1ABEEBFE0ED91FC9100810023FA
:100AF00091F00E94D90CABEEBFE0ED91FC9100812A
:100B00000E94DB0CEBEEFFE0008111810F5F1F4FB5
:100B10000083118309C00FEC1EE0EBEEFFE00083C1
:100B2000118300E00093CF0E0E94CD0C002309F446
:100B3000E3C0A4E2B6E00E94DD0CFD0104AB00912D
:100B4000CF0E002309F0D8C004A9102F185009F4C3
:100B500081C01A9509F4B7C01A9509F4CDC0135095
:100B600009F490C01E5021F0145209F48BC0ADC09E
:100B70000E94CD0C0023E1F30E94DD0CFD0104ABCB
:100B80000E94CD0C0023E1F30E94DD0CFD0104ABBB
:100B9000E9EEFFE020813181213C3F40D9F008E0BF
:100BA0000E94DF0C00E20E94DF0C08E00E94DF0CD4
:100BB000E9EEFFE0008111810150104000831183B4
:100BC00020E0F8012083E9EEFFE020813181213C23
:100BD0003F4029F7FD0103A914A9115419F01A95F2
:100BE000A9F116C012A9112321F0043010F40395C5
:100BF00003AB23A900E5029F9D01200D311D205765
:100C00003F4F01EC1FE00E94993E01E0FD0102AB65
:100C100001EC1FE0E9EEFFE0008311830091C10FBA
:100C2000002309F469C0A9EEBFE0ED91FC910081B9
:100C3000002309F461C00E94DF0CE9EEFFE00081AF
:100C400011810F5F1F4F00831183EDCF002389F2C5
:100C50000A95CECFE9EEFFE020813181213C3F4073
:100C600009F44AC008E00E94DF0C00E20E94DF0C99
:100C700008E00E94DF0CE9EEFFE0008111810150E5
:100C8000104033C00E94DF0CFD0104A9A9EEBFE0B3
:100C9000ED91FC910083E9EEFFE0008111810F5F8F
:100CA0001F4F0083118300E0E091E90FF12F0083D3
:100CB00026D001EC1FE0E9EEFFE00083118300E0A5
:100CC0000093C10F19C000E204AB04A90E94DF0C1D
:100CD000FD0104A9A9EEBFE0ED91FC910083E9EECE
:100CE000FFE0008111810F5F1F4F0083118300E03F
:100CF000E091E90FF12F0083A991B99108954A92EB
:100D0000BA93AA939A938A9380E090E0A4E2B6E023
:100D1000FD010385148503A314A30091C10F04AB47
:100D200085AB03A121A932E0239FE00DF11D07A3AC
:100D300010A701E0FD0101AB18C0EFEBFFE000815F
:100D40001181F8012083EFEBFFE0008111810F5F3B
:100D50001F4F0083118320E0F80120830196FC01DE
:100D6000EF53F04F0081FD0104AB24A9222369F069
:100D7000022F0D5041F0035131F00E5021F00C5074
:100D800011F00550D1F641D0E9CF00E003AB02AB42
:100D9000E1ECFFE007C00A3011F00D3011F400E083
:100DA0000083319600810023B1F723EE31E001EC9E
:100DB0001FE00E94573E0023F9F021EC3FE08D0137
:100DC00000571F4F0E94573E0023B1F0CD018053C2
:100DD0009E4F04E0402E9C01205530408C010E9423
:100DE000993E805590404A94B1F721EC3FE0A057DE
:100DF000BF4F8D010E94993E00E00093920B8991B4
:100E00009991A991B99149900895BA93AA9307E944
:100E10001FE00E94493E07E91FE078D1A4E2B6E056
:100E2000FD0104A90D5009F48FC0035141F00E508B
:100E300031F00C5021F0055009F43DC104C000917F
:100E4000970F002379F400E00093970F07E91FE064
:100E5000EFEBFFE000831183A991B9910895FD01A3
:100E600003A314A39396ED91FC9194970E2F0F2B4F
:100E700051F30681002309F048C027E93FE0408193
:100E800051818A010E946C3E002351F59396ED91A9
:100E9000FC91119700811181980102E91BE00E94E9
:100EA000813EED91FC91949703851485202F212B91
:100EB00021F0FD0103A314A3C6CF0781108520E014
:100EC0000030120741F0F80109952FED31E00FECE9
:100ED0001EE00E94D63900E0FD0103A304A3B3CFB6
:100EE0009396ED91FC91949705851685202F212BE3
:100EF00009F0B5CF00E0FD0103A304A326E032E032
:100F00000FEC1EE00E94D639ADCF40E020E030E08B
:100F100007E91FE00E944C3AFD0145A954E0459FB6
:100F2000E00DF11D0787108B218B328BFD0105A988
:100F3000039505AB9396ED91FC91949703851485E9
:100F4000202F212BB9F2B5CF23EE31E007E91FE0C6
:100F50000E943F4D012B51F42FED31E00FEC1EE0CC
:100F60000E94D63970CFFD0103A314A39396ED918F
:100F7000FC9194970E2F0F2B09F465CF0681002367
:100F800009F075C027E93FE0408151818A010E9444
:100F90006C3E002309F05AC09396ED91FC91119795
:100FA00000811181980102E91BE00E94813EED91D0
:100FB000FC91949703851485012BC9F122E032E05E
:100FC0000FEC1EE00E94D63922E93BE00FEC1EE058
:100FD0000E94D63926EC31E00FEC1EE00E94D63993
:100FE0009396ED91FC91949703851485FD0105A3DB
:100FF00016A3012BD9F02CEF31E00FEC1EE00E947C
:10100000D6399596ED91FC91119700811181980147
:101010000FEC1EE00E94710CED91FC9196970385F8
:101020001485FD0105A316A3012B29F74ECF0781D7
:101030001085F801099500E0FD0103A304A32FED3D
:1010400031E00FEC1EE00E94D63990CF9396ED91DF
:10105000FC91949705851685202F212B09F083CFCD
:1010600000E0FD0103A304A326E032E077CF40E0D7
:1010700020E030E007E91FE00E944C3AFD0145A95D
:1010800054E0459FE00DF11D0787108B218B328BBB
:101090009396ED91FC9194970781108520E00030A4
:1010A000120741F0F80109952FED31E00FEC1EE039
:1010B0000E94D63910CF24EE31E00FEC1EE00E94E2
:1010C000D639FD0103A114A105A316A3012B09F430
:1010D00043CF2CEF31E00FEC1EE00E94D6399596FD
:1010E000ED91FC9111970081118198010FEC1EE0A8
:1010F0000E94710CED91FC91969705851685FD0176
:1011000005A316A3012B09F427CFE3CF5A924A92E5
:10111000BA93AA939A938A93C8015524A4E2B6E09D
:10112000FD0103A114A105A316A323EE31E08C0158
:101130000E94573E002309F457C08C010E94A73E2D
:10114000402EFD0105A116A1012B09F44DC03EE181
:1011500020E08D010A5C1F4F0E94B63E3EE120E078
:101160008D010E581F4F0E94B63EFD0105A116A12C
:10117000F8010081118198018D010E581F4F0E94C6
:10118000710C442D9D012E583F4F8D010A5C1F4F5D
:101190000E94BE3E9C018D010A5C1F4F0E94573E7B
:1011A000002369F45394FD0105A116A1F801008103
:1011B000118198018D010C5A1F4F0E94710CFD0185
:1011C00005A116A1F80105851685FD0105A316A345
:1011D000012B09F0BCCF01E0501631F4AC5ABF4FDF
:1011E0009D018C010E94993E89919991A991B99193
:1011F0004990599008950091CF0E002329F06CDC9E
:101200000091CF0E0023D9F708952FEFF801208326
:1012100021830895F80100811181009510950083C4
:10122000118308950D01BC01FA01422F432BD9F01F
:10123000D801C9010D9120812027208328E0408119
:10124000518156954795008100FF07C008E014E8DA
:10125000042715270083118302C0408351832A95F8
:1012600071F7019739F7CB01D00108954DE250E0B5
:1012700020E030E00AEF1DE00C94F64C9A938A933C
:10128000B8018EE19EE024E0FC0139978C0149E031
:1012900050E00E94D34C09972A95B1F7EAEFFDE0A0
:1012A000608371830CEF1DE0E4EEFBE047E00E94F9
:1012B000D34C0E948811899199910895219700E05B
:1012C000088324E438E00FEC1EE00E94D6390EE8D3
:1012D000088341E050E09E010AE04ED00AE0088316
:1012E00041E050E09E0109E047D00AE1088341E077
:1012F00050E09E010BE040D041E050E09E0101E053
:1013000049D008810F73088341E050E09E0101E05D
:101310000DC0219741E050E09E010BE03BD00881D9
:10132000077E088341E050E09E010BE025D0219626
:101330000895219741E050E09E010BE02BD00881F9
:101340000861EFCFB80189012BEE3BE0F901708312
:101350006183642FA80112E002EA0C94990DB80190
:1013600089012BEE3BE0F90170836183642FA801B2
:1013700012E002EA0C94090E602F89012BEE3BE08B
:10138000F901608360E06183642FA80111E002ED40
:101390000C94990D602F89012BEE3BE0F9016083DD
:1013A00060E06183642FA80111E002ED0C94090E46
:1013B000AA939A938A932497A02F812F922F4AE081
:1013C0000E94214A102F1295107F2AE0029FA01937
:1013D000A12B082F4AE00E94214A102F1295107F5E
:1013E000029F8019812B092F4AE00E94214A102F69
:1013F0001295107F029F9019912B99838A83AB835A
:1014000002E0088341E050E09E0100E0B5DF43E0E8
:1014100050E09E012F5F3F4F02E0AEDF00E0088307
:1014200041E050E09E01A8DF249689919991A9910D
:101430000895BA93AA939A938A932597C801D901DC
:10144000043608F080E01D3008F090E0203208F00B
:10145000A0E0383008F0B0E0082F4AE00E94214AAE
:10146000102F1295107F2AE0029F8019812B092FDF
:101470004AE00E94214A102F1295107F029F901976
:10148000912B0A2F4AE00E94214AB983102F12950E
:10149000107F029FA019A12BAA839B838C8302E05B
:1014A000088341E050E09E0100E066DF44E050E048
:1014B0009E012F5F3F4F05E05FDF00E0088341E0C2
:1014C00050E09E0159DF259689919991A991B99192
:1014D0000895BA93AA93219701E0088341E050E070
:1014E0009E0100E049DFA4EEBBE047E050E09D0133
:1014F00002E050DF00E0088341E050E09E013CDF65
:101500001C9112951F700AE0109F0C910F70000D36
:101510000D930C91202F22952F701AE0219F0F70B0
:10152000000D0D930C91202F22952F70219F0F708D
:10153000000D0D930C91202F22952F70219F0F707D
:10154000000D0D930C91202F22952F70219F0F706D
:10155000000D0D930C91202F22952F70219F0F705D
:10156000000D0D930C91202F22952F70219F0F704D
:10157000000D0C93169704E31EE0FD0147E050E0D8
:101580000E94D34C2196A991B99108952197E5E144
:10159000FBE000811181012B59F408EE13E0008378
:1015A00011830AE0088341E050E09E0109E0E4DE97
:1015B00021960895BA93AA939A938A932797002322
:1015C00031F00A95D1F10A9509F467C030C00BE1FA
:1015D00011E020E00B831C832D832E838E010F5F8F
:1015E0001F4F0E94050980E090E0A0E0B0E011C02C
:1015F00041E050E09E018C01B2DEAE014F5F5F4FD3
:1016000021E030E08E010E9412098F5F9F4FAF4FA3
:10161000BF4F0B811C812D813E8180179107A2074E
:10162000B30730F38E010F5F1F4F0E940A09098133
:101630001A8120E030E0279647CF0EE710E00B83B9
:101640001C831D831E838E010F5F1F4F0E9405099F
:1016500080E090E0A0E0B0E00B811C812D813E8114
:1016600080179107A207B307E8F661E070E0AE01CA
:101670008C019D01005011422E4F3F4F0E945B0C88
:10168000AE014F5F5F4F21E030E08E010E941209F2
:101690008F5F9F4FAF4FBF4FDFCF64E070E0AE0171
:1016A0004D5F5F4F08E71FED21E030E00E945B0CCB
:1016B0008E010F5F1F4F0E94050980E090E0A0E0BF
:1016C000B0E00B811C812D813E8180179107A2071C
:1016D000B30708F0A7CF61E070E0AE018C019D0177
:1016E000005010402F4F3F4F0E945B0CAE014F5FE8
:1016F0005F4F21E030E08E010E9412098F5F9F4F03
:10170000AF4FBF4FDECF949A08959498089540E06C
:1017100050E00056194020403040C1F100561940B9
:101720002040304089F1005C12412040304051F1AE
:10173000005C12412040304019F1005C1241204011
:101740003040E1F00058154220403040A9F00058E8
:1017500015422040304071F000501B442040304082
:1017600039F00050114E2040304091F445E010C057
:101770004BE00EC041E10CC047E10AC043E208C0A3
:101780004FE206C047E404C04FE802C04FE151E019
:101790008C9A9498509398004093990008E900938C
:1017A0009A000EE000939D0000E200939C000895D3
:1017B0009A938A93FA93EA933A922A921A920A9205
:1017C0007A936A935A934A933A932A931A930A9371
:1017D0008FB79BB70E94F5489BBF8FBF09911991A6
:1017E000299139914991599169917991099019906B
:1017F00029903990E991F9918991999118950093DF
:101800009C00089500919C00089500919B0006FFA4
:1018100002C001E0089500E0089500919B0000647B
:1018200000939B0008950BB30F600BBB0AB3007FBE
:101830000ABB1F98179A0895C99B02C001E008953A
:1018400000E00895C89B02C001E0089500E00895FB
:10185000CB9B02C001E0089500E00895CA9B02C03E
:1018600001E0089500E0089500E00FBD09E00EBD1D
:1018700000E000937A0003E31BE21BBD0ABD00E019
:101880000DBD0CBD07B7006107BF08959A938A93F9
:10189000FA93EA933A922A921A920A927A936A9364
:1018A0005A934A933A932A931A930A938FB79BB702
:1018B0000E944C4491CF192E282E80E0062E072A34
:1018C00069F090E0F801E80FF91F2BBF0690FA01CC
:1018D0000192AF0183958617970798F3822D912D7A
:1018E0000895AC01C90103C021938F010196FC0149
:1018F00030E03BBF26912223F801B1F73083CA01C3
:10190000089540E050E00056194020403040C1F1B9
:10191000005619402040304089F1005C12412040BF
:10192000304051F1005C12412040304019F1005C20
:10193000124120403040E1F0005815422040304034
:10194000A9F0005815422040304071F000501B446F
:101950002040304039F00050114E2040304091F48A
:1019600045E010C04BE00EC041E10CC047E10AC0A9
:1019700043E208C04FE206C047E404C04FE802C09B
:101980004FE151E05093900049B908E10AB90EE0E7
:101990000093950000E20CB908955F9B02C001E03E
:1019A000089500E008955E9B02C001E0089500E004
:1019B00008955E9A08950CB908950CB10895EFEC5E
:1019C000FEE0008300E001830C94FB0801E005BF0A
:1019D00000E005BF08E101BD00E001BD0093740017
:1019E000089508E101BD08E001BDFFCF0E94C60ACD
:1019F000A89508959F9B02C0AF980895AF9A089547
:101A00001F9A08951F980895089578940895DF9A6D
:101A1000D79A07B3076007BBBB9808B3017F08BB21
:101A2000C09A0BB30F780BBB0AB300670ABB02E581
:101A30000DB9089510E0202F235020F029F02A95A9
:101A400041F003C0102F01C015E010FB16F4DE9A20
:101A500001C0DE9801FB16F4DD9A01C0DD9802FB9F
:101A600016F4DC9A0895DC98089523970FB10FB10E
:101A7000DF98F89400E00FB9779BFECF0FB1088391
:101A800000E00FB9779BFECF0FB1098378941881DE
:101A900020E030E0EDE7FBE0008311832283238325
:101AA000DF9A00811181169507951F70EAE4FBE02B
:101AB000008311830E94104B40E050EF6FE775E404
:101AC0000E94394C40E050E46CE176E40E94C74B40
:101AD0000E94124BE8E4FBE00083118323960895F3
:101AE000A801009171000E7F0093710000917100B8
:101AF0000D7F0093710003E31BE20E943B4A00311B
:101B000038F010E00051104042E050E00E94534A8B
:101B100000937000089501C0A8950091740007FF1C
:101B2000FBCF089500E911E0DBDF04E000937400CF
:101B300008958A927A926A925A924A92BA93AA9392
:101B40009A938A93602E2901712EDA01862E81E004
:101B500090E0009174000E7F009374000091740077
:101B60000F70006A00937400D6DF0EEF602260925F
:101B70007300009174000F70006800937400CBDF55
:101B800000917100087F083111F08EE32CC0072D01
:101B90007A94002391F0F20101912F0100937300D8
:101BA000009174000F70006800937400B4DF00911E
:101BB0007100087F083259F315C0082D8A9400235C
:101BC00099F0FD010191DF01009373000091740011
:101BD0000F700068009374009EDF00917100087F11
:101BE000083259F38DE39EEF009174000F70006D81
:101BF000009374000091740004FDFCCF8C01899166
:101C00009991A991B9914990599069907990899049
:101C100008958A927A926A925A924A92BA93AA93B1
:101C20009A938A93602E2901812EDA01762E81E023
:101C300090E0009174000E7F009374000091740096
:101C40000F70006A0093740066DF8820D9F1062DBA
:101C50000E7F00937300009174000F700068009372
:101C6000740059DF00917100087F083169F08EE33C
:101C70009EEF009174000F70006D0093740000914E
:101C8000740004FDFCCFBACF082D8A94002399F08C
:101C9000F20101912F0100937300009174000F7005
:101CA00000680093740037DF00917100087F0832EC
:101CB00059F38CE3DDCF009174000F70006A00933C
:101CC000740029DF682A60927300009174000F701D
:101CD0000068009374001FDF00917100087F0034DA
:101CE00079F08EE39EEF0CC000E02F70202B20686F
:101CF0002093740010DF00917300FD010193DF0158
:101D0000072D7A94002309F4B4CF20917400772032
:101D100059F300E4EACFBA93AA93A0EFBBE048E3FB
:101D200050E020E030E08D010E94F64C06E00D937B
:101D300005E00D9304E00D9302E00C93199605B3B2
:101D4000007C05BB04B3007C04BB08B30F7008BB68
:101D500007B3006F07BB00916500077F0093650024
:101D60000091640008600093640003B1077E03B92A
:101D700002B1086102B9AF98A79A00E010E00093A1
:101D800089000093880003EF00938B0001E000932B
:101D90008A0010938C001093870010938600109394
:101DA0008500109384000FEF13E00D931D9304EF53
:101DB00011E00D931C93A991B9910895E0EFFBE018
:101DC000008500FF02C0C49A01C0C498008501FFCD
:101DD00004C000916500086003C000916500077FA2
:101DE00000936500008502FF02C0C79A01C0C79832
:101DF000008503FF02C0C69A01C0C698008504FF93
:101E000002C0C59A01C0C59804819D9B02C00E7F87
:101E100001C00160048304819C9B02C00D7F01C04E
:101E20000260048304819B9B02C00B7F01C004609D
:101E3000048304819A9B02C0077F01C00860048369
:101E40000481999B02C00F7E01C00061048304815C
:101E5000989B02C00F7D01C00062048300E0ECEF9C
:101E6000FBE020813181102F002319F01A9531F009
:101E700009C0309387002093860004C0309385000A
:101E80002093840003953296023058F3089500E0C1
:101E90000093620000936100009165000B7F009346
:101EA00065001D981A980091640004600093640016
:101EB000159A129A08951FEF109361001091650012
:101EC0001B7F109365001D981A9A0093620001E031
:101ED00010E00E9410461A9808951FEF10936100B9
:101EE000109165001460EDCF0091640004600093D0
:101EF0006400159A129A04E610E00E9407460FE368
:101F0000DADF0AE010E00E9407460CE0D4DF0AE0C6
:101F100010E00E94074601E0CEDF0AE010E00E94D8
:101F2000074606E0C8DF0AE010E00C94074601E02F
:101F3000C2DF03E010E00C940746002311F41068A0
:101F400003C0013019F4106C012FB5DF01E010E07F
:101F50000C941046102F085A083508F08AC0F0E09B
:101F6000FBBFF2E00F9FF001E65EFE4F0790169078
:101F7000F001099411E47DC010EA7BC012E479C03D
:101F800011EA77C010EE75C015E473C013EA71C092
:101F900014EA6FC015EA6DC016EA6BC01BE469C095
:101FA00017EA67C01DE465C018E463C01FE461C0A0
:101FB00018EA5FC010E55DC013E45BC014E559C0CA
:101FC00019EA57C01AEA55C018E553C011EE51C0BE
:101FD0001BEA4FC01CEA4DC012EE4BC01DEA49C0BF
:101FE0001EEA47C012E645C01FEA43C010EB41C0DD
:101FF00011EB3FC011E63DC012EB3BC013EB39C003
:1020000014EB37C013EE35C015E633C016EB31C004
:1020100017EB2FC018EB2DC019EB2BC01AEB29C002
:102020001BEB27C01CEB25C01DEB23C01FE621C006
:102030001EEB1FC010E71DC013E61BC01FEB19C02D
:1020400019E717C014EE15C018E713C015EE11C03C
:1020500010EC0FC011EC0DC016EE0BC012EC09C055
:1020600013EC07C014EC05C015EC03C016EC01C05E
:1020700017EC012F0895BA93AA93D80103C010E07A
:1020800001E05BDF0D91002359F064DF0A30B9F302
:102090000D30A9F322DF01E010E00E941046F2CFDC
:1020A000A991B9910895BA93AA939A93D801922FBE
:1020B00004C010E001E041DF1196FD019BBF0691D5
:1020C000002359F047DF0A30A1F30D3091F305DF0B
:1020D00001E010E00E941046EFCF9991A991B991CB
:1020E0000895BA93AA939A938A9380EF9BE048E36A
:1020F00050E09C0100E010E00E94AF0940E950E090
:1021000028E23CE008E310E00E94AF09A8E2BEE04C
:1021100046E250E09D0108EC10E00E94AF094DE25C
:1021200050E02AEF3DE00EEE10E00E94AF0948E3D8
:1021300050E020E030E08C010E94F64C40E950E095
:1021400020E030E008E21CE00E94F64C46E250E05D
:1021500020E030E08D010E94F64C4DE250E020E09E
:1021600030E00AEF1DE00E94F64C06E0FC0100831F
:1021700005E0018304E0028302E00383489642E025
:1021800000E010E020E83FE3FC010193019321937C
:102190003193CF014A95A1F789E29CE004E0FC016C
:1021A000129324E630E0FC012083318324EF31E0F8
:1021B0002483358322E330E02283338328EC268393
:1021C0003783328733873087318728EE33E024879F
:1021D000358711E016872EE130E02787308B2BE919
:1021E000218B328B10E0358B368B338B348B4AE06E
:1021F00057ED63E27CE3478B508F618F728F63EA08
:102200007DE3438F548F658F768F23E2278F30A332
:102210002EE531E021A332A384960A9501F6FD0153
:10222000328742E050E020E030E08D010E94F64C21
:1022300009E0FD01058308E0068301E0078302E071
:10224000008705E0018701E0038789919991A991B1
:10225000B991089500E00E94DA0AE1EFFFE00083FF
:10226000118342E050E02DEE3BE00BE111E00E94D3
:10227000AF09EDEEFBE000811181E1EFFFE020818D
:1022800031810217130781F042E552EA60E00FEC5A
:102290001EE00E940F3A42EA52EA60E00FEC1EE0B4
:1022A0000E940F3A1EDF34C048E350E020EF3BE0CD
:1022B00000E010E00E94AF0940E950E028E23CE075
:1022C00008E310E00E94AF0946E250E028E23EE059
:1022D00008EC10E00E94AF094DE250E02AEF3DE02B
:1022E0000EEE10E00E94AF09E1E3FCE024E000E024
:1022F000008301830587068703870487B4962A95A0
:10230000B1F742EF52EA60E00FEC1EE00C940F3A96
:102310000E94890948E350E020EF3BE000E010E034
:102320000E94A20940E950E028E23CE008E310E006
:102330000E94A20946E250E028E23EE008EC10E0EC
:102340000E94A2094DE250E02AEF3DE00EEE10E0BF
:102350000E94A20900E00E94DA0AEDEEFBE0008391
:10236000118342E050E09F010BE111E00E94A209BD
:102370000C9499090E94E60C0E94340C0E944705B7
:102380000E94D5480E948B0E0E9430120E94470F77
:102390000E94920D0E94F60C0E9410010E9483017F
:1023A0000E94742E0E94360955DF0C94050DE2DF61
:1023B00042E453EA60E00FEC1EE00E940F3A0E94F4
:1023C000740F0E947A390E94AB012FE538E00FECC0
:1023D0001EE00E94D63900ED17E0E1E2FBE0008349
:1023E00011830E94F60CEBE1FBE000811181012BCF
:1023F00071F408EE13E0008311830E94690A04E37C
:102400001EE0E4EEFBE047E050E00E94D34C0E9467
:10241000C601E3E2FBE000811181012B31F404E607
:1024200010E0008311830E9424010E94DE0E0E94AE
:102430006C050E940813E9E2FBE000811181012B89
:1024400031F40AEF10E0008311830E94FA0C00912E
:10245000EF0B002331F25CDF00E00093EF0BC1CF04
:102460000E94130C01E00093330E0895BA93AA93CF
:10247000A6E7B8E00E941C0C002331F008E2FD0141
:10248000008700E0048729C0FD010485002381F452
:102490000085002369F401E0048705E010E0EDE128
:1024A000FBE00083118300E213E00D931C9311976E
:1024B000FD010485023089F40D911C911197012BC7
:1024C00061F401E0048705E010E0EDE1FBE000834A
:1024D000118308EC0D931C9311970E94220C00238A
:1024E00031F008E2FD01018700E0058729C0FD0108
:1024F0000585002381F40185002369F401E0058747
:1025000005E010E0EDE1FBE00083118300E213E061
:102510000D931C931197FD010585023089F40D91EF
:102520001C911197012B61F401E0058705E010E093
:10253000EDE1FBE00083118308EC0D931C931197F0
:102540000E94280C002331F008E2FD01028700E020
:10255000068729C0FD010685002381F4028500233A
:1025600069F401E0068705E010E0EDE1FBE000839F
:10257000118300E213E00D931C931197FD01068572
:10258000023089F40D911C911197012B61F401E047
:10259000068705E010E0EDE1FBE00083118308EC25
:1025A0000D931C9311970E942E0C002331F008E22A
:1025B000FD01038700E0078728C0FD010785002390
:1025C00081F40385002369F401E0078705E010E04A
:1025D000EDE1FBE00083118300E213E00D931C9317
:1025E0001197FD010785023081F40D911C9111971F
:1025F000012B59F401E0078705E010E0EDE1FBE075
:102600000083118308EC0D931C93A991B99108954F
:10261000BA93AA93E6E7F8E004850130A1F4A68115
:10262000B7810C91002379F417960D911C9118979E
:10263000012B39F001E0048B17960D911C91068354
:10264000178302E0048705850130A1F4A681B781D4
:102650000C91002379F419960D911C911A97012B76
:1026600039F001E0048B19960D911C9106831783B4
:1026700002E0058706850130A1F4A681B7810C919F
:10268000002379F413960D911C911497012B39F0C6
:1026900001E0048B13960D911C910683178302E0D1
:1026A000068707850130A1F4A681B7810C9100232C
:1026B00079F415960D911C911697012B39F001E0D4
:1026C000048B15960D911C910683178302E00787F2
:1026D000A681B7811196ED91FC910995A991B991C7
:1026E0000895BA93AA939A938A93A6E7B8E0FD0156
:1026F0000489002309F486C088E29EE00189002352
:1027000019F50E94970F02EE13EA20E00E94531081
:1027100010E001E00E949D0FFC010385002329F4D5
:1027200002EF13EA20E00E945310FC010385013000
:1027300029F402E314EA20E00E94531000ED17E0B0
:10274000E7E2FBE000831183FD010189013009F01C
:1027500059C00E94970F02E014EA20E00E94531033
:1027600064E070E04DEE5FE007E61EED21E030E052
:102770000E945B0C40E02DEE3FE08D010A5C1F4F94
:102780000E94E83D13E000E00E949D0F8D010A5C6D
:102790001F4F0E943B1010E001E00E949D0FFC01C2
:1027A0000385002329F402E114EA20E00E9453107B
:1027B000FC010385013029F402E514EA20E00E94BF
:1027C000531064E070E04DEE5FE00BE61EED21E09B
:1027D00030E00E945B0C40E02DEE3FE08D010A5C92
:1027E0001F4F0E94E83D13E001E00E949D0F8D0104
:1027F0000A5C1F4F0E943B1000ED17E0E7E2FBE090
:102800000083118300E0FD01048BE7E2FBE000811F
:102810001181012B11F501E0FD01048B01890023D9
:1028200019F00A9521F019C001E0018B16C006814C
:102830001781F80125813681232B79F0FD0120894C
:10284000228B20E02283238324832583218BF8019C
:1028500005811681FD010683178389919991A991BC
:10286000B9910895BA92AA928A927A926A925A92E9
:102870004A92BA93AA939A938A93229708E2602E77
:102880000EE0702EA6E7B8E0FD010489002309F4EC
:10289000FBC1F3010385002321F402E614EA20E0E2
:1028A00005C0013041F406EA14EA20E0EEE4FEE05F
:1028B000008311832283FD01428003E04016E8F487
:1028C000EEE4FEE0008111812281552441E1449D26
:1028D000000D111D005F1F4FFD014389F8012BBF43
:1028E0005691451720F0FD014282538206C0439461
:1028F0000F5E1F4F33E0431678F308EE13E0E7E274
:10290000FBE0008311830E94970FFD0182800EEF90
:102910008022482C282D30E0590102E0A00EB31E81
:102920002A153B050CF08DC1542C581811E0052DCB
:102930000E949D0F04E0401608F070C1FD0143891C
:10294000E0914E0EF0914F0E3091500E642D01E14A
:10295000069FE00DF11D70963BBF06914017B0F445
:102960006395643098F4EEE4FEE000811181E1E1CA
:10297000E69F000D111DF80170960691401710F0AA
:10298000462E04C0639571966430B8F3842DE091AF
:102990004E0EF0914F0E01E1089FE00DF11D709673
:1029A00006917097401708F439C1AF01632F8D016C
:1029B0000A5C1F4F0E940F3A8D010A5C1F4F0E9454
:1029C0003B10042D442021F00A9509F4BAC033C10C
:1029D00011E0052D0E949D0F24E2289F88E29CE0D3
:1029E000800D911DFC01008112E0019FF001E0517A
:1029F000F44F0089118908831983083E23E01340AE
:102A00001CF007EE088329839E018D010A5C1F4F8D
:102A10000E946F3D8D010A5C1F4F0E943B1017E022
:102A2000052D0E949D0F40E250E020E030E08D0136
:102A30000A5C1F4F0E94F64CF30103850023B1F599
:102A4000FC010785002341F448E25AEA60E08D0169
:102A50000A5C1F4F0E940F3AFC010785013041F4C8
:102A600040E25AEA60E08D010A5C1F4F0E940F3A73
:102A7000FC010785023041F448E35AEA60E08D0129
:102A80000A5C1F4F0E940F3AFD01228904E2029F57
:102A9000F001E85DF34F0785033041F440E45AEA62
:102AA00060E08D010A5C1F4F0E940F3AF30103851D
:102AB0000130B1F5FC010785002341F441E65AEAF3
:102AC00060E08D010A5C1F4F0E940F3AFC010785F0
:102AD000013041F449E55AEA60E08D010A5C1F4F7C
:102AE0000E940F3AFC010785023041F441E75AEA9F
:102AF00060E08D010A5C1F4F0E940F3AFD012289A0
:102B000004E2029FF001E85DF34F0785033041F4D2
:102B100049E75AEA60E08D010A5C1F4F0E940F3AB4
:102B20008D010A5C1F4F0E943B101CE0052D0E9486
:102B30009D0F07969C018D010A5C1F4F0E94883DE6
:102B400075C011E0052D0E949D0F40E250E020E08D
:102B500030E08D010A5C1F4F0E94F64C60E352E0AA
:102B600040E028EE3BE08D010A5C1F4F0E94133CC1
:102B70008D010A5C1F4F0E943B1005E618E00E9481
:102B80003B1060E352E040E029EE3BE08D010A5C3F
:102B90001F4F0E94133C8D010A5C1F4F0E943B1087
:102BA00005E618E00E943B1060E352E040E02AEEA8
:102BB0003BE08D010A5C1F4F0E94133C8D010A5CB3
:102BC0001F4F0E943B101AE0052D0E949D0F40E20E
:102BD00050E020E030E08D010A5C1F4F0E94F64C6F
:102BE00060E352E040E026EE3BE08D010A5C1F4FBF
:102BF0000E94133C8D010A5C1F4F0E943B1007E6A8
:102C000018E00E943B1060E352E040E025EE3BE01C
:102C10008D010A5C1F4F0E94133C08C048E45AEA29
:102C200060E08D010A5C1F4F0E940F3A8D010A5C23
:102C30001F4F0E943B10439455244A145B040CF42C
:102C400073CEFD018281817010E000E00E949D0F33
:102C500009E618E00E943B1010E001E00E949D0F81
:102C600009E618E00E943B10882319F08A9521F0AC
:102C70000BC010E000E002C010E001E00E949D0FD8
:102C800003E618E00E943B1000E0FD01048BE7E240
:102C9000FBE000811181012B19F401E0FD01048B9F
:102CA000FD010485013009F042C022813381022FE9
:102CB000232B29F0202F2150304022833383428060
:102CC00013894420B1F0E0914E0EF0914F0E3091F7
:102CD000500E552441E1449DE00DF11D70963BBF1F
:102CE0002691121720F0FD014282538202C04A94BD
:102CF00051F7EEE4FEE0408151816281FD012281C5
:102D0000338181E1839F902D829F910DFA01E00D27
:102D1000F91F70966BBF2691121720F410E0FD0189
:102D20000283138301E0FD01048B02E00487058523
:102D3000013009F046C022813381022F233010E098
:102D4000310720F42F5F3F4F228333834280138962
:102D500023E04216C0F4E0914E0EF0914F0E3091F8
:102D6000500E552441E1449DE00DF11D70963BBF8E
:102D70002691121720F0FD014282538204C0439431
:102D800023E0421640F3EEE4FEE04081518162818F
:102D9000FD012281338181E1839F902D829F910DDE
:102DA000FA01E00DF91F70966BBF2691121720F4FF
:102DB00010E0FD010283138301E0FD01048B02E0BA
:102DC000058706850130C9F400E002830383E8E249
:102DD000FEE00285002361F01696ED91FC911797B5
:102DE00003811481202F212B19F0FD010683178305
:102DF00001E0FD01048B02E006870785013059F5EB
:102E00001296ED91FC911397309629F03297A9F024
:102E1000319761F01DC0FD0103890023C9F000E076
:102E2000028B028303838D010B5E0DC000E0FD0168
:102E3000028303838D01055D06C000E0FD0102836E
:102E400003838D01005E1F4F0683178301E0048B0F
:102E500002E0FD010787229689919991A991B99184
:102E600049905990699079908990A990B990089566
:102E7000BA93AA939A938A932197A0EFBBE000910B
:102E80008A08002309F45FC00E94970F10E000E059
:102E90000E949D0F0091780808830DE919E00E94B7
:102EA0003B1041E09E010CEA18E00E94B73B0CEA9F
:102EB00018E00E943B1000EA19E00E943B100881D4
:102EC00012E0019F9D01200D311D205F3F4F0CEA54
:102ED00018E00E94223D0CEA18E00E943B1000918D
:102EE000780803950883FD011281011730F510E081
:102EF00001E00E949D0F0DE919E00E943B1041E0A6
:102F00009E010CEA18E00E94B73B0CEA18E00E9410
:102F10003B1000EA19E00E943B10088112E0019F7B
:102F20009D01200D311D205F3F4F0CEA18E00E94EB
:102F3000223D0CEA18E00E943B1004EF11E0E7E2AA
:102F4000FBE00083118300E000938A08E7E2FBE0E6
:102F500000811181012B19F401E000938A0800918E
:102F60008208013089F4E8E7F8E0808191818230BD
:102F7000904020F0082F02500083918301E00093DD
:102F80008A0802E000938208009183080130B9F4B6
:102F9000E8E7F8E000811181FD01828190E002976D
:102FA0000817190730F4E8E7F8E00E5F1F4F0083B9
:102FB000118301E000938A0802E0009383080091E6
:102FC0008408013099F4ACE7B8E0ED91FC910381FD
:102FD0001481202F212B39F0ECE7F8E000831183D6
:102FE00001E000938A0802E00093840800918508BC
:102FF000013019F402E00093850821968991999196
:10300000A991B9910895BA93AA9300918A080023CF
:1030100009F441C00E94970F10E000E00E949D0F4C
:10302000A3E3BEE00C91002339F44AEE54EA60E0D9
:103030000CEA18E00E940F3A0C91013039F442E199
:1030400055EA60E00CEA18E00E940F3A0CEA18E03A
:103050000E943B1010E001E00E949D0F0C910023A4
:1030600039F44EEF54EA60E00CEA18E00E940F3A9F
:103070000C91013039F446E255EA60E00CEA18E0C0
:103080000E940F3A0CEA18E00E943B1000E0E8E7CB
:10309000F8E00083018300E000938A08A991B991C8
:1030A0000895BA93AA939A938A932197A0EFBBE0CD
:1030B00000918A08002309F461C00E94970F10E074
:1030C00000E00E949D0F00917808088302EA19E051
:1030D0000E943B1041E09E010CEA18E00E94B73BC1
:1030E0000CEA18E00E943B1005EA19E00E943B1030
:1030F00041E0088112E0019F9D01200D311D245FF8
:103100003F4F0CEA18E00E94D13A0CEA18E00E9406
:103110003B100091780803950883FD011381011786
:1031200038F510E001E00E949D0F02EA19E00E94CC
:103130003B1041E09E010CEA18E00E94B73B0CEA0C
:1031400018E00E943B1005EA19E00E943B1041E0A4
:10315000088112E0019F9D01200D311D245F3F4F2A
:103160000CEA18E00E94D13A0CEA18E00E943B10E9
:1031700008EE13E0E7E2FBE00083118300E0009338
:103180008A08E7E2FBE000811181012B19F401E0DC
:1031900000938A0800918208013029F5E8E7F8E0F9
:1031A000808191818430904028F0082F0450008362
:1031B000918313C0ECE7F8E000811181F8010781E9
:1031C0001085202F212B49F0ECE7F8E000831183D4
:1031D00000E0E8E7F8E00083018301E000938A085B
:1031E00002E00093820800918308013051F5E8E77E
:1031F000F8E000811181FD01828190E004970817B9
:10320000190738F4E8E7F8E00C5F1F4F00831183DB
:1032100012C0ACE7B8E0ED91FC9101851285202F3A
:10322000212B49F0ECE7F8E00083118300E0E8E7A8
:10323000F8E00083018301E000938A0802E0009334
:10324000830800918408013099F4ACE7B8E0ED916F
:10325000FC9103811481202F212B39F0ECE7F8E059
:103260000083118301E000938A0802E00093840840
:1032700000918508013019F402E000938508219639
:1032800089919991A991B9910895BA93AA930091BE
:103290008A08002389F10E94970F10E000E00E9445
:1032A0009D0FA3E3BEE00C91002329F40AE315EA85
:1032B00020E00E9453100C91013029F402E615EA37
:1032C00020E00E94531010E001E00E949D0F0C913D
:1032D000002329F40EE415EA20E00E9453100C911B
:1032E000013029F406E715EA20E00E94531000E0BF
:1032F000E8E7F8E00083018300E000938A08A991E1
:10330000B9910895BA93AA939A938A932197A0EFBB
:10331000BBE000918A08002309F466C00E94970F61
:1033200010E000E00E949D0F00917808088307EAF2
:1033300019E00E943B1041E09E010CEA18E00E9457
:10334000B73B0CEA18E00E943B100AEA19E00E9421
:103350003B10FD0104811581980101E010E04881D6
:103360000E942F4A02231323012B19F00CEA19E0C3
:1033700002C00EEA19E00E943B1000917808039504
:1033800008831C91011750F510E001E00E949D0F89
:1033900007EA19E00E943B1041E09E010CEA18E0A8
:1033A0000E94B73B0CEA18E00E943B100AEA19E0C1
:1033B0000E943B10FD0104811581980101E010E09D
:1033C00048810E942F4A02231323012B19F00CEA93
:1033D00019E002C00EEA19E00E943B1008EE13E06B
:1033E000E7E2FBE00083118300E000938A08E7E254
:1033F000FBE000811181012B19F401E000938A08A0
:1034000000918208013029F5E8E7F8E08081918198
:103410008230904028F0082F02500083918313C01F
:10342000ECE7F8E000811181F80107811085202F79
:10343000212B49F0ECE7F8E00083118300E0E8E796
:10344000F8E00083018301E000938A0802E0009322
:10345000820800918308013039F5E8E7F8E000813F
:1034600011818C9190E002970817190728F40E5FDC
:103470001F4F0083118312C0ACE7B8E0ED91FC91BF
:1034800001851285202F212B49F0ECE7F8E000831D
:10349000118300E0E8E7F8E00083018301E0009396
:1034A0008A0802E00093830800918408013099F4AF
:1034B000ACE7B8E0ED91FC9103811481202F212B22
:1034C00039F0ECE7F8E00083118301E000938A080B
:1034D00002E00093840800918508013019F402E0AD
:1034E00000938508219689919991A991B9910895A0
:1034F000BA93AA9300918A08002389F10E94970F3A
:1035000010E000E00E949D0FA3E3BEE00C910023B9
:1035100029F40AE815EA20E00E9453100C910130CA
:1035200029F402EB15EA20E00E94531010E001E0BC
:103530000E949D0F0C91002329F40EE915EA20E06A
:103540000E9453100C91013029F406EC15EA20E09A
:103550000E94531000E0E8E7F8E00083018300E0F8
:1035600000938A08A991B9910895BA93AA939A935E
:103570008A932197A0EFBBE000918A08002309F409
:1035800075C00E94970F10E000E00E949D0F00910F
:103590007808088300EB19E00E943B1041E09E018F
:1035A0000CEA18E00E94B73B0CEA18E00E943B10BE
:1035B00003EB19E00E943B10FD010084118422847A
:1035C000338401E010E020E030E048810E94674A47
:1035D0000021112122213321012B022B032B19F071
:1035E00005EB19E002C007EB19E00E943B100091C7
:1035F000780803950883FD011181011788F510E013
:1036000001E00E949D0F00EB19E00E943B1041E099
:103610009E010CEA18E00E94B73B0CEA18E00E94F9
:103620003B1003EB19E00E943B10FD010084118464
:103630002284338401E010E020E030E048810E94E1
:10364000674A0021112122213321012B022B032B58
:1036500019F005EB19E002C007EB19E00E943B10DE
:1036600008EE13E0E7E2FBE00083118300E0009343
:103670008A08E7E2FBE000811181012B19F401E0E7
:1036800000938A0800918208013029F5E8E7F8E004
:10369000808191818230904028F0082F0250008371
:1036A000918313C0ECE7F8E000811181F8010781F4
:1036B0001085202F212B49F0ECE7F8E000831183DF
:1036C00000E0E8E7F8E00083018301E000938A0866
:1036D00002E00093820800918308013051F5E8E789
:1036E000F8E000811181FD01818190E002970817C7
:1036F000190738F4E8E7F8E00E5F1F4F00831183E5
:1037000012C0ACE7B8E0ED91FC9101851285202F45
:10371000212B49F0ECE7F8E00083118300E0E8E7B3
:10372000F8E00083018301E000938A0802E000933F
:10373000830800918408013099F4ACE7B8E0ED917A
:10374000FC9103811481202F212B39F0ECE7F8E064
:103750000083118301E000938A0802E0009384084B
:10376000009185080130E1F4ACE7B8E0ED91FC91FF
:1037700005811681012B89F0A8E7B8E00D911C9115
:10378000AAE7B8E00D931C9301E000938A08058135
:103790001681ECE7F8E00083118302E000938508CE
:1037A000219689919991A991B9910895BA93AA9373
:1037B0009A938A932197A0EFBBE000918A08002397
:1037C00009F487C00E94970F10E000E00E949D0F4F
:1037D00000917808088300EB19E00E943B1041E05B
:1037E0009E010CEA18E00E94B73B0CEA18E00E9428
:1037F0003B1003EB19E00E943B10FD010084118493
:103800002284338401E010E020E030E048810E940F
:10381000674A0021112122213321012B022B032B86
:1038200019F005EB19E002C007EB19E00E943B100C
:103830000091780803950883FD011181011788F52F
:1038400010E001E00E949D0F00EB19E00E943B1088
:1038500041E09E010CEA18E00E94B73B0CEA18E038
:103860000E943B1003EB19E00E943B10FD01008415
:1038700011842284338401E010E020E030E04881AC
:103880000E94674A0021112122213321012B022BA2
:10389000032B19F005EB19E002C007EB19E00E94B9
:1038A0003B100FE00E945B0F01E010E00E94104609
:1038B00000917A08017019F00A9521F007C015E00F
:1038C00000E002C015E001E00E949D0F00E00093BF
:1038D0008A08009182080130C1F4EAE7F8E000812B
:1038E0001181012B29F000810150104000831183C8
:1038F00000810E7F10E0E8E7F8E00083118301E02B
:1039000000938A0802E00093820800918308013046
:10391000F9F4EAE7F8E000811181FD01818190E08E
:1039200001970817190730F4EAE7F8E00F5F1F4F17
:103930000083118300917A080E7F10E0E8E7F8E039
:103940000083118301E000938A0802E0009383085A
:10395000009184080130D9F4ECE7F8E0008111818E
:10396000F80103811481202F212B39F0ECE7F8E0D6
:103970000083118301E000938A080CE00E945B0F32
:1039800001E010E00E94104602E0009384080091DC
:1039900085080130A1F501E010E020E030E0409121
:1039A0007A080E94674AFD014085518562857385CA
:1039B0004023512362237323452B462B472B69F069
:1039C00000951095209530954085518562857385C9
:1039D000402351236223732308C0408551856285AB
:1039E0007385402B512B622B732B40875187628745
:1039F000738701E000938A0802E000938508D0CE27
:103A0000BA93AA9300918A08002389F10E94970F24
:103A100010E000E00E949D0FA3E3BEE00C910023A4
:103A200029F40AED15EA20E00E9453100C910130B0
:103A300029F402E016EA20E00E94531010E001E0B1
:103A40000E949D0F0C91002329F40EEE15EA20E050
:103A50000E9453100C91013029F406E116EA20E08F
:103A60000E94531000E0E8E7F8E00083018300E0E3
:103A700000938A08A991B9910895BA93AA939A9349
:103A80008A93229700918A08002309F40CC10E94AE
:103A9000970FACEAB8E040E250E020E030E08D0162
:103AA0000E94F64CEAEFFDE000811181012B41F408
:103AB00010E000E00E949D0F09EB19E00E943B100E
:103AC000E8E7F8E02081318109E0039F102D029F93
:103AD000002D110DF801E650F24F20813181022FA7
:103AE000032B09F4E0C03883298310E000E00E9432
:103AF0009D0F00917808005D0C9300E2FD010183A9
:103B000000E002838D010E943B1012E000E00E9461
:103B10009D0F60E351E040E09E018D010E94133C47
:103B20008D010E943B1014E000E00E949D0F60E3B5
:103B300051E040E09E012F5F3F4F8D010E94133CFA
:103B40008D010E943B1017E000E00E949D0F88E26B
:103B50009EE0FC010385002351F40AE216EA20E00E
:103B6000688144E1469F000D111D0E945310FC0125
:103B70000385013051F40EED16EA20E0688144E13E
:103B8000469F000D111D0E94531010E001E00E949D
:103B90009D0F60E352E040E020E03EE0E8E7F8E01F
:103BA0002080318009E0039D102D029D110D200D14
:103BB000311F8D010E94133C8D010E943B1007ECC8
:103BC00019E00E943B1013E001E00E949D0F60E3AA
:103BD00052E040E021E03EE0E8E7F8E0208031807C
:103BE00009E0039D102D029D110D200D311F8D0147
:103BF0000E94133C8D010E943B1007EC19E00E94CB
:103C00003B1016E001E00E949D0F60E352E040E0AF
:103C100022E03EE0E8E7F8E02080318009E0039D03
:103C2000102D029D110D200D311F8D010E94133C9E
:103C30008D010E943B101BE001E00E949D0F60E39C
:103C400052E040E02EEF3DE0E8E7F8E020803180F0
:103C500009E0039D102D029D110D200D311F8D01D6
:103C60000E94133C8D010E943B1009EC19E00E9458
:103C70003B101EE001E00E949D0F60E352E040E037
:103C80002DEF3DE0E8E7F8E02080318009E0039D7A
:103C9000102D029D110D200D311F8D010E94133C2E
:103CA0008D010E943B1000E000938A080091820879
:103CB000013089F4E8E7F8E000811181012B29F057
:103CC0000081015010400083118301E000938A08B5
:103CD00002E00093820800918308013021F5A8E7F3
:103CE000B8E0ED91FC913497C0F4E8E7F8E020816A
:103CF000318109E0039F102D029F002D110DF80165
:103D0000E650F24F01851285012B39F0E8E7F8E023
:103D100089010F5F1F4F0083118301E000938A0820
:103D200002E000938308009184080130C1F4ACE7FD
:103D3000B8E0ED91FC9103811481202F212B49F0F3
:103D4000ECE7F8E00083118300E0E8E7F8E00083A7
:103D5000018301E000938A0802E000938408009147
:103D60008508013099F4ACE7B8E0ED91FC9103814E
:103D70001481202F212B39F0ECE7F8E00083118328
:103D800001E000938A0802E0009385082296899159
:103D90009991A991B9910895BA93AA9300918A082B
:103DA000002379F10E94970F10E000E00E949D0F20
:103DB000A3E3BEE00C91002371F404E918EA20E0CB
:103DC0000E94531010E001E00E949D0F08EA18EADB
:103DD00020E00E9453100C91013071F40CEB18EAB2
:103DE00020E00E94531010E001E00E949D0F00EDC2
:103DF00018EA20E00E94531000E0E8E7F8E00083B2
:103E0000018300E000938A08A991B9910895BA93BB
:103E1000AA939A938A9300918A08002309F4D3C045
:103E20000091330E002321F406EA17EA20E005C0D2
:103E3000013041F40DE118EA20E0EEE4FEE00083F9
:103E400011832283809178088330E8F4EEE4FEE069
:103E500000811181228190E041E1489F000D111DF8
:103E6000005F1F4F40918908F8012BBF56914517FD
:103E700028F0E8E7F8E08083918305C083950F5E22
:103E80001F4F833078F30E94970F40E250E020E00C
:103E900030E00CEA18E00E94F64CE8E7F8E0808198
:103EA00090E0A82FB18112968A179B0708F08BC06B
:103EB00010E02081082F021B0E949D0F853008F022
:103EC00069C060918908EEE4FEE0008111812281E1
:103ED00041E1489F000D111DF80170962BBF06911E
:103EE0006017D8F4482F43954530B8F4EEE4FEE06F
:103EF0000081118161E1649F000D111D005F1F4F62
:103F000050918908F8016691561710F0842F05C06A
:103F100043950F5E1F4F453098F3EEE4FEE040817D
:103F20005181622F01E1089F400D511D00918908C8
:103F3000FA0170961691011768F10CEA18E00E94D8
:103F40000F3A0CEA18E00E943B10082F035019F0BA
:103F50000A95D1F02EC064E070E04DEE5FE007E618
:103F60001EED21E030E00E945B0C40E02DEE3FE0D2
:103F70000CEA18E00E94E83D18E020917808082F2C
:103F8000021B0E949D0F11C064E070E04DEE5FE0E7
:103F90000BE6E6CFEEE4FEE04081518162814A59B2
:103FA0005F4F0CEA18E00E940F3A0CEA18E00E94FA
:103FB0003B108395E8E7F8E0A081B18112968A175B
:103FC0009B0708F475CF00E000938A0800918208EF
:103FD000013009F04AC0E8E7F8E04081042F118180
:103FE000012B29F0042F01501040008311838081A0
:103FF0008823C9F050918908EEE4FEE00081118128
:10400000328190E061E1689F000D111DF80170960A
:104010003BBF0691501728F0E8E7F8E080839183D2
:1040200002C08A9539F720918908AEE4BEE0ED918F
:10403000FD913C91A8E7B8E06D917C9101E1079F6B
:10404000102D069F110DE00DF11F70963BBF0691DC
:10405000201728F450E0E8E7F8E04083518301E0BE
:1040600000938A0802E000938208009183080130DF
:1040700009F04DC0E8E7F8E040819181433090407D
:1040800030F4042F11810F5F1F4F00831183808153
:104090008330D0F450918908EEE4FEE00081118174
:1040A000328190E061E1689F000D111DF80170966A
:1040B0003BBF0691501728F0E8E7F8E08083918332
:1040C00003C08395833030F350918908EEE4FEE01D
:1040D000008111813281E8E7F8E02080318061E1E0
:1040E000639D702D629D710D000D171FF801709674
:1040F0003BBF0691501728F450E0E8E7F8E0408312
:10410000518301E000938A0802E000938308009144
:1041100084080130C1F4ACE7B8E0ED91FC91038173
:104120001481202F212B49F0ECE7F8E00083118364
:1041300000E0E8E7F8E00083018301E000938A08EB
:1041400002E00093840800918508013099F4ACE7FF
:10415000B8E0ED91FC9103811481202F212B39F0DF
:10416000ECE7F8E00083118301E000938A0802E0A5
:104170000093850889919991A991B9910895BA936D
:10418000AA9300918A08002379F10E94970F10E00A
:1041900000E00E949D0FA3E3BEE00C91002371F4A8
:1041A00004E019EA20E00E94531010E001E00E94B0
:1041B0009D0F08E119EA20E00E9453100C91013094
:1041C00071F40CE219EA20E00E94531010E001E0C3
:1041D0000E949D0F00E419EA20E00E94531000E0C5
:1041E000E8E7F8E00083018300E000938A08A991E2
:1041F000B9910895BA93AA939A938A9300918A08E1
:10420000002309F46CC00E94970F40E250E020E0C8
:1042100030E00CEA18E00E94F64C809178088E7F1E
:1042200090E011E000E00E949D0F44EE58EA60E04B
:10423000880F991F880F991F880F991F880F991F42
:10424000480F591F0CEA18E00E940F3A0CEA18E0D8
:104250000E943B10809178088E7F90E0019682301A
:1042600000E09007CCF411E001E00E949D0F44EEC5
:1042700058EA60E0880F991F880F991F880F991FCF
:10428000880F991F480F591F0CEA18E00E940F3A37
:104290000CEA18E00E943B1080917808817010E0D1
:1042A00000E00E949D0F0BEC19E00E943B1010E013
:1042B00001E00E949D0F0BEC19E00E943B10882347
:1042C00019F08A9521F00BC010E000E002C010E068
:1042D00001E00E949D0F0DEC19E00E943B1000E0F0
:1042E00000938A0800918208013089F4E8E7F8E039
:1042F00000811181012B29F00081015010400083C1
:10430000118301E000938A0802E000938208009183
:104310008308013081F4E8E7F8E000811181012B86
:1043200021F401E010E00083118301E000938A088A
:1043300002E000938308009184080130E9F4ACE7BF
:10434000B8E0ED91FC9103811481202F212B71F0B5
:10435000ECE7F8E00083118301E000938A0800E0B5
:10436000E8E7F8E0008301830E94881101E00093F0
:104370008A0802E000938408009185080130C9F49E
:10438000ACE7B8E0ED91FC9103811481202F212B43
:1043900069F0ECE7F8E00083118301E000938A08FC
:1043A000009178080093330E0E94881102E0009378
:1043B000850889919991A991B9910895BA93AA9381
:1043C0009A938A93A8E2BEE0FD0102850023F9F4E6
:1043D0000CE00E945B0F01E010E00E94104600E03C
:1043E000E8E7F8E000830183EAE7F8E0008301836F
:1043F000009387080CE719E0ECE7F8E000831183ED
:1044000001E000938A0802E000938908F9C1009155
:104410008A08002309F4EEC00E94970F00918708D4
:104420000130D9F50CE00E945B0F01E010E00E9422
:1044300010460E94970FFD010385002391F410E0C0
:1044400000E00E949D0F05E619EA20E00E9453104B
:1044500010E001E00E949D0F09EA19EA20E00E94A5
:104460005310FD010385013091F410E000E00E943B
:104470009D0F0BEC19EA20E00E94531010E001E0C0
:104480000E949D0F0FE01AEA20E00E94531008EEF0
:1044900013E0E7E2FBE0008311830091870802301C
:1044A000D9F50CE00E945B0F01E010E00E9410467D
:1044B0000E94970FFD010385002391F410E000E0B6
:1044C0000E949D0F06E719EA20E00E94531010E0B9
:1044D00001E00E949D0F08E919EA20E00E945310B4
:1044E000FD010385013091F410E000E00E949D0F72
:1044F0000CED19EA20E00E94531010E001E00E9448
:104500009D0F0EEF19EA20E00E94531008EE13E011
:10451000E7E2FBE00083118300918708002309F0A4
:1045200069C010E000E00E949D0FFD01038500239B
:1045300039F444E559EA60E00CEA18E00E940F3AC9
:10454000FD010385013039F44AEB59EA60E00CEAD9
:1045500018E00E940F3A0CEA18E00E943B101AE0A3
:1045600000E00E949D0FFD010385002339F447E818
:1045700059EA60E00CEA18E00E940F3AFD01038559
:10458000013039F44DEE59EA60E00CEA18E00E947F
:104590000F3A0CEA18E00E943B100DE00E945B0FFE
:1045A00001E010E00E9410461AE000E00E949D0F1A
:1045B00007E819EA20E00E94531010917808165F6E
:1045C00000E00E949D0F40E02AE738E00CEA18E086
:1045D0000E94B73B0CEA18E00E943B10109178084B
:1045E000165F00E00E949D0F08E813E1E7E2FBE0A0
:1045F0000083118300E000938A08E7E2FBE000817A
:104600001181012BA1F501E000938A080091870830
:10461000002329F00A9551F00A9541F01FC002E0ED
:104620000093870800E00093890818C00CE00E94FE
:104630005B0F01E010E00E94104600E0E8E7F8E0C0
:1046400000830183EAE7F8E0008301830093870891
:104650000CE719E0ECE7F8E00083118301E0009338
:104660008A0808EE13E0E7E2FBE000831183009183
:1046700082080130C9F4EAE7F8E08081918189304D
:10468000904030F4082F11810F5F1F4F008311837A
:1046900001E000938A0808E813E1E7E2FBE0008309
:1046A000118302E00093820800918308013089F4AD
:1046B000EAE7F8E000811181012B29F00081015027
:1046C00010400083118301E000938A0802E0009308
:1046D0008308009184080130F1F402E0009384081B
:1046E00008E813E1E7E2FBE00083118300E00093B8
:1046F000270EE8E7F8E000811181012B49F00081E5
:10470000015010400083118301E000938A0803C028
:1047100002E00093870800918508013009F070C01D
:10472000E8E7F8E08081918185309040B0F4009115
:104730007A08282F30917908F901EF5AF14F008358
:1047400000E0EAE7F8E000830183E8E7F8E00081B1
:1047500011810F5F1F4F008311838081918185300C
:10476000904008F441C004E010E00083118302E0AF
:10477000009387081093890801E00093270E81E5D4
:104780009EE08D0125E0FC013081F8014081341765
:1047900019F030E03093270E0F5F1F4F01962A95D6
:1047A00091F70091270E002329F001E0009387087C
:1047B0000093890801E00093270EE1E5FEE01596DD
:1047C00005E011912D91121719F010E01093270EAA
:1047D0000A95B9F70091270E002331F001E000930C
:1047E000870802E00093890801E000938A0808E83E
:1047F00013E1E7E2FBE00083118302E00093850808
:1048000089919991A991B99108956A925A924A927F
:10481000BA93AA939A938A9300918A08002309F481
:10482000C6C1A8E2BEE0FD010385002321F401E832
:104830001AEA20E005C0013041F40AE11BEA20E059
:10484000EEE4FEE0008311832283809178088730B4
:10485000E8F4EEE4FEE000811181228190E041E184
:10486000489F000D111D005F1F4F40918908F801FE
:104870002BBF5691451728F0E8E7F8E08083918335
:1048800005C083950F5E1F4F873078F308EE13E065
:10489000E7E2FBE0008311830E94970F40E250E0C3
:1048A00020E030E00CEA18E00E94F64C60907808B6
:1048B0000EEF6022862D262D30E0290102E0400E09
:1048C000531E241535050CF04FC1982F961911E091
:1048D000092F0E949D0F893008F035C12091890869
:1048E000E0914E0EF0914F0E3091500E482F01E1A5
:1048F000049FE00DF11D70963BBF06912017C0F498
:10490000082F03950930A0F4E0914E0EF0914F0E60
:1049100041E1409FE00DF11D7096109189082691AC
:10492000121710F0802F04C0039571960930A8F378
:10493000EEE4FEE040815181632F282F01E1029FC8
:10494000400D511D00918908FA01709616910117CA
:1049500008F4F9C00CEA18E00E940F3A0CEA18E0DB
:104960000E943B1018E0092F0E949D0F082F8823FA
:10497000C9F00A9509F4A6C00A9509F4B0C00A95D1
:1049800009F4B0C00A9509F4BAC00A9509F4BAC08E
:104990000A9509F4BAC00A9509F4C5C00A9509F444
:1049A000C5C0D8C0FD010385002309F044C0209193
:1049B000880804E2029FF001E85DF34F07850023B9
:1049C00039F448E25AEA60E00CEA18E00E940F3A33
:1049D0002091880804E2029FF001E85DF34F07850B
:1049E000013039F440E25AEA60E00CEA18E00E9433
:1049F0000F3A2091880804E2029FF001E85DF34F2E
:104A00000785023039F448E35AEA60E00CEA18E01E
:104A10000E940F3A2091880804E2029FF001E85DAD
:104A2000F34F0785033039F440E45AEA60E00CEABA
:104A300018E00E940F3AFD010385013009F08AC099
:104A40002091880804E2029FF001E85DF34F07859A
:104A5000002339F441E65AEA60E00CEA18E00E94CB
:104A60000F3A2091880804E2029FF001E85DF34FBD
:104A70000785013039F449E55AEA60E00CEA18E0AC
:104A80000E940F3A2091880804E2029FF001E85D3D
:104A9000F34F0785023039F441E75AEA60E00CEA47
:104AA00018E00E940F3A2091880804E2029FF0016A
:104AB000E85DF34F0785033009F04CC049E75AEA37
:104AC00060E044C02FE23CE04091880804E2049F8B
:104AD000200D311D0CEA18E00E94223D3BC021E36D
:104AE0003CE026C029E23CE04091880804E2049FB3
:104AF000200D311D0CEA18E00E946D3B2BC02BE20B
:104B00003CE0F2CF2DE23CE0EFCF40E028E33CE098
:104B10006091880804E2069F200D311D0CEA18E020
:104B20000E94D13A17C025E33CE002C023E33CE0F9
:104B30004091880804E2049F200D311D0CEA18E022
:104B40000E949B3D07C048E45AEA60E00CEA18E086
:104B50000E940F3A0CEA18E00E943B10839590E007
:104B6000841595050CF4B1CE80917808817010E021
:104B700000E00E949D0F0FEC19E00E943B1010E036
:104B800001E00E949D0F0FEC19E00E943B1088236A
:104B900019F08A9521F00BC010E000E002C010E08F
:104BA00001E00E949D0F01ED19E00E943B1000E022
:104BB00000938A08E7E2FBE000811181012B19F4E0
:104BC00001E000938A0800918208013009F04AC090
:104BD000E8E7F8E04081042F1181012B29F0042F30
:104BE000015010400083118380818823C9F05091C7
:104BF0008908EEE4FEE000811181328190E061E1FC
:104C0000689F000D111DF80170963BBF069150176B
:104C100028F0E8E7F8E08083918302C08A9539F7AD
:104C200020918908AEE4BEE0ED91FD913C91A8E7AA
:104C3000B8E06D917C9101E1079F102D069F110D49
:104C4000E00DF11F70963BBF0691201728F450E04D
:104C5000E8E7F8E04083518301E000938A0802E02E
:104C60000093820800918308013009F04DC0E8E705
:104C7000F8E0408191814830904030F4042F118158
:104C80000F5F1F4F0083118380818830D0F45091D3
:104C90008908EEE4FEE000811181328190E061E15B
:104CA000689F000D111DF80170963BBF06915017CB
:104CB00028F0E8E7F8E08083918303C0839588308B
:104CC00030F350918908EEE4FEE0008111813281D9
:104CD000E8E7F8E02080318061E1639D702D629DFE
:104CE000710D000D171FF80170963BBF069150170C
:104CF00028F450E0E8E7F8E04083518301E00093B6
:104D00008A0802E000938308009184080130C1F40E
:104D1000ACE7B8E0ED91FC9103811481202F212BA9
:104D200049F0ECE7F8E00083118300E0E8E7F8E001
:104D30000083018301E000938A0802E00093840865
:104D400000918508013049F5E8E7F8E0008111811C
:104D5000012B81F4E8E2FCE02091880804E2029F44
:104D6000E00DF11D0785002311F401E001C000E012
:104D700007870DC0ACE7B8E0ED91FC910581168185
:104D8000202F212B39F0ECE7F8E00083118301E0BC
:104D900000938A0802E00093850889919991A9916E
:104DA000B99149905990699008956A925A924A929D
:104DB000BA93AA939A938A9300918A08002309F4DC
:104DC000D9C1A8E2BEE0FD010385002321F401E87A
:104DD0001AEA20E005C0013041F40AE11BEA20E0B4
:104DE000EEE4FEE00083118322838091780887300F
:104DF000E8F4EEE4FEE000811181228190E041E1DF
:104E0000489F000D111D005F1F4F40918908F80158
:104E10002BBF5691451728F0E8E7F8E0808391838F
:104E200005C083950F5E1F4F873078F308EE13E0BF
:104E3000E7E2FBE0008311830E94970F40E250E01D
:104E400020E030E00CEA18E00E94F64C6090780810
:104E50000EEF6022862D262D30E0290102E0400E63
:104E6000531E241535050CF04FC1982F961911E0EB
:104E7000092F0E949D0F893008F035C120918908C3
:104E8000E0914E0EF0914F0E3091500E482F01E1FF
:104E9000049FE00DF11D70963BBF06912017C0F4F2
:104EA000082F03950930A0F4E0914E0EF0914F0EBB
:104EB00041E1409FE00DF11D709610918908269107
:104EC000121710F0802F04C0039571960930A8F3D3
:104ED000EEE4FEE040815181632F282F01E1029F23
:104EE000400D511D00918908FA0170961691011725
:104EF00008F4F9C00CEA18E00E940F3A0CEA18E036
:104F00000E943B1018E0092F0E949D0F082F882354
:104F1000C9F00A9509F4A6C00A9509F4B0C00A952B
:104F200009F4B0C00A9509F4BAC00A9509F4BAC0E8
:104F30000A9509F4BAC00A9509F4C5C00A9509F49E
:104F4000C5C0D8C0FD010385002309F044C02091ED
:104F5000880804E2029FF001E85DF34F0785002313
:104F600039F448E25AEA60E00CEA18E00E940F3A8D
:104F70002091880804E2029FF001E85DF34F078565
:104F8000013039F440E25AEA60E00CEA18E00E948D
:104F90000F3A2091880804E2029FF001E85DF34F88
:104FA0000785023039F448E35AEA60E00CEA18E079
:104FB0000E940F3A2091880804E2029FF001E85D08
:104FC000F34F0785033039F440E45AEA60E00CEA15
:104FD00018E00E940F3AFD010385013009F08AC0F4
:104FE0002091880804E2029FF001E85DF34F0785F5
:104FF000002339F441E65AEA60E00CEA18E00E9426
:105000000F3A2091880804E2029FF001E85DF34F17
:105010000785013039F449E55AEA60E00CEA18E006
:105020000E940F3A2091880804E2029FF001E85D97
:10503000F34F0785023039F441E75AEA60E00CEAA1
:1050400018E00E940F3A2091880804E2029FF001C4
:10505000E85DF34F0785033009F04CC049E75AEA91
:1050600060E044C02FE23CE04091880804E2049FE5
:10507000200D311D0CEA18E00E94223D3BC021E3C7
:105080003CE026C029E23CE04091880804E2049F0D
:10509000200D311D0CEA18E00E946D3B2BC02BE265
:1050A0003CE0F2CF2DE23CE0EFCF40E028E33CE0F3
:1050B0006091880804E2069F200D311D0CEA18E07B
:1050C0000E94D13A17C025E33CE002C023E33CE054
:1050D0004091880804E2049F200D311D0CEA18E07D
:1050E0000E949B3D07C048E45AEA60E00CEA18E0E1
:1050F0000E940F3A0CEA18E00E943B10839590E062
:10510000841595050CF4B1CE0DE00E945B0F01E013
:1051100010E00E94104680917808817010E000E055
:105120000E949D0F0FEC19E00E943B1010E001E07F
:105130000E949D0F0FEC19E00E943B10882319F08C
:105140008A9561F017C010E000E00E949D0F01ED0C
:1051500019E00E943B1010E000E00AC010E001E0FE
:105160000E949D0F01ED19E00E943B1010E001E04C
:105170000E949D0F00E000938A0800918208013090
:1051800009F088C0A8E2BCE02091880804E2029FF0
:10519000A00DB11DE8E7F8E0008111810930E0E0E1
:1051A0001E0708F071C0F0E0FBBFF801EE0FFF1F13
:1051B000E653FE4F07901690F001099401E0FD01BF
:1051C000078762C0FD01078110850C3D25E01207AD
:1051D0000CF05AC00B5F1F4F0783108755C0FD01AD
:1051E000018512850E3D23E012070CF04DC0065FCD
:1051F0001F4F0187128748C0FD01018112810033D2
:1052000025E712070CF040C00B5F1F4F018312838C
:105210003BC0FD0103811481003325E71207A4F58B
:105220000B5F1F4F038314832FC0FD01058116817F
:10523000003325E7120744F50B5F1F4F05831683E4
:1052400023C0FD0100891189003F20E01207E0F42E
:105250000F5F1F4F008B118B17C0FD010585168551
:105260000E3D23E0120784F4065F1F4F0587168763
:105270000BC0FD01038514850E3D23E0120724F4C5
:10528000065F1F4F0387148701E000938A0802E03E
:105290000093820800918308013009F08AC0A8E2D7
:1052A000BCE02091880804E2029FA00DB11DE8E750
:1052B000F8E0008111810930E0E01E0708F073C0BA
:1052C000F0E0FBBFF801EE0FFF1FE452FE4F079026
:1052D0001690F001099400E0FD01078764C0FD010C
:1052E00087819085863090403CF0082F10850550CE
:1052F00010400783108757C000E00783008753C022
:10530000FD010185128503322CEF12070CF44BC00E
:105310000A5010400187128746C0FD0101811281A9
:10532000013D2AE81207FCF1055010400183128369
:105330003AC0FD0103811481013D2AE812079CF166
:1053400005501040038314832EC0FD010581168192
:10535000013D2AE812073CF10550104005831683F1
:1053600022C0FD0100891189012BE9F0008901505B
:105370001040008B118B17C0FD0105851685033287
:105380002CEF120784F00A501040058716870BC0D7
:10539000FD010385148503322CEF120724F00A5017
:1053A00010400387148701E000938A0802E000930D
:1053B000830800918408013011F5ACE7B8E0ED9165
:1053C000FC9103811481202F212B61F0ECE7F8E0A0
:1053D0000083118301E000938A0800E0E8E7F8E029
:1053E000008301830CE00E945B0F01E010E00E944B
:1053F000104601E000938A0802E0009384080091BF
:1054000085080130E1F40CE00E945B0F01E010E040
:105410000E941046ACE7B8E0ED91FC910381148145
:10542000202F212B49F0ECE7F8E00083118301E005
:1054300000938A080E94881102E000938508ADCC91
:10544000BA93AA9300918A08002379F10E94970FDA
:1054500010E000E00E949D0FA3E3BEE00C9100234A
:1054600071F403EB1BEA20E00E94531010E001E00E
:105470000E949D0F07EC1BEA20E00E9453100C9144
:10548000013071F40BED1BEA20E00E94531010E094
:1054900001E00E949D0F0FEE1BEA20E00E945310D6
:1054A00000E0E8E7F8E00083018300E000938A0869
:1054B000A991B9910895BA93AA939A938A93009166
:1054C0008A08002309F478C00E94970FACEAB8E07C
:1054D00040E250E020E030E08D010E94F64C11E007
:1054E00000E00E949D0F84EE9BE060E352E040E00C
:1054F0009C012C5F3F4F8D010E94133C8D010E9447
:105500003B1014E000E00E949D0F49EF5BEA60E071
:10551000FC0125810AE0029F400D511D8D010E9472
:105520000F3A8D010E943B101EE000E00E949D0F8B
:1055300060E352E040E09C012A5F3F4F8D010E94F2
:10554000133C8D010E943B1014E001E00E949D0F6E
:1055500060E352E040E09C012E5F3F4F8D010E94CE
:10556000133C0EE2FD01028300E003838D010E94E3
:105570003B1017E001E00E949D0F60E352E040E025
:105580009C012F5F3F4F8D010E94133C0EE2FD01F5
:10559000028300E003838D010E943B101AE001E0CA
:1055A0000E949D0F60E352E040E09C018D010E944B
:1055B000133C8D010E943B1000E000938A08E7E253
:1055C000FBE000811181012B39F401E000938A088E
:1055D00008EE13E00083118300918208013019F472
:1055E00002E00093820800918308013019F402E080
:1055F00000938308009184080130C1F4ACE7B8E05F
:10560000ED91FC9103811481202F212B49F0ECE7CF
:10561000F8E00083118300E0E8E7F8E0008301830D
:1056200001E000938A0802E0009384080091850855
:10563000013099F4ACE7B8E0ED91FC910581168159
:10564000202F212B39F0ECE7F8E00083118301E0F3
:1056500000938A0802E00093850889919991A991A5
:10566000B9910895BA93AA939A938A9384EE9BE092
:1056700000918A08002309F4D6C00E94970FACEA73
:10568000B8E040E250E020E030E08D010E94F64CAE
:1056900011E000E00E949D0F60E352E040E09C01B9
:1056A0002C5F3F4F8D010E94133C8D010E943B10E7
:1056B00014E000E00E949D0F49EF5BEA60E0FC010E
:1056C00025810AE0029F400D511D8D010E940F3A75
:1056D0008D010E943B101EE000E00E949D0F60E3E0
:1056E00052E040E09C012A5F3F4F8D010E94133C35
:1056F0008D010E943B1014E001E00E949D0F60E3C9
:1057000052E040E09C012E5F3F4F8D010E94133C10
:105710000EE2FD01028300E003838D010E943B1035
:1057200017E001E00E949D0F60E352E040E09C0121
:105730002F5F3F4F8D010E94133C0EE2FD0102835B
:1057400000E003838D010E943B101AE001E00E94FB
:105750009D0F60E352E040E09C018D010E94133CEC
:105760008D010E943B10A091780810E000E00E949B
:105770009D0F03ED19E00E943B1013E000E00E9432
:105780009D0F03ED19E00E943B101DE000E00E9418
:105790009D0F03ED19E00E943B1013E001E00E9411
:1057A0009D0F03ED19E00E943B1016E001E00E94FE
:1057B0009D0F05ED19E00E943B1019E001E00E94E9
:1057C0009D0F05ED19E00E943B10AA2359F0AA9500
:1057D000A1F0AA95A9F0AA95A9F0AA95A9F0AA9571
:1057E000B1F021C010E000E00E949D0F07ED19E02C
:1057F0000E943B1010E000E014C013E000E009C07C
:105800001DE0F1CF13E004C016E001E0EDCF19E098
:1058100001E00E949D0F07ED19E00E943B1010E08F
:1058200001E00E949D0F00E000938A08E7E2FBE0A0
:1058300000811181012B39F401E000938A0808EE00
:1058400013E00083118300918208013089F4E8E7B6
:10585000F8E000811181012B29F0008101501040F6
:105860000083118301E000938A0802E0009382081C
:1058700000918308013091F4E8E7F8E0A081B1815C
:10588000159730F4008111810F5F1F4F0083118342
:1058900001E000938A0802E00093830800918408E5
:1058A0000130C9F4ECE7F8E000811181F8010381CF
:1058B0001481202F212B49F0ECE7F8E000831183BD
:1058C00000E0E8E7F8E00083018301E000938A0844
:1058D00002E00093840800918508013011F50CE086
:1058E0000E945B0F01E010E00E941046ECE7F8E038
:1058F00000811181F80105811681202F212B71F083
:10590000ECE7F8E00083118306E51EE0FC0147E0C8
:1059100050E00E94D34C01E000938A0802E000931B
:1059200085089BCEBA93AA939A938A93A6E5BEE084
:1059300000918A08002309F4EDC00E94970F11E03E
:1059400000E00E949D0F8CEA98E060E352E040E0A6
:105950009D012C5F3F4F8C010E94133C8C010E94E3
:105960003B1014E000E00E949D0F49EF5BEA60E00D
:10597000FD0125810AE0029F400D511D8C010E940E
:105980000F3A8C010E943B101EE000E00E949D0F28
:1059900060E352E040E09D012A5F3F4F8C010E948E
:1059A000133C8C010E943B1014E001E00E949D0F0B
:1059B00060E352E040E09D012E5F3F4F8C010E946A
:1059C000133C0EE2FC01028300E003838C010E9481
:1059D0003B1017E001E00E949D0F60E352E040E0C1
:1059E0009D012F5F3F4F8C010E94133C0EE2FC0192
:1059F000028300E003838C010E943B101AE001E067
:105A00000E949D0F60E352E040E09D018C010E94E6
:105A1000133C8C010E943B108091780810E000E05C
:105A20000E949D0F03ED19E00E943B1013E000E07F
:105A30000E949D0F03ED19E00E943B101DE000E065
:105A40000E949D0F03ED19E00E943B1013E001E05E
:105A50000E949D0F03ED19E00E943B1016E001E04B
:105A60000E949D0F05ED19E00E943B1019E001E036
:105A70000E949D0F05ED19E00E943B10882359F00C
:105A80008A95A1F08A95E1F08A9521F18A9561F1D4
:105A90008A95A1F13FC010E000E00E949D0F07ED44
:105AA00019E00E943B1010E000E032C013E000E07B
:105AB0000E949D0F07ED19E00E943B1013E0F4CF08
:105AC0001DE000E00E949D0F07ED19E00E943B10D1
:105AD0001DE0EACF13E001E00E949D0F07ED19E001
