:100000000C94C95A1895189518951895189518951F
:100010001895189518951895189518951895189578
:100020001895189518951895189518951895189568
:100030000C94BC191895189518951895189518953D
:1000400018951895189518950C94E403189518951B
:100050001895189518951895189518951895189538
:100060001895189518951895189518951895189528
:1000700018951895189518950C94C01A18951895F8
:100080000C94E81A1895189518951895530A050BAD
:10009000050B050B6D0A9B0AB10AA70ABB0A050BE3
:1000A000050B050B050B050B7C0A050B050B050B5A
:1000B000C50A050B530A050B050B050B050B050BB4
:1000C000050B5E0A050B050B050B050B050B050B58
:1000D000050B050B050B050B050B050B050B050BA0
:1000E000050B050B050B050B050B050B050B050B90
:1000F000DA0AD00AE40AEE0AFC0AFA2404250F25DB
:100100001B2523252B2534253825632563256325C9
:10011000632563256325632563256325632563259F
:10012000632563256325632563256325632563258F
:10013000632563256325632563256325632563257F
:10014000632563256325632563256325632563256F
:10015000632563256325632563256325632547257B
:1001600052255B2563256325632563256325632568
:10017000632563256325632563256325632563253F
:10018000632563256325632563256325632563252F
:10019000632563256325632563256325632563251F
:1001A000632563256325632563256325632563250F
:1001B00063256325632563256325632563256325FF
:1001C00063255F25742578257C257F258325872554
:1001D0008B258F259D2FAE2FBF2FDC2FF92F1630AB
:1001E000333050306D308830A530D130F5300D319E
:1001F0003F32503261327E329B32B932D732F532E1
:10020000133331334E3379339C33B4338A93802F95
:10021000012F8823A1F10E941C040AEA15E5E6E1FA
:10022000F4E00083118302811381007E082B0F7399
:10023000107C006215600283138300E004838F0149
:100240000E944A09E6E1F4E0058316838F010E94CB
:100250006D09E6E1F4E00783108701E000934205B1
:1002600000E00093450501E00093460500E000939F
:100270004305009344050093470500934805899181
:100280000895AA939A938A93802FA12F022F112366
:10029000E9F10E941C040AEA15E5E6E1F4E00083B6
:1002A000118322813381207E2A2B2F73307C90E0B2
:1002B00047968C0146E00E94035B007C1F73202B55
:1002C000312B20622283338300E004838F010E945C
:1002D0004A09E6E1F4E0058316838F010E946D0967
:1002E000E6E1F4E00783108701E00093420500E0B7
:1002F0000093450501E00093460500E000934305A7
:10030000009344050093470500934805899199910E
:10031000A99108958A93802F012F8823A1F10E942B
:100320001C040AEA15E5E6E1F4E00083118302818A
:100330001381007E082B0F73107C006A1860028303
:10034000138300E004838F010E944A09E6E1F4E090
:10035000058316838F010E946D09E6E1F4E00783AF
:10036000108701E00093420500E00093450501E09D
:100370000093460500E00093430500934405009375
:1003800047050093480589910895BA93AA939A93D3
:100390008A93902F812FD901012F0E941C0445E2DE
:1003A00050E09D010FE114E00E949A5D0AEA15E514
:1003B000E6E1F4E00083118302813381007E282F7F
:1003C0002F71022B00620283882311F40F7D0283B8
:1003D00022812F73307C092F10E0025E1F4F46E010
:1003E0000E94035B007C1F73202B312B22833383FD
:1003F00005E204838F010E944A09E6E1F4E00583E7
:1004000016838F010E946D09E6E1F4E007831087EF
:1004100001E00093420500E00093450501E00093F0
:10042000460500E00093430500934405009347050B
:100430000093480589919991A991B99108958A935A
:10044000802F012F0E941C0447E050E02EE43FE083
:100450000FE114E00E949A5D0AEA15E5E6E1F4E096
:100460000083118302811381007E282F2F71022BBC
:1004700000620283882311F40F7D028302810F73CF
:10048000107C006C18606CC09A938A93802F942F14
:1004900010931F044093200402E0909FA00101E20A
:1004A00014E00E949A5D0AEA15E5E6E1F4E00083B3
:1004B000118302811381007E282F2F71022B00628D
:1004C0000283882311F40F7D028302810F73107C55
:1004D0001A6002831383990F9E5F94838F010E9499
:1004E0004A09E6E1F4E0058316838F010E946D0955
:1004F000E6E1F4E00783108701E00093420500E0A5
:100500000093450501E00093460500E00093430594
:1005100000934405009347050093480589919991FC
:1005200008958A93802F0E941C040AEA15E5E6E1EB
:10053000F4E00083118302811381007E282F2F7144
:10054000022B00620283882311F40F7D0283028153
:100550000F73107C1B600283138300E004C01960DA
:100560000283138307E004838F010E944A09E6E1B6
:10057000F4E0058316838F010E946D09E6E1F4E043
:100580000783108701E00093420500E000934505D2
:1005900001E00093460500E0009343050093440505
:1005A0000093470500934805899108959A938A938B
:1005B0002297C80189010E94C3540883198342E02D
:1005C00050E09E010FE114E00E949A5D9093210497
:1005D000492F50E00881198120ED3EE0200F311FA6
:1005E00002E214E00E949A5D082F0E941C040AEAAD
:1005F00015E5E6E1F4E00083118302811381007EBA
:10060000282F2F71022B00620283882311F40F7DA3
:10061000028302810F73107C006C1C6002831383C1
:100620009D5F94838F010E944A09E6E1F4E005830F
:1006300016838F010E946D09E6E1F4E007831087BD
:1006400001E00093420500E00093450501E00093BE
:10065000460500E0009343050093440500934705D9
:100660000093480522968991999108959A938A93C7
:100670002297C80189010E94C354088319838823E3
:10068000F1F142E050E09E010FE114E00E949A5D1A
:1006900090932104082F0E941C040AEA15E5E6E164
:1006A000F4E00083118302811381007E082B0F7315
:1006B000107C006A1C600283138303E004838F01B3
:1006C0000E944A09E6E1F4E0058316838F010E9447
:1006D0006D09E6E1F4E00783108701E0009342052D
:1006E00000E00093450501E00093460500E000931B
:1006F000430500934405009347050093480522965F
:10070000899199910895002391F12AEA35E5E6E16E
:10071000F4E02083318322813381207E202B2F73CC
:10072000307C20623D602283338300E004838F01AC
:100730000E944A09E6E1F4E0058316838F010E94D6
:100740006D09E6E1F4E00783108701E000934205BC
:1007500000E00093450501E00093460500E00093AA
:100760004305009344050093470500934805089509
:1007700000917F03002369F0025069F00A9569F047
:100780000A9569F00A9569F00A9569F00A9569F089
:1007900008950C9435240C948A270C9476350C9487
:1007A000653B0C94264C0C9455420C94B347202F77
:1007B000212B49F025E000002A95E9F7015010406F
:1007C000202F212BB9F708959A938A93FA93EA93ED
:1007D0003A922A921A920A927A936A935A934A9375
:1007E0003A932A931A930A938FB79BB7A3D09BBFD0
:1007F0008FBF099119912991399149915991699125
:1008000079910990199029903990E991F9918991FC
:10081000999118950CB908950CB108955E9B02C08A
:1008200001E0089500E008955E9A0895DD9A02E0DF
:1008300010E0BDCFDD9808950093490508959A937F
:100840008A9380E090E00056194020403040C1F18A
:10085000005619402040304089F1005C1241204090
:10086000304051F1005C12412040304019F1005CF1
:10087000124120403040E1F0005815422040304005
:10088000A9F0005815422040304071F000501B4440
:100890002040304039F00050114E2040304091F45B
:1008A00085E010C08BE00EC081E10CC087E10AC07A
:1008B00083E208C08FE206C087E404C08FE802C06C
:1008C0008FE191E0D59ADD98B1DF9093900089B9DE
:1008D00008E90AB90EE00093950000E20CB989918D
:1008E0009991089500E016E920E030E0A8DF45E99D
:1008F00050E020E030E001E813E00E94A85D45E907
:1009000050E020E030E006E114E00E94A85D4AE2F9
:1009100050E020E030E002E415E00E94A85DEAE447
:10092000F5E000E212E311930A95E1F700E000938D
:10093000490508959A938A936FDF0093800300918D
:100940004405002319F00A9549F00CC0009180037A
:100950000A3A41F000E00093440523C0009180036F
:100960000535C1F720918003E091440510E0F0E0E7
:10097000EF57FC4F2083E2E4F5E002810395028308
:1009800004E1E6E1F0E1008311838091850390E0CA
:10099000089600914405801790401CF401E00093F4
:1009A00043058991999108959A938A9337DF00239B
:1009B000F1F0009148050023B9F436DFE0914505D8
:1009C000F0E0EA5EFB4F008125DFE2E4F5E0038121
:1009D0000395038380911A0490E008968017904055
:1009E00034F401E0068303C000E0009342058991DE
:1009F0009991089500914605002359F00A9569F0F0
:100A00000A9509F450C00A9509F4B2C00A9509F094
:100A1000D2C000E000930C06089508DFC5DF009106
:100A200042050023F1F506DF0091180405FF30C0F0
:100A300002E00093460504E110E0E6E1F0E1008306
:100A40001183E0914905F0E0E451FA4F00810395EC
:100A50000083E0914905F0E0E451FA4F008104364B
:100A600000F100914905F801E459FA4F2081F8019D
:100A7000E453FA4F2083E0914905F0E0E451FA4F46
:100A80001083E0914905F0E0E459FA4F108309C062
:100A900000E000934605009345050093430500934D
:100AA000440500E07AC0C6DE00914305013059F4E8
:100AB000209183032F71009118040F71201719F4EE
:100AC00003E000934605E6E1F0E100811181012B8E
:100AD00009F071C0E091490510E0F0E0EE5BFA4FDB
:100AE000008503950087E0914905F0E0EE5BFA4F41
:100AF0000085033338F002E3E0914905F0E0EE5B56
:100B0000FA4F0087E0914905F0E0E459FA4F00817F
:100B10000395008300910C060330A0F4ECE0F6E0AE
:100B20000395008301E0009342051093450500936F
:100B30004605109343051093440510934705109301
:100B4000480508951093460501E00093470510936A
:100B50004205109345051093430510934405E09119
:100B60004905F0E0E459FA4F0081039500830895A8
:100B700000E000934605E0914905F0E0EE5BFA4F96
:100B8000008701E813E00E946D09E1E8F3E02781A6
:100B900030850217130721F002E0009347050895FE
:100BA00022812F71009118040F71201709F479CF59
:100BB00003E0009347050895BA93AA930091500764
:100BC00000FF06C004E110E0E4E1F0E100831183DE
:100BD0000AEA15E5E3EAF6E0008311830281138156
:100BE000007E2091830E022B0F71107CEEE0F6E068
:100BF00022813381207C3F73022B132BE3EAF6E042
:100C00000283138303E0018764E070E04DEA56E05D
:100C100007E61EED21E030E00E94261A67E070E052
:100C200041EB56E00FE61EED21E030E00E94261A6F
:100C300064E070E049EB56E007E61FED21E030E0AC
:100C40000E94261A67E070E04DEB56E00FE61FEDBC
:100C500021E030E00E94261A0AEC16E0EDE7F3E00E
:100C6000008311830091550FE0917D03F6E001832D
:100C70000091070F0287E0EDFEE007A510A9ADE7A0
:100C8000B3E0ED91FC9103871487E0EDFEE004856D
:100C90001585ADE7B3E0ED91FC9105871687E0ED92
:100CA000FEE0028913895FC2BA93AA930FE116E0AE
:100CB000EDE7F3E00083118303E00093B50F0091AB
:100CC000550F0093B60FE0917D03F6E00285009387
:100CD000B70F05851685E5EBFFE001871287ADE7C5
:100CE000B3E0ED91FC9103851485E5EBFFE0038310
:100CF000148301E00093F1070AEA15E5E3EAF6E060
:100D00000083118302811381007E2091830E022BC8
:100D10000F71107CEEE0F6E022813381207C3F737E
:100D2000022B132BE3EAF6E00283138301E1048331
:100D30008F0124C28A936097802F40E250E020E028
:100D400030E08E010E94A85D0AEA15E5E3EAF6E0CC
:100D50000083118302811381007E2091830E2F7105
:100D6000022B0062028300E004838A9549F08A9591
:100D7000D1F18A9509F443C08A9509F464C076C01C
:100D800002810F73107C006411600283138301E001
:100D9000088324E030E047E65EED61E070E08E011C
:100DA0000F5F1F4F0E94101A24E030E04BE65EED0B
:100DB00061E070E08E010B5F1F4F0E94101A27E068
:100DC00030E04FE65EED61E070E08E01075F1F4F9F
:100DD0000E94101A40E150E09E010CEA16E00E94C9
:100DE0009A5D00E141C002810F73107C00681160C0
:100DF0000283138327E630E040E05EED2EC00281DF
:100E00000F73107C006C11600283138301E0088370
:100E100024E030E047E65FED61E070E08E010F5FB7
:100E20001F4F0E94101A24E030E04BE65FED61E0B6
:100E300070E08E010B5F1F4F0E94101A27E030E018
:100E40004FE65FEDC0CF02810F73107C126002830A
:100E5000138327E630E040E05FED61E070E00CEAEC
:100E600016E00E94101A07E60093A70603EA16E0B0
:100E70000E944A09E3EAF6E0058316838F010E9487
:100E80006D09E3EAF6E00783108701E00093380775
:100E900000E000933B0700933E0703E010E0E8E129
:100EA000F0E1008311836096899108950AEA15E5BF
:100EB000E3EAF6E00083118302811381007E209132
:100EC000830E022B0F71107C006814600283138361
:100ED00000E004838F010E944A09E3EAF6E00583FB
:100EE00016838F010E946D09E3EAF6E007831087FD
:100EF00001E00093380700E000933B0700933E07B2
:100F000003E010E0E8E1F0E10083118308950AEACC
:100F100015E5E3EAF6E00083118302811381007E88
:100F20002091830E022B0F71107C006CCECF0BEA48
:100F300014E0EEE0F6E045E950E00E94815D01E05A
:100F40000093400502E00093251008959A938A9338
:100F500001E0009340058091120690E00996AC01F3
:100F600027E136E00BEA14E00E949A5D02E000936C
:100F70002510899199910895229742E050E027E148
:100F800036E08E010E949A5D4091190650E02AE1F8
:100F900036E06881798100ED1EE0060F171F0E9480
:100FA0009A5D0AEA15E5E3EAF6E00083118302811F
:100FB0001381007E2091830E022B0F71107CEEE0D6
:100FC000F6E022813381207C3F73022B132BE3EA6E
:100FD000F6E00283138300E004838F010E944A0934
:100FE000E3EAF6E0058316838F010E946D09E3EAC8
:100FF000F6E00783108701E00093380700E00093D4
:101000003B0700933E0703E010E0E8E1F0E10083D6
:101010001183229608958A93229742E050E027E1B7
:1010200036E08E010E949A5D80911906482F50E0AB
:101030000881198120ED3EE0200F311F0FEA16E0F4
:101040000E949A5D42E050E09E010CEA16E00E9488
:101050009A5D8093AE060AEA15E5E3EAF6E00083BE
:10106000118302811381007E2091830E022B0F7168
:10107000107CEEE0F6E022813381207C3F73022B6E
:10108000132BE3EAF6E0028313838D5F84838F01E1
:101090000E944A09E3EAF6E0058316838F010E9465
:1010A0006D09E3EAF6E00783108701E00093380753
:1010B00000E000933B0700933E0703E010E0E8E107
:1010C000F0E100831183229689910895BA93AA933F
:1010D000ACEAB6E00AEA15E5E3EAF6E0008311833C
:1010E00002811381007E2091830E022B0F71107CF0
:1010F000EEE0F6E022813381207C3F73022B132B3C
:10110000E3EAF6E00283138303E00C9364E070E00B
:10111000AD014F5F5F4F07E61EED21E030E00E941A
:10112000261A67E070E0AD014B5F5F4F0FE61EEDE2
:1011300021E030E00E94261A64E070E0AD014F5FCC
:101140005F4F07E61FED21E030E00E94261A67E0BE
:1011500070E01596AD010FE61FED21E030E00E9432
:10116000261A07E107C0ADE7B3E0ED91FC910787D0
:10117000108B0FE20093A70603EA16E00E944A09CB
:10118000E3EAF6E0058316838F010E946D09E3EA26
:10119000F6E00783108701E00093380700E0009332
:1011A0003B0700933E0703E010E0E8E1F0E1008335
:1011B0001183A991B99108950E9479194FE050E0E7
:1011C00025EB3FE00CEA16E00E949A5D0AEA15E57D
:1011D000E3EAF6E00083118302811381007E20910F
:1011E000830E022B0F71107CEEE0F6E0228133813A
:1011F000207C3F73022B132BE3EAF6E00283138378
:101200000FE067CE4FE050E027E136E005EB1FE04E
:101210000E949A5D01E00093F107009110060F71A2
:10122000C1F10AEA15E5E3EAF6E0008311830281E1
:101230001381007E2091830E022B0F71107CEEE053
:10124000F6E022813381207C3F73022B132BE3EAEB
:10125000F6E0028313830FE004838F010E944A09A2
:10126000E3EAF6E0058316838F010E946D09E3EA45
:10127000F6E00783108701E00093380700E0009351
:101280003B0700933E0703E010E0E8E1F0E1008354
:1012900011830895AA939A938A932297C8018E0185
:1012A0000E94BD17A0E00BC0AE0121E030E08C0130
:1012B0000A0F131F075F1F4F0E94CA17A395FC0157
:1012C0000481A01788F38E010E94C217088119813A
:1012D000229689919991A9910895BA93AA939A9384
:1012E0008A932297C8018E010E94BD17DC0187E016
:1012F000AE0121E030E08D010E94CA1711968A9557
:10130000B9F78E010E94C21708811981229689912E
:101310009991A991B991089500E016E920E030E093
:101320000E946F1A45E950E020E030E00EE016E040
:101330000E94A85D45E950E020E030E003EA16E0B5
:101340000E94A85D4AE050E020E030E008E317E0AA
:101350000E94A85D4AE050E020E030E002E417E09F
:101360000E94A85D4AE050E020E030E00CE417E085
:101370000E94A85D0C94691A9A938A9304E610E07F
:10138000EAEFFFE0008311830E94D71A00930D0655
:1013900000913A07002319F00A9549F00CC000911A
:1013A0000D060A3A41F000E000933A072EC1009181
:1013B0000D060535C1F720910D06E0913A07F0E0E2
:1013C000E25FF94F2083E8E3F7E0028103950283AF
:1013D000093051F40EE016E080DFEEE0F6E0278100
:1013E000308502171307F9F68091120690E00896EF
:1013F00000913A0710E0801790400CF006C110935E
:101400003A070EE016E046DFEEE0F6E02581368191
:101410000217130709F0F9C001E0009339070091A2
:101420004105002339F10281138146E00E94095BE6
:10143000035119F00F51A1F0E8C002810F71109112
:10144000830E011721F002810F7109F0DEC00281C5
:1014500005FF02C00E94870700E000934105D5C048
:1014600002810F711091830E011709F0CEC00E9406
:10147000A607CBC0038106FF03C00E949707C5C023
:101480000281138146E00E94095B073308F0BDC06A
:10149000F0E0FBBFF2E00F9FF001E457FF4F079031
:1014A0001690F0010994009110060F711091830EAF
:1014B000011709F0AAC00E94DC05A7C0EEE0F6E023
:1014C00002810F711091830E011721F002810F71BB
:1014D00009F09BC00E94540698C0EEE0F6E002813D
:1014E0000F7139F002810F711091830E011709F00D
:1014F0008CC00E94C15489C0EEE0F6E001851285DF
:1015000023853485EDE5F7E000831183228333835F
:10151000EAEDFFE00081118122813381EDE5F7E002
:1015200040815181628173810417150726073707AF
:1015300009F06BC0DECF009110060F711091830E81
:10154000011709F062C001E00E949A065EC0009196
:1015500010060F711091830E011709F056C003E0B9
:10156000F3CF009110060F711091830E011709F04F
:101570004CC002E0E9CF009110060F711091830E6C
:10158000011709F042C004E0DFCF009110060F718F
:101590001091830E0117C9F50E94560701E05DCF37
:1015A000009110060F711091830E011771F50E94C2
:1015B000BC072BC0009110060F711091830E01170C
:1015C00021F50E940B0821C0009110060F711091A7
:1015D000830E0117D1F40E94DC0817C0EEE0F6E09C
:1015E00002810F711091830E011719F002810F71A2
:1015F00061F40E94020909C0009110060F71109158
:10160000830E011711F40E9466088991999108953B
:101610009A938A93E8E1F0E100811181012B41F571
:1016200000913E070023F9F40E94DA1A002301F129
:101630000E94671A0E94E21AE0913B07F0E0ED5524
:10164000F94F00810E94D41AE8E3F7E00381039583
:1016500003838091A70690E008968017904044F499
:1016600001E0068305C000E0009338070E94691A74
:10167000899199910895002319F00A9549F011C0B4
:1016800000E0E9E8F7E0008301830283038309C0F7
:1016900000EE10E120E0E9E8F7E000831183228307
:1016A0002383E9E8F7E00081118122813381005230
:1016B0001E4F2F4F3F4FE6E9F1E000831183228355
:1016C000338300E0EDE8F7E00083018302830383C6
:1016D0000895002319F00A9549F011C000E0E9E8E7
:1016E000F7E0008301830283038309C000EE10E169
:1016F00020E0E9E8F7E00083118322832383E9E80F
:10170000F7E0008111812281338100521E4F2F4F5B
:101710003F4FE6E9F1E0008311832283338300E049
:10172000EDE8F7E0008301830283038300E80E9471
:10173000C51B009196010E94CE1B009197010E944B
:10174000CE1B02E40E94C51B0EE10E94CE1B00E0EE
:101750000E94CE1B03E40E94C51B00918D070E94CE
:10176000CE1B00918E070E94CE1B00E40E94C51B79
:101770000EE10E94CE1B00E00E94CE1B01E40C94FF
:10178000C51B8A93812F0E94CE1B082F0E94CE1B5F
:1017900001E20E94C51B899108959A938A9300E003
:1017A0000E94CE1B00E00E94CE1B04E20E94C51BDB
:1017B00080E090E80E94421A00E00E94CE1B00ECFC
:1017C0000E94C51B0197B1F7899199910895BA9329
:1017D000AA939A938A93E6E9F1E080819181082F98
:1017E0000E94CE1B092F0E94CE1B04E20E94C51B43
:1017F000E6E9F1E0A081B181B15F8A179B0760F44F
:101800000E94421A00E00E94CE1B00EC0E94C51B01
:1018100001968A179B07A0F389919991A991B99193
:101820000895BA93AA939A938A93EDE8F7E080819A
:101830009181082F0E94CE1B092F0E94CE1B04E22B
:101840000E94C51BEDE8F7E0A081B181A052BE4F18
:10185000D4CFBA93AA939A938A93D801032F8EE197
:10186000809FC00130E0820F931FEDE8F7E0008118
:101870001181080F911F0E94CE1B092F0E94CE1BC1
:1018800004E209C00E94421AFD010191DF010052E9
:101890000E94CE1B00EC0E94C51B0C91002391F707
:1018A000BBCF5A924A92BA93AA939A93D801922F95
:1018B0001EE1412E449E200110E0430E511EEDE832
:1018C000F7E000811181040D511E0E94CE1B052DF1
:1018D0000E94CE1B04E20AC00E94421AFD019BBF77
:1018E0000791DF0100520E94CE1B00EC0E94C51B35
:1018F000FD019BBF0691002379F79991A991B991B8
:10190000499059900895089521972AE931E002EE0F
:101910001FE0F9DF0FE0088311E09E010CE014D016
:1019200000E0088311E09E0109E00ED00CE108837D
:1019300011E09E010AE008D003E0088311E09E0157
:101940000BE002D02196089521970883612FA90109
:1019500011E09E010091B7010E94251C2196089577
:10196000AA939A938A9321970883C901A12F60E0D3
:1019700040E050E011E09E010091B7010E94251C5B
:101980006A2FAC0110E020E030E00091B7010E9426
:10199000701C219689919991A99108950BE212E00A
:1019A000E5EEF7E000831183E091E507F2E00781BF
:1019B000F085E02F09950091780E12E0019FF0016B
:1019C000E552FE4F00811181E8ECF7E000831183BE
:1019D000EFECF7E000E110E011930A95E1F70895CC
:1019E000BA93AA938A9380E009C020E04FE0489F11
:1019F0000DE41CE0000D111DE2D08395A5EEB7E0CB
:101A0000ED91FC910581801780F38991A991B9919D
:101A10000895BA93AA938A9380E008C02FE0289F84
:101A20000DE41CE0000D111D71D48395A5EEB7E007
:101A3000ED91FC910581801788F38991A991B99165
:101A40000895BA93AA938A930091CE07053150F175
:101A5000A5EEB7E0ED91FC910385F485E02F0995A3
:101A600008E312E0E5EEF7E0008311830FE010E0F9
:101A7000EDE4FCE003831483028B138B01A312A318
:101A800000AB11ABECE8FCE000831183E5EEF7E07E
:101A9000A081B1811796ED91FC910995A1DF00E03D
:101AA0000093CE07A5EEB7E0ED91FC91218532853C
:101AB0002030304041F0E5EEF7E0A081B181199689
:101AC000ED91FC91099580E001C08395E5EEF7E08A
:101AD0000081F181E02F0581801708F040C02FE0E0
:101AE000289F0DE41CE0000D111D2CD6002369F386
:101AF0000FE0089FF001E35BF34F038103FFE5CFA5
:101B0000F001E35BF34F2385348500E0203030079C
:101B100011F0F90109950FE0089FF001E35BF34F25
:101B200005851685012B89F2E5EEF7E00081F1814C
:101B3000E02F0385F485E02F09950FE0089FF00161
:101B4000E35BF34F05851685E5EEF7E0008311832F
:101B5000D8011796ED91FC91099542DF11C00091D3
:101B6000CA0700FF06C00091CB07002349F401E03B
:101B700005C00091CB07013019F400E00093CB07BA
:101B80008991A991B991089510E000FB0EF410E835
:101B900001FB0EF4106402FB0EF4106203FB0EF462
:101BA000106104FB0EF4186005FB0EF4146006FBD4
:101BB0000EF4126007FB0EF41160012F0895FA92E3
:101BC000EA92DA92CA92BA92AA929A928A925A9215
:101BD000BA93AA939A938A9364972B874801F80142
:101BE00003811481012B09F4B3C124E030E00281A8
:101BF000029FA00170E061E08E01005F1F4F0E9414
:101C0000101A26E330E0488959896A897B89405750
:101C10005E4F6E4F7F4F02E917E00E94101AE2E913
:101C2000F7E0028913894689578949875A87888945
:101C30009989AA89BB894285538564857585840FF6
:101C4000951FA61FB71F80579E4FAE4FBF4F68010D
:101C5000D694C794D694C794D694C7949601220F6D
:101C6000331F220F331F220F331F021B130B21F0D0
:101C700001E0C00E00E0D01E0C2D0C7F9601201B51
:101C80003D092D833E830D81032B39F004E010E0E4
:101C90002D81021B130B0D831E8329853A8521504C
:101CA00030404D815E818601040F151F129F102D5B
:101CB000039F100D029F110D20E0800D911FA21FA8
:101CC000B21FF401038104FD11C00581002319F046
:101CD0000A9539F00BC0AA24BB247601F694E79448
:101CE0000FC05601B694A79476010AC0038104FF81
:101CF00007C0058112E0019F50017001E10EF21E44
:101D0000038107FF07C0A580BB24EA2CFF2401E064
:101D1000E00EF21E038105FF03C0AA24BB24760156
:101D20000091CF0E00232B832C8309851A8509F09F
:101D300083C0012BD1F50CC100950E94CE1B00EC95
:101D40000E94C51B09811A810F5F1F4F09831A83E7
:101D50000F8118850F5F1F4F0F8318870C851D8516
:101D60002E853F850F5F1F4F2F4F3F4F0C871D87DD
:101D70002E873F8709811A810E151F0550F12D818D
:101D80003E818601020F131F801B910BA040B040C3
:101D90000B811C810F5F1F4F0B831C830B812985D7
:101DA0003A850217130708F0D3C0A982BA82AE148D
:101DB000BF0428F749815A8160E08C019D01040F1E
:101DC000151F261F361F0C871D872E873F876F83A1
:101DD000688721E030E04C855D856E857F858E01CA
:101DE0000E94101AE6E9F1E0008111814F815885C7
:101DF000040F151FF401408150E0400F511F2B814B
:101E00003C81018110E0200F311F0EE1039F102D56
:101E1000029F110D400D511F552E042F0E94CE1B05
:101E2000052D0E94CE1B04E20E94C51B0B850023DA
:101E3000088109F081CF81CF012B09F489C0A982E3
:101E4000BA82AE14BF0408F06DC049815A8160E0C7
:101E50008C019D01040F151F261F361F0C871D873F
:101E60002E873F876F83688721E030E04C855D8552
:101E70006E857F858E010E94101A088185DE088399
:101E8000E6E9F1E00081118101511F4F4F81588532
:101E9000F401608170E0460F571F041B150BA80169
:101EA0002FE730E00B811C81201B310B0181201BAF
:101EB00030400EE1039F102D029F110D400D511F68
:101EC000552E042F0E94CE1B052D0E94CE1B04E22E
:101ED0000E94C51B0B850023088109F000950E9414
:101EE000CE1B00EC0E94C51B09811A810F5F1F4F9A
:101EF00009831A830F8118850F5F1F4F0F8318877F
:101F00000C851D852E853F850F5F1F4F2F4F3F4F3F
:101F10000C871D872E873F8709811A810E151F05A3
:101F200008F4A2CF2D813E818601020F131F801B72
:101F3000910BA040B0400B811C810F5F1F4F0B83A2
:101F40001C830B8129853A850217130708F477CF84
:101F5000649689919991A991B99107C030CE26963E
:101F600089919991A991B9914990599089909990A5
:101F7000A990B990C990D990E990F9900895FA92F2
:101F8000EA92DA92CA92BA92AA929A928A925A9251
:101F9000BA93AA939A938A9363974801F8010681AA
:101FA0001781012B09F4B0C124E030E04481558150
:101FB000440F551F440F551F70E061E08E01015F13
:101FC0001F4F0E94101A26E330E04F855889698917
:101FD0007A8940575E4F6E4F7F4F02E917E00E94AB
:101FE000101AE2E9F7E0028913894689578949877F
:101FF0005A878F859889A989BA89428553856485CE
:102000007585840F951FA61FB71F80579E4FAE4F33
:10201000BF4F6801D694C794D694C794D694C794FA
:102020009601220F331F220F331F220F331F021B73
:10203000130B21F001E0C00E00E0D01E0C2D0C7F30
:102040009601201B3D092D833E830D81032B39F022
:1020500004E010E02D81021B130B0D831E832985E4
:102060003A85215030404D815E818601040F151F55
:10207000129F102D039F100D029F110D20E0800D67
:10208000911FA21FB21FF401068104FD11C000853B
:10209000002319F00A9539F00BC0AA24BB2476015D
:1020A000F694E7940FC05601B694A79476010AC03F
:1020B000068104FF07C0008512E0019F50017001F6
:1020C000E10EF21E068107FF07C0A084BB24EA2CA4
:1020D000FF2401E0E00EF21E068105FF03C0AA24E2
:1020E000BB2476010091CF0E00232B832C8309851E
:1020F0001A8509F080C0012B09F406C1A982BA82B1
:10210000AE14BF0408F060C049815A8160E08C01C0
:102110009D01040F151F261F361F0B871C872D8757
:102120003E876F83688721E030E04B855C856D8555
:102130007E858E010E94101AE6E9F1E0008111818E
:102140004F815885040F151FF40140815181400FC4
:10215000511F2B813C8102811381200F311F0EE121
:10216000039F102D029F110D400D511F552E042F5E
:102170000E94CE1B052D0E94CE1B04E20E94C51BAF
:1021800008810E94CE1B00EC0E94C51B09811A81A8
:102190000F5F1F4F09831A830F8118850F5F1F4F31
:1021A0000F8318870B851C852D853E850F5F1F4F7C
:1021B0002F4F3F4F0B871C872D873E8709811A8140
:1021C0000E151F0508F4AFCF2D813E818601020F49
:1021D000131F801B910BA040B0400B811C810F5F2F
:1021E0001F4F0B831C830B8129853A850217130728
:1021F00008F08AC083CF012B09F486C0A982BA8275
:10220000AE14BF0408F06AC049815A8160E08C01B5
:102210009D01040F151F261F361F0B871C872D8756
:102220003E876F83688721E030E04B855C856D8554
:102230007E858E010E94101A0881A6DC0883E6E9DB
:10224000F1E00081118101511F4F4F815885F40148
:1022500060817181460F571F041B150BA8012FE7E2
:1022600030E00B811C81201B310B02811381201B6C
:10227000310B0EE1039F102D029F110D400D511FD8
:10228000552E042F0E94CE1B052D0E94CE1B04E26A
:102290000E94C51B08810E94CE1B00EC0E94C51B3A
:1022A00009811A810F5F1F4F09831A830F811885D7
:1022B0000F5F1F4F0F8318870B851C852D853E856B
:1022C0000F5F1F4F2F4F3F4F0B871C872D873E8778
:1022D00009811A810E151F0508F4A5CF2D813E81B5
:1022E0008601020F131F801B910BA040B0400B8191
:1022F0001C810F5F1F4F0B831C830B8129853A853F
:102300000217130708F47ACF639623CEFA92EA9263
:10231000DA92CA92BA92AA929A928A925A924A925D
:10232000BA93AA939A938A932697D801F8010381C6
:102330001481012B09F4F3C024E030E00281029FF4
:10234000A00170E061E08E010E5F1F4F0E94101A25
:1023500026E330E04A815B816C817D8140575E4F8E
:102360006E4F7F4F02E917E00E94101AE2E9F7E092
:1023700042895389E688F7889A01369527953695DC
:102380002795369527958901000F111F000F111F02
:10239000000F111F401B510B11F02F5F3F4FFD012C
:1023A000038104FD11C00581002319F00A9539F05D
:1023B00013C080E090E05901B694A7940DC0C90104
:1023C00096958795590108C0058112E0019FC001CB
:1023D0005001A10E00E0B01E038105FF03C080E0A4
:1023E00090E059010091CF0E002309F04AC08824E3
:1023F00099240E2D0F2909F492C0888399838A1598
:102400009B05B0F5CC24DD24E6E9F1E000811181E3
:102410000C0D1D1D4C9150E0040F151F2801FD01EE
:1024200001819401200F351F0EE1039F102D029FA3
:10243000110D400C511E042D0E94CE1B052D0E9433
:10244000CE1B04E20E94C51B00E00E94CE1B00ECE4
:102450000E94C51B088119810F5F1F4F08831983D4
:1024600001E0C00E00E0D01E08810A151B0560F2D5
:1024700001E0800E00E0901E8E149F0408F04FC013
:10248000BCCF882499240E2D0F2909F448C08883D5
:1024900099838A159B05D8F5CC24DD24E6E9F1E083
:1024A0004081518141515F4F2C9130E08601020FF4
:1024B000131F401B510B2FE728193909FD0101811A
:1024C000201B30400EE1039F102D029F110D2A01A9
:1024D000400C511E042D0E94CE1B052D0E94CE1BC8
:1024E00004E20E94C51B00E00E94CE1B00EC0E948B
:1024F000C51B088119810F5F1F4F0883198301E0F5
:10250000C00E00E0D01E08810A151B0538F201E05C
:10251000800E00E0901E8E149F0408F4B8CF1FCDEB
:10252000FA92EA92DA92CA92BA92AA929A928A920B
:102530005A924A92BA93AA939A938A932697D80169
:10254000F80106811781012B09F4FBC024E030E07B
:1025500044815581440F551F440F551F70E061E0C1
:102560008E010E5F1F4F0E94101A26E330E04A8151
:102570005B816C817D8140575E4F6E4F7F4F02E9DA
:1025800017E00E94101AE2E9F7E042895389E688D1
:10259000F7889A013695279536952795369527958C
:1025A0008901000F111F000F111F000F111F401B89
:1025B000510B11F02F5F3F4FFD01068104FD11C04B
:1025C0000085002319F00A9539F013C080E090E0EF
:1025D0005901B694A7940DC0C901969587955901E4
:1025E00008C0008512E0019FC0015001A10E00E06B
:1025F000B01E068105FF03C080E090E05901009104
:10260000CF0E002309F04CC0882499240E2D0F29E9
:1026100009F497C0888399838A159B05C0F5CC245B
:10262000DD24E6E9F1E0008111810C0D1D1D4D91C5
:102630005C911197040F151F2801FD010281138180
:102640009401200F311F0EE1039F102D029F110DE9
:10265000400C511E042D0E94CE1B052D0E94CE1B46
:1026600004E20E94C51B00E00E94CE1B00EC0E9409
:10267000C51B088119810F5F1F4F0883198301E073
:10268000C00E00E0D01E08810A151B0550F201E0C3
:10269000800E00E0901E8E149F0408F052C0BACF46
:1026A000882499240E2D0F2909F44BC0888399831F
:1026B0008A159B05F0F5CC24DD24E6E9F1E04081A4
:1026C000518141515F4F2D913C9111978601020F2D
:1026D000131F401B510B2FE730E028193909FD016A
:1026E00002811381201B310B0EE1039F102D029FED
:1026F000110D2A01400C511E042D0E94CE1B052DE8
:102700000E94CE1B04E20E94C51B00E00E94CE1B6B
:1027100000EC0E94C51B088119810F5F1F4F0883C1
:10272000198301E0C00E00E0D01E08810A151B05C8
:1027300020F201E0800E00E0901E8E149F0408F449
:10274000B5CF0DCC7A926A925A924A92BA93AA93D2
:102750009A938A932497D8017724F8016580009191
:10276000E107002351F0E1EEF7E0018112810A1741
:102770001B0719F401E0009340100CE3ECE1F0E1D9
:102780000083718270929107E8ECF7E0008111817B
:102790002091780E32E0239FF001E552FE4F208118
:1027A00031810217130790F4ECE1F0E1008111810F
:1027B000012B61F401E00E94690B01E00093910795
:1027C00000EC18EAECE1F0E100831183EEE0F0E1C7
:1027D00000811181012B11F000E0A0C20091401096
:1027E000002309F4E2C10CE3ECE1F0E10083718223
:1027F00000917A0EE5E7F3E0008371822081318158
:1028000008EE13E0129F102D039F100D029F110D73
:1028100000821183E8ECF7E0008111812091780EAD
:1028200032E0239FF001E552FE4F208131810217F3
:10283000130758F4E8ECF7E02083318304EF11E04C
:10284000EEE0F0E100831183C7CFFD01038100FFBB
:10285000C3CF24E030E00281029FA00170E061E07C
:102860008E010E94101A26E330E0488159816A8166
:102870007B8140575E4F6E4F7F4F02E917E00E9409
:10288000101AE2E9F7E042895389FD01038105FD51
:1028900002C0569547950091A8072091CF0E22239C
:1028A00059F42C91220F220F220F422E8181420FC8
:1028B000542E080F902F13C02FEE3C91330F330F7F
:1028C000330F231B422E2FE73181231B822F2FEE44
:1028D000241B2419522E2FE7201B281B922F009116
:1028E000E0070023F9F4042D10E0ECE2F0E1208190
:1028F000318102171307B0F425153040E0F4082F9A
:10290000EAE2F0E12081318102171307C8F42917A8
:102910003040F0F4FD01028503950287043810F081
:1029200003E80287042D10E0ECE2F0E12081318120
:102930000217130790F4208131812515304068F487
:10294000082FEAE2F0E1208131810217130728F411
:10295000208131812917304040F0FD010285033884
:1029600018F00A95028701C072860091E1070023E2
:1029700061F0E1EEF7E0018112810A171B0729F4EB
:1029800004E0FD0102877092E107FD010285043039
:1029900008F4B2C00F3708F073C001E00093E007FD
:1029A000028500680287E7EEF7E0A083B183FD01AE
:1029B000048103FF10C00581002359F401E0058361
:1029C0000093E40708E512E0EEE1F0E100831183F3
:1029D0003CC075823AC0038102FF0DC0058100230F
:1029E000C1F701E00583038106FF2FC008EE13E065
:1029F000EAE0F0E1EBCFE5EEF7E0208131812B3228
:102A0000324001F51CE0AD34B10761F40091610C76
:102A10000023D9F401E0FD0105830093CC077092F7
:102A2000CD0713C01CE0AC35B10761F40091520C26
:102A3000002359F401E0FD0105830093CD07709256
:102A4000CC0703C001E0FD010583FD010381148172
:102A500002701270023020E0104011F48D01AFD8E6
:102A60007394FD01048103FD2AC123853485203040
:102A7000304009F424C10385F485E02F09951FC176
:102A800003810A70023009F01AC1038102FD17C0E8
:102A9000E0E1F0E100811181012B89F4E2E1F0E154
:102AA00000811181012B59F400E500837182FD0141
:102AB000238534852030370511F0F9010995FD0192
:102AC000048103FFFCC0E0E1F0E100811181012BF2
:102AD00009F0F5C0E2E1F0E100811181012B09F07C
:102AE000EEC000E500837182FD012385348520302E
:102AF000304009F4E4C0BFCF03810271023009F015
:102B0000DEC003810C7089F56580662071F17582E5
:102B1000E5EEF7E0208131812B323240E1F41CE018
:102B2000AD34B10751F40091CC07023021F401E03B
:102B3000FD01058302C07092CC071CE0AC35B107E3
:102B400051F40091CD07023021F401E0FD0105832D
:102B500002C07092CD07FD01048101FD06C0058110
:102B6000061519F020E08D012AD8FD01038102FF2E
:102B7000A6C00581013009F0A2C0038106FF9FC0F5
:102B80000091CA0700FF09C00091CB07002309F09C
:102B900096C020E08D0113D892C00091CB07013080
:102BA00009F08DC08D01B2DB8AC07092E007E7EEBC
:102BB000F7E000811181A017B10711F5FD01048133
:102BC00003FF1EC00091E4070023D1F0EEE1F0E125
:102BD00000811181012B71F0FD01758223853485FF
:102BE0002030304021F00385F485E02F099520E066
:102BF0008D01B4D9E7EEF7E0708271827092E4073C
:102C0000FD0103810271023009F050C003810C7094
:102C100089F56580662071F17582E5EEF7E0208127
:102C200031812B323240E1F41CE0AD34B10751F474
:102C30000091CC07023021F401E0FD01058302C0C0
:102C40007092CC071CE0AC35B10751F40091CD0770
:102C5000023021F401E0FD01058302C07092CD072E
:102C6000FD01048101FD06C00581061519F020E073
:102C70008D0174D9FD01038102FF18C00581013067
:102C8000A9F4038106FF12C00091CA0700FF08C023
:102C90000091CB07002351F420E08D015FD906C0DD
:102CA0000091CB07013011F48D0130DBFD0102856D
:102CB000002311F00A95028702850F770287FD0134
:102CC00003810271023049F50581601631F101304E
:102CD000068117812085318559F4ECE4F7E04081C5
:102CE000518162817381402B512B622B732B0EC05B
:102CF0000095109520953095ECE4F7E040815181E6
:102D00006281738140235123622373234083518363
:102D100062837383048101600483072D2496899163
:102D20009991A991B9914990599069907990089594
:102D300089919991A991B9910895BA93AA939A9377
:102D40008A93A897C801D9010E94421A33E020E073
:102D500008EB11E00E94290C24E030E0AC01BD0139
:102D600049595F4F6F4F7F4F06EF1FE00E94101AC7
:102D700041E026EF3FE08E010E940A5733E02BE04E
:102D80008E010E94290C34E020E004EC11E00E9446
:102D9000290C24E030E085599F4FAF4FBF4FAC0165
:102DA000BD0106EF1FE00E94101A41E026EF3FE050
:102DB0008E010E940A5734E02BE08E010E94290CFC
:102DC000A896B6CFAA939A938A9380E090E00E9447
:102DD000881B00E00E94690B0E94CD0B0CE90E9449
:102DE000C51B01E00E943B0B20E006E613E0B6D8CD
:102DF00000E00E94690B0E944B5900914010002393
:102E000091F040E039E008EB18EC20E00E94510C12
:102E10000E944B5904C00E944B590E94421A0091D3
:102E200040100023C1F70E94110C40E030E008EC94
:102E300017EC20E00E94510C41E030E000EF17EC6D
:102E400020E00E94510C42E030E008E118EC20E064
:102E50000E94510C00E01EED21E030E06EDF35E015
:102E600020E000ED11E00E94290C40E023E83EE064
:102E700001E617E00E94535535E029E001E617E02E
:102E80000E94290C27E630E040E05EED61E070E052
:102E900001E617E00E94101A36E020E001E617E094
:102EA0000E94290C00ED17E0EEEFFFE00083118394
:102EB00004E6ECEFFFE000838183A0E02CC00E94D9
:102EC000421AECEFFFE000811181012B21F504E6AD
:102ED00010E0008311830E94421A37E02A2F09ED87
:102EE00011E00E94290C0E944B59009140100023D0
:102EF00009F001968A3000E0900760F0EEEFFFE005
:102F000000830183ECEFFFE0008301830E94110C3A
:102F10000E94BE1CA395EEEFFFE000811181012B02
:102F200071F60E94E70B0E94110C04EF11E0E8E03B
:102F3000F0E10083118300917A0E10E0E5E7F3E001
:102F4000008311832081318108EE13E0129F102D40
:102F5000039F100D029F110D0082118300E010E00D
:102F6000ECEFFFE0008301830CE3ECE1F0E1008390
:102F7000118389919991A99108952FEFF8012083E8
:102F800021830895F8010081118100951095008337
:102F9000118308950D01BC01FA01422F432B01F169
:102FA000D801C9010D9120813181202720833183EF
:102FB00028E0008100FF0BC0402F518156954795B6
:102FC00008E014E8402751274083518305C0118150
:102FD00016950795008311832A9559F7019711F7E4
:102FE000CB01D00108957A926A925A924A92BA938A
:102FF000AA939A938A93D80100E010E020E030E091
:10300000FD01068043E0042281E090E017C0FC014E
:10301000E051FE4F408160E070E0040F151F251F56
:10302000351F002039F48130950721F40F5F1F4FC1
:103030002F4F3F4F01968D30950768F4FD01458174
:1030400050E04817590719F7448160E070E0040F19
:10305000151F251F351F88E090E0FD01468149308E
:1030600080F003591E4F2F4F3F4F482F437021F4DC
:103070000F5F1F4F2F4F3F4F0196468184179507D3
:1030800080F32801390147E00E94435B47E0222496
:10309000439F702D429F602D710D419F502D610DFA
:1030A000721D409F510D621D721D82019301001916
:1030B000150B260B370B0F5F1F4F2F4F3F4F08305D
:1030C00010402040304008F00750EA2F03838991D8
:1030D0009991A991B99149905990699079900895E1
:1030E00027970EE41FE07FDFEEE4FFE08E0147E06C
:1030F00050E00E94815D2A810CE3029F80012981BA
:10310000020F141FEFEEF7E0008311830B8114E030
:10311000019FF001E05AF14F21A90CE3029F8001C9
:103120002B8134E0239FF001E05AF14F20A9020FD8
:10313000141FEBEEF7E0008311830B81039FF00176
:10314000E05AF14F23A90CE3029F80012B81239FBA
:10315000F001E05AF14F22A9020F141FEBEEF7E045
:10316000028313830091B00E002309F07BC001E0BD
:10317000EFEEF7E020813181EBEEF7E04081518105
:103180002417350728F042812417310708F400E09E
:103190002081352F42812417310709F401E0EB81AA
:1031A000F0E0EF53F14F1081112309F401E0109189
:1031B000B10E101709F454C0002319F51091C90E6F
:1031C000112341F0E2EBFEE020813181E0EDFEE0F1
:1031D00027A730AB1091CA0E112361F0ECEBFEE093
:1031E00020813181ECECFEE020833183E0EDFEE0D4
:1031F000248735871091CB0E112349F11091C00E11
:1032000024C0013021F51091C90E112341F0E4EBE7
:10321000FEE020813181E0EDFEE027A730AB109188
:10322000CA0E112361F0EEEBFEE020813181ECEC5F
:10323000FEE020833183E0EDFEE0248735871091A6
:10324000CB0E112321F01091C10E1093070F24EF24
:1032500031E0EAE1F0E12083318314E610937C034E
:103260000093B10E279608950091B50F0A3529F401
:103270000091B60F0093550F08950B3589F4E5EBD7
:10328000FFE003811481EEE9FFE000831183E0EDAC
:10329000FEE007A710ABE4E2FFE00083118308958E
:1032A000033031F50091B60F0093550F0091B70F21
:1032B0000093070F00932C0FE5EBFFE001851285CB
:1032C000ECECFEE000831183E0EDFEE0048715875F
:1032D000E5EBFFE003811481E0EDFEE007A710AB12
:1032E000E4E2FFE00083118300E000931C0F058FF0
:1032F000089503E00093B50F0091550F0093B60FAA
:103300000091070F0093B70FE0EDFEE007A510A9AD
:10331000E5EBFFE0038314830091F80E12E0019FB8
:10332000F001E053F14F06851785E5EBFFE00583DB
:10333000168300E007830087E0EDFEE00485158535
:10334000E5EBFFE00187128700E00387048705872C
:103350000687089500E00FBD09E00EBD00E0009370
:103360007A0002E514E01BBD0ABD00E00DBD0CBDF6
:1033700007B7006107BF08959A938A93FA93EA9377
:103380003A922A921A920A927A936A935A934A9399
:103390003A932A931A930A938FB79BB70E949A572E
:1033A0009BBF8FBF099119912991399149915991E9
:1033B000699179910990199029903990E991F99141
:1033C0008991999118954A92BA93AA939A938A935C
:1033D000D801C901442359F0442EFD010191DF01B8
:1033E000AC010E94F15A4ED001964A94B1F78991EE
:1033F0009991A991B991499008954A92BA93AA9343
:103400009A938A93D801C901442349F0442EAC0110
:103410000E94E55A0D9336D001964A94C1F7E7CF42
:103420001C01C90120E0382F392B71F0FA01112459
:10343000E20FF11D6BBF0690F80101928F012395F9
:1034400030E02817390790F3C1010895080100E022
:10345000162F172B71F0F00110E0E00FF11F2BBFBA
:103460001691FA011193AF01039510E006171707A3
:1034700090F30895C498BC9A089508E101BD08E04E
:1034800001BDFFCFC49A0000C498A895089500918B
:1034900065000160009365000895009165000E7F4E
:1034A000009365000895009165000E7F009365000C
:1034B0000091640001600093640008952FEF33E0F1
:1034C000201B310B30938700209386000895949A37
:1034D0000895949808950C948C090C94BC0940E0CC
:1034E00050E00056194020403040C1F100561940CC
:1034F0002040304089F1005C12412040304051F1C1
:10350000005C12412040304019F1005C1241204023
:103510003040E1F00058154220403040A9F00058FA
:1035200015422040304071F000501B442040304094
:1035300039F00050114E2040304091F445E010C069
:103540004BE00EC041E10CC047E10AC043E208C0B5
:103550004FE206C047E404C04FE802C04FE151E02B
:103560008C9A9498509398004093990008E900939E
:103570009A000EE000939D0000E200939C000895E5
:103580009A938A93FA93EA933A922A921A920A9217
:103590007A936A935A934A933A932A931A930A9383
:1035A0008FB79BB79ADFFCCE00939C0008950091E3
:1035B0009C00089500919B0006FF02C001E0089561
:1035C00000E0089500919B00006400939B00089523
:1035D0001895BF9AC7980091640002600093640038
:1035E000009165000D7F00936500139A00E010E0E4
:1035F000009389000093880003EC00938B0001E0A6
:1036000000938A0010938C0010938500109384001F
:10361000109383001093820006E00093D00E04E123
:103620000093D10E02E00093D20E04E00093D30E7B
:1036300008958898909A919807B3076007BBBB9844
:1036400008B3097F08BBC09A03E50DB901E00EB9C4
:10365000089508954A92BA93AA939A938A93A02FB1
:10366000412E0FB10FB1C09884EF91E0F2DF0197C6
:10367000E9F7A368AFB9779BFECF0FB100E00FB9B0
:10368000779BFECF0FB1A02F03E8402A4FB8779B5E
:10369000FECF0FB1BA2FA02FB695A795B695A795D7
:1036A000B695A79500E00FB9779BFECF0FB184EFD9
:1036B00091E0CFDF0197E9F7C09ACBDFCADFC9DF1E
:1036C000C8DFBF708D0193CE01E005BF00E005BFEC
:1036D00008E101BD00E001BD009374000EEF00930E
:1036E0006A0000E009BF04B3007E04BB05B30F61AC
:1036F00005BBBF9A089503B30F7100950F7108952C
:10370000B79B02C0C7980895C79A08957894089502
:1037100004EF03B902B1046F02B900E00093610045
:103720001B9A1A980AE010E00E943D591A9A0AE082
:1037300010E00E943D591E9808958A931FEF109340
:1037400061001C980093620083E083DF8A95E9F7AB
:103750001C9A899108958A9300E0009361001D9856
:1037600083E077DF8A95E9F700B11D9A8991089582
:103770001F9AF1CF8A93802F01C084DEF9DF0823DE
:103780000817D9F701E0899108958A93802F03E003
:10379000F1DF1F9A082FD1DF899108958A93802F36
:1037A00003E0E8DF1F98F6CF209171002E7F209371
:1037B0007100209171002D7F20937100A80103E317
:1037C0001BE20E940F5B003138F010E00051104006
:1037D00042E050E00E94275B009370000895009142
:1037E00074000F70006A00937400089500917400D3
:1037F0000F70006D00937400089501C0A8950091AA
:10380000740007FFFBCF08950093730000917400CC
:103810000F700068009374000895209174000023D5
:1038200011F000E401C000E02F70202B20682093ED
:103830007400089500917100087F089500E911E077
:10384000B3DF04E00093740008958A927A926A923A
:103850005A924A92BA93AA939A938A93602E290114
:10386000712EDA01862E81E090E0009174000E7FC7
:1038700000937400B4DFC1DF0EEF0621C5DFBDDFAA
:10388000D9DF083111F08EE31AC0072D7A94002396
:1038900049F0F20101912F01B7DFAFDFCBDF083232
:1038A000A1F30CC0082D8A94002351F0FD01019171
:1038B000DF01AADFA2DFBEDF0832A1F38DE39EEFB6
:1038C00095DF0091740004FDFCCF8C0189919991E2
:1038D000A991B991499059906990799089900895EA
:1038E0008A927A926A925A924A92BA93AA939A9335
:1038F0008A93602E2901812EDA01762E81E090E0F4
:10390000009174000E7F0093740069DF76DF8820D9
:10391000D1F0062D0E7F78DF70DF8CDF083119F0D3
:103920008EE39EEF25C0082D8A94002351F0F2010A
:1039300001912F0169DF61DF7DDF0832A1F38CE3A4
:10394000F0CF4DDF5ADF01E006295EDF56DF72DF80
:10395000003461F08EE39EEF09C07A94072D5DDF9D
:103960004CDF00917300FD010193DF017720A9F77F
:103970003DDF0091740004FDFCCFA7CF8A927A92BC
:103980006A925A924A92BA93AA939A938A936C979C
:1039900000E0009340100E944B590091401000231A
:1039A00091F040E039E008EB18EC20E00E94510C67
:1039B0000E944B5904C00E944B590E94421A009128
:1039C00040100023C1F70E94110C04E610E00E9491
:1039D0003D590E94421A0E94090D0E94110C40E0BC
:1039E00033E000E418EC20E00E94510C41E033E0A9
:1039F00008E618EC20E00E94510C20E003E012E001
:103A00000E94DF0D00E00093401002E310E0ECE0C4
:103A1000F0E100831183882444245524662477240C
:103A200080E090E0A0E0B0E00E94421A0E94421ABA
:103A30000E944B59009140100023C1F3E4E3F0E1F0
:103A40000081118120E030E00E94B95BA801B9013A
:103A50008C019D010E940D5CC801D901E2E3F0E1F7
:103A60000081118120E030E00E94B95BA201B30126
:103A70000E940D5C2801390183940AE08016B0F29F
:103A800040E050E060E271E48C019D010E94E75C3F
:103A90000E94BB5B0883198340E050E060E271E460
:103AA000820193010E94E75C0E94BB5B0C831D8333
:103AB0000E94421A32E025E00DEF11E00E94290C2D
:103AC00040E09E018E01085F1F4F0E94FC5432E0CF
:103AD00027E08E01085F1F4F0E94290C33E025E08C
:103AE00000E012E00E94290C40E09E012C5F3F4F55
:103AF0008E01085F1F4F0E94FC5433E027E08E01C7
:103B0000085F1F4F0E94290C20E002E112E00E9492
:103B1000DF0D44E033E000E918EC20E00E94510C96
:103B200008EE13E00E943D5902E310E0ECE0F0E102
:103B3000008311838824442455246624772480E05C
:103B400090E0A0E0B0E00E94421A0E944B59009120
:103B500040100023C1F3E4E3F0E10081118120E093
:103B600030E00E94B95BAC01BD010E940D5CC80150
:103B7000D901E2E3F0E10081118120E030E00E9410
:103B8000B95BA201B3010E940D5C28013901839445
:103B90000AE08016C0F240E050E060E271E48C017F
:103BA0009D010E94E75C0E94BB5B0A831B8340E08F
:103BB00050E060E271E4820193010E94E75C0E94A0
:103BC000BB5B0E831F8335E025E00DEF11E00E9403
:103BD000290C40E09E012E5F3F4F8E01085F1F4F72
:103BE0000E94FC5435E027E08E01085F1F4F0E94C1
:103BF000290C36E025E000E012E00E94290C40E0AC
:103C00009E012A5F3F4F8E01085F1F4F0E94FC54A8
:103C100036E027E08E01085F1F4F0E94290C0A81C1
:103C20001B8128813981021B130B20E030E00E94A8
:103C3000B95BA801B90100E010E028E533E40E9477
:103C4000E75CE0E6FEE000831183228333830E818C
:103C50001F812C813D81021B130B20E030E00E946C
:103C6000B95BA801B90100E010E020ED32E40E9448
:103C7000E75CE0E6FEE00483158326833783088152
:103C8000198120E030E00E94B95BC801D901E0E66B
:103C9000408151816281738100E010E020E331E4D2
:103CA0000E94E75CA801B9018C019D010E94515C52
:103CB0000E94BB5BE0E6FEE0008711872287338726
:103CC0000C811D8120E030E00E94B95BC801D90160
:103CD000E0E6448155816681778100E010E020E3D1
:103CE00031E40E94E75CA801B9018C019D010E94AA
:103CF000515C0E94BB5BE0E6FEE0008B118B228BE7
:103D0000338B00ED17E00E943D590E94A1530E94A1
:103D1000110C02E112E00E94861103E012E00E9401
:103D200086116C9689919991A991B9914990599070
:103D300069907990899008951091F40C2091F70C76
:103D40000091550F0023C1F401E00093F70C00919E
:103D5000560F0023C1F400E10093F40C0091F40C21
:103D6000101721F40091F70C201729F020E002EF42
:103D70001CE00E94DF0D089500E00093F70C009115
:103D8000560F002341F301E1E7CF0091070F002315
:103D900029F000E00093070F0AE004C001E000935F
:103DA000070F09E000939A0C04EF11E0EAE1F0E15B
:103DB0000083118320E008E91CE00E94DF0D0091E0
:103DC000420C002319F404E300937C03089500914E
:103DD000BA020023D1F00091410C0F3100F5E1E46B
:103DE000FCE00395008310E0F801EF5BF74F0081E2
:103DF000002311F41093410CE091410CF0E0EF5BD3
:103E0000F74F00810093BA020AC000E00093410C12
:103E1000009141080093BA0200E00093420C07C0F1
:103E20000091420C002319F403E300937C0300E0AB
:103E3000E4E0F0E1008301830895E0EDFEE007A5F2
:103E400010A90F5F1F4F07A710AB043F21E01140DF
:103E50001CF004EF07A720AB04EFEAE1F0E10083D8
:103E600021830091420C002319F402E300937C03A8
:103E7000DECFE0EDFEE007A510A90150104007A736
:103E800010AB0D3820E010401CF40CE807A720AB65
:103E900004EF11E0EAE1F0E1008311830091420CAC
:103EA000002319F402E300937C03E4E0F0E12083B3
:103EB00021830895ECECFEE000811181065F1F4F25
:103EC00000831183073E23E0120720F007EE0083F2
:103ED00021830BC0E091CC0EF12F3A9730F40AE029
:103EE00010E0ECECFEE000831183ECECFEE00081DE
:103EF0001181E0EDFEE00487158704EF11E0EAE1AF
:103F0000F0E1008311838CCFECECFEE000811181A5
:103F1000003921E0120728F00A5010400083118375
:103F200003C000E90083218300811181E0EDFEE000
:103F30000487158704EFEAE1F0E10083218370CF65
:103F400000E000937F0300937B0300937C030CE36A
:103F5000009322100DE41CE0E2E5FCEB30E04FE0C2
:103F600050E00E948C5D0CE51CE0E3E4FCEB30E0EB
:103F70004FE00E948C5D0BE61CE0E4E3FCEB30E0DC
:103F80004FE00E948C5D0AE71CE0E5E2FCEB30E0CC
:103F90004FE00E948C5D09E81CE0E6E1FCEB30E0BC
:103FA0004FE00E948C5D08E91CE0EFE7FCEB30E09D
:103FB0004FE00E948C5D07EA1CE0E1E6FCEB30E09C
:103FC0004FE00E948C5D06EB1CE0EEE8FCEB30E07D
:103FD0004FE00E948C5D05EC1CE0EDE9FCEB30E06D
:103FE0004FE00E948C5D04ED1CE0ECEAFCEB30E05D
:103FF0004FE00E948C5D03EE1CE0EBEBFCEB30E04D
:104000004FE00E948C5D02EF1CE0E9EDFCEB30E03C
:104010004FE00E948C5D01E01DE0E8EEFCEB30E03B
:104020004FE00E948C5D00E11DE0EAECFCEB30E02B
:104030004FE00E948C5D0FE11DE0E7EFFCEB30E00C
:104040004FE00E948C5D0EE21DE0E6E0FDEB30E00B
:104050004FE00E948C5D0DE31DE0E0E7FCEB30E0FB
:104060004FE00E948C5D01E00093240D0093520C00
:1040700008E81DE0EDE5FDEB30E049E00E948C5DD5
:1040800001E91DE0E4E5FDEB30E049E00E948C5DD4
:104090000AE91DE0EBE4FDEB30E049E00E948C5DB5
:1040A00003EA1DE0E2E4FDEB30E049E00E948C5DB4
:1040B0000CEA1DE0E9E3FDEB30E049E00E948C5D95
:1040C00005EB1DE0E0E3FDEB30E049E00E948C5D94
:1040D0000EEB1DE0E7E2FDEB30E049E00E948C5D75
:1040E00007EC1DE0ECE9FDEB30E049E00E948C5D5F
:1040F00000ED1DE0E3E9FDEB30E049E00E948C5D5E
:1041000009ED1DE0EAE8FDEB30E049E00E948C5D3E
:1041100002EE1DE0E1E8FDEB30E049E00E948C5D3D
:104120000BEE1DE0E8E7FDEB30E049E00E948C5D1E
:1041300004EF1DE0EFE6FDEB30E049E00E948C5D0E
:104140000DEF1DE0E6E6FDEB30E049E00E948C5DFE
:1041500006E01EE0E9ECFDEB30E049E00E948C5DFA
:104160000FE01EE0E0ECFDEB30E049E00E948C5DEA
:1041700008E11EE0E7EBFDEB30E049E00E948C5DDA
:1041800001E21EE0EEEAFDEB30E049E00E948C5DCA
:104190000AE21EE0E5EAFDEB30E049E00E948C5DBA
:1041A00003E31EE0EEE1FDEB30E049E00E948C5DB0
:1041B0000CE31EE0E5E1FDEB30E049E00E948C5DA0
:1041C00004E6E4E0F0E10083418320E008C04AE037
:1041D00009E0029FF001E857F24F408723950091D4
:1041E00031022017A0F30091B00E002311F402E178
:1041F00001C003E10093030D0091B10E002319F4F7
:104200005093060D089501E00093060D08958A93DA
:1042100080E009C029E0289F08E81DE0000D111D7D
:104220000E949012839500913102801798F30E94AA
:10423000090D0E94110C899108959A938A93E4E0E4
:10424000F0E100811181012B09F00CC304EF11E0B2
:1042500000831183E9E8F7E0008111812281338135
:10426000012B022B032B09F0FDC200912310002328
:1042700021F400E00093BA02AADD0CE300932210BF
:104280000E94701800E000931C0F01E00093410FA2
:104290001091030D2091060D0091B00E002311F432
:1042A00002E101C003E10093030D0091B10E002370
:1042B00011F400E001C001E00093060D0091030D30
:1042C000011721F40091060D021729F020E001E00A
:1042D0001DE00E94DF0D0091420C002309F42CDD4B
:1042E00010919A0CEAE1F0E120813181232BA1F4B5
:1042F0000091070F002339F00A9539F00A9539F03B
:104300000A9539F009C00AE005C009E003C00CE0D5
:1043100001C00BE000939A0C00919A0C101729F041
:1043200020E008E91CE00E94DF0D8091BA0203E35F
:104330001EE0E9EEF7E0008311834AE050E0082F29
:1043400010E00E940F5B2AE0209F8019E9EE208197
:104350003181F90110850087101719F089010E9439
:10436000BF0F0CE31EE0E9EEF7E000831183F801D4
:1043700010853091EA078087181719F0132F0E94D3
:10438000BF0FE0EDFEE020893189253F01E03007D5
:1043900014F027EE33E008E81DE0E9EEF7E00083D3
:1043A0001183F8011085332362F40AE0E9EEF7E0A7
:1043B0004081F181E42F0087C9019195819590405A
:1043C00008C00BE0E9EEF7E04081F181E42F0087BF
:1043D000C9010091420C002339F000E1E9EEF7E059
:1043E0002081F181E22F0087E9EEF7E02081318121
:1043F000F9010085101719F089010E94BF0F01E92A
:104400001DE0E9EEF7E00083118344E650E08C0103
:104410000E940F5B24E6209F80199109E9EE20811C
:104420003181F901108500870091420C002311F0C1
:1044300000E100870085101719F089010E94BF0F65
:1044400003EA1DE0E9EEF7E000831183F80110852F
:104450000CE0E9EEF7E020813181F901008700915D
:10446000420C002311F000E100870085101719F0BD
:1044700089010E94BF0F0AE91DE0E9EEF7E0008321
:1044800011834AE050E08C010E940F5B2AE0209FDC
:104490008019E9EE20813181F901108500870091B2
:1044A000420C002311F000E100870085101719F07D
:1044B00089010E94BF0F0CEA1DE0E9EEF7E00083DE
:1044C0001183F80110853091EA0780870091420C32
:1044D000002311F000E100870085101721F00E2F56
:1044E000132F0E94BF0F05EB1DE0E9EEF7E00083FC
:1044F0001183E091E907FDE010850FE0E9EEF7E0B8
:1045000020813181F90100870091420C002311F0D4
:1045100000E100870085101719F089010E94BF0F84
:10452000E0EDFEE027A530A907EC1DE0E9EEF7E09D
:1045300000831183F8011085332362F40AE0E9EE69
:10454000F7E04081F181E42F0087C90191958195C1
:10455000904008C00BE0E9EEF7E04081F181E42FE4
:104560000087C901E9EEF7E020813181F90100857A
:10457000101719F089010E94BF0F00ED1DE0E9EE50
:10458000F7E00083118344E650E08C010E940F5B4A
:1045900024E6209F80199109E9EE20813181F901FB
:1045A00010850087101719F089010E94BF0F02EED5
:1045B0001DE0E9EEF7E000831183F80110850CE0BF
:1045C000E9EEF7E020813181F90100871C3019F014
:1045D00089010E94BF0F09ED1DE0E9EEF7E00083BD
:1045E00011834AE050E08C010E940F5B2AE0209F7B
:1045F0008019E9EE20813181F901108500871017BB
:1046000019F089010E94BF0F0BEE1DE0E9EEF7E003
:1046100000831183F80110853091EA07808718170D
:1046200019F0132F0E94BF0F04EF1DE0E9EEF7E031
:1046300000831183E091E907FDE010850FE0E9EECA
:10464000F7E020813181F90100871F3019F08901DD
:104650000E94BF0FECECFEE000811181003921E0E7
:10466000114098F400E900832183E0EDFEE0048727
:10467000258704EFEAE1F0E1008321830091420CF9
:10468000002319F403E300937C03E0EDFEE02485AE
:104690003585283E03E0300714F027EE33E0C901EA
:1046A00006E01EE0E9EEF7E00083118344E650E007
:1046B00089010E940F5B24E6209F80199109E9EE91
:1046C00020813181F90110850087101719F08901C7
:1046D0000E94BF0F0FE01EE0E9EEF7E000831183B8
:1046E0004AE050E08C010E940F5B2AE0209F801975
:1046F000E9EE20813181F90110850087101719F04A
:1047000089010E94BF0F08E11EE0E9EEF7E0008397
:104710001183F80110850CE0E9EEF7E0208131818A
:10472000F90100871C3019F089010E94BF0F01E2D6
:104730001EE0E9EEF7E000831183F8011085309167
:10474000EA078087181719F0132F0E94BF0F0AE29B
:104750001EE0E9EEF7E000831183E091E907FEE057
:1047600010850EE0E9EEF7E020813181F901008744
:104770001E3019F089010E94BF0FEFEDF7E00081B4
:1047800003FF70C0077F008360E352E040E02AE54A
:1047900037E008EF17E00E94AE5521E232E008EF63
:1047A00017E00E94715760E352E040E02BE537E0EC
:1047B00000E218E00E94AE5520E238E008EF17E072
:1047C0000E94715723E232E008EF17E00E94715710
:1047D00060E352E040E02CE537E000E218E00E94A0
:1047E000AE5520E238E008EF17E00E94715727E24B
:1047F00032E008EF17E00E94715760E352E040E0BA
:1048000028E537E000E218E00E94AE550091CA07A3
:1048100020E238E000FF07C008EF17E00E94715760
:1048200029E232E006C008EF17E00E94715727E244
:1048300032E008EF17E00E94715760E352E040E079
:1048400027E537E000E218E00E94AE5520E238E0AC
:1048500008EF17E00E94715732E02EE008EF17E0F2
:104860000E94290C8991999108950E94FA0400915F
:104870004605002319F0043009F05FC10091470597
:10488000002309F061C000914305013009F05CC0CC
:1048900000E000934305E1E8F3E00281138146E084
:1048A0000E94095B025229F0005189F1025051F037
:1048B0004BC006E517E0EAE8F3E047E050E00E946D
:1048C000815D42C0EAE1F0E100811181012BE1F557
:1048D000EAE8F3E001810093550F02810093070F8E
:1048E00003811481E0EDFEE007A710ABEAE8F3E0F6
:1048F00005811681E2EFF7E000831183EAE8F3E037
:1049000007811085E2EFF7E0028313831DC0EAE11F
:10491000F0E100811181012BB9F442E050E02AE876
:1049200033E000EE1FE00E949A5D40918C0350E05E
:104930002DE833E0E0EEFFE06081718100ED1EE0E4
:10494000060F171F0E949A5D00912510002309F0A1
:10495000F4C000917C03002329F000937B0300E066
:1049600000937C030091F107002371F000E00093B5
:10497000F1070E94341904E600937B0304EF11E071
:10498000EAE1F0E100831183009140050023D9F0B2
:1049900000E00093400506E114E0EBEAF4E045E9AD
:1049A00050E00E94815D01E000934205409345057F
:1049B00000934605409343054093440540934705C3
:1049C000409348050895EAEFFFE000811181012B33
:1049D00009F0B3C000917B030D3608F074C0F0E01D
:1049E000FBBFF2E00F9FF001E650FF4F07901690DB
:1049F000F0010994EBE7F3E0039500830091BA021C
:104A00000E94830304E640C0EBE7F3E003950083D4
:104A10001091BA020091BA020E948A01F3CFEBE72B
:104A2000F3E00395008318E220ED3EE00091BA0226
:104A30000E943603E7CFEBE7F3E00395008315E22E
:104A400028EF3EE0F3CF1FE222E43FE00091BA02FC
:104A50000E94360313C041E02CEC3EE010E00091D0
:104A6000BA020E9444020AC011E02CE13FE003C0F8
:104A700011E021E43FE001E00E94D602EBE7F3E021
:104A800000810395008302E300932510089512E04E
:104A90002FEF3EE00091BA020E94D60200E00093A0
:104AA0007B03F1CF41E02CEC3EE010E00091BA0234
:104AB0000E944402F3CF11E027E03FE0EBCF0091EA
:104AC0002410002321F000E000937B03089517E1F8
:104AD0002EE93FE001E00E94D602EBE7F3E000811F
:104AE000039500830AE0D0CF11E025E53FE0F2CF47
:104AF00012E02FEF3EE0EECFEBE7F3E0F1CF11E075
:104B00002CE13FE0E7CF11E021E43FE0E3CF11E00B
:104B100027E03FE0DFCF11E02CE23FE0DBCF41E0D8
:104B20002CEC3EE010E00091BA020E9444020EE636
:104B300000937B0302E30093251008950091BA02CD
:104B40000E9491020AE000932510089500E000936E
:104B50007F0300937B0300937C030DE41CE0E2E5FC
:104B6000FCEB30E04FE050E00E948C5D0CE51CE077
:104B7000E3E4FCEB30E04FE00E948C5D0BE61CE0D0
:104B8000E4E3FCEB30E04FE00E948C5D0AE71CE0C0
:104B9000E5E2FCEB30E04FE00E948C5D09E81CE0B0
:104BA000E6E1FCEB30E04FE00E948C5D08E91CE0A0
:104BB000E2EDFDEB30E04FE00E948C5D07EA1CE087
:104BC000E1EEFDEB30E04FE00E948C5D06EB1CE077
:104BD000E0EFFDEB30E04FE00E948C5D05EC1CE067
:104BE000EFEFFDEB30E04FE00E948C5D04ED1CE048
:104BF000EEE0FEEB30E04FE00E948C5D01E00093C0
:104C0000610C08958A9380E009C029E0289F08E894
:104C10001DE0000D111D0E949012839500913E022F
:104C2000801798F30E94090D89910895E4E0F0E15E
:104C300000811181012B21F404EF11E00083118325
:104C400008950E94110C02E300937C03089502E092
:104C500000937F0300E000937B0300937C030DE44B
:104C60001CE0E2E5FCEB30E04FE050E00E948C5DA0
:104C70000CE51CE0E3E4FCEB30E04FE00E948C5DCF
:104C80000BE61CE0E4E3FCEB30E04FE00E948C5DBF
:104C90000AE71CE0E5E2FCEB30E04FE00E948C5DAF
:104CA00009E81CE0E6E1FCEB30E04FE00E948C5D9F
:104CB00008E91CE0EEEFFEEB30E04FE00E948C5D77
:104CC00001E00093700C08958A9380E009C029E008
:104CD000289F08E81DE0000D111D0E949012839589
:104CE00000913E02801798F30E94090D0E94110C5A
:104CF000899108959A938A932197E4E0F0E10081E5
:104D00001181012B09F002C104EF11E0008311832E
:104D1000E9E8F7E00081118122813381012B022B28
:104D2000032B09F0F3C00091420C002309F0EEC000
:104D300080E093E0282F09E0029FF001EF58F04F48
:104D400000811181012B09F4D2C060E352E040E000
:104D500027E73FE0200D311D01E617E00E94AE5528
:104D60000FE20093630700E000936407392F20E00F
:104D700001E617E00E94290C60E352E040E028E7DA
:104D80003FE0282E09E0029D200D311D01E617E0CD
:104D90000E94AE550FE20093630700E000936407A2
:104DA000392F23E001E617E00E94290C60E352E06E
:104DB00040E029E73FE0282E09E0029D200D311D4B
:104DC00001E617E00E94AE55392F26E001E617E014
:104DD0000E94290C60E352E040E025E73FE0282EE6
:104DE00009E0029D200D311D01E617E00E94AE553D
:104DF0000AE30093630700E000936407392F29E07A
:104E000001E617E00E94290C60E352E040E024E74D
:104E10003FE0282E09E0029D200D311D01E617E03C
:104E20000E94AE550AE30093630700E00093640715
:104E3000392F2CE001E617E00E94290C60E352E0D4
:104E400040E023E73FE0282E09E0029D200D311DC0
:104E500001E617E00E94AE55392F2FE001E617E07A
:104E60000E94290C282F09E0029FF001EF58F04F13
:104E70000181088360E352E040E09E0101E617E013
:104E80000E94AE55392F22E101E617E00E94290C5D
:104E9000282F09E0029FF001EF58F04F00810883AE
:104EA00060E352E040E09E0101E617E00E94AE554B
:104EB000392F25E101E617E00E94290C492F43957F
:104EC00030E0682F09E0069FF001EF58F04F1181A4
:104ED000012F110F110B69E1619F702D609F710D02
:104EE0000DE11EEB20E0000D171F0E94510C282F32
:104EF00009E0029FF001EF58F04F00811181012B72
:104F000029F083959E5F853008F414CF219689910E
:104F1000999108950E94FA0400914605002319F022
:104F2000043009F09CC0009147050023C1F50091B1
:104F300043050130A1F500E000934305E1E8F3E00B
:104F40000281138146E00E94095B065101F10C5178
:104F500031F5EAE1F0E100811181012B01F542E038
:104F600050E02AE833E000EE1FE00E949A5D409195
:104F70008C0350E02DE833E0E0EEFFE060817181CA
:104F800000ED1EE0060F171F0E949A5D08C001E7A2
:104F90001FE0EAE8F3E04DE250E00E94815D0091FD
:104FA0002510002309F05BC000917C03002329F049
:104FB00000937B0300E000937C03009140050023F5
:104FC000D9F000E00093400506E114E0EBEAF4E0DC
:104FD00045E950E00E94815D01E000934205409365
:104FE000450500934605409343054093440540938F
:104FF0004705409348050895EAEFFFE000811181DD
:10500000012B69F500917B03002319F0025371F025
:1050100023C0EBE7F3E0039500831DE221E73FE0C7
:105020000091BA020E94360304E613C04DE250E03C
:1050300020E030E001E71FE00E94A85D00E000935F
:105040007B031DE221E73FE00091BA020E94D602F5
:1050500002E300932510089500E000937B03089578
:105060009A938A93229742E030E00DE01FEB20E014
:105070000E94510C00E00093F80780E007C025E58E
:1050800032E008EF17E00E94715783950091D00E2F
:105090008017C8F4E0EDFEE004801580268037809C
:1050A000482F01E010E00E94035B212F220F220B0A
:1050B0000022112222223222012802280328F9F29A
:1050C00022E532E0DECF32E023E008EF17E00E9475
:1050D000290C43E030E001E21FEB20E00E94510C7C
:1050E00000E00093F80780E013C025E532E008EF08
:1050F00017E00E94715700913808081741F408EF33
:1051000017E00E94015E13E003950E94C10B839596
:105110000091D10E8017C8F4E0EDFEE00084118408
:1051200022843384482F01E010E00E94035B212F8A
:10513000220F220B002211222222322201280228D1
:10514000032899F222E532E0D2CF33E023E008EFE2
:1051500017E00E94290C44E030E005E31FEB20E05B
:105160000E94510C00E00093F8079091D20E943009
:1051700008F093E080E0992359F1282F30E0009166
:10518000D30E200F331F220F331FF901E053F14FCD
:1051900004851585088319830881083E23E01340A0
:1051A0001CF007EE088329839E0100E218E00E94AC
:1051B000065620E238E008EF17E00E94715728E514
:1051C00032E008EF17E00E94715783958917A8F223
:1051D00034E023E008EF17E00E94290C45E030E0BE
:1051E00009E41FEB20E00E94510C00E00093F80757
:1051F00080E02AC02CED3EE002E0809F200D311DB2
:1052000000E218E00E94AD5620E238E008EF17E017
:105210000E9471572091380830E00091D10E10E0C3
:10522000080F131F2017310741F408EF17E00E9401
:10523000015E15E00E5F0E94C10B28E532E008EF29
:1052400017E00E94715783950091D30E801790F25A
:1052500035E023E008EF17E00E94290C2091D10EE1
:1052600030E00091D30E200F331F00913808201733
:10527000304044F40091D10E1091D30E010F0A95E5
:105280000093380822968991999108958A932297DC
:10529000802F023008F0CCC200E00093F8074DE503
:1052A0005FEB60E008EF17E00E94865740E028EFD0
:1052B0003EE005E2089F200D311D00E218E00E944B
:1052C000535520E238E008EF17E00E9471572AE5B5
:1052D00032E008EF17E00E9471572CED3EE005E246
:1052E000089FF001E053F14F40A550E00091D30E2C
:1052F000400F551F440F551F240F351F00E218E0C3
:105300000E94065620E238E008EF17E00E9471572D
:1053100032E020E008EF17E00E94290C00913808E5
:10532000002321F412E003E00E94C10B00E000938F
:10533000F80741E75FEB60E008EF17E00E9486574F
:1053400040E027E03FE005E2089F200D311D00E22C
:1053500018E00E94535520E238E008EF17E00E9461
:10536000715733E020E008EF17E00E94290C00910C
:105370003808013021F413E005E00E94C10B00E081
:105380000093F80745E85FEB60E008EF17E00E9444
:1053900086572FEF3EE005E2089F200D311D00E209
:1053A00018E00E94065620E238E008EF17E00E945D
:1053B000715734E020E008EF17E00E94290C0091BB
:1053C0003808023039F408EF17E00E94015E14E05B
:1053D0000E94C10B00E00093F8074DEA5FEB60E02C
:1053E00008EF17E00E94865721E03FE005E2089FA2
:1053F000200D311D00E218E00E94AD5620E238E099
:1054000008EF17E00E94715735E020E008EF17E041
:105410000E94290C00913808033039F408EF17E096
:105420000E94015E15E00E94C10B00E00093F807A6
:1054300041EC5FEB60E008EF17E00E94865740E028
:1054400029EF3EE005E2089F200D311D00E218E043
:105450000E94FC5420E238E008EF17E00E947157E8
:1054600036E020E008EF17E00E94290C0091380890
:10547000043039F408EF17E00E94015E16E00E9444
:10548000C10B00E00093F80745E151EC60E008EF44
:1054900017E00E94865740E02CE13FE005E2089FBC
:1054A000200D311D00E218E00E94535520E238E043
:1054B00008EF17E00E94715736E020E108EF17E08F
:1054C0000E94290C00E00093F80745ED5FEB60E0D7
:1054D00008EF17E00E94865740E02DEF3EE005E21E
:1054E000089F200D311D00E218E00E94FC5420E2CC
:1054F00038E008EF17E00E94715737E020E008EF2E
:1055000017E00E94290C00913808053039F408EFA3
:1055100017E00E94015E17E00E94C10B00E00093BB
:10552000F80749EE5FEB60E008EF17E00E9486574E
:1055300023E03FE005E2089F200D311D00E218E066
:105540000E94AD5620E238E008EF17E00E94715744
:1055500038E020E008EF17E00E94290C009138089D
:10556000063039F408EF17E00E94015E18E00E944F
:10557000C10B00E00093F8074DEF5FEB60E008EF30
:1055800017E00E94865725E03FE005E2089F200DC6
:10559000311D00E218E00E94AD5620E238E008EF2D
:1055A00017E00E94715739E020E008EF17E00E94F1
:1055B000290C00913808073039F408EF17E00E94F1
:1055C000015E19E00E94C10B00E00093F80741E181
:1055D00050EC60E008EF17E00E9486572CE03FE0B7
:1055E00005E2089F200D311D00E218E00E94AD5633
:1055F00020E238E008EF17E00E9471573AE020E01F
:1056000008EF17E00E94290C00913808083039F49F
:1056100008EF17E00E94015E1AE00E94C10B00E053
:105620000093F80745E250EC60E008EF17E00E94B5
:10563000865740E02AE03FE005E2089F200D311D3B
:1056400000E218E00E94FC5420E238E008EF17E086
:105650000E9471573BE020E008EF17E00E94290C00
:1056600000913808093039F408EF17E00E94015E14
:105670001BE00E94C10B05E2089FF001E05FF04FC4
:10568000008111812281338140E050E06AE774E4B7
:105690000E946E5C0E94BB5B0883198300E000934C
:1056A000F80749E350EC60E008EF17E00E948657E6
:1056B00040E09E0100E218E00E94FC5420E238E045
:1056C00008EF17E00E9471573CE020E008EF17E078
:1056D0000E94290C009138080A3039F408EF17E0CD
:1056E0000E94015E1CE00E94C10B05E2089FF001D0
:1056F000EC5EF04F008111812281338140E050E067
:105700006AE774E40E946E5C0E94BB5B08831983A5
:1057100000E00093F8074DE450EC60E008EF17E07C
:105720000E94865740E09E0100E218E00E94FC546F
:1057300020E238E008EF17E00E9471573CE02CE0CF
:1057400008EF17E00E94290C009138080B3041F453
:1057500008EF17E00E94015E1CE0045F0E94C10B8D
:1057600005E2089FF001E85EF04F00811181088397
:10577000198300E00093F80741E650EC60E008EF81
:1057800017E00E94865740E09E0100E218E00E9468
:10579000FC5420E238E008EF17E00E9471573DE02A
:1057A00020E008EF17E00E94290C009138080C3027
:1057B00039F408EF17E00E94015E1DE00E94C10B62
:1057C00005E2089FF001E65EF04F00811181088339
:1057D000198300E00093F80745E750EC60E008EF1C
:1057E00017E00E94865740E09E0100E218E00E9408
:1057F000FC5420E238E008EF17E00E9471573DE0CA
:105800002CE008EF17E00E94290C009138080D30B9
:1058100041F408EF17E00E94015E1DE0045F0E9462
:10582000C10B009138080E3018F00DE000933808D5
:10583000229689910895002309F0A4C100E0009305
:10584000F8074DE55FEB60E008EF17E00E94865730
:1058500040E024EB3FE000E218E00E94535520E2D4
:1058600038E008EF17E00E9471572AE532E008EFB0
:1058700017E00E9471572EED3EE00091B40F12E048
:10588000019F200D311D00E218E00E94065620E223
:1058900038E008EF17E00E94715732E020E008EF8F
:1058A00017E00E94290C00913808002321F412E02F
:1058B00003E00E94C10B00E00093F80741E75FEBB3
:1058C00060E008EF17E00E94865740E020EA3FE0E2
:1058D00000E218E00E94535520E238E008EF17E09C
:1058E0000E94715733E020E008EF17E00E94290C76
:1058F00000913808013021F413E005E00E94C10B4B
:1059000000E00093F80745E85FEB60E008EF17E080
:105910000E9486572EE93FE000E218E00E940656FA
:1059200020E238E008EF17E00E94715734E020E0F1
:1059300008EF17E00E94290C00913808023039F472
:1059400008EF17E00E94015E14E00E94C10B00E026
:105950000093F8074DEE50EC60E008EF17E00E946E
:10596000865740E021EA3FE000E218E00E945355EC
:1059700020E238E008EF17E00E94715735E020E0A0
:1059800008EF17E00E94290C00913808033039F421
:1059900008EF17E00E94015E15E00E94C10B00E0D5
:1059A0000093F80749E850EC60E008EF17E00E9428
:1059B000865723EA3FE000E218E00E94065620E204
:1059C00038E008EF17E00E94715736E020E008EF5A
:1059D00017E00E94290C00913808043039F408EFD0
:1059E00017E00E94015E16E00E94C10B00E00093E8
:1059F000F8074DE950EC60E008EF17E00E94865789
:105A000025EA3FE000E218E00E94065620E238E076
:105A100008EF17E00E94715737E020E008EF17E029
:105A20000E94290C00913808053039F408EF17E07E
:105A30000E94015E17E00E94C10B00E00093F8078E
:105A400041EB50EC60E008EF17E00E94865727EA30
:105A50003FE000E218E00E94065620E238E008EF3E
:105A600017E00E94715738E020E008EF17E00E942D
:105A7000290C00913808063039F408EF17E00E942D
:105A8000015E18E00E94C10B00E00093F80745ECAE
:105A900050EC60E008EF17E00E94865729EA3FE0EB
:105AA00000E218E00E94065620E238E008EF17E016
:105AB0000E94715739E020E008EF17E00E94290C9E
:105AC00000913808073039F408EF17E00E94015EB2
:105AD00019E00E94C10B00E00093F80741E051EC8F
