:100000000C94F2321895189518951895189518951E
:100010001895189518951895189518951895189578
:100020001895189518951895189518951895189568
:100030000C947B1A1895189518951895189518957D
:100040001895189518951895189518951895189548
:100050001895189518951895189518951895189538
:100060001895189518951895189518951895189528
:1000700018951895189518950C942E1A189518958A
:100080001895189518951895189518959A05B90604
:10009000B906B906A405B906B906B906B906B9067E
:1000A000B906B906B906B906B005B906B906B90662
:1000B000B906B9069A05C8050206D205DE05EA05A5
:1000C000F6050C061806B906240630063C06480656
:1000D00054065E06B906B906B906B9066A06B90637
:1000E000B90676067F068A06B906B906B906B906C4
:1000F0009F069506AB064C09530955095C095F0933
:100100005F09890A890A890A4909890A890A890AC3
:10011000890A890A890A890A890A890A6409720985
:100120007E098A099809CD09B109BD09890AC7095B
:10013000CA09890ACD09D709E309070AFE09F509A1
:10014000EC09890A280A2F0A890ADC090E0A210A01
:10015000360A890A3D0A440A4D0A530A590A610AB5
:10016000690A710A790A810AA309AA09A10ACD0BB1
:10017000CD0BCD0BCD0BCD0BCD0BCD0BCD0BCD0BBF
:10018000A70ACD0BB50ACD0BC10A1C0BFC0A080B44
:10019000120B160B190BCD0B1C0B260B320B560B2F
:1001A0004D0B440B3B0BCD0BCD0BCD0BCD0B2B0BCC
:1001B0005D0B6E0B7E0BCD0B850B8C0B940B9A0B92
:1001C000A00BA80BB00BB80BC00BC80BEE0AF50ABE
:1001D0009E0CBF0CE20C040D7A0C430D640D850DD2
:1001E000A60DC60DEE0D0C0E2B0E440E5C0E750EFC
:1001F0008C0EA50EBC0EDC0EFC0E1D0FBA93AA933E
:10020000A6E2B6E00AEA15E50D931C931197FD01ED
:1002100002811381007E20914808022B0F71107C0F
:1002200020919D0530919E05207C3F73022B132B5E
:100230000283138304E0018764E070E040E356E04A
:1002400007E61EED21E030E00E94901A67E070E0C2
:1002500044E356E00FE61EED21E030E00E94901AE4
:1002600064E070E04CE356E007E61FED21E030E08B
:100270000E94901A67E070E040E456E00FE61FED40
:1002800021E030E00E94901A0DE416E000938C0506
:1002900010938D050091DD0700935606E7ECF7E01B
:1002A0000FE416E047E050E00E94BA350091CE0717
:1002B00000934E0600911B08009357060091130807
:1002C00010911408FD0102AB13AB00919907109136
:1002D0009A0704AB15AB00910C0812E0019FF001E6
:1002E000E357F84F02891389FD0106AB17AB0FE204
:1002F000C0C1BA93AA93A6E2B6E00AEA15E50D9347
:100300001D930D911C911197007E20914808022B9E
:100310000F71107C20919D0530919E05207C3F73CC
:10032000022B132B0D931C9313970EE200932A06B6
:100330004EE250E02DE837E00FE216E00E94CF35A4
:100340008EC0BA93AA93402FA6E2B6E00AEA15E55A
:100350000D931D930D911C911197007E20914808DB
:10036000022B0F71107C20919D0530919E05207C01
:100370003F73022B132B0D931C93139705E20093ED
:100380002A06442345E250E039F42CE038E00FE23D
:1003900016E00E94CF3506C020E030E00FE216E004
:1003A0000E94DD355CC0BA93AA93402FA6E2B6E066
:1003B0000AEA15E50D931D930D911C911197007E8E
:1003C00020914808022B0F71107C20919D053091DF
:1003D0009E05207C3F73022B132B0D931C931397C8
:1003E00005E200932A06442347E150E039F421E373
:1003F00038E00FE216E00E94CF3506C020E030E082
:100400000FE216E00E94DD352AC0BA93AA93A6E255
:10041000B6E00AEA15E50D931D930D911C91119715
:10042000007E20914808022B0F71107C20919D05C1
:1004300030919E05207C3F73022B132B0D931C9350
:10044000139703E100932A0643E150E020E030E0F7
:100450000FE216E00E94DD3502C000932A068D01EE
:100460000E94F00615960D931C9316978D010E941D
:10047000160717960D931C93EEE8F5E001E0008354
:1004800000E00383068303E010E0009387051093E8
:100490008805A991B9910895BA93AA93A6E2B6E006
:1004A0000AEA15E50D931D930D911C911197007E9D
:1004B00020914808022B0F71107C20919D053091EE
:1004C0009E05207C3F73022B132B0D931C931397D7
:1004D0000FE000932A064FE0B8CFBA93AA93A6E2A2
:1004E000B6E00AEA15E50D931D930D911C91119745
:1004F000007E20914808022B0F71107C20919D05F1
:1005000030919E05207C3F73022B132B0D931C937F
:10051000139704E200932A0644E250E028EE37E005
:100520000BCFBA93AA932CEA35E020938C05309335
:100530008D052091B5052093DD072091AD05209311
:10054000CE072091B60520931B08EBE9F5E0248D3A
:10055000358D2093130830931408268D378D209302
:10056000990730939A0723E020938905A6E2B6E025
:100570002AEA35E52D933C931197FD0122813381C1
:10058000207E40914808242B2F71307CEBE9F5E068
:1005900002811381007C1F73202B312BFD012283EC
:1005A000338301E166C0BA93AA930BE915E024EA0C
:1005B00035E020938A0530938B05EDE8F7E0D8010C
:1005C00051964D915D916D917C91408751876287E5
:1005D000738720E03381332391F032E0239FD801E9
:1005E000A00DB11D55964D915C91DF01A00DB11D7F
:1005F0001C964D935C9323953381231770F3A6E2E9
:10060000B6E02AEA35E52D933C931197FD0122814E
:100610003381207E40914808242B2F71307CF801D3
:1006200002811381007C1F73202B312BFD0122835B
:1006300033831EC003E000938905A6E2B6E00AEA10
:1006400015E50D931C931197FD0102811381007E26
:1006500020914808022B0F71107CEBE9F5E0228114
:100660003381207C3F73022B132BFD010283138304
:1006700000E004838D010E94F006FD0105831683CE
:100680008D010E941607FD0107831087F5CEBA93EE
:10069000AA930091A405002359F4E0919F05F0E08E
:1006A0003197AF0125EA35E00CE018E00E94CF3524
:1006B000C1CFBA93AA930091A405002359F4E09105
:1006C0009F05F0E03197AF0125EA35E001E318E03E
:1006D0000E94CF35AFCF3FC03EC0BA93AA93A6E2E7
:1006E000B6E00AEA15E50D931D9300919D05109162
:1006F0009E050D931C931197007E20914808022BB4
:100700000F7120919D05207C022B0D93139707E01C
:1007100000932A0647E050E027EC37E00DCEBA936D
:10072000AA9347E050E024EA35E007EC17E00E9486
:10073000CF3520E01091C8070091C9070E94F41737
:100740003091CA072091CB071091CC070091CD07BB
:100750000E94391802C0BA93AA93A6E2B6E00AEA48
:1007600015E50D931D930D911C911197007E20911D
:100770004808022B0F71107C20919D0530919E0539
:10078000207C3F73022B132B0D931C93139700E0D7
:1007900064CEBA93AA936091A405643178F4009171
:1007A000A50512E0019FA00126EA35E001EB18E063
:1007B00072E0679F000D111D0E94CF353ECFBA93A6
:1007C000AA936091A4054091A505A6E2B6E00AEAC5
:1007D00015E50D931C931197FD0102811381007E95
:1007E00020914808022B0F71107C20919D053091BB
:1007F0009E05207C3F73022B132B02831383042F4F
:10080000000F0483643160F402E0409FA00129EDF1
:1008100038E0609F200D311D0FE216E00E94CF35B9
:1008200029CFBA93AA9303E00093890596CFBA9390
:10083000AA930091A4050093DD07A6E2B6E0009319
:100840002F060AEA15E50D931D930D911C91119742
:10085000007E20914808022B0F71107C00641B6001
:100860000D931C93139701E0F8CDBA93AA932297A6
:1008700042E050E024EA35E08E010E94CF354091FD
:10088000A60550E027EA35E0688179810DE817E098
:10089000060F171F0E94CF35A6E2B6E00AEA15E55B
:1008A0000D931C931197FD0102811381007E20910D
:1008B0004808022B0F71107CEBE9F5E022813381AF
:1008C000207C3F73022B132BFD010283138300E076
:1008D00004838D010E94F006FD01058316838D01BE
:1008E0000E941607FD0107831087EEE8F5E001E09E
:1008F000008300E00383068303E010E00093870594
:10090000109388052296A991B9910895BA93AA9354
:100910008A93229742E050E024EA35E08E010E945B
:10092000CF358091A605A6E2B6E0482F50E00881B9
:1009300019812DE837E0200F311F02E316E00E94F5
:10094000CF3542E050E09E010FE216E00E94CF3525
:10095000809331060AEA15E50D931C931197FD016A
:1009600002811381007E20914808022B0F71107CB8
:10097000EBE9F5E022813381207C3F73022B132BBE
:10098000FD01028313838D5F84838D010E94F00635
:10099000FD01058316838D010E941607FD01078363
:1009A0001087EEE8F5E001E0008300E003830683B2
:1009B00003E010E000938705109388052296899143
:1009C000A991B9910895BA93AA93A8E2B6E00D91BE
:1009D0001C911197007E20914808022B0F71107C0A
:1009E00020919D0530919E05207C3F73022B132B97
:1009F0000D931C93139700E000932A068D010E942B
:100A0000F00615960D931C9316978D010E941607FC
:100A100017960D931C93EEE8F5E001E0008300E0EB
:100A20000383068303E010E0009387051093880595
:100A30000091A405009348080E941920A991B9913A
:100A4000089500E016E920E030E00E94DD194BE84F
:100A500050E020E030E00BE915E00E94DD354BE886
:100A600050E020E030E006E216E00E94DD3548E08C
:100A700050E020E030E00EE815E00E94DD350C94F7
:100A8000DB19BA93AA930E94581A00939A052091F1
:100A90009005122F222319F01A9539F008C00A3A4E
:100AA00031F000E00093900564C10535D1F7ABE962
:100AB000B5E0F0E0E22FE556FA4F0083EEE8F5E00E
:100AC000028103950283093041F48D01AFD1FD010C
:100AD000278130850217130721F7E0919F05F0E089
:100AE00038960091900510E0E017F0400CF041C1FD
:100AF000109390058D0174D1FD0125813681021777
:100B0000130709F030C101E000938F0522811381A2
:100B100046E0022F0E941833053308F02AC1F0E0A6
:100B2000FBBFF2E00F9FF001E457FF4F07901690D4
:100B3000F0010994022F0F7110914808011709F074
:100B400018C10E94FE0015C1022F0F7110914808B4
:100B5000011719F0002309F00CC10E94251B09C1DF
:100B6000FD010185128523853485EEE8F5E00087D7
:100B7000118722873387E9E4F8E04081518162815F
:100B80007381401751076207730709F0F2C0E5CF80
:100B9000022F0F7110914808011709F0EAC00E9456
:100BA0007901E7C0022F0F7110914808011709F071
:100BB000E0C00091A4050E94A101DBC0022F0F71CB
:100BC00010914808011709F0D4C00091A4050E94B3
:100BD000D301CFC0022F0F7110914808011709F0FF
:100BE000C8C00091A4050E940502C3C0022F0F7166
:100BF00010914808011709F0BCC00091A4050E949B
:100C00004C02B7C0022F0F7110914808011709F06C
:100C1000B0C00E946D02ADC0022F0F711091480844
:100C2000011719F0002309F0A4C00E949102A1C08D
:100C3000022F0F7110914808011719F0002309F0D5
:100C400098C00E94D30295C0022F0F7110914808DE
:100C5000011719F0002309F08CC00E94470389C0D6
:100C6000022F0F7110914808011719F0002309F0A5
:100C700080C00E9459037DC0022F0F711091480857
:100C8000011719F0002309F074C00E946B0371C0B2
:100C9000022F0F7110914808011719F0002309F075
:100CA00068C00E946C0365C0022F0F711091480844
:100CB000011709F05EC00E946D035BC0022F0F7127
:100CC00010914808011719F0002309F052C00E9442
:100CD0008F034FC0022F0F7110914808011719F0B0
:100CE000002309F046C00E94C90343C0022F0F71C0
:100CF000109148080117E9F50E94DF033AC0022F5E
:100D00000F7110914808011711F0002391F50E940E
:100D100011042FC0022F0F7110914808011711F014
:100D2000002339F50E94170424C0022F0F7110917F
:100D30004808011711F0002311F40E943504FD0149
:100D400002810F7110914808011711F0002389F4F6
:100D50000E9486040EC02F7100914808201749F4A4
:100D60000E94E30406C026EC31E007E01AE00E948E
:100D7000972CA991B99108959A938A930091870528
:100D800010918805012B49F500919405002301F588
:100D90000E945B1A002309F10E94D9190E94631A6C
:100DA000E0919105F0E0EA5DF94F00810E94551A4B
:100DB0000091910503950093910580912A0690E09A
:100DC0000896801790404CF401E00093940505C00C
:100DD00000E000938E050E94DB1989919991089596
:100DE000AA939A938A932297C8018E010E946C134A
:100DF000A0E0FC010481002379F0AE0121E030E0A5
:100E00008C010A0F131F075F1F4F0E947913A395D0
:100E1000FC010481A01788F38E010E9471130881E0
:100E20001981229689919991A9910895BA93AA93CB
:100E30009A938A932297C8018E010E946C13DC0159
:100E400087E0AE0121E030E08D010E947913119618
:100E50008A95B9F78E010E94711308811981229633
:100E600089919991A991B99108950E94381B00E048
:100E70000093CD060E944B1B44E150E020E030E09F
:100E80000EEC16E00C94DD359A928A927A926A9270
:100E90005A924A921D01BC0148018091CD0690E012
:100EA000682E7724660C771C660C771C660C771C02
:100EB000A6EEB6E0A60DB71DFD01048115810683DF
:100EC000178302811381048315830D911C9111975F
:100ED000FB2F028313838D929C9211970D911C918D
:100EE0001197FB2F22813381020F131F248135813B
:100EF000020F131F26813781020F131F44E050E0B9
:100F00000E94363326E237E0880F991F280F391FD9
:100F10002901F90100831183C401801B910B1AF48C
:100F2000919581959040E6EEF6E0E60DF71D04A15F
:100F300015A106A317A302A113A104A315A300A141
:100F400011A102A313A380A391A300A111A122A127
:100F500033A1020F131F24A135A1020F131F26A1D5
:100F600037A1020F131F44E050E00E943633F20114
:100F70000087118723E0219F302D209F310D8015A0
:100F8000930714F4840103C0FD0102811381CB0196
:100F9000D1014990599069907990899099900895DC
:100FA000BA92AA929A928A925A924A92BA93AA931F
:100FB0009A938A930E946B1B212F220F220B322FB0
:100FC0000E94E7330801190185EC96E00091CD06F7
:100FD0000330A0F510E0402E5524440C551CEDE8DC
:100FE000F7E0DF01A40DB51D000F111F000F111F49
:100FF000E00FF11F048D158D268D378DA001B101F5
:101000000E94A73448015901FD0100A511A5212F17
:10101000220F220B322F0E94E733A401B5010E9458
:1010200046340E94F433FC01E40DF51D0083118366
:1010300028012ADFFD01028B138B14C099F440E0D4
:1010400050E060E070E4002D0E94A7340E94F43369
:10105000FC010683178318DF0093A5071093A607EA
:1010600044245524FC01008503950087043040F09A
:1010700000E000870E94FE204092A7075092A80738
:101080000091CD060E944B1B89919991A991B9912C
:101090004990599089909990A990B99008954EE8F7
:1010A00051E020E030E00DE418E00E94DD3500E280
:1010B00013E021E030E0E6ECF9E0008311832283C5
:1010C00033833483089500913607002399F04EE866
:1010D00051E020E030E00DE418E00E94DD3500E250
:1010E00013E021E030E0E6ECF9E000831183228395
:1010F00033832483089500E00093CA090895009182
:10110000DD07013021F10091CA09013001F567E1E5
:1011100070E047E357E0E6ECF9E0008111812281BD
:1011200033810E94901AE6ECF9E00081118122815E
:101130003381095E1F4F2F4F3F4F0083118322835E
:1011400033830E942A1B0E94D30B0E94600C0895D7
:101150001D0118E0019FA2EDB1E0ED91FD913C91E0
:10116000E00DF11D34963BBF069134970A9559F076
:101170000A95B1F00A95F9F00A9551F10A9589F1AD
:101180000A9579F138C036960791F691E02FE35B26
:10119000F74F4081542F550F550B652F752F2BC0DE
:1011A00036960791F691E02FE35BF74F408150E0D0
:1011B00060E070E020C036960791F691E02FE35B87
:1011C000F74F40815181652F660F660B762F13C054
:1011D00036960791F691E02FE35BF74F40815181FE
:1011E000E7CF36960791F691E02FE35BF74F40810A
:1011F0005181628173818A019B01D10108953B2E47
:101200002A2F18E0019FA2EDB1E0ED91FD913C91F4
:10121000E00DF11D34963BBF069134970A9559F0C5
:101220000A9549F00A9579F00A9569F00A95A1F0B6
:101230000A9591F01BC036960791F691E02FE35B7B
:10124000F74F408313C036960791F691E02FE35B8A
:10125000F74F408351830AC036960791F691E02FED
:10126000E35BF74F4083518362837383A22FB32DD7
:10127000089548814A954B3308F04BC1F0E0FBBF1D
:10128000F2E04F9FF001EA50FF4F07901690F001F7
:1012900009940A815DDF3DC10A81102F110F110BE6
:1012A000212F312F36C10A8131C10A811B81212FA3
:1012B000220F220B322F2DC10A811B8128C10A81E6
:1012C0001B812C813D8125C14981443108F021C118
:1012D00004E0409FF001EF5FF64F00811181228111
:1012E000338117C14981453008F013C102E0409FA6
:1012F000F001E357F84F02891389D9CF4981433070
:1013000008F007C102E0409FF001E357F84F048561
:101310001585FDC04981483008F0FBC0EDE8F7E0D5
:1013200004811581268137810E9452330170EEC0FD
:101330004981483008F0EDC0EDE8F7E000851185FF
:1013400022853385F1CFEDE8F7E004811581268110
:101350003781DFC0EDE8F7E0008511852285338510
:10136000D8C04981443108F0D4C002E0409FF00168
:10137000EF54F74F008111819ACF4981443108F031
:10138000C8C002E0409FF001E752F74FF3CFE1E51C
:10139000F9E0A3CF0091CE07B9C04981483008F0E9
:1013A000B8C004E0409FF001EB5AF64F96CF009191
:1013B000770510917805ABC04A81442309F0A9C094
:1013C00000910C08A3C04A81442309F0A2C00091F7
:1013D0001308109114086BCF4A81442309F099C077
:1013E0000091190810911A0862CF4A81442309F02C
:1013F00090C0009117081091180859CF4A814423D2
:1014000009F087C0009115081091160850CF4A8145
:10141000442309F07EC000911B0878C04A81442310
:1014200009F077C0E4E2F8E0008111812281338184
:1014300040E050E06AE774E40E94A7340E94F4336D
:1014400068C04A81442309F064C0E8E2F8E0ECCFC8
:101450004A81442309F05DC00091220857C04A81A7
:10146000442309F056C00091230850C04A81442308
:1014700009F04FC00091300849C04A81442309F067
:1014800048C00091470842C04A81442309F041C046
:1014900000913108109132080ACF4A814423C9F5DE
:1014A0000091330833C04A81442399F500913408F0
:1014B0002DC04A81442369F5009136081091370800
:1014C000F6CE4A81442329F5009138081091390855
:1014D000EECE4A814423E9F400913A0810913B088A
:1014E000E6CE4A814423A9F400913C0810913D08BE
:1014F000DECE4A81442369F400913E0810913F08F2
:1015000006C04A81442329F40091460810E020E0F7
:1015100030E026960895BA93AA939A938A93C801C5
:10152000A22F0C810A50023308F037C1F0E0FBBF54
:10153000F2E00F9FF001E459FE4F07901690F00182
:101540000994482F512FB9010E8159DE26C14D81D2
:10155000443108F022C104E0409FF001EF5FF64FF4
:10156000808311832283338318C14D81433008F077
:1015700014C102E0409FF001E357F84F84871587BC
:101580000CC14D81483008F008C101E010E00E9414
:101590001233212F220F220B482F492B4A2B432B8A
:1015A00079F0EDE8F7E04085518562857385402B41
:1015B000512B622B722B4087518762877387EDC056
:1015C000009510952095EDE8F7E0408551856285FE
:1015D00073854023512362237223EDCFEDE8F7E0BA
:1015E0008483158326833783D8C0EDE8F7E08087AE
:1015F000118722873387D1C04D81443108F0CDC097
:1016000002E0409FF001EF54F74F80831183C5C083
:101610004D81443108F0C1C002E0409FF001E75223
:10162000F74FF3CF082F0E940D14B7C0E1E5F9E0A2
:1016300097CF8093CE07B1C04D81483008F0ADC040
:1016400004E0409FF001EB5AF64F8ACF8093770574
:1016500010937805A2C00E81002309F09EC08093EC
:101660000C089BC00E81002309F097C080931308DB
:101670001093140892C00E81002309F08EC080934D
:10168000190810931A0889C00E81002309F085C03B
:10169000809317081093180880C00E81002309F06A
:1016A0007CC0809315081093160877C00E81002324
:1016B00009F073C080931B0870C00E81002309F0ED
:1016C0006CC0082F0E94E73340E050E06AE774E402
:1016D0000E942035E4E2F8E0008343CF0E8100232E
:1016E00009F05BC0082F0E94E73340E050E06AE752
:1016F00074E40E942035E8E2F8E0EECF0E8100238A
:1017000009F04BC08093300848C00E81002309F0D7
:1017100044C08093470841C00E810023F1F58093B7
:1017200031081093320839C00E810023B1F580933F
:10173000330833C00E81002381F5809334082DC017
:101740000E81002351F5809336081093370825C089
:101750000E81002311F580933808109339081DC0BD
:101760000E810023D1F480933A0810933B0815C0F2
:101770000E81002391F480933C0810933D080DC026
:101780000E81002351F480933E0810933F0805C05A
:101790000E81002311F48093460889919991A991B3
:1017A000B99126960895BA93AA93E7E3F7E00481E6
:1017B000065609F469C0075009F44BC00A9519F0A0
:1017C0000A95A9F17AC00091C509043108F075C0E5
:1017D000A6ECB9E04D915D916D917C9114E0019F73
:1017E000D001AB58B64F4D935D936D937C930091B0
:1017F000C50903950093C5094781508561857285A8
:1018000007E12224079F302D069F202D310D059FD3
:10181000102D210D321D049F002D110D221D321D92
:10182000005E1C4F2E4F3F4FE6ECF9E042C00091A6
:10183000C509002309F441C00A950093C50914E0C5
:10184000019FF001EB58F64F008111812281338115
:10185000EBCF478150856185728507E12224079F80
:10186000302D069F202D310D059F102D210D321D8D
:10187000049F002D110D221D321D005E1C4F2E4FA6
:101880003F4FE6ECF9E015C0359606E010E00E9407
:10189000C5350E943909012B022B032B71F4E6ECAC
:1018A000F9E00081118122813381095E1F4F2F4FA2
:1018B0003F4F0083118322833383A991B991089507
:1018C0005A924A92BA93AA939A938A9307E3402E24
:1018D00007E0502E00913B07063108F0D0C2F0E03F
:1018E000FBBFF2E00F9FF001E053FE4F0790169010
:1018F000F0010994009148070C3161F400913C0714
:101900000A95085030F4E7E3F7E0078110850E945C
:101910000D14B5C2F201359606E010E00E94C535FF
:101920000E943909C80101E1400E00E0501EF20199
:1019300006E010E00E94C5358C019FC2F201359689
:1019400006E010E00E94C5350E943909C801D9019E
:10195000F2013B9606E010E00E94C5350E9439096D
:10196000A80101E1400E00E0501EF20106E010E087
:101970000E94C535840F951F2A1F3B1FDDCFF20142
:10198000359606E010E00E94C5350E943909C8016D
:10199000D901F2013B9606E010E00E94C5350E9495
:1019A0003909A80101E1400E00E0501EF20106E0F5
:1019B00010E00E94C535841B950BA20BB30B8C0164
:1019C0009D015BC2F201359606E010E00E94C5352C
:1019D0000E943909C801D901F2013B9606E010E0E6
:1019E0000E94C5350E943909A801B90101E1400EE4
:1019F00000E0501EF20106E010E00E94C5358C01A7
:101A00009D010E94853339C2F201359606E010E04F
:101A10000E94C5350E943909C801D901F2013B96DF
:101A200006E010E00E94C5350E943909A801B901FD
:101A300001E1400E00E0501EF20106E010E00E94BD
:101A4000C53500E0789F702D699F700D5A9F700D0D
:101A50004B9F700D689F602D710D599F600D711D1A
:101A60004A9F600D711D589F502D610D701F499F39
:101A7000500D611D701F489F510D601F701F002D7C
:101A8000152F9B01FAC1F201359606E010E00E9485
:101A9000C5350E943909C801D901F2013B9606E01B
:101AA00010E00E94C5350E943909A80101E1400EED
:101AB00000E0501EF20106E010E00E94C5358427C8
:101AC00095272A273B2738CFF201359606E010E00C
:101AD0000E94C5350E943909C801D901F2013B961F
:101AE00006E010E00E94C5350E943909A80101E115
:101AF000400E00E0501EF20106E010E00E94C535E5
:101B0000842395232A233B2317CFF201359606E041
:101B100010E00E94C5350E943909C801D901F201BF
:101B20003B9606E010E00E94C5350E943909A801E5
:101B300001E1400E00E0501EF20106E010E00E94BC
:101B4000C535842B952B2A2B3B2BF6CEF2013596EF
:101B500006E010E00E94C5350E943909C801D9018C
:101B6000F2013B9606E010E00E94C5350E9439095B
:101B700001E1400E00E0501EF20106E010E00E947C
:101B8000C53580959095A095B09519CFF201359601
:101B900006E010E00E94C5350E943909C801D9014C
:101BA000F2013B9606E010E00E94C5350E9439091B
:101BB000082F092B0A2B0B2B11F421E001C020E088
:101BC00001E1400E00E0501EF20106E010E00E942C
:101BD000C535022F10E020E030E04FC1F20135960C
:101BE00006E010E00E94C5350E943909C801D901FC
:101BF000F2013B9606E010E00E94C5350E943909CB
:101C0000402F082F092B0A2B0B2BB9F6042F012B81
:101C1000022B032BA1F2D1CFF201359606E010E0A2
:101C20000E94C5350E943909C801D901F2013B96CD
:101C300006E010E00E94C5350E943909402F082FA8
:101C4000092B0A2B0B2B31F0042F012B022B032B1A
:101C500009F0B3CFB4CFF201359606E010E00E9450
:101C6000C5350E943909C801D901F2013B9606E049
:101C700010E00E94C5350E94390980179107A2071C
:101C8000B30709F49ACF9BCFF201359606E010E036
:101C90000E94C5350E943909C801D901F2013B965D
:101CA00006E010E00E94C5350E94390980179107AF
:101CB000A207B30779F281CFF201359606E010E072
:101CC0000E94C5350E943909C801D901F2013B962D
:101CD00006E010E00E94C5350E943909081719076F
:101CE0002A073B070CF469CF6ACFF201359606E06C
:101CF00010E00E94C5350E943909C801D901F201DE
:101D00003B9606E010E00E94C5350E943909801715
:101D10009107A207B307E6CFF201359606E010E07F
:101D20000E94C5350E943909C801D901F2013B96CC
:101D300006E010E00E94C5350E943909801791071E
:101D4000A207B3070CF039CF3ACFF201359606E07F
:101D500010E00E94C5350E943909C801D901F2017D
:101D60003B9606E010E00E94C5350E94390908172D
:101D700019072A073B07E6CFF201359606E010E087
:101D80000E94C5350E943909C801D901F2013B966C
:101D900006E010E00E94C5350E94390901E1400EBD
:101DA00000E0501EF20106E010E00E94C5358F5F92
:101DB0009F4FAF4FBF4F03CEF201359606E010E0C4
:101DC0000E94C5350E943909C801D901F2013B962C
:101DD00006E010E00E94C5350E94390901E1400E7D
:101DE00000E0501EF20106E010E00E94C53581506F
:101DF0009040A040B040E3CDF201359606E010E0FF
:101E00000E94C5350E943909C801D901F2013B96EB
:101E100006E010E00E94C5350E943909402F01E11B
:101E2000400E00E0501EF20106E010E00E94C535B1
:101E30008C019D010E945A3320C0F201359606E0C4
:101E400010E00E94C5350E943909C801D901F2018C
:101E50003B9606E010E00E94C5350E943909402FEC
:101E600001E1400E00E0501EF20106E010E00E9489
:101E7000C5358C019D010E944A330E948B0A8991CD
:101E80009991A991B99149905990089500E016E966
:101E900020E030E00E94B31A07E01AE00093230B21
:101EA0001093240B00E00093070A0093CF0A0FEC75
:101EB0001AE00093F70A1093F80A09EF1AE000936A
:101EC000210B1093220B00E00093F90A0093760790
:101ED000009377070895BA93AA930E94051B0023E5
:101EE00011F1E091230BF091240B0081002391F07C
:101EF0000E940B1BE091230BF091240B00810E94A8
:101F00000D1BE3E2FBE0008111810F5F1F4F008397
:101F1000118309C007E01AE00093230B1093240BF0
:101F200000E00093070A0E94FF1A002309F404C18D
:101F30000E940F1BA1E3B2E0009363021091070A15
:101F4000112309F0F9C0102F185009F48CC01A950C
:101F500009F4CBC01A9509F4EFC0135009F49FC0DF
:101F60001E5021F0145209F49AC0C2C00E94FF1AF8
:101F70000023E1F30E940F1B009363020E94FF1AEB
:101F80000023E1F30E940F1B0093630200915A02A9
:101F9000002309F4D1C02091210B3091220B1AE0CB
:101FA000293F3A40F9F008E00E94111B00E20E942C
:101FB000111B08E00E94111BE1E2FBE0008111818E
:101FC000015010400083118300E0E091210BF0915B
:101FD000220B00832091210B3091220B1AE0293F24
:101FE0003A4009F700916302015419F00A95A1F1F2
:101FF0001AC000916102002339F00091620204309E
:1020000018F4FD01039501AB2091620200E5029FE7
:10201000A00DB11DA059BF4F9D0109EF0E94CA300C
:1020200001E00093610209EF1AE00093210B109385
:10203000220BE091210BF091220B0081002309F487
:102040007BC00E94111BE1E2FBE0008111810F5F68
:102050001F4F00831183EDCF009162020023A1F294
:10206000FD010A95D0CF2091210B3091220B293F01
:102070003A4009F461C000915A02002349F008E097
:102080000E94111B00E20E94111B08E00E94111B1C
:10209000E1E2FBE0008111810150104045C0109148
:1020A0005A02112311F00E94111B00916302E0916A
:1020B000210BF091220B0083E1E2FBE00081118112
:1020C0000F5F1F4F0083118300E0E091210BF0911F
:1020D000220B008334D009EF1AE00093210B1093F8
:1020E000220B00E00093F90A27C000E2009363028C
:1020F0002091210B3091220B20323B40E8F40091DB
:102100005A02002321F0009163020E94111B0091EA
:102110006302E091210BF091220B0083E1E2FBE0EE
:10212000008111810F5F1F4F0083118300E0E09158
:10213000210BF091220B0083A991B99108954A9245
:102140009A938A93E8E7F7E730E03BBF079117914E
:102150002691E1E3F2E0048B158B268B0091F90ABE
:1021600002AB00E003AB4489512F17A503E0109F99
:10217000E00DF11D428F538F248F01E00093600228
:102180008AEF9AE000916302002349F10091630213
:10219000102F1D5041F0135131F01E5021F01C50F2
:1021A00011F0155011F458D013C0E091F70AF091D6
:1021B000F80A0083E7EFFAE0008111810F5F1F4FFB
:1021C0000083118300E0E091F70AF091F80A0083A0
:1021D000FC010191CF01009363020023B9F600E0F6
:1021E0000093620200936102E9EFFAE007C00A304F
:1021F00011F00D3011F400E00083319600810023CE
:10220000B1F725ED31E009EF1AE00E948830002394
:10221000E1F029EF3AE001EA12E00E948830002361
:10222000A1F081EE93E004E0402E9C012055304067
:102230008C010E94CA30805590404A94B1F729EF32
:102240003AE001EA12E00E94CA3000E000934E0733
:102250008991999149900895BA93AA930FEC1AE045
:102260000E947A300FEC1AE0B2D1A1E3B2E0009103
:1022700063020D5009F4B2C0035141F00E5031F029
:102280000C5021F0055009F471C146C00091CF0AED
:10229000002391F441C000E0FD01048B058B068B07
:1022A00026EE31E007E01AE00E94972C2BE532E0A1
:1022B00007E01AE00E94972CFD0144895589668940
:1022C000042F052B062B41F1FA0176966BBF069180
:1022D000002309F05DC02FEC3AE08A010E949B3098
:1022E0000023D9F5FD01248935890EE417E00E9409
:1022F000B0305496ED91FD913C9156977C963BBF42
:102300000791179126913797402F412B422B81F04F
:10231000FD01048B158B268B00E00093CF0A0FEC98
:102320001AE00093F70A1093F80AA991B991089559
:102330003BBF0791169120E00030120741F0F801F1
:1023400009952BE532E007E01AE00E94972C00E0A7
:10235000FD01048B058B068BDFCF5496ED91FD912B
:102360003C9156977F963BBF079117912691302F4E
:10237000312B322B29F0FD01048B158B268B9CCF42
:1023800000E0FD01048B058B068B26ED31E08ACF42
:1023900040E020E030E00FEC1AE00E94122D409166
:1023A000640254E0459FFD01E00DF11D008311839F
:1023B00022833383FD0103A9039503AB5496ED916A
:1023C000FD913C9156977C963BBF079117912691C2
:1023D000302F312B322B09F45ECF9ACF25ED31E02F
:1023E0000FEC1AE00E942636012B59F49A969D01B3
:1023F00007E01AE00E94972C8FCFFD01048B158B0C
:10240000268BFD01448955896689042F052B062BEF
:1024100009F482CFFA0176966BBF0691002309F08A
:102420008CC02FEC3AE08A010E949B30002309F017
:1024300069C0FD01248935890EE417E00E94B0309F
:102440005496ED91FD913C9156977C963BBF079138
:10245000179126913797012B022B09F442C025EFE3
:1024600031E007E01AE00E94972C2EE437E007E005
:102470001AE00E94972C29EF31E007E01AE00E9451
:10248000972C5496ED91FD913C9156977C963BBFCD
:10249000079117912691FD01078B108F218F012B3A
:1024A000022BF1F022E132E007E01AE00E94972CC3
:1024B000FD012789308D07E01AE00E94A01A579687
:1024C000ED91FD913C9159977C963BBF07911791F7
:1024D0002691FD01078B108F218F012B022B11F705
:1024E00030CF3BBF0791F691E02F099500E0FD0149
:1024F000048B058B068B2BE532E007E01AE00E9487
:10250000972C7FCF5496ED91FD913C9156977F96F5
:102510003BBF079117912691302F312B322B09F0B9
:102520006CCF00E0FD01048B058B068B26EE31E0BD
:1025300007E01AE00E94972C59CF40E020E030E0FD
:102540000FEC1AE00E94122D4091640254E0459F66
:10255000FD01E00DF11D0083118322833383549626
:10256000ED91FD913C9156977796E2CE28E132E0CD
:1025700007E01AE00E94972CFD010489158926893D
:10258000078B108F218F202B212B09F42FCF22E1D5
:1025900032E007E01AE00E94972CFD012789308D78
:1025A00007E01AE00E94A01A5796ED91FD913C9128
:1025B00059977F963BBF079117912691FD01078B95
:1025C000108F218F012B022B09F410CFE0CF5A92EC
:1025D0004A92BA93AA939A938A93C8015524A1E385
:1025E000B2E0FD01048915892689078B108F218FA0
:1025F00025ED31E08C010E948830002309F44EC0A3
:102600008C010E94D730402EFD010789108D218D4D
:10261000012B022B09F442C034E120E005E612E070
:102620000E94EA3034E120E00DE812E00E94EA3036
:10263000FD012789308D0DE812E00E94A01A442D7B
:102640002DE832E005E612E00E94F2309C0105E63A
:1026500012E00E948830002341F45394FD01278941
:10266000308D09E712E00E94A01AFD010789108D44
:10267000318DF8017F963BBF079117912691FD019F
:10268000078B108F218F012B022B31F601E05016A2
:1026900029F429E732E08C010E94CA30899199918E
:1026A000A991B9914990599008950091070A002382
:1026B00029F011DC0091070A0023D9F7089501E001
:1026C00000935A020DE000935B02089500E000932E
:1026D0005A0200935B0208952FEFF80120832183B3
:1026E0000895F801008111810095109500831183F0
:1026F00008950D01BC01FA01422F432BD1F0D801FE
:10270000C9010D912081318120272083318328E068
:102710004081518156954795008100FF04C008E033
:1027200014E840275127408351832A9589F7019760
:1027300041F7CB01D0010895AD010091CF070023EF
:1027400009F060C00091D007002391F1E1E3F4E0CB
:102750000091D6071091D7072091D80732E0239F28
:10276000D001A156B84F2D913C910217130700815B
:1027700074F40023E9F401810395018305E00083EB
:1027800001810530A8F005E0018300E00FC00023BF
:1027900079F40181002311F00A95018305E000839B
:1027A0000181002329F405E0018301E00093CE07B5
:1027B0000091D107002331F101E00093CE07109181
:1027C000CC070091D307011740F40091D5071017EB
:1027D00060F400E00093CE0708C0101731F40091B8
:1027E000CB072091D2070217A0F70091D507101749
:1027F00049F40091CB071091D407011718F400E0B9
:102800000093CE07DA01089597CF44E250E020E02C
:1028100030E008EE17E00C94DD35AA939A93182E59
:10282000180188EA97E0A3E09C01255A3F4FBC01BC
:102830006E5A7F4F8901FB0149E050E00E94BA3592
:102840000997AA9589F72092E8073092E9070AEEDE
:1028500017E0E0E8F7E047E00E94BA3503E00093B4
:102860008905812D9991A9910895E1E3F2E0008114
:10287000118122813381012B022B032B31F404813E
:10288000158100933108109332080895BA93AA93E2
:102890002297E1E3F2E00081118122813381012B53
:1028A000022B032B09F024C24EE559E760E007E054
:1028B0001AE00E94D32C4EE85BE760E007E01AE0E4
:1028C0000E94D32CE1E3F2E02081318107E1039FF4
:1028D000102D029F110DE02DF12FEA5BF74F0081C3
:1028E000002321F446EB5BE760E003C04EED5BE7BD
:1028F00060E007E01AE00E94D32C4EEE5AE760E059
:1029000007E01AE00E94D32C21E338E0E1E3F2E093
:102910004081518107E1059F102D049F110D200D6D
:10292000311F07E01AE00E94D62F46E55CE760E021
:1029300007E01AE00E94D32C41E027E438E0E1E30D
:10294000F2E06081718107E1079F102D069F110D54
:10295000200D311F07E01AE00E94622E23E334E0CD
:1029600007E01AE00E94972C2FE937E0E1E3F2E05C
:102970004081518107E1059F102D049F110DE02D2D
:10298000F12FE95BF74F008112E0019F200D311D0F
:1029900007E01AE00E94D62FE1E3F8E0A1E3B2E0FD
:1029A0000D911D91202F07E1019F102D029F110D08
:1029B000E00DF11F068912E0019FD001A156B84F2A
:1029C0000D911C9120813181021B130B0883198307
:1029D00032F40881119501951040088319834EE760
:1029E0005CE760E007E01AE00E94D32C9E0107E05C
:1029F0001AE00E94D62F46E859E760E007E01AE0A7
:102A00000E94D32CE1E3F2E02081318107E1039FB2
:102A1000102D029F110DE02DF12FED5CF74F00817D
:102A2000002321F446E75AE760E003C04EE95AE785
:102A300060E007E01AE00E94D32C4EEA59E760E01C
:102A400007E01AE00E94D32C40E024E338E0E1E301
:102A5000F2E06081718107E1079F102D069F110D43
:102A6000200D311F07E01AE00E94622E46ED59E763
:102A700060E007E01AE00E94D32CE1E3F2E020815D
:102A8000318107E1039F102D029F110DE02DF12FE1
:102A9000EB5CF74F0081002339F44EE45AE760E025
:102AA00007E01AE00E94D32CE1E3F2E020813181BB
:102AB00007E1039F102D029F110DE02DF12FEB5C1C
:102AC000F74F0081013039F44EEF59E760E007E03D
:102AD0001AE00E94D32CE1E3F2E02081318107E18A
:102AE000039F102D029F110DE02DF12FEB5CF74F8E
:102AF0000081023039F446E25AE760E007E01AE06C
:102B00000E94D32C4EE757E760E007E01AE00E94EE
:102B1000D32C46EF57E760E007E01AE00E94D32C81
:102B200026E338E0E1E3F2E04081518107E1059FCF
:102B3000102D049F110D200D311F07E01AE00E9497
:102B4000D62F4EE158E760E007E01AE00E94D32C50
:102B500028E338E0E1E3F2E04081518107E1059F9D
:102B6000102D049F110D200D311F07E01AE00E9467
:102B7000D62F46E458E760E007E01AE00E94D32C25
:102B80002AE338E0E1E3F2E04081518107E1059F6B
:102B9000102D049F110D200D311F07E01AE00E9437
:102BA000D62F4EE658E760E007E01AE00E94D32CEB
:102BB0002CE338E0E1E3F2E04081518107E1059F39
:102BC000102D049F110D200D311F07E01AE00E9407
:102BD000D62F4EEB58E760E007E01AE00E94D32CB6
:102BE00040E02EE338E0E1E3F2E06081718107E14B
:102BF000079F102D069F110D200D311F07E01AE0D1
:102C00000E94AF2D46EE58E760E007E01AE00E9410
:102C1000D32C40E020E438E0E1E3F2E06081718110
:102C200007E1079F102D069F110D200D311F07E0B2
:102C30001AE00E94AF2D4EE35BE760E007E01AE088
:102C40000E94D32C40E022E438E0E1E3F2E060812E
:102C5000718107E1079F102D069F110D200D311F77
:102C600007E01AE00E94AF2D46E65BE760E007E070
:102C70001AE00E94D32C24E438E0E1E3F2E0408142
:102C8000518107E1059F102D049F110D200D311F6B
:102C900007E01AE00E94D62F46E05CE760E007E01C
:102CA0001AE00E94D32C40E02EE737E0E1E3F2E0A7
:102CB00000801180000C111C200D311D07E01AE06E
:102CC0000E94622E4EE25CE760E007E01AE00E949C
:102CD000D32C40E02FE737E0E1E3F2E00080118001
:102CE000000C111C200D311D07E01AE00E94622E1D
:102CF0002296A991B99108951D0140E0602F70E0DE
:102D000004E318E027E1269F000D111D20913408EF
:102D1000222339F4F8012285E62FF0E0E858F84F35
:102D20002383F8012081222361F02A9529F02A9536
:102D300029F02A9529F005C041E003C042E001C016
:102D400044E09B01220F331FE8E7F7E0E20FF31F97
:102D500056815417A1F028E737E0260F371F552377
:102D600039F4D90113965C91552349F4468301C087
:102D70007683D8011A960D91D90113960C9306818A
:102D80000093FF0870930009D1010895BA93AA93A4
:102D90009A938A93E8E7F7E000917B0510917C0510
:102DA000012B51F000913E080383009140080483F9
:102DB00000914208058395C00091470812E0019FE9
:102DC000D001A156B84F0D911C912091310830913E
:102DD0003208021B130B013020E012071CF0318176
:102DE00033233AF0112332F4808191818130904075
:102DF0000CF021E02283008311839801E091CE073B
:102E000011234AF41195019510409801EE2329F4FD
:102E100020E030E002C0E130D9F300914608002301
:102E200009F05FC000913308002309F058C00091F9
:102E30003408002339F00A9591F00A95D9F00A95E3
:102E400051F13FC0409136085091370860913808E1
:102E50007091390820903A0830903B0832C0409178
:102E600036085091370800913C0810913D08401BEE
:102E7000510BECCF00913C0810913D084091360871
:102E800050913708401B510B6091380870913908F8
:102E9000601B710BDFCF00913C0810913D08409101
:102EA000360850913708401B510B609138087091DB
:102EB0003908601B710B20903A0830903B08201AAB
:102EC000310A00E0241735078CF02617370774F411
:102ED00001E0221533050CF003E00093340800E014
:102EE0000BDF89919991A991B99108952617370718
:102EF00084F3221533056CF702E0EFCF219700E051
:102F000008832AE334E007E01AE00E94972C0EE8D9
:102F1000088341E050E09E010AE04CD00AE00883BB
:102F200041E050E09E0109E045D00AE1088341E01C
:102F300050E09E010BE03ED041E050E09E0101E0F8
:102F400046D008810F73088341E050E09E0101E004
:102F50000DC0219741E050E09E010BE038D0088180
:102F6000077E088341E050E09E010BE023D02196CC
:102F70000895219741E050E09E010BE028D00881A0
:102F80000861EFCF1093870700938807642FA9018A
:102F900012E027E837E002EA0C94CE1B1093870773
:102FA00000938807642FA90112E027E837E002EABE
:102FB0000C943E1C0093870700E000938807642F61
:102FC000A90111E027E837E002ED0C94CE1B009335
:102FD000870700E000938807642FA90111E027E824
:102FE00037E002ED0C943E1CAA939A938A9324979F
:102FF000902FA12F822F4AE00E940433102F1295A8
:10300000107F2AE0029F092F0019912F902B4AE090
:103010000A2F0E940433102F1295107F029F0A2F4F
:103020000019A12FA02B4AE0082F0E940433102F73
:103030001295107F029F8019182B1983AA839B83F6
:1030400002E0088341E050E09E0100E0B3DF43E08E
:1030500050E09E012F5F3F4F02E0ACDF00E00883AD
:1030600041E050E09E01A6DF249689919991A991B3
:103070000895BA93AA939A938A932597802FB12F94
:10308000922FA32F043608F080E01D3008F0B0E046
:10309000203208F090E0383008F0A0E04AE0082F35
:1030A0000E940433102F1295107F2AE0029F082FF0
:1030B0000019812F802B4AE00B2F0E940433102F20
:1030C0001295107F029F0B2F0019B12FB02B4AE0F1
:1030D000092F0E940433A983102F1295107F029F9D
:1030E0009019192B1A83BB838C8302E0088341E07B
:1030F00050E09E0100E05EDF44E050E09E012F5F63
:103100003F4F05E057DF00E0088341E050E09E01BB
:1031100051DF259689919991A991B99108952197A7
:1031200001E0088341E050E09E0100E043DF47E01A
:1031300050E020E837E002E04ADF00E0088341E0A9
:1031400050E09E0137DF1091800712951F700AE052
:10315000109F009180070F70000E00928007009171
:103160008107202F22952F701AE0219F0F70000EEB
:103170000092810700918207202F22952F70219FB6
:103180000F70000E0092820700918307202F229576
:103190002F70219F0F70000E00928307009184070B
:1031A000202F22952F70219F0F70000E0092840710
:1031B00000918507202F22952F70219F0F70000E00
:1031C0000092850700918607202F22952F70219F5E
:1031D0000F70000E0092860707EC17E0E0E8F7E0BA
:1031E00047E050E00E94BA3521960895219700915A
:1031F0006F0510917005012B69F408EE13E0009340
:103200006F05109370050AE0088341E050E09E01CD
:1032100009E0D0DE219608955A924A92BA93AA9371
:103220009A938A932797002339F00A9509F449C0A5
:103230000A9509F47FC039C029010BEB10E00B831C
:103240001C831D831E838E010F5F1F4F0E946C1312
:1032500080E090E0A0E0B0E00B811C812D813E81F8
:10326000012B022B032BE1F041E050E09E01820193
:10327000080F191F93DEAE014F5F5F4F21E030E072
:103280008E010E9479138F5F9F4FAF4FBF4F0B810D
:103290001C812D813E8180179107A207B30720F37F
:1032A0008E010F5F1F4F0E94711309811A8120E068
:1032B00030E0279689919991A991B99149905990B7
:1032C00008950EE710E00B831C831D831E838E017F
:1032D0000F5F1F4F0E946C1380E090E0A0E0B0E011
:1032E0000B811C812D813E81012B022B032BC1F20E
:1032F00061E070E0AE018C019D01005011422E4F43
:103300003F4F0E94901AAE014F5F5F4F21E030E0C7
:103310008E010E9479138F5F9F4FAF4FBF4F0B817C
:103320001C812D813E8180179107A207B30708F009
:10333000B7CFDECF64E070E0AE014D5F5F4F08E7CE
:103340001FED21E030E00E94901A8E010F5F1F4FA9
:103350000E946C1380E090E0A0E0B0E00B811C8143
:103360002D813E81012B022B032B09F499CF61E0C3
:1033700070E0AE018C019D01005010402F4F3F4F77
:103380000E94901AAE014F5F5F4F21E030E08E0146
:103390000E9479138F5F9F4FAF4FBF4F0B811C81EE
:1033A0002D813E8180179107A207B30708F078CFDF
:1033B000DECF949A08959498089540E050E0005626
:1033C000194020403040C1F10056194020403040A3
:1033D00089F1005C12412040304051F1005C124103
:1033E0002040304019F1005C124120403040E1F0B3
:1033F0000058154220403040A9F0005815422040A6
:10340000304071F000501B442040304039F00050F3
:10341000114E2040304091F445E010C04BE00EC00A
:1034200041E10CC047E10AC043E208C04FE206C0D8
:1034300047E404C04FE802C04FE151E08C9A9498F1
:10344000509398004093990008E900939A000EE089
:1034500000939D0000E200939C0008959A938A9344
:10346000FA93EA933A922A921A920A927A936A9378
:103470005A934A933A932A931A930A938FB79BB716
:103480000E9441059BBF8FBF0991199129913991E4
:1034900049915991699179910990199029903990A0
:1034A000E991F99189919991189500939C0008955B
:1034B00000919C00089500919B0006FF02C001E06E
:1034C000089500E0089500919B00006400939B0024
:1034D000089500E00FBD09E00EBD00E000937A0002
:1034E00003E31BE21BBD0ABD00E00DBD0CBD07B729
:1034F000006107BF08959A938A93FA93EA933A92E8
:103500002A921A920A927A936A935A934A933A9316
:103510002A931A930A938FB79BB70E94FD30B2CFBC
:103520001D010C01DA01462F472B39F0F801CB01C0
:103530002BBF07910D930197D9F7C001D1010895D1
:10354000AD01F90130E03BBF2691222341F02691E5
:10355000D8012D938D01319626912223C1F7F801D0
:103560003083DA01089540E050E0005619402040D1
:103570003040C1F1005619402040304089F1005CD4
:1035800012412040304051F1005C12412040304057
:1035900019F1005C124120403040E1F00058154222
:1035A00020403040A9F0005815422040304071F0D2
:1035B00000501B442040304039F00050114E204054
:1035C000304091F445E010C04BE00EC041E10CC02A
:1035D00047E10AC043E208C04FE206C047E404C026
:1035E0004FE802C04FE151E05093900049B908E123
:1035F0000AB90EE00093950000E20CB908955F9BB4
:1036000002C001E0089500E008955E9B02C001E061
:10361000089500E008955E9A08950CB908950CB1DC
:1036200008950093070A00E00093080A0C945513CC
:1036300001E005BF00E005BF08E101BD00E001BDFC
:10364000009374001F98179A089508E101BD08E0DF
:1036500001BDFFCF0E94F618A8950895AF98089570
:10366000AF9A08951F9A08951F9808957894089521
:10367000DF9AD79A07B3076007BBBB9808B3017FEF
:1036800008BBC09A0BB30F780BBB0AB300670ABB29
:1036900002E50DB9089510E0202F002349F02A9586
:1036A00039F02A9529F02A9541F02A9541F001C078
:1036B000102F10FB26F4DE9A03C015E0FACFDE9837
:1036C00001FB16F4DD9A01C0DD9802FB16F4DC9ACA
:1036D0000895DC9808952397F8940FB10FB1DF98FF
:1036E00000E00FB9779BFECF0FB1088300E00FB960
:1036F000779BFECF0FB10983588140E020E030E096
:10370000E2EEF6E00083518322832383152F169582
:103710000795DF9A78941F700093B3061093B40650
:103720000E94F23350EF6FE775E40E94203540E0CD
:1037300050E46CE176E40E94A7340E94F4330093D5
:10374000B1061093B20623960895209171002E7F42
:1037500020937100209171002D7F20937100A801AA
:1037600003E31BE20E941E33003138F010E00051E9
:10377000104042E050E00E943633009370000895FC
:1037800001C0A8950091740007FFFBCF089500E9E0
:1037900011E0DBDF04E00093740008958A927A92CE
:1037A0006A925A924A92BA93AA939A938A93602EF3
:1037B0002901712EDA01862E81E090E000917400DB
:1037C0000E7F00937400009174000F70006A0093E4
:1037D0007400D6DF0EEF60226092730000917400D7
:1037E0000F70006800937400CBDF00917100087FB8
:1037F000083119F08EE39EEF2CC0072D7A94002338
:1038000021F1F20101912F010093730000917400E6
:103810000F70006800937400B3DF00917100087F9F
:10382000083259F38DE3E7CFFD010191DF010093E9
:103830007300009174000F70006800937400A0DFA3
:1038400000917100087F083269F7082D8A940023DF
:1038500059F7009174000F70006D0093740000918F
:10386000740004FDFCCF8C0189919991A991B991C3
:103870004990599069907990899008958A927A92A6
:103880006A925A924A92BA93AA939A938A93602E12
:103890002901812EDA01762E81E090E000917400FA
:1038A0000E7F00937400009174000F70006A009303
:1038B000740066DF882089F1062D0E7F0093730067
:1038C000009174000F7000680093740059DF00913C
:1038D0007100087F083119F08EE39EEF45C0082D76
:1038E0008A94002399F0F20101912F010093730053
:1038F000009174000F7000680093740041DF009124
:103900007100087F083259F38CE3E7CF009174000F
:103910000F70006A0093740033DF682A60927300AE
:10392000009174000F7000680093740029DF00910B
:103930007100087F003411F08EE39EEF7720A1F034
:103940007A942091740011F000E401C000E02F701F
:10395000022B00680093740013DF00917300FD01D7
:103960000193DF01772061F7009174000F70006D03
:10397000009374000091740004FDFCCF74CFBA93DF
:10398000AA93ADE8B7E04EE250E020E030E08D01D0
:103990000E94DD3508E000938D0700938E0705E057
:1039A00000938F0703E00093900705B3007C05BBED
:1039B00004B3007C04BB00916500097F009365009F
:1039C00000916400097F0093640008B30E7008BB87
:1039D00007B3016F07BB00916500077E0093650088
:1039E000009164000861009364001A98129A03B170
:1039F000077C03B902B1086302B9AF98A79A00E047
:103A000010E000938900009388000FEF00938B0073
:103A100001E000938A0010938C00109387001093AC
:103A200086001093850010938400109383001093F8
:103A300082001C961D931D931D931D931D931C9333
:103A4000A991B99108955A92342C2A2EBC01EDE81F
:103A5000F7E0008500FF04C000916500006103C02D
:103A6000009165000F7E00936500008501FF02C094
:103A7000C59A01C0C598008502FF02C0C69A01C060
:103A8000C698008503FF02C0C79A01C0C798008589
:103A900004FF04C000916500086003C00091650048
:103AA000077F00936500008505FF02C01A9A01C0D8
:103AB0001A98008506FF02C0C09A01C0C098008510
:103AC00007FF02C0C49A01C0C49804819D9B02C034
:103AD0000E7F01C00160048304819C9B02C00D7FA6
:103AE00001C00260048304819B9B02C00B7F01C064
:103AF0000460048304819A9B02C0077F01C00860B0
:103B000004830481999B02C00F7E01C0006104837D
:103B10000481989B02C00F7D01C000620483009164
:103B2000630001FF03C004810F7B02C004810064B5
:103B300004830091630002FF03C004810F7702C079
:103B4000048100680483A0E0CF01FC010485158591
:103B500028019801043F01E0300798F404EF11E0D8
:103B6000021B130B000F111F44E650E00E941E338E
:103B70004016510618F4442455240EC0401A510A28
:103B80000BC0245F3140220F331F890144E650E00F
:103B90000E941E33400E511E0A2FAA2329F00A95B7
:103BA00061F00A9599F01AC00FEF13E00419150996
:103BB000109387000093860011C00FEF13E00419E3
:103BC0001509109385000093840008C00FEF13E0DF
:103BD000041915091093830000938200A39502969F
:103BE000A33008F4B2CFCB01A22D432C59900895F5
:103BF0000895089500E030E0EDE8F7E000870187E0
:103C00000287038723E00487058732962A95D9F730
:103C100000931508009316080093220800932308C8
:103C200000932008009321080091D6071091D70730
:103C3000045D1E4F0935124020F03093D6073093B3
:103C4000D7073093DD070895BA93AA934DE250E069
:103C500020E030E00BEB17E00E94DD3544E250E05D
:103C600020E030E008EE17E00E94DD3508E0009328
:103C70008D0700938E0705E000938F0703E0009304
:103C80009007E1E9F7E023E008E813E1028B138BEA
:103C900032962A95C9F745E250E020E030E00CE08A
:103CA00018E00E94DD3500E000930C0804E610E007
:103CB000EDE0F8E00083118304EF11E0E1E1F8E0CA
:103CC0000083118302E310E0EFE0F8E0008311834A
:103CD00008ECE3E1F8E000831183E7E1F8E010830A
:103CE0001183E5E1F8E01083118308EE13E0E9E1C8
:103CF000F8E00083118301E002830EE110E0ECE1C3
:103D0000F8E0008311830BE9EEE1F8E00083118312
:103D100014831583E0E2F8E0108311830AE017EDC5
:103D200023E23CE3E4E2F8E000831183228333835F
:103D300023EA3DE3E8E2F8E0008311832283338342
:103D400003E210E0ECE2F8E0008311830EE511E0FD
:103D5000EEE2F8E00083118300E002831093C507D0
:103D600042E050E020E030E00BEB17E00E94DD3550
:103D700009E00093C00708E00093C10701E0009349
:103D8000C20702E00093C30705E00093C40701E007
:103D90000093C60700E00093DD0741E050E020E01B
:103DA00030E00EED17E00E94DD3544E050E020E009
:103DB00030E00FED17E00E94DD3541E050E020E0FB
:103DC00030E003EE17E00E94DD3544E050E020E0F3
:103DD00030E004EE17E00E94DD350CED10E0E1E389
:103DE000F8E000831183128301E00383148305E06C
:103DF000E6E3F8E0008311830AE0E8E3F8E00083FB
:103E0000118304E1EAE3F8E00083118302E0ECE3CC
:103E1000F8E00083118301E0EEE3F8E00083118312
:103E200006E9E0E4F8E000831183E2E4F8E00083CF
:103E3000118305E0A4E4B8E00D931C93148301E022
:103E40000583A991B99108959A938A93C8010E9414
:103E5000A9174BEB50E02DE837E08C010E94C21708
:103E60009C0100E00E940C190093890710938A07B7
:103E700042E050E029E837E085549F4F8C010E94D2
:103E8000C2170E94B9178991999108958A93229730
:103E9000EEECFCE730E03BBF0791169108831983F5
:103EA00022E030E000E00E940C190093250B1093F3
:103EB000260B42E050E029E837E00DEB10E00E94CD
:103EC000CE170091890710918A072091250B309118
:103ED000260B0217130711F401E0088320E031E0FC
:103EE00000E00E940C190093250B1093260B42E072
:103EF00050E029E837E00BEB11E00E94CE1700916B
:103F0000890710918A072091250B3091260B021703
:103F1000130711F401E00983898108810130E9F474
:103F200040ED5CE760E007E01AE00E94D32C4BEB29
:103F300050E02DE837E002E010E00E94CE17882321
:103F400009F047C000E011E07FDF40E75DE760E097
:103F500007E01AE00E94D32C3CC08130D1F440ED40
:103F60005CE760E007E01AE00E94D32C4BEB50E0E6
:103F70002DE837E000E011E00E94CE1740E25DE757
:103F800060E007E01AE00E94D32C02E010E05CDF62
:103F900020C04BEB50E02DE837E000E011E00E943C
:103FA000CE1740E15EE760E007E01AE00E94D32C04
:103FB00040E65EE760E007E01AE00E94D32C4BEB9E
:103FC00050E02DE837E002E010E00E94CE173CDE22
:103FD00004D010DE22968991089502E010E034DFCB
:103FE00000E011E031CF64E070E049E458E007E61A
:103FF0001EED21E030E00E94901A41E050E028E4FC
:1040000038E001E10E94E71725E534E007E01AE017
:104010000E94972C40E028E438E007E01AE00E9474
:10402000622E00914808003218F000E00093480822
:10403000089541E050E028E438E001E10C94DA17FB
:104040000E94181B0E94691A0E94460F0E942105B7
:104050000E9435070E94B1200E94BF1C0E94F81DDB
:104060000E94C71B0E942A1B0E944F080E94B42076
:104070000E9405140C94361BE3DF40EC5DE760E022
:1040800007E01AE00E94D32C40EB5EE760E007E017
:104090001AE00E94D32C67E670E047E05AE000E0A7
:1040A0001EED21E030E00E94901AF0DE9CDF0E94BD
:1040B000F91D0E94922B0E94630801E000938C0777
:1040C0002CE534E007E01AE00E94972C00ED17E0A1
:1040D00000937B0510937C050E942A1B00917505B7
:1040E00010917605012BB1F408EE13E000937505ED
:1040F000109376050AEF10E0009383051093840572
:104100000E948F1807EC17E0E0E8F7E047E050E086
:104110000E94BA350E947F080E94041400917D0518
:1041200010917E05012B41F404E610E000937D051B
:1041300010937E050E94D0070E94231D0E946B0FE2
:104140000E94B3200E94C61600918B07002321F223
:1041500000918905002301F640DF00E000938B0702
:10416000BBCF08950895089500E000930C080CED6E
:1041700010E000931308109314080CE300931C083C
:1041800010931D0807EE13E00093190810931A0806
:1041900000E010E0009317080093180806E9009368
:1041A0001E0810931F0810932008109321081093E5
:1041B00022081093230804E600930D0810930E08BC
:1041C00000930F081093100804EF11E000931108FA
:1041D0001093120800E000931B08EDEDF9E0048352
:1041E000058306830783008701870287038706A369
:1041F00007A304870587068707870895FA92EA923E
:10420000DA92CA929A928A927A926A925A924A92CE
:10421000BA93AA939A938A930091DD07013009F427
:10422000D4C10DED802E09E0902E00911B080130C5
:1042300019F0033009F0A0C180911308909114087F
:1042400000910C0812E0019FF001E357F84F02893A
:104250001389801B910B00913008013019F491955E
:10426000819590408C01292F220F220B322F0E9422
:10427000E7332801390100910D0810910E08212F14
:10428000220F220B322F0E94E733A201B3010E94BA
:10429000A73440E050E068EC72E40E942035F4015D
:1042A000008B118B228B338B26A137A18C01021B33
:1042B000130B212F220F220B322F0E94E7332801EC
:1042C0003901EDED008F118F228F338F86A397A3D5
:1042D000048515852685378540E050E06CE772E45B
:1042E0000E94A734C801D901009111081091120849
:1042F000212F220F220B322F0E94E733A201B3019C
:104300000E94A734AC01BD010E94463440E050E059
:1043100060E87CE30E94A734F401048715872687B0
:104320003787008F118F228F338F41E050E06AEF83
:1043300076E40E94B23528F040E076EC0E949A358F
:1043400030F4EDEDF9E0508F518F628F738FEDED0A
:10435000F9E0C08CD18CE28CF38C860197010E942D
:10436000F433EDED048F158F20E030E020832183BE
:104370002283238300911C0810911D080E94F233B0
:10438000A801B90100E010E020E030E00E942035F3
:10439000C801D90100910F0810911008212F220F98
:1043A000220B322F0E94E733AC01BD010E94A734DB
:1043B00040E050E068EC72E40E94203528013901A9
:1043C000EDEDF9E0048B158B268B378B40E050E048
:1043D00060E271E400891189228933890E94A7343F
:1043E0000E94F433C801EDEDF9E002A313A340E00D
:1043F00050E060E271E4820193010E94A7340E94C0
:10440000F433D801EDEDF9E000A311A340E050E052
:1044100060E271E4860197010E94A7340E94F433A0
:10442000EDEDF9E004A315A38A0F9B1F080F191FD8
:10443000212F220F220B322F0E94E733C801D9010E
:1044400040E050E060E070E00E949A3528013901B8
:1044500010F400E8702600912C0810912D0820E03F
:1044600030E00E94F233A801B901820193010E9459
:104470009A3528F480E090E0A0E0B0E039C00091E7
:104480002E0810912F0820E030E00E94F233A8019E
:10449000B901820193010E949A3518F4E4E2F8E030
:1044A00002C0E8E2F8E00080118022803380EDED68
:1044B000F9E0448055806680778041E050E060E01C
:1044C00070E03B2F0E94B23538F4A201B3018001A5
:1044D00091010E94463406C0A001B10182019301FE
:1044E0000E948A34EDEDF9E0048315832683378337
:1044F0008C019D010E94F433EDEDF9E0068F178FDA
:1045000084819581A681B7818C019D010E94F4333D
:104510002801212F220F220B322F0E94E733A801FE
:10452000B9018C019D010E948A34EDEDF9E004830C
:10453000158326833783E5E1F8E000811181040DBE
:10454000151D00831183083E23E013401CF007EE85
:10455000008321830281138120813181201731075B
:1045600014F40083118304811581208131810217A5
:10457000130714F400831183209115083091160855
:104580000091200810912108201B310B89011AF499
:10459000119501951040023040E0104094F0022F38
:1045A000032B79F02130340724F001E00093220836
:1045B00002C040932208332332F401E00093230821
:1045C00004C0409322084093230889919991A991AE
:1045D000B991499059906990799089909990C99032
:1045E000D990E990F9900895E1E3F2E0008111811A
:1045F00022813381012B022B032B31F4048115819D
:1046000000931308109314080895E1E3F2E0008189
:10461000118122813381012B022B032B19F4048198
:1046200000931B080895E1E3F2E0008111812281EB
:104630003381012B022B032B31F40481158100936C
:104640001708109318080895E1E3F2E00081118142
:1046500022813381012B022B032B31F4048115813C
:104660000093190810931A080895E1E3F2E000811D
:10467000118122813381012B022B032B31F4048120
:10468000158100931508109316080895E1E3F2E0F0
:104690000081118122813381012B022B032B31F404
:1046A0000481158100931108109312080895E1E325
:1046B000F2E00081118122813381012B022B032B37
:1046C00031F40481158100930F08109310080895A8
:1046D000E1E3F2E00081118122813381012B022B81
:1046E000032B31F40481158100930D0810930E08FB
:1046F0000895E1E3F2E00081118122813381012BF1
:10470000022B032B19F4048100930C080895E1E3B4
:10471000F2E00081118122813381012B022B032BD6
:1047200091F404811581268137810E94F23340E0A3
:1047300050E06AE774E40E942035E4E2F8E0008388
:104740001183228333830895E1E3F2E00081118134
:1047500022813381012B022B032B91F404811581DB
:10476000268137810E94F23340E050E06AE774E42A
:104770000E942035E8E2F8E000831183228333832E
:104780000895E1E3F2E00081118122813381012B60
:10479000022B032B31F40481158100932C08109314
:1047A0002D080895E1E3F2E0008111812281338137
:1047B000012B022B032B31F40481158100932E0869
:1047C00010932F080895E1E3F2E000811181228126
:1047D0003381012B022B032B19F404810093300841
:1047E00008955A924A92BA93AA939A938A932297D7
:1047F000402E4AEA54E860E007E01AE00E94D32C19
:104800004AE85BE860E007E01AE00E94D32C5524F8
:1048100005E2049D8DE897E0800D911DDC01A15813
:10482000BF4F2FE937E00C9112E0019F200D311DA1
:1048300007E01AE00E94D62F4AEF54E860E007E054
:104840001AE00E94D32C9C012A573F4F07E01AE040
:104850000E94D62F4AE455E860E007E01AE00E9483
:10486000D32CFD010785002339F00A9541F00A9504
:1048700061F00A9539F00FC024E634E008C02DE657
:1048800034E005C025E734E002C02DE734E007E05E
:104890001AE00E94972C4AE955E860E007E01AE028
:1048A0000E94D32C41E09D0107E01AE00E94622E95
:1048B00027E834E007E01AE00E94972C4AEE55E81A
:1048C00060E007E01AE00E94D32C9C0120583F4F83
:1048D00007E01AE00E94192E4AE856E860E007E077
:1048E0001AE00E94D32C9C012E573F4F07E01AE09C
:1048F0000E94192E4AE356E860E007E01AE00E94A1
:10490000D32C9C012C573F4F07E01AE00E94192E30
:104910004AED56E860E007E01AE00E94D32C40E040
:104920009C0121573F4F07E01AE00E94AF2D4AE05B
:1049300059E860E007E01AE00E94D32C9C0126575A
:104940003F4F07E01AE00E9428304AE559E860E04E
:1049500007E01AE00E94D32C9C0124573F4F07E048
:104960001AE00E9428304AEA59E860E007E01AE0BD
:104970000E94D32C9C0128573F4F07E01AE00E9469
:1049800028304AE45AE860E007E01AE00E94D32C9D
:1049900040E09C012F563F4F07E01AE00E94AF2DE8
:1049A0004AE95AE860E007E01AE00E94D32C9C0133
:1049B0002D563F4F07E01AE00E9428304AEE5AE891
:1049C00060E007E01AE00E94D32C40E09C012B56E7
:1049D0003F4F07E01AE00E94622E4AE35BE860E086
:1049E00007E01AE00E94D32C40E08A569F4F9C01BA
:1049F00007E01AE00E94622EFD01008D118D228DCC
:104A0000338D40E050E06AE774E40E94A7340E94CE
:104A1000F433088319834AE25CE860E007E01AE0B7
:104A20000E94D32C40E09E0107E01AE00E94AF2DC7
:104A3000FD01048D158D268D378D40E050E06AE72D
:104A400074E40E94A7340E94F433088319834AE770
:104A50005CE860E007E01AE00E94D32C40E09E0191
:104A600007E01AE00E94AF2DFD0100A111A108830B
:104A700019834AE55EE860E007E01AE00E94D32C63
:104A800040E09E0107E01AE00E94AF2DFD0102A167
:104A900013A1088319834AEA5EE860E007E01AE0A0
:104AA0000E94D32C40E09E0107E01AE00E94AF2D47
:104AB0004AE850E960E007E01AE00E94D32CFD01CB
:104AC00004A1002321F44AED50E960E003C04AE26A
:104AD00051E960E007E01AE00E94D32C29E834E0B5
:104AE00007E01AE00E94972C2CE834E007E01AE077
:104AF0000E94972C440C551C8DED99E0840D951D5A
:104B00009C012E5D3F4F07E01AE00E94192E27E915
:104B100034E007E01AE00E94972C9C01205E3F4F92
:104B200007E01AE00E94192E22EA34E007E01AE0BA
:104B30000E94972C9C012C5D3F4F07E01AE00E94D9
:104B4000192E2DEA34E007E01AE00E94972C4E96C9
:104B50009C0107E01AE00E94192E229689919991F2
:104B6000A991B991499059900895E1E3F2E000814B
:104B7000118122813381012B022B032B11F400E0E0
:104B800030CE29EB34E007E01AE00C94972C0E9419
:104B9000ED1F4AE450E860E007E01AE00C94D32CE3
:104BA00004E610E0009377051093780508959A9233
:104BB0008A927A926A925A924A92BA93AA939A9352
:104BC0008A93D80100E010E020E030E0FD0166812A
:104BD000262E43E0242241E050E08FE595E0058059
:104BE000112415C0FC014080040D111D211D311D33
:104BF000222039F44130510521F40F5F1F4F2F4F10
:104C00003F4F4F5F5F4F01964D30510548F40416FA
:104C1000150641F7FD010480000D111D211D311DF8
:104C200048E050E0693038F170E0862E9924E8EFD2
:104C30008E0EEFEF9E1EEDE64E2EE1E05E2E772407
:104C4000692C589C502C499C500C611C751E489C2A
:104C5000510C651E751E000D151D261D371DE42FF8
:104C6000E37021F40F5F1F4F2F4F3F4F4F5F5F4F98
:104C700046175707A0F32801390147E050E060E0EC
:104C800070E00E94623347E02224439F702D429FD0
:104C9000602D710D419F502D610D721D409F510D72
:104CA000621D721D820193010019150B260B370B33
:104CB0000F5F1F4F2F4F3F4F0830104020403040B4
:104CC00008F00750FD01038389919991A991B99149
:104CD0004990599069907990899099900895279773
:104CE000B8018E01FB0147E050E00E94BA352CEC80
:104CF00034E007E01AE00E94972C60E352E040E0C5
:104D00009E012C5F3F4F07E01AE00E94BF2E20ED6E
:104D100034E007E01AE00E94972C46EF5EE760E07F
:104D20001D810AE0109F400D511D07E01AE00E940E
:104D3000D32C22ED34E007E01AE00E94972C60E3C8
:104D400052E040E09E012A5F3F4F07E01AE00E94D8
:104D5000BF2E26ED34E007E01AE00E94972C8E016A
:104D600026DF4EE65FE760E01AE0019F400D511D2F
:104D700007E01AE00E94D32C29ED34E007E01AE0A6
:104D80000E94972C60E352E040E09E012E5F3F4F6F
:104D900007E01AE00E94BF2E20EE34E007E01AE0A0
:104DA0000E94972C60E352E040E09E012F5F3F4F4E
:104DB00007E01AE00E94BF2E20EE34E007E01AE080
:104DC0000E94972C60E352E040E09E0107E01AE069
:104DD0000E94BF2E27960895AA939A938A932297AA
:104DE00007EC17E07CDF4AE05EE860E007E01AE0ED
:104DF0000E94D32C40E028E438E007E01AE00E944B
:104E0000622E4AE15DE860E007E01AE00E94D32CE0
:104E10000091CE07002321F44AE65DE860E003C07C
:104E20004AEB5DE860E007E01AE00E94D32C4AEE0E
:104E300050E860E007E01AE00E94D32C4AE351E812
:104E400060E007E01AE00E94D32C4AE851E860E0F5
:104E500007E01AE00E94D32C80E0EDE8F7E024811F
:104E60003581482F01E010E00E94123320233123C6
:104E7000232B19F022EE34E002C025EE34E007E0E7
:104E80001AE00E94972C8395883038F34AED51E858
:104E900060E007E01AE00E94D32C80E0EDE8F7E044
:104EA00020853185482F01E010E00E941233202335
:104EB0003123232B19F022EE34E002C025EE34E03A
:104EC00007E01AE00E94972C8395883038F34AE275
:104ED00052E860E007E01AE00E94D32C8DE897E0EA
:104EE000A5E0FC0102891389088319839E0107E06C
:104EF0001AE00E94D62F20ED34E007E01AE00E946D
:104F0000972C0296AA9569F74AE752E860E007E015
:104F10001AE00E94D32C8DE897E0A3E09C01245F67
:104F20003F4F07E01AE00E94283020ED34E007E010
:104F30001AE00E94972C0296AA9581F722968991F1
:104F40009991A9910895BA93AA938A934AEB53E849
:104F500060E007E01AE00E94D32C0091CA090130FA
:104F600039F44AE054E860E007E01AE00E94D32CEC
:104F70000091CA09002339F44AE554E860E007E0EB
:104F80001AE00E94D32C4AEF5EE860E007E01AE0E6
:104F90000E94D32C80E0ADE4B8E0082F077039F40C
:104FA0004AE45FE860E007E01AE00E94D32C71E079
:104FB00065E055E040E09D012C593F4F07E01AE0C5
:104FC0000E94292F20ED34E007E01AE00E94972C80
:104FD00083951296843108F34AE350E960E007E0D4
:104FE0001AE00E94D32C80E0ADE4B8E0082F0770EF
:104FF00039F44AE45FE860E007E01AE00E94D32C4D
:1050000071E065E055E040E09D0124573F4F07E027
:105010001AE00E94292F20ED34E007E01AE00E94F8
:10502000972C83951296843108F34AE95FE860E093
:1050300007E01AE00E94D32C80E0ADE4B8E0082F2E
:10504000077039F44AE45FE860E007E01AE00E9484
:10505000D32C70E063E058E041E09D012C543F4FB9
:1050600007E01AE00E94292F20ED34E007E01AE063
:105070000E94972C83951496843108F34AEE5FE8DA
:1050800060E007E01AE00E94D32C80E0ADE4B8E0D5
:10509000082F077039F44AE45FE860E007E01AE09F
:1050A0000E94D32C70E063E058E041E09D01285F4E
:1050B0003E4F07E01AE00E94292F20ED34E007E080
:1050C0001AE00E94972C83951496883008F38991F2
:1050D000A991B9910895229728EE34E007E01AE0EB
:1050E0000E94972C00E00883188109E0109FF001CE
:1050F000E851F84F00811181012B09F4B8C023EF6A
:1051000034E007E01AE00E94972C40E09E0107E09F
:105110001AE00E94622E2AEF34E007E01AE00E94B3
:10512000972C2DEF34E007E01AE00E94972C1881AD
:1051300009E0109FF001E851F84F0181098360E315
:1051400052E041E09E012F5F3F4F07E01AE00E94CE
:10515000BF2E188109E0109FF001E851F84F00813F
:10516000098360E352E041E09E012F5F3F4F07E07B
:105170001AE00E94BF2E20ED34E007E01AE00E9402
:10518000972C60E352E040E02EEE37E0188109E012
:10519000109F200D311D07E01AE00E94BF2E23E072
:1051A00035E007E01AE00E94972C49EB5FE760E0EA
:1051B000188109E0109FF001E151F84F108105E0DE
:1051C000109F400D511D07E01AE00E94D32C22EDE4
:1051D00034E007E01AE00E94972C60E352E040E0E0
:1051E00020EF37E0188109E0109F200D311D07E006
:1051F0001AE00E94BF2E20ED34E007E01AE00E9482
:10520000972C60E352E040E02CEE37E0188109E093
:10521000109F200D311D07E01AE00E94BF2E27E0ED
:1052200035E007E01AE00E94972C60E352E040E08E
:105230002BEE37E0188109E0109F200D311D07E0AB
:105240001AE00E94BF2E27E035E007E01AE00E9436
:10525000972C60E352E040E02AEE37E0188109E045
:10526000109F200D311D07E01AE00E94BF2E08811B
:1052700003950883043008F437CF22960895ACCD07
:105280000895AA929A928A927A926A925A924A922D
:10529000BA93AA939A938A9381E392E0FC010081E6
:1052A000118122813381012B022B032B39F00081E4
:1052B000013010402040304009F062C0A5EBB6E05C
:1052C00004811581408122E0429FFD01E00DF11D26
:1052D0000083118329E035E007E01AE00E94972C53
:1052E000FC01008112E0019FA00DB11D9D0107E0AE
:1052F0001AE00E94D62F22E235E007E01AE00E9471
:10530000972C27E335E007E01AE00E94972C00E095
:105310000E944B1B6624A0E0B0E004E610E00E946F
:10532000E4320E946B1B4091B1065091B206FC0121
:10533000108106E0109FE9EBF6E0E00DF11DEA0FA9
:10534000FB1F40835183062D03950E944B1BFC01DC
:10535000108106E0109F29EB36E0200D311D2A0F49
:105360003B1F07E01AE00E94D62F2DE335E007E04F
:105370001AE00E94972C6394129603E0601668F27C
:10538000FC010081118122813381013040E014074A
:105390002407340709F050C0E5EBF6E002811381E1
:1053A00020813181021B130B212F220F220B322F60
:1053B0000E94E733C801D90109EB802E06E0902E48
:1053C000682C702E0DE8402E07E0502E03E0A02E32
:1053D000F40106811781F30120813181021B130B37
:1053E000212F220F220B322F0E94E73340E050E0A2
:1053F00060E87FE30E949A3520F400E010E020E8A6
:105400003FE3A801B9018C019D010E942035F20102
:10541000048F158F268F378F04E0400E00E0501E5A
:1054200002E0600E00E0701E02E0800E00E0901EC0
:10543000AA9409F496C0CCCF0230104020403040EE
:1054400009F08FC0A5EBB6E0048115810D931C9384
:10545000119729E035E007E01AE00E94972C9D01A2
:1054600007E01AE00E94D62F22E235E007E01AE0BA
:105470000E94972C27E335E007E01AE00E94972C62
:1054800000E00E944B1B662489EB96E00DE8402E5D
:1054900007E0502E04E610E00E94E4320E946B1BED
:1054A0000091B1061091B206212F220F220B322F4C
:1054B0000E94E733F201448D558D668D778D0E94F1
:1054C000A7340E94F433FC0100831183062D039559
:1054D0000E944B1B9C0107E01AE00E94D62F2DE38F
:1054E00035E007E01AE00E94972C639404E0400E38
:1054F00000E0501E029603E0601660F28DE897E02F
:1055000009EB16E023E04D915C911197F801619150
:1055100071918F01461B570BFC0140A751A70296C2
:105520002A9589F720E435E007E01AE00E94972CDD
:1055300027E335E007E01AE00E94972C8DE897E01A
:10554000A3E09C01285D3F4F07E01AE00E94D62FA0
:105550002DE335E007E01AE00E94972C0296AA9509
:1055600081F789919991A991B99149905990699040
:10557000799089909990A9900895E1E3F2E00081F3
:10558000118122813381033000E0104020403040FF
:1055900038F04AED5BE860E007E01AE00C94D32CA9
:1055A00020E83FE340815181440F551F440F551FB0
:1055B000FA01E357F84F048F058F268F378FE1E309
:1055C000F2E040815181440F551FFA01E357F84F33
:1055D00000A701A70895E1E3F2E031E02081148102
:1055E00000850C943918E1E3F2E0208514810081F4
:1055F0000C94F41701E00093C50703E000938905BC
:10560000089500E0F8CF4A928A93E1E3F2E08081C6
:10561000118122813381082F44244AE050E060E068
:1056200070E00E946233402F0AE02224039F302D55
:10563000029F202D310D019F102D210D321D049F41
:10564000002D110D221D321D8019442D50E0419571
:105650005040FA01E357F84F82AB4AE050E060E077
:1056600070E00E946233802F439445E04416A8F214
:1056700003E0009389058991499008954A928A939D
:10568000E1E3F2E08081118122813381082F4424FB
:105690004AE050E060E070E00E946233402F0AE090
:1056A0002224039F302D029F202D310D019F102DAC
:1056B000210D321D049F002D110D221D321D801958
:1056C000442D50E041955040FA01E357F84F87AB25
:1056D0004AE050E060E070E00E946233802F439423
:1056E00045E04416A8F2C4CF00E0009330020895CC
:1056F000E1E3F2E00081118122813381012B022B51
:10570000032B51F00081003110402040304020F444
:10571000009348080C9419202BE435E007E01AE0C8
:105720000C94972C229700E00093360720E030E09D
:1057300001E00E940C190093250B1093260B62E0E8
:1057400070E0AE010EE71FED21E030E00E94901AFC
:10575000088119812091250B3091260B0217130720
:1057600041F04AE158E860E007E01AE00E94D32CDB
:1057700033C020E030E002E00E940C190093250BBA
:105780001093260B62E070E0AE010CE71FED21E004
:1057900030E00E94901A088119812091250B3091E8
:1057A000260B0217130721F04AE658E860E0DCCF29
:1057B0004AEB58E860E007E01AE00E94D32C67E665
:1057C00070E047E05AE000E01FED21E030E00E9489
:1057D000901A01E000933607229608954AE751E9AE
:1057E00060E007E01AE00E94D32C42EA51E960E051
:1057F00007E01AE00E94D32C0091CE07002321F489
:105800004AE65DE860E003C04AEB5DE860E007E07F
:105810001AE00E94D32C4AEC51E960E007E01AE05C
:105820000E94D32C0091CF07002321F442E952E9D2
:1058300060E003C04AEB52E960E007E01AE00E9432
:10584000D32C42EF51E960E007E01AE00E94D32C2C
:1058500040E020ED37E007E01AE00E94622E4AE1C6
:1058600052E960E007E01AE00E94D32C40E021ED0D
:1058700037E007E01AE00E94622E42E452E960E05D
:1058800007E01AE00E94D32C26ED37E007E01AE08B
:105890000E94D62F4AE652E960E007E01AE00E9433
:1058A000D32C2FE937E00091D80712E0019F200D9B
:1058B000311D07E01AE00E94D62F42EE52E960E067
:1058C00007E01AE00E94D32C40E022ED37E007E029
:1058D0001AE00E94622E2DE535E007E01AE00E94F2
:1058E000972C40E023ED37E007E01AE00E94622E9B
:1058F0004AE053E960E007E01AE00E94D32C40E060
:1059000024ED37E007E01AE00E94622E2DE535E035
:1059100007E01AE00E94972C40E025ED37E007E011
:105920001AE00C94622E0E94241E0C94ED1F4A92E1
:10593000BA93AA939A938A93C801D90144240E94E6
:10594000551303C01196442443941C911123D1F0A4
:1059500001E0401669F41E5619F0145019F007C002
:105960000DE001C00AE0FC010193CF01119644242F
:105970000C910C3539F3FD013196DF01FC010193E7
:10598000CF01E3CF00E0FC01008307E01AE00093C1
:10599000230B1093240B0E94551389919991A9917F
:1059A000B991499008955A924A92BA93AA939A93B8
:1059B0008A932801DA01962F80E00E94551302C0D5
:1059C000119681E0FD019BBF16911123C9F0813032
:1059D00069F41E5619F0145019F007C00DE001C00B
:1059E0000AE0F20101932F01119680E0FD0106917A
:1059F0000C3531F30791DF01F20101932F01E2CF62
:105A000000E0F201008307E01AE00093230B1093FB
:105A1000240B0E94551389919991A991B9914990AC
:105A200059900895BA93AA939A93382E080150E09A
:105A300040E060E000E010E020E030E0F001708144
:105A40007D3241F561E025C08AE02224839FB02D9C
:105A5000829FA02DB10D819F902DA10DB21D809F21
:105A6000910DA21DB21D002D192F9D01072E11248D
:105A700070ED070E7FEF171E212C220C2208000D5F
:105A8000111D221D321D702F712B722B732B09F0EB
:105A900041E031967081772309F453C0552391F486
:105AA000442339F4783711F0783519F451E0319600
:105AB0000BC0872F80538A3038F200E010E020E0DE
:105AC00030E048C05130F1F744E00E944A3342E0F0
:105AD000A0817A2F70537A3070F441E00A2E11249D
