:100000000C94114C189518951895189518951895E5
:100010001895189518951895189518951895189578
:100020001895189518951895189518951895189568
:100030000C94C1151895189518951895189518953C
:1000400018951895189518950C94200318951895DF
:100050001895189518951895189518951895189538
:100060001895189518951895189518951895189528
:1000700018951895189518950C94C11618951895FB
:100080001895189518951895189518954D09FF0904
:10009000FF09FF0967099509AB09A109B509FF091E
:1000A000FF09FF09FF09FF097609FF09FF09FF0999
:1000B000BF09FF094D09FF09FF09FF09FF09FF09F2
:1000C000FF095809FF09FF09FF09FF09FF09FF0997
:1000D000FF09FF09FF09FF09FF09FF09FF09FF09E0
:1000E000FF09FF09FF09FF09FF09FF09FF09FF09D0
:1000F000D409CA09DE09E809F609141F231F2E1FB7
:10010000391F441F4F1F5E1F621F681F6C1FC41FD3
:10011000C41FC41FC41FC41FC41FC41FC41FC41FC7
:10012000C41FC41FC41FC41FC41FC41FC41FC41FB7
:10013000C41FC41FC41FC41FC41FC41FC41FC41FA7
:10014000C41FC41FC41FC41FC41FC41FC41FC41F97
:10015000C41FC41FC41FC41FC41FC41FC41FC41F87
:10016000C41FC41FC41FC41FC41FC41FC41FC41F77
:10017000C41F731F7E1F801F841F881F8C1FC41FF6
:10018000C41FC41FC41F981FA21FA41FA81FAC1FF9
:10019000B01FC41FC41FC41FC41FC41FC41FC41F5B
:1001A000C41FC41FC41FC41FC41FC41FC41FC41F37
:1001B000C41FC41FC41FC41FC41FC41FC41FC41F27
:1001C000C41FBC1FC01F6F2A802A912AAE2ACB2AC7
:1001D000E82A052B222B3F2B5A2B722B9E2BC22B4E
:1001E000D82BEE2CFF2C102D2D2D4A2D682D862D71
:1001F000A42DC22DE02DF82D232E462E5B2E8A93A2
:10020000802F012F8823A1F10E9458030AEA15E5E7
:10021000E7EEF3E00083118302811381007E082B57
:100220000F73107C006215600283138300E0048367
:100230008F010E94350AE7EEF3E0058316838F01F4
:100240000E94580AE7EEF3E00783108701E000936D
:10025000130500E00093160501E00093170500E088
:1002600000931405009315050093180500931905D4
:1002700089910895AA939A938A93802FA12F022F90
:100280001123E9F10E9458030AEA15E5E7EEF3E0CD
:100290000083118322813381207E2A2B2F73307CAF
:1002A00090E047968C0146E00E944B4C007C1F7307
:1002B000202B312B20622283338300E004838F01C3
:1002C0000E94350AE7EEF3E0058316838F010E9452
:1002D000580AE7EEF3E00783108701E00093130567
:1002E00000E00093160501E00093170500E000937D
:1002F00014050093150500931805009319058991BD
:100300009991A9910895BA93AA939A938A93902F59
:10031000812FD901012F0E94580345E250E09D0131
:1003200000EF13E00E94DD4E0AEA15E5E7EEF3E088
:100330000083118302813381007E282F2F71022BCD
:1003400000620283882311F40F7D028322812F73C0
:10035000307C092F10E0025E1F4F46E00E944B4C9C
:10036000007C1F73202B312B2283338305E204830F
:100370008F010E94350AE7EEF3E0058316838F01B3
:100380000E94580AE7EEF3E00783108701E000932C
:10039000130500E00093160501E00093170500E047
:1003A0000093140500931505009318050093190593
:1003B00089919991A991B99108958A93802F012FDC
:1003C0000E94580347E050E022E13FE000EF13E0D5
:1003D0000E94DD4E0AEA15E5E7EEF3E000831183A3
:1003E00002811381007E282F2F71022B006202836D
:1003F000882311F40F7D028302810F73107C006C3F
:1004000018601FC08A93802F0E9458030AEA15E5DE
:10041000E7EEF3E00083118302811381007E282F31
:100420002F71022B00620283882311F40F7D028357
:1004300002810F73107C1B600283138300E004C0F1
:1004400019600283138307E004838F010E94350A39
:10045000E7EEF3E0058316838F010E94580AE7EE6A
:10046000F3E00783108701E00093130500E0009399
:10047000160501E00093170500E0009314050093B2
:1004800015050093180500931905899108959A930D
:100490008A932297C80189010E942B4608831983F9
:1004A00042E050E09E0100EF13E00E94DD4E909389
:1004B000F203492F50E00881198122E93EE0200F24
:1004C000311F03EF13E00E94DD4E082F0E945803F6
:1004D0000AEA15E5E7EEF3E0008311830281138158
:1004E000007E282F2F71022B00620283882311F4D3
:1004F0000F7D028302810F73107C006C1C600283ED
:1005000013839D5F94838F010E94350AE7EEF3E029
:10051000058316838F010E94580AE7EEF3E00783F4
:10052000108701E00093130500E00093160501E039
:100530000093170500E00093140500931505009340
:1005400018050093190522968991999108959A9317
:100550008A932297C80189010E942B460883198338
:100560008823F1F142E050E09E0100EF13E00E9489
:10057000DD4E9093F203082F0E9458030AEA15E516
:10058000E7EEF3E00083118302811381007E082BE4
:100590000F73107C006A1C600283138303E00483E2
:1005A0008F010E94350AE7EEF3E0058316838F0181
:1005B0000E94580AE7EEF3E00783108701E00093FA
:1005C000130500E00093160501E00093170500E015
:1005D0000093140500931505009318050093190561
:1005E000229689919991089500915003002369F012
:1005F000025069F00A9569F00A9569F00A9569F068
:100600000A9569F00A9569F008950C948C1E0C9473
:1006100083220C941D300C940F360C94A6410C943C
:10062000443D0C947820202F212B49F025E0000038
:100630002A95E9F701501040202F212BB9F7089592
:100640009A938A93FA93EA933A922A921A920A9286
:100650007A936A935A934A933A932A931A930A93F2
:100660008FB79BB7A3D09BBF8FBF099119912991D9
:1006700039914991599169917991099019902990ED
:100680003990E991F9918991999118950CB908954A
:100690000CB108955E9B02C001E0089500E008954A
:1006A0005E9A0895DD9A02E010E0BDCFDD980895CE
:1006B00000931A0508959A938A9380E090E000567B
:1006C000194020403040C1F10056194020403040D0
:1006D00089F1005C12412040304051F1005C124130
:1006E0002040304019F1005C124120403040E1F0E0
:1006F0000058154220403040A9F0005815422040D3
:10070000304071F000501B442040304039F0005020
:10071000114E2040304091F485E010C08BE00EC0B7
:1007200081E10CC087E10AC083E208C08FE206C005
:1007300087E404C08FE802C08FE191E0D59ADD988C
:10074000B1DF9093900089B908E90AB90EE00093EF
:10075000950000E20CB989919991089500E016E99D
:1007600020E030E0A8DF45E950E020E030E002E59D
:1007700013E00E94EB4E45E950E020E030E007EE48
:1007800013E00E94EB4E4AE250E020E030E003E14B
:1007900015E00E94EB4EEBE1F5E000E212E311936D
:1007A0000A95E1F700E000931A0508959A938A9359
:1007B0006FDF0093510300911505002319F00A958E
:1007C00049F00CC0009151030A3A41F000E0009357
:1007D000150523C0009151030535C1F72091510340
:1007E000E091150510E0F0E0EE5AFC4F2083E3E1C4
:1007F000F5E002810395028304E1E4ECFFE000836D
:1008000011838091560390E008960091150580179A
:1008100090401CF401E0009314058991999108958A
:100820009A938A9337DF0023F1F000911905002392
:10083000B9F436DFE0911605F0E0E951FC4F008194
:1008400025DFE3E1F5E00381039503838091EB036A
:1008500090E008968017904034F401E0068303C0CE
:1008600000E000931305899199910895009117056F
:10087000002359F00A9569F00A9509F450C00A95C9
:1008800009F4B2C00A9509F0D2C000E00093DD057A
:10089000089508DFC5DF009113050023F1F506DF99
:1008A0000091E90305FF30C002E00093170504E161
:1008B00010E0E4ECFFE000831183E0911A05F0E022
:1008C000E354FA4F008103950083E0911A05F0E0AC
:1008D000E354FA4F0081043600F100911A05F80143
:1008E000E35CFA4F2081F801E356FA4F2083E09150
:1008F0001A05F0E0E354FA4F1083E0911A05F0E096
:10090000E35CFA4F108309C000E0009317050093E1
:100910001605009314050093150500E07AC0C6DEA5
:1009200000911405013059F4209154032F71009166
:10093000E9030F71201719F403E000931705E4ECA5
:10094000FFE000811181012B09F071C0E0911A05CF
:1009500010E0F0E0ED5EFA4F008503950087E0912E
:100960001A05F0E0ED5EFA4F0085033338F002E33C
:10097000E0911A05F0E0ED5EFA4F0087E0911A056C
:10098000F0E0E35CFA4F0081039500830091DD0500
:100990000330A0F4EDEDF5E00395008301E0009352
:1009A0001305109316050093170510931405109363
:1009B0001505109318051093190508951093170540
:1009C00001E000931805109313051093160510937A
:1009D000140510931505E0911A05F0E0E35CFA4F59
:1009E000008103950083089500E000931705E091CE
:1009F0001A05F0E0ED5EFA4F008702E513E00E9471
:100A0000580AE2E5F3E0278130850217130721F049
:100A100002E000931805089522812F710091E903E7
:100A20000F71201709F479CF03E00093180508959A
:100A3000BA93AA930091210700FF06C004E110E0D9
:100A4000E2ECFFE0008311830AEA15E5E4E7F6E053
:100A50000083118302811381007E2091460E022BB8
:100A60000F71107CEFEDF5E022813381207C3F7324
:100A7000022B132BE4E7F6E00283138303E00187E4
:100A800064E070E04EE756E007E61EED21E030E05E
:100A90000E942B1667E070E042E856E00FE61EED7C
:100AA00021E030E00E942B1664E070E04AE856E056
:100AB00007E61FED21E030E00E942B1667E070E0B2
:100AC0004EE856E00FE61FED21E030E00E942B16C5
:100AD0000BE916E0EEE4F3E0008311830091190FB7
:100AE000E0914E03F6E001830091CB0E0287E2E92C
:100AF000FEE001A912A9AEE4B3E0ED91FC910387F9
:100B00001487E2E9FEE004851585AEE4B3E0ED91DB
:100B1000FC9105871687E2E9FEE0028913895FC22E
:100B2000BA93AA9300EF15E0EEE4F3E0008311839B
:100B300003E00093790F0091190F00937A0FE09171
:100B40004E03F5E0028500937B0F05851685E9E7E6
:100B5000FFE001871287AEE4B3E0ED91FC910385DD
:100B60001485E9E7FFE00383148301E00093BC07E9
:100B70000AEA15E5E4E7F6E00083118302811381B8
:100B8000007E2091460E022B0F71107CEFEDF5E0F8
:100B900022813381207C3F73022B132BE4E7F6E0A4
:100BA0000283138301E104838F0124C28A93609737
:100BB000802F40E250E020E030E08E010E94EB4EBA
:100BC0000AEA15E5E4E7F6E0008311830281138168
:100BD000007E2091460E2F71022B0062028300E0FE
:100BE00004838A9549F08A95D1F18A9509F443C026
:100BF0008A9509F464C076C002810F73107C00648A
:100C000011600283138301E0088324E030E047E6AB
:100C10005EED61E070E08E010F5F1F4F0E941516C0
:100C200024E030E04BE65EED61E070E08E010B5FAA
:100C30001F4F0E94151627E030E04FE65EED61E0A1
:100C400070E08E01075F1F4F0E94151640E150E0D3
:100C50009E010DE716E00E94DD4E00E141C00281D9
:100C60000F73107C006811600283138327E630E065
:100C700040E05EED2EC002810F73107C006C1160AD
:100C80000283138301E0088324E030E047E65FED50
:100C900061E070E08E010F5F1F4F0E94151624E087
:100CA00030E04BE65FED61E070E08E010B5F1F4FBF
:100CB0000E94151627E030E04FE65FEDC0CF0281BD
:100CC0000F73107C12600283138327E630E040E04C
:100CD0005FED61E070E00DE716E00E94151607E693
:100CE0000093780604E716E00E94350AE4E7F6E090
:100CF000058316838F010E94580AE4E7F6E0078314
:100D0000108701E00093090700E000930C070093AF
:100D10000F0703E010E0E6ECFFE00083118360962C
:100D2000899108950AEA15E5E4E7F6E00083118366
:100D300002811381007E2091460E022B0F71107CE0
:100D4000006814600283138300E004838F010E9413
:100D5000350AE4E7F6E0058316838F010E94580AFE
:100D6000E4E7F6E00783108701E00093090700E05D
:100D700000930C0700930F0703E010E0E6ECFFE0A0
:100D80000083118308950AEA15E5E4E7F6E000839D
:100D9000118302811381007E2091460E022B0F7178
:100DA000107C006CCECF0CE714E0EFEDF5E045E9E8
:100DB00050E00E94C44E01E00093110502E0009350
:100DC000D30F08959A938A9301E0009311058091BF
:100DD000E30590E00996AC0128EE35E00CE714E05D
:100DE0000E94DD4E02E00093D30F899199910895FE
:100DF000229742E050E028EE35E08E010E94DD4E61
:100E00004091EA0550E02BEE35E06881798102E9F6
:100E10001EE0060F171F0E94DD4E0AEA15E5E4E703
:100E2000F6E00083118302811381007E2091460E3B
:100E3000022B0F71107CEFEDF5E022813381207CD5
:100E40003F73022B132BE4E7F6E00283138300E0E9
:100E500004838F010E94350AE4E7F6E005831683D8
:100E60008F010E94580AE4E7F6E00783108701E04B
:100E70000093090700E000930C0700930F0703E0BD
:100E800010E0E6ECFFE000831183229608958A9338
:100E9000229742E050E028EE35E08E010E94DD4EC0
:100EA0008091EA05482F50E00881198122E93EE04F
:100EB000200F311F00E816E00E94DD4E42E050E0B6
:100EC0009E010DE716E00E94DD4E80937F060AEA40
:100ED00015E5E4E7F6E00083118302811381007ECB
:100EE0002091460E022B0F71107CEFEDF5E0228170
:100EF0003381207C3F73022B132BE4E7F6E002835F
:100F000013838D5F84838F010E94350AE4E7F6E046
:100F1000058316838F010E94580AE4E7F6E00783F1
:100F2000108701E00093090700E000930C0700938D
:100F30000F0703E010E0E6ECFFE000831183229648
:100F400089910895BA93AA93ADE7B6E00AEA15E548
:100F5000E4E7F6E00083118302811381007E209193
:100F6000460E022B0F71107CEFEDF5E022813381EC
:100F7000207C3F73022B132BE4E7F6E002831383FC
:100F800003E00C9364E070E0AD014F5F5F4F07E654
:100F90001EED21E030E00E942B1667E070E0AD010D
:100FA0004B5F5F4F0FE61EED21E030E00E942B16F5
:100FB00064E070E0AD014F5F5F4F07E61FED21E099
:100FC00030E00E942B1667E070E01596AD010FE649
:100FD0001FED21E030E00E942B1607E107C0AEE4D0
:100FE000B3E0ED91FC910787108B0FE20093780638
:100FF00004E716E00E94350AE4E7F6E0058316836D
:101000008F010E94580AE4E7F6E00783108701E0A9
:101010000093090700E000930C0700930F0703E01B
:1010200010E0E6ECFFE000831183A991B9910895E7
:101030000E9482154FE050E029E73FE00DE716E0FF
:101040000E94DD4E0AEA15E5E4E7F6E0008311832D
:1010500002811381007E2091460E022B0F71107CBD
:10106000EFEDF5E022813381207C3F73022B132BBF
:10107000E4E7F6E0028313830FE067CE4FE050E031
:1010800028EE35E009E71FE00E94DD4E01E0009305
:10109000BC070091E1050F71C1F10AEA15E5E4E72B
:1010A000F6E00083118302811381007E2091460EB9
:1010B000022B0F71107CEFEDF5E022813381207C53
:1010C0003F73022B132BE4E7F6E0028313830FE058
:1010D00004838F010E94350AE4E7F6E00583168356
:1010E0008F010E94580AE4E7F6E00783108701E0C9
:1010F0000093090700E000930C0700930F0703E03B
:1011000010E0E6ECFFE000831183089500E016E9AB
:1011100020E030E00E94701645E950E020E030E029
:101120000FED15E00E94EB4E45E950E020E030E085
:1011300004E716E00E94EB4E4AE050E020E030E089
:1011400009E017E00E94EB4E4AE050E020E030E07A
:1011500003E117E00E94EB4E4AE050E020E030E06F
:101160000DE117E00E94EB4E0C946E169A938A9351
:1011700004E610E0E8EAFFE0008311830E94D9163C
:101180000093DE0500910B07002319F00A9549F042
:101190000CC00091DE050A3A41F000E000930B0715
:1011A0002EC10091DE050535C1F72091DE05E091E5
:1011B0000B07F0E0E152FA4F2083E9E0F7E002810B
:1011C00003950283093051F40FED15E071D1EFED75
:1011D000F5E02781308502171307F9F68091E305C2
:1011E00090E0089600910B0710E0801790400CF0FB
:1011F00006C110930B070FED15E037D1EFEDF5E0C9
:10120000258136810217130709F0F9C001E0009328
:101210000A0700911205002339F10281138146E08B
:101220000E94514C035119F00F51A1F0E8C0028106
:101230000F711091460E011721F002810F7109F014
:10124000DEC0028105FF02C00E94C30600E00093D9
:101250001205D5C002810F711091460E011709F0D9
:10126000CEC00E94E206CBC0038106FF03C00E94ED
:10127000D306C5C00281138146E00E94514C07335A
:1012800008F0BDC0F0E0FBBFF2E00F9FF001E457B3
:10129000FF4F07901690F00109940091E1050F713E
:1012A0001091460E011709F0AAC00E941805A7C0A8
:1012B000EFEDF5E002810F711091460E011721F05C
:1012C00002810F7109F09BC00E94900598C0EFED5C
:1012D000F5E002810F7139F002810F711091460E15
:1012E000011709F08CC00E94294689C0EFEDF5E096
:1012F0000185128523853485EEE2F7E000831183B2
:1013000022833383ECE9FFE0008111812281338164
:10131000EEE2F7E040815181628173810417150785
:101320002607370709F06BC0DECF0091E1050F718A
:101330001091460E011709F062C001E00E94D60527
:101340005EC00091E1050F711091460E011709F082
:1013500056C003E0F3CF0091E1050F711091460EE6
:10136000011709F04CC002E0E9CF0091E1050F71CF
:101370001091460E011709F042C004E0DFCF009142
:10138000E1050F711091460E0117C9F50E949206F2
:1013900001E05DCF0091E1050F711091460E01173C
:1013A00071F50E94F8062BC00091E1050F711091B4
:1013B000460E011721F50E94470721C00091E10563
:1013C0000F711091460E0117D1F40E94180817C032
:1013D000EFEDF5E002810F711091460E011719F043
:1013E00002810F7161F40E943E0809C00091E1057D
:1013F0000F711091460E011711F40E94A2078991F6
:10140000999108959A938A93E6ECFFE00081118107
:10141000012B41F500910F070023F9F40E94DC161F
:10142000002301F10E946C160E94E416E0910C0763
:10143000F0E0EC58F94F00810E94D616E9E0F7E0A1
:101440000381039503838091780690E008968017C6
:10145000904044F401E0068305C000E000930907D2
:101460000E946E16899199910895AA939A938A93EE
:101470002297C8018E010E94A214A0E00BC0AE0109
:1014800021E030E08C010A0F131F075F1F4F0E94FD
:10149000AF14A395FC010481A01788F38E010E946C
:1014A000A71408811981229689919991A99108958B
:1014B000BA93AA939A938A932297C8018E010E94A5
:1014C000A214DC0187E0AE0121E030E08D010E9432
:1014D000AF1411968A95B9F78E010E94A71408815E
:1014E0001981229689919991A991B9910895002322
:1014F00019F00A9549F011C000E0EAE5F7E0008331
:1015000001830283038309C000EE10E120E0EAE5D5
:10151000F7E00083118322832383EAE5F7E000816B
:1015200011812281338100521E4F2F4F3F4FE6E938
:10153000F1E0008311832283338300E0EEE5F7E0DE
:1015400000830183028303830895002319F00A9521
:1015500049F011C000E0EAE5F7E00083018302836F
:10156000038309C000EE10E120E0EAE5F7E0008324
:10157000118322832383EAE5F7E000811181228130
:10158000338100521E4F2F4F3F4FE6E9F1E00083B9
:1015900011832283338300E0EEE5F7E000830183CB
:1015A0000283038300E80E94C617009196010E94FF
:1015B000CF17009197010E94CF1702E40E94C6172F
:1015C0000EE10E94CF1700E00E94CF1703E40E94B3
:1015D000C61700915E070E94CF1700915F070E9417
:1015E000CF1700E40E94C6170EE10E94CF1700E05B
:1015F0000E94CF1701E40C94C6178A93812F0E9492
:10160000CF17082F0E94CF1701E20E94C6178991B9
:1016100008959A938A9300E00E94CF1700E00E94F9
:10162000CF1704E20E94C61780E090E80E94471698
:1016300000E00E94CF1700EC0E94C6170197B1F797
:10164000899199910895BA93AA939A938A93E6E916
:10165000F1E080819181082F0E94CF17092F0E940D
:10166000CF1704E20E94C617E6E9F1E0A081B1813C
:10167000B15F8A179B0760F40E94471600E00E9442
:10168000CF1700EC0E94C61701968A179B07A0F39C
:1016900089919991A991B9910895BA93AA939A932E
:1016A0008A93EEE5F7E080819181082F0E94CF17A1
:1016B000092F0E94CF1704E20E94C617EEE5F7E05B
:1016C000A081B181A052BE4FD4CFBA93AA939A936E
:1016D0008A93D801032F8EE1809FC00130E0820FF2
:1016E000931FEEE5F7E000811181080F911F0E9422
:1016F000CF17092F0E94CF1704E209C00E94471696
:10170000FD010191DF0100520E94CF1700EC0E9401
:10171000C6170C91002391F7BBCF5A924A92BA9305
:10172000AA939A93D801922F1EE1412E449E200144
:1017300010E0430E511EEEE5F7E000811181040D2B
:10174000511E0E94CF17052D0E94CF1704E20AC038
:101750000E944716FD019BBF0791DF0100520E94C6
:10176000CF1700EC0E94C617FD019BBF0691002316
:1017700079F79991A991B9914990599008950EE0FE
:1017800012E0E6EBF7E000831183E091B607F2E0A8
:101790000781F085E02F099500913B0E12E0019F33
:1017A000F001E354FE4F00811181E9E9F7E0008385
:1017B0001183E0EAF7E000E110E011930A95E1F708
:1017C0000895BA93AA938A9380E009C020E04FE07D
:1017D000489F00E11CE0000D111DB4D08395A6EBDD
:1017E000B7E0ED91FC910581801780F38991A99173
:1017F000B9910895BA93AA938A9380E008C02FE024
:10180000289F00E11CE0000D111D2DD38395A6EB50
:10181000B7E0ED91FC910581801788F38991A9913A
:10182000B9910895BA93AA938A9300919F070531BD
:10183000B8F0A6EBB7E0ED91FC910385F485E02FBD
:1018400009950DE213E0E6EBF7E000831183D80180
:101850001796ED91FC910995B4DF00E000939F0786
:10186000A6EBB7E0ED91FC91218532852030304028
:1018700041F0E6EBF7E0A081B1811996ED91FC9182
:10188000099580E001C08395E6EBF7E00081F181E6
:10189000E02F0581801708F040C02FE0289F00E16D
:1018A0001CE0000D111D50D4002369F30FE0089FC8
:1018B000F001E05FF34F038103FFE5CFF001E05F4C
:1018C000F34F2385348500E02030300711F0F90113
:1018D00009950FE0089FF001E05FF34F058516853D
:1018E000012B89F2E6EBF7E00081F181E02F03851F
:1018F000F485E02F09950FE0089FF001E05FF34FBA
:1019000005851685E6EBF7E000831183D80117966D
:10191000ED91FC91099555DF11C000919B0700FFE7
:1019200006C000919C07002349F401E005C0009126
:101930009C07013019F400E000939C078991A9915C
:10194000B9910895FA92EA92DA92CA92BA92AA9258
:101950009A928A925A92BA93AA939A938A93649784
:101960002987D801F80103811481012B09F426C1CC
:1019700024E030E00281029FA00170E061E08E016E
:10198000045F1F4F0E94151626E330E04C855D85ED
:101990006E857F8540575E4F6E4F7F4F03E617E0A1
:1019A0000E941516E3E6F7E00289138946895789F4
:1019B0004D835E83CC84DD84EE84FF844285538531
:1019C00064857585C40ED51EE61EF71E20E9C20E7D
:1019D00021E0D21EE21E20E0F21E48019694879478
:1019E00096948794969487949401220F331F220F24
:1019F000331F220F331F021B130B21F001E0800E57
:101A000000E0901E082D0C7F9401201B39092983CA
:101A10003A830981032B39F004E010E02981021B8D
:101A2000130B09831A832D813E8121503040498157
:101A30005A818401040F151F129F102D039F100D52
:101A4000029F110D20E0C00CD11EE21EF21EFD010E
:101A5000038104FD11C00581002319F00A9539F0B6
:101A60000BC080E090E05401B694A7940FC0C4016D
:101A70009695879554010AC0038104FF07C005812C
:101A800012E0019FC0015001A10EB21E038107FFA9
:101A900007C0858190E0A82EBB2401E0A00EB21EF5
:101AA000038105FF03C080E090E054012F83288765
:101AB0000D811E81012B09F481C08B839C838A15C3
:101AC0009B0508F064C04B815C8160E08601970152
:101AD000040F151F261F361F088B198B2A8B3B8B73
:101AE0006A876B8721E030E0488959896A897B8958
:101AF0008E010E941516E6E9F1E0008111814A8508
:101B00005B85040F151F4C9150E0400F511F2F8132
:101B10003885FD01018110E0200F311F0EE1039F88
:101B2000102D029F110D400D511F552E042F0E94A4
:101B3000CF17052D0E94CF1704E20E94C617098512
:101B40000023088109F000950E94CF1700EC0E9445
:101B5000C6170B811C810F5F1F4F0B831C830A85E7
:101B60001B850F5F1F4F0A871B87088919892A89E0
:101B70003B890F5F1F4F2F4F3F4F088B198B2A8BCD
:101B80003B8B0B811C810A151B0508F4ABCF298107
:101B90003A818401020F131F20E0C01AD10AE20A21
:101BA000F20A0F8118850F5F1F4F0F8318870F816F
:101BB0002D813E810217130708F47FCF6496899127
:101BC0009991A991B99106C0269689919991A99167
:101BD000B9914990599089909990A990B990C990DC
:101BE000D990E990F9900895FA92EA92DA92CA921D
:101BF000BA92AA929A928A925A92BA93AA939A9372
:101C00008A936397D801F80106811781012B09F4A3
:101C100028C124E030E044815581440F551F440F12
:101C2000551F70E061E08E01055F1F4F0E94151681
:101C300026E330E04B855C856D857E8540575E4FA1
:101C40006E4F7F4F03E617E00E941516E3E6F7E0BC
:101C500002891389468957894D835E83CB84DC844E
:101C6000ED84FE844285538564857585C40ED51E3A
:101C7000E61EF71E20E9C20E21E0D21EE21E20E081
:101C8000F21E48019694879496948794969487942C
:101C90009401220F331F220F331F220F331F021B09
:101CA000130B21F001E0800E00E0901E082D0C7F48
:101CB0009401201B3909288339830881032B39F0CB
:101CC00004E010E02881021B130B088319832D8187
:101CD0003E8121503040488159818401040F151FF5
:101CE000129F102D039F100D029F110D20E0C00CBC
:101CF000D11EE21EF21EFD01068104FD11C0008509
:101D0000002319F00A9539F00BC080E090E05401EF
:101D1000B694A7940FC0C4019695879554010AC044
:101D2000068104FF07C0008512E0019FC001500139
:101D3000A10EB21E068107FF07C0808590E0A82E85
:101D4000BB2401E0A00EB21E068105FF03C080E0A7
:101D500090E054012F8328870D811E81012B09F407
:101D600080C08B839C838A159B0508F063C04B81E0
:101D70005C8160E086019701040F151F261F361F46
:101D80000F87188B298B3A8B69876A8721E030E0AF
:101D90004F85588969897A898E010E5F1F4F0E948D
:101DA0001516E6E9F1E00081118149855A85040F95
:101DB000151F4D915C911197400F511F2F81388550
:101DC000FD0102811381200F311F0EE1039F102DB1
:101DD000029F110D400D511F552E042F0E94CF1749
:101DE000052D0E94CF1704E20E94C6170A810E94A7
:101DF000CF1700EC0E94C6170B811C810F5F1F4F8D
:101E00000B831C8309851A850F5F1F4F09871A876B
:101E10000F85188929893A890F5F1F4F2F4F3F4F30
:101E20000F87188B298B3A8B0B811C810A151B0598
:101E300008F4ACCF288139818401020F131F20E000
:101E4000C01AD10AE20AF20A0F8118850F5F1F4FEC
:101E50000F8318870F812D813E810217130708F425
:101E600080CF6396ACCEFA92EA92DA92CA92BA9294
:101E7000AA929A928A925A924A92BA93AA939A935F
:101E80008A932697D801F80103811481012B09F464
:101E90009FC024E030E00281029FA00170E061E079
:101EA0008E010E5F1F4F0E94151626E330E04A8117
:101EB0005B816C817D8140575E4F6E4F7F4F03E6A3
:101EC00017E00E941516E3E6F7E002891389C68839
:101ED000D788980136952795369527953695279575
:101EE000A901440F551F440F551F440F551F041BD4
:101EF000150B11F02F5F3F4FFD01038104FD11C051
:101F00000581002319F00A9539F013C080E090E0B4
:101F10004901969487940DC0C9019695879549010A
:101F200008C0058112E0019FC0014001810E00E060
:101F3000901E038105FF03C080E090E04901AA24C0
:101F4000BB240C2D0D2909F443C08883998388157F
:101F50009905B0F5EE24FF24E6E9F1E00081118156
:101F60000E0D1F1D4C9150E0040F151F2801FD019F
:101F700001819501200F351F0EE1039F102D029F57
:101F8000110D400C511E042D0E94CF17052D0E94EB
:101F9000CF1704E20E94C61700E00E94CF1700ECA2
:101FA0000E94C617088119810F5F1F4F088319838C
:101FB00001E0E00E00E0F01E08810815190560F24E
:101FC00001E0A00E00E0B01EAC14BD0408F4BDCFCB
:101FD000FBCDFA92EA92DA92CA92BA92AA929A92B5
:101FE0008A925A924A92BA93AA939A938A9326977C
:101FF000D801F80106811781012B09F4A4C024E05F
:1020000030E044815581440F551F440F551F70E047
:1020100061E08E010E5F1F4F0E94151626E330E02F
:102020004A815B816C817D8140575E4F6E4F7F4F4F
:1020300003E617E00E941516E3E6F7E0028913892C
:10204000C688D78898013695279536952795369571
:102050002795A901440F551F440F551F440F551FC5
:10206000041B150B11F02F5F3F4FFD01068104FD8E
:1020700011C00085002319F00A9539F013C080E0E3
:1020800090E04901969487940DC0C9019695879573
:10209000490108C0008512E0019FC0014001810E86
:1020A00000E0901E068105FF03C080E090E049013A
:1020B000AA24BB240C2D0D2909F445C088839983DB
:1020C00088159905C0F5EE24FF24E6E9F1E00081CA
:1020D00011810E0D1F1D4D915C911197040F151F5D
:1020E0002801FD01028113819501200F311F0EE1AE
:1020F000039F102D029F110D400C511E042D0E94B4
:10210000CF17052D0E94CF1704E20E94C61700E0EA
:102110000E94CF1700EC0E94C617088119810F5F3B
:102120001F4F0883198301E0E00E00E0F01E0881D4
:102130000815190550F201E0A00E00E0B01EAC1425
:10214000BD0408F4BBCF40CDBA93AA939A938A9367
:102150002497D80190E0F80185810091B20700230F
:1021600051F0E2EBF7E0018112810A171B0719F425
:1021700001E00093EE0F0CE3EAECFFE000839183B3
:1021800090936207E9E9F7E00081118120913B0E0D
:1021900032E0239FF001E354FE4F2081318102178A
:1021A000130790F4EAECFFE000811181012B61F448
:1021B00001E00E94A50A01E00093620700EC18EA22
:1021C000EAECFFE000831183ECEBFFE0008111817A
:1021D000012B11F000E090C20091EE0F002309F4F2
:1021E000D2C10CE3EAECFFE00083918300913D0E45
:1021F000E9E4F3E0008391832081318108EE13E06C
:10220000129F102D039F100D029F110D008211834C
:10221000E9E9F7E00081118120913B0E32E0239F34
:10222000F001E354FE4F208131810217130758F467
:10223000E9E9F7E02083318304EF11E0ECEBFFE004
:1022400000831183C7CFFD01038100FFC3CF24E0CA
:1022500030E00281029FA00170E061E08E010E94E7
:10226000151626E330E0488159816A817B81405709
:102270005E4F6E4F7F4F03E617E00E941516E3E6B0
:10228000F7E042895389FD01038105FD02C056959F
:102290004795E3E6F7E0068917892C9138E0239FFC
:1022A0002091B107222329F5EAEDFFE02081318159
:1022B00002161306F0F4B9019001240F351F6217BE
:1022C0007307F0F4FD01218130E0E8EDFFE060816B
:1022D000718126173707D8F4200F311F6217730753
:1022E00000F5FD01228523952287243810F023E88C
:1022F0002287EAEDFFE02081318102161306D8F42F
:1023000020813181040E151E20153105A0F4FD0138
:10231000218130E0E8EDFFE040815181241735074D
:1023200050F440815181FD01218130E0200F311FA7
:102330004217530740F0FD010285033818F00A9553
:10234000028701C092870091B207002361F0E2EB9F
:10235000F7E0018112810A171B0729F404E0FD014F
:1023600002879093B207FD010285043008F4B2C0E1
:102370000F3708F073C001E00093B10702850068D1
:102380000287E8EBF7E0A083B183FD01048103FF3E
:1023900010C00581002359F401E005830093B507BF
:1023A00008E512E0ECECFFE0008311833CC095836C
:1023B0003AC0038102FF0DC005810023C1F701E08F
:1023C0000583038106FF2FC008EE13E0E8EBFFE072
:1023D000EBCFE6EBF7E0208131812E30324001F582
:1023E0001CE0A031B10761F40091240C0023D9F462
:1023F00001E0FD01058300939D0790939E0713C0A4
:102400001CE0AF31B10761F40091150C002359F4C1
:1024100001E0FD01058300939E0790939D0703C093
:1024200001E0FD010583FD0103811481027012703A
:10243000023020E0104011F48D0184DA91E0FD01BA
:10244000048103FD2AC1238534852030304009F4FE
:1024500024C10385F485E02F09951FC103810A700B
:10246000023009F01AC1038102FD17C0EEEBFFE054
:1024700000811181012B89F4E0ECFFE000811181E2
:10248000012B59F400E500839183FD0123853485F8
:102490002030390711F0F9010995FD01048103FF8E
:1024A000FCC0EEEBFFE000811181012B09F0F5C0CB
:1024B000E0ECFFE000811181012B09F0EEC000E5A6
:1024C00000839183FD01238534852030304009F459
:1024D000E4C0BFCF03810271023009F0DEC0038186
:1024E0000C7089F58581882371F19583E6EBF7E01F
:1024F000208131812E303240E1F41CE0A031B1075F
:1025000051F400919D07023021F401E0FD010583A3
:1025100002C090939D071CE0AF31B10751F40091C8
:102520009E07023021F401E0FD01058302C0909373
:102530009E07FD01048101FD06C00581081719F001
:1025400020E08D01FFD9FD01038102FFA6C00581B6
:10255000013009F0A2C0038106FF9FC000919B07D4
:1025600000FF09C000919C07002309F096C020E0FD
:102570008D01E8D992C000919C07013009F08DC00F
:102580008D0171DC8AC09093B107E8EBF7E0008120
:102590001181A017B10711F5FD01048103FF1EC0D1
:1025A0000091B5070023D1F0ECECFFE00081118130
:1025B000012B71F0FD019583238534852030304057
:1025C00021F00385F485E02F099520E08D01BAD92B
:1025D000E8EBF7E0908391839093B507FD010381C9
:1025E0000271023009F050C003810C7089F58581B9
:1025F000882371F19583E6EBF7E0208131812E305D
:102600003240E1F41CE0A031B10751F400919D0784
:10261000023021F401E0FD01058302C090939D0783
:102620001CE0AF31B10751F400919E07023021F454
:1026300001E0FD01058302C090939E07FD01048126
:1026400001FD06C00581081719F020E08D017AD937
:10265000FD01038102FF18C005810130A9F4038147
:1026600006FF12C000919B0700FF08C000919C0765
:10267000002351F420E08D0165D906C000919C072C
:10268000013011F48D01EFDBFD010285002311F013
:102690000A95028702850F770287FD010381027187
:1026A000023049F50581801731F10130068117812B
:1026B0002085318559F4EDE1F7E040815181628157
:1026C0007381402B512B622B732B0EC000951095FC
:1026D00020953095EDE1F7E0408151816281738171
:1026E0004023512362237323408351836283738386
:1026F000048101600483092F249689919991A991FD
:10270000B9910895BA93AA939A938A93A897C80106
:10271000D9010E94471633E020E00AE911E00E9447
:10272000650B24E030E0AC01BD0149595F4F6F4FAC
:102730007F4F04EA1FE00E94151641E024EA3FE0C3
:102740008E010E94724833E02BE08E010E94650BDF
:1027500034E020E006EA11E00E94650B24E030E05E
:1027600085599F4FAF4FBF4FAC01BD0104EA1FE039
:102770000E94151641E024EA3FE08E010E94724853
:1027800034E02BE08E010E94650BA896B6CFAA9389
:102790009A938A9380E090E00E94891700E00E945B
:1027A000A50A0E94090B0CE90E94C61701E00E94CD
:1027B000770A20E00AE313E0C5D800E00E94A50AEA
:1027C0000E949B4A0091EE0F002391F040E039E017
:1027D00002E619EA20E00E948D0B0E949B4A04C089
:1027E0000E949B4A0E9447160091EE0F0023C1F7FA
:1027F0000E944D0B40E030E002E718EA20E00E9422
:102800008D0B41E030E00AE918EA20E00E948D0BD0
:1028100042E030E002EC18EA20E00E948D0B00E07C
:102820001EED21E030E06EDF35E020E002EB11E04C
:102830000E94650B40E026E43EE002E317E00E94C0
:10284000BB4635E029E002E317E00E94650B27E66E
:1028500030E040E05EED61E070E002E317E00E94EE
:10286000151636E020E002E317E00E94650B00ED4C
:1028700017E0ECEAFFE00083118304E6EAEAFFE0F8
:1028800000838183A0E02CC00E944716EAEAFFE0A3
:1028900000811181012B21F504E610E000831183F2
:1028A0000E94471637E02A2F0BEB11E00E94650BC0
:1028B0000E949B4A0091EE0F002309F001968A3096
:1028C00000E0900760F0ECEAFFE000830183EAEAB1
:1028D000FFE0008301830E944D0B0E94D517A39552
:1028E000ECEAFFE000811181012B71F60E94230BBD
:1028F0000E944D0B04EF11E0E6EBFFE00083118333
:1029000000913D0E10E0E9E4F3E0008311832081A3
:10291000318108EE13E0129F102D039F100D029FCE
:10292000110D0082118300E010E0EAEAFFE000836D
:1029300001830CE3EAECFFE0008311838991999114
:10294000A99108952FEFF801208321830895F801BC
:1029500000811181009510950083118308950D0168
:10296000BC01FA01422F432B01F1D801C9010D919D
:102970002081318120272083318328E0008100FFDE
:102980000BC0402F51815695479508E014E8402729
:1029900051274083518305C0118116950795008307
:1029A00011832A9559F7019711F7CB01D0010895AA
:1029B0007A926A925A924A92BA93AA939A938A9373
:1029C000D80100E010E020E030E0FD01068043E0A7
:1029D000042281E090E017C0FC01EE52FE4F4081DE
:1029E00060E070E0040F151F251F351F002039F42B
:1029F0008130950721F40F5F1F4F2F4F3F4F0196F6
:102A00008D30950768F4FD01458150E0481759075E
:102A100019F7448160E070E0040F151F251F351F72
:102A200088E090E0FD014681493080F003591E4F57
:102A30002F4F3F4F482F437021F40F5F1F4F2F4FF1
:102A40003F4F019646818417950780F3280139018D
:102A500047E00E948B4C47E02224439F702D429F09
:102A6000602D710D419F502D610D721D409F510DC4
:102A7000621D721D820193010019150B260B370B85
:102A80000F5F1F4F2F4F3F4F083010402040304006
:102A900008F00750EA2F038389919991A991B99180
:102AA0004990599069907990089502E11FE080CF94
:102AB0000091790F0A3529F400917A0F0093190FCC
:102AC00008950B3549F4E9E7FFE003811481E2E65C
:102AD000FFE0008311830895013099F400917A0F8B
:102AE0000093190F00917B0F0093640FE9E7FFE05B
:102AF00003811481E2E6FFE0008311830091820FDD
:102B00000383089501E00093790F0091190F00935A
:102B10007A0F0091640F00937B0FE2E6FFE00081E3
:102B20001181E9E7FFE0038314830091780F12E03D
:102B3000019FF001EE56F14F06851785E9E7FFE0AA
:102B40000583168300E010E0078300870091650F7E
:102B5000018712871387148715871687089500E069
:102B60000FBD09E00EBD00E000937A0003E31BE215
:102B70001BBD0ABD00E00DBD0CBD07B7006107BF5E
:102B800008959A938A93FA93EA933A922A921A9220
:102B90000A927A936A935A934A933A932A931A938E
:102BA0000A938FB79BB70E9402499BBF8FBF0991C1
:102BB0001991299139914991599169917991099086
:102BC000199029903990E991F991899199911895E5
:102BD0004A92BA93AA939A938A93D801C90144233B
:102BE00059F0442EFD010191DF01AC010E94394CE6
:102BF0004ED001964A94B1F789919991A991B991D2
:102C0000499008954A92BA93AA939A938A93D801C5
:102C1000C901442349F0442EAC010E942D4C0D9370
:102C200036D001964A94C1F7E7CF1C01C90120E0D4
:102C3000382F392B71F0FA011124E20FF11D6BBF0F
:102C40000690F80101928F01239530E0281739078B
:102C500090F3C1010895080100E0162F172B71F0C1
:102C6000F00110E0E00FF11F2BBF1691FA01119354
:102C7000AF01039510E00617170790F30895C49865
:102C8000BC9A089508E101BD08E001BDFFCFC49AD8
:102C90000000C498A8950895009165000160009314
:102CA00065000895009165000E7F0093650008950A
:102CB000009165000E7F0093650000916400016043
:102CC0000093640008952FEF33E0201B310B309305
:102CD0008700209386000895949A08959498089503
:102CE00040E050E00056194020403040C1F100560D
:102CF00019402040304089F1005C124120403040B2
:102D000051F1005C12412040304019F1005C124149
:102D100020403040E1F00058154220403040A9F0FA
:102D2000005815422040304071F000501B442040B4
:102D3000304039F00050114E2040304091F445E0D1
:102D400010C04BE00EC041E10CC047E10AC043E2B5
:102D500008C04FE206C047E404C04FE802C04FE19C
:102D600051E08C9A9498509398004093990008E908
:102D700000939A000EE000939D0000E200939C00F7
:102D800008959A938A93FA93EA933A922A921A921E
:102D90000A927A936A935A934A933A932A931A938C
:102DA0000A938FB79BB70E94B608FFCE00939C0092
:102DB000089500919C00089500919B0006FF02C0B9
:102DC00001E0089500E0089500919B0000640093E5
:102DD0009B000895BF9AC798009164000260009319
:102DE0006400009165000D7F00936500139A00E078
:102DF00010E0009389000093880003EC00938B009F
:102E000001E000938A0010938C00109385001093CA
:102E10008400109383001093820006E00093920ECA
:102E200004E10093930E02E00093940E04E00093FB
:102E3000950E08958898909A919807B3076007BBFC
:102E4000BB9808B3097F08BBC09A03E50DB901E040
:102E50000EB9089508954A92BA93AA939A938A93C1
:102E6000A02F412E0FB10FB1C09884EF91E0F2DF97
:102E70000197E9F7A368AFB9779BFECF0FB100E0E8
:102E80000FB9779BFECF0FB1A02F03E8402A4FB8B0
:102E9000779BFECF0FB1BA2FA02FB695A795B69509
:102EA000A795B695A79500E00FB9779BFECF0FB118
:102EB00084EF91E0CFDF0197E9F7C09ACBDFCADF5B
:102EC000C9DFC8DFBF708D0197CE01E005BF00E00C
:102ED00005BF08E101BD00E001BD009374000EEFE5
:102EE00000936A0000E009BF04B3007E04BB05B391
:102EF0000F6105BBBF9A089503B30F7100950F7161
:102F00000895B79B02C0C7980895C79A089578940A
:102F1000089504EF03B902B1046F02B900E0009311
:102F200061001B9A1A980AE010E00E948D4A1A9AD2
:102F30000AE010E00E948D4A1E9808958A931FEFC0
:102F4000109361001C980093620083E083DF8A95F0
:102F5000E9F71C9A899108958A9300E00093610033
:102F60001D9883E077DF8A95E9F700B11D9A899172
:102F700008951F9AF1CF8A93802F01C088DEF9DF70
:102F800008230817D9F701E0899108958A93802FC3
:102F900003E0F1DF1F9A082FD1DF899108958A930A
:102FA000802F03E0E8DF1F98F6CF8A927A926A9228
:102FB0005A924A92BA93AA939A938A936C9700E092
:102FC0000093EE0F0E949B4A0091EE0F002391F0B8
:102FD00040E039E002E619EA20E00E948D0B0E94F1
:102FE0009B4A04C00E949B4A0E9447160091EE0F24
:102FF0000023C1F70E944D0B04E610E00E948D4AA9
:103000000E9447160E94FA0B0E944D0B40E033E0ED
:103010000AEE18EA20E00E948D0B41E033E002E165
:1030200019EA20E00E948D0B20E005EE11E00E94DD
:10303000A20C00E00093EE0F02E310E0EAEBFFE0E9
:10304000008311838824442455246624772480E057
:1030500090E0A0E0B0E00E9447160E9447160E9450
:103060009B4A0091EE0F0023C1F3E2EEFFE00081E6
:10307000118120E030E00E94FC4CA801B9018C01D4
:103080009D010E94504DC801D901E0EEFFE0008192
:10309000118120E030E00E94FC4CA201B3010E94AB
:1030A000504D2801390183940AE08016B0F240E0C7
:1030B00050E060E271E48C019D010E942A4E0E9462
:1030C000FE4C0883198340E050E060E271E4820125
:1030D00093010E942A4E0E94FE4C0C831D830E9485
:1030E000471632E025E00FED11E00E94650B40E04D
:1030F0009E018E01085F1F4F0E94644632E027E068
:103100008E01085F1F4F0E94650B33E025E002EE41
:1031100011E00E94650B40E09E012C5F3F4F8E0145
:10312000085F1F4F0E94644633E027E08E01085F6E
:103130001F4F0E94650B20E004EF11E00E94A20CDB
:1031400044E033E00AE319EA20E00E948D0B08EE28
:1031500013E00E948D4A02E310E0EAEBFFE00083F7
:1031600011838824442455246624772480E090E049
:10317000A0E0B0E00E9447160E949B4A0091EE0F2B
:103180000023C1F3E2EEFFE00081118120E030E096
:103190000E94FC4CAC01BD010E94504DC801D901F8
:1031A000E0EEFFE00081118120E030E00E94FC4C65
:1031B000A201B3010E94504D2801390183940AE015
:1031C0008016C0F240E050E060E271E48C019D01A5
:1031D0000E942A4E0E94FE4C0A831B8340E050E06E
:1031E00060E271E4820193010E942A4E0E94FE4C2B
:1031F0000E831F8335E025E00FED11E00E94650B83
:1032000040E09E012E5F3F4F8E01085F1F4F0E94DE
:10321000644635E027E08E01085F1F4F0E94650B72
:1032200036E025E002EE11E00E94650B40E09E01D1
:103230002A5F3F4F8E01085F1F4F0E94644636E0B1
:1032400027E08E01085F1F4F0E94650B0A811B81DA
:1032500028813981021B130B20E030E00E94FC4CD6
:10326000A801B90100E010E028E533E40E942A4EED
:10327000E3E2FEE000831183228333830E811F810A
:103280002C813D81021B130B20E030E00E94FC4C9E
:10329000A801B90100E010E020ED32E40E942A4EBE
:1032A000E3E2FEE0048315832683378308811981D6
:1032B00020E030E00E94FC4CC801D901E3E24081EB
:1032C00051816281738100E010E020E331E40E94CB
:1032D0002A4EA801B9018C019D010E94944D0E94C3
:1032E000FE4CE3E2FEE000871187228733870C81E2
:1032F0001D8120E030E00E94FC4CC801D901E3E2CE
:10330000448155816681778100E010E020E331E45B
:103310000E942A4EA801B9018C019D010E94944D82
:103320000E94FE4CE3E2FEE0008B118B228B338B7C
:1033300000ED17E00E948D4A0E9473450E944D0BDC
:1033400004EF11E00E94330F05EE11E00E94330FED
:103350006C9689919991A991B991499059906990E8
:1033600079908990089501E000930D0200917E0C00
:10337000002341F000E000937E0C20E009E71CE010
:103380000E94A20C00918D0C002341F000E00093FC
:103390008D0C20E008E81CE00E94A20C089502E0D9
:1033A00000930D0200916F0C002341F000E00093A8
:1033B0006F0C20E00AE61CE00E94A20CE3CF03E0C1
:1033C00000930D0200916F0C002341F000E0009388
:1033D0006F0C20E00AE61CE00E94A20C00917E0C1B
:1033E000002341F000E000937E0C20E009E71CE0A0
:1033F0000E94A20C0895E5E6FFE00081039500839A
:10340000043010F000E000832091A80C30E000911F
:10341000650F10E00F5A1F4F2017310751F0009130
:10342000650F0F5A0093A80C20E006EA1CE00E94EA
:10343000A20C01E00093640F10919C0C00E000933B
:103440009C0C112329F020E007E91CE00E94A20C4B
:1034500004EF11E0E8ECFFE0008311830091070C1A
:10346000002319F40DE300934D03089500E010E0EC
:10347000E2EBFFE0008301830091770F002349F422
:1034800001E00093770F10933C0E05E000933B0E94
:1034900008C002E000933C0E09E000933B0E10933D
:1034A000770F04EF11E0E8ECFFE00083118300E008
:1034B000E2EBFFE00083018308E813E1EEECFFE0BC
:1034C000008311830091070C002319F40EE300938D
:1034D0004D0308952091A80C30E00091650F10E095
:1034E0000F5A1F4F2017310751F00091650F0F5AE7
:1034F0000093A80C20E006EA1CE00E94A20C1091A8
:10350000BA0C0091190F002311F401E001C000E092
:103510000093BA0C0091BA0C101729F020E005EBCB
:103520001CE00E94A20C1091C90C0091770F00239F
:1035300011F400E001C001E00093C90C0091C90C36
:10354000101729F020E004EC1CE00E94A20C10915E
:103550009C0C0091640F002311F401E001C000E015
:1035600000939C0C00919C0C101729F020E007E9B7
:103570001CE00E94A20C0895E2E6FFE000811181A8
:103580000F5F1F4F00831183003921E011401CF0B1
:1035900000E90083218304EFE8ECFFE0008321834E
:1035A0000091070C002319F40FE300934D0300E092
:1035B000E2EBFFE0008301830895E2E6FFE0008193
:1035C000118101501040008311830D3820E010401C
:1035D0001CF40CE80083218304EF11E0E8ECFFE029
:1035E000008311830091070C002319F40FE300936B
:1035F0004D03E2EBFFE02083218308950091190F32
:10360000002329F401E00093190F00E004C000E05A
:103610000093190F01E00093E00E04EF11E0E8ECD5
:10362000FFE00083118300E0E2EBFFE00083018311
:103630000091070C002319F400E400934D03089552
:103640000091640F002311F401E001C000E0009339
:10365000640F04EF11E0E8ECFFE00083118300E069
:10366000E2EBFFE0008301830091070C002319F4D3
:103670000CE300934D03089500E000935003009382
:103680004C0300934D030CE30093D00F00E11CE0CA
:10369000E8EDFEE930E04FE050E00E94CF4E0FE150
:1036A0001CE0E9ECFEE930E04FE00E94CF4E0EE274
:1036B0001CE0EAEBFEE930E04FE00E94CF4E0DE364
:1036C0001CE0EBEAFEE930E04FE00E94CF4E0CE454
:1036D0001CE0ECE9FEE930E04FE00E94CF4E0BE544
:1036E0001CE0E5E0FFE930E04FE00E94CF4E0AE643
:1036F0001CE0E3E2FFE930E04FE00E94CF4E09E733
:103700001CE0E2E3FFE930E04FE00E94CF4E08E822
:103710001CE0E1E4FFE930E04FE00E94CF4E07E912
:103720001CE0E0E5FFE930E04FE00E94CF4E06EA02
:103730001CE0EFE5FFE930E04FE00E94CF4E05EBE3
:103740001CE0EEE6FFE930E04FE00E94CF4E04ECD3
:103750001CE0E4E1FFE930E04FE00E94CF4E03EDD2
:103760001CE0E7EEFEE930E04FE00E94CF4E02EEB3
:103770001CE0E6EFFEE930E04FE00E94CF4E0BE4A4
:103780001DE0E3EBFFE930E049E00E94CF4E04E5A5
:103790001DE0EAEAFFE930E049E00E94CF4E0DE586
:1037A0001DE0E1EAFFE930E049E00E94CF4E06E685
:1037B0001DE0E8E9FFE930E049E00E94CF4E0FE666
:1037C0001DE0EFE8FFE930E049E00E94CF4E08E756
:1037D0001DE0E6E8FFE930E049E00E94CF4E01E855
:1037E0001DE0EDE7FFE930E049E00E94CF4E0AE836
:1037F0001DE0E2EFFFE930E049E00E94CF4E03E92F
:103800001DE0E9EEFFE930E049E00E94CF4E0CE90F
:103810001DE0E0EEFFE930E049E00E94CF4E05EA0E
:103820001DE0E7EDFFE930E049E00E94CF4E0EEAEF
:103830001DE0EEECFFE930E049E00E94CF4E07EBDF
:103840001DE0E5ECFFE930E049E00E94CF4E00ECDE
:103850001DE0ECEBFFE930E049E00E94CF4E09ECBF
:103860001DE0EFE1F0EA30E049E00E94CF4E02EDCA
:103870001DE0E6E1F0EA30E049E00E94CF4E0BEDBA
:103880001DE0EDE0F0EA30E049E00E94CF4E04EEAA
:103890001DE0E4E0F0EA30E049E00E94CF4E0DEE9A
:1038A0001DE0EBEFFFE930E049E00E94CF4E04E677
:1038B000E2EBFFE00083418320E008C04AE009E03A
:1038C000029FF001E55BF24F4087239500911402BF
:1038D0002017A0F35093E00E01E00093050F089528
:1038E0008A9380E009C029E0289F0BE41DE0000DC9
:1038F000111D0E94E90F839500911402801798F31F
:103900000E94FA0B0E944D0B899108959A938A9315
:10391000E2EBFFE000811181012B09F0FAC104EF15
:1039200011E000831183EAE5F7E000811181228133
:103930003381012B022B032B09F0EBC10CE3009325
:10394000D00F00E00093770FE2E6FFE000811181E5
:10395000E2E9FEE001AB12ABE8EEFEE0008311838A
:103960000091190F002311F401E001C000E0009361
:10397000E00E0E945515AEDD0091070C002309F002
:10398000ADC0E2E9FEE020893189E9E7FEE000818F
:103990001181200F311F283E03E0300714F027EE7D
:1039A00033E00BE41DE0EAEBF7E000831183F8015C
:1039B000008533235AF41AE0EAEBF7E04081F18105
:1039C000E42F108731952195304007C01BE0EAEBCA
:1039D000F7E04081F181E42F1087C901EAEBF7E0BD
:1039E00020813181F9011085011719F089010E94A8
:1039F000F40D04E51DE0EAEBF7E00083118344E6F3
:103A000050E08C010E94574C202F04E6029F801941
:103A10009109EAEB00811181F80100854091BA0714
:103A2000512F2087021719F08A010E94F40D06E633
:103A30001DE0EAEBF7E000831183F80100851CE04C
:103A4000EAEBF7E020813181F90110870C3019F0A1
:103A500089010E94F40D0DE51DE0EAEBF7E000831B
:103A600011834AE050E08C010E94574C202F0AE05D
:103A7000029F8019EAEB00811181F80100854091D5
:103A8000BA07512F2087021719F08A010E94F40DFE
:103A90000FE61DE0EAEBF7E000831183F8010085F3
:103AA0002091BA078087081719F0022F0E94F40DA1
:103AB00008E71DE0EAEBF7E000831183E091BA0725
:103AC000FDE000851FE0EAEBF7E020813181F9019C
:103AD00010870F3019F089010E94F40DE2E6FFE033
:103AE00020813181E9E7FEE000811181200F311F43
:103AF0000AE81DE0EAEBF7E000831183F801008596
:103B00005AF41AE0EAEBF7E04081F181E42F1087E4
:103B100031952195304007C01BE0EAEBF7E040818A
:103B2000F181E42F1087C901EAEBF7E020813181B0
:103B3000F9011085011719F089010E94F40D03E9BC
:103B40001DE0EAEBF7E00083118344E650E08C01CE
:103B50000E94574C202F04E6029F80199109EAEB3E
:103B600000811181F80100854091BA07512F20870B
:103B7000021719F08A010E94F40D05EA1DE0EAEB34
:103B8000F7E000831183F80100851CE0EAEBF7E021
:103B900020813181F90110870C3019F089010E94D0
:103BA000F40D0CE91DE0EAEBF7E0008311834AE035
:103BB00050E08C010E94574C202F0AE0029F801990
:103BC000EAEB00811181F80100854091BA07512F7D
:103BD0002087021719F08A010E94F40D0EEA1DE0F9
:103BE000EAEBF7E000831183F80100852091BA0722
:103BF0008087081719F0022F0E94F40D07EB1DE0D3
:103C0000EAEBF7E000831183E091BA07FDE000855D
:103C10001FE0EAEBF7E020813181F90110870F30D6
:103C200019F089010E94F40DE0EBF7E0008103FF39
:103C300070C0077F008360E352E040E026E13FE090
:103C40000DEB17E00E94164723E032E00DEB17E082
:103C50000E94D94860E352E040E027E13FE005EEF2
:103C600017E00E94164725EE37E00DEB17E00E94A3
:103C7000D94825E032E00DEB17E00E94D94860E317
:103C800052E040E028E13FE005EE17E00E941647D1
:103C900025EE37E00DEB17E00E94D94829E032E02D
:103CA0000DEB17E00E94D94860E352E040E024E1C8
:103CB0003FE005EE17E00E94164700919B0725EEB6
:103CC00037E000FF07C00DEB17E00E94D9482BE05A
:103CD00032E006C00DEB17E00E94D94829E032E03F
:103CE0000DEB17E00E94D94860E352E040E023E189
:103CF0003FE005EE17E00E94164725EE37E00DEB9A
:103D000017E00E94D94832E02EE00DEB17E00E9448
:103D1000650B89919991089522970E94360400912C
:103D20001705002319F0043009F031C1009118057E
:103D3000002351F500911405013031F500E00093A6
:103D40001405E2E5F3E0028113810F7D1F73013852
:103D50001C40D1F4E8ECFFE000811181012BA1F4BB
:103D600042E050E02BE533E08E010E94DD4E4091B1
:103D70005D0350E02EE533E06881798102E91EE0C1
:103D8000060F171F0E94DD4E0091D30F002309F08C
:103D9000FEC000914D03002329F000934C0300E086
:103DA00000934D030091BC07002341F000E0009315
:103DB000BC070E94581504E600934C0300911105BE
:103DC0000023D9F000E00093110507EE13E0ECE7C3
:103DD000F4E045E950E00E94C44E01E00093130571
:103DE000409316050093170540931405409315055D
:103DF0004093180540931905CAC0E8EAFFE0008126
:103E00001181012B09F0C3C000914C03063608F064
:103E1000BBC0F0E0FBBFF2E00F9FF001E650FF4FA8
:103E200007901690F0010994ECE4F3E00395008309
:103E300004E60093D30F16E020EA3EE000919D02D5
:103E40000E94A702A4C0ECE4F3E00395008304E61B
:103E50000093D30F17E022E13FE0F0CFECE4F3E072
:103E60000395008304E60093D30F17E122E63FE0B9
:103E7000E5CFECE4F3E00395008304E60093D30F71
:103E800011E029E13FE0DACFECE4F3E003950083B1
:103E900004E60093D30F1DE225E33FE0CFCF12E00D
:103EA00023EC3EE000E00E944702ECE4F3E00081F6
:103EB000039500830AE00093D30F69C012E028EE57
:103EC0003EE0F0CF11E020EE3EE000919D02EBCF0E
:103ED00011E025E03FE0F9CF00E00093770F11E01B
:103EE00027E73FE0F2CF11E024E63FE000E00E9448
:103EF0004702ECE4F3E00081065FDBCF12E0F4CF91
:103F000011E027E73FE0F2CF12E022E63FE0EECFFC
:103F100011E029E13FE0EACF4DE250E020E030E05F
:103F200005E31FE00E94EB4E1DE225E33FE0DECFFC
:103F300011E024E63FE000E00E94470200E0009329
:103F40004C03B8CF12E0F5CF11E027E73FE0F3CF05
:103F500012E022E63FE0EFCF11E029E13FE0EBCFB6
:103F60004DE250E020E030E005E31FE00E94EB4E20
:103F70001DE225E33FE0DFCF17E122E63FE0A5CFDA
:103F800011E029E13FE0A1CF00E000934C0322962D
:103F9000089500919D020E9402020AE00093D30F4F
:103FA000089505E010E0E7E6FFE0008311830AE0F2
:103FB000E9E6FFE00083118304E1EBE6FFE0008324
:103FC000118302E0EDE6FFE00083118301E0EFE6FC
:103FD000FFE0008311831AE027E63FE000E00E9443
:103FE00047020AE00093D30F089500E000935003C6
:103FF00000934C0300934D0300E11CE0E8EDFEE963
:1040000030E04FE050E00E94CF4E0FE11CE0E9ECC1
:10401000FEE930E04FE00E94CF4E0EE21CE0EAEBFA
:10402000FEE930E04FE00E94CF4E0DE31CE0EBEAEA
:10403000FEE930E04FE00E94CF4E0CE41CE0ECE9DA
:10404000FEE930E04FE00E94CF4E0BE51CE0E8E2D5
:10405000F0EA30E04FE00E94CF4E0AE61CE0E7E3D2
:10406000F0EA30E04FE00E94CF4E09E71CE0E4E6C2
:10407000F0EA30E04FE00E94CF4E08E81CE0E5E5B2
:10408000F0EA30E04FE00E94CF4E07E91CE0E6E4A2
:10409000F0EA30E04FE00E94CF4E06EA1CE0E3E792
:1040A000F0EA30E04FE00E94CF4E01E00093240C94
:1040B00008958A9380E009C029E0289F0BE41DE061
:1040C000000D111D0E94E90F8395009121028017B8
:1040D00098F30E94FA0B89910895E2EBFFE00081CA
:1040E0001181012B21F404EF11E000831183089565
:1040F0000E94360400911705002319F0043009F0DE
:1041000098C0009118050023E9F5009114050130CD
:10411000C9F500E000931405E2E5F3E002811381A4
:1041200046E00E94514C0E5219F0045071F02AC022
:10413000E8ECFFE000811181012B21F54FE050E018
:104140002BE533E009E11FE01BC0E8ECFFE0008154
:104150001181012BB9F442E050E02BE533E002EA93
:104160001FE00E94DD4E40915D0350E02EE533E0FC
:10417000E2EAFFE06081718102E91EE0060F171F8D
:104180000E94DD4E0091D30F002309F052C0009130
:104190004D03002329F000934C0300E000934D03EE
:1041A000009111050023D9F000E00093110507EEFE
:1041B00013E0ECE7F4E045E950E00E94C44E01E072
:1041C00000931305409316050093170540931405BB
:1041D0004093150540931805409319050895E8EAA2
:1041E000FFE000811181012B21F500914C03002398
:1041F00019F0025069F01AC01FE029E13FE0009178
:104200009D020E94A70200E000934C0304E60BC04D
:104210001FE029E13FE000919D020E94470200E07B
:1042200000934C0302E30093D30F089500E0009342
:104230004C0308950E944D0B02E300934D03089533
:1042400002E00093500300E000934C0300934D0301
:1042500000E11CE0E8EDFEE930E04FE050E00E94B4
:10426000CF4E0FE11CE0E9ECFEE930E04FE00E94A8
:10427000CF4E0EE21CE0EAEBFEE930E04FE00E9498
:10428000CF4E0DE31CE0EBEAFEE930E04FE00E9488
:10429000CF4E0CE41CE0ECE9FEE930E04FE00E9478
:1042A000CF4E0BE51CE0E3E6F1EA30E04FE00E9480
:1042B000CF4E01E00093330C08958A9380E009C04B
:1042C00029E0289F0BE41DE0000D111D0E94E90F5D
:1042D000839500912102801798F30E94FA0B0E94A7
:1042E0004D0B899108959A938A932197E2EBFFE011
:1042F00000811181012B09F002C104EF11E000835C
:104300001183EAE5F7E00081118122813381012BDD
:10431000022B032B09F0F3C00091070C002309F0D6
:10432000EEC080E093E0282F09E0029FF001EB5CF3
:10433000F04F00811181012B09F4D2C060E352E0FB
:1043400040E02BE33FE0200D311D02E317E00E9427
:1043500016470FE20093340700E000933507392F2A
:1043600020E002E317E00E94650B60E352E040E0CA
:104370002CE33FE0282E09E0029D200D311D02E3D1
:1043800017E00E9416470FE20093340700E0009305
:104390003507392F23E002E317E00E94650B60E345
:1043A00052E040E02DE33FE0282E09E0029D200D81
:1043B000311D02E317E00E941647392F26E002E381
:1043C00017E00E94650B60E352E040E029E33FE024
:1043D000282E09E0029D200D311D02E317E00E9406
:1043E00016470AE30093340700E000933507392F9E
:1043F00029E002E317E00E94650B60E352E040E031
:1044000028E33FE0282E09E0029D200D311D02E344
:1044100017E00E9416470AE30093340700E0009378
:104420003507392F2CE002E317E00E94650B60E3AB
:1044300052E040E027E33FE0282E09E0029D200DF6
:10444000311D02E317E00E941647392F2FE002E3E7
:1044500017E00E94650B282F09E0029FF001EB5C3A
:10446000F04F0181088360E352E040E09E0102E3E7
:1044700017E00E941647392F22E102E317E00E945D
:10448000650B282F09E0029FF001EB5CF04F0081E3
:10449000088360E352E040E09E0102E317E00E94DF
:1044A0001647392F25E102E317E00E94650B492FDB
:1044B000439530E0682F09E0069FF001EB5CF04F78
:1044C0001181012F110F110B69E1619F702D609F08
:1044D000710D02E810EA20E0000D171F0E948D0BFD
:1044E000282F09E0029FF001EB5CF04F0081118161
:1044F000012B29F083959E5F853008F414CF219617
:104500008991999108950E9436040091170500231E
:1045100019F0043009F09CC0009118050023C1F582
:10452000009114050130A1F500E000931405E2E5C7
:10453000F3E00281138146E00E94514C065101F1E3
:104540000C5131F5E8ECFFE000811181012B01F500
:1045500042E050E02BE533E002EA1FE00E94DD4E2E
:1045600040915D0350E02EE533E0E2EAFFE0608138
:10457000718102E91EE0060F171F0E94DD4E08C080
:1045800005E31FE0EBE5F3E04DE250E00E94C44E8E
:104590000091D30F002309F05BC000914D0300236D
:1045A00029F000934C0300E000934D0300911105A6
:1045B0000023D9F000E00093110507EE13E0ECE7CB
:1045C000F4E045E950E00E94C44E01E00093130579
:1045D0004093160500931705409314054093150565
:1045E00040931805409319050895E8EAFFE000811B
:1045F0001181012B69F500914C03002319F002533E
:1046000071F023C0ECE4F3E0039500831DE225E3A1
:104610003FE000919D020E94A70204E613C04DE214
:1046200050E020E030E005E31FE00E94EB4E00E0A8
:1046300000934C031DE225E33FE000919D020E94A0
:10464000470202E30093D30F089500E000934C0368
:1046500008958A93229742E030E002E711EA20E0D1
:104660000E948D0B00E00093BD0780E007C028E3A7
:1046700032E00DEB17E00E94D94883950091920E2D
:104680008017C8F4E2E9FEE00480158026803780B8
:10469000482F01E010E00E944B4C212F220F220BEB
:1046A0000022112222223222012802280328F9F2B4
:1046B00025E332E0DECF32E023E00DEB17E00E948D
:1046C000650B43E030E006E811EA20E00E948D0B24
:1046D00000E00093BD0780E013C028E332E00DEB5B
:1046E00017E00E94D9480091FD07081741F40DEB2F
:1046F00017E00E94444F13E003950E94FD0A839542
:104700000091930E8017C8F4E2E9FEE00084118462
:1047100022843384482F01E010E00E944B4C212F6B
:10472000220F220B002211222222322201280228EB
:10473000032899F225E332E0D2CF33E023E00DEBFA
:1047400017E00E94650B44E030E00AE911EA20E03E
:104750000E948D0B00E00093BD0780E029C0282F48
:1047600030E00091950E200F331F220F331FF90107
:10477000EE56F14F04851585088319830881083E9C
:1047800023E013401CF007EE088329839E0105EE09
:1047900017E00E946E4725EE37E00DEB17E00E9410
:1047A000D9482BE332E00DEB17E00E94D9488395FE
:1047B0000091940E801798F234E023E00DEB17E09F
:1047C0000E94650B45E030E00EEA11EA20E00E940D
:1047D0008D0B00E00093BD0780E02AC02EE93EE08B
:1047E00002E0809F200D311D05EE17E00E94154864
:1047F00025EE37E00DEB17E00E94D9482091FD0728
:1048000030E00091930E10E0080F131F20173107BE
:1048100041F40DEB17E00E94444F15E00E5F0E943B
:10482000FD0A2BE332E00DEB17E00E94D948839597
:104830000091950E801790F235E023E00DEB17E024
:104840000E94650B2091930E30E00091950E200F91
:10485000331F0091FD072017304044F40091930E60
:104860001091950E010F0A950093FD0722968991EC
:1048700008958A932297802F023008F0CCC200E07E
:104880000093BD0742EC51EA60E00DEB17E00E9497
:10489000EE4840E02CEB3EE005E2089F200D311D84
:1048A00005EE17E00E94BB4625EE37E00DEB17E062
:1048B0000E94D9482DE332E00DEB17E00E94D94861
:1048C0002EE93EE005E2089FF001EE56F14F42A5C9
:1048D00050E00091950E400F551F440F551F240FB7
:1048E000351F05EE17E00E946E4725EE37E00DEB11
:1048F00017E00E94D94832E020E00DEB17E00E945B
:10490000650B0091FD07002321F412E003E00E94F3
:10491000FD0A00E00093BD0746ED51EA60E00DEBB3
:1049200017E00E94EE4840E02BEC3EE005E2089FD5
:10493000200D311D05EE17E00E94BB4625EE37E045
:104940000DEB17E00E94D94833E020E00DEB17E0B3
:104950000E94650B0091FD07013021F413E005E092
:104960000E94FD0A00E00093BD074AEE51EA60E0B4
:104970000DEB17E00E94EE4823EC3EE005E2089FB5
:10498000200D311D05EE17E00E946E4725EE37E041
:104990000DEB17E00E94D94834E020E00DEB17E062
:1049A0000E94650B0091FD07023039F40DEB17E012
:1049B0000E94444F14E00E94FD0A00E00093BD07EE
:1049C00042E152EA60E00DEB17E00E94EE4825EC70
:1049D0003EE005E2089F200D311D05EE17E00E9424
:1049E000154825EE37E00DEB17E00E94D94835E079
:1049F00020E00DEB17E00E94650B0091FD070330EE
:104A000039F40DEB17E00E94444F15E00E94FD0AB7
:104A100000E00093BD0746E252EA60E00DEB17E0CC
:104A20000E94EE4840E02DEB3EE005E2089F200D9D
:104A3000311D05EE17E00E94644625EE37E00DEBD0
:104A400017E00E94D94836E020E00DEB17E00E9405
:104A5000650B0091FD07043039F40DEB17E00E945F
:104A6000444F16E00E94FD0A00E00093BD074AE7AC
:104A700053EA60E00DEB17E00E94EE4840E020EEC4
:104A80003EE005E2089F200D311D05EE17E00E9473
:104A9000BB4625EE37E00DEB17E00E94D94836E023
:104AA00020E10DEB17E00E94650B00E00093BD07CD
:104AB0004AE352EA60E00DEB17E00E94EE4840E066
:104AC00021EC3EE005E2089F200D311D05EE17E0C8
:104AD0000E94644625EE37E00DEB17E00E94D948AE
:104AE00037E020E00DEB17E00E94650B0091FD0719
:104AF000053039F40DEB17E00E94444F17E00E9497
:104B0000FD0A00E00093BD074EE452EA60E00DEBC1
:104B100017E00E94EE4827EC3EE005E2089F200DDA
:104B2000311D05EE17E00E94154825EE37E00DEB2C
:104B300017E00E94D94838E020E00DEB17E00E9412
:104B4000650B0091FD07063039F40DEB17E00E946C
:104B5000444F18E00E94FD0A00E00093BD0742E6C2
:104B600052EA60E00DEB17E00E94EE4829EC3EE0CF
:104B700005E2089F200D311D05EE17E00E94154843
:104B800025EE37E00DEB17E00E94D94839E020E030
:104B90000DEB17E00E94650B0091FD07073039F41B
:104BA0000DEB17E00E94444F19E00E94FD0A00E05F
:104BB0000093BD0746E752EA60E00DEB17E00E9464
:104BC000EE4820ED3EE005E2089F200D311D05EE88
:104BD00017E00E94154825EE37E00DEB17E00E9424
:104BE000D9483AE020E00DEB17E00E94650B0091F8
:104BF000FD07083039F40DEB17E00E94444F1AE02E
:104C00000E94FD0A00E00093BD074AE852EA60E016
:104C10000DEB17E00E94EE4840E02EEC3EE005E28E
:104C2000089F200D311D05EE17E00E94644625EE19
:104C300037E00DEB17E00E94D9483BE020E00DEB98
:104C400017E00E94650B0091FD07093039F40DEB68
:104C500017E00E94444F1BE00E94FD0A05E2089FF6
:104C6000F001EC52F14F008111812281338140E04B
:104C700050E06AE774E40E94B14D0E94FE4C088344
:104C8000198300E00093BD074EE952EA60E00DEBA6
:104C900017E00E94EE4840E09E0105EE17E00E94FA
:104CA000644625EE37E00DEB17E00E94D9483CE062
:104CB00020E00DEB17E00E94650B0091FD070A3024
:104CC00039F40DEB17E00E94444F1CE00E94FD0AEE
:104CD00005E2089FF001E852F14F00811181228125
:104CE000338140E050E06AE774E40E94B14D0E94D5
:104CF000FE4C0883198300E00093BD0742EB52EAA3
:104D000060E00DEB17E00E94EE4840E09E0105EEEA
:104D100017E00E94644625EE37E00DEB17E00E9495
:104D2000D9483CE02CE00DEB17E00E94650B0091A8
:104D3000FD070B3041F40DEB17E00E94444F1CE0DF
:104D4000045F0E94FD0A05E2089FF001E452F14F62
:104D5000008111810883198300E00093BD0746ECB0
:104D600052EA60E00DEB17E00E94EE4840E09E0141
:104D700005EE17E00E94644625EE37E00DEB17E0E4
:104D80000E94D9483DE020E00DEB17E00E94650B42
:104D90000091FD070C3039F40DEB17E00E94444FF1
:104DA0001DE00E94FD0A05E2089FF001E252F14F6A
:104DB000008111810883198300E00093BD074AED4B
:104DC00052EA60E00DEB17E00E94EE4840E09E01E1
:104DD00005EE17E00E94644625EE37E00DEB17E084
:104DE0000E94D9483DE02CE00DEB17E00E94650BD6
:104DF0000091FD070D3041F40DEB17E00E94444F88
:104E00001DE0045F0E94FD0A0091FD070E3018F0BE
:104E10000DE00093FD07229689910895002309F083
:104E2000A4C100E00093BD0742EC51EA60E00DEB45
:104E300017E00E94EE4840E028E73FE005EE17E06B
:104E40000E94BB4625EE37E00DEB17E00E94D948E3
:104E50002DE332E00DEB17E00E94D94820EA3EE056
:104E60000091780F12E0019F200D311D05EE17E033
:104E70000E946E4725EE37E00DEB17E00E94D948FF
:104E800032E020E00DEB17E00E94650B0091FD077A
:104E9000002321F412E003E00E94FD0A00E00093E9
:104EA000BD0746ED51EA60E00DEB17E00E94EE48C9
:104EB00040E024E63FE005EE17E00E94BB4625EE09
:104EC00037E00DEB17E00E94D94833E020E00DEB0E
:104ED00017E00E94650B0091FD07013021F413E0FB
:104EE00005E00E94FD0A00E00093BD074AEE51EA8A
:104EF00060E00DEB17E00E94EE4822E63FE005EE91
:104F000017E00E946E4725EE37E00DEB17E00E9498
:104F1000D94834E020E00DEB17E00E94650B0091CA
:104F2000FD07023039F40DEB17E00E94444F14E006
:104F30000E94FD0A00E00093BD0742E553EA60E0ED
:104F40000DEB17E00E94EE4840E025E63FE005EE5D
:104F500017E00E94BB4625EE37E00DEB17E00E94FC
:104F6000D94835E020E00DEB17E00E94650B009179
:104F7000FD07033039F40DEB17E00E94444F15E0B4
:104F80000E94FD0A00E00093BD074EEE52EA60E089
:104F90000DEB17E00E94EE4827E63FE005EE17E034
:104FA0000E946E4725EE37E00DEB17E00E94D948CE
:104FB00036E020E00DEB17E00E94650B0091FD0745
:104FC000043039F40DEB17E00E94444F16E00E94C4
:104FD000FD0A00E00093BD0742E053EA60E00DEBFC
:104FE00017E00E94EE4829E63FE005EE17E00E9438
:104FF0006E4725EE37E00DEB17E00E94D94837E009
:1050000020E00DEB17E00E94650B0091FD070530D5
:1050100039F40DEB17E00E94444F17E00E94FD0A9F
:1050200000E00093BD0746E153EA60E00DEB17E0B6
:105030000E94EE482BE63FE005EE17E00E946E4727
:1050400025EE37E00DEB17E00E94D94838E020E06C
:105050000DEB17E00E94650B0091FD07063039F457
:105060000DEB17E00E94444F18E00E94FD0A00E09B
:105070000093BD074AE253EA60E00DEB17E00E949F
:10508000EE482DE63FE005EE17E00E946E4725EE64
:1050900037E00DEB17E00E94D94839E020E00DEB36
:1050A00017E00E94650B0091FD07073039F40DEB06
:1050B00017E00E94444F19E00E94FD0A00E00093AF
:1050C000BD0746E653EA60E00DEB17E00E94EE48AC
:1050D00040E02FE63FE005EE17E00E94644625EE33
:1050E00037E00DEB17E00E94D9483AE020E00DEBE5
:1050F00017E00E94650B0091FD07083039F40DEBB5
:1051000017E00E94444F1AE00E94FD0A00E000935D
:10511000BD074EE353EA60E00DEB17E00E94EE4856
:1051200040E027E73FE005EE17E00E94BB4625EE92
:1051300037E00DEB17E00E94D9483BE020E00DEB93
:1051400017E00E94650B0091FD07093039F40DEB63
:1051500017E00E94444F1BE00E94FD0A0091FD07EA
:10516000093018F008E00093FD0708950091FC074E
:10517000002349F00A9541F00A9541F00A9551F053
:105180000A9551F0089565CA00E001C001E000935E
:10519000F9076FCB00E001C001E00093FA073ECEB3
:1051A0000091FC07002369F00A9509F44AC00A95AA
:1051B00009F45FC00A9509F481C00A9509F4AFC0EB
:1051C000089501E000934D030091600C013041F01F
:1051D00001E00093600C20E00BE51CE00E94A20CB3
:1051E00000916F0C002341F000E000936F0C20E071
:1051F0000AE61CE00E94A20C00917E0C002341F004
:1052000000E000937E0C20E009E71CE00E94A20C65
:1052100000918D0C002341F000E000938D0C20E004
:1052200008E81CE00E94A20C00919C0C002309F4E9
:10523000B8C000E000939C0C20E007E91CE00C944F
:10524000A20C02E000934D0300E00093F9070091E7
:10525000600C002341F000E00093600C20E00BE5BF
:105260001CE00E94A20C00916F0C013029F201E0B9
:10527000BCCF03E000934D0301E00093F9070091D8
:10528000600C002341F000E00093600C20E00BE58F
:105290001CE00E94A20C00916F0C002341F000E082
:1052A00000936F0C20E00AE61CE00E94A20C009123
:1052B0007E0C013009F4ACCF01E0A3CF04E00093F1
:1052C0004D0300E00093FA070091600C002341F0C9
:1052D00000E00093600C20E00BE51CE00E94A20CB3
:1052E00000916F0C002341F000E000936F0C20E070
:1052F0000AE61CE00E94A20C00917E0C002341F003
:1053000000E000937E0C20E009E71CE00E94A20C64
:1053100000918D0C013009F487CF01E07ECF05E0CC
:1053200000934D0301E00093FA070091600C002305
:1053300041F000E00093600C20E00BE51CE00E94CF
:10534000A20C00916F0C002341F000E000936F0C61
:1053500020E00AE61CE00E94A20C00917E0C0023D3
:1053600041F000E000937E0C20E009E71CE00E9481
:10537000A20C00918D0C002341F000E000938D0CF5
:1053800020E008E81CE00E94A20C00919C0C013077
:1053900041F001E000939C0C20E007E91CE00E9432
:1053A000A20C089500E00093FC074AE250E020E0E0
:1053B00030E002E91EE00E94EB4EF2DE00E00093D6
:1053C000FD070093FE07089501E00093FC07E8CE77
:1053D00002E00093FC07E4CE03E00093FC07E0CE7C
:1053E00004E00093FC07DCCE0091FD07002321F0D0
:1053F000EDEFF7E00A9500830091280F002309F0F4
:10540000B5DE08950091FD07043620F4EDEFF7E0D6
:1054100003950083F1CFBA93AA930091280F00233C
:1054200009F46EC20091FC07002349F00A9509F4C3
:1054300041C00A95F9F10A9509F4D7C160C20091FB
:10544000FD071091930E0117E8F44091FD0701E06C
:1054500010E00E944B4C212F220F220BE2E9FEE0CC
:1054600040855185628573854027512762277227C1
:10547000408751876287738700914C030093FB0735
:105480000AE035C209F03BC2E2E9FEE00485158579
:105490000E3D23E0120728F4065F1F4F048715878F
:1054A00003C007EE0487258700914C030093FB0798
:1054B0000BE01DC20091FC070A950093F9070091CB
:1054C000FD070E3008F08BC1F0E0FBBFF2E00F9F4C
:1054D000F001EA53FE4F07901690F00109942091D5
:1054E000F90705E2029FF001EE56F14F02A50230E6
:1054F00008F075C1F001EE56F14F039502A76FC198
:105500002091F90705E2029FF001EE56F14F01AD3F
:10551000013009F464C121E0F001EE56F14F21AFF2
:105520005EC12091F90705E2029FF001EE56F14FAE
:1055300001A912A9043F11404CF4F001EE56F14FBD
:1055400012A90F5F1F4F01AB12AB49C124EF31E02D
:10555000F001EE56F14F21AB32AB41C12091F9077A
:1055600005E2029FF001EE56F14F03A914A90E3D8A
:1055700013404CF4F001EE56F14F14A9065F1F4F93
:1055800003AB14AB2CC127EE33E0F001EE56F14F24
:1055900023AB34AB24C12091F90705E2029FF0014F
:1055A000EE56F14F03A514A50E3D13404CF4F00147
:1055B000EE56F14F14A5065F1F4F03A714A70FC1A6
:1055C00027EE33E0F001EE56F14F23A734A707C1D1
:1055D0002091F90705E2029FF001EE56F14F07A571
:1055E00010A90E3D13404CF4F001EE56F14F10A9F6
:1055F000065F1F4F07A710ABF2C027EE33E0F001A4
:10560000EE56F14F27A730ABEAC02091F90705E22B
:10561000029FF001EE56F14F05A916A90E3D134069
:105620004CF4F001EE56F14F16A9065F1F4F05AB83
:1056300016ABD5C027EE33E0F001EE56F14F25ABA7
:1056400036ABCDC02091F90705E2029FF001EE567E
:10565000F14F07A910AD0E3D13404CF4F001EE568A
:10566000F14F10AD065F1F4F07AB10AFB8C027EE6C
:1056700033E0F001EE56F14F27AB30AFB0C02091D0
:10568000F90705E2029FF001E053F14F008111811B
:105690000E3D13404CF4F001E053F14F1181065FD1
:1056A0001F4F008311839BC027EE33E0F001E053CE
:1056B000F14F93C02091F90705E2029FF001E253F8
:1056C000F14F00811181043F114030F4F001E253A9
:1056D000F14F11810F5FE4CF24EF31E0F001E2538D
:1056E000F14F7BC02091F90705E2029FF001EC52D7
:1056F000F14F008111812281338146E656E666E64C
:105700007FE30E94A44E90F44FE652E163E87AE30F
:105710000E94504D6091F90745E2469FF001EC521E
:10572000F14F008311832283338359C0F001EC527F
:10573000F14F408341834283738351C02091F90725
:1057400005E2029FF001E852F14F008111812281B0
:10575000338146E656E666E67FE30E94A44E70F487
:105760004FE652E163E87AE30E94504D6091F907F9
:1057700045E2469FF001E852F14FD3CFF001E852E5
:10578000F14FD7CF2091F90705E2029FF001E452D3
:10579000F14F00811181073E134020F4F001E452E3
:1057A000F14F97CF27EE33E0F001E452F14F15C0EF
:1057B0002091F90705E2029FF001E252F14F0081CA
:1057C0001181073E134020F4F001E252F14F81CFE6
:1057D00027EE33E0F001E252F14F20833183009154
:1057E0004C030093FB0704E182C000E00093FA073A
:1057F0000091FD070023C1F00A9501F10A9539F1E6
:105800000A95B1F10A95F9F10A9509F445C00A958E
:1058100009F44BC00A9509F44BC00A9509F44BC032
:105820000A9509F458C05EC00091780F023008F064
:1058300059C0E8E7FFE00395008354C00091640F6E
:10584000013009F44FC001E00093640F4BC0E2E661
:10585000FFE000811181043F21E012072CF40F5F6B
:105860001F4F008311833EC004EF008321833AC0A1
:105870000091650F033018F4E5E6FFE0DCCF03E0AC
:105880000093650F2FC0E7E6FFE000811181043F20
:1058900021E012074CF7E3CFE9E6FFE00081118138
:1058A000043F21E01207DCF2DFCFEBE6FFE0EDCFB3
:1058B000EDE6FFE0EACFAFE6BFE0ED91FC913A976D
:1058C00028F4EFE6FFE000811181C9CF0AE010E083
:1058D000EFE6FFE0C6CF0091770F013019F001E04D
:1058E0000093770F00914C030093FB0705E10093B1
:1058F0004D0308EC10E0E8ECFFE00083118336DC98
:10590000A991B9910895BA93AA939A938A93009111
:10591000280F002309F48CC20091FC07002351F0EA
:105920000A9509F446C00A9509F443C00A9509F49A
:10593000DEC17DC20091FD071091930E0117E8F4BE
:105940004091FD0701E010E00E944B4C212F220FF7
:10595000220BE2E9FEE04085518562857385402790
:10596000512762277227408751876287738700918A
:105970004C030093FB070AE052C209F058C2AEE99B
:10598000BEE0ED91FC913A9748F0E2E9FEE0048533
:1059900015850A5010400487158705C000E0E2E92C
:1059A000FEE00487058700914C030093FB070BE0A2
:1059B00036C20091FC070A950093F9070091FD0794
:1059C0000E3008F08EC1F0E0FBBFF2E00F9FF00157
:1059D000EE51FE4F07901690F00109942091F907BF
:1059E00005E2029FF001EE56F14F02A5002309F4F3
:1059F00078C1F001EE56F14F0A9502A772C12091CD
:105A0000F90705E2029FF001EE56F14F01AD0023C8
:105A100009F467C120E0F001EE56F14F21AF61C1FA
:105A20002091F90705E2029FF001EE56F14F01A91E
:105A300012A90D3810404CF0F001EE56F14F12A9AA
:105A40000150104001AB12AB4CC12CE830E0F0012A
:105A5000EE56F14F21AB32AB44C12091F90705E27C
:105A6000029FF001EE56F14F83A994A98B3090402C
:105A700054F0F001EE56F14F082F14A90A501040CF
:105A800003AB14AB2EC120E0F001EE56F14F23AB77
:105A900024AB27C12091F90705E2029FF001EE56E1
:105AA000F14F83A594A58B30904054F0F001EE5651
:105AB000F14F082F14A50A50104003A714A711C1D5
:105AC0002AE030E0F001EE56F14F23A734A709C1D8
:105AD0002091F90705E2029FF001EE56F14F87A5EC
