:020000021000EC
:10E000000C9497FB189518951895189518951895D0
:10E010001895189518951895189518951895189598
:10E020001895189518951895189518951895189588
:10E030000C9405FA18951895189518951895189533
:10E040001895189518951895189518951895189568
:10E050001895189518951895189518951895189558
:10E060001895189518951895189518951895189548
:10E070001895189518951895189518951895189538
:10E08000189518951895189518951895EF0300018F
:10E090009AE001F303EF040000006E6F636F6D6D93
:10E0A000000A0D2041766169626C6520636F6D6DB9
:10E0B000616E64732E2E2E0A0D20202020202064F5
:10E0C0006F776E6C6F61642061746D656C20202DBC
:10E0D0002D20446F776E6C6F6164696E6720617488
:10E0E0006D656C206170706C69636174696F6E201E
:10E0F000696D6167650A0D202020202020646F77FC
:10E100006E6C6F616420616C74657261202D2D20CE
:10E11000446F776E6C6F6164696E6720616C7465C3
:10E120007261206170706C69636174696F6E2069DF
:10E130006D6167650A0D20202020202072657365BF
:10E140007420202020202020202020202D2D20532E
:10E150007461727420746F2061746D656C206170DD
:10E16000706C69636174696F6E0A0D3E000A0D2060
:10E1700042616420636F6D6D616E642E2E2E0A0DF8
:10E180003E000A0D20526573657474696E672E2E09
:10E190002E000A0D205465737420636F6D706C65DA
:10E1A00074652E2E2E0A0D3E000A0D2054657374E0
:10E1B0002E2E2E0A0D000A0D20526561647920660C
:10E1C0006F7220646F776E6C6F6164696E6720692F
:10E1D0006D6167652E2E2E000A0D20446F776E6CE0
:10E1E0006F6164206572726F72210A0D3E000A0D24
:10E1F00020446F776E6C6F61642069732073756360
:10E200006365737366756C20636F6D706C657465A0
:10E210002E2E2E0A0D3E000A0D20526561647920D3
:10E22000666F7220646F776E6C6F6164696E6720D1
:10E2300041746D656C206170706C69636174696FA5
:10E240006E20696D6167652E2E2E00000A0D3E005E
:10E2500074657374000000000000000000000000FE
:10E2600000000000646F776E6C6F61640000000056
:10E27000000000000000000061746D656C0000008B
:10E2800000000000000000000000000070696374DE
:10E290007572650000000000000000000000000032
:10E2A000726573657400000000000000000000004B
:10E2B00000000000010A0D3E002E000A0D0A0D208C
:10E2C000546F20656E74657220636F6E736F6C653A
:10E2D000207072657373204573630A0D20546F209C
:10E2E000636F6E74696E7565207072657373204517
:10E2F0006E7465720A0D20446576696365207769DE
:10E300006C6C20737461727420757020696E20319A
:10E3100020736563000A0D000A0D2050696374754F
:10E32000726520666C61736820696D616765204362
:10E330005243206572726F722E2E2E200A0D2050CD
:10E340006C656173652C20646F776E6C6F616420FF
:10E35000636F72726563742066696C652E2E000AA5
:10E360000D205069637475726520666C6173682056
:10E37000696D61676520435243204F6B20000A0D91
:10E3800020436865636B696E67207069637475729A
:10E390006520666C6173682E2E2E000A0D20417078
:10E3A000706C69636174696F6E20666C617368205C
:10E3B000696D61676520435243206572726F722EEA
:10E3C0002E2E200A0D20506C656173652C20646F21
:10E3D000776E6C6F616420636F7272656374206620
:10E3E000696C652E2E000A0D20000A0D2041707008
:10E3F0006C69636174696F6E20666C617368206913
:10E400006D61676520435243204F6B20000A0D2049
:10E41000436865636B696E67204170706C69636106
:10E4200074696F6E20666C6173682E2E2E000A0D63
:10E430000A0D20426F6F74204C6F61646572205624
:10E4400065722E3034204E6F76656D6265722032B3
:10E450003030370A0D20537570706F72742041444C
:10E460004D37303620616E642041746D65676131CF
:10E47000323820776861746368646F672061726501
:09E480002061646465640A0D006A
:10E48A0000E00093900001E109B908E10AB90EE041
:10E49A000093950000E20CB90FEE14E0E7E3F7E011
:10E4AA000083118300E00093EF0400E000937F06ED
:10E4BA000FE716E0E3E9F6E00083118305E916E0C9
:10E4CA00E5EEF6E00083118300E00093950600E094
:10E4DA000093E70600E010E0EAE3F7E00083118327
:10E4EA0008955B2F6A2FD80100E003C02F5F3F4FCA
:10E4FA0001E0F9011081112309F1002399F0F901D2
:10E50A0000810E5619F0045039F00BC00DE00C933F
:10E51A0011962F5F3F4F05C00AE00C9311962F5FAB
:10E52A003F4F00E0F90110811C5501F3F9011081F8
:10E53A00FD01108311962F5F3F4FDBCF00E00C9354
:10E54A00A62FB52F0895BA93AA935E9B24C0A7E37A
:10E55A00B7E0ED91FC9100810023A1F001E010E009
:10E56A000E947AFA5E9AA7E3B7E0ED91FC910081E6
:10E57A000CB9E7E3F7E0008111810F5F1F4F0083B9
:10E58A00118309C00FEE14E0E7E3F7E0008311837B
:10E59A0000E00093EF045F9BBFC00CB10093390702
:10E5AA000091EF04002309F0B7C000913907085021
:10E5BA0009F458C0055009F474C00E5021F00452F1
:10E5CA0009F46FC091C05F9BFECF0CB1009339076D
:10E5DA005F9BFECF0CB10093390714C008E07FD2CD
:10E5EA0000E27DD208E07BD2E5EEF6E000811181FF
:10E5FA00015010400083118300E0A5EEB6E0ED91D2
:10E60A00FC910083E5EEF6E02081318105E916E010
:10E61A002017310719F700913907015431F427EE11
:10E62A0036E005E916E00E9438FC05E916E0E5EE59
:10E63A00F6E000831183A5EEB6E0ED91FC9100812E
:10E64A00002309F469C0A5EEB6E0ED91FC910081C2
:10E65A0046D2E5EEF6E0008111810F5F1F4F00837D
:10E66A001183E9CFE5EEF6E02081318105E916E074
:10E67A002017310709F450C008E031D200E22FD246
:10E68A0008E02DD2E5EEF6E000811181015010403C
:10E69A000083118300E0A5EEB6E0ED91FC910083C2
:10E6AA003BC0009139071BD200913907A5EEB6E0AD
:10E6BA00ED91FC910083E5EEF6E0008111810F5F98
:10E6CA001F4F0083118300E0A5EEB6E0ED91FC91A7
:10E6DA00008325D005E916E0E5EEF6E00083118314
:10E6EA0000E00093950618C000913907F8D100910F
:10E6FA003907A5EEB6E0ED91FC910083E5EEF6E070
:10E70A00008111810F5F1F4F0083118300E0A5EE86
:10E71A00B6E0ED91FC910083A991B99108959A937D
:10E72A008A9380E090E025E936E007EE16E00E9441
:10E73A0038FC00919506009339071EC020913907CD
:10E74A00E3E9F6E000811181F8012083E3E9F6E0CC
:10E75A00008111810F5F1F4F0083118320E0E3E9DD
:10E76A00F6E000811181F80120830196FC01EB5645
:10E77A00F94F00810093390700913907002351F0BE
:10E78A00009139070D5021F0035111F00F51B1F6E4
:10E79A000DD0EBCF082F092B31F000E00197FC01D7
:10E7AA00E951F94F00838991999108959A938A932F
:10E7BA0080E00FE716E015D10FE716E026D10091A9
:10E7CA0039070D5039F0035109F4DDC00F5109F42E
:10E7DA00EFC0FBC021EB32E00FE716E00E9422FCFB
:10E7EA00012B31F481E022EB32E00FEE14E079DE06
:10E7FA00EAE3F7E000811181073020E01207C1F552
:10E80A002EED32E00FE716E00E9422FC012B81F583
:10E81A0081E02DE732E00FEE14E063DE59D101E02A
:10E82A0000931A0300E010E020E030E00E9461F655
:10E83A000E9485FA00E000933E0704C00E94A8FAED
:10E84A0000933E0700913E070023C1F30E940CF794
:10E85A0000913E07013031F424E532E00FEE14E076
:10E86A0040DE05C02EE332E00FEE14E03ADE30D18E
:10E87A00EAE3F7E000811181073020E01207C1F5D1
:10E88A0022EF32E00FE716E00E9422FC012B81F50D
:10E89A0081E02CE132E00FEE14E023DE19D102E030
:10E8AA0000931A0300E010EA20E030E00E9461F6CB
:10E8BA000E9485FA00E000933E0704C00E94A8FA6D
:10E8CA0000933E0700913E070023C1F30E940CF714
:10E8DA0000913E07013031F424E532E00FEE14E0F6
:10E8EA0000DE05C02EE332E00FEE14E0FADDF0D0D0
:10E8FA0026EB32E00FE716E00E9422FC012B29F5F5
:10E90A0081E02FE032E00FEE14E0EBDDE1D000E031
:10E91A0010E020E0E9E4F8E000831183228345E572
:10E92A0055E5E9E4F8E00081118122810E94DFF9CE
:10E93A00E9E4F8E00081118122810E94E7F928EFD9
:10E94A0031E00FEE14E0CDDDC3D026E033E00FE76F
:10E95A0016E00E9422FC012B71F481E028EE31E0DE
:10E96A000FEE14E0BEDDB4D001E005BF00E005BF44
:10E97A00E0E0F0E00995882341F523ED31E00FEE60
:10E98A0014E0AFDD22C021EB32E00FE716E00E946F
:10E99A0022FC2AEC32E00FE716E00E9422FC012B4F
:10E9AA00A1F407E010E0EAE3F7E0008311830DC069
:10E9BA0021EB32E00FE716E00E9422FC012B29F43A
:10E9CA0027E031E00FEE14E08CDD00E000937F06D3
:10E9DA000FE716E0E3E9F6E0008311838991999144
:10E9EA0008950EC0F8012081213440F0F8012081F9
:10E9FA002B3520F4F8012081205E20830F5F1F4F02
:10EA0A00F8012081222371F708950E94B1FBEF9744
:10EA1A0061973801B0E0EAE3F7E00081118104363A
:10EA2A0020E0120708F04FC021EB32E083010E9478
:10EA3A0022FC012B09F447C083010E9443FC402EAB
:10EA4A00A0E031C048E250E020E030E08E010E94B0
:10EA5A00D9FB442D50E02A0186EB92E04A2F50E080
:10EA6A0004E110E00E94A9FB800F911F9C01A20102
:10EA7A008E010E94CBFB93018E010E9422FC012B86
:10EA8A0089F4B39586EB92E04A2F50E004E110E056
:10EA9A000E94A9FB800F911F9C018E01085D1F4FE8
:10EAAA000E9438FCA395A53068F2B13031F020E01D
:10EABA0031E083010E9438FC06C09E01285D3F4F69
:10EACA0083010E9438FCEF966196E8E00C94BAFB49
:10EADA0001C039DD0091EF040023D9F708950093AE
:10EAEA00EF0400E00093F004F3DF08955F9B03C096
:10EAFA000CB110E008950FEF1FEF08952FEF3FEFCD
:10EB0A00F8012083318308952FEF3FEFF801008148
:10EB1A001181022713270083118308950E94B5FBF0
:10EB2A00FA0160E070E002C06F5F7F4F62177307FF
:10EB3A0058F5D801A60FB71F4C9150E000801180FC
:10EB4A00042615260082118280E090E007C04081E9
:10EB5A00518156954795408351830196883040E00C
:10EB6A00940710F7408140FFF2CF408151815695BA
:10EB7A0047954083518348E054E800801180042679
:10EB8A00152600821182E9CFE4E00C94BEFB0091C5
:10EB9A006800102F10FDFBCF11E100E0002E10934A
:10EBAA006800E89508950E94B5FBE5E4F8E08081E5
:10EBBA009181A28180709F7FAF7F00E010E0E3E443
:10EBCA00F8E00083118300E010E0EFE3F7E0008350
:10EBDA0011833BC08C012A2FE9E4F8E000831183FA
:10EBEA002283EFE3F7E000811181000F111FF80182
:10EBFA00ED5BF84F208130E0EFE3F7E0008111810F
:10EC0A00000F111F0F5F1F4FF801ED5BF84F1081C6
:10EC1A0000E0020F131FE1E4F7E000831183E1E44F
:10EC2A00F7E040815181E9E4F8E000811181228115
:10EC3A000E94DFF98E5F9F4FAF4FEFE3F7E000814D
:10EC4A0011810F5F1F4F00831183EFE3F7E000810B
:10EC5A001181003820E0120708F4BCCFE5E4F8E09F
:10EC6A0080819181A28180709F7FAF7F8C012A2F42
:10EC7A00E9E4F8E0008311832283E9E4F8E0008103
:10EC8A00118122810E94E5F9E9E4F8E0008111810D
:10EC9A0022810E94E7F9E5E4F8E0008111812281EE
:10ECAA00338100501F4F2F4F3F4F00831183228320
:10ECBA003383E4E00C94BEFB40E050E0E3E4F8E088
:10ECCA0040835183E5E4F8E0008311832283338390
:10ECDA0008950E94B5FBD801822F00911A030050B3
:10ECEA00B9F10A9519F00A9561F034C000E0009371
:10ECFA001A03682FAD0100E01EED21E030E02ED0AE
:10ED0A0029C000E000931A03682FAD0100E01FED4F
:10ED1A0021E030E023D01EC08A950C91E3E4F8E0AC
:10ED2A0020813181F901ED5BF84F0083E3E4F8E0DB
:10ED3A00008111810F5F1F4F008311831196E3E455
:10ED4A00F8E000811181003021E0120708F02BDF82
:10ED5A00813010F700E0E4E00C94BEFB0E94B2FBA5
:10ED6A00C801D9012A01662E8C012A2FE9E4F8E0AC
:10ED7A0000831183228302C00EEF600E01E0601649
:10ED8A0058F1F201208130E0F201118100E0020F16
:10ED9A00131FE1E4F7E000831183E1E4F7E0408127
:10EDAA005181E9E4F8E00081118122810E94DFF9B2
:10EDBA00E9E4F8E00081118122810E5F1F4F2F4F95
:10EDCA0000831183228302E0400E00E0501E03E01C
:10EDDA00601690F66624D2CF80709F7FAF7F8C0139
:10EDEA002A2FE9E4F8E0008311832283E9E4F8E0BA
:10EDFA000081118122810E94E5F9E9E4F8E00081AD
:10EE0A00118122810E94E7F9E7E00C94BBFBE3E45D
:10EE1A00F8E000811181012B09F0C5DEB8DE089502
:10EE2A008A93822F20E00FC0FA01362F022E112476
:10EE3A002224E00DF11D321D3BBF0690F80100822D
:10EE4A000F5F1F4F2395281778F3899108950E9421
:10EE5A00B1FB2897015051F00A9509F453C00A955D
:10EE6A0009F49CC00A9509F4E2C029C180E09EED2C
:10EE7A00A1E0B0E024E0AC01BD0148585F4F6F4FFC
:10EE8A007F4F8E010C5F1F4FCBDF22E084589F4FCC
:10EE9A00AF4FBF4FAC01BD018E010E5F1F4FC0DFE8
:10EEAA0080E090E0A0E08E010E9483F5442455247E
:10EEBA00662477241AC082019301080F191F2A1F9A
:10EECA00F801322F3BBF069100933E07AE0121E0C5
:10EEDA0030E00EE317E00E9493F501E0400E00E0F7
:10EEEA00501E00E0601E00E0701E0C811D812E8104
:10EEFA003F814016510662067306E8F28E010E94AF
:10EF0A0089F5DDC080E09FEDA1E0B0E024E0AC012E
:10EF1A00BD0148585F4F6F4F7F4F8E010C5F1F4FE7
:10EF2A007FDF22E084589F4FAF4FBF4FAC01BD0136
:10EF3A008E010E5F1F4F74DF80E090EAA0E08E0121
:10EF4A000E9483F544245524662477241AC082013A
:10EF5A009301080F191F2A1FF801322F3BBF069190
:10EF6A0000933E07AE0121E030E00EE317E00E9475
:10EF7A0093F501E0400E00E0501E00E0601E00E044
:10EF8A00701E0C811D812E813F814016510662063A
:10EF9A007306E8F28E010E9489F591C080E09EED29
:10EFAA00A1E0B0E00EE710E020E030E00C831D8322
:10EFBA002E833F8322E082589F4FAF4FBF4FAC0151
:10EFCA00BD018E010E5F1F4F2BDF8E010E9483F55C
:10EFDA0080E09EEDA1E044245524662477241AC0DB
:10EFEA0082019301080F191F2A1FF801322F3BBF14
:10EFFA00069100933E07AE0121E030E00EE317E0F0
:10F00A000E9493F501E0400E00E0501E00E0601EF1
:10F01A0000E0701E0C811D812E813F814016510631
:10F02A0062067306E8F28E010E9489F548C080E004
:10F03A009FEDA1E0B0E00EE710E020E030E00C83A5
:10F04A001D832E833F8322E082589F4FAF4FBF4FCD
:10F05A00AC01BD018E010E5F1F4FE2DE8E010E94E0
:10F06A0083F580E09FEDA1E04424552466247724AB
:10F07A001AC082019301080F191F2A1FF801322FA3
:10F08A003BBF069100933E07AE0121E030E00EE35C
:10F09A0017E00E9493F501E0400E00E0501E00E0E8
:10F0AA00601E00E0701E0C811D812E813F8140167A
:10F0BA00510662067306E8F28E010E9489F50881FC
:10F0CA00198120E030E02896E8E00C94BAFB01E0D0
:10F0DA0005BF02E005BF0E944AFA0E9445F27894F1
:10F0EA000895F5DF24E934E00FEE14E00E9476F289
:10F0FA000E946DF523E734E00FEE14E00E9476F2E9
:10F10A000E946DF524E04EE75EED61E070E00CE3ED
:10F11A0017E00E9415F7ECE3F7E000811181EDE4B6
:10F12A00F8E00083118303E00E942CF7ECE3F7E098
:10F13A0000831183ECE3F7E000811181EDE4F8E04C
:10F14A00208131810217130739F524E04CE75EED7F
:10F15A0061E070E00CE317E00E9415F7ECE3F7E0DA
:10F16A0000811181EDE4F8E00083118301E00E943F
:10F17A002CF7ECE3F7E000831183ECE3F7E000817E
:10F18A001181EDE4F8E0208131810217130739F08B
:10F19A0001E000934C0803C001E000934C08009181
:10F1AA004C080130E1F020E534E00FEE14E00E9453
:10F1BA0076F20E946DF52CE434E00FEE14E00E9422
:10F1CA0076F20E946DF527E740E05EED61E070E0BF
:10F1DA000FEE14E00E9415F70E946DF508C021E0B9
:10F1EA0034E00FEE14E00E9476F20E946DF500E022
:10F1FA0000934C0824EE33E00FEE14E00E9476F2FE
:10F20A000E946DF524E04EE75FED61E070E00CE3EB
:10F21A0017E00E9415F7ECE3F7E000811181EDE4B5
:10F22A00F8E00083118304E00E942CF7ECE3F7E096
:10F23A0000831183ECE3F7E000811181EDE4F8E04B
:10F24A00208131810217130739F524E04CE75FED7D
:10F25A0061E070E00CE317E00E9415F7ECE3F7E0D9
:10F26A0000811181EDE4F8E00083118302E00E943D
:10F27A002CF7ECE3F7E000831183ECE3F7E000817D
:10F28A001181EDE4F8E0208131810217130739F08A
:10F29A0001E000934C0803C001E000934C08009180
:10F2AA004C080130E1F025EC33E00FEE14E00E9447
:10F2BA0076F20E946DF52CE434E00FEE14E00E9421
:10F2CA0076F20E946DF527E740E05FED61E070E0BD
:10F2DA000FEE14E00E9415F70E946DF508C02EE7A4
:10F2EA0033E00FEE14E00E9476F20E946DF52BE7F0
:10F2FA0033E00FEE14E00E9476F20E946DF5009161
:10F30A004C08002309F04AC021E233E00FEE14E072
:10F31A000E9476F20E946DF508EE13E0E1E5F8E04E
:10F32A000083118308EC10E0E3E5F8E00083118321
:10F33A002CC000913E070D3039F401E005BF00E012
:10F34A0005BFE0E0F0E00995E1E5F8E00081118110
:10F35A00012B39F401E005BF00E005BFE0E0F0E071
:10F36A000995E3E5F8E000811181012B71F42FE1A1
:10F37A0033E00FEE14E00E9476F20E946DF508EC7D
:10F38A0010E0E3E5F8E0008311835F9BDDCF0CB169
:10F39A0000933E0700913E070B3159F62BE133E00B
:10F3AA000FEE14E00E9476F20E946DF5A8950E9475
:10F3BA00A8F2FCCF0A0161E006C0002E69E003C092
:10F3CA0063E001C065E0F8010CD04FB7F8945BB771
:10F3DA002BBF60936800F895FFFF00005BBF4FBF2B
:10F3EA000895709168007170E1F70895FADF05D009
:10F3FA000EBB1FBB2DBBE29AE19AE199FECF08959D
:10F40A00FA93EA932A931A930A932FB7E1E5F8E05D
:10F41A0000811181012B41F0E1E5F8E000811181C1
:10F42A000150104000831183E3E5F8E00081118167
:10F43A00012B41F0E3E5F8E0008111810150104011
:10F44A0000831183E5E5F8E000811181012B41F089
:10F45A00E5E5F8E000811181015010400083118335
:10F46A00E7E5F8E000811181012B41F0E7E5F8E0DA
:10F47A000081118101501040008311832FBF09912F
:10F48A0019912991E991F991189500E00FBD09E0C8
:10F49A000EBD00E000937A000CEC1CE11BBD0ABD16
:10F4AA0000E107BF00E010E01DBD0CBD00E010E068
:10F4BA00EFE4F8E00083118300E010E0E1E5F8E012
:10F4CA000083118300E010E0E3E5F8E00083118394
:10F4DA0000E010E0E5E5F8E00083118300E010E0C9
:10F4EA00E7E5F8E0008311830895E7E5F8E0008393
:10F4FA001183E7E5F8E000811181012BD1F7089526
:10F50A0001E010E0E9E5F8E00283138300E010E08F
:10F51A00E9E5F8E00483158305E10E9474F511E03A
:10F52A0002E001D008950093590810935A080895EB
:10F53A0008E10E9474F508E10E9474F508EE13E0F0
:10F54A000E947AFA08950E94B5FB80E0009159085A
:10F55A00015049F00A9529F10A9509F481C002502F
:10F56A0009F4BCC0D8C0E9E5F8E0048115810F5F51
:10F57A001F4F04831583E9E5F8E0A481B5811B9741
:10F58A0018F0D6DF82E0C7C005E10E9474F500EAF0
:10F59A001FE0E1E5F8E00083118311E002E0C3DF38
:10F5AA00BAC0E1E5F8E000811181012B21F410E0F5
:10F5BA0001E0B9DFB0C00E947BF511230AF4ABC0A9
:10F5CA0020915A08215029F02A95A9F02A9521F16B
:10F5DA00A2C0013020E0120721F412E002E0A3DF0A
:10F5EA009AC0043020E0120709F095C006E00E9494
:10F5FA0074F581E090C0E9E5F8E0228133812F7F3C
:10F60A0030700217130721F413E002E08CDF83C085
:10F61A0011E002E088DF7FC0E9E5F8E0228133816A
:10F62A002F7F30704FEF50E04227532704171507FA
:10F63A0099F400E010E0E9E5F8E00683178300E0BA
:10F64A000093E10810E003E06EDF00E117E2E1E574
:10F65A00F8E0008311835FC011E002E064DF5BC061
:10F66A00E1E5F8E000811181012B21F410E001E0CD
:10F67A005ADF51C00E947BF511230AF44CC0E9E518
:10F68A00F8E026813781203840E0340770F0209175
:10F69A00E10830E00217130721F010E001E043DF30
:10F6AA003AC010E005E03FDF36C0402F29E538E0D8
:10F6BA00E9E5F8E066817781260F371FF90140876F
:10F6CA00E1EEF8E01081100F1083E9E5F8E0068119
:10F6DA0017810F5F1F4F068317831DC020E801E6BD
:10F6EA0018E00E946EF68230A9F0E9E5F8E002819E
:10F6FA0013810F5F1F4F0283138300E010E0E9E5D7
:10F70A00F8E00483158306E00E9474F511E002E034
:10F71A000ADF01C00DDF082FE4E00C94BEFB0000F5
:10F72A008895FECF01EE0DBF0CE00EBFC2EEDDE004
:10F73A000E94C9FB002311F00E94F2FB0E9476F896
:10F74A000E9494FB0C9494FB149F102D059F100D9E
:10F75A00049F002D110D08957A926A925A924A9244
:10F76A00BA93AA939A938A9308957F806E805D8054
:10F77A004C80BB81AA8199818881F0E00FB6F89408
:10F78A00CE0FDF1F0FBE089501E008950D01D801C5
:10F79A0004C0F90161919F016D93BA014150504033
:10F7AA00672BB9F7D0010895F80101C02193BA0176
:10F7BA0041505040672BD1F7089520E008D0E9F76F
:10F7CA0008953BBF27913BB702D0D9F708952D93EF
:10F7DA0001501040202F212B08950CE8402E00EEF6
:10F7EA00502E01E0602EF201362D6BBE0791169164
:10F7FA00F201EE5FFF4F3F4F3BBFA791B691F20177
:10F80A00362DEC5FFF4F3F4F3BBF479157916691B3
:10F81A00242F252B262B21F0FA01362FD2DF01C007
:10F82A00CCDF07E0400E00E0501E601EA201662DEC
:10F83A004A39504E6140B8F2089502C02F5F3F4FD7
:10F84A00F8014081F9015081451741F4F8013196D8
:10F85A008F01442399F700E010E00895042F10E087
:10F86A00051B10400895A801F90161919F01F80153
:10F87A0061938F016623C1F78A010895F80101C0D7
:10F88A00319620812223E1F7E01BF10B8F010895C5
:040000031000E00009
:00000001FF
