:020000021000EC
:10E000000C94C0F8189518951895189518951895AA
:10E010001895189518951895189518951895189598
:10E020001895189518951895189518951895189588
:10E030000C94EFF018951895189518951895189553
:10E040001895189518951895189518951895189568
:10E050001895189518951895189518951895189558
:10E060001895189518951895189518951895189548
:10E0700018951895189518950C9496F1189518956B
:10E080001895189518951895189518950000096019
:10E090000184F182F1FE096080F1FE12C07EF1FE82
:10E0A00012C07CF1FE12C07AF1FE258078F1FE25C7
:10E0B0008076F1FE4B0074F1FEE10072F1FB00008E
:10E0C00077F412006FF47DF46FF47DF46FF486F44E
:10E0D00089F48CF489F48CF489F486F46FF47DF47B
:10E0E0006FF47DF46FF48FF4000054F80E00B4F771
:10E0F00076F754F876F767F78AF7A0F796F7AAF756
:10E10000BFF7E5F704F830F840F8DB021A01000029
:10E11000001A00000118E1010000000000000000EA
:10E120000000000000014E6F20736F66747761720B
:10E1300065002FEFF801208321830895F801008105
:10E140001181009510950083118308950E9423F991
:10E15000FA0180E090E008C05181569547954083D0
:10E1600051836A9561F4019682179307A0F4D80150
:10E17000A80FB91F4C9160816427608368E04081DB
:10E1800040FFEACF042E11801694079448E054E82B
:10E1900040255125E4CFE4E00C942BF900E00FBDBD
:10E1A00009E00EBD00E000937A000CEC1CE11BBD01
:10E1B0000ABD00E107BF00E00DBD0CBDE5EBF2E0DC
:10E1C00000830183E7EBF2E000830183E9EBF2E0F7
:10E1D00000830183EBEBF2E00083018308959A93BF
:10E1E0008A93FA93EA933A922A921A920A927A932B
:10E1F0006A935A934A933A932A931A930A938FB73E
:10E200009BB70E946EF59BBF8FBF09911991299111
:10E210003991499159916991799109901990299071
:10E220003990E991F99189919991189501E005BF8B
:10E2300000E005BF0C94000008E101BD08E001BD4D
:10E24000FFCF0091680000FDFCCF11E10024109386
:10E250006800E89508957894089500000895C4989A
:10E26000BC9A0895C49AF9DFC49808950093650094
:10E270000895009165000E7FF9CF01E005BF02E02F
:10E2800005BF129A03B1047003B904B3007E04BB46
:10E2900005B30F6105BBBF9A0895B79903C0C79A2C
:10E2A0000895FDCFC798089511E000E023B321231E
:10E2B00021F403950093A50204C0110F03950530C6
:10E2C000A8F303B302E00895949A089594980895EA
:10E2D0009A938A9380E090E0ECE8F1E0FBBFF0EEE7
:10E2E0000C94E5F885E010C08BE00EC081E10CC015
:10E2F00087E10AC083E208C08FE206C087E404C059
:10E300008FE802C08FE191E08C9A949890939800E6
:10E310008093990008E900939A000EE000939D0015
:10E3200000E200939C008991999108959A938A93B1
:10E33000FA93EA933A922A921A920A927A936A93F9
:10E340005A934A933A932A931A930A938FB79BB797
:10E350000E9419F758CF00939C00089500919C00EB
:10E36000089500919B0006FF02C001E0089500E0BF
:10E37000089500919B00006400939B0008950E9403
:10E3800023F900912002002309F44EC000912302DA
:10E39000002399F100E00093230205E212E0EAE194
:10E3A000F2E004831583E0911E02F2E0EA58FF4F89
:10E3B0000081002311F524E0EEEAF2E04081518172
:10E3C0006281738149595F4F6F4F7F4F8F0146D1F3
:10E3D000AEE1B2E0ED91FC91E959FF4F008111816E
:10E3E00022813381EEEAF2E04081518162817381C2
:10E3F000041715072607370711F5EAE1F2E0008157
:10E4000011818281938101960817190759F420918F
:10E41000220205E212E0A0D0EAE1F2E000811181DF
:10E420000283138300E0068300912102002339F068
:10E430000E949FF40093AA0200E000932102E4E00E
:10E440000C942BF90E9424F9E0E0F1E09181A28183
:10E4500080E0838784878783808784839583A683EE
:10E4600007811085000F111FF801E65EFE4F208125
:10E47000E0E0F1E007811085000F111FF801E65E72
:10E48000FE4F1181E0E0F1E021871287E6EAF2E039
:10E490000081118122813381033317472A4A354590
:10E4A00049F4E0E0F1E0418552850481158126813F
:10E4B0000E9448F58E5F9F4FAF4FE0E0F1E007818B
:10E4C00010850F5F1F4F078310870038104028F218
:10E4D0001181228100E0048315832683E6EAF2E0BD
:10E4E0000081118122813381033317472A4A354540
:10E4F00039F4E0E0F1E00481158126810E944EF5B7
:10E50000E6EAF2E00081118122813381033317476B
:10E510002A4A354539F4E0E0F1E00481158126818D
:10E520000E9450F5E0E0F1E0008111812281338109
:10E5300000501F4F2F4F3F4F118322833383E3E05F
:10E540000C942CF940E0E0E0F1E04387448700833D
:10E5500011832283338308950E9423F9D801822FE7
:10E5600000910D01002359F10A9519F00A9559F00F
:10E5700028C000E000930D01622FAD011EED21E0E7
:10E5800030E021D01EC000E000930D01622FAD01EC
:10E590001FEDF5CF8A950D91E0E0F1E023853485FC
:10E5A000F901E65EFE4F0083E0E0F1E003851485AB
:10E5B0000F5F1F4F03871487113008F043DF882354
:10E5C00049F700E03CCF0E9420F9912FA22F2A01A9
:10E5D000662EE0E0F1E004831583268302C00EEF8F
:10E5E000600E662001F1F20120811181E0E0F1E08E
:10E5F00021871287422F512F0481158126810E9485
:10E6000048F5E0E0F1E00481158126810E5F1F4F9F
:10E610002F4F04831583268302E0400E00E0501E36
:10E6200003E06016E0F680E08C012A2F8483958356
:10E63000A6830E944EF5E0E0F1E004811581268179
:10E640000E9450F5E7E00C9428F9E0E0F1E0038542
:10E650001485012B09F0F6DE0C9421F1282E822F6F
:10E6600020E00CC0FA01362F1124E20FF11D311DFC
:10E670003BBF0690F80101928F012395281790F374
:10E68000822D08950E9423F928970A9551F00A9542
:10E6900009F445C00A9509F47AC00A9509F4AFC097
:10E6A00038C024E048E75EED61E070E08E010C5F69
:10E6B0001F4FD4DF22E04CE75EED61E070E08E0199
:10E6C0000E5F1F4FCBDF8E010E9499F080E090E03B
:10E6D000A0E0B0E012C0FC01ABBF06910093B40211
:10E6E000AE0121E030E004EB12E00E94A6F00E94AF
:10E6F00050F48F5F9F4FAF4FBF4F0C811D812E8114
:10E700003F8180179107A207B30728F38E010E946B
:10E710009EF00881198120E030E0289690CE24E018
:10E7200048E75FED61E070E08E010C5F1F4F96DF00
:10E7300022E04CE75FED61E070E08E010E5F1F4F5D
:10E740008DDF8E010E9499F080E090E0A0E0B0E0C3
:10E750000C811D812E813F8180179107A207B3078D
:10E76000A8F68C012A2F2395F8012BBF0691009360
:10E77000B402AE0121E030E004EB12E00E94A6F00A
:10E780000E9450F48F5F9F4FAF4FBF4FE1CF0EE716
:10E7900010E00C831D831E831F8322E04EE75EED95
:10E7A00061E070E08E010E5F1F4F58DF8E010E9406
:10E7B00099F080E090E0A0E0B0E00C811D812E8116
:10E7C0003F8180179107A207B30708F09FCF8C0104
:10E7D0002A2F005012422E4FF8012BBF06910093B2
:10E7E000B402AE0121E030E004EB12E00E94A6F09A
:10E7F0000E9450F48F5F9F4FAF4FBF4FDECF0EE7A9
:10E8000010E00C831D831E831F8322E04EE75FED23
:10E8100061E070E08E010E5F1F4F20DF8E010E94CD
:10E8200099F080E090E0A0E0B0E00C811D812E81A5
:10E830003F8180179107A207B30708F067CF8C01CB
:10E840002A2F005011422E4FF8012BBF0691009342
:10E85000B402AE0121E030E004EB12E00E94A6F029
:10E860000E9450F48F5F9F4FAF4FBF4FDECF0E948B
:10E870003DF10E942FF10E9432F10E94CEF00E94E1
:10E88000F4F600E035E5E6EAF2E000830183028376
:10E89000338351D00E942BF10AE010E00C94C6F5AE
:10E8A0000E9432F1EDEBF2E000811181012B31F495
:10E8B00002E310E0008311830E944DF108950E944D
:10E8C00032F1EDEBF2E000811181012BA9F400910E
:10E8D000AD02EEEBF1E0FBBFF0EE0C94DBF808ECE0
:10E8E00010E0EDEBF2E0008311830E9451F1EDEABC
:10E8F000F2E0008103950083089508EC10E0EDEB51
:10E90000F2E0008311830E9452F1F1CF08E512E09A
:10E91000F6CF00E911E0E5CF00E911E0F0CF00E427
:10E9200016E0EDEBF2E0008311830E9452F100E06B
:10E930000093AD0208950E9454F10C9439F18A932A
:10E9400080E022E04EE75EED61E070E002EB12E075
:10E950000E942EF3E2EBF2E000811181EBEAF2E09B
:10E960000083118303E00E9442F3E2EBF2E00083B4
:10E970001183EBEAF2E02081318102171307F9F4E9
:10E9800022E04CE75EED61E070E002EB12E00E94F5
:10E990002EF3E2EBF2E000811181EBEAF2E000837A
:10E9A000118301E00E9442F3E2EBF2E00083118365
:10E9B000EBEAF2E0208131810217130709F081E0D0
:10E9C00022E04EE75FED61E070E002EB12E00E94B2
:10E9D0002EF3E2EBF2E000811181EBEAF2E000833A
:10E9E000118304E00E9442F3E2EBF2E00083118322
:10E9F000EBEAF2E02081318102171307F9F422E0FB
:10EA00004CE75FED61E070E002EB12E00E942EF354
:10EA1000E2EBF2E000811181EBEAF2E00083118386
:10EA200002E00E9442F3E2EBF2E000831183EBEAA2
:10EA3000F2E0208131810217130709F08260082F6C
:10EA40008991089514DF77DF7ADF0093AA02E6EA5E
:10EA5000F2E01181228133812A6A11832283338378
:10EA60000E9452F101E00E9416F70091AA020023D1
:10EA700039F40E9432F123DF5EDF0E94BFF1F9CF4B
:10EA80000E9451F10E9432F156DF0E94BFF1FACF8D
:10EA90000A0161E006C0002E69E003C063E001C026
:10EAA00065E0F8010CD04FB7F8945BB72BBF6093CB
:10EAB0006800F895FFFF00005BBF4FBF089570919D
:10EAC00068007170E1F70895FADF05D00EBB1FBB37
:10EAD0002DBBE29AE19AE199FECF0895E5EBF2E0D1
:10EAE00000811181012B31F0008111810150104012
:10EAF0000083118302811381012B31F00281138184
:10EB0000015010400283138304811581012B31F0E1
:10EB100004811581015010400483158306811781FB
:10EB2000012B31F0068117810150104006831783B5
:10EB300000851185012B31F00085118501501040B1
:10EB40000087118702851385012B31F0028513851B
:10EB5000015010400287138704851585012B39F079
:10EB600004851585015010400487158703C000E017
:10EB70000093C70206851785012B31F0068517859E
:10EB800001501040068717870C945EF8E5EBF2E021
:10EB90000683178306811781012BE1F708950AEA9E
:10EBA00015E5E3E6F3E0008311830091A502077009
:10EBB000006402830091AA02068301E003838F01AF
:10EBC0000E9490F8E3E6F3E00483158301E00093EC
:10EBD000C50200E00093C8020093CB0203E010E0FE
:10EBE000E3ECF2E00083118308958A936097802F0D
:10EBF00040E150E020E030E08E010E9446F90AEA50
:10EC000015E5E3E6F3E0008311831281107F0091A4
:10EC1000A5020770012B028300E003838A9551F05F
:10EC20008A9509F459C08A9509F46FC08A9509F448
:10EC300095C039C002810F700065028301E008832E
:10EC400024E047E65EED61E070E08E010F5F1F4F4C
:10EC50000E942EF324E04BE65EED61E070E08E0151
:10EC60000B5F1F4F0E942EF327E04FE65EED61E041
:10EC700070E08E01075F1F4F0E942EF30091AA02E1
:10EC800000FF07C040E150E020E030E08E010E942C
:10EC900046F940E150E09E0109E613E00E9438F990
:10ECA00000E10093660303E613E00E9490F8E3E6B8
:10ECB000F3E00483158301E00093C50200E00093B4
:10ECC000C8020093CB0203E010E0E3ECF2E0008323
:10ECD000118360968991089502810F700066028306
:10ECE00027E640E05EED61E070E009E613E00E9497
:10ECF0002EF30091AA0200FF06C02EE031E009E6E3
:10ED000013E00E948FF907E6CCCF02810F700067F5
:10ED1000028301E0088324E047E65FED61E070E0F4
:10ED20008E010F5F1F4F0E942EF324E04BE65FED34
:10ED300061E070E08E010B5F1F4F0E942EF327E011
:10ED40004FE65FED61E070E08E01075F1F4F0E94AC
:10ED50002EF30091AA0201FD95CF9BCF02810F7087
:10ED60000068028327E640E05FED61E070E009E6BD
:10ED700013E00E942EF30091AA0201FDBECFC3CF83
:10ED80000AEA15E5E3E6F3E0008311831281107FC0
:10ED90000091A5020770012B028300E0038302812A
:10EDA0000F70006B02830BCFA801B9010AEA15E5C9
:10EDB000E3E6F3E0008311831281107F0091A50246
:10EDC0000770012B028320E809E613E00E942EF36E
:10EDD00000E800936603009165030F70006D0093D7
:10EDE000650303E613E0ECCE00E016E920E030E036
:10EDF0000E9468F142E950E020E030E001ED12E0CD
:10EE00000E9446F942E950E020E030E003E613E0DA
:10EE10000E9446F94AE050E020E030E005EC12E0C4
:10EE20000E9446F900E002D00C9466F10093D002F3
:10EE300008959A938A9324970E94AEF10093CF028B
:10EE40000091D002002309F435C10091C7020023CC
:10EE500019F00A9549F00CC00091CF020A3A41F02E
:10EE600000E00093C70220C10091CF020535C1F731
:10EE70002091CF020091C70210E0F801EF52FD4F40
:10EE80002083E5ECF2E00281039502838091D402B5
:10EE900090E00596801790400CF006C1128301EDBA
:10EEA00012E03ED1E1EDF2E0248135810217130733
:10EEB00009F0FAC001E00093C6020091D302029566
:10EEC0000F70E8EEF1E0FBBFF0EE0C94DBF8009180
:10EED000D302077041F00091D30207701091A50290
:10EEE000011709F0E1C00E941CF1DEC00091D302BD
:10EEF000077041F00091D30207701091A50201172D
:10EF000009F0D2C00091AA02002309F0CDC00E94EE
:10EF100016F1CAC00091D30207701091A502011723
:10EF200009F0C2C001E00E94F5F5BEC00091D30215
:10EF300007701091A502011709F0B6C003E0F3CFE6
:10EF40000091D30207701091A502011709F0ACC01F
:10EF500002E0E9CF0091D30207701091A5020117DA
:10EF600009F0A2C004E0DFCF0091D3020770109136
:10EF7000A502011709F098C00E94CFF595C0009135
:10EF8000D30207701091A502011709F08DC001E0AE
:10EF90000E94C0F601E00093230200930D0100E0FF
:10EFA000ECE1F2E00083018300932402E6EAF2E060
:10EFB000118122813381176711832283338310E00B
:10EFC00020E030E00E94A2F26FC00091D3020770EF
:10EFD0001091A502011709F067C001E00E94C0F678
:10EFE00002E00093230200930D0100E0ECE1F2E067
:10EFF0000083018300932402E6EAF2E0118117679F
:10F00000118310E021E0DDCF0091D3020770109151
:10F01000A502011709F048C00E9432F101E00E94E8
:10F02000C0F601E0009320020091D4020250009348
:10F03000220242E050E027ED32E00AE112E00E94B5
:10F0400038F94091220250E029ED32E005E212E069
:10F050000E9438F9E6EAF2E000810363008324C0ED
:10F060000091D30207701091A5020117E9F401E0A5
:10F070000E94C0F60E9425F301E00093210214C013
:10F080000091D30207701091A502011769F444E0C2
:10F0900050E027ED32E08E010E9438F90881198195
:10F0A0002A813B810E94D4F60AE010E0E1ECF2E014
:10F0B0000083118324968991999108959A938A9354
:10F0C000E3ECF2E000811181012B49F50091CB02C4
:10F0D000002301F50E94B1F1002309F10E9464F1BF
:10F0E0000E94B9F10091C80210E0F801ED59FC4FFF
:10F0F00000810E94ABF1E5ECF2E00381039503830C
:10F100008091660390E005968017904044F401E0FA
:10F11000068305C000E00093C5020E9466F1CBCFD4
:10F120000E9423F92297D8018E010E9499F080E075
:10F13000AE0121E030E08D01080F131F0E94A6F000
:10F1400083958430A8F380E00BC0AE0121E030E06D
:10F150008D01080F131F0A5F1F4F0E94A6F08395B1
:10F16000FD010381801788F38E010E949EF00881C3
:10F1700019812296E4E00C942BF900008895FECFCB
:10F1800004EF0DBF07E00EBFC5EFD8E00E9436F9CF
:10F19000002311F00E945FF90E9422F50E94BDF841
:10F1A0000C94BDF87791679157914791179011FA98
:10F1B000279037900895F9DF041B10E003C0F4DFB7
:10F1C000041B150B20E030E005C0ECDF041B150B21
:10F1D000260B370BB8F010FC17C047910790E00FD3
:10F1E000F11F0417100540E02407340758F436F4E3
:10F1F00006910024F101E01BF0090994E00FF11FD2
:10F2000027903790F101099411F4D6F7F1CF319698
:10F210000EF0319650E060E070E047914B3F48F0CF
:10F2200089F34F3F29F04E3F11F077916791579145
:10F230004791041B150B260B370B39F318F3E7CF57
:10F240006A925A924A92BA93AA939A938A93089589
:10F250006E805D804C80BB81AA8199818881F0E0BD
:10F260000FB6F894CE0FDF1F0FBE089501E008958A
:10F270000D01D80104C0F90161919F016D93BA019C
:10F2800041505040672BB9F7D0010895F80101C0F3
:10F290002193BA0141505040672BD1F7089520E0E7
:10F2A00008D0E9F708953BBF27913BB702D0D9F7C3
:10F2B00008952D9301501040202F212B08950AE02E
:10F2C000402E01EE502E01E0602EF201362D6BBE75
:10F2D00007911691F201EE5FFF4F3F4F3BBFA791A1
:10F2E000B691F201362DEC5FFF4F3F4F3BBF479188
:10F2F00057916691242F252B262B21F0FA01362FCA
:10F30000D2DF01C0CCDF07E0400E00E0501E601EDF
:10F31000A201662D4831514E6140B8F20895A8010E
:10F32000F90161919F01F80161938F016623C1F793
:04F330008A010895B1
:040000031000E00009
:00000001FF
