:020000021000EC
:10E000000C94A8FB189518951895189518951895BF
:10E010001895189518951895189518951895189598
:10E020001895189518951895189518951895189588
:10E030000C9472F1189518951895189518951895CF
:10E040001895189518951895189518951895189568
:10E050001895189518951895189518951895189558
:10E060001895189518951895189518951895189548
:10E0700018951895189518950C9407F218951895F9
:10E080001895189518951895189518950000096019
:10E0900001F5F1F3F1FE0960F1F1FE12C0EFF1FEBE
:10E0A00012C0EDF1FE12C0EBF1FE2580E9F1FE2574
:10E0B00080E7F1FE4B00E5F1FEE100E3F1FB00003B
:10E0C000D0F50900C4F5C4F5D6F5D9F5D9F5E2F5D2
:10E0D000C4F5C4F5E4F5000032FB120087F9EAF953
:10E0E000B8F9A1F992F9FCF912FA08FA1CFA26FA21
:10E0F0004DFAC8FAFCFA17FB32FBC3F972FA9DFA23
:10E10000350000010EE101840435010000000A0D14
:10E1100020436F6E66696775726174696E67206609
:10E1200072616D2E2E2E0A0D00000000000000000E
:10E13000000000000000014E6F20736F667477616D
:03E1400072650005
:10E144002FEFF801208321830895F80100811181C4
:10E15400009510950083118308950E943FFCFA01F5
:10E1640080E090E008C051815695479540835183E3
:10E174006A9571F4019682179307C0F4D801A80F29
:10E18400B91F4C916081718164276083718368E059
:10E19400408140FFE8CF042E11801694079448E094
:10E1A40054E80426152600821182E2CFE4E00C94A0
:10E1B40049FC0895219700E0088341E09E0110E0A6
:10E1C40038D020E031E00FEC12E0F3DF0EE80883F2
:10E1D40011E09E010AE039D00AE0088311E09E01B3
:10E1E40009E033D002E0088311E09E010BE02DD05A
:10E1F40000E0088311E09E0101E027D041E09E0188
:10E2040000E010E016D008810160088341E09E011F
:10E2140000E010E002D02196089510933501009398
:10E224003601642FA90112E025E331E002EA0C94DF
:10E234007AF21093350100933601642FA90112E09C
:10E2440025E331E002EA0C94B7F20093350100E0D3
:10E2540000933601612FA90111E025E331E002EDBD
:10E26400E6CF0093350100E000933601612FA90148
:10E2740011E025E331E002EDE6CF2197E2E7F4E097
:10E2840000811181012B51F408EE13E00083118306
:10E294000AE0088311E09E0109E0D7DFBCCF00E06B
:10E2A4000FBD09E00EBD00E000937A000CEC1CE108
:10E2B4001BBD0ABD00E107BF00E00DBD0CBDE6E6D5
:10E2C400F4E000830183E8E6F4E000830183EAE6F6
:10E2D400F4E000830183EEE6F4E000830183089513
:10E2E4009A938A93FA93EA933A922A921A920A9206
:10E2F4007A936A935A934A933A932A931A930A9372
:10E304008FB79BB70E94EEF69BBF8FBF09911991FF
:10E31400299139914991599169917991099019906B
:10E3240029903990E991F99189919991189501E091
:10E3340005BF00E005BF0C94000008E101BD08E042
:10E3440001BDFFCF0091680000FDFCCF11E1002466
:10E3540010936800E8950895789408951F98179A83
:10E3640008951F9A08951F98089501E005BF02E0DB
:10E3740005BF129A03B1047003B9A79A03C0AF9AF8
:10E384000895FDCFAF98089511E023EC32E001E148
:10E394000E9433F10091C302013218F000E00093AF
:10E3A400C30200E00895949A0895949808959A9366
:10E3B4008A9380E090E0ECE8F1E0FBBFF0EE0C948F
:10E3C400FFFB85E010C08BE00EC081E10CC087E14B
:10E3D4000AC083E208C08FE206C087E404C08FE865
:10E3E40002C08FE191E08C9A949890939800809366
:10E3F400990008E900939A000EE000939D0000E262
:10E4040000939C008991999108959A938A93FA9321
:10E41400EA933A922A921A920A927A936A935A93B4
:10E424004A933A932A931A930A938FB79BB70E94FD
:10E4340028F96ACF00939C00089500919C000895E8
:10E4440000919B0006FF02C001E00895AACF00914D
:10E454009B00006400939B000895209171002E7F1F
:10E4640020937100209171002D7F20937100A801E9
:10E4740003E31BE20E94C0FB003138F010E00051BE
:10E48400104042E050E00E94D8FB009370000895D1
:10E49400009174000F70006A12C0009174000F7034
:10E4A400006D0DC001C0A8950091740007FFFBCF5B
:10E4B400089500937300009174000F700068009336
:10E4C4007400089520917400002311F000E401C049
:10E4D40000E02F70202B2068209374000895009191
:10E4E4007100087F089500E911E0B7DF04E0E7CF89
:10E4F4000E943AFC602E2901712EDA01862E85E0F5
:10E5040090E0009174000E7F00937400C1DFCADFB5
:10E514000EEF0621CEDFC6DFE2DF083111F08EE315
:10E524001AC0072D7A94002349F0F20101912F01BA
:10E53400C0DFB8DFD4DF0832A1F30CC0082D8A9401
:10E54400002351F0FD010191DF01B3DFABDFC7DF31
:10E554000832A1F38DE39EEFA0DF0091740004FD67
:10E56400FCCF8C01E9E00C9444FC0E943AFC602E40
:10E574002901712EDA01862E85E090E00091740065
:10E584000E7F0093740084DF8DDF7720D1F0062D99
:10E594000E7F8FDF87DFA3DF083119F08EE39EEF54
:10E5A40026C0072D7A94002351F0F20101912F0126
:10E5B40080DF78DF94DF0832A1F38CE3F0CF68DFEB
:10E5C40071DF01E0062975DF6DDF89DF003459F062
:10E5D4008EE39EEF08C0082D75DF64DF00917300A1
:10E5E400FD010193DF01082D8A940023A1F755DF73
:10E5F4000091740004FDFCCFB4CF0E943FFC009155
:10E604003E02002309F45AC000913D02002309F49C
:10E6140055C0009141020023D1F100E00093410272
:10E624001EED21E0EFE5F4E00083118322830383F0
:10E6340003E412E0E7E3F2E004831583E0913B0294
:10E64400F2E0EA58FF4F0081002309F524E047E691
:10E654005EED61E070E00FE514E04CD1ABE3B2E0B5
:10E66400ED91FC91E959FF4F0081118122813381A1
:10E67400EFE5F4E04081518162817381041715074D
:10E684002607370721F000E000933E0222C0E7E3AB
:10E69400F2E00081118182819381019608171907A4
:10E6A40059F42091400203E412E0A0D0E7E3F2E041
:10E6B400008111810283138300E0068300913F02ED
:10E6C400002339F00E9409F60093C80200E0009389
:10E6D4003F02E4E00C9449FC0E9440FCEBE1F1E0D1
:10E6E4009181A28180E08387848787838087848364
:10E6F4009583A68307811085000F111FF801E95C3B
:10E70400FE4F2081EBE1F1E007811085000F111F1E
:10E71400F801E95CFE4F1181EBE1F1E021871287FA
:10E72400E4ECF2E000811181228133810333174745
:10E734002A4A354549F4EBE1F1E0418552850481EB
:10E74400158126810E94C8F68E5F9F4FAF4FEBE183
:10E75400F1E0078110850F5F1F4F07831087003892
:10E76400104028F21181228100E00483158326835E
:10E77400E4ECF2E0008111812281338103331747F5
:10E784002A4A354539F4EBE1F1E00481158126810B
:10E794000E94CEF6E4ECF2E0008111812281338103
:10E7A400033317472A4A354539F4EBE1F1E0048194
:10E7B400158126810E94D0F6EBE1F1E00081118100
:10E7C4002281338100501F4F2F4F3F4F11832283EB
:10E7D4003383E3E00C944AFC40E0EBE1F1E043874F
:10E7E4004487008311832283338308950E943FFC6E
:10E7F400D801822F00912801002369F10A9519F0AC
:10E804000A9561F02AC000E000932801622F4A2F84
:10E81400512F1EED21E030E022D01FC000E0009314
:10E824002801622F4A2F512F1FEDF4CF8A950D91A5
:10E83400EBE1F1E02385F485E22FE95CFE4F0083F0
:10E84400EBE1F1E0038514850F5F1F4F0387148705
:10E85400113008F041DF882349F700E03ACF0E94E5
:10E864003CFC912FA22F2A01662EEBE1F1E00483F8
:10E874001583268302C00EEF600E662001F1F201BB
:10E8840020811181EBE1F1E021871287422F512F82
:10E894000481158126810E94C8F6EBE1F1E0048130
:10E8A400158126810E5F1F4F2F4F04831583268306
:10E8B40002E0400E00E0501E03E06016E0F600E0C7
:10E8C400192F2A2F04839583A6830E94CEF6EBE1A9
:10E8D400F1E00481158126810E94D0F6E7E00C94D2
:10E8E40046FCEBE1F1E003851485012B09F0F4DE2D
:10E8F4000C94A4F1282E822F20E00CC0FA01362FAC
:10E904001124E20FF11D311D3BBF0690F801019265
:10E914008F012395281790F3822D08950E943FFCC0
:10E9240028970A9551F00A9509F445C00A9509F407
:10E934007AC00A9509F4AFC038C024E048E75EED18
:10E9440061E070E08E010C5F1F4FD4DF22E04CE7E2
:10E954005EED61E070E08E010E5F1F4FCBDF8E0134
:10E964000E94A2F080E090E0A0E0B0E012C0FC01C0
:10E97400ABBF069100936504AE0121E030E005E6EB
:10E9840014E00E94AFF00E94A2F58F5F9F4FAF4F3B
:10E99400BF4F0C811D812E813F8180179107A207F3
:10E9A400B30728F38E010E94A7F00881198120E0A3
:10E9B40030E028968ECE24E048E75FED61E070E019
:10E9C4008E010C5F1F4F96DF22E04CE75FED61E0A4
:10E9D40070E08E010E5F1F4F8DDF8E010E94A2F04A
:10E9E40080E090E0A0E0B0E00C811D812E813F81A9
:10E9F40080179107A207B307A8F68C012A2F239545
:10EA0400F8012BBF069100936504AE0121E030E0CC
:10EA140005E614E00E94AFF00E94A2F58F5F9F4FBD
:10EA2400AF4FBF4FE1CF0EE710E00C831D831E8371
:10EA34001F8322E04EE75EED61E070E08E010E5F21
:10EA44001F4F58DF8E010E94A2F080E090E0A0E00A
:10EA5400B0E00C811D812E813F8180179107A207B0
:10EA6400B30708F09FCF8C012A2F005012422E4F7B
:10EA7400F8012BBF069100936504AE0121E030E05C
:10EA840005E614E00E94AFF00E94A2F58F5F9F4F4D
:10EA9400AF4FBF4FDECF0EE710E00C831D831E8304
:10EAA4001F8322E04EE75FED61E070E08E010E5FB0
:10EAB4001F4F20DF8E010E94A2F080E090E0A0E0D2
:10EAC400B0E00C811D812E813F8180179107A20740
:10EAD400B30708F067CF8C012A2F005011422E4F44
:10EAE400F8012BBF069100936504AE0121E030E0EC
:10EAF40005E614E00E94AFF00E94A2F58F5F9F4FDD
:10EB0400AF4FBF4FDECF0E94B7F10E9475F20E9453
:10EB1400DCF00E943FF10E9451F10E9403F900E0F1
:10EB240035E5E4ECF2E000830183028333836BD0A8
:10EB34000E94AEF10E94B0F10AE010E00C945EF77E
:10EB44000E943FF1E0E7F4E000811181012B49F4D8
:10EB540004E610E00083118302E3E4E7F4E00083B9
:10EB6400118308950E943FF1E0E7F4E000811181F0
:10EB7400012BC9F40091CE02EEEBF1E0FBBFF0EE05
:10EB84000C94F5FB00E911E0E0E7F4E00083118365
:10EB940008EC10E0E4E7F4E000831183EEECF2E02B
:10EBA400008103950083089500E213E0EDCF00E2B5
:10EBB40013E0E0E7F4E00083118300E911E0EACF19
:10EBC40008EEF6CF08E017E0E0E7F4E000831183F5
:10EBD40008EC10E0E4E7F4E0008311831093CE0224
:10EBE40008950E943FF1E0E7F4E000811181012BD8
:10EBF40049F408EC10E00083118304E6E4E7F4E050
:10EC04000083118308950E94C6F10C94B5F18A9390
:10EC140080E022E04EE75EED61E070E003E614E0A0
:10EC24000E947CF4E3E6F4E000811181ECECF2E074
:10EC34000083118303E00E9490F4E3E6F4E0008390
:10EC44001183ECECF2E02081318102171307F9F40F
:10EC540022E04CE75EED61E070E003E614E00E9420
:10EC64007CF4E3E6F4E000811181ECECF2E0008353
:10EC7400118301E00E9490F4E3E6F4E00083118341
:10EC8400ECECF2E0208131810217130709F081E0F6
:10EC940022E04EE75FED61E070E003E614E00E94DD
:10ECA4007CF4E3E6F4E000811181ECECF2E0008313
:10ECB400118304E00E9490F4E3E6F4E000831183FE
:10ECC400ECECF2E02081318102171307F9F422E021
:10ECD4004CE75FED61E070E003E614E00E947CF431
:10ECE400E3E6F4E000811181ECECF2E000831183AF
:10ECF40002E00E9490F4E3E6F4E000831183ECEC7C
:10ED0400F2E0208131810217130709F08260082F95
:10ED140089910895F8DE77DF7ADF0093C80201E075
:10ED24000093CA02E4ECF2E022812A6A22830E9460
:10ED3400C4F169DF01E00E9425F90CC00E943FF193
:10ED440011DF0E94FFF201E00093C9020091C802A2
:10ED54000023A1F70091C802002381F708E813E11A
:10ED6400E6E6F4E0008311830E943FF13ADF0E945B
:10ED7400FFF20091C9020023B9F7E6E6F4E000814E
:10ED84001181012B89F70E9499F1EECF0A0161E00C
:10ED940006C0002E69E003C063E001C065E0F8012D
:10EDA4000CD04FB7F8945BB72BBF60936800F8950D
:10EDB400FFFF00005BBF4FBF089570916800717042
:10EDC400E1F70895FADF05D00EBB1FBB2DBBE29A15
:10EDD400E19AE199FECF0895E6E6F4E0008111811D
:10EDE400012B29F00081015010400083118302811E
:10EDF4001381012B29F002810150104002831383F7
:10EE040004811581012B29F00481015010400483F1
:10EE1400158306811781012B29F0068101501040CA
:10EE24000683178300851185012B41F0008501506D
:10EE34001040008711870E94B3F102C00E94B5F10F
:10EE4400E6E6F4E002851385012B29F002850150E2
:10EE540010400287138704851585012B29F004854A
:10EE6400015010400487158706851785012B41F052
:10EE7400068501501040068717870E94C3F102C01F
:10EE84000E94C4F1E6E6F4E000891189012B31F017
:10EE9400008901501040008B118B03C000E00093E7
:10EEA4007C0402891389012B29F002890150104046
:10EEB400028B138B0C9436FBE6E6F4E0068317838F
:10EEC4000681012BE9F708950AEA15E5E3E2F5E086
:10EED40000831183338130780091C3020F71109144
:10EEE40091041074312B0283338302E0018724E000
:10EEF40047E65EED61E070E00DE215E00E947CF40F
:10EF04000091C802009331050091CA0200933205B2
:10EF140000E00093330508E00093270503E215E0C1
:10EF24002DC10AEA15E5E3E2F5E0008311830281CD
:10EF34001381007E2091C302022B0F71107830914F
:10EF440091043074132B006814C10AEA15E5E3E256
:10EF5400F5E00083118313811078EEE8F4E0228158
:10EF640033812F713074022F132B0064E3E2F5E038
:10EF740000C18A936097802F40E150E020E030E0A8
:10EF84008E010E9462FC0AEA15E5E3E2F5E00083E3
:10EF9400118302811381007C1F7B2091C3022F7196
:10EFA400022B309191043074132B0283138300E0FD
:10EFB40004838A9551F08A9509F463C08A9509F40B
:10EFC4007CC08A9509F4A5C03CC002810F73107CF3
:10EFD400006411600283138301E0088324E047E6A0
:10EFE4005EED61E070E08E010F5F1F4F0E947CF4C4
:10EFF40024E04BE65EED61E070E08E010B5F1F4F95
:10F004000E947CF427E04FE65EED61E070E08E0143
:10F01400075F1F4F0E947CF40091C80200FF07C0E5
:10F0240040E150E020E030E08E010E9462FC40E1CB
:10F0340050E09E010CE215E00E9454FC00E10093B4
:10F04400270503E215E00E9470FBE3E2F5E0058387
:10F0540016838F010E9491FBE3E2F5E0078310879A
:10F0640001E000937A0400E000937D04009380049F
:10F0740003E010E0E8E7F4E00083118360968991EF
:10F08400089502810F73107C00681160028313835A
:10F0940027E640E05EED61E070E00CE215E00E94DE
:10F0A4007CF40091C80200FF06C029E231E00CE2C2
:10F0B40015E00E94ABFC07E6C2CF02810F73107CFF
:10F0C400006C11600283138301E0088324E047E6A7
:10F0D4005FED61E070E08E010F5F1F4F0E947CF4D2
:10F0E40024E04BE65FED61E070E08E010B5F1F4FA3
:10F0F4000E947CF427E04FE65FED61E070E08E0152
:10F10400075F1F4F0E947CF40091C80201FD88CF65
:10F114008ECF107C12602283138327E640E05FEDDC
:10F1240061E070E00CE215E00E947CF40091C802FA
:10F1340001FDBBCFC0CF0AEA15E5E3E2F5E00083A9
:10F14400118322813381207C3F7B0091C3020F71A4
:10F15400202B1091910400E01074312B228333830F
:10F16400048389010F73107C006C12600283138383
:10F1740004C00283138300E004838F010E9470FBA8
:10F18400E3E2F5E0058316838F010E9491FBE3E23D
:10F19400F5E00783108701E000937A0400E0009310
:10F1A4007D040093800403E010E0E8E7F4E00083CA
:10F1B40011830895A801B9010AEA15E5E3E2F5E02F
:10F1C4000083118322813381207C3F7B0091C30221
:10F1D4000F71202B109191041074312B22833383EF
:10F1E40020E80CE215E00E947CF400E80093270577
:10F1F400E3E2F5E0028113810F73107C0064136075
:10F20400B5CF00E016E920E030E00E94D9F145E9ED
:10F2140050E020E030E00EE814E00E9462FC45E992
:10F2240050E020E030E003E215E00E9462FC4AE096
:10F2340050E020E030E00AE714E00E9462FC00E0C5
:10F2440002D00C94D7F10093B80508959A938A9349
:10F2540024970E941FF200938C0404E110E0E6E777
:10F26400F4E00083118300917C04002319F00A95D3
:10F2740049F00CC000918C040A3A41F000E000937C
:10F284007C04EEC100918C040535C1F720918C04F7
:10F29400E0917C04F0E0E257FB4F2083EAE7F4E0DE
:10F2A400028103950283093051F40EE814E037D249
:10F2B400EEE8F4E02781308502171307F9F6809110
:10F2C400920490E0089600917C0410E0801790402E
:10F2D4000CF0C6C110937C040EE814E0FFD1EEE8F4
:10F2E400F4E0258136810217130709F0B3C101E068
:10F2F40000937B040281138146E00E94BAFBE6ED91
:10F30400F1E0FBBFF0EE0C94F5FB009190040F715B
:10F314001091C302011709F0A3C10E9466F7A0C1AE
:10F32400EEE8F4E002810F7139F002810F7110915F
:10F33400C302011709F094C10E949FF191C1EEE844
:10F34400F4E002810F7139F002810F711091C30250
:10F35400011709F085C10091C802002309F080C19A
:10F3640000E00093C9020E9499F17AC100919004CF
:10F374000F711091C302011709F072C10E9493F733
:10F3840023C024E047E65EED61E070E004E814E0A9
:10F394000E947CF4EEE8F4E001851285238534852F
:10F3A400EAE7F4E006871787208B318B0285138503
:10F3B4002485358546855785608971890417150725
:10F3C4002607370709F04CC101E00093C90248C180
:10F3D400009190040F711091C302011709F040C10C
:10F3E400009197040093C3020E94A7F701E00093E1
:10F3F400CB0236C1009190040F711091C302011722
:10F4040009F02EC101E00E94BBF72AC100919004CB
:10F414000F711091C302011709F022C103E0F3CF69
:10F42400009190040F711091C302011709F018C1E3
:10F4340002E0E9CF009190040F711091C30201170B
:10F4440009F00EC104E0DFCF009190040F71109118
:10F45400C302011709F004C101E00E949DF800E015
:10F4640000938D0401E000933E0200934102009357
:10F47400280100E0E9E3F2E0008301830093420203
:10F48400E4ECF2E011811767118310E020E030E032
:10F494000E94EEF3E5C0009190040F711091C30235
:10F4A400011709F0DDC001E00E949DF800E000931F
:10F4B4008D0401E000933E0202E0009341020093B8
:10F4C400280100E0E9E3F2E00083018300934202B3
:10F4D400E4ECF2E011811767118310E021E0D7CF4B
:10F4E40024E047E65EED61E070E004E814E00E9489
:10F4F4007CF4EEE8F4E00185128523853485EAE79F
:10F50400F4E006871787208B318B0091C902013004
:10F5140009F0A6C00285138524853585468557855F
:10F5240060897189041715072607370709F098C001
:10F5340001E0038B98CF24E047E65EED61E070E0E4
:10F5440004E814E00E947CF4EEE8F4E001851285FE
:10F5540023853485EAE7F4E006871787208B318B0F
:10F564000091C902013009F07BC00285138524850E
:10F5740035854685578560897189041715072607DF
:10F58400370709F06DC001E0038B94CF009190041C
:10F594000F711091C302011729F000918D0400230B
:10F5A40009F45EC00E943FF100918D04002319F418
:10F5B40001E00E949DF801E000933D020091920455
:10F5C40002500093400242E050E027E934E007E3B0
:10F5D40012E00E9454FC4091400250E029E934E0DA
:10F5E40003E412E00E9454FCE4ECF2E000810363C3
:10F5F400008336C0009190040F711091C30201176B
:10F6040021F000918D04002359F100918D04002311
:10F6140019F401E00E949DF80E9473F401E0009344
:10F624003F0200E000933E021BC0009190040F7162
:10F634001091C3020117A1F444E050E027E934E03B
:10F644008E010E9454FC088119812A813B810E9409
:10F65400DCF806C004E610E0E4E7F4E0008311837C
:10F6640024968991999108959A938A93E8E7F4E00E
:10F6740000811181012B41F5009180040023F9F4EC
:10F684000E9422F2002301F10E94D5F10E9429F286
:10F69400E0917D04F0E0ED5DFA4F00810E941CF2E0
:10F6A400EAE7F4E00381039503838091270590E062
:10F6B40008968017904044F401E0068305C000E0FA
:10F6C40000937A040E94D7F1CCCF8E010E94A7F058
:10F6D400088119812296E4E00C9449FC0E9440FCC4
:10F6E4002297C8018E010E94A2F0A0E00BC0AE01D7
:10F6F40021E030E08C010A0F131F075F1F4F0E94A7
:10F70400AFF0A395FC010481A01788F38E010E9439
:10F71400A7F0088119812296E3E00C944AFC0E9428
:10F724003FFC2297D8018E010E94A2F080E0AE0136
:10F7340021E030E08D01080F131F0E94AFF0839584
:10F744008730A8F3C2CF00008895FECF08EB0DBF29
:10F7540009E00EBFC9EBDAE00E9452FC002311F06D
:10F764000E947BFC0E948CF60E94A5FB0C94A5FBD6
:10F774004A951AF016950795FBCF08950024112495
:10F78400EFE0001F111F001C111C0416150610F0D9
:10F79400041A150AEA95AAF7001F111FA001009583
:10F7A400109508955195419550400895FF2755238C
:10F7B40012F4F160F7DF112312F4F09507D00E94E0
:10F7C400C0FBF0FD03D0F1FDEDCF08951195019537
:10F7D400104008957791679157914791179011FAC6
:10F7E400279037900895F9DF041B10E003C0F4DF7D
:10F7F400041B150B20E030E005C0ECDF041B150BE7
:10F80400260B370BB8F010FC17C047910790E00F98
:10F81400F11F0417100540E02407340758F436F4A8
:10F8240006910024F101E01BF0090994E00FF11F97
:10F8340027903790F101099411F4D6F7F1CF31965E
:10F844000EF0319650E060E070E047914B3F48F095
:10F8540089F34F3F29F04E3F11F07791679157910B
:10F864004791041B150B260B370B39F318F3E7CF1D
:10F874008A927A926A925A924A92BA93AA939A93E1
:10F884008A93089588847F806E805D804C80BB81DC
:10F89400AA8199818881F0E0EC0FFD1FEF010895A2
:10F8A40001E008950D01D80104C0F90161919F019F
:10F8B4006D93BA0141505040672BB9F7D0010895B8
:10F8C400F80101C02193BA0141505040672BD1F790
:10F8D400089520E008D0E9F708953BBF27913BB78E
:10F8E40002D0D9F708952D9301501040202F212BD9
:10F8F400089500E0402E01EE502E01E0602EF2014A
:10F90400362D6BBE07911691F201EE5FFF4F3F4F0C
:10F914003BBFA791B691F201362DEC5FFF4F3F4FED
:10F924003BBF479157916691242F252B262B21F01D
:10F93400FA01362FD2DF01C0CCDF07E0400E00E031
:10F94400501E601EA201662D4E30514E6140B8F229
:10F9540008957B2F0A2EA801D8010F5F1F4FF901CC
:10F9640061919F016C936623B9F78A01A02DB72F8B
:02F974000895F4
:040000031000E00009
:00000001FF
