:100000000C94F259189518951895189518951895F7
:100010001895189518951895189518951895189578
:100020001895189518951895189518951895189568
:100030000C94A51718951895189518951895189556
:1000400018951895189518950C94C303189518953C
:100050001895189518951895189518951895189538
:100060001895189518951895189518951895189528
:1000700018951895189518950C9488181895189532
:100080000C94C318189518951895189500000960D8
:10009000011B041904FE09601704FE12C01504FEBA
:1000A00012C01304FE12C01104FE25800F04FE25A9
:1000B000800D04FE4B000B04FEE1000904FB00016F
:1000C000090B740A048A0A01AC0A01C00A01B70AC2
:1000D00001C90A06950A04D10A02740A077E0A17A2
:1000E000E40A01DB0A01ED0A01F60A01010BFB003B
:1000F000000009600175187318FE09607118FE127E
:10010000C06F18FE12C06D18FE12C06B18FE25805D
:100110006918FE25806718FE4B006518FEE1006334
:1001200018FB0000D2211000D2210F201C204020FB
:100130005E207C209A20B820D620F42012213B217A
:10014000592177219521B2210000C12310001122ED
:100150001C2229224C2269228622A322C022DD22CF
:10016000FA22172332234F236C238623A223000174
:10017000C0300430011730012130012D30016A30C8
:10018000013930013F30014730014B3001513029F6
:100190005730015D30015D30086A30016E30017208
:1001A00030017630017A30068230018A30018E309B
:1001B000019230019630069A3001AB3001B3301213
:1001C000BC3064C930FB00003240080018401B40BE
:1001D0001E402140244027402A402D400E941E5DA1
:1001E000802F012F8823D9F10E94FC03A4EAB4E0F8
:1001F0000AEA15E50D931C931197FD010281138105
:10020000007E282F2F71022B006202831383882324
:1002100019F402810F7D0283028113810F73107C18
:1002200015600283138300E00093A8048D010E94EF
:100230007609FD01058316838D010E949709FD0152
:1002400007831087E0EDF5E001E0008300E0038321
:1002500001E0048300E00183028305830683E4E078
:100260000C942F5D0E941E5D802F012F8823E1F1E9
:100270000E94FC03A4EAB4E00AEA15E50D931C937E
:100280001197FD0102811381007E282F2F71022B0F
:10029000006202831383882319F402810F7D028395
:1002A000028113810F73107C00681860028313832E
:1002B00000E00093A8048D010E947609FD010583EA
:1002C00016838D010E949709FD0107831087E0EDD9
:1002D000F5E001E0008300E0038301E0048300E037
:1002E0000183028305830683E4E00C942F5D0E9462
:1002F0001E5D802F012F0E94FC03A4EAB4E047E0BA
:1003000050E02BE63FE00DEA14E00E943A5D0AEA75
:1003100015E50D931C931197FD0102811381007E59
:10032000282F2F71022B006202831383882319F474
:1003300002810F7D0283028113810F73107C006C98
:1003400018600283138307E00093A8048D010E94C4
:100350007609FD01058316838D010E949709FD0131
:1003600007831087E0EDF5E001E0008300E0038300
:1003700001E0048300E00183028305830683E4E057
:100380000C942F5D0E941E5D802F942FA4EAB4E090
:100390001093AD049093AE0402E0909FA0010FEA89
:1003A00014E00E943A5D0AEA15E5FD01008311831D
:1003B00002811381007E282F2F71022B006202839D
:1003C0001383882319F402810F7D02830281138134
:1003D0000F73107C1A6002831383990F9E5F9093B2
:1003E000A8048D010E947609FD01058316838D0105
:1003F0000E949709FD0107831087E0EDF5E001E019
:10040000008300E0038301E0048300E001830283B2
:1004100005830683E4E00C942F5D0E941D5D802F10
:10042000912F422E0E94FC03A4EAB4E09093AD0405
:100430004092AE040AEA15E50D931C931197FD0155
:1004400002811381007E282F2F71022B006202830C
:100450001383882319F402810F7D028302811381A3
:100460000F73107C006C1A600283138302E0009308
:10047000A8048D010E947609FD01058316838D0174
:100480000E949709FD0107831087E0EDF5E001E088
:10049000008300E0038301E0048300E00183028322
:1004A00005830683E5E00C942E5D0E941E5D802F7F
:1004B0000E94FC03A4EAB4E00AEA15E50D931C933C
:1004C0001197FD0102811381007E282F2F71022BCD
:1004D000006202831383882319F402810F7D028353
:1004E000028113810F73107C1B600283138300E071
:1004F0000093A8048D010E947609FD0105831683EF
:100500008D010E949709FD0107831087E0EDF5E05A
:1005100001E0008300E0038301E0048300E0018345
:10052000028305830683E4E00C942F5D0E941E5D28
:10053000802FA4EAB4E04FE050E00DEA14E00E94FE
:100540003A5D082F0E94FC030AEA15E50D931C93FF
:100550001197FD0102811381007E282F2F71022B3C
:10056000006202831383882319F402810F7D0283C2
:10057000028113810F73107C006C1B600283138354
:100580000FE00093A8048D010E947609FD01058308
:1005900016838D010E949709FD0107831087E0ED06
:1005A000F5E001E0008300E0038301E0048300E064
:1005B0000183028305830683E4E00C942F5D0E948F
:1005C0001E5D2297802F912F89010E94B9530883C5
:1005D0001983A4EAB4E042E050E09E010DEA14E081
:1005E0000E943A5D9093AF04492F50E00881198131
:1005F00021E33FE0200F311F00EB14E00E943A5D41
:10060000082F0E94FC030AEA15E5FD01008311830F
:1006100002811381007E282F2F71022B006202833A
:100620001383882319F402810F7D028302811381D1
:100630000F73107C006C1C60028313839D5F90938A
:10064000A8048D010E947609FD01058316838D01A2
:100650000E949709FD0107831087E0EDF5E001E0B6
:10066000008300E0038301E0048300E00183028350
:10067000058306832296E4E00C942F5D0E941E5DA4
:100680002297802F912F89010E94B95308831983E3
:10069000882309F446C0A4EAB4E042E050E09E0199
:1006A0000DEA14E00E943A5D9093AF04082F0E9477
:1006B000FC030AEA15E50D931C931197FD010281D5
:1006C0001381007E282F2F71022B00620283138377
:1006D000882319F402810F7D0283028113810F7335
:1006E000107C00681C600283138303E00093A8045D
:1006F0008D010E947609FD01058316838D010E94FC
:100700009709FD0107831087E0EDF5E001E0008324
:1007100000E0038301E0048300E00183028305839A
:1007200006832296E4E00C942F5D00910D040050A6
:1007300059F0025061F00A9569F00A9571F00A9536
:1007400079F0025081F008950E941B2F08950E94B5
:10075000973208950E94DB3608950E94743C0895F4
:100760000E940D4C08950E94DF46089506C00000C7
:1007700023952530E0F301501040202F212B11F05C
:1007800020E0F7CF08959A938A93FA93EA933A92E6
:100790002A921A920A927A936A935A934A933A93B4
:1007A0002A931A930A938FB79BB782D09BBF8FBFB0
:1007B00009911991299139914991599169917991A9
:1007C0000990199029903990E991F991899199911D
:1007D00018950CB908950CB108955E9B02C001E014
:1007E000089500E008955E9A0895DD9A02E010E011
:1007F000BDDF0895DD9808950093D70508959A9375
:100800008A9380E090E0ECE8F0E0FBBFF0E00C942D
:10081000C05C85E010C08BE00EC081E10CC087E1B8
:100820000AC083E208C08FE206C087E404C08FE8F4
:1008300002C08FE191E0D59ADD98D7DF8C0110934B
:10084000900009B908E90AB90EE00093950000E2AA
:100850000CB989919991089500E016E920E030E003
:10086000CEDF45E950E020E030E00FE014E00E94E8
:10087000485D45E950E020E030E004EA14E00E94E1
:10088000485D4AE250E020E030E000ED15E00E94D3
:10089000485D00E007C022E310E0F801E053FA4FA2
:1008A000208703950032B8F300E00093D705089540
:1008B0000E941E5D90DF00930E04E0EDF5E00281E2
:1008C000102F105019F01A9541F00BC010910E0422
:1008D0001A3A39F000E002831DC010910E0415355C
:1008E000C9F720910E0410E0D801A15FBB4F2C93F3
:1008F00002810395028304E10093F2031093F30352
:100900008091130490E0089602818017910714F4F7
:1009100001E00183E4E00C942F5D9A938A935DDFFC
:10092000002319F10091D6050023E1F45CDF00916A
:10093000D30510E0F801EC55FB4F00814ADF009130
:10094000D30503950093D3058091A80490E0089601
:100950000091D30510E0801791073CF401E000936B
:10096000D60503C000E00093D005899199910895C0
:10097000BA93AA930091D405005059F00A9569F0F2
:100980000A9509F444C00A9509F4A0C00A9509F033
:10099000C1C000E000939A06BDC027DFBEDF009112
:1009A000D005002391F526DFE4EAF4E0028105FF9B
:1009B00023C002E00093D40504E110E00093F203A9
:1009C0001093F3032091D705EAEFF5E0E20FF11F52
:1009D000DF01A058BF4F0C9103950C93E05AFF4FD5
:1009E00000A1043690F0AAEFB5E0A20FB11F0C9160
:1009F000008310A31C9309C000E00093D40500936A
:100A0000D3050093D1050093D20500E081C0F2DE4A
:100A10000091D105013059F4209111042F710091FA
:100A2000A6040F71201719F403E00093D405009178
:100A3000F2031091F303012B09F06CC00091D7056C
:100A400010E0E0EDF5E0E00FF11F00850395008771
:100A50000091D705E0EDF5E0E00FF11F00850333CD
:100A600010F002E300870091D705EAEFF5E0E00F10
:100A7000F11F00810395008300919A060330A8F4CA
:100A800000919A06039500939A0601E00093D00521
:100A90001093D3050093D4051093D1051093D2057C
:100AA0001093D5051093D60535C01093D40501E0F9
:100AB0000093D5051093D0051093D3051093D1055D
:100AC0001093D20500810395008324C000E00093B9
:100AD000D4052091D705E0EDF5E0E20FF01F008787
:100AE000AFE0B4E08D010E94970917962D913C91DB
:100AF00018970217130711F002E00AC012962D9101
:100B00002F710091A6040F71201709F47ECF03E026
:100B10000093D505A991B9910895BA93AA93E4EBEE
:100B2000F6E0048100FF06C004E110E00093F0034A
:100B30001093F103A3E5B7E00AEA15E50D931C93C2
:100B4000119712960D911C911397007E2091E40E3F
:100B5000022B0F71107C2091C0063091C106207CC1
:100B60003F73022B132B12960D931C93139703E0E4
:100B700000935C0764E070E04DE557E007E61EED8A
:100B800021E030E00E94101867E070E041E657E095
:100B90000FE61EED21E030E00E94101864E070E0E6
:100BA00049E657E007E61FED21E030E00E9410180B
:100BB00067E070E04DE657E00FE61FED21E030E022
:100BC0000E9410180AE717E000930B0410930C041E
:100BD0000091720F00937B0700913D0F10913E0F23
:100BE000D4960D931C93D5970091470F1091480F01
:100BF000D6960D931C93D7970FE2009357078D015C
:100C00000E94760915960D931C9316978D010E94EC
:100C1000970917960D931C93EBE9F6E001E000832A
:100C200000E00383068303E010E00093F4031093D5
:100C3000F503A991B99108950E941E5DAEEBB6E04F
:100C40000FEC16E000930B0410930C04E7E2F0E1C4
:100C500003E000830091720F01830091D9060283A3
:100C60005E960D911C915F97018712875C960D919E
:100C70001C915D970383148301E00093580883E57A
:100C800097E00AEA15E5FC010083118302811381D4
:100C9000007E2091E40E022B0F71107CFD01228159
:100CA0003381207C3F73022B132BFC0102831383BF
:100CB00001E1009357078C010E947609FC0105832E
:100CC00016838C010E949709FC0107831087EBE9CA
:100CD000F6E001E0008300E00383068303E010E018
:100CE0000093F4031093F503E4E00C942F5D0E944D
:100CF0001E5D6097802F40E250E020E030E08E01E2
:100D00000E94485DA3E5B7E00AEA15E50D931C9340
:100D10001197FD0102811381007E2091E40E2F7155
:100D2000022B00620283138320E020935707815037
:100D300049F08A95C9F18A9509F441C08A9509F468
:100D400061C072C00F73107C006411600283138352
:100D500001E0088324E030E047E65EED61E070E00A
:100D60008E010F5F1F4F0E94FC1724E030E04BE61E
:100D70005EED61E070E08E010B5F1F4F0E94FC177B
:100D800027E030E04FE65EED61E070E08E01075F46
:100D90001F4F0E94FC1740E150E09E010CE517E058
:100DA0000E943A5D00E13EC00F73107C0068116044
:100DB0000283138327E630E040E05EED2CC00F7322
:100DC000107C006C11600283138301E0088324E02F
:100DD00030E047E65FED61E070E08E010F5F1F4F8E
:100DE0000E94FC1724E030E04BE65FED61E070E02C
:100DF0008E010B5F1F4F0E94FC1727E030E04FE68B
:100E00005FEDC2CF0F73107C12600283138327E65D
:100E100030E040E05FED61E070E00CE517E00E943B
:100E2000FC1707E6009357078D010E947609FD0124
:100E3000058316838D010E949709FD0107831087A2
:100E4000EBE9F6E001E0008300E00383068303E0C2
:100E500010E00093F4031093F5036096E4E00C9423
:100E60002F5DBA93AA93A3E5B7E00AEA15E50D93BF
:100E70001C93119712960D911C911397007E20914F
:100E8000E40E022B0F71107C0068146012960D9313
:100E90001C93139700E0009357078D010E94760979
:100EA00015960D931C9316978D010E94970917961E
:100EB0000D931C93EBE9F6E001E0008300E003836F
:100EC000068303E010E00093F4031093F503A99167
:100ED000B9910895BA93AA93A3E5B7E00AEA15E594
:100EE0000D931C93119712960D911C911397007EF0
:100EF0002091E40E022B0F71107C006C146012968E
:100F00000D931C93139700E0009357078D010E94E7
:100F1000760915960D931C9316978D010E949709DB
:100F200017960D931C93EBE9F6E001E0008300E0D7
:100F30000383068303E010E00093F4031093F503AA
:100F4000A991B991089509E315E0EEEBF6E045E9C2
:100F500050E00E94FB5C01E00093CE0502E00093AC
:100F6000050408959A938A9301E00093CE05809139
:100F7000C20690E00996AC0127EC36E009E315E0E3
:100F80000E943A5D02E000930504899199910895C9
:100F9000BA93AA93229742E050E027EC36E08E0104
:100FA0000E943A5D4091C90650E02AEC36E0688123
:100FB000798101E31FE0060F171F0E943A5DA3E548
:100FC000B7E00AEA15E50D931C931197FD01028124
:100FD0001381007E2091E40E022B0F71107CEEEB4A
:100FE000F6E022813381207C3F73022B132BFD011D
:100FF0000283138300E0009357078D010E94760956
:10100000FD01058316838D010E949709FD01078369
:101010001087EBE9F6E001E0008300E0038306833C
:1010200003E010E00093F4031093F5032296A991D6
:10103000B99108950E941E5D229742E050E027EC8E
:1010400036E08E010E943A5D8091C906A3E5B7E0C3
:10105000482F50E00881198121E33FE0200F311F24
:101060000FE517E00E943A5D42E050E09E010CE57A
:1010700017E00E943A5D80935E070AEA15E50D933A
:101080001C931197FD0102811381007E2091E40ED3
:10109000022B0F71107CEEEBF6E022813381207C75
:1010A0003F73022B132BFD01028313838D5F80930B
:1010B00057078D010E947609FD01058316838D0176
:1010C0000E949709FD0107831087EBE9F6E001E034
:1010D000008300E00383068303E010E00093F40341
:1010E0001093F5032296E4E00C942F5DBA93AA9333
:1010F000A3E5B7E00AEA15E50D931C931197129644
:101100000D911C911397007E2091E40E022B0F711C
:10111000107C2091C0063091C106207C3F73022BC9
:10112000132B12960D931C93139703E000935C0707
:1011300064E070E04DE557E007E61EED21E030E0A9
:101140000E94101867E070E041E657E00FE61EEDE0
:1011500021E030E00E94101864E070E04DE557E0B7
:1011600007E61FED21E030E00E94101867E070E014
:1011700041E657E00FE61FED21E030E00E94101835
:1011800007E1009357078D010E94760915960D938C
:101190001C9316978D010E94970917960D931C9327
:1011A000EBE9F6E001E0008300E00383068303E05F
:1011B00010E00093F4031093F503A991B9910895F9
:1011C000BA93AA930E946017A3E5B7E04FE050E0FE
:1011D00027E230E10CE517E00E943A5D0AEA15E5E6
:1011E0000D931C93119712960D911C911397007EED
:1011F0002091E40E022B0F71107C2091C0063091DB
:10120000C106207C3F73022B132B12960D931C9367
:1012100013970FE0009357078D010E9476091596EA
:101220000D931C9316978D010E94970917960D93A5
:101230001C93EBE9F6E001E0008300E00383068302
:1012400003E010E00093F4031093F503A991B99122
:101250000895BA93AA934FE050E027EC36E007E2F6
:1012600010E10E943A5D01E0009358082091C00609
:101270003091C106022F0F71B1F1A3E5B7E00AEA80
:1012800015E50D931C93119712960D911C911397D0
:10129000007E4091E40E042B0F71107C207C3F7384
:1012A000022B132B12960D931C9313970FE00093B0
:1012B00057078D010E94760915960D931C9316977A
:1012C0008D010E94970917960D931C93EBE9F6E0A8
:1012D00001E0008300E00383068303E010E0009355
:1012E000F4031093F503A991B99108950E941F5D2D
:1012F0002297C8018E010E948D16A0E00BC0AE019E
:1013000021E030E08C010A0F131F075F1F4F0E947E
:101310009B16A395FC010481A01788F38E010E94FF
:101320009216088119812296E3E00C94305D0E94A8
:101330001E5D2297D8018E010E948D1680E009C0A3
:10134000AE0121E030E08D01080F131F0E949B16B3
:1013500083958730A8F38E010E9492160881198127
:101360002296E4E00C942F5D00E016E920E030E0E6
:101370000E94591845E950E020E030E00EEB16E0FD
:101380000E94485D45E950E020E030E003E517E0C9
:101390000E94485D4AE050E020E030E00BE916E0B2
:1013A0000E94485D4AE050E020E030E00AEA16E0A2
:1013B0000E94485D4AE050E020E030E004EB16E097
:1013C0000E94485D0E94511808950E941C5D04E629
:1013D00010E00093D4031093D5038BE996E00E94AC
:1013E000B1180093A90600919D06102F105019F016
:1013F0001A9549F00CC01091A9061A3A41F000E084
:1014000000939D0606C11091A9061535C1F7AEEBF4
:10141000B6E02091A90610E0F801E254F94F2083CC
:10142000FC0102810395028300919D06093041F47D
:101430008D017DDFFD012781308502171307F9F645
:10144000E091C206F0E0389600919D0610E0E017AA
:10145000F1070CF0DEC010939D068D0147DFFD0102
:10146000258136810217130709F0D3C001E00093EC
:101470009C060091CF05002329F14280538046E06D
:1014800082010E943A5A035119F00F5191F0C1C0E4
:10149000042D0F711091E40E011711F0002389F44F
:1014A000028105FF02C00E946A0700E00093CF0599
:1014B000B0C0042D0F711091E40E011711F40E94B9
:1014C000B207A7C0038106FF03C00E94A307A1C003
:1014D0004280538046E082010E943A5AEEEBF0E0EF
:1014E000FBBFF0E00C94B65C042D0F711091E40E7C
:1014F000011709F08EC00E948D058BC0042D0F715D
:101500001091E40E011719F0002309F082C00E9427
:101510001C067FC0042D0F7129F01091E40E0117F5
:1015200009F077C00E94B65374C0FD010185128591
:1015300023853485FC010287138724873587EAE4F5
:10154000F0E1408151816281738140175107620748
:10155000730709F05EC0E6CF042D0F711091E40E01
:10156000011709F056C001E00E94770652C0042D11
:101570000F711091E40E011709F04BC003E0F4CF96
:10158000042D0F711091E40E011709F042C002E022
:10159000EBCF042D0F711091E40E0117D1F504E08B
:1015A000E3CF042D0F711091E40E011791F50E9405
:1015B000310701E07BCF042D0F711091E40E01176C
:1015C00041F50E94C80725C0042D0F711091E40E4B
:1015D0000117F9F40E941A081CC0042D0F71109114
:1015E000E40E0117B1F40E94E00813C0042D0F713E
:1015F0001091E40E011711F0002359F40E942909FB
:1016000008C0042D0F711091E40E011711F40E940F
:101610007608E6E00C942D5D9A938A930091F4038A
:101620001091F503012B69F50091A106002321F526
:101630000E94B418002329F10E944F180E94BD187F
:1016400000919E0610E0F801ED5AF84F00810E94CB
:10165000AE1800919E06039500939E068091570751
:1016600090E0089600919E0610E0801791074CF4D8
:1016700001E00093A10605C000E000939B060E94D4
:101680005118899199910895005019F00A9549F0DF
:1016900011C000E0E6E9F1E00083018302830383E7
:1016A00009C000EE10E120E0E6E9F1E000831183DB
:1016B00022832383E6E9F1E00081118122813381D5
:1016C00000521E4F2F4F3F4F0483158326833783CD
:1016D00000E000870187028703870895BA93AA93E1
:1016E000005019F00A9549F011C000E0E6E9F1E078
:1016F000008301830283038309C000EE10E120E030
:10170000E6E9F1E00083118322832383A6E9B1E0B7
:101710000D911D912D913C91139700521E4F2F4F0B
:101720003F4F14960D931D932D933C93179700E014
:1017300018960D930D930D930C931B9700E80E9440
:10174000B11914960D911D912D9117970E94BA19F8
:1017500014960D911D912D911797012F0E94BA1982
:1017600002E40E94B1190EE10E94BA1900E00E9441
:10177000BA1903E40E94B11918960D911D912D918B
:101780001B970E94BA1918960D911D91012F0E9466
:10179000BA1900E40E94B1190EE10E94BA1900E0E2
:1017A0000E94BA1901E40E94B119A991B991089552
:1017B0008A93812F0E94BA19082F0E94BA1901E258
:1017C0000E94B119899108959A938A9380E090E0DC
:1017D00000E00E94BA1900E00E94BA1904E20E94D7
:1017E000B11909C00E942A1800E00E94BA1900EC41
:1017F0000E94B1190196803000E8900798F3899112
:10180000999108950E941E5DE6E9F1E08481958139
:10181000082F0E94BA19FC01EF2F0E2F0E94BA194F
:1018200004E20E94B119E6E9F1E004811581D801D2
:10183000A050B14F09C00E942A1800E00E94BA19B6
:1018400000EC0E94B11901968A179B07A0F3E4E00F
:101850000C942F5D0E941E5DE6E9F1E08085918584
:10186000082F0E94BA19FC01EF2F0E2F0E94BA19FF
:1018700004E20E94B119E6E9F1E000851185D80182
:10188000A052BE4F09C00E942A1800E00E94BA1957
:1018900000EC0E94B11901968A179B07A0F3E4E0BF
:1018A0000C942F5D0E941E5DD801432F50E00EE185
:1018B00010E00E942C5AC801820F951FE6E9F1E062
:1018C00000851185800F911F082F0E94BA19892F5A
:1018D000082F0E94BA1904E207C00E942A180D912D
:1018E00000520E94BA1900EC0E94B1190C91002319
:1018F000A1F7E4E00C942F5D0E941C5DD801922FAB
:10190000232F50E00EE110E00E942C5A2801420ED5
:10191000551EE6E9F1E000851185400E511E042DAB
:101920000E94BA19452C042D0E94BA1904E20AC07B
:101930000E942A18FD019BBF0791DF0100520E94FF
:10194000BA1900EC0E94B119FD019BBF069100235A
:1019500079F7E6E00C942D5DBA93AA93A5ECB1E07B
:1019600002E612E0FD01058F168FE0916902F09109
:101970006A0209950091D90E12E0019FFD01E00D68
:10198000F11D03811481FD01018F128F00E007C05A
:1019900020E0E5ECF1E0E00FF21F25A30395003114
:1019A000B8F3A991B99108958A9380E00EC020E020
:1019B000482F50E00FE010E00E942C5AA80107E8E1
:1019C0001CE0040F151FD3D08395E091E201F09144
:1019D000E3010581801758F3899108958A9380E087
:1019E0000DC0482F50E00FE010E00E942C5A9801E3
:1019F00007E81CE0020F131FA5D38395E091E201D5
:101A0000F091E3010581801760F3899108950E94A8
:101A10001C5DA5ECB1E00091E901053160F15D9636
:101A2000ED91FC915E9703851485F80109950FE609
:101A300012E0FD01058F168F0FE010E000938A0C75
:101A400010938B0C0093990C10939A0C0093A80C94
:101A50001093A90C0093B70C1093B80C0093C60C0C
:101A60001093C70CE0917602F091770209959CDF04
:101A700000E00093E9015D96ED91FC915E97218570
:101A8000328500E02030300721F001851285F80111
:101A9000099580E001C08395FD01058D168DF80143
:101AA00005818017B8F5482F50E00FE010E00E9444
:101AB0002C5A27E8422E2CE0522E400E511E820155
:101AC00008D5002341F3F201038103FFE4CF03852E
:101AD000148520E00030120711F0F8010995F20199
:101AE00005851685012BB9F2FD01058D168DF801CE
:101AF00003851485F8010995F20105851685FD0118
:101B0000058F168FA58DB68D1796ED91FC910995D1
:101B10004BDF0FC00091E801FD0112A110FF04C0CE
:101B2000002339F401E003C0013019F400E0009310
:101B3000E801E6E00C942D5D10E000FB0EF410E8E7
:101B400001FB0EF4106402FB0EF4106203FB0EF4B2
:101B5000106104FB0EF4186005FB0EF4146006FB24
:101B60000EF4126007FB0EF41160012F08950E941D
:101B7000125D2E972F835801F50103811481012BEB
:101B800009F46AC124E030E00281029FA00170E004
:101B900061E08E01065F1F4F0E94FC1787E198E00D
:101BA00026E330E04A855B856C857D8540575E4F36
:101BB0006E4F7F4F8C010E94FC17FC010288138836
:101BC00006891789088719870A851B852C853D8515
:101BD0004285538564857585040F151F261F371FA1
:101BE000C801D90180579E4FAE4FBF4F43E08001DF
:101BF0000E943A5A680143E00E94345A001A1108C0
:101C000021F001E0C00E00E0D01E86010C7F96019D
:101C1000201B310B2D833E830D811E81012B41F052
:101C200004E010E02D813E81021B130B0D831E8307
:101C300008851985015010402D813E81A601420F73
:101C4000531F0E942C5A20E0800F911FA21FB21F29
:101C5000F501038104FD10C00581005019F00A95BB
:101C600039F00AC0882499247601F694E79404C0D8
:101C70004601969487947601038104FF07C005818D
:101C800012E0019F40017401E10EF21E038107FF83
:101C900006C085809924740101E0E00EF21E0381E4
:101CA00005FF03C08824992476010091300F00239A
:101CB0002B832C8309F073C00FC02D813E818601D8
:101CC000020F131F801B910BA040B0400B811C81A1
:101CD0000F5F1F4F0B831C830B811C812885398567
:101CE0000217130708F0B8C089829A820CC00095C9
:101CF0000E94BA1900EC0E94B11909811A810F5F84
:101D00001F4F09831A8309811A810E151F05A8F632
:101D100021E030E009811A81AC01BD01400F511F63
:101D2000631F731F8E010E94FC17EAE9F1E0008136
:101D3000118149815A8148195909040F151FF5016C
:101D4000408150E0040F151F28014B815C81018107
:101D500010E0400F511F0EE10E942C5A400E511E00
:101D600082010E94BA19452C042D0E94BA1904E27E
:101D70000E94B1190F810023088109F0B8CFB8CFB4
:101D80002D813E818601020F131F801B910BA04005
:101D9000B0400B811C810F5F1F4F0B831C830B8195
:101DA0001C81288539850217130708F055C08982E0
:101DB0009A820CC000950E94BA1900EC0E94B119D9
:101DC00009811A810F5F1F4F09831A8309811A81C4
:101DD0000E151F05A8F621E030E009811A81AC013B
:101DE000BD01400F511F631F731F8E010E94FC171E
:101DF0000881A2DE0883EAE9F1E000811181015146
:101E00001F4F49815A8148195909F501608170E0D5
:101E1000460F571F041B150B28014FE750E00B819D
:101E20001C81401B510B018110E0401B50400EE112
:101E30000E942C5A400E511E82010E94BA19452C54
:101E4000042D0E94BA1904E20E94B1190F810023E7
:101E5000088109F0AFCFAFCF2E96E0E10C94235D5F
:101E60000E94125D2D975801F50106811781012B03
:101E700009F464C124E030E044815581440F551FCA
:101E8000440F551F70E061E08E01075F1F4F0E94F5
:101E9000FC1787E198E026E330E049855A856B8599
:101EA0007C8540575E4F6E4F7F4F8C010E94FC1720
:101EB000FC0102881388068917890F831887098512
:101EC0001A852B853C854285538564857585040F6D
:101ED000151F261F371FC801D90180579E4FAE4FCF
:101EE000BF4F43E080010E943A5A680143E00E94DC
:101EF000345A001A110821F001E0C00E00E0D01E93
:101F000086010C7F9601201B310B2D833E830D81B2
:101F10001E81012B41F004E010E02D813E81021B67
:101F2000130B0D831E830F811885015010402D81E6
:101F30003E81A601420F531F0E942C5A20E0800FC1
:101F4000911FA21FB21FF501068104FD10C000857C
:101F5000005019F00A9539F00AC0882499247601B6
:101F6000F694E79404C0460196948794760106811E
:101F700004FF07C0008512E0019F40017401E10EDB
:101F8000F21E068107FF06C080849924740101E0D7
:101F9000E00EF21E068105FF03C088249924760115
:101FA0000091300F00232B832C8309F0BDC054C057
:101FB00021E030E009811A81AC01BD01400F511FC1
:101FC000631F731F8E010E94FC17EAE9F1E0008194
:101FD000118149815A8148195909040F151FF501CA
:101FE00040815181040F151F28014B815C810281C2
:101FF0001381400F511F0EE110E00E942C5A400E39
:10200000511E82010E94BA19452C042D0E94BA1952
:1020100004E20E94B11908810E94BA1900EC0E94E2
:10202000B11909811A810F5F1F4F09831A83098132
:102030001A810E151F0508F4BBCF2D813E81860144
:10204000020F131F801B910BA040B0400B811C811D
:102050000F5F1F4F0B831C830B811C812F813885E1
:102060000217130708F06AC089829A82E0CF21E044
:1020700030E009811A81AC01BD01400F511F631F7F
:10208000731F8E010E94FC17088156DD0883EAE960
:10209000F1E00081118101511F4F49815A81481996
:1020A0005909F50160817181460F571F041B150BFB
:1020B00028014FE750E00B811C81401B510B02812E
:1020C0001381401B510B0EE110E00E942C5A400E70
:1020D000511E82010E94BA19452C042D0E94BA1982
:1020E00004E20E94B11908810E94BA1900EC0E9412
:1020F000B11909811A810F5F1F4F09831A83098162
:102100001A810E151F0508F4B2CF2D813E8186017C
:10211000020F131F801B910BA040B0400B811C814C
:102120000F5F1F4F0B831C830B811C812F81388510
:102130000217130718F489829A82E1CF2D96E0E105
:102140000C94235D0E94125D2497D801FD01038148
:102150001481012B09F4D2C024E030E00281029FF7
:10216000A00170E061E08E010E94FC1726E330E0E0
:10217000488159816A817B8140575E4F6E4F7F4F06
:1021800007E118E00E94FC17E7E1F8E002891389F3
:10219000B80106891789780143E08B010E943A5AF9
:1021A000980143E00E94345A601B710B11F02F5FBD
:1021B0003F4FFD01038104FD11C00581005019F05E
:1021C0000A9539F013C080E090E06901D694C79475
:1021D0000DC0C90196958795690108C0058112E077
:1021E000019FC0016C01C10E00E0D01E038105FFFC
:1021F00003C080E090E069010091300F0023E9F511
:10220000AA24BB2434C0EAE9F1E000811181A401D1
:10221000481B590B040F151F4C9150E0040F151F5C
:102220002801FD01018110E0A501400F511F0EE1C1
:102230000E942C5A400E511E82010E94BA19452C50
:10224000042D0E94BA1904E20E94B11900E00E9414
:10225000BA1900EC0E94B11901E0800E00E0901E56
:102260008C149D0480F201E0A00E00E0B01EAE14BC
:10227000BF0408F043C04C01F3CFAA24BB2439C0EB
:10228000EAE9F1E00081118101511F4FA401481BCF
:10229000590B6C9170E0460F571F041B150B28015A
:1022A0004FE750E04A195B09FD01018110E0401B36
:1022B00050400EE10E942C5A400E511E82010E9495
:1022C000BA19452C042D0E94BA1904E20E94B119D2
:1022D00000E00E94BA1900EC0E94B11901E0800EE2
:1022E00000E0901E8C149D0458F201E0A00E00E066
:1022F000B01EAE14BF0410F44C01F4CF2496E0E1FC
:102300000C94235D0E94125D2497D801FD01068183
:102310001781012B09F4D9C024E030E044815581B4
:10232000440F551F440F551F70E061E08E010E945D
:10233000FC1726E330E0488159816A817B81405750
:102340005E4F6E4F7F4F07E118E00E94FC17E7E1F8
:10235000F8E002891389B80106891789780143E0FA
:102360008B010E943A5A980143E00E94345A601B44
:10237000710B11F02F5F3F4FFD01068104FD11C06D
:102380000085005019F00A9539F013C080E090E004
:102390006901D694C7940DC0C901969587956901C6
:1023A00008C0008512E0019FC0016C01C10E00E071
:1023B000D01E068105FF03C080E090E06901009116
:1023C000300F0023F9F5AA24BB2436C0EAE9F1E076
:1023D00000811181A401481B590B040F151F4D9159
:1023E0005C911197040F151F2801FD0102811381D3
:1023F000A501400F511F0EE110E00E942C5A400E23
:10240000511E82010E94BA19452C042D0E94BA194E
:1024100004E20E94B11900E00E94BA1900EC0E9487
:10242000B11901E0800E00E0901E8C149D0470F242
:1024300001E0A00E00E0B01EAE14BF0408F045C0DD
:102440004C01F3CFAA24BB243BC0EAE9F1E00081B0
:10245000118101511F4FA401481B590B6D917C91B3
:102460001197460F571F041B150B28014FE750E02B
:102470004A195B09FD0102811381401B510B0EE1DA
:1024800010E00E942C5A400E511E82010E94BA197F
:10249000452C042D0E94BA1904E20E94B11900E0F3
:1024A0000E94BA1900EC0E94B11901E0800E00E010
:1024B000901E8C149D0448F201E0A00E00E0B01EB6
:1024C000AE14BF0410F44C01F4CF2496E0E10C9458
:1024D000235D0E941A5D2897D8017724FD0165804D
:1024E00085EC91E00091C501002349F0FC010181D8
:1024F00012810A171B0719F401E000936E100CE318
:102500000093F8037092F9037092E601FC01018DCB
:10251000128D2091D90E32E0239FE00DF11D238111
:1025200034810217130790F40091F8031091F90316
:10253000012B61F401E00E946E0B01E00093E601C3
:1025400000EC18EA0093F8031093F9030091EA03F2
:102550001091EB03012B11F000E0BAC200916E1054
:10256000002309F4FEC10CE30093F8037092F90311
:102570000091DB0E0093E8037092E90308EE13E08C
:102580004091E8035091E9030E942C5A0093E8031C
:102590001093E9030091D90E12E0019FFC01E00DB8
:1025A000F11D03811481FC01218D328D201731072B
:1025B00048F4018F128F04EF11E00093EA031093A7
:1025C000EB03CACFFD01038100FFC6CF24E030E05A
:1025D0000281029FA00170E061E08E010C5F1F4F3D
:1025E0000E94FC1726E330E04C815D816E817F8183
:1025F00040575E4F6E4F7F4F07E118E00E94FC1777
:10260000E7E1F8E002891389FD01238125FD02C07D
:1026100016950795E7E1F8E046892091300F2223CF
:1026200079F42C91220F220F220F2A83FD012181A0
:1026300028831A81010F0B830881400F498316C03C
:102640002FEE3C91330F330F330F231B2A832FE7D9
:10265000FD013181231B28832FEE201B0A81201BC3
:102660002B830FE7041B1881011B09832A8130E0AB
:102670000091FA01002341F500915A1010915B106E
:102680002017310708F540915A1050915B100B81CB
:1026900010E040175705C0F4088140915810509140
:1026A00059100417150780F4409158105091591093
:1026B00009814017570540F402850395028702857A
:1026C000043810F003E8028700915A1010915B1053
:1026D00020173107C8F420915A1030915B100B81FC
:1026E00010E02017370580F40881209158103091B0
:1026F00059100217130740F42091581030915910C7
:1027000009812017370540F00285033820F0028543
:102710000A95028701C072860091C501002359F015
:10272000FC01018112810A171B0729F404E0FD0155
:1027300002877092C501FD010285043008F4B9C01A
:1027400002850F3708F075C001E00093FA01028599
:1027500000680287FC01A78FB0A3FD01048103FF7D
:1027600010C00581002359F401E005830093FB01AB
:1027700008E512E000935610109357103EC0758282
:102780003CC0038102FF0FC005810023C1F701E0B7
:102790000583038106FF31C008EE13E00093E403D4
:1027A0001093E5032AC0FC01258D368D12E02236F8
:1027B000310701F51CE0A738B10761F400919B0CCB
:1027C0000023D9F401E0FD0105830093E00170923C
:1027D000E10113C01CE0A639B10761F400918C0C33
:1027E000002359F401E0FD0105830093E10170929B
:1027F000E00103C001E0FD010583FD0103811481B7
:1028000002701270023020E0120711F48D01AFD96E
:102810007394FD01048103FD2BC12385348500E001
:102820002030300709F424C103851485F801099587
:102830001FC103810A70023009F01AC1038102FD31
:102840001AC00091EC031091ED03012BA1F400914B
:10285000EE031091EF03012B71F400E50093EE03FA
:102860007092EF03238534852030370521F00385EE
:102870001485F8010995FD01048103FFF9C0009159
:10288000EC031091ED03012B09F0F2C00091EE036F
:102890001091EF03012B09F0EBC000E50093EE036C
:1028A0007092EF03238534852030370509F4E0C0AA
:1028B000BBCF03810271023009F0DAC003810C70D2
:1028C00091F565800581002371F17582FC01258DEC
:1028D000368D12E022363107E1F41CE0A738B1074B
:1028E00051F40091E001023021F401E0FD01058383
:1028F00002C07092E0011CE0A639B10751F40091CA
:10290000E101023021F401E0FD01058302C0709273
:10291000E101FD01048101FD06C00581061519F0E4
:1029200020E08D0124D9FD01038102FFA1C00581B2
:10293000013009F09DC0038106FF9AC00091E801B3
:10294000FC0112A110FF07C0002309F091C020E094
:102950008D010DD98DC0013009F08AC08D01F2DBE7
:1029600087C07092FA01FC01078D10A1A017B10772
:1029700001F5FD01048103FF1CC00091FB01002350
:10298000C1F00091561010915710012B69F075821B
:10299000238534852030370521F003851485F8011F
:1029A000099520E08D01E3D8FC01778E70A270922A
:1029B000FB01FD0103810271023009F04FC0038168
:1029C0000C7091F565800581002371F17582FC0121
:1029D000258D368D12E022363107E1F41CE0A73850
:1029E000B10751F40091E001023021F401E0FD0152
:1029F000058302C07092E0011CE0A639B10751F4D2
:102A00000091E101023021F401E0FD01058302C0E3
:102A10007092E101FD01048101FD06C005810615EA
:102A200019F020E08D01A3D8FD01038102FF16C03B
:102A30000581013099F4038106FF10C00091E8017F
:102A4000FC0112A110FF06C0002341F420E08D011B
:102A50008ED804C0013011F48D0174DBFD010285B4
:102A6000002319F002850A95028702850F770287F5
:102A7000FD0103810271023051F50581601639F1C3
:102A800005810130068117812085318559F4E4EBF9
:102A9000F6E04081518162817381402B512B622B82
:102AA000732B0EC00095109520953095E4EBF6E061
:102AB00040815181628173814023512362237323BA
:102AC0004083518362837383048101600483072DF3
:102AD0002896E8E00C942B5D0E941E5DA897C80123
:102AE000D9010E942A1833E020E002EA11E00E9496
:102AF000520C24E030E0AC01BD0149595F4F6F4FEB
:102B00007F4F02E510E10E94FC1741E022E530E131
:102B10008E010E94915633E02BE08E010E94520CF0
:102B200034E020E00EEA11E00E94520C24E030E094
:102B300085599F4FAF4FBF4FAC01BD0102E510E17A
:102B40000E94FC1741E022E530E18E010E9491567F
:102B500034E02BE08E010E94520CA896E4E00C9425
:102B60002F5D0E941E5DA0E0B0E00E946F1900E0A2
:102B70000E946E0B0E94E40B0CE90E94B11901E067
:102B80000E94440B20E005EC13E00E94B70D00E02A
:102B90000E946E0B0E94CD5800916E10002391F0A0
:102BA00040E039E003E41CEC20E00E947C0C0E9431
:102BB000CD5804C00E94CD580E942A1800916E1072
:102BC0000023C1F70E942A0C40E030E003E51BEC33
:102BD00020E00E947C0C41E030E00BE71BEC20E0A1
:102BE0000E947C0C42E030E003EA1BEC20E00E94F3
:102BF0007C0C00E01EED21E030E06EDF35E020E0EF
:102C00000AEB11E00E94520C40E024EE3EE00FEE91
:102C100017E00E94595435E029E00FEE17E00E94BA
:102C2000520C27E630E040E05EED61E070E00FEE30
:102C300017E00E94FC1736E020E00FEE17E00E943C
:102C4000520C00ED17E00093D8031093D90304E66B
:102C50000093D603A093D70380E02EC00E942A18C9
:102C60000091D6031091D703012B31F504E610E053
:102C70000093D6031093D7030E942A1837E0282F19
:102C800003EC11E00E94520C0E94CD5800916E108E
:102C9000002309F01196AA3000E0B00760F000931D
:102CA000D8030093D9030093D6030093D7030E945F
:102CB0002A0C0E94C31983950091D8031091D9035F
:102CC000012B61F60E94020C0E942A0C04EF11E015
:102CD0000093E2031093E3030091DB0E10E00093F6
:102CE000E8031093E90308EE13E04091E8035091E4
:102CF000E9030E942C5A0093E8031093E90300E0D3
:102D000010E00093D6030093D7030CE30093F8037D
:102D10001093F903E4E00C942F5D2FEFF80120836A
:102D2000218308952FEFF8010081118102271227D6
:102D30000083118308950E941E5DFA0160E070E037
:102D400002C06F5F7F4F6217730748F5D801A60F67
:102D5000B71F4C910080118004260082118280E010
:102D600090E007C04081518156954795408351833B
:102D70000196883040E0940720F7408140FFF2CF71
:102D800040815181569547954083518348E054E8EE
:102D9000008011800426152600821182E9CFE4E02C
:102DA0000C942F5D0E941A5DD80100E010E020E035
:102DB00030E0FD01068043E0042281E090E012C093
:102DC000FC01E550FE4F4081040F151F251F351FE4
:102DD000002039F48130950721F40F5F1F4F2F4FEA
:102DE0003F4F01968D3040E0940758F4FD01458136
:102DF00050E04817590721F74481040F151F251F7C
:102E0000351F88E090E00CC003591E4F2F4F3F4FF5
:102E1000482F437021F40F5F1F4F2F4F3F4F0196F4
:102E2000FD01468150E08417950770F328013901B0
:102E300047E060E070E00E94945A47E050E060E0B4
:102E400070E00E946C5AA801B90182019301041B31
:102E5000150B260B370B0F5F1F4F2F4F3F4F0830BF
:102E600040E014072407340710F007501040A80171
:102E7000FD014383E8E00C942B5DE7E2F0E1008183
:102E80000A3521F401810093720F089500810B35FA
:102E900039F4038114810093D60F1093D70F08954E
:102EA0000081043061F401810093720F028100936C
:102EB000D50F038114810093D60F1093D70F089577
:102EC0009D01E7E2F0E104E000830091720F0183CD
:102ED0000091D50F02830091D60F1091D70F038375
:102EE00014830091D80F12E0019FD001AD5BB04F69
:102EF0000D911C910583168300E0078300870091E4
:102F0000DA0F1091DB0F018712870091DC0F10910F
:102F1000DD0F038714870091DE0F1091DF0F058707
:102F20001687D901089500E00FBD09E00EBD00E04D
:102F300000937A0002E514E01BBD0ABD00E00DBD60
:102F40000CBD07B7006107BF08959A938A93FA935F
:102F5000EA933A922A921A920A927A936A935A932D
:102F60004A933A932A931A930A938FB79BB70E9476
:102F70003A579BBF8FBF0991199129913991499176
:102F80005991699179910990199029903990E99115
:102F9000F9918991999118950E941C5DC801D901F8
:102FA000542E44240CC0FC010191CF01242D30E0AB
:102FB000AD01420F531F0E941A5A4CD0439445143E
:102FC00090F3E6E00C942D5D0E941C5DC801D901D0
:102FD000542E44240CC0042D10E0AD01400F511FAD
:102FE0000E940E5AFC010193CF0134D04394451442
:102FF00090F3E6E00C942D5D090120E00CC0FA018D
:10300000362F222E3324E20DF31D3BBF2690F8010C
:1030100021928F01239530E02015310580F308952A
:103020000801190100E009C0F001E00FF11F2BBEFB
:103030001691FA011193AF01039510E006171707D7
:1030400098F30895C498BC9A089508E101BD08E07A
:1030500001BDFFCFC49A0000C498A89508950091BF
:1030600065000160009365000895009165000E7F82
:10307000009365000895009165000E7F0093650040
:103080000091640001600093640008952FEF33E025
:10309000201B310B30938700209386000895949A6B
:1030A0000895949808950E94B40908950E94E5092E
:1030B00008959A938A9380E090E0E0EFF0E0FBBF00
:1030C000F0E00C94C05C85E010C08BE00EC081E1A4
:1030D0000CC087E10AC083E208C08FE206C087E423
:1030E00004C08FE802C08FE191E08C9A94988C0123
:1030F000109398000093990008E900939A000EE05D
:1031000000939D0000E200939C008991999108959D
:103110009A938A93FA93EA933A922A921A920A928B
:103120007A936A935A934A933A932A931A930A93F7
:103130008FB79BB7BBDF9BBF8FBF099119912991B7
:1031400039914991599169917991099019902990F2
:103150003990E991F99189919991189500939C0082
:10316000089500919C00089500919B00102F16FF78
:1031700002C001E0089500E0089500919B00006402
:1031800000939B0008951895BF9AC798009164001A
:10319000026000936400009165000D7F009365005C
:1031A000139A00E010E0009389000093880003EC7C
:1031B00000938B0001E000938A0010938C00109321
:1031C0008500109384001093830010938200E1E344
:1031D000FFE006E0008304E1018302E0028304E0F3
:1031E000038308958898909A919807B3076007BB66
:1031F000BB9808B3097F08BBC09A03E50DB901E08D
:103200000EB9089508950E941C5D802FA12F0FB163
:103210000FB1C0984424552405C0F4DF01E0400EEE
:1032200000E0501E04EF401601E05006B0F3836842
:103230008FB9779BFECF0FB100E00FB9779BFECF20
:103240000FB1802FA368AFB9779BFECF0FB1982F36
:1032500080E0802B8C0143E00E943A5AC80100E0D4
:103260000FB9779BFECF0FB14424552405C0CADFA8
:1032700001E0400E00E0501E04EF401601E0500651
:10328000B0F3C09ABFDFBEDFBDDFBCDF9F708C0133
:10329000E6E00C942D5D01E005BF00E005BF08E10C
:1032A00001BD00E001BD009374000EEF00936A00C1
:1032B00000E009BF04B3007E04BB05B30F6105BB8A
:1032C000BF9A089503B30F7100950F710895B79BCE
:1032D00002C0C7980895C79A08957894089504EF96
:1032E00003B902B1046F02B900E0009361001B9AB8
:1032F0001A980AE010E00E94BF581A9A0AE010E0FB
:103300000E94BF581E9808958A931FEF1093610082
:103310001C980093620080E002C074DF83958330C4
:10332000E0F31C9A899108958A9300E0009361006C
:103330001D9880E002C066DF83958330E0F300B122
:103340001D9A899108951F9AEFDF08958A93802F1F
:1033500001C080DEF8DF08230817D9F701E0899162
:1033600008958A93802F03E0F1DF1F9A082FCCDFA6
:10337000899108958A93802F03E0E8DF1F98082F32
:10338000C3DF899108950E94195D6C9700E0009356
:103390006E100E94CD5800916E10002391F040E015
:1033A00039E003E41CEC20E00E947C0C0E94CD5824
:1033B00004C00E94CD580E942A1800916E1000236C
:1033C000C1F70E942A0C04E610E00E94BF580E9438
:1033D0002A180E94EE0C0E942A0C40E033E00BEC0D
:1033E0001BEC20E00E947C0C41E033E003EF1BEC7F
:1033F00020E00E947C0C20E00EE012E00E94B70D5D
:1034000000E000936E1002E310E00093E6031093D7
:10341000E7038824442455246624772480E090E040
:10342000A0E0B0E00E942A1827C00E942A180E943B
:10343000CD5800916E100023F9F0009162101091A8
:10344000631020E030E00E94055BA801B9018C0107
:103450009D010E94595BC801D90100916010109133
:10346000611020E030E00E94055BA201B3010E94E0
:10347000595B2801390183940AE08016B0F240E0DC
:1034800050E060E271E48C019D010E94335C0E9477
:10349000075B0C831D8340E050E060E271E4820131
:1034A00093010E94335C0E94075B088319830E948A
:1034B0002A1832E025E008E012E00E94520C40E0B9
:1034C0009E012C5F3F4F8E01085F1F4F0E94EF53FC
:1034D00032E027E08E01085F1F4F0E94520C33E05C
:1034E00025E00BE012E00E94520C40E09E018E01AC
:1034F000085F1F4F0E94EF5333E027E08E01085F03
:103500001F4F0E94520C20E00DE112E00E94B70D07
:1035100044E033E00BE11CEC20E00E947C0C08EE60
:1035200013E00E94BF5802E310E00093E6031093FB
:10353000E7038824442455246624772480E090E01F
:10354000A0E0B0E025C00E942A180E94CD5800914A
:103550006E100023E9F0009162101091631020E0DA
:1035600030E00E94055BAC01BD010E94595BC801BF
:10357000D901009160101091611020E030E00E94AC
:10358000055BA201B3010E94595B280139018394B4
:103590000AE08016C0F240E050E060E271E48C0185
:1035A0009D010E94335C0E94075B0E831F8340E0F5
:1035B00050E060E271E4820193010E94335C0E945A
:1035C000075B0A831B8335E025E008E012E00E94D8
:1035D000520C40E09E012A5F3F4F8E01085F1F4F53
:1035E0000E94EF5335E027E08E01085F1F4F0E94D5
:1035F000520C36E025E00BE012E00E94520C40E055
:103600009E012E5F3F4F8E01085F1F4F0E94EF53B8
:1036100036E027E08E01085F1F4F0E94520CA1EC9C
:10362000BEE00E811F812C813D81021B130B20E027
:1036300030E00E94055BA801B90100E010E028E538
:1036400033E40E94335C0D931D932D933C931397A9
:103650000A811B8128813981021B130B20E030E095
:103660000E94055BA801B90100E010E020ED32E402
:103670000E94335CFD0104831583268337830C810C
:103680001D8120E030E00E94055B280139014D9149
:103690005D916D917C91139700E010E020E331E49F
:1036A0000E94335CA801B901820193010E949D5BD5
:1036B0000E94075BFD0100871187228733870881FD
:1036C000198120E030E00E94055B28013901FD01ED
:1036D000448155816681778100E010E020E331E488
:1036E0000E94335CA801B901820193010E949D5B95
:1036F0000E94075BFD01008B118B228B338B00ED49
:1037000017E00E94BF580E94F6520E942A0C0DE159
:1037100012E00E94A2100EE012E00E94A2106C962D
:10372000E9E00C942A5DBA93AA930E942A0C00E067
:103730000093730820E73BEB03E718E00E941F5754
:1037400040E029ED3FE009E518E00E94595429E5E1
:1037500038E003E718E00E94915D00919E08002385
:1037600019F423E83CEB02C02CE93CEB03E718E03A
:103770000E941F5732E020E003E718E00E94520C3D
:1037800000E00093730829E83BEB03E718E00E9490
:103790001F5740E02CE232E009E518E00E9459543E
:1037A00029E538E003E718E00E94915D00919E084A
:1037B000013019F423E83CEB02C02CE93CEB03E7B1
:1037C00018E00E941F5733E020E003E718E00E9452
:1037D000520C00912C020A95043008F047C300E017
:1037E0000093730825EB3CEB03E718E00E941F579A
:1037F0002CED3FE040912C0250E00FE010E00E94E1
:103800002C5A200F311F4091D90F0CE310E00E9479
:103810002C5A200F311F09E518E00E94245529E594
:1038200038E003E718E00E94915D00919E080230A5
:1038300019F423E83CEB02C02CE93CEB03E718E069
:103840000E941F5732E02CE003E718E00E94520C60
:1038500000E00093730822EA3BEB03E718E00E94C4
:103860001F5724EE3FE040912C0250E00FE010E0A3
:103870000E942C5A200F311F4091D90F0CE310E009
:103880000E942C5A200F311F40E009E518E00E94E9
:10389000595429E538E003E718E00E94915D009152
:1038A0009E08033019F423E83CEB02C02CE93CEB02
:1038B00003E718E00E941F5733E02CE003E718E00D
:1038C0000E94520C45E030E00BEB1BEB20E00E9425
:1038D0007C0C00E000937308ADEEBBEB9D0103E7A9
:1038E00018E00E941F572EED3FE040912C0250E05F
:1038F0000FE010E00E942C5A200F311F4091D90F89
:103900000CE310E00E942C5A200F311F40E009E523
:1039100018E00E94595429E538E003E718E00E94B6
:10392000915D00919E08043019F423E83CEB02C03D
:103930002CE93CEB03E718E00E941F5736E020E03B
:1039400003E718E00E94520C00E00093730826E0A1
:103950003CEB03E718E00E941F5720EE3FE0409148
:103960002C0250E00FE010E00E942C5A200F311F73
:103970004091D90F0CE310E00E942C5A200F311F08
:1039800040E009E518E00E94595429E538E003E7D2
:1039900018E00E94915D00919E08053019F423E81B
:1039A0003CEB02C02CE93CEB03E718E00E941F57F8
:1039B00037E020E003E718E00E94520C00E000939B
:1039C00073082FE13CEB03E718E00E941F5722EE3B
:1039D0003FE040912C0250E00FE010E00E942C5A92
:1039E000200F311F4091D90F0CE310E00E942C5A98
:1039F000200F311F40E009E518E00E94595429E5E5
:103A000038E003E718E00E94915D00919E080630BF
:103A100019F423E83CEB02C02CE93CEB03E718E087
:103A20000E941F5738E020E003E718E00E94520C84
:103A30004AE030E004ED1BEB20E00E947C0C00E04B
:103A4000009373089D0103E718E00E941F572FEDB4
:103A50003FE040912C0250E00FE010E00E942C5A11
:103A6000200F311F4091D90F0CE310E00E942C5A17
:103A7000200F311F40E009E518E00E94595429E564
:103A800038E003E718E00E94915D00919E0807303E
:103A900019F423E83CEB02C02CE93CEB03E718E007
:103AA0000E941F573BE020E003E718E00E94520C01
:103AB00000E00093730826E03CEB03E718E00E9467
:103AC0001F5721EE3FE040912C0250E00FE010E044
:103AD0000E942C5A200F311F4091D90F0CE310E0A7
:103AE0000E942C5A200F311F40E009E518E00E9487
:103AF000595429E538E003E718E00E94915D0091F0
:103B00009E08083019F423E83CEB02C02CE93CEB9A
:103B100003E718E00E941F573CE020E003E718E0AD
:103B20000E94520C00E0009373082FE13CEB03E786
:103B300018E00E941F5723EE3FE040912C0250E016
:103B40000FE010E00E942C5A200F311F4091D90F36
:103B50000CE310E00E942C5A200F311F40E009E5D1
:103B600018E00E94595429E538E003E718E00E9464
:103B7000915D00919E08093019F423E83CEB02C0E6
:103B80002CE93CEB03E718E00E941F573DE020E0E2
:103B900003E718E00E94520C45E03CE008E31CEB10
:103BA00020E00E947C0C00E000937308AAE6BCEBC6
:103BB0009D0103E718E00E941F5725EE3FE040916A
:103BC0002C0250E00FE010E00E942C5A200F311F11
:103BD0004091D90F0CE310E00E942C5A200F311FA6
:103BE00040E009E518E00E94595429E538E003E770
:103BF00018E00E94915D00919E080A3019F423E8B4
:103C00003CEB02C02CE93CEB03E718E00E941F5795
:103C100036E02CE003E718E00E94520C00E000932D
:103C2000730826E03CEB03E718E00E941F5727EEDD
:103C30003FE040912C0250E00FE010E00E942C5A2F
:103C4000200F311F4091D90F0CE310E00E942C5A35
:103C5000200F311F40E009E518E00E94595429E582
:103C600038E003E718E00E94915D00919E080B3058
:103C700019F423E83CEB02C02CE93CEB03E718E025
:103C80000E941F5737E02CE003E718E00E94520C17
:103C900000E0009373082FE13CEB03E718E00E947B
:103CA0001F5729EE3FE040912C0250E00FE010E05A
:103CB0000E942C5A200F311F4091D90F0CE310E0C5
:103CC0000E942C5A200F311F40E009E518E00E94A5
:103CD000595429E538E003E718E00E94915D00910E
:103CE0009E080C3019F423E83CEB02C02CE93CEBB5
:103CF00003E718E00E941F5738E02CE003E718E0C4
:103D00000E94520C4AE03CE001E51CEB20E00E94DE
:103D10007C0C00E0009373089D0103E718E00E940B
:103D20001F5726EE3FE040912C0250E00FE010E0DC
:103D30000E942C5A200F311F4091D90F0CE310E044
:103D40000E942C5A200F311F40E009E518E00E9424
:103D5000595429E538E003E718E00E94915D00918D
:103D60009E080D3019F423E83CEB02C02CE93CEB33
:103D700003E718E00E941F573BE02CE003E718E040
:103D80000E94520C00E00093730826E03CEB03E72E
:103D900018E00E941F5728EE3FE040912C0250E0AF
:103DA0000FE010E00E942C5A200F311F4091D90FD4
:103DB0000CE310E00E942C5A200F311F40E009E56F
:103DC00018E00E94595429E538E003E718E00E9402
:103DD000915D00919E080E3019F423E83CEB02C07F
:103DE0002CE93CEB03E718E00E941F573CE02CE075
:103DF00003E718E00E94520C00E0009373082FE1E3
:103E00003CEB03E718E00E941F572AEE3FE0409189
:103E10002C0250E00FE010E00E942C5A200F311FBE
:103E20004091D90F0CE310E00E942C5A200F311F53
:103E300040E009E518E00E94595429E538E003E71D
:103E400018E00E94915D00919E080F3019F423E85C
:103E50003CEB02C02CE93CEB03E718E00E941F5743
:103E60003DE02CE003E718E00E94520C00912C0288
:103E7000053069F500E00093730822EA3BEB03E7A5
:103E800018E00E941F5740E02AEE3FE00091D90F52
:103E9000200F341F09E518E00E94595429E538E045
:103EA00003E718E00E94915D00919E08023019F42A
:103EB00023E83CEB02C02CE93CEB03E718E00E944E
:103EC0001F5734E020E003E718E00E94520CA9914C
:103ED000B991089500919E08002329F000919E0851
:103EE0000A9500939E081FDC089500912C020A9504
:103EF000043050F400919E080F3028F400919E0881
:103F0000039500939E080FDC00912C02053051F4BC
:103F100000919E08023028F400919E0803950093BA
:103F20009E0801DC089500932C021091130D00E00F
:103F30000093130D00912C02013019F401E000935D
:103F4000130D0091130D011729F020E00EE01DE084
:103F50000E94B70D1091220D00E00093220D0091F8
:103F60002C02023019F401E00093220D0091220D81
:103F7000011729F020E00DE11DE00E94B70D10911E
:103F8000310D00E00093310D00912C02033019F443
:103F900001E00093310D0091310D011729F020E06F
:103FA0000CE21DE00E94B70D1091400D00E000935F
:103FB000400D00912C02043019F401E00093400DF3
:103FC0000091400D011729F020E00BE31DE00E9455
:103FD000B70D10914F0D00E000934F0D00912C0292
:103FE000053019F401E000934F0D00914F0D0117BA
:103FF00029F020E00AE41DE00E94B70D0895BA936D
:10400000AA9300912C020A95043008F0CBC10091CC
:104010009E08E2E2F0E0FBBFF1E00C94B65C009198
:104020002C02043028F400912C02039500932C02FA
:1040300000912C0278DFB6C140912C0250E00FE0D5
:1040400010E00E942C5A98014091D90F0CE310E027
:104050000E942C5AE1E3FFE0E00FF11FE20FF31F93
:10406000E555FF4F00811181003921E012070CF066
:1040700099C100811181065F1F4F0083118392C196
:1040800040912C0250E00FE010E00E942C5A980161
:104090004091D90F0CE310E00E942C5AE1E3FFE0BD
:1040A000E00FF11FE20FF31FDF01A555BF4F189678
:1040B0000C91043608F076C1ED5470C140912C0289
:1040C00050E00FE010E00E942C5A98014091D90F67
:1040D0000CE310E00E942C5AE1E3FFE0E00FF11F37
:1040E000E20FF31FDF01A555BF4F12960C91043666
:1040F00008F058C1E35552C140912C0250E00FE046
:1041000010E00E942C5A98014091D90F0CE310E066
:104110000E942C5AE1E3FFE0E00FF11FE20FF31FD2
:10412000DF01A555BF4F14960C910F3F09F43AC11A
:10413000E15534C140912C0250E00FE010E00E94A4
:104140002C5A98014091D90F0CE310E00E942C5A90
:10415000E1E3FFE0E00FF11FE20FF31FDF01A555E0
:10416000BF4F16960C910F3F09F41CC1EF5416C1B6
:1041700040912C0250E00FE010E00E942C5A980170
:104180004091D90F0CE310E00E942C5AE1E3FFE0CC
:10419000E00FF11FE20FF31FDF01A555BF4F13968C
:1041A0000C91043608F0FEC0E255F8C040912C0294
:1041B00050E00FE010E00E942C5A98014091D90F76
:1041C0000CE310E00E942C5AE1E3FFE0E00FF11F46
:1041D000E20FF31FDF01A555BF4F15960C910F3F5E
:1041E00009F4E0C0E055DAC040912C0250E00FE045
:1041F00010E00E942C5A98014091D90F0CE310E076
:104200000E942C5AE1E3FFE0E00FF11FE20FF31FE1
:10421000DF01A555BF4F17960C910F3F09F4C2C09F
:10422000EE54BCC040912C0250E00FE010E00E9420
:104230002C5A9801EAE3FFE0E00FF11FE555FF4F2C
:104240004091D90F0CE310E00E942C5AE00FF11FAF
:104250000081002309F0A6C061E0E5EEFFE0E20F77
:10426000F31F4091D90F0CE310E00E942C5AE00F8D
:10427000F11F608397C040912C0250E00FE010E0E6
:104280000E942C5A98014091D90F0CE310E00E9433
:104290002C5AE1E3FFE0E00FF11FE20FF31FDF0113
:1042A000A555BF4F1B960C910F3F09F47BC0EA54F4
:1042B00075C040912C0250E00FE010E00E942C5A93
:1042C00098014091D90F0CE310E00E942C5AE1E3D1
:1042D000FFE0E00FF11FE20FF31FDF01A555BF4F15
:1042E0001D960C910F3F09F45DC0E85457C04091F2
:1042F0002C0250E00FE010E00E942C5A9801EBE3F2
:10430000FFE0E00FF11FE555FF4F4091D90F0CE39F
:1043100010E00E942C5AE00FF11F0081002309F0E9
:1043200041C061E0E6EEFFE09ACF40912C0250E000
:104330000FE010E00E942C5A98014091D90F0CE335
:1043400010E00E942C5AE1E3FFE0E00FF11FE20FC2
:10435000F31FDF01A555BF4F1C960C910F3F11F1C4
:10436000E9541CC040912C0250E00FE010E00E9484
:104370002C5A98014091D90F0CE310E00E942C5A5E
:10438000E1E3FFE0E00FF11FE20FF31FDF01A555AE
:10439000BF4F1E960C910F3F29F0E754FF4F00814D
:1043A0000395008300912C020530C9F400919E080A
:1043B0000050A9F00A9519F00A9521F010C005E007
:1043C000B2DD0DC0EAEEFFE00091D90F10E0E00F82
:1043D000F11F0081043618F40081039500830091D9
:1043E000D90F10912C02010F0B5B00930A0408EC0B
:1043F00010E00093F6031093F70395D9A991B991B2
:104400000895BA93AA9300912C020A95043008F0FB
:10441000B8C100919E08E8E4F0E0FBBFF1E00C9425
:10442000B65C0091D90F002309F4ABC10091D90FFC
:104430000A950093D90FA5C100912C02023028F0F3
:1044400000912C020A9500932C0200912C026BDD46
:1044500098C14091D90F50E00CE310E00E942C5A13
:10446000E1E3FFE0E00FF11F40912C020FE010E0CC
:104470000E942C5AE00FF11FE555FF4F008111817A
:1044800001372EEF12070CF47CC1008111810A5014
:1044900010400083118375C14091D90F50E00CE3A7
:1044A00010E00E942C5AE1E3FFE0E00FF11F409181
:1044B0002C020FE010E00E942C5AE00FF11FDF01E8
:1044C000A555BF4F18960C91002309F45AC1ED541D
:1044D00054C14091D90F50E00CE310E00E942C5AD7
:1044E000E1E3FFE0E00FF11F40912C020FE010E04C
:1044F0000E942C5AE00FF11FDF01A555BF4F129605
:104500000C91002309F43DC1E35537C14091D90F07
:1045100050E00CE310E00E942C5AE1E3FFE0E00FD2
:10452000F11F40912C020FE010E00E942C5AE00F86
:10453000F11FDF01A555BF4F14960C91002309F41C
:1045400020C1E1551AC14091D90F50E00CE310E0B1
:104550000E942C5AE1E3FFE0E00FF11F40912C0292
:104560000FE010E00E942C5AE00FF11FDF01A5556B
:10457000BF4F16960C91002309F403C1EF54FDC000
:104580004091D90F50E00CE310E00E942C5AE1E377
:10459000FFE0E00FF11F40912C020FE010E00E94BD
:1045A0002C5AE00FF11FDF01A555BF4F13960C9158
:1045B000002309F4E6C0E255E0C04091D90F50E075
:1045C0000CE310E00E942C5AE1E3FFE0E00FF11F42
:1045D00040912C020FE010E00E942C5AE00FF11FD6
:1045E000DF01A555BF4F15960C91002309F4C9C0F2
:1045F000E055C3C04091D90F50E00CE310E00E9499
:104600002C5AE1E3FFE0E00FF11F40912C020FE094
:1046100010E00E942C5AE00FF11FDF01A555BF4F9B
:1046200017960C91002309F4ACC0EE54A6C040913B
:10463000D90F50E00CE310E00E942C5AE1E3FFE0B8
:10464000E00FF11F40912C020FE010E00E942C5A65
:10465000E00FF11FE555FF4F0185002309F491C0DC
:1046600051878FC04091D90F50E00CE310E00E94B9
:104670002C5AE1E3FFE0E00FF11F40912C020FE024
:1046800010E00E942C5AE00FF11FDF01A555BF4F2B
:104690001B960C91002309F474C0EA546EC040913B
:1046A000D90F50E00CE310E00E942C5AE1E3FFE048
:1046B000E00FF11F40912C020FE010E00E942C5AF5
:1046C000E00FF11FDF01A555BF4F1D960C91002390
:1046D00009F457C0E85451C04091D90F50E00CE3A1
:1046E00010E00E942C5AE1E3FFE0E00FF11F40913F
:1046F0002C020FE010E00E942C5AE00FF11FE5554C
:10470000FF4F02850023E9F152873BC04091D90F4A
:1047100050E00CE310E00E942C5AE1E3FFE0E00FD0
:10472000F11F40912C020FE010E00E942C5AE00F84
:10473000F11FDF01A555BF4F1C960C91002309F115
:10474000E9541BC04091D90F50E00CE310E00E94E7
:104750002C5AE1E3FFE0E00FF11F40912C020FE043
:1047600010E00E942C5AE00FF11FDF01A555BF4F4A
:104770001E960C91002329F0E754FF4F00810A9503
:10478000008300912C02053029F500919E0800500D
:1047900029F00A9569F00A9581F01CC00091D90FA3
:1047A0000023C1F00091D90F0A950093D90F12C0D0
:1047B00004E000932C02B7DB0DC0EAEEFFE00091AD
:1047C000D90F10E0E00FF11F0081002319F00081E4
:1047D0000A9500830091D90F10912C02010F0B5BF9
:1047E00000930A0408EC10E00093F6031093F7031B
:1047F0000E94931BA991B991089501E094DB08955B
:1048000002E091DB089503E08EDB089504E08BDB8A
:10481000089500E000939E0805E085DB089500E020
:1048200000930D040CE300930A0400930104E0ECF0
:10483000F0EC30E007E81CE04FE050E00E94065D3D
:10484000E1EBF0EC30E006E91CE04FE00E94065D91
:10485000E2EAF0EC30E005EA1CE04FE00E94065D81
:10486000E3E9F0EC30E004EB1CE04FE00E94065D71
:10487000E4E8F0EC30E003EC1CE04FE00E94065D61
:1048800001E000939B0C0FE000938A0C50938B0C7B
:104890000093990C50939A0C0093A80C5093A90C78
:1048A0000093B70C5093B80C0093C60C5093C70CF0
:1048B000ECEEFCEB30E002ED1CE04FE00E94065D08
:1048C000FCEB01EE1CE04FE00E94065DEEECFCEB21
:1048D00000EF1CE04FE00E94065D0FEF1CE04FE090
:1048E0000E94065DEAE0FDEB0EE01DE04FE00E9455
:1048F000065DFDEB0DE11DE04FE00E94065DFDEB66
:104900000CE21DE04FE00E94065DFDEB0BE31DE0B5
:104910004FE00E94065DFDEB0AE41DE04FE00E94BF
:10492000065D01E00093130D40939E0800932C0256
:1049300008958A9380E00EC0482F50E009E010E00F
:104940000E942C5A980103EB1DE0020F131F0E94D6
:104950008211839500913302801770F30E94EE0C50
:104960000E942A0C00E000930A04899108950091A6
:10497000DE031091DF03012B91F404EF11E00093AB
:10498000DE031093DF03E6E9F1E00081118122816B
:104990003381012B022B032B11F40E94931B0895EA
:1049A0000E942A0C02E300930A04089502E0009397
:1049B0000D0400E00093090400930A04E0ECF0EC1D
:1049C00030E007E81CE04FE050E00E94065DE1EBBC
:1049D000F0EC30E006E91CE04FE00E94065DE2EA00
:1049E000F0EC30E005EA1CE04FE00E94065DE3E9F0
:1049F000F0EC30E004EB1CE04FE00E94065DE4E8E0
:104A0000F0EC30E003EC1CE04FE00E94065D01E0BA
:104A10000093C80C0FE000938A0C50938B0C00930A
:104A2000990C50939A0C0093A80C5093A90C0093E6
:104A3000B70C5093B80C0093C60C5093C70CE1E828
:104A4000FEEB30E002ED1CE04FE00E94065D0895B1
:104A50008A9380E00EC0482F50E009E010E00E94E9
:104A60002C5A980103EB1DE0020F131F0E948211C4
:104A7000839500917502801770F30E94EE0C0E94DE
:104A80002A0C899108950E94195D21970091DE03F7
:104A90001091DF03012B09F0DFC004EF11E0009358
:104AA000DE031093DF03E6E9F1E00081118122814A
:104AB0003381012B022B032B09F0CEC0009124037C
:104AC000002309F0C9C0882401C0839404E0801643
:104AD00008F0C2C0482D50E009E010E00E942C5AB6
:104AE000A1E3BFE0A00FB11F2D010BE5400E551E45
:104AF000F20100811181012B09F4A8C08FEE97E02B
:104B000060E352E040E09D012F593F4F8C010E942D
:104B1000BB540FE20093F10700E00093F207682C0A
:104B2000660C762C03E0700E372D20E08C010E947D
:104B3000520C60E352E040E09D012E593F4F8C0142
:104B40000E94BB540FE20093F10700E00093F207CC
:104B5000372D23E08C010E94520C60E352E040E0CC
:104B60009D012D593F4F8C010E94BB54372D26E0EB
:104B70008C010E94520C60E352E040E09D01215AFA
:104B80003F4F8C010E94BB540AE30093F10700E001
:104B90000093F207372D29E08C010E94520C60E34C
:104BA00052E040E09D01225A3F4F8C010E94BB54CD
:104BB0000AE30093F10700E00093F207372D2CE0A1
:104BC0008C010E94520C60E352E040E0A35ABF4FB8
:104BD0009D018C010E94BB54372D2FE08C010E9457
:104BE000520CF2011181188360E352E040E09E0113
:104BF0008C010E94BB54372D22E18C010E94520C83
:104C0000F2010081088360E352E040E09E018C01E4
:104C10000E94BB54372D25E18C010E94520C04E008
:104C2000600E462D30E0642FF2015181452F550F63
:104C3000550B09E110E00E942C5AA80105E51DEB77
:104C400020E0040F151F462F0E947C0CF20100810A
:104C50001181012B09F039CF2196E9E00C942A5DEE
:104C600000E000930D040093090400930A040CE390
:104C700000930104E0ECF0EC30E007E81CE04FE0CA
:104C800050E00E94065DE1EBF0EC30E006E91CE04C
:104C90004FE00E94065DE2EAF0EC30E005EA1CE03D
:104CA0004FE00E94065DE3E9F0EC30E004EB1CE02D
:104CB0004FE00E94065DE4E8F0EC30E003EC1CE01D
:104CC0004FE00E94065D01E00093B90C0FE00093F5
:104CD0008A0C40938B0C0093990C40939A0C009390
:104CE000A80C4093A90C0093B70C4093B80C009308
:104CF000C60C4093C70C08958A9380E00EC0482FDD
:104D000050E009E010E00E942C5A980103EB1DE0EE
:104D1000020F131F0E948211839500915102801788
:104D200070F30E94EE0C0E942A0C89910895009164
:104D3000DE031091DF03012B09F0F2C104EF11E053
:104D40000093DE031093DF03E6E9F1E000811181B7
:104D500022813381012B022B032B09F0E1C100E0FA
:104D60000093730820E93EEB03E718E00E941F5709
:104D700023E43FE00091D80F12E0019F200D311D88
:104D800009E518E00E94245529E538E003E718E01A
:104D90000E94915D32E020E003E718E00E94520C8F
:104DA00000E00093730829EA3EEB03E718E00E9455
:104DB0001F5723E43FE009E518E00E94245529E548
:104DC00038E003E718E00E94915D33E020E003E75C
:104DD00018E00E94520C00E00093730822EC3EEBB6
:104DE00003E718E00E941F5729E43FE009E518E0B7
:104DF0000E94245529E538E003E718E00E94915D00
:104E000034E020E003E718E00E94520C00E0009339
:104E100073082BED3EEB03E718E00E941F5726E5D1
:104E200038E009E518E00E94245529E538E003E759
:104E300018E00E94915D35E020E003E718E00E9451
:104E4000520C00E00093730824EF3EEB03E718E0F8
:104E50000E941F5727E43FE009E518E00E9424550F
:104E600029E538E003E718E00E94915D36E020E094
:104E700003E718E00E94520C00E0009373082DE055
:104E80003FEB03E718E00E941F57E1E3FFE00481D6
:104E900000FF03C027E432E002C029E432E003E768
:104EA00018E00E94915D37E020E003E718E00E94DF
:104EB000520C00E00093730826E23FEB03E718E092
:104EC0000E941F57E1E3FFE0048101FF03C027E4D4
:104ED00032E002C029E432E003E718E00E94915D6D
:104EE00038E020E003E718E00E94520C00E0009355
:104EF00073082FE33FEB03E718E00E941F57E1E33D
:104F0000FFE0048102FF03C027E432E002C029E48D
:104F100032E003E718E00E94915D39E020E003E70A
:104F200018E00E94520C00E00093730828E53FEB64
:104F300003E718E00E941F5729E432E003E718E076
:104F40000E94915D3AE020E003E718E00E94520CD5
:104F500000E00093730821E73FEB03E718E00E94AD
:104F60001F57E1E3FFE0048104FF03C027E432E0C0
:104F700002C029E432E003E718E00E94915D3BE0C3
:104F800020E003E718E00E94520C00E00093730851
:104F90002AE83FEB03E718E00E941F57E1E3FFE038
:104FA000048105FF03C027E432E002C029E432E0B7
:104FB00003E718E00E94915D3CE020E003E718E081
:104FC0000E94520C00E00093730823EA3FEB03E7D2
:104FD00018E00E941F57E0E5F8E0028100FF03C0DF
:104FE00027E432E002C029E432E003E718E00E943F
:104FF000915D3DE020E003E718E00E94520C00E0E4
:10500000009373082CEB3FEB03E718E00E941F5757
:10501000E0E5F8E0028100FF03C027E432E002C0CF
:1050200029E432E003E718E00E94915D32E022E1DA
:1050300003E718E00E94520C00E00093730825ED8E
:105040003FEB03E718E00E941F57E0E5F8E002811C
:1050500002FF03C027E432E002C029E432E003E7A4
:1050600018E00E94915D33E022E103E718E00E941E
:10507000520C00E0009373082EEE3FEB03E718E0BC
:105080000E941F57E0E5F8E0028103FF03C027E418
:1050900032E002C029E432E003E718E00E94915DAB
:1050A00034E022E103E718E00E94520C00E0009394
:1050B000730827E030EC03E718E00E941F57E0E593
:1050C000F8E0028104FF03C027E432E002C029E4D3
:1050D00032E003E718E00E94915D35E022E103E74A
:1050E00018E00E94520C00E00093730820E230ECBC
:1050F00003E718E00E941F57E0E5F8E0028105FF92
:1051000003C027E432E002C029E432E003E718E0FC
:105110000E94915D36E022E103E718E00E94520C04
:1051200008952091F50C00E00093F50C00913D0FDF
:1051300010913E0F012B19F001E00093F50C009146
:10514000F50C021729F020E000EF1CE00E94B70DDB
:105150002091040D00E00093040D00913F0F109189
:10516000400F012B19F001E00093040D0091040D94
:10517000021729F020E00FEF1CE00E94B70D2091EC
:10518000130D00E00093130D0091410F1091420F99
:10519000012B19F001E00093130D0091130D02177C
:1051A00029F020E00EE01DE00E94B70D2091220DB5
:1051B00000E00093220DE1E3FFE0008504FF03C05F
:1051C00001E00093220D0091220D021729F020E04A
:1051D0000DE11DE00E94B70D2091310D00E000931C
:1051E000310DE0E5F8E0048102FF03C001E0009327
:1051F000310D0091310D021729F020E00CE21DE085
:105200000E94B70D2091400D00E00093400D222335
:1052100029F020E00BE31DE00E94B70D20914F0D17
:1052200000E000934F0DE0E5F8E0028101FD03C0CE
:1052300001E000934F0D00914F0D021729F020E07F
:105240000AE41DE00E94B70D20915E0D00E000937E
:105250005E0DE0E5F8E0048101FF0AC00091DC0387
:105260001091DD03043F31E0130710F430935E0D1D
:1052700000915E0D021729F020E009E51DE00E9473
:10528000B70D20916A0D00E000936A0D0091D50FD3
:10529000002319F410E110936A0D013019F411E1A3
:1052A00010936A0D023019F412E110936A0D033065
:1052B00019F413E110936A0D043019F414E11093FA
:1052C0006A0D053019F405E100936A0D00916D0D2A
:1052D000021729F020E008E61DE00E94B70D0895AE
:1052E000E6EDFFE000811181065F1F4F008311830F
:1052F0000091D60F1091D70F043823E012072CF03D
:1053000004E80093D60F2093D70F04EF11E0009329
:10531000F6031093F70300912403002319F402E32A
:1053200000930A0400E00093DE030093DF03089576
:10533000E6EDFFE0008111810A50104000831183E7
:105340000091D60F1091D70F083522E012072CF4E8
:1053500008E50093D60F2093D70F04EF11E00093D8
:10536000F6031093F70300912403002319F402E3DA
:1053700000930A0400E00093DE030093DF03089526
:1053800000E000930D040093090400930A040CE369
:1053900000930104E0ECF0EC30E007E81CE04FE0A3
:1053A00050E00E94065DE1EBF0EC06E91CE04FE006
:1053B0000E94065DE2EAF0EC05EA1CE04FE00E9484
:1053C000065DE3E9F0EC04EB1CE04FE00E94065DB3
:1053D000E4E8F0EC03EC1CE04FE00E94065D01E025
:1053E00000938C0C0FE000938A0C50938B0C00936D
:1053F000990C50939A0C0093A80C5093A90C00930D
:10540000B70C5093B80C0093C60C5093C70CE7E44C
:10541000F1EC02ED1CE04FE00E94065DF1EC01EEC4
:105420001CE04FE00E94065DEFECF0EC00EF1CE0AA
:105430004FE00E94065DF0EC0FEF1CE04FE00E9491
:10544000065DF0EC0EE01DE04FE00E94065DF0EC22
:105450000DE11DE04FE00E94065DF1EC0CE21DE065
:105460004FE00E94065DF1EC0BE31DE04FE00E946F
:10547000065DF1EC0AE41DE04FE00E94065DF1ECF0
:1054800009E51DE04FE00E94065DE5E6F1EC08E667
:105490001DE04FE00E94065DE3E4F2EC03EB1DE04B
:1054A00049E00E94065DEAE3F2EC0CEB1DE049E006
:1054B0000E94065DE1E3F2EC05EC1DE049E00E948C
:1054C000065DE8E2F2EC0EEC1DE049E00E94065DAC
:1054D000EFE1F2EC07ED1DE049E00E94065DE6E138
:1054E000F2EC00EE1DE049E00E94065DE1EAF1EC1D
:1054F00009EE1DE049E00E94065DE8E9F1EC02EFEB
:105500001DE049E00E94065DEFE8F1EC0BEF1DE0C5
:1055100049E00E94065DE6E8F1EC04E01EE049E0A7
:105520000E94065DEDE7F1EC0DE01EE049E00E940F
:10553000065DE4E7F1EC06E11EE049E00E94065D4D
:10554000E7EDF1EC0FE11EE049E00E94065DEEECB4
:10555000F1EC08E21EE049E00E94065DE5ECF1ECAA
:1055600001E31EE049E00E94065DECEBF1EC0AE38A
:105570001EE049E00E94065DE3EBF1EC03E41EE06F
:1055800049E00E94065DEAEAF1EC0CE41EE049E025
:105590000E94065DEDE0F2EC05E51EE049E00E94A8
:1055A000065DE4E0F2EC0EE51EE049E00E94065DD7
:1055B000EBEFF1EC07E61EE049E00E94065DE2EF4A
:1055C000F1EC00E71EE049E00E94065DE9EEF1EC37
:1055D00009E71EE049E00E94065DE0EEF1EC02E81A
:1055E0001EE049E00E94065DECE4F2EC0BE81EE0F0
:1055F00049E00E94065DF2EC04E91EE049E00E94E9
:10560000065DF2EC0DE91EE049E00E94065D04E64D
:105610000093DE034093DF030AC02AE009E010E0B4
:105620000E942C5AF801ED54F24F208743950091C7
:105630006802401790F350932303009103030093F3
:10564000FD0208958A9380E00EC0482F50E009E0E3
:1056500010E00E942C5A980103EB1DE0020F131F6B
:105660000E948211839500916802801770F30E9456
:10567000EE0C0E942A0C899108950E941E5D2197CC
:105680000091DE031091DF03012B09F0D0C304EF7A
:1056900011E00093DE031093DF03E6E9F1E00081FF
:1056A000118122813381012B022B032B09F0BFC30F
:1056B00038DD00EC088340E09E010FEE17E00E9409
:1056C000595401E6088340E09E010FEE17E00E9466
:1056D000595400EE088340E09E010FEE17E00E944F
:1056E000595400910204002319F401E00093FD02D3
:1056F0000CE3009301040091D80F12E0019FF00128
:10570000EF5CF04FA289B389A83E03E0B00714F024
:10571000A7EEB3E00BE81EE000934E0810934F088D
:105720000091930E14E11093930E043121F00BE8D5
:105730001EE00E94300F03EB1DE000934E08109313
:105740004F080091BB0DBB233AF41AE01093BB0D38
:10575000B195A195B04003C01BE01093BB0DCD01E6
:1057600010912403112319F010E11093BB0DE09167
:105770004E08F0914F081085011731F000914E0846
:1057800010914F080E94300F0CEB1DE000934E0863
:1057900010934F0844E650E08C010E94405A402F7D
:1057A00050E004E610E00E942C5A801B910B0091FF
:1057B000C40D4093C40D10912403112319F010E17E
:1057C0001093C40D1091C40D011721F00CEB1DE0D6
:1057D0000E94300F0EEC1DE000934E0810934F080E
:1057E0000091D60D1CE01093D60D109124031123C7
:1057F00019F010E11093D60D1091D60D011721F07C
:105800000EEC1DE00E94300F05EC1DE000934E08E9
:1058100010934F084AE050E08C010E94405A402FFC
:1058200050E00AE010E00E942C5A801B0091CD0D40
:105830004093CD0D10912403112319F010E1109322
:10584000CD0D1091CD0D011721F005EC1DE00E944A
:10585000300F07ED1DE000934E0810934F080091A4
:10586000DF0D8093DF0D10912403112319F010E157
:105870001093DF0D1091DF0D011721F007ED1DE0F2
:105880000E94300F00EE1DE000934E0810934F0869
:105890000091E80D1FE01093E80D109124031123EF
:1058A00019F010E11093E80D1091E80D011721F0A7
:1058B00000EE1DE00E94300FA091490FB0914A0FF9
:1058C000A83E03E0B00714F0A7EEB3E004E91EE041
:1058D00000934E0810934F0800919C0E15E1109311
:1058E0009C0E053121F004E91EE00E94300F0FE10B
:1058F0001EE000934E0810934F080091270EBB2323
:105900003AF41AE01093270EB195A195B04003C068
:105910001BE01093270ECD0110912403112319F0E1
:1059200010E11093270EE0914E08F0914F0810857A
:10593000011731F000914E0810914F080E94300F6E
:1059400008E21EE000934E0810934F0844E650E032
:105950008C010E94405A402F50E004E610E00E9463
:105960002C5A801B910B0091300E4093300E1091F9
:105970002403112319F010E11093300E1091300E12
:10598000011721F008E21EE00E94300F0AE31EE03A
:1059900000934E0810934F080091420E1CE01093A4
:1059A000420E10912403112319F010E11093420EBE
:1059B0001091420E011721F00AE31EE00E94300F01
:1059C00001E31EE000934E0810934F084AE050E0B8
:1059D0008C010E94405A402F50E00AE010E00E94E3
:1059E0002C5A801B0091390E4093390E10912403DC
:1059F000112319F010E11093390E1091390E01178F
:105A000021F001E31EE00E94300F03E41EE000934A
:105A10004E0810934F0800914B0E80934B0E10913F
:105A20002403112319F010E110934B0E10914B0E2B
:105A3000011721F003E41EE00E94300F0CE41EE089
:105A400000934E0810934F080091540E1FE01093DE
:105A5000540E10912403112319F010E11093540EE9
:105A60001091540E011721F00CE41EE00E94300F3B
:105A7000A0915608B0915708A83E03E0B00714F073
:105A8000A7EEB3E00DE91EE000934E0810934F0817
:105A90000091A50E16E11093A50E063121F00DE937
:105AA0001EE00E94300F05E51EE000934E081093A3
:105AB0004F0800915D0EBB233AF41AE010935D0E7F
:105AC000B195A195B04003C01BE010935D0ECD01D0
:105AD00010912403112319F010E110935D0EE09151
